:020000040800F2
:1000000040B20020D5010008AD490008F70A0008F9
:10001000A9490008C3050008EF54000800000000CB
:10002000000000000000000000000000F14E000889
:100030006B08000800000000594C0008055000083B
:10004000EF010008EF010008EF010008EF010008D0
:10005000EF010008EF0100086D080008EF0100083B
:1000600077080008810800088B080008EF010008E5
:10007000EF010008EF010008EF010008EF010008A0
:10008000C9050008EF010008EF010008EF010008B2
:10009000EF010008EF010008EF01000895080008D3
:1000A000EF010008C5500008EF010008EF0100084B
:1000B000EF010008EF010008EF010008EF01000860
:1000C000EF010008EF010008EF010008EF01000850
:1000D000EF0100089952000821530008EF010008C1
:1000E000EF010008EF010008EF010008EF01000830
:1000F000EF010008EF010008EF010008EF01000820
:10010000EF010008EF010008EF010008EF0100080F
:10011000EF010008EF010008EF010008EF010008FF
:10012000EF010008EF010008EF0100084106000898
:1001300000F002F800F03FF80AA090E8000C8244BA
:100140008344AAF10107DA4501D100F034F8AFF297
:10015000090EBAE80F0013F0010F18BFFB1A43F0A5
:1001600001031847245B0000445B0000103A24BFE1
:1001700078C878C1FAD8520724BF30C830C144BF0C
:1001800004680C607047000000230024002500264E
:10019000103A28BF78C1FBD8520728BF30C148BFEA
:1001A0000B607047782900F06E80002070471FB503
:1001B0001FBD10B510BD00F0D9F91146FFF7F7FFCC
:1001C00005F01EFA00F0F7F903B4FFF7F2FF03BCE5
:1001D00005F096F90948804709480047FEE7FEE721
:1001E000FEE7FEE7FEE7FEE7FEE7FEE7FEE7FEE7E7
:1001F00004480549054A064B7047000009500008AD
:100200003101000840AC002040B2002040AE002088
:1002100040AE0020704700000FB4044910B503AA97
:10022000029800F089F910BC5DF814FB340000203E
:10023000F0B40D460188090502D5214C7C4402E04A
:100240001F4C7C440E34002100F1240608E002F02B
:100250000F071209E75D42EA03721B097754491C34
:1002600052EA0307F3D102780023120704D5702D58
:1002700006D009B1022311342246F0BC00F0EAB8DE
:1002800001231034F8E770B504460D462146106886
:10029000AFF30080024629462046BDE870400023A7
:1002A000C6E7D21D22F00703D3E90023C0E70368A5
:1002B000126843F0200303600823C3610023B7E7FB
:1002C0000C5A00002DE9F05F894604464FF0000A01
:1002D000DFF874B1FB44C0F820A02046E1688847ED
:1002E000002874D0252806D0D4E901219047206A3F
:1002F000401C2062F1E700265F462046E1688847FF
:100300002028054607DB312D05D2781910F8200C7E
:1003100008B10643F1E7B00701D526F00406C4F89A
:100320001CA00027C4F818A02A2D09D0284605F0E3
:10033000E0F838B304EB8708303DC8F8185019E0EE
:1003400059F8041B204604EB87029161E168884755
:10035000012F054618D1E069002820DA26F0200692
:100360001DE0D8F8180000EB800005EB40003038A5
:10037000C8F818002046E1688847054605F0B9F836
:100380000028EED1012F0AD02E2D08D12046E16899
:1003900088477F1C0546022F46F02006C4DBA06973
:1003A000002803DA404246F00106A061F00701D0C0
:1003B00026F010066C2D0BD0682D09D04C2D39D0AD
:1003C0006A2D35D0742D35D07A2D33D016E038E033
:1003D000E1682F4620468847B842054609D16C2F70
:1003E00026D04FF48060E1680643204688470546E2
:1003F00004E06C2F1AD04FF4807006430DB3A5F1C2
:100400004100192802D8203546F400664A4629469C
:10041000204626604E46FFF7C5FE80B101280BD06E
:10042000F61D26F0070000F1080956E74020E4E732
:100430008020D8E70020D6E706F104094DE72846DA
:1004400052E7206ABDE8F09F9C5900007047704752
:10045000704770472DE9F0470D469946924604468D
:1004600000F124080168880604D5E06921F0100134
:10047000216000E00120A84201DD471B00E00027C9
:10048000A1697A1902EB0900081AA0612078C00658
:1004900002D42046AFF30080002608E0D4E9012111
:1004A0001AF806009047206A401C761C20624E45D0
:1004B000F4DB2078C0060AD52046AFF3008006E0C2
:1004C000D4E9012130209047206A401C2062381E68
:1004D000A7F10107F4DC07E0D4E9012118F80500D1
:1004E0009047206A401C2062281EA5F10105F3DC1C
:1004F0002046AFF300802078000602D50220BDE838
:10050000F0870120FBE7000001694A1C02610878BE
:10051000704700B58FB0CDE9013100210591054943
:100520007944CDE9031011466846FFF7CBFE0FB0C2
:1005300000BD0000E5FFFFFF074B70B50D467B4493
:10054000FFF7E7FF0446284600F008F810B14FF027
:10055000FF3070BD204670BDA3500000007B00F04E
:100560008000704700487047DCAB00207546FFF7FD
:10057000F9FFAE4605006946534620F00700854660
:1005800018B020B5FFF734FEBDE820404FF000065C
:100590004FF000074FF000084FF0000B21F007016B
:1005A000AC46ACE8C009ACE8C009ACE8C009ACE8AE
:1005B000C0098D4670470446AFF300802046FFF720
:1005C00003FE00BFFEE7000010B54FF4001000F07E
:1005D0000FF958B34FF4001000F04AF8F021144816
:1005E00004F081FF00BF8021114804F0AFFE002815
:1005F000F9D000200F49088013E00F4801680D482A
:100600000088401C085C0C4909680A4A1288895C09
:1006100000EB01200949088006480088801C054934
:10062000088004480088B0F5C85FE6DB10BD000014
:10063000004400400C000020080000200008006C6E
:1006400010B5094800F0D4F868B1074800F010F878
:100650006621064804F047FF00BF8021034804F0EC
:1006600075FE0028F9D010BD0000021000440040C3
:1006700000F0805111B10349086001E0024948606F
:1006800070470000040402400000024021B10268EB
:1006900042F00102026004E002684FF6FE731A4065
:1006A0000260704701684FF6FE7211400160002140
:1006B000016041608160C1604B49884208D14A496C
:1006C0000839496841F00F01474A083A51608AE009
:1006D00045491431884208D143490839496841F0F5
:1006E000F001414A083A51607DE03F492831884293
:1006F00008D13D490839496841F470613A4A083ADD
:10070000516070E038493C31884208D13649083997
:10071000496841F47041344A083A516063E0324913
:100720005031884208D130490839496841F4702174
:100730002D4A083A516056E02B496431884208D16D
:1007400029490839496841F47001274A083A51603B
:1007500049E025497831884208D123490839496858
:1007600041F07061204A083A51603CE01F498842DC
:1007700006D1011F096841F00F01021F116032E02C
:100780001A491431884208D11849091F096841F0F3
:10079000F001164A121F116025E0144928318842E1
:1007A00008D11249091F096841F470610F4A121FEC
:1007B000116018E00D493C31884208D10B49091FEE
:1007C000096841F47041094A121F11600BE00749A2
:1007D0005031884207D10549091F096841F4702149
:1007E000024A121F116070470800024008040240CC
:1007F00001460020002201F0805313B1054B1A6816
:1008000001E0054B1A6802EA01030BB1012000E088
:100810000020704700040240000002401AB1036843
:100820000B43036002E003688B430360704710B51D
:100830000022026847F6F0739A430C6A8B682343E0
:100840000C6923434C6923438C692343CC692343BC
:100850004C6A23438C6A23431A430260CB6843608B
:100860000B6883604B68C36010BD704710B50120F2
:1008700000F016F810BD10B5042000F011F810BDFE
:1008800010B5082000F00CF810BD10B5102000F0D5
:1008900007F810BD10B5402000F002F810BD0000B0
:1008A00001490860704700001404014051B1820002
:1008B000A2F1C042126842F001038200A2F1C042DC
:1008C000136009E08200A2F1C0421268034B1A4093
:1008D0008300A3F1C0431A6070470000FEFF0F00C1
:1008E000D0E901121143C268114302691143426900
:1008F000114382691143C2691143026A1143426A7A
:100900001143826A1143C26A1143026B11430268A8
:100910009200A2F1C0421160816808290BD10168E0
:100920008900A1F1C041096841F0400201688900D5
:10093000A1F1C0410A60416B0968426B526841EA0B
:100940000211426B926841EA0221426B928941EAAC
:100950000241426B128A41EA0251426B127D41EA26
:100960000261426B926911430268521C9200A2F12B
:10097000C0421160C16AB1F5804F1BD1816B09681B
:10098000826B526841EA0211826B926841EA02214D
:10099000826B128A41EA0251826B127D41EA026146
:1009A000826B9269114302689200A2F1C042C2F8C0
:1009B000041107E06FF0704201688900A1F1C041A5
:1009C000C1F8042170472DE9F041024600250026B8
:1009D000002000230024002791F803C00CF00F052D
:1009E00091F803C00CF0100CBCF1000F03D091F88B
:1009F00002C04CEA050591F800C0BCF1000F31D0EF
:100A0000146800202BE04FF0010C0CFA00F3B1F851
:100A100000C00CEA03069E4220D183004FF00F0C69
:100A20000CFA03F7BC4305FA03FC4CEA040491F802
:100A300003C0BCF1280F06D14FF0010C0CFA00FCEA
:100A4000C2F814C00AE091F803C0BCF1480F05D108
:100A50004FF0010C0CFA00FCC2F810C0401C082832
:100A6000D1D31460B1F800C0BCF1FF0F34DD54687D
:100A700000202EE000F1080C4FF0010808FA0CF3FA
:100A8000B1F800C00CEA03069E4221D183004FF06A
:100A90000F0C0CFA03F7BC4305FA03FC4CEA040400
:100AA00091F803C0BCF1280F05D100F1080C08FA39
:100AB0000CF8C2F8148091F803C0BCF1480F07D1BC
:100AC00000F1080C4FF0010808FA0CF8C2F8108089
:100AD000401C0828CED35460BDE8F08102460020B7
:100AE00093680B400BB1012000E00020704741618A
:100AF00070470161704700BFFEE7000008B50121A3
:100B0000442004F0CBF81C20ADF8000048208DF8FC
:100B1000030069460648FFF756FF0120ADF80000C4
:100B200028208DF8030069460248FFF74CFF08BDF6
:100B3000001801400008014070B50446002617481F
:100B40000588408845431548808846F60401884258
:100B500016D112488079012812D100200F498871DE
:100B60002A2048812B2088810021084603F06CFE52
:100B700001200A4988712B2048812A20888103E0BE
:100B80000021084603F060FE03F084FE002602E028
:100B900003480480761CAE42FAD370BDA400002046
:100BA0000008006C10B50446002C66D16C498871B1
:100BB000F02008804FF4A07048800846808849F2F1
:100BC000413188420BD06648808846F6040188424D
:100BD00005D06348808845F2103188421AD12C2014
:100BE0005F4908812A2048812B2088810846808817
:100BF00046F60401884205D05948808845F21031F4
:100C0000884206D14FF4A070554908804FF4F07027
:100C10004880A1E05248808845F21051884210D1A6
:100C20004FF430504E4908814FF4285048814FF41A
:100C30002C5088814FF4F07008804FF44870488041
:100C40008AE04748808841F6631188420DD12C2004
:100C5000434908812B2048812A2088814FF4F07075
:100C600008804FF44870488076E022203C49088193
:100C700020204881212088816EE001203849887138
:100C80004FF4A0700880F02048800846808849F220
:100C90004131884205D03248808845F2103188427F
:100CA00007D12C202E4908812A2048812B208881B9
:100CB0003FE02B48808846F60401884207D12C206B
:100CC000274908812B2048812A20888131E0244847
:100CD000808845F21051884210D14FF4305020499D
:100CE00008814FF4285048814FF42C5088814FF4EC
:100CF000487008804FF4F07048801AE018488088E7
:100D000041F6631188420DD12C20154908812A2013
:100D100048812B2088814FF4487008804FF4F07090
:100D2000488006E022200E490881212048812020A9
:100D300088810B48808846F60401884205D008481F
:100D4000808845F21031884206D14FF4F070044992
:100D500008804FF4A0704880002003F0FFFB10BD16
:100D6000A400002000B59FB00121080203F076FF27
:100D700001214FF4B47003F091FF0120ADF8780029
:100D800010208DF87B0003208DF87A001EA9FE4804
:100D9000FFF719FE4CF23370ADF8780018208DF88B
:100DA0007B0003208DF87A001EA9F848FFF70BFEA0
:100DB0004FF68070ADF8780018208DF87B00032086
:100DC0008DF87A001EA9F248FFF7FDFD41F20100FF
:100DD000ADF8780018208DF87B0003208DF87A009C
:100DE0001EA9EC48FFF7EFFD0120089000200990B4
:100DF0000F200A9000200B900C900D900E90019007
:100E00000290032003900020049005900690079024
:100E100006200F90002010901190102012900020BA
:100E2000139015901490169017904FF480501890CE
:100E3000002019904FF480401A9000201B9008A8C1
:100E40001C9001A81D900FA8FFF74AFD0121062064
:100E5000FFF72CFD322004F079FB002003F048FB63
:100E6000CD49888008468088FF280ADB08468088AC
:100E70004FF6FF71884204D0C7488088B0F5134F01
:100E80007ED1D32003F000FD03F028FBC249888007
:100E900003F024FBC049888003F020FBBE49888012
:100EA000084680884FF6FF7101EA0020BA49888021
:100EB00003F014FBB84989880843B749888008467D
:100EC000808849F2413188425AD0BF2003F0DCFCCF
:100ED00003F004FBB049888003F000FBAE49888032
:100EE00003F0FCFAAC49888003F0F8FAAA4988803C
:100EF000084680884FF6FF7101EA0020A6498880E5
:100F000003F0ECFAA44989880843A349888008467D
:100F1000808846F6040188427AD0D42003F0B4FCDD
:100F200003F0DCFA9C49888003F0D8FA9A4988805B
:100F300003F0D4FA98498880084680884FF6FF71FC
:100F400001EA00209449888003F0C8FA9249898810
:100F50000843914988800846808845F210318842CC
:100F600056D04FF45A4003F08FFC03F0B7FA8A4989
:100F700088804FF45B4003F087FC03F0AFFA00E099
:100F800046E085498880084680884FF6FF7101EA6F
:100F90000020814988804FF45C4003F075FC03F029
:100FA0009DFA7D49898808437B4988800846808866
:100FB000B0F5004F02D145F2105088807648808805
:100FC00045F21051884223D0A12003F05DFC03F0CC
:100FD00085FA7149888003F081FA6F498880084654
:100FE00080884FF6FF7101EA00206B49888003F08A
:100FF00075FA694989880843674988800846808866
:1010000045F26171884203D141F6631062498880DC
:101010006148818861A0FFF7FFF85F48808849F246
:10102000413188427ED1CF2003F02EFC002003F016
:1010300025FCC12003F022FC302003F01FFCED2032
:1010400003F022FC642003F019FC032003F016FCDB
:10105000122003F013FC812003F010FCE82003F0C1
:1010600013FC852003F00AFC102003F007FC7A2013
:1010700003F004FCCB2003F007FC392003F0FEFB57
:101080002C2003F0FBFB002003F0F8FB342003F0DE
:10109000F5FB022003F0F2FBF72003F0F5FB202024
:1010A00003F0ECFBEA2003F0EFFB002003F0E6FB8B
:1010B000002003F0E3FBC02003F0E6FB1B2003F05D
:1010C000DDFBC12003F0E0FB012003F0D7FBC520CE
:1010D00003F0DAFB302003F0D1FB302003F0CEFB2D
:1010E000C72003F0D1FBB72003F0C8FB362003F084
:1010F000CBFB482003F0C2FB3A2003F0C5FB552090
:1011000003F0BCFBB12003F0BFFB002003F0B6FBF3
:101110001A2003F0B3FBB62003F0B6FB0A2003F05D
:10112000ADFB00E0AAE0A22003F0A8FBF22003F050
:10113000ABFB002003F0A2FB262003F0A5FB01205F
:1011400003F09CFBE02003F09FFB0F2003F096FBD5
:101150002A2003F093FB282003F090FB082003F0E3
:101160008DFB0E2003F08AFB082003F087FB542040
:1011700003F084FBA92003F081FB432003F07EFBF6
:101180000A2003F07BFB11E0000C01400014014039
:101190000018014000200140A4000020204C4344DE
:1011A0002049443A25780D0A000000000F2003F082
:1011B00065FB002003F062FB002003F05FFB0020D2
:1011C00003F05CFB002003F059FBE12003F05CFB23
:1011D000002003F053FB152003F050FB172003F011
:1011E0004DFB072003F04AFB112003F047FB0620CC
:1011F00003F044FB2B2003F041FB562003F03EFBA1
:101200003C2003F03BFB052003F038FB102003F0EB
:1012100035FB0F2003F032FB3F2003F02FFB3F2074
:1012200003F02CFB0F2003F029FB2B2003F02CFBF9
:10123000002003F023FB002003F020FB012003F03B
:101240001DFB3F2003F01AFB2A2003F01DFB0020AA
:1012500003F014FB002003F011FB002003F00EFB51
:10126000EF2003F00BFB112003F00EFB782004F0BD
:101270006DF9292003F008FB03F01DB9FE488088B2
:1012800046F6040188427CD1112003F0FDFA1420B7
:1012900004F05CF9D02003F0F7FA072003F0EEFA2F
:1012A000422003F0EBFA1D2003F0E8FAD12003F00E
:1012B000EBFA002003F0E2FA1A2003F0DFFA09202B
:1012C00003F0DCFAD22003F0DFFA012003F0D6FAB3
:1012D000222003F0D3FAC02003F0D6FA102003F046
:1012E000CDFA3B2003F0CAFA002003F0C7FA02202F
:1012F00003F0C4FA112003F0C1FAC52003F0C4FAC8
:10130000032003F0BBFAC82003F0BEFA002003F06C
:10131000B5FA252003F0B2FA212003F0AFFA052038
:1013200003F0ACFA002003F0A9FA0A2003F0A6FAB1
:10133000652003F0A3FA252003F0A0FA772003F03C
:101340009DFA502003F09AFA0F2003F097FA00203C
:1013500003F094FAF82003F097FA012003F08EFAD4
:10136000FE2003F091FA002003F088FA022003F037
:1013700085FA202003F088FA362003F085FA082049
:1013800000E02CE003F07AFA3A2003F07DFA5520D1
:1013900003F074FA2B2003F077FA002003F06EFAC2
:1013A000002003F06BFA012003F068FA3F2003F0FD
:1013B00065FA2A2003F068FA002003F05FFA0020A3
:1013C00003F05CFA012003F059FADF2003F056FA2B
:1013D000782004F0BBF8292003F056FA4CE7A64821
:1013E000808845F21031884240F07C87ED2003F080
:1013F0004BFA012003F042FAFE2003F03FFAEE2000
:1014000003F042FADE2003F039FA212003F036FA25
:10141000F12003F039FA012003F030FADF2003F065
:1014200033FA102003F02AFAC42003F02DFA8F209B
:1014300003F024FAC62003F027FA002003F01EFA76
:10144000E22003F01BFAE22003F018FAE22003F096
:1014500015FABF2003F018FAAA2003F00FFAB02003
:1014600003F012FA0D2003F009FA002003F006FA47
:101470000D2003F003FA002003F000FA112003F01E
:10148000FDF9002003F0FAF9192003F0F7F9002024
:1014900003F0F4F9212003F0F1F9002003F0EEF954
:1014A0002D2003F0EBF9002003F0E8F93D2003F0D4
:1014B000E5F9002003F0E2F95D2003F0DFF90020F8
:1014C00003F0DCF95D2003F0D9F9002003F0D6F930
:1014D000B12003F0D9F9802003F0D0F9002003F007
:1014E000CDF98B2003F0CAF9002003F0C7F996204C
:1014F00003F0C4F9002003F0C1F9B22003F0C4F9ED
:10150000002003F0BBF9002003F0B8F9022003F03B
:10151000B5F9002003F0B2F9032003F0AFF9002081
:1015200003F0ACF9B32003F0AFF9002003F0A6F903
:10153000002003F0A3F9002003F0A0F9002003F03D
:101540009DF9002003F09AF9002003F097F900209C
:1015500003F094F9002003F091F9002003F08EF9D4
:10156000002003F08BF9002003F088F9002003F03D
:1015700085F9002003F082F9002003F07FF90020B4
:1015800003F07CF9002003F079F9002003F076F9EC
:10159000002003F073F9002003F070F9002003F03D
:1015A0006DF9002003F06AF9002003F067F90020CC
:1015B00003F064F9002003F061F9B42003F064F94A
:1015C0008B2003F05BF9002003F058F9962003F01C
:1015D00055F9002003F052F9A12003F04FF9002043
:1015E00003F04CF9B52003F04FF9022003F046F95F
:1015F000002003F043F9032003F040F9002003F03A
:101600003DF9042003F03AF9002003F037F9B62041
:1016100003F03AF9002003F031F9002003F02EF92D
:10162000B72003F031F9002003F028F9002003F07F
:1016300025F93F2003F022F9002003F01FF95E2076
:1016400003F01CF9002003F019F9642003F016F9E7
:10165000002003F013F98C2003F010F9002003F0B0
:101660000DF9AC2003F00AF9002003F007F9DC20A3
:1016700003F004F9002001E0A400002003F0FEF8CC
:10168000702003F0FBF8002003F0F8F8902003F03E
:10169000F5F8002003F0F2F8EB2003F0EFF800205B
:1016A00003F0ECF8DC2003F0E9F8002003F0E6F8A2
:1016B000B82003F0E9F8002003F0E0F8002003F080
:1016C000DDF8002003F0DAF8002003F0D7F800205E
:1016D00003F0D4F8002003F0D1F8002003F0CEF896
:1016E000002003F0CBF8BA2003F0CEF8242003F05A
:1016F000C5F8002003F0C2F8002003F0BFF8002076
:1017000003F0BCF8C12003F0BFF8202003F0B6F8C6
:10171000002003F0B3F8542003F0B0F8002003F0E9
:10172000ADF8FF2003F0AAF8002003F0A7F8C220CC
:1017300003F0AAF80A2003F0A1F8002003F09EF8B5
:10174000042003F09BF8002003F098F8C32003F076
:101750009BF83C2003F092F8002003F08FF83A2029
:1017600003F08CF8002003F089F8392003F086F8A4
:10177000002003F083F8372003F080F8002003F006
:101780007DF83C2003F07AF8002003F077F836204B
:1017900003F074F8002003F071F8322003F06EF8C3
:1017A000002003F06BF82F2003F068F8002003F00E
:1017B00065F82C2003F062F8002003F05FF8292080
:1017C00003F05CF8002003F059F8262003F056F8E7
:1017D000002003F053F8242003F050F8002003F019
:1017E0004DF8242003F04AF8002003F047F82320A6
:1017F00003F044F8002003F041F83C2003F03EF8E9
:10180000002003F03BF8362003F038F8002003F006
:1018100035F8322003F032F8002003F02FF82F20A3
:1018200003F02CF8002003F029F82C2003F026F810
:10183000002003F023F8292003F020F8002003F013
:101840001DF8262003F01AF8002003F017F82420D2
:1018500003F014F8002003F011F8242003F00EF830
:10186000002003F00BF8232003F008F8002003F019
:1018700005F8C42003F008F8622002F0FFFF002002
:1018800002F0FCFF052002F0F9FF002002F0F6FF55
:10189000842002F0F3FF002002F0F0FFF02002F0BD
:1018A000EDFF002002F0EAFF182002F0E7FF002021
:1018B00002F0E4FFA42002F0E1FF002002F0DEFFCE
:1018C000182002F0DBFF002002F0D8FF502002F0C9
:1018D000D5FF002002F0D2FF0C2002F0CFFF002045
:1018E00002F0CCFF172002F0C9FF002002F0C6FF73
:1018F000952002F0C3FF002002F0C0FFF32002F0A9
:10190000BDFF002002F0BAFFE62002F0B7FF002082
:1019100002F0B4FFC52002F0B7FF322002F0AEFFA4
:10192000002002F0ABFF442002F0A8FF002002F0EC
:10193000A5FF652002F0A2FF002002F09FFF7620A5
:1019400002F09CFF002002F099FF882002F096FF31
:10195000002002F093FFC62002F096FF202002F044
:101960008DFF002002F08AFF172002F087FF002081
:1019700002F084FF012002F081FF002002F07EFFD0
:10198000C72002F081FF002002F078FF002002F063
:1019900075FF002002F072FF002002F06FFFC820E8
:1019A00002F072FF002002F069FF002002F066FFE3
:1019B000002002F063FF002002F060FFC92002F067
:1019C00063FF002002F05AFF002002F057FF0020C2
:1019D00002F054FF002002F051FF002002F04EFF01
:1019E000002002F04BFF002002F048FF002002F030
:1019F00045FF002002F042FF002002F03FFF0020E0
:101A000002F03CFF002002F039FF002002F036FF18
:101A1000002002F033FF002002F030FF002002F02F
:101A20002DFFE02002F030FF162002F027FF0020FB
:101A300002F024FF1C2002F021FF002002F01EFF14
:101A4000212002F01BFF002002F018FF362002F0D8
:101A500015FF002002F012FF462002F00FFF0020C9
:101A600002F00CFF522002F009FF002002F006FFF6
:101A7000642002F003FF002002F000FF7A2002F051
:101A8000FDFE002002F0FAFE8B2002F0F7FE00209F
:101A900002F0F4FE992002F0F1FE002002F0EEFECA
:101AA000A82002F0EBFE002002F0E8FEB92002F0D0
:101AB000E5FE002002F0E2FEC42002F0DFFE00207E
:101AC00002F0DCFECA2002F0D9FE002002F0D6FEB1
:101AD000D22002F0D3FE002002F0D0FED92002F086
:101AE000CDFE002002F0CAFEE02002F0C7FE00207A
:101AF00002F0C4FEF32002F0C1FE002002F0BEFEA0
:101B0000E12002F0C1FE162002F0B8FE002002F033
:101B1000B5FE1C2002F0B2FE002002F0AFFE222033
:101B200002F0ACFE002002F0A9FE362002F0A6FE74
:101B3000002002F0A3FE452002F0A0FE002002F0EB
:101B40009DFE522002F09AFE002002F097FE6420D3
:101B500002F094FE002002F091FE7A2002F08EFE48
:101B6000002002F08BFE8B2002F088FE002002F0A5
:101B700085FE992002F082FE002002F07FFEA82060
:101B800002F07CFE002002F079FEB92002F076FE21
:101B9000002002F073FEC42002F070FE002002F06C
:101BA0006DFECA2002F06AFE002002F067FED2201D
:101BB00002F064FE002002F061FED82002F05EFE1A
:101BC000002002F05BFEE02002F058FE002002F050
:101BD00055FEF32002F052FE002002F04FFEE220FC
:101BE00002F052FE052002F049FE002002F046FEFF
:101BF0000B2002F043FE002002F040FE1B2002F00A
:101C00003DFE002002F03AFE342002F037FE0020B4
:101C100002F034FE442002F031FE002002F02EFEDD
:101C20004F2002F02BFE002002F028FE612002F07F
:101C300025FE002002F022FE792002F01FFE002087
:101C400002F01CFE882002F019FE002002F016FEB1
:101C5000972002F013FE002002F010FEA62002F0F2
:101C60000DFE002002F00AFEB72002F007FE002061
:101C700002F004FEC22002F001FE002002F0FEFD90
:101C8000C72002F0FBFD002002F0F8FDD12002F099
:101C9000F5FD002002F0F2FDD62002F0EFFD00205D
:101CA00002F0ECFDDD2002F0E9FD002002F0E6FD8F
:101CB000F32002F0E3FD002002F0E0FDE32002F05B
:101CC000E3FD052002F0DAFD002002F0D7FD0A2036
:101CD00002F0D4FD002002F0D1FD1C2002F0CEFD68
:101CE000002002F0CBFD332002F0C8FD002002F0FE
:101CF000C5FD442002F0C2FD002002F0BFFD5020CF
:101D000002F0BCFD002002F0B9FD622002F0B6FD39
:101D1000002002F0B3FD782002F0B0FD002002F0B8
:101D2000ADFD882002F0AAFD002002F0A7FD97205B
:101D300002F0A4FD002002F0A1FDA62002F09EFD0D
:101D4000002002F09BFDB72002F098FD002002F079
:101D500095FDC22002F092FD002002F08FFDC72009
:101D600002F08CFD002002F089FDD12002F086FDFA
:101D7000002002F083FDD52002F080FD002002F05B
:101D80007DFDDD2002F07AFD002002F077FDF320DA
:101D900002F074FD002002F071FDE42002F074FDF9
:101DA000012002F06BFD002002F068FD012002F02E
:101DB00065FD002002F062FD022002F05FFD0020C0
:101DC00002F05CFD2A2002F059FD002002F056FDD1
:101DD0003C2002F053FD002002F050FD4B2002F0A9
:101DE0004DFD002002F04AFD5D2002F047FD00207D
:101DF00002F044FD742002F041FD002002F03EFD9F
:101E0000842002F03BFD002002F038FD932002F018
:101E100035FD002002F032FDA22002F02FFD00204F
:101E200002F02CFDB32002F029FD002002F026FD77
:101E3000BE2002F023FD002002F020FDC42002F0AD
:101E40001DFD002002F01AFDCD2002F017FD00203C
:101E500002F014FDD32002F011FD002002F00EFD6F
:101E6000DD2002F00BFD002002F008FDF32002F05F
:101E700005FD002002F002FDE52002F005FD002036
:101E800002F0FCFC002002F0F9FC002002F0F6FC5D
:101E9000002002F0F3FC022002F0F0FC002002F02F
:101EA000EDFC292002F0EAFC002002F0E7FC3C20D7
:101EB00002F0E4FC002002F0E1FC4B2002F0DEFC2A
:101EC000002002F0DBFC5D2002F0D8FC002002F0D4
:101ED000D5FC742002F0D2FC002002F0CFFC84205C
:101EE00002F0CCFC002002F0C9FC932002F0C6FCFA
:101EF000002002F0C3FCA22002F0C0FC002002F08F
:101F0000BDFCB32002F0BAFC002002F0B7FCBE20FA
:101F100002F0B4FC002002F0B1FCC42002F0AEFCE0
:101F2000002002F0ABFCCD2002F0A8FC002002F063
:101F3000A5FCD32002F0A2FC002002F09FFCDC20D4
:101F400002F09CFC002002F099FCF32002F096FCC9
:101F5000002002F093FCE62002F096FC112002F033
:101F60008DFC002002F08AFC342002F087FC002067
:101F700002F084FC562002F081FC002002F07EFC7E
:101F8000762002F07BFC002002F078FC772002F043
:101F900075FC002002F072FC662002F06FFC00204D
:101FA00002F06CFC882002F069FC002002F066FC64
:101FB000992002F063FC002002F060FCBB2002F0DC
:101FC0005DFC002002F05AFC992002F057FC002032
:101FD00002F054FC662002F051FC002002F04EFC9E
:101FE000552002F04BFC002002F048FC552002F086
:101FF00045FC002002F042FC452002F03FFC00209E
:1020000002F03CFC432002F039FC002002F036FCD8
:10201000442002F033FC002002F030FCE72002F004
:1020200033FC322002F02AFC002002F027FC55206D
:1020300002F024FC002002F021FC762002F01EFCBD
:10204000002002F01BFC662002F018FC002002F0C9
:1020500015FC672002F012FC002002F00FFC672044
:1020600002F00CFC002002F009FC872002F006FCC4
:10207000002002F003FC992002F000FC002002F096
:10208000FDFBBB2002F0FAFB002002F0F7FB9920D9
:1020900002F0F4FB002002F0F1FB772002F0EEFBEF
:1020A000002002F0EBFB442002F0E8FB002002F0ED
:1020B000E5FB562002F0E2FB002002F0DFFB2320CC
:1020C00002F0DCFB002002F0D9FB332002F0D6FB4B
:1020D000002002F0D3FB452002F0D0FB002002F0EC
:1020E000CDFBE82002F0D0FB002002F0C7FB00206F
:1020F00002F0C4FB992002F0C1FB002002F0BEFBFD
:10210000872002F0BBFB002002F0B8FB882002F021
:10211000B5FB002002F0B2FB772002F0AFFB0020FD
:1021200002F0ACFB662002F0A9FB002002F0A6FB47
:10213000882002F0A3FB002002F0A0FBAA2002F0FE
:102140009DFB002002F09AFBBB2002F097FB0020D1
:1021500002F094FB992002F091FB002002F08EFB2C
:10216000662002F08BFB002002F088FB552002F075
:1021700085FB002002F082FB552002F07FFB00204F
:1021800002F07CFB442002F079FB002002F076FB99
:10219000442002F073FB002002F070FB552002F097
:1021A0006DFB002002F06AFBE92002F06DFBAA2023
:1021B00002F064FB002002F061FB002002F05EFBF5
:1021C000002002F05BFB002002F05EFBAA2002F080
:1021D00055FBCF2002F058FB002002F04FFB0020FF
:1021E00002F04CFB002002F049FB002002F046FB0D
:1021F000002002F043FB002002F040FB002002F030
:102200003DFB002002F03AFB002002F037FB0020EB
:1022100002F034FB002002F031FB002002F02EFB24
:10222000002002F02BFB002002F028FB002002F02F
:1022300025FB002002F022FB002002F01FFBF02013
:1022400002F022FB002002F019FB502002F016FBE6
:10225000002002F013FB002002F010FB002002F02F
:102260000DFBF32002F010FB002002F007FBF92029
:1022700002F00AFB062002F001FB102002F0FEFA39
:10228000292002F0FBFA002002F0F8FA3A2002F0CE
:10229000FBFA552002F0F2FA112002F0F5FA642060
:1022A00003F054F9292002F0EFFA352002F0ECFA9D
:1022B000002002F0E3FA512002F0E6FAFF2002F0DB
:1022C000DDFA532002F0E0FA2C2002F0D7FA552074
:1022D00002F0DAFA822002F0D1FA2C2002F0D4FACD
:1022E00002F0E9B8FE48808845F2105188427DD15D
:1022F00055214FF4704002F0D7FAAA214FF20100A5
:1023000002F0D2FA52214FF2020002F0CDFA082177
:102310004FF2030002F0C8FA01214FF2040002F06C
:10232000C3FA0D214FF4304002F0BEFA0D214BF2FA
:10233000010002F0B9FA0D214BF2020002F0B4FAEA
:1023400034214FF4364002F0AFFA34214BF20160F1
:1023500002F0AAFA34214BF2026002F0A5FA0D2134
:102360004FF4314002F0A0FA0D214BF2011002F0BF
:102370009BFA0D214BF2021002F096FA34214FF431
:10238000374002F091FA34214BF2017002F08CFADE
:1023900034214BF2027002F087FA00214FF43240F0
:1023A00002F082FA00214BF2012002F07DFA0021B6
:1023B0004BF2022002F078FA24214FF4384002F068
:1023C00073FA24214BF6010002F06EFA24214BF639
:1023D000020002F069FA01214FF43F4002F064FA72
:1023E0000F214FF4334002F05FFA00E0FDE30F21CC
:1023F0004BF2013002F058FA0F214BF2023002F09A
:1024000053FA34214FF4394002F04EFA34214BF69E
:10241000011002F049FA34214BF6021002F044FA9E
:1024200008214FF4354002F03FFA08214BF20150E9
:1024300002F03AFA08214BF2025002F035FA032179
:102440004FF4424002F030FA24214FF43A4002F0B7
:102450002BFA24214BF6012002F026FA24214BF618
:10246000022002F021FA00214FF43C4002F01CFA55
:1024700078214BF6014002F017FA00214BF602409A
:1024800002F012FA00214FF43D4002F00DFA7821DB
:102490004BF6015002F008FA00214BF6025002F010
:1024A00003FA00214FF43E4002F0FEF964214BF69E
:1024B000016002F0F9F900214FF4514002F0F4F903
:1024C00033214DF2011002F0EFF900214DF202101C
:1024D00002F0EAF934214DF2031002F0E5F900218F
:1024E0004DF2041002F0E0F93A214DF2051002F02D
:1024F000DBF900214DF2061002F0D6F94A214DF227
:10250000071002F0D1F900214DF2081002F0CCF9C9
:102510005C214DF2091002F0C7F900214DF20A10BA
:1025200002F0C2F981214DF20B1002F0BDF9002139
:102530004DF20C1002F0B8F9A6214DF20D1002F088
:10254000B3F900214DF20E1002F0AEF9E5214DF283
:102550000F1002F0A9F901214DF2101002F0A4F9B8
:1025600013214DF2111002F09FF901214DF21210CA
:1025700002F09AF954214DF2131002F095F901215D
:102580004DF2141002F090F982214DF2151002F074
:102590008BF901214DF2161002F086F9CA214DF295
:1025A000171002F081F902214DF2181002F07CF9A7
:1025B00000214DF2191002F077F902214DF21A10A4
:1025C00002F072F901214DF21B1002F06DF90221A7
:1025D0004DF21C1002F068F934214DF21D1002F08A
:1025E00063F902214DF21E1002F05EF967214DF2EF
:1025F0001F1002F059F902214DF2201002F054F997
:1026000084214DF2211002F04FF902214DF22210E7
:1026100002F04AF9A4214DF2231002F045F90221FB
:102620004DF2241002F040F9B7214DF2251002F0CE
:102630003BF902214DF2261002F036F9CF214DF27E
:10264000271002F031F902214DF2281002F02CF986
:10265000DE214DF2291002F027F902214DF22A1055
:1026600002F022F9F2214DF22B1002F01DF90221A5
:102670004DF22C1002F018F9FE214DF22D1002F04F
:1026800013F903214DF22E1002F00EF910214DF234
:102690002F1002F009F903214DF2301002F004F975
:1026A00033214DF2311002F0FFF803214DF23210C8
:1026B00002F0FAF86D214DF2331002F0F5F8002126
:1026C0004FF4524002F0F0F833214DF2012002F0B5
:1026D000EBF800214DF2022002F0E6F8342101E08F
:1026E000A40000204DF2032002F0DEF800214DF29C
:1026F000042002F0D9F83A214DF2052002F0D4F876
:1027000000214DF2062002F0CFF84A214DF20720B9
:1027100002F0CAF800214DF2082002F0C5F85C2151
:102720004DF2092002F0C0F800214DF20A2002F01B
:10273000BBF881214DF20B2002F0B6F800214DF2DA
:102740000C2002F0B1F8A6214DF20D2002F0ACF8F9
:1027500000214DF20E2002F0A7F8E5214DF20F20E6
:1027600002F0A2F801214DF2102002F09DF8132191
:102770004DF2112002F098F801214DF2122002F0E2
:1027800093F854214DF2132002F08EF801214DF2FE
:10279000142002F089F882214DF2152002F084F80D
:1027A00001214DF2162002F07FF8CA214DF21720C8
:1027B00002F07AF802214DF2182002F075F800219B
:1027C0004DF2192002F070F802214DF21A2002F0A9
:1027D0006BF801214DF21B2002F066F802214DF248
:1027E0001C2002F061F834214DF21D2002F05CF84B
:1027F00002214DF21E2002F057F867214DF21F20F2
:1028000002F052F802214DF2202002F04DF884210E
:102810004DF2212002F048F802214DF2222002F070
:1028200043F8A4214DF2232002F03EF802214DF29C
:10283000242002F039F8B7214DF2252002F034F8B7
:1028400002214DF2262002F02FF8CF214DF2272051
:1028500002F02AF802214DF2282002F025F8DE21AC
:102860004DF2292002F020F802214DF22A2002F038
:102870001BF8F2214DF22B2002F016F802214DF246
:102880002C2002F011F8FE214DF22D2002F00CF860
:1028900003214DF22E2002F007F810214DF22F20D7
:1028A00002F002F803214DF2302001F0FDFF332148
:1028B0004DF2312001F0F8FF03214DF2322001F0FA
:1028C000F3FF6D214DF2332001F0EEFF00214FF4B4
:1028D000534001F0E9FF33214DF2013001F0E4FFF4
:1028E00000214DF2023001F0DFFF34214DF20330C0
:1028F00001F0DAFF00214DF2043001F0D5FF3A215A
:102900004DF2053001F0D0FF00214DF2063001F00C
:10291000CBFF4A214DF2073001F0C6FF00214DF2F6
:10292000083001F0C1FF5C214DF2093001F0BCFF1D
:1029300000214DF20A3001F0B7FF81214DF20B303A
:1029400001F0B2FF00214DF20C3001F0ADFFA621E5
:102950004DF20D3001F0A8FF00214DF20E3001F0D4
:10296000A3FFE5214DF20F3001F09EFF01214DF252
:10297000103001F099FF13214DF2113001F094FF56
:1029800001214DF2123001F08FFF54214DF213302E
:1029900001F08AFF01214DF2143001F085FF822100
:1029A0004DF2153001F080FF01214DF2163001F09B
:1029B0007BFFCA214DF2173001F076FF02214DF264
:1029C000183001F071FF00214DF2193001F06CFF59
:1029D00002214DF21A3001F067FF01214DF21B3048
:1029E00001F062FF02214DF21C3001F05DFF342145
:1029F0004DF21D3001F058FF02214DF21E3001F062
:102A000053FF67214DF21F3001F04EFF02214DF2BE
:102A1000203001F049FF84214DF2213001F044FFC4
:102A200002214DF2223001F03FFFA4214DF223306C
:102A300001F03AFF02214DF2243001F035FFB721B9
:102A40004DF2253001F030FF02214DF2263001F029
:102A50002BFFCF214DF2273001F026FF02214DF24E
:102A6000283001F021FFDE214DF2293001F01CFF5A
:102A700002214DF22A3001F017FFF2214DF22B30E6
:102A800001F012FF02214DF22C3001F00DFFFE216A
:102A90004DF22D3001F008FF03214DF22E3001F0F0
:102AA00003FF10214DF22F3001F0FEFE03214DF205
:102AB000303001F0F9FE33214DF2313001F0F4FEF7
:102AC00003214DF2323001F0EFFE6D214DF2333033
:102AD00001F0EAFE00214FF4544001F0E5FE3321FD
:102AE0004DF2014001F0E0FE00214DF2024001F004
:102AF000DBFE34214DF2034001F0D6FE00214DF201
:102B0000044001F0D1FE3A214DF2054001F0CCFE27
:102B100000214DF2064001F0C7FE4A214DF2074068
:102B200001F0C2FE00214DF2084001F0BDFE5C2123
:102B30004DF2094001F0B8FE00214DF20A4001F0CB
:102B4000B3FE81214DF20B4001F0AEFE00214DF2AB
:102B50000C4001F0A9FEA6214DF20D4001F0A4FEAB
:102B600000214DF20E4001F09FFEE5214DF20F4095
:102B700001F09AFE01214DF2104001F095FE132163
:102B80004DF2114001F090FE01214DF2124001F092
:102B90008BFE54214DF2134001F086FE01214DF2CF
:102BA000144001F081FE82214DF2154001F07CFEBF
:102BB00001214DF2164001F077FECA214DF2174077
:102BC00001F072FE02214DF2184001F06DFE00216D
:102BD0004DF2194001F068FE02214DF21A4001F059
:102BE00063FE01214DF21B4000E006E301F05CFEB4
:102BF00002214DF21C4001F057FE34214DF21D40E0
:102C000001F052FE02214DF21E4001F04DFE6721FF
:102C10004DF21F4001F048FE02214DF2204001F02C
:102C200043FE84214DF2214001F03EFE02214DF28F
:102C3000224001F039FEA4214DF2234001F034FE80
:102C400002214DF2244001F02FFEB7214DF2254024
:102C500001F02AFE02214DF2264001F025FECF218F
:102C60004DF2274001F020FE02214DF2284001F0F4
:102C70001BFEDE214DF2294001F016FE02214DF22D
:102C80002A4001F011FEF2214DF22B4001F00CFE22
:102C900002214DF22C4001F007FEFE214DF22D40A5
:102CA00001F002FE03214DF22E4001F0FDFD102146
:102CB0004DF22F4001F0F8FD03214DF2304001F0BC
:102CC000F3FD33214DF2314001F0EEFD03214DF2D1
:102CD000324001F0E9FD6D214DF2334001F0E4FD99
:102CE00000214FF4554001F0DFFD33214DF201503A
:102CF00001F0DAFD00214DF2025001F0D5FD342142
:102D00004DF2035001F0D0FD00214DF2045001F0CE
:102D1000CBFD3A214DF2055001F0C6FD00214DF2E8
:102D2000065001F0C1FD4A214DF2075001F0BCFDF3
:102D300000214DF2085001F0B7FD5C214DF2095021
:102D400001F0B2FD00214DF20A5001F0ADFD8121EC
:102D50004DF20B5001F0A8FD00214DF20C5001F096
:102D6000A3FDA6214DF20D5001F09EFD00214DF274
:102D70000E5001F099FDE5214DF20F5001F094FD48
:102D800001214DF2105001F08FFD13214DF2115031
:102D900001F08AFD01214DF2125001F085FD542110
:102DA0004DF2135001F080FD01214DF2145001F05D
:102DB0007BFD82214DF2155001F076FD01214DF28F
:102DC000165001F071FDCA214DF2175001F06CFD53
:102DD00002214DF2185001F067FD00214DF219500B
:102DE00001F062FD02214DF21A5001F05DFD01215A
:102DF0004DF21B5001F058FD02214DF21C5001F024
:102E000053FD34214DF21D5001F04EFD02214DF2D3
:102E10001E5001F049FD67214DF21F5001F044FDA5
:102E200002214DF2205001F03FFD84214DF221504E
:102E300001F03AFD02214DF2225001F035FDA421AE
:102E40004DF2235001F030FD02214DF2245001F0EB
:102E50002BFDB7214DF2255001F026FD02214DF248
:102E6000265001F021FDCF214DF2275001F01CFD2D
:102E700002214DF2285001F017FDDE214DF22950BC
:102E800001F012FD02214DF22A5001F00DFDF22158
:102E90004DF22B5001F008FD02214DF22C5001F0B3
:102EA00003FDFE214DF22D5001F0FEFC03214DF2F9
:102EB0002E5001F0F9FC10214DF22F5001F0F4FCDE
:102EC00003214DF2305001F0EFFC33214DF231502F
:102ED00001F0EAFC03214DF2325001F0E5FC6D21D6
:102EE0004DF2335001F0E0FC00214FF4564001F068
:102EF000DBFC33214DF2016001F0D6FC00214DF2E4
:102F0000026001F0D1FC34214DF2036001F0CCFCF1
:102F100000214DF2046001F0C7FC3A214DF205603A
:102F200001F0C2FC00214DF2066001F0BDFC4A2117
:102F30004DF2076001F0B8FC00214DF2086001F08D
:102F4000B3FC5C214DF2096001F0AEFC00214DF2B2
:102F50000A6001F0A9FC81214DF20B6001F0A4FC94
:102F600000214DF20C6001F09FFCA6214DF20D6096
:102F700001F09AFC00214DF20E6001F095FCE52174
:102F80004DF20F6001F090FC01214DF2106001F054
:102F90008BFC13214DF2116001F086FC01214DF2F2
:102FA000126001F081FC54214DF2136001F07CFCB1
:102FB00001214DF2146001F077FC82214DF2156081
:102FC00001F072FC01214DF2166001F06DFCCA2186
:102FD0004DF2176001F068FC02214DF2186001F01B
:102FE00063FC00214DF2196001F05EFC02214DF2FC
:102FF0001A6001F059FC01214DF21B6001F054FCF4
:1030000002214DF21C6001F04FFC34214DF21D6095
:1030100001F04AFC02214DF21E6001F045FC6721DF
:103020004DF21F6001F040FC02214DF2206001F0E2
:103030003BFC84214DF2216001F036FC02214DF26F
:10304000226001F031FCA4214DF2236001F02CFC40
:1030500002214DF2246001F027FCB7214DF22560DA
:1030600001F022FC02214DF2266001F01DFCCF216F
:103070004DF2276001F018FC02214DF2286001F0AA
:1030800013FCDE214DF2296001F00EFC02214DF20D
:103090002A6001F009FCF2214DF22B6001F004FCE2
:1030A00002214DF22C6001F0FFFBFE214DF22D605C
:1030B00001F0FAFB03214DF22E6001F0F5FB102127
:1030C0004DF22F6001F0F0FB03214DF2306001F072
:1030D000EBFB33214DF2316001F0E6FB03214DF2B1
:1030E000326001F0E1FB6D214DF2336001F0DCFB59
:1030F00055214FF4704001F0D7FBAA214FF2010097
:1031000001F0D2FB52214FF2020001F0CDFB082169
:103110004FF2030001F0C8FB00214FF2040001F060
:10312000C3FBCC214FF4314001F0BEFB00214BF238
:10313000011001F0B9FB05214FF4364001F0B4FB5A
:1031400070214FF4374001F0AFFB70214BF201705A
:1031500001F0AAFB01214FF4384001F0A5FB032147
:103160004BF6010001F0A0FB03214BF6020001F039
:103170009BFB03214BF6030001F096FB02214FF469
:103180003C4001F091FB00214BF6014001F08CFB2B
:1031900000214BF6024001F087FBD0214FF449405B
:1031A00001F082FB02214CF6011001F07DFB502161
:1031B0004CF6021001F078FB50214CF6031001F0A0
:1031C00073FB50214CF6041001F06EFB00214FF40C
:1031D000545001F069FB55214FF4685001F064FB35
:1031E0004FF4885001F050FB782002F0D5F94FF4ED
:1031F000245001F049FB01F05EB9FE48808849F295
:10320000253188427ED147F6F001E52001F04CFBE4
:103210004FF48071012001F047FB4FF4E061022080
:1032200001F042FB41F23001032001F03DFB00219F
:10323000042001F039FB40F20221082001F034FBA8
:103240000021092001F030FB00210A2001F02CFBB5
:1032500000210C2001F028FB00210D2001F024FBAF
:1032600000210F2001F020FB0021102001F01CFBA9
:103270000721112001F018FB0021122001F014FB9E
:103280000021132001F010FB0021072001F00CFBAE
:1032900041F29061102001F007FB40F2272111203C
:1032A00001F002FB9D21122001F0FEFA4FF4C851FB
:1032B000132001F0F9FA2521292001F0F5FA0D215A
:1032C0002B2001F0F1FA0721302001F0EDFA40F255
:1032D0000331312001F0E8FA0321322001F0E4FA51
:1032E00040F20621352001F0DFFA0821362001F0F6
:1032F000DBFA40F20641372001F0D6FA4FF4417173
:10330000382000E057E001F0CFFA0721392001F022
:10331000CBFA40F202613C2001F0C6FA08213D20C0
:1033200001F0C2FA0021502001F0BEFAEF21512035
:1033300001F0BAFA0021522001F0B6FA40F23F1132
:10334000532001F0B1FA4FF42741602001F0ACFAAC
:103350000121612001F0A8FA00216A2001F0A4FAFD
:103360000021802001F0A0FA0021812001F09CFAC8
:103370000021822001F098FA0021832001F094FAC4
:103380000021842001F090FA0021852001F08CFAC0
:103390001021902001F088FA4FF4C061922001F0D2
:1033A00083FA40F23311072001F07EFA2221002037
:1033B00001F07AFA1FE78F48808849F22831884265
:1033C0007ED141F28F01EC2001F06EFA41F23421FE
:1033D000EF2001F069FA4FF48071012001F064FAE6
:1033E0004FF4E061022001F05FFA41F23001032066
:1033F00001F05AFA0021042001F056FA40F20221AD
:10340000082001F051FA0021092001F04DFA0021B5
:103410000A2001F049FA01210C2001F045FA0021AF
:103420000D2001F041FA00210F2001F03DFA0021AA
:10343000102001F039FA0721112001F035FA00219E
:10344000122001F031FA0021132001F02DFA0121A0
:10345000072001F029FA322002F078F841F2904179
:10346000102001F021FA40F22721112001F01CFA6E
:10347000322002F06BF88A21122001F015FA322076
:1034800002F064F84FF4D051132001F00DFA062138
:10349000292001F009FA0D212B2001F005FA322034
:1034A00002F054F80021202001F0FEF90021212033
:1034B00001F0FAF9322002F049F80021302000E052
:1034C00074E001F0F1F940F20461312001F0ECF90F
:1034D00040F20531322001F0E7F90021352001F0FA
:1034E000E3F940F60941362001F0DEF94FF40171AD
:1034F000372001F0D9F940F20131382001F0D4F938
:1035000040F20771392001F0CFF900213C2001F091
:10351000CBF940F60A213D2001F0C6F9322002F035
:1035200015F80021502001F0BFF9EF21512001F0E2
:10353000BBF90021522001F0B7F940F23F115320AE
:1035400001F0B2F94FF42741602001F0ADF90121FB
:10355000612001F0A9F900216A2001F0A5F90021FC
:10356000802001F0A1F90021812001F09DF90021C6
:10357000822001F099F90021832001F095F90021C2
:10358000842001F091F90021852001F08DF91021AE
:10359000902001F089F94FF4C061922001F084F984
:1035A00040F23311072001F07FF924E611488088AA
:1035B00049F2203188427DD10021084601F074F99A
:1035C0004FF48071012001F06FF94FF4E0610220A7
:1035D00001F06AF941F23001032001F065F90021A0
:1035E000042001F061F940F20221082001F05CF9A9
:1035F000002101E0A4000020092001F055F900217C
:103600000A2001F051F901210C2001F04DF90021AF
:103610000D2001F049F900210F2001F045F9322079
:1036200001F094FF40F20111072001F03DF9322032
:1036300001F08CFF4FF48651102001F035F907217D
:10364000112001F031F94FF48871122001F02CF9AA
:103650004FF43061132001F027F90021292001F0F7
:1036600023F944F210012B2001F01EF90021502013
:1036700001F01AF9EF21512001F016F90021522032
:1036800001F012F940F23F11532001F00DF94FF40F
:103690001C51602001F008F90121612001F004F9BA
:1036A00000216A2001F000F90021802001F0FCF8DF
:1036B000002100E031E0812001F0F6F800218220B5
:1036C00001F0F2F80021832001F0EEF800218420BF
:1036D00001F0EAF80021852001F0E6F810219020A1
:1036E00001F0E2F80021922001F0DEF801219320A0
:1036F00001F0DAF84FF48871952001F0D5F8002137
:10370000972001F0D1F80021982001F0CDF840F287
:103710007311072001F0C8F86DE5FE48808849F272
:10372000313188427DD141F21401E72001F0BCF82B
:103730004FF48071012001F0B7F84FF400710220BE
:1037400001F0B2F841F23801032001F0ADF840F287
:103750000221082001F0A8F80021092001F0A4F8B6
:1037600000210A2001F0A0F800210C2001F09CF8B3
:1037700000210D2001F098F800210F2001F094F8AD
:103780000021102001F090F80721112001F08CF8A1
:103790000021122001F088F80021132001F084F8A4
:1037A000C82001F0D3FE41F29061102001F07CF8B6
:1037B00040F22721112001F077F8322001F0C6FEF7
:1037C0000C21122001F070F8322001F0BFFE4FF4FE
:1037D0000061132001F068F81121292001F064F83C
:1037E0000B212B2001F060F8322001F0AFFE002108
:1037F000202001F059F840F23F11212001F054F847
:103800000021302001F050F84FF48371312001F095
:103810004BF80021322001F047F84FF401713520B8
:1038200000E064E001F040F841F20A61362001F066
:103830003BF840F20771372001F036F84FF48371FE
:10384000382001F031F840F20771392001F02CF8EE
:1038500040F202413C2001F027F840F60F413D20A4
:1038600001F022F80021502001F01EF8EF21512034
:1038700001F01AF80021522001F016F840F23F1131
:10388000532001F011F84FF41C51602001F00CF8A6
:103890000121612001F008F800216A2001F004F8FC
:1038A0000021802001F000F80021812000F0FCFFC1
:1038B0000021822000F0F8FF0021832000F0F4FFB7
:1038C0000021842000F0F0FF0021852000F0ECFFB3
:1038D0001021902000F0E8FF4FF4C061922000F02A
:1038E000E3FF40F23311072000F0DEFF83E4894854
:1038F000808845F2084188427ED14FF480710120D2
:1039000000F0D2FF4FF4E061022000F0CDFF41F261
:103910003001032000F0C8FF0021042000F0C4FFA4
:1039200040F20721082000F0BFFF0021092000F02D
:10393000BBFF00210A2000F0B7FF00210C2000F09F
:10394000B3FF00210D2000F0AFFF00210F2000F099
:10395000ABFF142001F0FAFD41F2B061102000F03D
:10396000A3FF0121112000F09FFF0121172000F08B
:103970009BFF4FF49C71122000F096FF4FF4006102
:10398000132000F091FF0921292000F08DFF09216B
:103990002A2000F089FF0021A42000F085FF0021EB
:1039A000502000F081FFEF21512000F07DFF002129
:1039B000522000F079FF40F23F11532000F074FFD5
:1039C0004FF41C51602000F06FFF0121612000F0D6
:1039D0006BFF00216A2000F067FF0021802000F0CB
:1039E00063FF0021812000F05FFF0021822000F0B2
:1039F0005BFF0021832000E023E000F055FF002161
:103A0000842000F051FF0021852000F04DFF13219C
:103A1000902000F049FF0021922000F045FF032193
:103A2000932000F041FF4FF48871952000F03CFF97
:103A300040F27311072000F037FF322001F086FDBD
:103A4000B8E43448808841F2055188427ED1002193
:103A5000072000F029FF322001F078FD4FF48E712D
:103A6000122000F021FF0121A42000F01DFF0F21F2
:103A7000082000F019FF08210A2000F015FF082196
:103A80000D2000F011FF40F20771302000F00CFF14
:103A90000721312000F008FF40F20361322000F0DE
:103AA00003FF4FF4E061332000F0FEFE40F20221FC
:103AB000342000F0F9FE0221352000F0F5FE41F639
:103AC0000F71362000F0F0FE40F20771372000F051
:103AD000EBFE0021382000F0E7FE0021392000F045
:103AE000E3FE40F207713A2000F0DEFE00213B20A9
:103AF00000F0DAFE07213C2000F0D6FE00213D2038
:103B000000F0D2FE322001F021FD0121072000F05B
:103B1000CBFE01E0A40000200121172000F0C4FE2C
:103B2000322001F013FD4FF4BD51102000F0BCFE17
:103B300040F21721112000F0B7FE4FF48F711220D0
:103B400000F0B2FE4FF47061132000E097E000F047
:103B5000ABFE00212A2000F0A7FE0A21292000F058
:103B6000A3FE4FF49F71122000F09EFE0021502012
:103B700000F09AFEEF21512000F096FE0021522025
:103B800000F092FE40F23F11532000F08DFE4FF402
:103B90001C51602000F088FE0121612000F084FEAD
:103BA00000216A2000F080FE0021802000F07CFED1
:103BB0000021812000F078FE0021822000F074FEB8
:103BC0000021832000F070FE0021842000F06CFEB4
:103BD0000021852000F068FE1321902000F064FE93
:103BE0004FF44071922000F05FFE0521932000F019
:103BF0005BFE0021952000F057FE0021972000F089
:103C000053FE0021982000F04FFE4FF480710120F8
:103C100000F04AFE4FF4E061022000F045FE41F260
:103C20003801032000F040FE0021042000F03CFE9B
:103C300000210C2000F038FE00210F2000F034FE9F
:103C40000021202000F030FE0021212000F02CFE79
:103C50002121072000F028FE142001F077FC6121CB
:103C6000072000F021FE142001F070FC40F27311D7
:103C7000072000F019FE142001F068FC95E4FE48CE
:103C800080884BF2055188427ED10021084600F021
:103C90000BFE0021084600F007FE0021084600F058
:103CA00003FE0021084600F0FFFD0121A42000F0E2
:103CB000FBFD142001F04AFC4FF41C51602000F081
:103CC000F3FD40F20221082000F0EEFD4FF40571F3
:103CD000302000F0E9FD43F21571312000F0E4FDE1
:103CE00040F20461322000F0DFFD40F6166133201F
:103CF00000F0DAFD42F21121342000F0D5FD4FF43E
:103D0000A851352000F0D0FD48F20751362000F0D0
:103D1000CBFD41F20741372000F0C6FD41F20341DF
:103D2000382000F0C1FD2021392000F0BDFD1A210E
:103D3000902000F0B9FD0021102000F0B5FD072112
:103D4000112000F0B1FD0021122000F0ADFD002196
:103D5000132000F0A9FD142001F0F8FB4FF4E661F8
:103D6000102000F0A1FD40F23711112000F09CFD61
:103D7000142001F0EBFB4FF4DC71122000F094FDF5
:103D8000142001F0E3FB00E083E04FF470611320A6
:103D900000F08AFD80212A2000F086FD482129209C
:103DA00000F082FD142001F0D1FB4FF4807101205E
:103DB00000F07AFD4FF4E061022000F075FD41F261
:103DC0003801032000F070FD40F20221082000F0CD
:103DD0006BFD00210A2000F067FD00210C2000F09F
:103DE00063FD00210D2000F05FFD30210E2000F06A
:103DF0005BFD0021502000F057FDEF21512000F025
:103E000053FD0021522000F04FFD40F23F1153209E
:103E100000F04AFD4FF41C51602000F045FD0121E7
:103E2000612000F041FD00216A2000F03DFD1121DC
:103E3000902000F039FD4FF4C061922000F034FD75
:103E400040F20241932000F02FFD0221942000F067
:103E50002BFD142001F07AFB0121072000F024FD46
:103E6000142001F073FB6121072000F01DFD40F2DA
:103E70007311072000F018FD0021202000F014FD30
:103E80000021212000F010FD2221002000F00CFD77
:103E900011E3794880884CF2055188427ED1002197
:103EA000084600F001FD0021084600F0FDFC14204A
:103EB00001F04CFB0021084600F0F6FC002108460A
:103EC00000F0F2FC0021084600F0EEFC002108465C
:103ED00000F0EAFC0121A42000F0E6FC142001F02F
:103EE00035FB4FF41C51602000F0DEFC40F606016B
:103EF000082000F0D9FC40F20371302000F0D4FC1F
:103F00000121312000F0D0FC0421322000F0CCFC53
:103F10004FF48171332000F0C7FC4FF4407134201E
:103F200000F0C2FC40F20311352000F0BDFC1F215F
:103F3000362000F0B9FC40F20371372000F0B4FCE9
:103F40000121382000F0B0FC0421392000F0ACFC45
:103F50001521902000F0A8FC4FF48261102000F0A1
:103F6000A3FC40F24721112000F09EFC4FF4DE71CB
:103F7000122000F099FC4FF46061132000F094FCD3
:103F8000782001F0E3FA4FF48071012000F08CFCFE
:103F90004FF40071022000F087FC00E050E041F295
:103FA0003001032000F080FC08210A2000F07CFC96
:103FB00000210C2000F078FC20210E2000F074FC81
:103FC00000210F2000F070FC0021202000F06CFC8C
:103FD0000021212000F068FC3D212A2000F064FC33
:103FE000142001F0B3FA2D21292000F05DFC0021FE
:103FF000502000F059FC4DF2EF01512000F054FC2C
:104000000021522000F050FC40F23F11532000F0FC
:104010004BFC0021612000F047FC00216A2000F0E9
:1040200043FC4FF44071922000F03EFC05219320A8
:1040300000F03AFC4FF48071072000F035FC3AE2C2
:104040000D48808844F2315188427CD10121002002
:1040500000F02AFC0A2001F079FA41F228611020D0
:1040600000F022FC0E21122000F01EFC40F6392147
:10407000132000F019FC01E0A40000200A2001F048
:1040800065FA4021112000F00FFC5021152000F0AE
:104090000BFC0A2001F05AFA1E21122000F004FC49
:1040A0000A2001F053FA4FF4B151102000F0FCFB4C
:1040B00042F63921132000F0F7FB0A2001F046FAFE
:1040C0004FF48071012000F0EFFB4FF440710220AB
:1040D00000F0EAFB41F23801032000F0E5FB40F27A
:1040E0000221082000F0E0FB08210A2000F0DCFBA0
:1040F0000021302000F0D8FB40F20241312000F0D6
:10410000D3FB4FF48371322000F0CEFB40F2035119
:10411000332000F0C9FB4FF48271342000F0C4FB5F
:1041200040F20131352000F0BFFB40F2077136202C
:1041300000F0BAFB40F20531372000F0B5FB4FF438
:104140000271382000E040E000F0AEFB40F60B7159
:10415000392000F0A9FB0221412000F0A5FB4FF41B
:104160001C51602000F0A0FB0121612000F09CFBAD
:104170004FF40471902000F097FB4FF4857192206A
:1041800000F092FB0421932000F08EFB4FF480712D
:10419000A02000F089FB0121072000F085FB2121F0
:1041A000072000F081FB2321072000F07DFB332155
:1041B000072000F079FB40F23311072000F074FB78
:1041C0000021A02000F070FB75E1C248808844F215
:1041D000355188427ED13021152000F065FB102139
:1041E0009A2000F061FB2021112000F05DFB43F2DA
:1041F0002841102000F058FB0221122000F054FB4F
:1042000041F23801132000F04FFB282001F09EF905
:104210001221084600F048FB282001F097F943F2EC
:104220002041102000F040FB43F23801132000F041
:104230003BFB462001F08AF90021302000F034FBDE
:1042400040F20241312000F02FFB40F207313220D2
:1042500000F02AFB4FF44171332000F025FB0421CC
:10426000342000F021FB40F20141352000F01CFB1E
:1042700040F20771362000F017FB40F2053137207D
:1042800000F012FB4FF4C261382000F00DFB4FF438
:10429000C261392000F008FB4FF48071012000F06A
:1042A00003FB4FF44071022000F0FEFA41F23001AE
:1042B000032000F0F9FA40F60801082000F0F4FAB3
:1042C00008210A2000F0F0FA4FF41C51602000F0A1
:1042D000EBFA00E031E00121612000F0E5FA4FF453
:1042E0009F71902000F0E0FA4FF48071922000F06E
:1042F000DBFA4FF48071932000F0D6FA4FF440516E
:10430000A02000F0D1FA1021A32000F0CDFA012165
:10431000072000F0C9FA2121072000F0C5FA232167
:10432000072000F0C1FA3321072000F0BDFA40F267
:104330003311072000F0B8FABDE06648808841F6E6
:1043400063118842F8D1E22000F09EFA1D2000F0AF
:1043500095FA022000F092FA042000F08FFA64200F
:1043600001F01AF9E02000F08FFA012000F086FA3F
:104370000A2001F0EBF8E02000F086FA032000F0BC
:104380007DFA0C2001F0E2F8012000F07DFA0A200D
:1043900001F0DCF8E62000F077FA2F2000F06EFA4A
:1043A000FF2000F06BFAFF2000F068FAB02000F068
:1043B0006BFA202000F062FA002000F05FFA032080
:1043C00000F05CFA40F21F3000F058FA012000F0D3
:1043D00055FA40F2DF1000F051FA002000F04EFADA
:1043E000B42000F051FA042000F048FA40F21F40D7
:1043F00000F044FA002000F041FA2E2000F03EFACE
:10440000002000F03BFA002000F038FA002000F015
:1044100035FA002000F032FAB62000F035FA02201A
:1044200000F02CFA4FF4037000F028FA002000F09E
:1044300025FA172000F022FA152000F01FFA0020BC
:1044400000F01CFA002000F019FAF02000F01CFA2D
:10445000032000F013FA292000F016FAD02000F013
:1044600013FA002000F00AFABE2000F00DFA052031
:1044700000F004FAFE2000F001FA012000F0FEF93D
:10448000002000F0FBF9002000F0F8F9002000F017
:10449000F5F9B82000F0F8F9032000F0EFF9012059
:1044A00000F0ECF9BA2000F0EFF9012000F0E6F995
:1044B000642000F029F80020FCF774FB0120064975
:1044C0000860042000F04AF80020FCF735FB1FB01C
:1044D00000BD0000A40000208081214208B50348EF
:1044E00000880090BDF8000008BD00000008006CC6
:1044F00010B50446204600F0C7F9052001F04CF83D
:10450000FFF7ECFF10BD00002DE9F0470446BE2088
:1045100000F0BAF9052000F0B1F9204601F073FA75
:1045200007464FF066320C4B01F080FA054601F069
:104530003DFA1FFA80F9484600F0A0F9012000F08A
:104540009DF9FF2000F09AF9002000F097F9002073
:1045500000F094F9BDE8F0876666044070B5044643
:1045600000230026B748807901280BD1B548808800
:1045700046F60401884205D0B248808841F66311AE
:10458000884208D1AF488079F0B9AE48808841F6BA
:104590006311884218D1082C15D2DFE804F0040614
:1045A000080A0C0E101206240DE007240BE0042468
:1045B00009E0052407E0012405E0002403E00324CA
:1045C00001E0022400BF00BF9E48808849F24131CB
:1045D000884217D09B48808846F60401884211D053
:1045E0009848808845F2103188420BD095488088E1
:1045F00045F21051884205D09248808841F66311F7
:1046000088427DD1082C1CD2DFE804F00406090C96
:104610000F12151800BF14E043F0800311E043F0BF
:1046200040030EE043F0C0030BE043F0200308E03A
:1046300043F0600305E043F0A00302E043F0E00331
:1046400000BF00BF7F48808845F21051884202D1E8
:104650004FF4585600E036267A48808845F21031EB
:1046600088420DD07748808845F21051884207D0A3
:104670007448808841F66311884201D043F00803F2
:104680007048808846F60401884201D143F0020355
:104690001946304600F008F96A48808841F66311EF
:1046A00088421DD003F0200068B166480088654943
:1046B0004988884214DA634805884088614908803F
:1046C000084645800CE05F4800885E49498888427A
:1046D00006DD5C48058840885A49088008464580C0
:1046E0005848808845F21051884254D1554948892C
:1046F00000F0CAF8002000F0C1F85249498900E0F2
:1047000078E0491C88B200F0BFF8002000F0B6F84D
:104710004C494989891C88B200F0B6F84949098892
:10472000491EC1F30F2000F0A9F846494989C91C68
:1047300088B200F0A9F843490978491EC8B200F0D0
:104740009DF84049888900F09FF8002000F096F815
:104750003C498989491C88B200F096F8002000F095
:104760008DF838498989891C88B200F08DF835495F
:104770004988491EC1F30F2000F080F8314989892A
:10478000C91C88B200F080F82E498978491EC8B249
:1047900000F074F855E02B49488900F075F80020C6
:1047A00000F06CF8002000F069F826490988491EDD
:1047B000C1F30F2000F062F822490978491EC8B2FF
:1047C00000F05CF81F49888900F05EF8002000F0D6
:1047D00055F8002000F052F81A494988491EC1F3E3
:1047E0000F2000F04BF817498978491EC8B200F035
:1047F00045F826E0082C1CD2DFE804F004070A0D77
:104800000F12151843F0300313E043F0100310E0CB
:1048100043F020030DE000BF0BE043F0380308E055
:1048200043F0280305E043F0180302E043F00803D7
:1048300000BF00BF032643F480531946304600F002
:1048400033F870BDA400002000B502460B460A49AB
:10485000488900F019F8101200F010F8D0B200F0FA
:104860000DF80549888900F00FF8181200F006F8D5
:10487000D8B200F003F800BDA40000200149088070
:10488000704700000008006C014908807047000074
:10489000FE07006C0248008902490880704700004A
:1048A000A4000020FE07006C024A1080921C1180B8
:1048B00070470000FE07006C08B50121482000F099
:1048C000EDF92020ADF8000010208DF80300032042
:1048D0008DF8020069460948FCF775F82021074861
:1048E000FCF707F92020ADF8000069460448FCF702
:1048F0006AF820210248FCF7FCF808BD000C0140D2
:10490000001801402DE9F04107460D4616461C46A9
:104910000121084600F0A2F93846FBF7C3FE17480C
:1049200004801748056046600020154988600846E5
:10493000C460002008618020486100208861C8614F
:104940002020086200024862002088623846FBF797
:104950006EFF10200B490870012048708870C870E5
:10496000084600F037F9012202213846FBF756FFCE
:1049700000213846FBF78AFEBDE8F08104000020E4
:10498000B40000200000002010B501210448FBF70E
:104990007DFE01224021034800F0CFFC10BD000045
:1049A0006C0002400044004000BFFEE7704700007A
:1049B0001CB511A103C9CDE90001082000F05AFA85
:1049C00005226946302000F0D3F805226946102000
:1049D00000F082F8002406E01DF80400A52800D0AD
:1049E00003E0601CC4B2052CF6DB00BF052C01D02F
:1049F00001201CBD0020FCE7A5A5A5A5A500000081
:104A000008B501214FF4847000F048F94FF480504C
:104A1000ADF8000010208DF8030003208DF802008F
:104A200069461448FBF7CFFF4FF480511148FCF75B
:104A300060F84FF4C070ADF8000069460E48FBF70F
:104A4000C2FF4020ADF8000048208DF80300694601
:104A50000948FBF7B8FF4FF4C0710748FCF747F867
:104A600000F096F90020054908608020024908619D
:104A700008BD0000000C014000200140A0012442BC
:104A800010B5002011490860052211492A2000F0C4
:104A90006FF80121212000F089F80121222000F087
:104AA00085F82821252000F081F82021312000F010
:104AB0007DF80F21262000F079F83F21202000F01A
:104AC00075F801200349C1F8A00110BDA0012442DE
:104AD0002D5C0008000024422DE9F04107460D46F8
:104AE000164680200A494861384600F09BF9804606
:104AF000002405E0FF2000F095F92855601CC4B2A1
:104B0000B442F7DB8020024908614046BDE8F081ED
:104B10000020014070B504468020074948612046C6
:104B200000F080F9FF2000F07DF905468020024961
:104B30000861284670BD00000020014070B50446A1
:104B40000720FFF7E7FF05462946272000F02EF84B
:104B500005F0400050B1202221466120FFF7BCFF44
:104B6000FF21E22000F022F8002070BD0120FCE7C8
:104B70002DE9F04107460C46154680200A49486158
:104B8000384600F04FF98046002605E014F8010B86
:104B900000F048F9701CC6B2AE42F7DB8020024933
:104BA00008614046BDE8F0810020014070B505462F
:104BB0000C46802006494861284600F033F9064635
:104BC000204600F02FF9802001490861304670BD71
:104BD0000020014070B5002100230F22C47804B3E7
:104BE000154C246804F4E064C4F5E064210AC1F1C2
:104BF0000403CA40447804FA03F184781440214342
:104C000009010E4C0678A155047804F01F05012413
:104C1000AC4005786D11AD0005F1E025C5F8004107
:104C200009E0047804F01F050124AC40044D067827
:104C3000761145F8264070BD0CED00E000E400E080
:104C400080E100E002490143024A11607047000020
:104C50000000FA050CED00E07047000029B1064A9B
:104C600052690243044B5A6104E0034A5269824389
:104C7000014B5A61704700000010024029B1064AFA
:104C8000D2690243044BDA6104E0034AD2698243E9
:104C9000014BDA61704700000010024029B1064A5A
:104CA00092690243044B9A6104E0034A9269824389
:104CB000014B9A61704700000010024030B500219E
:104CC0000022002400232D4D6D6805F00C0121B158
:104CD000042905D0082923D105E0294D056022E0EB
:104CE000274D05601FE0254D6D6805F47012234DBA
:104CF0006D6805F48034022505EB92421CB9214D04
:104D0000554305600BE01D4D6D6805F400351DB180
:104D10001C4D5543056002E0194D5543056002E006
:104D2000174D056000BF00BF144D6D6805F0F00120
:104D30000909154D6B5C0568DD4045600F4D6D68D8
:104D400005F4E061090A104D6B5C4568DD40856043
:104D50000A4D6D6805F46051C90A0B4D6B5C4568DE
:104D6000DD40C560054D6D6805F44041890B074D78
:104D70006B5CC568B5FBF3F5056130BD0010024002
:104D800000127A0000093D0090000020A0000020E1
:104D900000B587B001210820FFF780FF01218803BB
:104DA000FFF76CFF4FF46040ADF8180018208DF845
:104DB0001B0003208DF81A0006A91848FBF703FE14
:104DC0004FF460411548FBF794FE0020ADF8040055
:104DD0004FF48270ADF806000020ADF80800ADF881
:104DE0000A00ADF80C004FF40070ADF80E0018206A
:104DF000ADF810000020ADF812000720ADF8140047
:104E000001A9074800F056F80121054800F046F8CE
:104E1000FF2000F007F807B000BD0000000C0140C3
:104E2000003800400246002105E0481CC1B2642958
:104E300001DD002070470E48008800F002000028C5
:104E4000F3D00B48001D0280002105E0481CC1B2D0
:104E5000642901DD0020EDE70548008800F001002D
:104E60000028F3D00248001D0088C0B2E2E700002D
:104E70000838004010B50446074800884FF6C7714F
:104E80000840054908800846008820430880012121
:104E9000014800F003F810BD0038004021B102883D
:104EA00042F04002028004E002884FF6BF731A40CD
:104EB0000280704710B50022028802F441520B882C
:104EC0004C8823438C882343CC8823430C89234379
:104ED0004C8923438C892343CC8923431A43028082
:104EE000838B4FF2FF74234083830B8A038210BDB0
:104EF000704710B500F002F810BD00000CB500209E
:104F0000019000903348006840F4803031490860D7
:104F100000BF3048006800F4003000900198401C49
:104F20000190009818B90198B0F5A06FF1D1294807
:104F3000006800F4003010B10120009001E0002072
:104F400000900098012843D12348006840F01000E9
:104F5000214908600846006820F003000860084600
:104F6000006840F0020008601A484068194948602B
:104F70000846406848600846406840F480604860E1
:104F80000846406820F47C1048600846406840F4B9
:104F9000641048600846006840F08070086000BFF8
:104FA0000C48006800F000700028F9D009484068FB
:104FB00020F00300074948600846406840F00200BE
:104FC000486000BF0348406800F00C000828F9D191
:104FD0000CBD00000010024000200240042808D14F
:104FE0004FF0E021096941F004014FF0E022116126
:104FF00007E04FF0E021096921F004014FF0E022C1
:10500000116170477047000010B51348006840F008
:1050100001001149086008464068104908400E49DF
:105020004860084600680E4908400B490860084679
:10503000006820F4802008600846406820F4FE00E4
:1050400048604FF41F008860FFF753FF4FF0006087
:105050000449086010BD0000001002400000FFF885
:10506000FFFFF6FE08ED00E07FB505460C46012186
:10507000C802FFF713FEADF80850ADF80440002059
:10508000ADF80A00ADF8060001A90D4800F0B2F82D
:10509000012211460A4800F0A3F819208DF80000FB
:1050A00000208DF801008DF8020001208DF803002A
:1050B0006846FFF78FFD0121014800F074F87FBDBD
:1050C000002C014010B50121314800F078F800288B
:1050D0005CD001212E4800F063F810212D48FBF729
:1050E000FDFC78B108212B48FBF7F8FC50B10421F6
:1050F0002848FBF7F3FC28B101212748FBF7EEFC19
:10510000012843D110212348FBF7E8FC58B90421BA
:10511000224800F0E8F900BF8021204800F016F98D
:105120000028F9D032E008211A48FBF7D7FC58B91B
:1051300002211A4800F0D7F900BF8021174800F07B
:1051400005F90028F9D021E004211248FBF7C6FC3C
:1051500058B90321114800F0C6F900BF80210F485B
:1051600000F0F4F80028F9D010E001210A48FBF71C
:10517000B5FC01280AD10121084800F0B4F900BFAC
:105180008021064800F0E2F80028F9D010BD0000A8
:10519000002C01400018014000080140004400407C
:1051A000CA430282704721B1028842F001020280A4
:1051B00004E002884FF6FE731A400280704730B553
:1051C0000246002000230024158A05EA0103958980
:1051D00005EA010413B10CB1012000E0002030BD4C
:1051E0001AB183890B43838102E083898B438381D6
:1051F00070470000002202881D4B98420ED01D4BC4
:1052000098420BD0B0F1804F08D01B4B984205D08C
:105210001A4B984202D01A4B984204D14FF68F7322
:105220001A404B881A43174B984207D0164B9842A6
:1052300004D04FF6FF431A40CB881A4302808B8874
:1052400083850B8803850A4B98420BD0094B984203
:1052500008D00E4B984205D00D4B984202D00D4B12
:10526000984201D10B7A03860123838270470000A4
:10527000002C0140003401400004004000080040C0
:10528000000C0040001000400014004000400140AD
:10529000004401400048014010B540F225511D482E
:1052A00000F061F810B31B4800F018F9C4B21A48B6
:1052B000008800F40040C8B91748008800F4804016
:1052C00060B10A2C03D000201349088020E0124866
:1052D000008840F400401049088019E00D2C06D1E8
:1052E0000D48008840F480400B49088010E00A48CF
:1052F0000088C0F30D0009490C5407480088401C81
:105300000549088008460088632801DD00200880E0
:1053100010BD0000003801404C000020E0AA002031
:10532000704721B1828942F40052828104E082896F
:105330004DF6FF731A40828170471AB1838A0B437E
:10534000838202E0838A8B43838270470246002077
:10535000B1F5007F00D100BF13880B400BB10120D5
:1053600000E00020704770B50246002400230025AD
:10537000002040F66A16B14200D100BFC1F34215C9
:1053800001F01F03012606FA03F3012D02D19689CD
:10539000334006E0022D02D1168A334001E0968A9E
:1053A00033400C12012606FA04F41688344013B177
:1053B0000CB1012000E0002070BDF0B503460024D0
:1053C00000260025002040F66A17B94200D100BF30
:1053D0001846C1F3421401F01F06012707FA06F52B
:1053E000012C01D10C3004E0022C01D1103000E07E
:1053F00014301AB107682F43076002E00768AF4313
:105400000760F0BD2DE9F04786B005460E46002442
:10541000A24600BFA1460027B08900B100BF2F46B9
:105420002C8A4CF6FF700440F08804432C82AC892F
:105430004EF6F3100440B08831890843718908435F
:105440000443AC81AC8A4FF6FF400440B08904436A
:10545000AC8201A8FFF732FC1F48874202D1DDF879
:1054600010A001E0DDF80CA0A88900F4004040B1D4
:105470000AEBCA0000EB0A1031684900B0FBF1F8F2
:1054800007E00AEBCA0000EB0A1031688900B0FBA4
:10549000F1F86420B8FBF0F004012009642101FB5D
:1054A0001089A88900F4004040B1322000EBC90007
:1054B000B0FBF1F000F00700044308E0322000EBFD
:1054C00009106421B0FBF1F000F00F0004432C81BF
:1054D00006B0BDE8F087000000380140014688882A
:1054E000C0F308007047C1F308028280704700BF14
:1054F000FEE730380A2801D20120704700207047AB
:10550000014600BF7047000010B56FF00400FFF7C0
:1055100065FD0A4800680A49B0FBF1F009490870C6
:105520000846007800EB4001C1EBC0104FF6FF7158
:1055300001EAC0000449088010BD00007C00002082
:1055400000127A0030000020320000200146114A8B
:1055500012884A434FF0E0235A6100229A611A46AA
:10556000126942F001021A6100BF4FF0E022106997
:1055700000F001021AB100F48032002AF5D04FF099
:10558000E022126922F001024FF0E0231A610022AA
:105590009A617047320000200146114A12784A434E
:1055A0004FF0E0235A6100229A611A46126942F0D4
:1055B00001021A6100BF4FF0E022106900F0010201
:1055C0001AB100F48032002AF5D04FF0E0221269BF
:1055D00022F001024FF0E0231A6100229A61704725
:1055E0003000002000BF054A128802F04002002A65
:1055F000F9D0C2B2014B1B1D1A8070470038014020
:1056000008B500200090FFF77FFF4FF4A060FFF780
:1056100019FB4FF4E131002000F060F93549012019
:1056200000F05CF9FFF748F9FBF768FAFBF79AFB23
:1056300031480168002088474FF4C851002000F02D
:1056400003F92E4908600846006860B90AE02C4852
:10565000006808B9012000E0002029490860C8203E
:10566000FFF774FFF3E727A0FAF7D6FDFFF7C8F9B5
:105670000AE06420FFF76AFF2148006808B90120AA
:1056800000E000201E490860FFF792F90028F0D1E1
:1056900001201B490860FFF7F3F94FF4C85317487E
:1056A0001C4902681C48FFF72DF9FFF76DF97F21AF
:1056B0006320FFF7D9FCF0211648001FFFF713FF06
:1056C00000BF80211348001FFFF740FE0028F8D0DC
:1056D0000FE06846FFF732FA58B99DF8000001283C
:1056E00007D100210846FFF7AFF8FFF7D3F80020F5
:1056F0000090EEE7001815001400002008000020BC
:105700009401234252585F627566204F4B210D0A67
:1057100000000000044400406C00024010B5044644
:105720000C4951F824104A000B4951F8240000217B
:1057300000F09EF8094951F824200749083951F82A
:105740002400002100F094F801210348083001559D
:1057500010BD0000345C000824000020445C0008F8
:105760002DE9F04704460F460025A9462348005D71
:1057700020B9224818380168204688471FB94FF0E1
:10578000FF30BDE8F0871E4850F82400B7FBF0F664
:105790001B4850F82400B7FBF0F100FB117000B17A
:1057A000761C184850F82400451E22E0134808389B
:1057B00050F8240030F8150010B909F1010901E092
:1057C0004FF00009B14513D14FF0000809E00B4834
:1057D000083850F8240005EB080220F8126008F1A0
:1057E0000108B045F3D3064850F824006843C8E7E1
:1057F0006D1E002DDADA4FF0FF30C2E72C000020DA
:105800003C5C0008345C000810B50146002300220F
:1058100007E00B4850F8210030F8120000B15B1C83
:10582000521C084850F821009042F2D86420584396
:10583000044C54F82140B0FBF4F0C0B210BD00009D
:1058400024000020345C000870B504460E46314642
:105850002046FFF785FF0546681C08B9002070BD8B
:10586000024850F824002844F9E700001C000020FA
:1058700030B5034601E003F8011B1400A2F1010258
:10588000F9D130BD2DE9FC4107460C4615461E46B0
:10589000DDF82080ADF8044003208DF806001820C4
:1058A0008DF8070001A93846FBF78DF8ADF80460C4
:1058B00004208DF8070001A92846FBF784F88DF82D
:1058C000008001208DF801008DF802008DF80300A2
:1058D0006846FFF77FF9BDE8FC81000030B585B070
:1058E00004460D4624B1012C11D0022C32D11FE008
:1058F000012144F20400FFF7D1F925204FF4806321
:10590000274A511500901046FFF7BCFF23E0012104
:105910004804FFF7B3F901210420FFF7BFF926205F
:1059200008231F4A042100901046FFF7ABFF12E046
:1059300001218804FFF7A2F901210820FFF7AEF941
:1059400027204FF40063174A111500901046FFF707
:1059500099FF00E000BF00BF01950020ADF80800EE
:10596000ADF80A00ADF80C00ADF810000C20ADF851
:105970000E000D4951F8240001A9FFF743FD0A4923
:1059800051F82400002240F22551FFF716FD064988
:1059900051F824000121FFF7C4FC05B030BD000020
:1059A00000080140000C0140380000204FEA11536C
:1059B000A3F58063D3F11E03A8BFD3F1200C08DB4D
:1059C0004FF0004242EAC12252EA505232FA03F04A
:1059D000704709420BD4102BC4BF0020704703F559
:1059E000787CBCF1FF3F05D04FF0FF3070474FF09F
:1059F0000000704770B500F0C3F800BF49922480E2
:105A000000207047F0E7B0FA80F310FA03F10AD0F3
:105A1000C3F11D0303F580634FEA41504FEA03527F
:105A200002EBD12170474FF000007047DFF848C10A
:105A300070B51CEA111E1EBF1CEA13159EEA0C0F5E
:105A400095EA0C0F00F06F8081EA030423EA4C13FF
:105A50004EEAD47E21EA4C1141F4801143F48013C4
:105A6000AE44A1FB024CA0FB0365AEF17F7E36196C
:105A700055EB0C05A1FB034C4CF10003A0FB021CF1
:105A800016EB0C06654153F10003094218BF46F0BE
:105A9000010613F4007F0BD14FEA03314FEA0530C2
:105AA000340341EA155140EA16506FF003020AE050
:105AB0004FEAC3214FEAC520F40241EA555140EABA
:105AC00056506FF0020202EB2E4201EB025585EABE
:105AD000CE710AD05FEA440C18BF24F0004450F1A4
