:020000040800F2
:1000000028DC002091010008690F00083D0C000861
:10001000450E0008630500086B2200080000000080
:10002000000000000000000000000000DF180008D1
:100030004508000800000000CF130008F11900086F
:10004000AB010008AB010008AB010008AB010008E0
:10005000AB010008AB01000849080008AB0100082B
:10006000AB01000891080008AB010008AB010008D3
:10007000AB01000841060008AB010008AB01000815
:10008000AB010008AB010008AB010008AB010008A0
:10009000AB010008AB010008AB01000859090008DA
:1000A000AB010008B11A0008AB010008AB01000861
:1000B000AB010008591B0008AB010008AB010008A8
:1000C000AB010008AB010008AB010008AB01000860
:1000D000AB01000839200008AB010008AB010008A3
:1000E000AB010008AB010008AB01000800F002F80A
:1000F00000F03FF80AA090E8000C82448344AAF183
:100100000107DA4501D100F034F8AFF2090EBAE880
:100110000F0013F0010F18BFFB1A43F0010318473B
:10012000B8270000D8270000103A24BF78C878C14B
:10013000FAD8520724BF30C830C144BF04680C60ED
:10014000704700000023002400250026103A28BF35
:1001500078C1FBD8520728BF30C148BF0B60704739
:10016000642900F04380002070471FB51FBD10B503
:1001700010BD00F0CBF91146FFF7F7FF02F0FEF8D3
:1001800000F0E9F903B4FFF7F2FF03BC02F076F8E0
:100190000948804709480047FEE7FEE7FEE7FEE71B
:1001A000FEE7FEE7FEE7FEE7FEE7FEE70448054957
:1001B000054A064B70470000F5190008ED000008DD
:1001C00028D6002028DC002028D8002028D80020AD
:1001D000704700000FB4044910B503AA029800F05C
:1001E00063F910BC5DF814FB440000202DE9F041D8
:1001F0000646002410687529314616A510D0AFF3C5
:100200000080002802DA404213A507E031688A071F
:1002100001D512A502E0490704D511A5012401E08A
:10022000AFF3008000210A2206F1240709E0B0FBA9
:10023000F2FCB0FBF2F302FB1C003030785418469D
:10024000491C0028F3D123462A463046BDE8F04138
:1002500000F0D0B8000000002D0000002B000000CE
:10026000200000002DE9F05F894604464FF0000AA7
:10027000DFF874B1FB44C0F820A02046E16888474D
:10028000002874D0252806D0D4E901219047206A9F
:10029000401C2062F1E700265F462046E16888475F
:1002A0002028054607DB312D05D2781910F8200CDF
:1002B00008B10643F1E7B00701D526F00406C4F8FB
:1002C0001CA00027C4F818A02A2D09D0284601F048
:1002D000CEFF38B304EB8708303DC8F8185019E05A
:1002E00059F8041B204604EB87029161E1688847B6
:1002F000012F054618D1E069002820DA26F02006F3
:100300001DE0D8F8180000EB800005EB4000303805
:10031000C8F818002046E1688847054601F0A7FFA5
:100320000028EED1012F0AD02E2D08D12046E168F9
:1003300088477F1C0546022F46F02006C4DBA069D3
:10034000002803DA404246F00106A061F00701D020
:1003500026F010066C2D0BD0682D09D04C2D39D00D
:100360006A2D35D0742D35D07A2D33D016E038E093
:10037000E1682F4620468847B842054609D16C2FD0
:1003800026D04FF48060E168064320468847054642
:1003900004E06C2F1AD04FF4807006430DB3A5F122
:1003A0004100192802D8203546F400664A462946FD
:1003B000204626604E46FFF7D3FE80B101280BD0C1
:1003C000F61D26F0070000F1080956E74020E4E793
:1003D0008020D8E70020D6E706F104094DE728463B
:1003E00052E7206ABDE8F09F4C2600007047704736
:1003F000704770472DE9F0470D46994692460446EE
:1004000000F124080168880604D5E06921F0100194
:10041000216000E00120A84201DD471B00E0002729
:10042000A1697A1902EB0900081AA0612078C006B8
:1004300002D42046AFF30080002608E0D4E9012171
:100440001AF806009047206A401C761C20624E4530
:10045000F4DB2078C0060AD52046AFF3008006E022
:10046000D4E9012130209047206A401C2062381EC8
:10047000A7F10107F4DC07E0D4E9012118F8050031
:100480009047206A401C2062281EA5F10105F3DC7C
:100490002046AFF300802078000602D50220BDE898
:1004A000F0870120FBE70000074B70B50D467B4449
:1004B00000F011F80446284600F020F810B14FF083
:1004C000FF3070BD204670BDAF1E000001694A1CA0
:1004D00002610878704700B58FB0CDE90131002185
:1004E000059105497944CDE9031011466846FFF7A7
:1004F000B9FE0FB000BD0000E5FFFFFF007B00F07C
:100500008000704700487047C4D500207546FFF74B
:10051000F9FFAE4605006946534620F007008546C0
:1005200018B020B5FFF742FEBDE820404FF00006AE
:100530004FF000074FF000084FF0000B21F00701CB
:10054000AC46ACE8C009ACE8C009ACE8C009ACE80E
:10055000C0098D4670470446AFF300802046FFF780
:1005600011FE00BFFEE7000070B505460E461446BA
:100570000121084600F02CFF0E4800F087F80E48D5
:1005800004800E480560466010200C4988600846CB
:10059000C460002008618020486100208861C86133
:1005A00008624FF48050486200208862014800F0E1
:1005B00029F970BD1C00024012000020B400002088
:1005C00010B50021064800F055F84FF4C851044812
:1005D00000F036F90121024800F04CF810BD00008F
:1005E0001C00024070B505460E461446012108461F
:1005F00000F0EEFE0F4800F049F80F4804800F4865
:100600000560466000200D4988600846C4600020EF
:10061000086148618861C861202008620002486260
:1006200000208862034800F0EDF80121014800F045
:1006300021F870BD3000024012000020B4000020FC
:1006400010B54FF4007000F0C7F818B14FF4007007
:1006500000F002F810BD000000F0805111B1034914
:10066000086001E00249486070470000040402404D
:100670000000024021B1026842F00102026004E081
:1006800002684FF6FE731A400260704701684FF629
:10069000FE72114001600021016041608160C16013
:1006A0004B49884208D14A490839496841F00F014D
:1006B000474A083A51608AE045491431884208D1D6
:1006C00043490839496841F0F001414A083A51600C
:1006D0007DE03F492831884208D13D4908394968C1
:1006E00041F470613A4A083A516070E038493C314F
:1006F000884208D136490839496841F47041344A82
:10070000083A516063E032495031884208D130499B
:100710000839496841F470212D4A083A516056E081
:100720002B496431884208D129490839496841F484
:100730007001274A083A516049E0254978318842DA
:1007400008D123490839496841F07061204A083AC4
:1007500051603CE01F49884206D1011F096841F001
:100760000F01021F116032E01A491431884208D18A
:100770001849091F096841F0F001164A121F11605B
:1007800025E014492831884208D11249091F096817
:1007900041F470610F4A121F116018E00D493C319D
:1007A000884208D10B49091F096841F47041094A80
:1007B000121F11600BE007495031884207D10549EB
:1007C000091F096841F47021024A121F1160704725
:1007D000080002400804024001460020002201F007
:1007E000805313B1054B1A6801E0054B1A6802EA01
:1007F00001030BB1012000E000207047000402401B
:100800000000024010B50022026847F6F0739A43D8
:100810000C6A8B6823430C6923434C6923438C691E
:100820002343CC6923434C6A23438C6A23431A43F2
:100830000260CB6843600B6883604B68C36010BD87
:10084000416070477047000010B50A2001F03CFD80
:100850000D480068012813D10B489C30006808B986
:10086000012000E0002008499C3108600748D0F8CA
:10087000A40108B9012000E000200349A03108606C
:10088000012000F081F810BD048121420080214246
:1008900010B5082000F07EF8012818D10E48007825
:1008A000022814DA0C48007848B900200B49086087
:1008B00001200B49C1F8BC010A49086002E0002090
:1008C0000849086004480078401C03490870082063
:1008D00000F05AF810BD00000C000020BC012242BC
:1008E00000002242880121421FB50121052000F0AD
:1008F0008FFD0121164800F057F90820ADF80C00D3
:1009000048208DF80F0003A9124800F0C1F8032118
:10091000002000F09DF80820019000208DF80800CC
:100920000C208DF8090001208DF80A0001A800F0C4
:1009300045F809208DF8000001208DF801008DF8A0
:1009400002008DF80300684600F03CFC1FBD00006B
:10095000000230000008014010B50A2001F0B4FC8C
:100960000748006838B90748006808B9012000E066
:10097000002004490860202000F006F810BD0000A7
:1009800014012242A0812142014908607047000001
:1009900014040140014600200022074B1B6803EAB3
:1009A0000102054B14331B680B4013B10AB101203F
:1009B00000E00020704700000004014000212349AE
:1009C0008279002A3AD00A46126803689A430B4695
:1009D0001A600A1D126803689A430B1D1A60027997
:1009E00011440A6803681A430A60184A08321268F8
:1009F00003689A43154B08331A601A1D126803687E
:100A00009A43124B0C331A604279102A0ED11A1FE6
:100A1000126803681A430D4B08331A601A1D1268D6
:100A200003681A43094B0C331A600DE007494279F9
:100A300011440A6803681A430A6005E00279114408
:100A40000A6803689A430A60704700000004014086
:100A500030B500228B071C0F0F2303FA04F20B4B57
:100A60008C1053F824309343084C8D1044F82530F3
:100A700023468C1053F824308C07240F00FA04F41A
:100A80002343024C8D1044F8253030BD080001404E
:100A90002DE9F04102460025002600200023002415
:100AA000002791F803C00CF00F0591F803C00CF07B
:100AB000100CBCF1000F03D091F802C04CEA050500
:100AC00091F800C0BCF1000F31D0146800202BE079
:100AD0004FF0010C0CFA00F3B1F800C00CEA030669
:100AE0009E4220D183004FF00F0C0CFA03F7BC4359
:100AF00005FA03FC4CEA040491F803C0BCF1280F8A
:100B000006D14FF0010C0CFA00FCC2F814C00AE048
:100B100091F803C0BCF1480F05D14FF0010C0CFA5D
:100B200000FCC2F810C0401C0828D1D31460B1F8F2
:100B300000C0BCF1FF0F34DD546800202EE000F14E
:100B4000080C4FF0010808FA0CF3B1F800C00CEAE9
:100B500003069E4221D183004FF00F0C0CFA03F7DD
:100B6000BC4305FA03FC4CEA040491F803C0BCF151
:100B7000280F05D100F1080C08FA0CF8C2F814800F
:100B800091F803C0BCF1480F07D100F1080C4FF0F9
:100B9000010808FA0CF8C2F81080401C0828CED3CF
:100BA0005460BDE8F0810000F0B50A46002300243F
:100BB0000021002500F00046B6F1004F02D11D4E85
:100BC000F16901E01B4E7168C0F3034583B200F484
:100BD0004016B6F5401F08D121F07061154E7668B9
:100BE00026F07066134F7E6012E000F48016B6F5B2
:100BF000801F06D1032606FA05F4A14341F0706177
:100C000006E0460D360103FA06F6B14341F0706185
:100C100022B1460D360103FA06F6314300F00046D4
:100C2000B6F1004F02D1034EF16101E0014E716057
:100C3000F0BD0000000001400161704700BFFEE709
:100C400070B500242A480078022850D1294800F0C5
:100C500057FA002028490860022028490860091F27
:100C60000860091D086001202549C1F880010220A3
:100C70002249091F086000252EE002201F49086054
:100C80002048006820490968085502201B49091FAF
:100C90000860091D08601B480068C1B21A48026854
:100CA000601C115402201549091F0860A01C84B261
:100CB000B4F5C85F0FD100BF1448007800F0F00011
:100CC000F028F9D1FFF77CFC1048007800F00F0005
:100CD0000E49087000246D1CB5F5963FCDD3022057
:100CE00006490860091F086000200149087070BDAE
:100CF0000C00002004000020800122421408014062
:100D000000002242080C01400800002014000020CE
:100D100001464906084A926942F00102064B9A616F
:100D2000064A526822F0E062044B5A601A46526842
:100D30000A435A6070470000001002400000014062
:100D400008B50121182000F063FB2020ADF8000059
:100D500048208DF8030069460B48FFF799FE0120F3
:100D6000ADF8000048208DF8030069460748FFF7FA
:100D70008FFE0220ADF8000028208DF803006946A0
:100D80000248FFF785FE08BD00100140000C01403D
:100D900070B504460D46012001F0BCFA16480088E3
:100DA000401C1549088008460088B0F5FA7F22DB10
:100DB0000020088011480088401C1049088008461F
:100DC0000088A84217DD0020088044B90C4800685C
:100DD00008B9012000E00020094908600BE0012C5F
:100DE00009D10748001D006808B9012000E0002073
:100DF0000349091D086070BD0000002002000020AA
:100E0000A081214208B50121082000F001FB4FF428
:100E10004070ADF8000010208DF8030003208DF81D
:100E2000020069460448FFF733FE012003490860C9
:100E30000349C1F8A40108BD000C0140A081214272
:100E40000080214200BFFEE710B5062A3ED2DFE84F
:100E500002F03D030F1A27330023224C2380231D69
:100E600018801B1D198000231E4C0C34238037E092
:100E70001C4B188000231B4C241D2380241D238021
:100E8000231D19802CE0174B18800023154C241DBE
:100E90002380231D19800023124C0C3423801FE073
:100EA0000023104C2380231D188000230D4C083490
:100EB0002380231D198013E000230A4C2380241D66
:100EC0002380241D2380241D238009E00023054C5A
:100ED0002380241D2380241D2380241D238000BF04
:100EE00000BF10BD3434014010B586B00446012166
:100EF000880400F07DFA0121082000F089FA4FF4FF
:100F00008060ADF8140018208DF8170003208DF8CC
:100F1000160005A91248FFF7BBFD4FF40060ADF8BD
:100F2000140004208DF8170005A90D48FFF7B0FD47
:100F300001940020ADF80800ADF80A00ADF80C00EF
:100F4000ADF810000C20ADF80E0001A9054801F025
:100F50001BF90121034801F0B3F806B010BD0000F1
:100F6000000C014000480040704700001CB510A173
:100F700003C9CDE9000105226946302000F0F0F8F0
:100F800005226946102000F055F8002406E01DF8FF
:100F90000400A52800D003E0601CC4B2052CF6DBD9
:100FA00000BF052C01D001201CBD0020FCE7000083
:100FB000A5A5A5A5A500000008B50121142000F0F5
:100FC00027FA0121042000F023FA1020ADF80000D8
:100FD0008DF8030003208DF8020069461248FFF7E0
:100FE00057FD1020ADF800008DF8030003208DF8A8
:100FF000020069460D48FFF74BFD0220ADF80000E6
:1010000048208DF8030003208DF802006946064849
:10101000FFF73EFD00F0C6FB0020054908601020E8
:101020000249086108BD00000008014000100140AD
:10103000900121422DE9F04107460D461646102049
:101040000A494861384600F0F1FB8046002405E07B
:10105000FF2000F0EBFB2855601CC4B2B442F7DB64
:101060001020024908614046BDE8F08100100140AF
:1010700070B50446102007494861204600F0D6FBB1
:10108000FF2000F0D3FB05461020024908612846E6
:1010900070BD00000010014010B500201449086028
:1010A00005221449302000F05BF8052212492A205D
:1010B00000F056F80121212000F070F801212220D3
:1010C00000F06CF81A21242000F068F8282125206F
:1010D00000F064F80F21262000F060F80E21202097
:1010E00000F05CF801200549C1F8900110BD000036
:1010F0009001214250270008552700080000214296
:1011000070B5054600201449086020222946A02019
:1011100000F026F801201149C1F8900100BF0E48E7
:101120008C3800680028FAD00720FFF7A1FF04469A
:101130002146272000F032F804F0100028B1FF21EA
:10114000E12000F02BF8102070BD04F0200008B161
:101150002020F9E7FF20F7E790012142000021421B
:101160002DE9F04107460C46154610200A49486112
:10117000384600F05BFB8046002605E014F8010BC2
:1011800000F054FB701CC6B2AE42F7DB10200249DF
:1011900008614046BDE8F0810010014070B5054689
:1011A0000C46102006494861284600F03FFB0646E1
:1011B000204600F03BFB102001490861304670BD1D
:1011C0000010014070B5002100230F22C47804B341
:1011D000154C246804F4E064C4F5E064210AC1F10C
:1011E0000403CA40447804FA03F18478144021438C
:1011F00009010E4C0678A155047804F01F0501245E
:10120000AC4005786D11AD0005F1E025C5F8004151
:1012100009E0047804F01F050124AC40044D067871
:10122000761145F8264070BD0CED00E000E400E0CA
:1012300080E100E002490143024A1160704700006A
:101240000000FA050CED00E038B50025012114205E
:1012500000F0DEF80121092000F0DAF8FF20ADF8F7
:10126000000048208DF8030069463148FFF710FC64
:101270000620ADF8000010208DF8030003208DF843
:10128000020069462B48FFF703FC06212948FFF7B7
:10129000D3FC0820ADF8000048208DF80300694613
:1012A0002448FFF7F5FB48F20300ADF800001020DA
:1012B0008DF8030069462048FFF7EAFB48F2030176
:1012C0001D48FFF7B9FC01211C48FFF76DFC00F039
:1012D00019F98021122000F045FA08B1012038BD2B
:1012E000322000F0F1FF0B2000F08AF90446732C45
:1012F00001D00220F3E70A2000F082F90446762CA0
:1013000001D00220EBE700250DE00D4A02EB45027B
:1013100051780B4A12F8150000F024FA022000F070
:10132000D3FF681C85B2A82DEFD30020D7E70000BB
:10133000000C014000080140001001400002300094
:101340005A2700082DE9F04705460E469046994673
:1013500005EB48001FFA80FA06EB490087B2B7F5A3
:10136000447F02DDA7F5447087B2032000F048F9FE
:10137000044604F0F0040AF00301284661F39F00DC
:1013800004432146032000F0EDF9C5F3870119203D
:1013900000F0E8F9CAF387011A2000F0E3F93220DF
:1013A00000F02EF9044604F0C00407F007013046AF
:1013B00061F3DF000443C6F3C701172000F0D2F940
:1013C000C7F3C701182000F0CDF9BDE8F0877047DA
:1013D00029B1064A52690243044B5A6104E0034AA8
:1013E00052698243014B5A6170470000001002406D
:1013F00029B1064AD2690243044BDA6104E0034A88
:10140000D2698243014BDA6170470000001002404C
:1014100029B1064A92690243044B9A6104E0034AE7
:1014200092698243014B9A617047000000100240AC
:1014300030B500210022002400232D4D6D6805F0F9
:101440000C0121B1042905D0082923D105E0294D3B
:10145000056022E0274D05601FE0254D6D6805F40D
:101460007012234D6D6805F48034022505EB92421D
:101470001CB9214D554305600BE01D4D6D6805F409
:1014800000351DB11C4D5543056002E0194D554313
:10149000056002E0174D056000BF00BF144D6D6888
:1014A00005F0F0010909154D6B5C0568DD404560EC
:1014B0000F4D6D6805F4E061090A104D6B5C4568DD
:1014C000DD4085600A4D6D6805F46051C90A0B4D19
:1014D0006B5C4568DD40C560054D6D6805F44041B5
:1014E000890B074D6B5CC568B5FBF3F5056130BD35
:1014F0000010024000127A0000093D00A000002008
:10150000B000002008B501211020FFF781FF0C205A
:10151000ADF8000010208DF8030003208DF80200C4
:1015200069460948FFF7B4FA0C210748FFF784FB26
:101530000548006820F470400349086008460068C8
:1015400040F44050086008BD0010014010B5322042
:1015500000F0E0FE01200B4908600B49C1F888014A
:10156000322000F0D7FE00200649091F0860322013
:1015700000F0D0FE00200449C1F88C01322000F0B8
:10158000C9FE10BD8C0122420000224270B5002429
:101590001848006820F47040164908600846006842
:1015A00040F400400860082515E0322000F0B2FE4B
:1015B0000120114908606006040E1048D0F80C01A3
:1015C00008B1601CC4B2322000F0A4FE00200A4919
:1015D0000860681EC5B2002DE7DC0648006820F4EC
:1015E0007040044908600846006840F440500860B4
:1015F000204670BD001001408801224200002242B6
:1016000070B50446002500F023F8422000F054F89D
:10161000642000F07FFE204600F04EF8642000F0C9
:1016200079FE00F02FF8642000F074FE00F010F84E
:10163000432000F041F8642000F06CFEFFF7A6FFA5
:101640000546FFF783FF00F01DF8284670BD000037
:1016500010B50120094908600949C1F88801322004
:1016600000F058FE002005490860322000F052FECC
:1016700000200349C1F8880110BD00008C012242FE
:101680000000224210B5002009490860322000F015
:1016900041FE01200749C1F88801322000F03AFEDE
:1016A000012003490860322000F034FE10BD000024
:1016B0008C0122420000224270B5044600261BE045
:1016C00004F0800018B101202349086002E00020E6
:1016D000214908606006040E322000F01BFE012044
:1016E0001D49091F0860322000F014FE00201B492C
:1016F000C1F88801701CC6B2082EE1DB18480068EA
:1017000020F47040164908600846006840F4004024
:101710000860322000F0FEFD01200F49091F08601B
:10172000322000F0F7FD0D48D0F80C0108B101257A
:1017300000E0002500200849091F086008480068EB
:1017400020F47040064908600846006840F44050A4
:101750000860284670BD00008C0122420000224231
:101760000010014070B505460C460026FFF770FFDB
:101770004220FFF7A1FF00B10126642000F0CAFD5E
:101780002846FFF799FF00B10126642000F0C2FD52
:101790002046FFF791FF00B10126FFF773FF3046A7
:1017A00070BD000000B587B0012141F20400FFF7D1
:1017B0002FFEE020ADF8180018208DF81B00032044
:1017C0008DF81A0006A91748FFF762F9E0211548BD
:1017D000FFF732FA0020ADF804004FF48270ADF844
:1017E00006000020ADF80800ADF80A00ADF80C00C6
:1017F0004FF40070ADF80E001020ADF8100000207E
:10180000ADF812000720ADF8140001A9064800F059
:1018100048F80121044800F02FF8FF2000F006F8F6
:1018200007B000BD000801400030014070B505461A
:10183000002405E0601CC4B2C82C01DD002070BD8E
:1018400002210C4800F024F80028F3D009488581D3
:10185000002405E0601CC4B2C82C01DD0020EEE7C6
:101860000121044800F014F80028F3D001488089D1
:10187000C0B2E4E70030014021B1028842F04002EA
:10188000028004E002884FF6BF731A40028070475E
:101890000246002013890B400BB1012000E000201C
:1018A000704710B50022028802F441520B884C8820
:1018B00023438C882343CC8823430C8923434C89BE
:1018C00023438C892343CC8923431A430280838B8F
:1018D0004FF2FF74234083830B8A038210BD70474D
:1018E00010B500F001F810BD0CB50020019000907B
:1018F0003348006840F480303149086000BF304808
:10190000006800F4003000900198401C019000989D
:1019100018B90198B0F5A06FF1D12948006800F41A
:10192000003010B10120009001E0002000900098EC
:10193000012843D12348006840F010002149086085
:101940000846006820F0030008600846006840F080
:10195000020008601A484068194948600846406813
:1019600048600846406840F4806048600846406827
:1019700020F47C1048600846406840F4E810486055
:101980000846006840F08070086000BF0C4800689E
:1019900000F000700028F9D00948406820F00300EA
:1019A000074948600846406840F00200486000BFB0
:1019B0000348406800F00C000828F9D10CBD000075
:1019C0000010024000200240042808D14FF0E0211E
:1019D000096941F004014FF0E022116107E04FF086
:1019E000E021096921F004014FF0E0221161704704
:1019F0007047000010B51348006840F0010011491D
:101A0000086008464068104908400E49486008468A
:101A100000680E4908400B4908600846006820F439
:101A2000802008600846406820F4FE0048604FF4BB
:101A30001F008860FFF754FF4FF000600449086002
:101A400010BD0000001002400000FFF8FFFFF6FE8E
:101A500008ED00E07FB505460C460121C802FFF7FE
:101A6000D7FCADF80850ADF804400020ADF80A00EE
:101A7000ADF8060001A90D4800F08CFA01221146CC
:101A80000A4800F022F919208DF8000002208DF894
:101A9000010001208DF802008DF803006846FFF771
:101AA00091FB0121014800F0E4F87FBD002C0140CA
:101AB00010B50121254800F0F7F8002845D0012194
:101AC000224800F0D3F82248007800F00F00B0B3AD
:101AD0001F48007800F00F00012806D002280BD024
:101AE000032810D004281CD114E0012219480188D1
:101AF0000088FFF7A9F91AE0022216480188008839
:101B0000FFF7A2F913E00322124801880088FFF7CB
:101B10009BF90CE004220F4801880088FFF794F934
:101B200005E0052200210846FFF78EF900BF00BF3F
:101B30000748007800F0F0000549087005E0FFE76D
:101B4000052200210846FFF77FF910BD002C014057
:101B5000140000202000002010B50121084800F0EA
:101B6000A3F838B10748017807A0FEF733FB00203F
:101B7000044908700121024800F078F810BD000007
:101B8000000400400D00002025646670730D0A00FB
:101B900030B589B005460C46012142F21000FFF72E
:101BA00037FC4FF47070ADF8200018208DF823003A
:101BB00003208DF8220008A92448FEF769FFADF83C
:101BC0001850ADF814400020ADF81A00ADF816001A
:101BD00005A91F4800F0DEF96020ADF804000120DF
:101BE000ADF806000020ADF80A00ADF80C000121A8
:101BF000174800F04AF801A9154800F06FF80821CD
:101C0000134800F0B7F801A9114800F0BDF8082109
:101C10000F4800F00BF901A90D4800F015F9082153
:101C20000B4800F061F901A9094800F067F90821A3
:101C3000074800F0A1F90121054800F00BF8012147
:101C4000034800F016F809B030BD00000010014054
:101C50000034014021B1028842F08002028004E099
:101C600002884FF67F731A4002807047CA4302828F
:101C7000704721B1028842F00102028004E002882C
:101C80004FF6FE731A400280704731B1B0F844201D
:101C900042F40042A0F8442005E0B0F84420C2F32A
:101CA0000E02A0F84420704730B502460020002301
:101CB0000024158A05EA0103958905EA010413B198
:101CC0000CB1012000E0002030BD1AB183890B4324
:101CD000838102E083898B438381704770B5002440
:101CE00000220023058C4FF6FE7635400584028CD9
:101CF0008388048B4FF68F752C40B51E2C400D88C1
:101D00002C43751E2A400D892A434D882A43144DC1
:101D1000A8420BD0134DA84208D0134DA84205D0BD
:101D2000124DA84202D0124DA84213D14FF6F775BA
:101D30002A404D892A434FF6FB752A408D882A4355
:101D40004FF6FF652B404FF6FF552B408D892B43F7
:101D5000CD892B4383800483CD888586028470BD22
:101D6000002C01400034014000400140004401408B
:101D7000004801400A460021018B4FF6F7731940D5
:101D8000114301837047000070B500240022002336
:101D9000058C4FF6EF7635400584028C8388048BE2
:101DA00048F6FF752C404FF6FF452C400D884FF646
:101DB000FF7606EA05252C434FF6DF752A400D898C
:101DC00006EA05152A434D8806EA05152A43154DEE
:101DD000A84202D0144DA8421DD14FF67F752A406B
:101DE0004D894FF6FF7606EA05152A434FF6BF7573
:101DF0002A408D8806EA05152A434FF6FF352B4009
:101E00004FF2FF752B408D8906EA85052B43CD895E
:101E100006EA85052B4383800483CD8805870284E9
:101E200070BD0000002C0140003401400A46002132
:101E3000018B4FF2FF7319404FF6FF7303EA022341
:101E4000194301837047000070B50024002200236D
:101E5000058C4FF6FF6635400584028C8388848BA1
:101E60004FF68F752C404FF6FC752C400D882C4397
:101E70004FF6FF552A400D894FF6FF7606EA0525F5
:101E80002A434D8806EA05252A43154DA84202D06B
:101E9000144DA8421DD14FF2FF752A404D894FF6CF
:101EA000FF7606EA05252A434FF6FF352A408D883E
:101EB00006EA05252A434EF6FF752B404DF6FF75C1
:101EC0002B408D8906EA05152B43CD8906EA0515B9
:101ED0002B4383808483CD888587028470BD000076
:101EE000002C0140003401400A460021818B4FF64E
:101EF000F7731940114381837047000070B50022C9
:101F000000230024058C4EF6FF7635400584038CB3
:101F10008488828B48F6FF752A404FF6FF452A4099
:101F20000D884FF6FF7606EA05252A434DF6FF7524
:101F30002B400D8906EA05352B434D8806EA053509
:101F40002B430B4DA84202D00A4DA84208D14BF6B4
:101F5000FF752C408D894FF6FF7606EA85152C43D8
:101F600084808283CD88A0F84050038470BD000037
:101F7000002C0140003401400A460021818B4FF2C1
:101F8000FF7319404FF6FF7303EA0223194381835D
:101F900070470000002202881D4B98420ED01D4B56
:101FA00098420BD0B0F1804F08D01B4B984205D01F
:101FB0001A4B984202D01A4B984204D14FF68F73B5
:101FC0001A404B881A43174B984207D0164B984239
:101FD00004D04FF6FF431A40CB881A4302808B8807
:101FE00083850B8803850A4B98420BD0094B984296
:101FF00008D00E4B984205D00D4B984202D00D4BA5
:10200000984201D10B7A0386012383827047000036
:10201000002C014000340140000400400008004052
:10202000000C00400010004000140040004001403F
:10203000004401400048014010B540F225511D48C0
:1020400000F053F810B31B4800F00AF9C4B21A4864
:10205000008800F40040C8B91748008800F48040A8
:1020600060B10A2C03D000201349088020E01248F8
:10207000008840F400401049088019E00D2C06D17A
:102080000D48008840F480400B49088010E00A4861
:102090000088C0F30D0009490C5407480088401C13
:1020A0000549088008460088632801DD0020088073
:1020B00010BD0000003801405C00002060D5002009
:1020C00021B1828942F40052828104E082894DF676
:1020D000FF731A40828170471AB1838A0B4383824F
:1020E00002E0838A8B438382704770B502460024E6
:1020F00000230025002040F66A16B14200D100BF3F
:10210000C1F3421501F01F03012606FA03F3012D66
:1021100002D19689334006E0022D02D1168A33405F
:1021200001E0968A33400C12012606FA04F4168860
:10213000344013B10CB1012000E0002070BDF0B5B7
:102140000346002400260025002040F66A17B94205
:1021500000D100BF1846C1F3421401F01F06012749
:1021600007FA06F5012C01D10C3004E0022C01D154
:10217000103000E014301AB107682F43076002E006
:102180000768AF430760F0BD2DE9F04786B005460C
:102190000E460024A24600BFA1460027B08900B128
:1021A00000BF2F462C8A4CF6FF700440F088044391
:1021B0002C82AC894EF6F3100440B0883189084374
:1021C000718908430443AC81AC8A4FF6FF40044058
:1021D000B0890443AC8201A8FFF72AF91F4887425F
:1021E00002D1DDF810A001E0DDF80CA0A88900F410
:1021F000004040B10AEBCA0000EB0A103168490008
:10220000B0FBF1F807E00AEBCA0000EB0A103168F6
:102210008900B0FBF1F86420B8FBF0F0040120095C
:10222000642101FB1089A88900F4004040B13220EC
:1022300000EBC900B0FBF1F000F00700044308E038
:10224000322000EB09106421B0FBF1F000F00F0028
:1022500004432C8106B0BDE8F0870000003801403F
:1022600001468888C0F30800704700BFFEE7303899
:102270000A2801D20120704700207047014600BFA4
:102280007047000010B56FF00400FFF79DFB0A488F
:1022900000680A49B0FBF1F0094908700846007867
:1022A00000EB4001C1EBC0104FF6FF7101EAC00026
:1022B0000449088010BD00008C00002000127A0044
:1022C00040000020420000200146114A12884A4383
:1022D0004FF0E0235A6100229A611A46126942F0D7
:1022E00001021A6100BF4FF0E022106900F0010204
:1022F0001AB100F48032002AF5D04FF0E0221269C2
:1023000022F001024FF0E0231A6100229A61704727
:10231000420000200146114A12784A434FF0E02360
:102320005A6100229A611A46126942F001021A614A
:1023300000BF4FF0E022106900F001021AB100F472
:102340008032002AF5D04FF0E022126922F001021B
:102350004FF0E0231A6100229A617047400000208C
:1023600000BF054A128802F04002002AF9D0C2B22A
:10237000014B1B1D1A80704700380140FFF782FF98
:102380004FF4A060FEF756FF4FF4E131002000F05B
:1023900077F93948FEF7A8FD0220FEF7B9FC0120C5
:1023A000FEF7B6FCFEF72EFDFEF7CAFC33480168C7
:1023B000002088474FF4C851002000F015F930493B
:1023C00008600846006840B92EA0FDF703FF03E04F
:1023D00014210120FEF7DCFCFAE72EA0FDF7FAFE3F
:1023E000FEF7EAFD03E014210120FEF7D1FCFEF721
:1023F000BDFD0028F7D1FEF74FFE03E014210120B8
:10240000FEF7C6FCFEF720FF0028F7D14FF4A073BB
:10241000F022AE210A20FEF795FFFEF765FA0122B1
:1024200020492148FEF7DEF8012240211E48001F06
:10243000FFF752FE4FF4C852114801681A48FEF7E0
:1024400093F8012280211848001FFFF745FE002164
:1024500041F61F40FFF79CFB472147F22F50FFF743
:10246000F9FA00201149086011A0FDF7B3FE01E060
:10247000FEF7E6FBFCE70000001815002400002032
:1024800008000020545820627566204572726F72F1
:10249000210D0A00545820627566204F4B210D0A09
:1024A0000000000014000020044800408401224283
:1024B000496E6974204F4B210D0A000010B5044687
:1024C0000C4951F824104A000B4951F8240000210E
:1024D00000F09EF8094951F824200749083951F8BD
:1024E0002400002100F094F8012103480830015530
:1024F00010BD0000AC28000834000020BC280008F3
:102500002DE9F04704460F460025A9462348005D03
:1025100020B9224818380168204688471FB94FF073
:10252000FF30BDE8F0871E4850F82400B7FBF0F6F6
:102530001B4850F82400B7FBF0F100FB117000B10C
:10254000761C184850F82400451E22E0134808382D
:1025500050F8240030F8150010B909F1010901E024
:102560004FF00009B14513D14FF0000809E00B48C6
:10257000083850F8240005EB080220F8126008F132
:102580000108B045F3D3064850F824006843C8E773
:102590006D1E002DDADA4FF0FF30C2E73C0000205C
:1025A000B4280008AC28000810B50146002300221A
:1025B00007E00B4850F8210030F8120000B15B1C16
:1025C000521C084850F821009042F2D86420584329
:1025D000044C54F82140B0FBF4F0C0B210BD000030
:1025E00034000020AC28000870B504460E46314681
:1025F0002046FFF785FF0546681C08B9002070BD1E
:10260000024850F824002844F9E700002C0000207C
:1026100030B5034601E003F8011B1400A2F10102EA
:10262000F9D130BD2DE9FC4107460C4615461E4642
:10263000DDF82080ADF8044003208DF80600182056
:102640008DF8070001A93846FEF722FAADF80460BC
:1026500004208DF8070001A92846FEF719FA8DF825
:10266000008001208DF8010002208DF80200012079
:102670008DF803006846FEF7A5FDBDE8FC8100006B
:1026800030B585B004460D4624B1012C11D0022C82
:1026900032D11FE0012144F20400FEF7B9FE2520EB
:1026A0004FF48063274A511500901046FFF7BAFF98
:1026B00023E001214804FEF79BFE01210420FEF7E0
:1026C000A7FE262008231F4A042100901046FFF78A
:1026D000A9FF12E001218804FEF78AFE01210820EB
:1026E000FEF796FE27204FF40063174A111500905D
:1026F0001046FFF797FF00E000BF00BF01950020E4
:10270000ADF80800ADF80A00ADF80C00ADF8100007
:102710000C20ADF80E000D4951F8240001A9FFF777
:1027200033FD0A4951F82400012240F22551FFF7F8
:1027300006FD064951F824000121FFF7C1FC05B050
:1027400030BD000000080140000C0140480000209E
:10275000232332320123233232013A0440D01214AF
:1027600032801716180419021A7B03060C00150094
:102770003E00703A713572117300A20211817A2005
:102780007B1C7C287D3C7E557F688076818082889A
:10279000838F849685A386AF87C488D789E813E0A2
:1027A000000010000D001428A505AB072475256353
:1027B00026A59F78A068A103A6DFA7DFA8F0A990AF
:1027C000AA9413E50E610F4B16021E2721022291D7
:1027D0002907330B350B371D3871392A3C784D40AA
:1027E0004E2069006B4074198D4F8E008F00900051
:1027F0009100920096009A80B084B10CB20EB38220
:10280000B80A431444F0453446584728483A598892
:102810005A885B445C675D495E0E6404652066050A
:10282000940495086C0A6D554F80508051005222D7
:10283000535E548009036E116F9F550056405740F8
:102840006A400140024013E71500589E41083F00CE
:10285000750576E14C0077013DC24B09C9604138EE
:1028600034113B02A48996009730982099309A84BD
:102870009B299C039D4C9E3F78047901C8F0790FF9
:10288000C8007910C87E790AC880790BC801790C14
:10289000C80F790DC8207909C8807902C8C07903AA
:1028A000C8407905C83079260900000040060000BC
:1028B00001000000200000002000000000C800000F
:1028C00020000000040000080000000000000002DA
:1028D0000001000010000000F8280008000000209F
:1028E000B400000028010008AC290008B400002052
:1028F00074DB00004401000800000000010000003B
:1029000000000000000000000000000000000000C7
:10291000000000000000000094110000BD24000829
:10292000A9250008E000002000000068E0C80020A1
:10293000200000680000000000000000000000000F
:10294000003801400044004000480040004C004076
:1029500000500040000050313A0049313A00443103
:102960003A0050323A0049323A0044323A00454E79
:102970003A0053533A0058583A0058583A005858B9
:102980003A00000000A24A0400000000000000001D
:102990000102030406070809000000000102030405
:0C29A000010203040607080902040608EF
:04000005080000ED02
:00000001FF
