:030000000201B149
:0C01B100787FE4F6D8FD75810E0201F89D
:10033600D3EF9400EE6480948040147D6E7C00EDD3
:0F0346001D70011CED4C70F7EF1F70E41E80E17D
:010355002285
:1002C800E4F508F509120356120003AE08AF097CDD
:1002D800017DF412023DED4C7002B2800509E5097A
:1002E80070020508D394CFE508648094874005E43C
:0D02F800F508F5097F017E0012033680CB6A
:1003050073313A300D0A0073323A300D0A007333F7
:100315003A300D0A0073343A300D0A0073353A301D
:100325000D0A0073363A300D0A0073743A300D0A1F
:0103350000C7
:04036D00020D00007D
:1003560053877F75985053890F438920758BFD7598
:070366008DFDC2ABD28E2217
:10000300E4F50AF50B1201248F0BE50BD39406409C
:1000130048E50B24F9601E24FD7034E4F50AE50A73
:10002300900321936029AF0A050AEF93F59930995C
:10003300FDC29980E9E4F50AE50A90032893600F6D
:10004300AF0A050AEF93F5993099FDC29980E9E566
:10005300B0F4700302012380F6050EE50E7002056D
:100063000DD394CFE50D648094874005E4F50DF539
:100073000E7F017E00120336AE0DAF0E7C007D3283
:1000830012023DED4C6003020123E50B607824FD71
:10009300602614603D146054146003020123E4F5E8
:1000A3000AE50A900305936077AF0A050AEF93F513
:1000B300993099FDC29980E9E4F50AE50A90030CA9
:1000C30093605DAF0A050AEF93F5993099FDC299E4
:1000D30080E9E4F50AE50A900313936043AF0A0548
:1000E3000AEF93F5993099FDC29980E9E4F50AE5A1
:1000F3000A90031A936029AF0A050AEF93F5993022
:1001030099FDC29980E9E4F50AE50A90032F93600B
:100113000FAF0A050AEF93F5993099FDC29980E96B
:0101230022B9
:10012400E4F50CE5A0F460477F057E00120336E594
:10013400A0F4603BAFA0EF2421602C24F0602324C2
:10014400F8601A24FC601124FE600814701E750CFB
:1001540001801C750C028017750C038012750C0449
:10016400800D750C058008750C068003E4F50CE51C
:10017400B0F460367F057E00120336E5B0F4602AE1
:10018400AFB0EF2441601124E0601224F060132426
:10019400707014750C078012750C08800D750C09AD
:0C01A4008008750C0A8003E4F50CAF0C19
:0101B000222C
:1001BD000202C8E493A3F8E493A34003F68001F28E
:1001CD0008DFF48029E493A3F85407240CC8C33343
:1001DD00C4540F4420C8834004F456800146F6DF12
:1001ED00E4800B010204081020408090036DE47E32
:1001FD00019360BCA3FF543F30E509541FFEE49307
:10020D00A360010ECF54C025E060A840B8E493A3CD
:10021D00FAE493A3F8E493A3C8C582C8CAC583CAF8
:10022D00F0A3C8C582C8CAC583CADFE9DEE780BEB0
:01037100008B
:10023D00C2D5EC30E709B2D5E4C39DFDE49CFCEEDC
:10024D0030E715B2D5E4C39FFFE49EFE120273C3DF
:10025D00E49DFDE49CFC800312027330D507C3E4DA
:06026D009FFFE49EFE224B
:10027300BC000BBE0029EF8DF084FFADF022E4CC6F
:10028300F875F008EF2FFFEE33FEEC33FCEE9DEC38
:10029300984005FCEE9DFE0FD5F0E9E4CEFD22ED7E
:1002A300F8F5F0EE8420D21CFEADF075F008EF2FC8
:1002B300FFED33FD4007985006D5F0F222C398FDB9
:0502C3000FD5F0EA2256
:00000001FF
