:020000040800F2
:10000000100800206D4C0008550200085702000837
:100010005B0200085F0200086302000800000000A5
:10002000000000000000000000000000670200085F
:1000300069020008000000006B0200086D02000861
:10004000874C0008874C0008874C0008874C000844
:10005000874C0008874C0008874C0008874C000834
:10006000874C0008874C0008874C0008874C000824
:10007000874C0008874C0008874C0008874C000814
:10008000874C0008874C0008874C0008874C000804
:10009000874C0008874C0008874C0008874C0008F4
:1000A000874C0008874C0008874C0008874C0008E4
:1000B000874C00082F330008874C0008874C000845
:1000C000874C0008874C0008874C0008874C0008C4
:1000D000874C0008E34B0008874C0008874C000859
:1000E000874C0008874C0008874C0008874C0008A4
:1000F000874C0008874C0008874C0008874C000894
:10010000874C0008874C0008874C0008874C000883
:10011000874C0008874C0008874C0008874C000873
:10012000874C0008874C0008874C0008874C000863
:1001300000F002F800F04AF80AA090E8000C8244AF
:100140008344AAF10107DA4501D100F03FF8AFF28C
:10015000090EBAE80F0013F0010F18BFFB1A43F0A5
:1001600001031847A4AA0000C4AA0000103A24BF43
:1001700078C878C1FAD8520724BF30C830C144BF0C
:1001800004680C607047000000230024002500264E
:10019000103A28BF78C1FBD8520728BF30C148BFEA
:1001A0000B607047662908F0EE84642906F0BA8275
:1001B000002070471FB506F00BFE04000020002150
:1001C00007F06EFBE0601FBD10B510BD06F000FF2C
:1001D0001146FFF7EFFF00F009F806F01EFF03B429
:1001E000FFF7F2FF03BC04F0A1FC00004FF4A06095
:1001F00005F0E0FA04F030FC4FF4165004F0A5FCD2
:1002000003F0A6F801F0E8FC00F022F90F490868B5
:10021000804704F01FFA03F0B5F803F0A7F914E0E3
:1002200003F062FB03F062FE142C04DB04F08EF991
:1002300004F0E0F900240649B1F9000003F09EFF44
:10024000601CC4B2052004F044FCE9E71C00002057
:10025000C6000020704700BFFEE700BFFEE700BFFA
:10026000FEE700BFFEE77047704770477047000029
:100270000CB50020019000906C48006840F480307C
:100280006A49086000BF6948006800F400300090C7
:100290000198401C0190009818B90198B0F5A06F22
:1002A000F1D16248006800F4003010B101200090E4
:1002B00001E0002000900098012843D15C480068CC
:1002C00040F010005A4908600846006820F003001A
:1002D00008600846006840F0020008605348406823
:1002E000524948600846406848600846406840F403
:1002F000806048600846406820F47C1048600846EA
:10030000406840F4E81048600846006840F080709B
:10031000086000BF4548006800F000700028F9D070
:100320004248406820F00300404948600846406861
:1003300040F00200486000BF3C48406800F00C00FC
:100340000828F9D10CBD10B5FFF792FF10BD10B50C
:100350003648006840F001003449086008464068AB
:10036000344908403149486008460068324908402D
:100370002E4908600846006820F48020086008467E
:10038000406820F4FE0048604FF41F008860FFF7CB
:10039000DAFF4FF000602949086010BD10B5002158
:1003A00000200022214B5B6803F00C0121B10429DD
:1003B00006D0082928D107E0214B224C236027E0F2
:1003C0001F4B204C236023E0184B5B6803F4701034
:1003D000164B5B6803F48032022303EB904022B992
:1003E000194B4343174C23600DE0104B5B6803F43B
:1003F000003323B1144B4343124C236003E0104BF2
:100400004343104C236003E00D4B0E4C236000BFB0
:1004100000BF064B5B68C3F303130C4CE15C094B54
:100420001B68CB40074C236010BD00000010024049
:10043000002002400000FFF8FFFFF6FE08ED00E09C
:1004400000127A000000002000093D000400002096
:1004500008B50121142004F045FF0121374804F0BC
:1004600056FD4FF40040ADF8000048208DF8030021
:100470006946334804F07AFC2020ADF8000048209B
:100480008DF8030069462F4804F070FC0120ADF898
:10049000000028208DF803006946294804F066FC16
:1004A00008BD10B5044614B101202749087026483C
:1004B000007868B32021234804F0EBFC58B14FF4D6
:1004C00000411F4804F0E5FC28B101211C4804F05C
:1004D000E0FC01281CD1322004F0FBFA00201A496C
:1004E00008702021174804F0D4FC08B9012010BD81
:1004F0004FF40041124804F0CCFC08B90220F6E7A2
:1005000001210F4804F0C5FC012815D10320EEE7B6
:1005100020210C4804F0BDFC01280DD1C10308487E
:1005200004F0B7FC012807D10121054804F0B1FC13
:1005300010B90120044908700020D8E700023000FB
:100540000008014000100140140000204FF48071A9
:10055000FD4A516149005161FC49086080215161A7
:1005600011618900116170474FF48071F64A116181
:1005700049005161F549086080215161116189008C
:100580001161704710B54FF08830F0490C390860A0
:10059000091D08600020ED4908608815EA490861D6
:1005A0004000486140204861E948808848F6891148
:1005B000884202D1022004F068FAE448001F006873
:1005C00084B24020E0490861C00008614FF0333038
:1005D000DE490C390860091D08604FF6FF70DB49E1
:1005E0000860204610BD10B504460B462046FFF7B4
:1005F000ADFF4FF48070D449086140004861D34892
:1006000003608020486108618000086110BD10B55A
:1006100004462046FFF79AFFFFF7B4FF10BD00B570
:10062000CB490889FFF792FF00BD4FF48071C64A9D
:10063000116149005161C549086080215161116112
:1006400089001161704730B5014601F01F04C1F304
:100650004513CA0AE50205EB43151544A8B230BD9F
:1006600000BF0100A0F10102D0B2FAD1704730B54D
:1006700004460D46B648808849F24131884205D08B
:10068000B348808845F21031884240D1B04948894A
:10069000FFF75CFF4FF48070AB4908614000486190
:1006A0002012AA4908608020A7494861086180009B
:1006B00008614010086140004861E0B2A349086049
:1006C0008020A1494861086180000861A0498889AB
:1006D000FFF73CFF4FF480709B4908614000486180
:1006E00028129A4908608020974948610861800073
:1006F00008614010086140004861E8B29349086011
:100700008020914948610861800008618CE190482F
:10071000808846F60401884249D18D4880790128B5
:1007200004D18B480088401E001B84B28849488948
:10073000FFF70CFF4FF48070834908614000486167
:1007400020128249086080207F494861086180004A
:1007500008614010086140004861E0B27B490860D0
:10076000802079494861086180000861784988895A
:10077000FFF7ECFE4FF48070734908614000486158
:1007800028127249086080206F4948610861800022
:1007900008614010086140004861E8B26B49086098
:1007A0008020694948610861800008613CE168482F
:1007B000808841F6631188427ED16548807900289F
:1007C0003FD163480088401E001B84B260494889BD
:1007D000FFF7BCFE4FF480705B4908614000486140
:1007E00000205A490860802057494861086180000C
:1007F00008614010086140004861002053490860CA
:1008000080205149486108618000086140100861FA
:100810004000486120124D49086080204A494861E3
:100820000861800008614010086140004861E0B242
:100830004649086080204449486108618000086199
:1008400041E043494889FFF781FE4FF480703E49FB
:1008500008614000486120123C49086080203A4904
:1008600048610861800008614010086140004861EB
:10087000E0B2364908608020334948610861800051
:100880000861401008614000486131480088401EFE
:1008900000122E49086080202B49486108618000C1
:1008A0000861401008614000486129480078401EF6
:1008B000C0B22649086000E04CE08020224948612F
:1008C00008618000086122498889FFF73FFE4FF4E4
:1008D00080701D4908614000486128121B4908606A
:1008E0008020194948610861800008614010086152
:1008F00040004861E8B2154908608020124948610B
:10090000086180000861401008614000486110489B
:100910004088401E00120D49086080200A49486145
:100920000861800008614010086140004861084883
:100930008078401EC0B205490860802002494861A5
:100940000861800008616FE0001001400C0C01405C
:10095000A8000020F748808845F21051884250D105
:10096000F4494889FFF7F2FD4FF48070F2490861BD
:10097000400048612012F14908608020EE4948613A
:10098000086180000861EB494989491C88B2FFF77A
:10099000DDFD4FF48070E849086140004861E0B235
:1009A000E64908608020E4494861086180000861E8
:1009B000E0498889FFF7CAFD4FF48070DE4908617D
:1009C000400048612812DD4908608020DA4948610A
:1009D000086180000861D7498989491C88B2FFF7FE
:1009E000B5FD4FF48070D449086140004861E8B219
:1009F000D24908608020D0494861086180000861C0
:100A000012E0CC488079012804D1CA480088401EF1
:100A1000001B84B2C74948892146FFF7E4FDC54958
:100A200088892946FFF7DFFD30BD2DE9F0410546F5
:100A30000E46C0480088A84203DDBE484088B04248
:100A400002DC0020BDE8F08131462846FFF70FFEAA
:100A5000B848808849F24131884211D0B548808831
:100A600046F6040188420BD0B248808845F2103126
:100A7000884205D0AF48808841F66311884203D18F
:100A80002E20FFF763FD0DE0AA48808845F2105143
:100A9000884204D14FF43850FFF758FD02E022207D
:100AA000FFF754FD4FF08830A4490C390860091D48
:100AB00008604FF6FF70A149086088159E490861DB
:100AC00040004861402048610220FFF7C9FD9B4873
:100AD000001F006884B240209749086195488088CB
:100AE00041F66311884210D14FF4007092490861B9
:100AF0004FF0333091490C390860091D08604FF6FA
:100B0000FF708E49086020469CE740208A49486172
:100B10000220FFF7A5FD8948001F006884B240202D
:100B2000854908618348808849F2413188420BD069
:100B30008048808845F21031884205D07D48808801
:100B400045F21051884213D140207B494861022070
:100B5000FFF786FD7948001F00681FFA80F84020E3
:100B600075490861E7B24FF6FF7000EA07270DE00C
:100B70007048808846F60401884207D140206E49BB
:100B8000486108616D48001F006884B24FF400702E
:100B9000694908614FF0333068490C390860091D14
:100BA00008604FF6FF70654908606248808849F226
:100BB0002531884216D05F48808844F235518842FA
:100BC00010D05C488088091F88420BD05948808823
:100BD00048F68911884205D0564880884BF2055165
:100BE000884201D120462DE75248808849F24131A0
:100BF00088420BD04F48808845F21031884205D09A
:100C00004C48808845F21051884207D1E012C0025A
:100C1000B91240EA411040EAE82013E72046FFF706
:100C200012FD0FE700B54348808849F24131884200
:100C300011D04048808846F6040188420BD03D48D8
:100C4000808845F21031884205D03A48808841F6C4
:100C50006311884203D12920FFF778FC0FE0354863
:100C6000808845F21051884204D14FF42450FFF798
:100C70006DFC04E040F273110720FFF7B4FC00BDE7
:100C800000B52C48808849F24131884211D029486A
:100C9000808846F6040188420BD02648808845F2B9
:100CA0001031884205D02348808841F6631188427C
:100CB00003D12820FFF74AFC0EE01E48808845F249
:100CC0001051884204D14FF42050FFF73FFC03E05D
:100CD00000210720FFF787FC00BDF0B50546002482
:100CE00000271448807901280BD11248808846F6E5
:100CF0000401884205D00F48808841F6631188427C
:100D000008D10C48807920BB0A48808841F66311DD
:100D100088421ED1082D1BD2DFE805F00406080A20
:100D200012141618062513E0072511E004250FE01C
:100D300005250DE0A8000020001001400C0C01402A
:100D4000012505E0002503E0032501E0022500BFA1
:100D500000BFF848808849F24131884217D0F548F1
:100D6000808846F60401884211D0F248808845F216
:100D7000103188420BD0EF48808845F210518842EC
:100D800005D0EC48808841F6631188427ED1082D59
:100D90001CD2DFE805F00406090C0F12151800BF7D
:100DA00014E044F0800411E044F040040EE044F00C
:100DB000C0040BE044F0200408E044F0600405E0C7
:100DC00044F0A00402E044F0E00400BF00BFD948B2
:100DD000808845F21051884202D14FF4585700E004
:100DE0003627D448808845F2103188420DD0D1484A
:100DF000808845F21051884207D0CE48808841F65D
:100E00006311884201D044F00804CA48808846F63D
:100E10000401884201D144F0020421463846FFF71C
:100E2000E2FBC448808841F6631188421DD004F07B
:100E3000200068B1BF480088BE494988884214DA5A
:100E4000BC4806884088BB490880084646800CE0BC
:100E5000B8480088B7494988884206DDB548068801
:100E60004088B449088008464680B248808845F2E8
:100E7000105188427ED1AF494889FFF767FB4FF494
:100E80008070AD4908614000486100E029E1002020
:100E9000AA4908608020A84948610861800008616B
:100EA000A4494989491C88B2FFF750FB4FF4807070
:100EB000A1490861400048610020A04908608020E5
:100EC0009D4948610861800008619A494989891CE7
:100ED00088B2FFF73BFB4FF48070974908614000F0
:100EE000486194480088401E0012944908608020A0
:100EF000914948610861800008618E494989C91C8F
:100F000088B2FFF723FB4FF480708B4908614000E3
:100F1000486188480078401EC0B288490860802037
:100F20008549486108618000086182498889FFF726
:100F30000DFB4FF48070804908614000486100203B
:100F40007E49086080207C49486108618000086112
:100F500078498989491C88B2FFF7F8FA4FF4807004
:100F6000754908614000486100207449086080208C
:100F7000714900E034E048610861800008616D4912
:100F80008989891C88B2FFF7E1FA4FF480706A49B9
:100F900008614000486167484088401E0012674968
:100FA00008608020644948610861800008616149E7
:100FB0008989C91C88B2FFF7C9FA4FF480705E496D
:100FC0000861400048615B488078401EC0B25B49C0
:100FD0000860802058494861086180000861A7E0E6
:100FE00054494889FFF7B2FA4FF4807052490861BA
:100FF0004000486100205149086080204E49486106
:1010000008618000086140100861400048610020CC
:101010004A490860802048494861086180000861A9
:10102000401008614000486142480088401E00129C
:101030004249086080204049486108618000086199
:1010400040100861400048613A480078401EC0B234
:101050003A49086080203849486108618000086189
:1010600034498889FFF772FA4FF480703249086179
:101070004000486100203149086080202E494861C5
:10108000086180000861401008614000486100204C
:101090002A49086080202849486108618000086169
:1010A000401008614000486122484088401E0012FC
:1010B0002249086080202049486108618000086159
:1010C00040100861400048611A488078401EC0B254
:1010D0001A49086080201849486108618000086149
:1010E00026E0082D1CD2DFE805F004070A0D0F12D8
:1010F000151844F0300413E044F0100410E044F0FC
:1011000020040DE000BF0BE044F0380408E044F098
:10111000280405E044F0180402E044F0080400BF8D
:1011200000BF032744F4805421463846FFF75BFA9A
:10113000F0BD0000A8000020001001400C0C014090
:1011400030B504460D4629462046FFF790FAFFF7D2
:1011500066FA4FF48070FE49086140004861FD481E
:101160000088FD4908608020F949486108618000D5
:10117000086130BD70B504460D461646F7488088B4
:1011800049F24131884205D0F448808845F2103157
:10119000884240D1F1494889FFF7D8F94FF480706F
:1011A000EB490861400048612012EB49086080204B
:1011B000E74948610861800008614010086140000B
:1011C0004861E0B2E44908608020E1494861086173
:1011D00080000861E1498889FFF7B8F94FF4807011
:1011E000DB490861400048612812DB490860802023
:1011F000D7494861086180000861401008614000DB
:101200004861E8B2D44908608020D149486108614A
:10121000800008613DE1D148808845F21051884244
:1012200050D1CE494889FFF791F94FF48070C849F1
:101230000861400048612012C74908608020C44905
:101240004861086180000861C4494989491C88B225
:10125000FFF77CF94FF48070BD4908614000486198
:10126000E0B2BD4908608020B9494861086180004A
:101270000861BA498889FFF769F94FF48070B44969
:101280000861400048612812B34908608020B049D5
:101290004861086180000861B0498989491C88B2A9
:1012A000FFF754F94FF48070A94908614000486184
:1012B000E8B2A94908608020A5494861086180001A
:1012C0000861E6E0A548808841F6631188427DD137
:1012D000A248807920B9A1480088401E001B84B232
:1012E0009E494889FFF732F94FF4807098490861A8
:1012F0004000486120129849086080209449486164
:101300000861800008614010086140004861E0B257
:101310009149086080208E49486108618000086119
:10132000401008614000486120128B49086080200D
:1013300087494861086180000861401008614000E9
:101340004861E0B2844908608020814948610861B1
:101350008000086181498889FFF7F8F84FF48070B0
:101360007B4908614000486128127B490860802061
:1013700077494861086180000861401008614000B9
:101380004861E8B274490860802071494861086189
:1013900080000861401008614000486128126E49D1
:1013A000086080206A494861086180000861401037
:1013B000086140004861E8B26749086080206449DC
:1013C000486108618000086163E0FFE76348808846
:1013D00046F60401884249D160488079012804D149
:1013E0005E480088401E001B84B25C494889FFF7B4
:1013F000ADF84FF4807056490861400048612012F2
:1014000055490860802052494861086180000861A0
:101410004010086140004861E0B24F4908608020F8
:101420004B4948610861800008614C498889FFF791
:101430008DF84FF4807046490861400048612812D9
:101440004549086080204249486108618000086180
:101450004010086140004861E8B23F4908608020C0
:101460003B49486108618000086112E03B4880798F
:10147000012804D139480088401E001B84B2374936
:1014800048892146FFF7AFF8344988892946FFF794
:10149000AAF84FF480702E494861400048612F48F7
:1014A00000892D4908608020294948610861800031
:1014B00008614010086140004861274806608020AC
:1014C000486108618000086170BD2DE9F041044663
:1014D000BE20FFF73BF84FF480701D4908614000C3
:1014E000486105201C49086080201949486108614D
:1014F000800008614010086140004861204606F005
:1015000050FC05464FF06632154B06F099FC074635
:1015100006F01AFC1049086080200D4948610861F6
:1015200080000861401008614000486101200A49BC
:101530000860802006494861086180000861401009
:10154000086140004861FF2003490860802009E0ED
:1015500000100140160000200C0C0140A8000020E3
:1015600066660440FE4948610861800008614010D9
:101570000861400048610020FA4908608020F8496D
:1015800048610861800008614010086140004861BE
:101590000020F44908608020F1494861086180001A
:1015A0000861BDE8F08110B50446002C66D1EE4913
:1015B0008871F02008804FF4A07048800846808829
:1015C00049F2413188420BD0E748808846F6040151
:1015D000884205D0E448808845F2103188421AD10B
:1015E0002C20E14908812A2048812B208881084647
:1015F000808846F60401884205D0DB48808845F2A1
:101600001031884206D14FF4A070D74908804FF4BA
:10161000F0704880A1E0D448808845F2105188429B
:1016200010D14FF43050D04908814FF428504881F0
:101630004FF42C5088814FF4F07008804FF44870BC
:1016400048808AE0C848808841F6631188420DD1FD
:101650002C20C54908812B2048812A2088814FF4FD
:10166000F07008804FF44870488076E02220BE4930
:10167000088120204881212088816EE00120BA491C
:1016800088714FF4A0700880F02048800846808858
:1016900049F24131884205D0B348808845F2103183
:1016A000884207D12C20B04908812A2048812B206C
:1016B00088813FE0AC48808846F60401884207D123
:1016C0002C20A94908812B2048812A20888131E0DB
:1016D000A548808845F21051884210D14FF430500F
:1016E000A14908814FF4285048814FF42C5088813B
:1016F0004FF4487008804FF4F07048801AE09A4820
:10170000808841F6631188420DD12C2096490881CA
:101710002A2048812B2088814FF4487008804FF49C
:10172000F070488006E022208F49088121204881FE
:10173000202088818C48808846F60401884205D0A4
:101740008948808845F21031884206D14FF4F07004
:10175000854908804FF4A07048800020FFF7BDFA4B
:1017600010BD2DE9F04F86B004460D4690469946CF
:1017700004EB0800401E86B205EB0900401E87B24C
:101780007948808849F24131884215D0764880886E
:1017900045F2103188420FD07348808846F6040124
:1017A000884209D07048807901287BD16E488088B2
:1017B00041F66311884275D16B494889FEF7C6FE30
:1017C0004FF4807066490861400048612012654905
:1017D000086080206249486108618000086140100B
:1017E000086140004861E0B25E49086080205C49C1
:1017F000486108618000086140100861400048614C
:1018000030125849086080205549486108618000BD
:1018100008614010086140004861F0B25149086019
:1018200080204F4948610861800008614E498889DD
:10183000FEF78CFE4FF48070494908614000486112
:1018400028124849086080204549486108618000A5
:1018500008614010086140004861E8B241490860F1
:1018600080203F494861086180000861401008619C
:101870004000486138123B4908608020384948617F
:101880000861800008614010086140004861F8B2BA
:10189000344908608020324948610861800008614D
:1018A00077E1FFE73048808841F6631188427DD1B7
:1018B0002D480088A0EB0800001B84B205EB09004E
:1018C000401E1FFA80F928494889FEF73FFE4FF471
:1018D0008070234908614000486120122149086056
:1018E00080201F494861086180000861401008613C
:1018F00040004861E0B21B490860802018494861F7
:10190000086180000861401008614000486104EBF4
:101910000800401E001213490860802010494861E9
:10192000086180000861401008614000486104EBD4
:101930000800401EC0B20B49086080200849486179
:1019400008618000086108498889FEF7FFFD4FF4AF
:10195000807003490861400048612812014905E090
:10196000001001400C0C0140A800002008608020FD
:10197000FE4948610861800008614010086140002C
:101980004861E8B2FA4908608020F8494861086176
:101990008000086140100861400048614FEA29203A
:1019A000F34908608020F149486100E011E00861D6
:1019B00080000861401008614000486109F0FF00A4
:1019C000EB4908608020E9494861086180000861AE
:1019D000DFE0E848808845F2105188427ED1E54931
:1019E0004889FEF7B3FD4FF48070E049086140007C
:1019F00048612012DE4908608020DC4948610861A6
:101A000080000861DB494989491C88B2FEF79EFDC8
:101A10004FF48070D549086140004861E0B2D44974
:101A200008608020D1494861086180000861D1497F
:101A30004989891C88B2FEF789FD4FF48070CB4933
:101A40000861400048613012C94908608020C749D8
:101A50004861086180000861C6494989C91C88B28B
:101A6000FEF774FD4FF48070C04908614000486182
:101A7000F0B2BF4908608020BC494861086180001D
:101A80000861BC498889FEF761FD4FF48070B74951
:101A90000861400048612812B54908608020B349B8
:101AA0004861086180000861B2498989491C88B28F
:101AB000FEF74CFD4FF48070AC490861400048616E
:101AC000E8B2AB4908608020A849486108618000FD
:101AD0000861A8498989891C88B200E026E0FEF7E0
:101AE00035FD4FF48070A14908614000486138120B
:101AF0009F49086080209D49486108618000086115
:101B00009C498989C91C88B2FEF720FD4FF480707A
:101B10009649086140004861F8B295490860802004
:101B20009249486108618000086132E091488079FB
:101B300001280ED1AA46BB468E480088801B401E55
:101B400080B201908B480088001B401E80B200903C
:101B500003E0A246B346019500975020059051201E
:101B60000490522003905320029051460598FEF7AE
:101B70003AFD59460498FEF736FD01990398FEF7A1
:101B800032FD00990298FEF72EFD29462046FEF709
:101B90006EFD06B0BDE8F08F70B5044600267548AE
:101BA00005884088454300210846FEF760FDFEF7A2
:101BB00036FD00BF0DE04FF480706C4908614000B5
:101BC00048616B48046080204861086180000861BA
:101BD000761CAE42EFD370BD08B50121192003F089
:101BE00081FB0121644803F092F94FF4F860ADF8ED
:101BF000000010208DF8030003208DF802006946D4
:101C00005A4803F0B3F84FF4F861584803F05BF911
:101C10004FF6FF70ADF80000694655480C3803F0E8
:101C2000A5F84FF6FF7152480C3803F04CF93220FA
:101C300002F04FFF01210020FEF7D5FC322002F018
:101C400048FF0020FEF7E3FC4A4988800846808868
:101C5000FF280ADB084680884FF6FF71884204D0CF
:101C600044488088B0F5134F19D1D320FEF76EFC9D
:101C7000FEF788FCFEF786FCFEF784FC3D49888071
:101C8000084680884FF6FF7101EA002039498880B4
:101C9000FEF778FC374989880843364988803548FB
:101CA000808849F24131884268D1CF20FEF74EFC4E
:101CB0000020FEF759FCC120FEF756FC3020FEF74D
:101CC00053FCED20FEF742FC6420FEF74DFC0320A0
:101CD000FEF74AFC1220FEF747FC8120FEF744FC89
:101CE000E820FEF733FC8520FEF73EFC1020FEF7CF
:101CF0003BFC7A20FEF738FCCB20FEF727FC39208E
:101D0000FEF732FC2C20FEF72FFC0020FEF72CFC07
:101D10003420FEF729FC0220FEF726FCF720FEF710
:101D200015FC2020FEF720FCEA20FEF70FFC002027
:101D3000FEF71AFC0020FEF717FCC020FEF706FC99
:101D40001B20FEF711FCC120FEF700FC0120FEF76E
:101D50000BFCC520FEF7FAFB3020FEF705FC302017
:101D6000FEF702FCC720FEF7F1FB08E0001001407F
:101D70000C0C0140A800002000023000B3E0B720A6
:101D8000FEF7F2FB3620FEF7E1FB4820FEF7ECFB06
:101D90003A20FEF7DBFB5520FEF7E6FBB120FEF70D
:101DA000D5FB0020FEF7E0FB1A20FEF7DDFBB62096
:101DB000FEF7CCFB0A20FEF7D7FBA220FEF7D4FBF0
:101DC000F220FEF7C3FB0020FEF7CEFB2620FEF735
:101DD000BDFB0120FEF7C8FBE020FEF7B7FB0F209C
:101DE000FEF7C2FB2A20FEF7BFFB2820FEF7BCFB54
:101DF0000820FEF7B9FB0E20FEF7B6FB0820FEF721
:101E0000B3FB5420FEF7B0FBA920FEF7ADFB432047
:101E1000FEF7AAFB0A20FEF7A7FB0F20FEF7A4FBA4
:101E20000020FEF7A1FB0020FEF79EFB0020FEF73E
:101E30009BFB0020FEF798FBE120FEF787FB0020CC
:101E4000FEF792FB1520FEF78FFB1720FEF78CFBA9
:101E50000720FEF789FB1120FEF786FB0620FEF720
:101E600083FB2B20FEF780FB5620FEF77DFB3C20FA
:101E7000FEF77AFB0520FEF777FB1020FEF774FBD8
:101E80000F20FEF771FB3F20FEF76EFB3F20FEF7B1
:101E90006BFB0F20FEF768FB2B20FEF757FB0020A3
:101EA000FEF762FB0020FEF75FFB0120FEF75CFB04
:101EB0003F20FEF759FB2A20FEF748FB0020FEF7E3
:101EC00053FB0020FEF750FB0020FEF74DFBEF20F8
:101ED000FEF74AFB1120FEF739FB782002F0F9FDEE
:101EE0002920FEF733FB0020FFF75DFB0120F849B6
:101EF00008604FF6FF70FFF74FFE08BD2DE9FC4F5D
:101F000005460E4617469846DDF82C9000200190B5
:101F1000F048808846F60401884229D1ED4880794E
:101F2000012825D1AB463546EA480088C01B401E33
:101F300086B24746E7480088A0EB0B00401E1FFA18
:101F400080F80020E34988712A2048812B2088816D
:101F500043463A4631462846CDF80090FFF7CEFF7B
:101F60000120DC4988712B2048812A20888127E0C4
:101F7000781B401C80B2019034461FE02146284661
:101F8000FEF775FBFEF74BFB4FF0000A11E04FF434
:101F90008070D149086140004861D048C0F8009085
:101FA000802048610861800008610AF101001FFA81
:101FB00080FA01988245EADB601C84B24445DDDD8D
:101FC000BDE8FC8F2DE9F84F07460D46904699462F
:101FD000DDF828B0A8EB0700401C1FFA80FAA9EB37
:101FE0000500401C80B20090002420E0281981B236
:101FF0003846FEF73CFBFEF712FB002613E04FF4D9
:102000008070B54908614000486104FB0A603BF8F4
:102010001000B24908608020AF4948610861800023
:102020000861701C86B25645E9DB601C84B20098DA
:102030008442DBDBBDE8F88F2DE9FF4F84B0814699
:102040008A460020039002900698A0EB09050798A5
:10205000A0EB0A06CDF80490CDF800A0002D01DD1C
:10206000012705E00DB9002702E04FF0FF376D4270
:10207000002E02DD4FF0010806E016B94FF000080F
:1020800002E04FF0FF387642B54201DD2C4600E019
:1020900034464FF0000B21E0009A91B2019A90B2C1
:1020A000FFF74EF8039828440390029830440290BA
:1020B0000398A04205DD0398001B03900198384463
:1020C00001900298A04205DD0298001B0290009842
:1020D000404400900BF101001FFA80FB601C834517
:1020E000DADD08B0BDE8F08FF0B504460D461646BF
:1020F0001F462B46324629462046FFF79DFF3B46AA
:10210000224629462046FFF797FF3B46324639468E
:102110002046FFF791FF3B46324629463046FFF7FF
:102120008BFFF0BD2DE9F04306460F469046002494
:1021300045460320A0EB48093CE07A1B91B23219D6
:1021400090B2FEF7FDFF3A1B91B2721990B2FEF702
:10215000F7FF3A1991B2721990B2FEF7F1FF7A19AE
:1021600091B2321990B2FEF7EBFF7A1991B2321B9D
:1021700090B2FEF7E5FF3A1991B2721B90B2FEF7EA
:10218000DFFF7A1B91B2321B90B2FEF7D9FF3A1BE8
:1021900091B2721B90B2FEF7D3FF641CB9F1000F2D
:1021A00003DAA000801D814404E0601B80000A3037
:1021B00081446D1EAC42C0DDBDE8F0832DE9F84FCF
:1021C00080460E4617461C46B3462046E31704EBEE
:1021D0005373DB1021464FEAE47C04EB5C7C4FEA4E
:1021E000EC0CA4EBCC0CBCF1000F02D04FF0010CB6
:1021F00001E04FF0000C6344224604EBD27C4FEA2E
:102200006C0C03FB0CF3DBB20093142C02D0A7F18F
:102210002000C7B2002556E00C2C07D107EB470081
:102220002F4901EB800010F8059013E0102C05D128
:102230002C4800EB071010F805900BE0182C07D184
:1022400007EBC700284901EB800010F8059001E07A
:10225000BDE8F88F4FF0000A2FE009F0800030B1A0
:102260002248028831464046FEF784FF07E00A987C
:1022700028B91F48028831464046FEF77BFF4FEAE7
:1022800049604FEA1069701C86B212484088B0421B
:1022900000DCDDE7A6EB0B00A0420AD15E4608F1A8
:1022A00001001FFA80F80B480088404500DCCFE7AA
:1022B00006E00AF1010000F0FF0ABAF1080FCCDBDA
:1022C00000BF681CC5B200988542A5DB00BFBFE710
:1022D000A8012242A8000020001001400C0C01407F
:1022E0008A8B0008FE8F0008EE950008160000207B
:1022F000180000202DE9F84F80460E4617461C4670
:10230000B3462046E21704EB5272D2102146E3177F
:1023100004EB5373DB10A4EBC3030BB1012300E008
:1023200000231A446243D2B20092002556E0102CDA
:1023300005D1DF4800EB471010F8059015E0182C88
:1023400007D107EBC700DB4901EBC00010F805908F
:102350000BE01E2C07D1C7EB0710D74901EBC000DB
:1023600010F8059001E0BDE8F88F4FF0000A2FE06B
:1023700009F0800030B1D148028831464046FEF76E
:10238000F9FE07E00A9828B9CD4802883146404650
:10239000FEF7F0FE4FEA49604FEA1069701C86B202
:1023A000C8484088B04200DCDDE7A6EB0B00A04245
:1023B0000AD15E4608F101001FFA80F8C148008882
:1023C000404500DCCFE706E00AF1010000F0FF0A1B
:1023D000BAF1080FCCDB00BF681CC5B2009885427B
:1023E000A5DB00BFBFE710B50246012000E0504367
:1023F0000B00A1F10104E1B2F9D110BD2DE9FF4FAD
:1024000081B0074691461E460E9D4FF0000A0024FB
:1024100039E0301B401EC1B20A20FFF7E4FFB9FBD0
:10242000F0F00A21B0FBF1F201FB1208BAF1000F43
:1024300016D1701EA04213DDB8F1000F0ED100209E
:10244000AB4605EBDB71491001FB0471009088B2CB
:102450002B4620220299FFF7B1FE12E04FF0010A4D
:102460000020AB4605EBDB71491001FB04710090C5
:1024700088B208F13001CAB22B460299FFF79EFEDE
:1024800000BF601CC4B2B442C3DB05B0BDE8F08F2E
:102490002DE9FF4F81B0074691461E460E9D4FF035
:1024A000000A002439E0301B401EC1B20A20FFF7A9
:1024B0009AFFB9FBF0F00A21B0FBF1F201FB120820
:1024C000BAF1000F16D1701EA04213DDB8F1000F53
:1024D0000ED10020AB4605EBDB71491001FB047106
:1024E000009088B22B4630220299FFF767FE12E077
:1024F0004FF0010A0020AB4605EBDB71491001FBF0
:102500000471009088B208F13001CAB22B460299DA
:10251000FFF754FE00BF601CC4B2B442C3DB05B079
:10252000BDE8F08F2DE9FF4F82B0064692461F4668
:10253000DDE90F480020019000254DE0781B401E8A
:10254000C1B20A20FFF74FFFBAFBF0F00A21B0FB3F
:10255000F1F201FB1209019850BB781EA84227DD59
:10256000B9F1000F22D108F0800078B108F0010025
:10257000A34604EBDB71491001FB0561009088B2B2
:10258000234630220399FFF719FE0EE008F0010000
:10259000A34604EBDB71491001FB0561009088B292
:1025A000234620220399FFF709FE13E00120019042
:1025B00008F00100A34604EBDB71491001FB056143
:1025C000009088B209F13001CAB223460399FFF79F
:1025D000F5FD00BF681CC5B2BD42AFDB06B0BDE86B
:1025E000F08F2DE9F84704460D4690469946DDE9FF
:1025F000096704F0FF0A08EB04001FFA80F809EBF2
:1026000005001FFA80F916E0444502DB5446A8197C
:1026100085B24D4500DB14E0002000903A78334647
:1026200029462046FFF7CAFD304606EBD07104EB81
:1026300061018CB27F1C38787E2802DC3878202833
:10264000E2DA00BFBDE8F8872DE9F84704460D46F9
:1026500090469946DDE9096704F0FF0A08EB04009B
:102660001FFA80F809EB05001FFA80F916E04445CF
:1026700002DB5446A81985B24D4500DB14E000206A
:1026800000903A78334629462046FFF797FD3046BA
:1026900006EBD07104EB61018CB27F1C38787E2888
:1026A00002DC38782028E2DA00BFBDE8F8870000B5
:1026B0004AA30008CAA3000892A800081600002038
:1026C00018000020A8000020002100BF15E000F045
:1026D00080021AB10122FE4B1A6002E00022FC4B7C
:1026E0001A604206100E0022F94B0C3B1A600122C0
:1026F000F84BC3F880214A1CD1B20829E7DB7047A8
:1027000070B50646002500240020F1490C39086008
:10271000F049C1F88C01EE49283108603046FFF7D6
:10272000D3FF062002F0B1F90020EA49C1F8800188
:10273000012002F0AAF90120E5490C3908600020C7
:10274000E449C1F8800100BF13E04FF6FF7000EAD2
:1027500044040020DE490C3908600120DD49C1F83D
:102760008001DB488438006808B1601C84B2681CB2
:10277000C5B2102DE9DB24110120D54928310860AC
:10278000204670BD2DE9FE4380460027002406E068
:102790004046FFF7B5FF2DF81400601C84B2052CED
:1027A000F6DB002416E0601C85B20FE03DF8140053
:1027B0003DF81510884207DD3DF814603DF815001E
:1027C0002DF814002DF81560681C85B2052DEDDB81
:1027D000601C84B2042CE6DB0027012405E03DF8F0
:1027E0001400384487B2601C84B2042CF7DB032049
:1027F00097FBF0F086B23046BDE8FE832DE9F0414C
:1028000004460D46B4480078FFF7BCFF0646B348BF
:102810000078FFF7B7FF074626802F800120BDE82C
:10282000F0817FB504460D4602A903A8FFF7E6FF35
:10283000064616B9002004B070BD694601A8FFF72E
:10284000DDFF06460EB90020F5E7BDF80400BDF82F
:102850000C10884206DCBDF80C10BDF804003230C4
:1028600081420CDBBDF80C00BDF80410884236DC58
:10287000BDF80410BDF80C00323081422FDABDF8EB
:102880000000BDF80810884206DCBDF80810BDF84D
:102890000000323081420CDBBDF80800BDF80010AA
:1028A00088421CDCBDF80010BDF8080032308142BF
:1028B00015DABDF80C10BDF80420881800EBD071B3
:1028C000C1F34F012180BDF80810BDF80020881821
:1028D00000EBD071C1F34F0129800120ABE700204C
:1028E000A9E770B504460D4616467D48068004F1FA
:1028F0000D018AB2193988B22B462946FFF79CFB95
:1029000005F10D0083B2193881B222462046FFF747
:1029100093FB6A1C91B2621C90B2FEF711FC6A1C18
:1029200091B2621E90B2FEF70BFC6A1E91B2621C5D
:1029300090B2FEF705FC6A1E91B2621E90B2FEF7DD
:10294000FFFB062229462046FFF7ECFB70BD70B561
:1029500004460D4616466248068029462046FEF784
:10296000EFFB611C88B22946FEF7EAFB681C81B2C6
:102970002046FEF7E5FB6A1C91B2621C90B2FEF79E
:10298000DFFB70BD2DE9F0410446514888380068EE
:10299000002856D12CB15349A1F10A00FFF741FF9D
:1029A0003DE05049A1F10A00FFF73BFFB8B34D49A4
:1029B0001639B1F92C0005F013FF074649491639BD
:1029C000888905F025FF804646481638416A40460A
:1029D00005F066FF0646394605F062FD054605F03E
:1029E000DFFE404916398881B1F92E0005F0F8FE66
:1029F00007463C491639C88A05F00AFF804639481F
:102A00001638816A404605F04BFF0646394605F008
:102A100047FD054605F0C4FE32491639C8823148E3
:102A2000163890F8200000F0800038BBC0202D49F7
:102A3000163981F82000084681898182C18AC183C4
:102A40001CE02848163890F8200000F0800050B1B3
:102A50002448163890F8200020F0800021491639CB
:102A600081F820000AE000211E4816388182C183C7
:102A70004FF6FF701B4916398881C88219481638ED
:102A800090F8200000F08000BDE8F08170B5154995
:102A90001639486A144905F003FF054605F064FE3F
:102AA000044604222146282001F044FE0D4916392F
:102AB000886A0D4905F0F4FE054605F055FE04460A
:102AC000042221462C2001F035FE064816380DE080
:102AD0008C012242000022425000002051000020C0
:102AE000160000203200002020BCBE4CB0F92C1093
:102AF0000222302001F01EFEF948B0F92E10022209
:102B0000322001F017FEF64890F83010342001F022
:102B1000E9FD0A242146352001F0E4FD70BD70B5C1
:102B2000352001F0B3FD04460A2C42D104212820AF
:102B300001F015FE0546284605F052FE0646E94915
:102B400005F01CFDE649486204212C2001F007FE37
:102B50000546284605F044FE0646E24905F00EFD0E
:102B6000DF4988620221302001F0F9FD00B2DC4922
:102B700088850221322001F0F2FD00B2D849C885D3
:102B8000342001F083FDD64981F83000084690F8E2
:102B9000300030B19020D4490870D020D34908705B
:102BA00005E0D020D04908709020D049087001205D
:102BB00070BD0020FCE72DE9FC5F04460D4617467A
:102BC0001E46DDE90EABDDE90C894FF47840C849BB
:102BD0000880C8A01021CDE90010C74843880288AA
:102BE000A0212820FFF7FDFCC4A01021CDE9001092
:102BF000C14843880288A0217820FFF7F2FCC0A0DA
:102C00001021CDE90010BC4843880288B421282057
:102C1000FFF7E7FCBBA01021CDE90010B6484388C0
:102C20000288B4217820FFF7DCFCB7A01021CDE9A1
:102C30000010B14843880288C8212820FFF7D1FC42
:102C4000B2A01021CDE90010AB4843880288C8210A
:102C50007820FFF7C6FCAEA01021CDE90010A648F1
:102C600043880288DC212820FFF7BBFCA9A01021A3
:102C7000CDE90010A04843880288DC217820FFF7C6
:102C8000B0FCA5A01021CDE900109B484388028824
:102C9000F0212820FFF7A5FC102004232246A021C4
:102CA00000904020FFF7AAFB102004232A46A02111
:102CB00000909020FFF7A2FB102004233A46B42195
:102CC00000904020FFF79AFB102004233246B421E5
:102CD00000909020FFF792FB102004234246C82169
:102CE00000904020FFF78AFB102004234A46C821A9
:102CF00000909020FFF782FB102004235246DC2135
:102D000000904020FFF77AFB102004235A46DC2174
:102D100000909020FFF772FB102000907648018809
:102D200003236020109AFFF769FBBDE8FC9F2DE9A3
:102D3000F04F8BB00024002006904FF6FF70FEF796
:102D40002BFF1F206A490880754800681021642302
:102D5000A022CDE9001028210846FFF742FC4FF4DD
:102D6000784214210846FFF7BCFD00205C4981F839
:102D70002000486248E200BF594841680120884766
:102D8000574890F8200000F0C00040287ED1002075
:102D90000690534890F8200020F04000504981F8F8
:102DA00020000846808907A921F824004C48C08AE1
:102DB00001EB84014880601CC4B2012C06D0022CB7
:102DC00014D0032C25D0042C0FD138E04FF6FF721D
:102DD00014210846FFF785FD47490988143988B250
:102DE0004FF478421421FFF77CFDFDE14249098848
:102DF000143988B24FF6FF721421FFF772FD3E4876
:102E00004088143881B24FF478421420FFF769FDEE
:102E1000EAE139484088143881B24FF6FF72142035
:102E2000FFF75FFD344A5288143A91B2324A128851
:102E3000143A90B24FF47842FFF753FDD4E10024E6
:102E4000F5E0384911F8241007AA32F82110354A64
:102E500002EB8402527807AB33F82220881A00284C
:102E600001DB014600E041420D462E4911F82410D5
:102E700007AA02EB810149882A4A02EB84025278B0
:102E800007AB03EB82025288881A00E0ADE100280C
:102E900001DB014600E041420E466D437643A8192E
:102EA00004F07FFFCDE9020104F0D4FCCDE9040178
:102EB00004F04AFF1FFA80F81A4901EB840189786F
:102EC00007AA32F82110174A02EB8402D27807AB26
:102ED00033F82220881A002826DB014625E000006E
:102EE0001C00002020BCBE4C5000002051000020DF
:102EF0001600002078313A00A800002079313A000D
:102F000078323A0079323A0078333A0079333A002D
:102F100078343A0079343A006661632069733A0084
:102F200054000020EAAA000841420D46D34901EBB3
:102F30008401897807AA02EB81014988CF4A02EB14
:102F40008402D27807AB03EB82025288881A0028E9
:102F500001DB014600E041420E466D437643A8196D
:102F600004F01FFFCDE9020104F074FCCDE9040177
:102F700004F0EAFE1FFA80F9484605F049FC0746CE
:102F8000404605F045FC8346394605F0F7FA82468F
:102F9000504605F059FA4FF06632B94BCDE90401BD
:102FA00004F012FF0FD3504605F04EFAB54AB64B67
:102FB000CDE9040105F042F805D3B8F1000F02D0C5
:102FC000B9F1000F31D10024B04A5288143A91B2BD
:102FD000AE4A1288143A90B24FF6FF72FFF781FCA6
:102FE0004FF4784214210846FFF77BFCA84950466D
:102FF00005F056FC834605F0D3FB87B2BDF82A10D6
:10300000BDF82800BDF8262002AB83C30192BDF8AD
:1030100024000090BDF82230BDF82020BDF81E101D
:10302000BDF81C00FFF7C7FDA6E6601CC4B2032C68
:10303000FFF607AFBDF82010BDF81C20881A05F078
:10304000CFFB074691490988A1F1280005F0C8FB8C
:103050008346394605F092FA8E494862BDF8201041
:10306000BDF81C20881805F0BBFB03908948416A15
:10307000039805F015FC85490590088805F0C8FB04
:103080000490059905F00AFD83464FF0804105F054
:1030900075FA074605F068FB00B27E498885BDF8E1
:1030A0002610BDF81E20881A05F09AFB07467749BE
:1030B0004988A1F1280005F093FB8346394605F0C5
:1030C0005DFA74498862BDF82610BDF81E20881884
:1030D00005F086FB03906F48816A039805F0E0FBDA
:1030E00083466A49488805F093FB5946049005F0E9
:1030F000D5FC4FF08041059005F040FA074605F0F9
:1031000033FB00B26349C885486A05F02DFBB0F176
:10311000000B01DB584601E0CBF1000002280ADC7D
:103120005C49886A05F020FB071E01DB384600E099
:103130007842022839DD0024544A5288143A91B268
:10314000524A1288143A90B24FF6FF72FFF7C9FB49
:103150004FF4784214210846FFF7C3FB4EA010211C
:10316000CDE900104948438802881A212820FFF73A
:1031700038FA484890F8300008B9012000E00020F3
:10318000444981F83000084690F8300030B1902072
:1031900046490870D0204649087005E0D0204349D0
:1031A00008709020424908702EE01F204149088095
:1031B0004FF6FF70FEF7F0FC3FA01021CDE90010A4
:1031C0003248438802886E212320FFF70AFA4FF421
:1031D0007A7001F07EFCFFF759FC4FF6FF70FEF7A6
:1031E000DBFC0BB0BDE8F08F00BF0A2001F071FCE2
:1031F0000698401C80B206900698B0F57A7F02DDF2
:10320000FFF78DFC01E000BFB5E500BF00BFE8E7B8
:1032100008B50121112002F065F842F20900ADF86D
:10322000000010208DF8030003208DF8020069468D
:10323000274801F09BFD0620ADF8000048208DF8DE
:1032400003006946224801F091FD12491631A1F1AF
:103250000A00FFF7D3FA01F015FAFFF760FC08B196
:10326000002008BD4FF6FF70FEF796FCFFF75FFDEC
:10327000FFF70CFCFFF753FC0120F2E7EAAA000875
:103280006666EE3FCDCCCCCCCCCCF03FA800002085
:103290000000C8421C0000205450204E6565642088
:1032A000726561646A75737421000000500000202B
:1032B0005100002016000020546F7563682053638E
:1032C0007265656E2041646A757374204F4B2100EE
:1032D000001001407FB505460C460121022002F096
:1032E0000EF8ADF80850ADF804400020ADF80A0023
:1032F000ADF8060001A9154802F09EFB1D208DF8CF
:10330000000000208DF8010002208DF8020001204D
:103310008DF80300684602F052FA012211460B486C
:1033200002F001FF0121094802F0E2FE7FBD0748DB
:103330001030008800F0010038B1044810300088D7
:1033400020F001000149103108807047000400405E
:1033500008B50121202001F0C5FF10208DF80300E1
:1033600003208DF802000420ADF8000069460448EF
:1033700001F0FCFC0421024801F0A5FD08BD00009D
:10338000001401401CB50020FEF706FC0020FD499A
:1033900008804FF6E0702223982200210090084612
:1033A000FEF7ACFD4FF47840F749088001201E235A
:1033B0000322022100900020FEF79CFF01201E2323
:1033C0000422022100901846FEF794FF01201E23DC
:1033D0000022022100903C20FEF78CFF01201E23DA
:1033E0000246022100905A20FEF784FF01201E238E
:1033F0000222114600907820FEF77CFF012018235E
:103400000D2202210090BC20FEF774FF012018233A
:103410000E2202210090D420FEF76CFF48F23040CB
:10342000D949088001201823002228210090142067
:10343000FEF760FF012018230246282100902C206F
:10344000FEF758FFD1A018210B468422CDE90010C9
:1034500028214420FFF7C5F8012018230222462125
:1034600000901420FEF746FF012018230322462176
:1034700000902C20FEF73EFFC7A018210B468422A7
:10348000CDE9001046214420FFF7ABF801201823B6
:103490000422642100901420FEF72CFF0120182341
:1034A0000522642100902C20FEF724FFBDA01821E6
:1034B0000B467822CDE9001064214420FFF791F8F3
:1034C000012018230722642100908C20FEF712FFB0
:1034D000012018230622822100901420FEF70AFF03
:1034E000012018230522822100902C20FEF702FFE4
:1034F000012018233A22822100904420FEF75EFE2C
:10350000012018230722822100908C20FEF7F2FE72
:1035100001201023402240F22F110090A820FEF736
:103520004DFE01201023002240F22F110090B02008
:10353000FEF7E0FE01201023024640F22F1100901A
:10354000C020FEF7D7FE01201023022240F22F11E7
:103550000090D020FEF7CEFE01201023032240F27F
:103560002F110090E020FEF7C5FE1CBD1CB542F6F1
:103570001230854908804FF49873F022A021002072
:10358000FEF7B2FD4FF498733722A0211046FEF7E4
:1035900053FD4FF498736E22A0211046FEF74CFDA8
:1035A0004FF49873A522A0211046FEF745FDC423D1
:1035B000F02219460020FEF73FFDE823F0221946CD
:1035C0000020FEF739FD4FF48673F02219460020E3
:1035D000FEF732FD48F21F406B4908800120182396
:1035E0003722A62100901220FEF7E8FD01201823C3
:1035F0003822A62100904920FEF7E0FD0120182383
:103600003922A62100908020FEF7D8FD0120182342
:103610003422CA2100901220FEF7D0FD0120182389
:103620003522CA2100904920FEF7C8FD0120182349
:103630003622CA2100908020FEF7C0FD0120182309
:103640003122EE2100901220FEF7B8FD0120182350
:103650003222EE2100904920FEF7B0FD0120182310
:103660003322EE2100908020FEF7A8FD01201823D0
:103670002E224FF4897100901220FEF79FFD012049
:10368000182330224FF4897100904920FEF796FDEF
:103690004FF6FF703C490880012018230B224FF49D
:1036A000897100907020FEF725FE012018230C225E
:1036B0004FF4897100908820FEF71CFE3CA0182171
:1036C0000B462422CDE90010A521B620FEF789FF84
:1036D00037A018210B462422CDE90010A621B720DF
:1036E000FEF77FFF32A018210B462422CDE90010FF
:1036F000A721B620FEF775FF012018230F22CA214B
:103700000090B620FEF7F6FD012018231022CA21F2
:103710000090CE20FEF7EEFD012018230922EE21B5
:103720000090B620FEF7E6FD012018230A22EE21C4
:103730000090CE20FEF7DEFD1EA018210B463022A1
:10374000CDE900104FF48971B420FEF74AFF1CBD8B
:1037500008B51A480078112813D2DFE800F0C30931
:10376000313B454E576069727B86919CA5AEB8008F
:10377000002040F20B133622E92100900120FEF7D1
:10378000BDFBAFE018000020160000203A202020EA
:1037900020202056000000003A2020202020206712
:1037A000000000003A202020202020202F67000069
:1037B0003C2D2D005A45524F0000000060000020B3
:1037C000002040F20B136D22E92100903820FEF713
:1037D00095FB87E0002040F20B13A422E921009022
:1037E0006F20FEF78BFB7DE00020E7233622C5210A
:1037F00000900120FEF782FB74E00020E7236D2299
:10380000C52100903820FEF779FB6BE00020E7230C
:10381000A422C52100906F20FEF770FB62E000201B
:10382000C3233622A12100900120FEF767FB59E057
:103830000020C3236D22A12100903820FEF75EFBFB
:1038400050E00020C323A422A12100906F20FEF7A6
:1038500055FB47E0002040F22F136D2240F20D117E
:1038600000903820FEF74AFB3CE0002040F22F1386
:10387000362240F20D1100900120FEF73FFB31E0AF
:10388000002040F22F13A42240F20D1100906F206F
:10389000FEF734FB26E00020C323EF22A121009095
:1038A000A620FEF72BFB1DE00020E723EF22C52119
:1038B0000090A620FEF722FB14E0002040F20B133C
:1038C000EF22E9210090A620FEF718FB0AE0002075
:1038D00040F22F13EF2240F20D110090A620FEF7C8
:1038E0000DFB00BF00BF08BD38B5FE484168002091
:1038F0008847FC4890F8200000F0800000287DD028
:10390000F848808900287ADDF6488089F02876DA40
:10391000F448C08AA028F6DDF248C08AB0F5987F46
:10392000F5DAF048808900281ADDEE4880893728CA
:1039300016DAEC48C08AE82812DDEA48C08AB0F5F9
:10394000867F0DDA47F6FF7040F20B133622E9212D
:1039500000900120FEF7D2FA0120E349087080E2CE
:10396000E048808937281ADDDE4880896E2816DA1B
:10397000DC48C08AE82812DDDA48C08AB0F5867FC4
:103980000DDA47F6FF7040F20B136D22E92100902B
:103990003820FEF7B3FA0220D349087061E2D1481B
:1039A00080896E281ADDCF488089A52816DACD488F
:1039B000C08AE82812DDCB48C08AB0F5867F0DDAD0
:1039C00047F6FF7040F20B13A422E92100906F200C
:1039D000FEF794FA0320C449087042E2C148808986
:1039E00000281BDDBF488089372817DABD48C08A08
:1039F000C42813DDBB48C08AE82801E062E254E233
:103A00000CDA47F6FF70E7233622C521009001202B
:103A1000FEF774FA0420B449087022E2B1488089A4
:103A2000372818DDAF4880896E2814DAAD48C08A7F
:103A3000C42810DDAB48C08AE8280CDA47F6FF70CE
:103A4000E7236D22C52100903820FEF757FA0520A4
:103A5000A549087005E2A34880896E2818DDA148B1
:103A60008089A52814DA9F48C08AC42810DD9D48A3
:103A7000C08AE8280CDA47F6FF70E723A422C521A4
:103A800000906F20FEF73AFA062097490870E8E1A7
:103A900094488089002818DD92488089372814DAF4
:103AA0009048C08AA02810DD8E48C08AC4280CDA4D
:103AB00047F6FF70C3233622A12100900120FEF7B4
:103AC0001DFA072088490870CBE18648808937288D
:103AD00018DD844880896E2814DA8248C08AA028BC
:103AE00010DD8048C08AC4280CDA47F6FF70C32373
:103AF0006D22A12100903820FEF700FA08207A49B3
:103B00000870AEE1774880896E2818DD7548808995
:103B1000A52814DA7348C08AA02810DD7148C08A2D
:103B2000C4280CDA47F6FF70C323A422A121009019
:103B30006F20FEF7E3F909206B49087091E16948AD
:103B4000808937281CDD674880896E2818DA654827
:103B5000C08AB0F5867F13DD6248C08AB0F5987FD1
:103B60000EDA47F6FF7040F22F136D2240F20D116E
:103B700000903820FEF7C2F90A205B49087070E116
:103B800058488089002821DD5648808937281DDA69
:103B90005448C08AB0F5867F18DD5248C08AB0F517
:103BA000987F13DA47F6FF7040F22F13362240F267
:103BB0000D1100900120FEF7A1F90B204A49087071
:103BC0004A480078401C4A4908704AE145488089C3
:103BD0006E282ADD43488089A52826DA4148C08A14
:103BE000B0F5867F21DD3F48C08AB0F5987F1CDAAA
:103BF00047F6FF7040F22F13A42240F20D110090FF
:103C00006F20FEF77BF93B48007838B13A480168ED
:103C10003A48006804F044FC384908600C203249F6
:103C200008700120364908701BE12E488089A528BC
:103C300043DD2C488089F0283FDA2A48C08AA02832
:103C40003BDD2848C08AC42837DA47F6FF70C32313
:103C5000EF22A1210090A620FEF750F9234890F909
:103C60000000012803DC0020264908701DE02048E0
:103C700000781E4991F90010884209D100201C49A2
:103C800008701A480078801E40B2184908700CE08D
:103C90000021164890F90000401E1A4A115413489A
:103CA0000078801E40B211490870FFF751FDFFF700
:103CB0005DFC0D200C490870D3E00A488089A528D6
:103CC0004CDD08488089F02848DA0648C08AC428B4
:103CD00044DD0448C08AE82840DA47F6FF70E7234D
:103CE000EF2211E01C00002060000020580000209E
:103CF0005E000020630000207C0000208000002087
:103D00006200002059000020C5210090A620FEF787
:103D1000F5F80020FE490870FE4908600120FE49C0
:103D200008700E20FD490870002404E00020FC49C2
:103D30000855601CC4B2042CF8DB002064239822D0
:103D4000462100905020FEF7D9F80020BE238C2297
:103D5000642100905020FEF7D1F882E0F14880897C
:103D6000A52832DDEF488089F0282EDAED48C08A98
:103D7000E8282ADDEB48C08AB0F5867F25DA47F6C9
:103D8000FF7040F20B13EF22E9210090A620FEF70E
:103D9000B5F8002064239822462100905020FEF7B9
:103DA000ADF80020BE238C22642100905020FEF745
:103DB000A5F8DD480068DD4908604FF07E50DC4919
:103DC00008600F20D54908704BE0D6488089A528A7
:103DD00046DDD4488089F02842DAD248C08AB0F55E
:103DE000867F3DDDCF48C08AB0F5987F38DA47F648
:103DF000FF7040F22F13EF2240F20D110090A62029
:103E0000FEF77CF800206423982246210090502081
:103E1000FEF774F80020BE238C226421009050200D
:103E2000FEF76CF80020BA490870BB490870C14918
:103E30000860C1490860C1490870BB490860BB49B6
:103E40000860BF4908701020B4490870002404E0DD
:103E50000020B3490855601CC4B2042CF8DB39E0DB
:103E600000BFAE48007800280ADDAC480078092879
:103E700006DCAA480078AA49B14A92F90020885481
:103E8000A64800780A2805D10020A549AC4A92F935
:103E900000208854FFF76AFB0120AA490870A8484F
:103EA0000078401C40B2A649087003E09D48416874
:103EB000002088479B4890F8200000F080000028F0
:103EC000F4D112E0A04800789D4991F90010884291
:103ED0000BD000BFFFF73CFCFFF748FB14208F49D5
:103EE0000870974800789849087038BD38B54FF683
:103EF000FF7096490880924890F90000052804DD7B
:103F000000208F49087083490860814800780428A0
:103F100002DD00207E4908708A480078012803D11C
:103F20007E4800780A2807DD7C4800780B2803D0FB
:103F30007A4800780D287DD10020824908707448A5
:103F4000007800287FD17E4890F90000062868D2CA
:103F5000DFE800F067030A1729447149087804F084
:103F600057FC6C4908605CE06D4949786C4A1278EE
:103F700002EB820201EB420004F032FC654908606A
:103F80004FE06749097864225143654A527802EB51
:103F9000820201EB4201624A9278881804F020FC08
:103FA0005C4908603DE05E4909784FF47A725143FC
:103FB0005B4A527802EBC20303EB021201EB82016F
:103FC000574A927802EB820201EB4201544AD278BE
:103FD000881804F005FC4F49086022E05049097830
:103FE00042F2107251434E4A527802EB4203C3EB45
:103FF000C21201EBC2014A4A927802EBC20303EB00
:10400000021201EB8201464AD27802EB820201EBF6
:104010004201434A1279881804F0E2FB3D490860E6
:1040200000BF00BF3B48006804F09EFB0446182018
:10403000052301E0A1E006E0224664210090502023
:10404000FEF7DCF999E032480078401E012804D0E0
:10405000022809D0032826D113E03149087804F05A
:10406000D7FB2C4908601EE02D4949782C4A12786C
:1040700002EB820201EB420004F0B2FB254908602A
:1040800011E02749097864225143254A527802EB0E
:10409000820201EB4201224A9278881804F0A0FBC8
:1040A0001C49086000BF00BF1D49194A1278885C8E
:1040B00004F0AEFB0546264904F060FA04461548B4
:1040C0000168204604F0ECF91249086008460068CF
:1040D00004F04AFB044618200D4900900978491E57
:1040E000CBB20B49097801EB41018900C1F1800194
:1040F00088B222466421FEF781F9002018232E227F
:10410000642100907420FEF759F81149014821E01C
:104110005E00002078000020630000206000002086
:10412000590000201C0000206400002068000020CE
:104130006C0000207C000020800000206200002035
:1041400058000020610000205F00002016000020C1
:1041500000002041006804F0A3FB054604F004FBC6
:104160000A2190FBF1F201FB1204182001232246E0
:10417000642100908020FEF741F938BD2DE9F04F11
:1041800087B08246D346584604F02AFB029004F0DA
:104190005BF980460022714B03F052FE0646002276
:1041A0006F4B03F079FC044603F090FB03900398F7
:1041B00004F04AF9044622460B466AA104A802F01C
:1041C00075FA002064239822282100908C20FDF7A6
:1041D00095FE04A818210B463C22CDE900102821A9
:1041E0005020FEF731FA6149039804F059FB029020
:1041F00004F02AF906465E4A5E4B03F099FB04463A
:104200005D4A5E4B03F048FC804603F05FFB5C496F
:1042100008604FF07E515B48006804F071FA07D1E6
:10422000594801685648006804F038FC5449086051
:104230000021039804F064FA09D100205049086075
:1042400064238C22462100905020FDF757FE4C48F5
:10425000006804F0F9F8044622460B464BA104A876
:1042600002F024FA04A818210B463C22CDE90010E4
:1042700046215020FEF7E8F94648007801286AD127
:104280003F4801684448006804F00AFB434908605D
:1042900000214148006804F033FA02D100203F4970
:1042A00008603F48007858BB30493C48006804F03B
:1042B00065F904464FF07E5104F0BEFB0AD2374840
:1042C000006804F051FA0446224636A104A802F020
:1042D000EDF90AE03148006804F0B6F804462246D9
:1042E0000B4631A104A802F0E1F904A818210B46FD
:1042F0003C22CDE9001082215020FEF7A5F92AE0EA
:104300001A492B48006804F039F904464FF07E51F1
:1043100004F092FB0AD22648006804F025FA04460D
:10432000224620A104A802F0C1F90AE02048006852
:1043300004F08AF8044622460B461BA104A802F0AA
:10434000B5F904A818210B463C22CDE900108221C2
:104350005020FEF779F907B0BDE8F08F0000F03F7C
:1043600000408F4025312E336600000000007A4463
:10437000CD3B4ED1911458405C2041F1630C194063
:10438000640000206C0000206800002025332E31DE
:104390006600000062000020780000207C00002001
:1043A000630000202564000025342E3166000000E3
:1043B0008000002008B50121084600F093FF01218C
:1043C000A84800F0A4FD0121042000F08BFF032089
:1043D0008DF8020010208DF803000820ADF80000D1
:1043E0006946A14800F0C2FC1020ADF80000694603
:1043F0009D4800F0BBFC8020ADF8000069469A485B
:1044000000F0B4FC0420ADF800006946964800F0C6
:10441000ADFC48208DF803002020ADF8000069466F
:10442000914800F0A3FC08BD08B50121242000F04C
:1044300059FF03208DF8020010208DF80300402062
:10444000ADF800006946884800F090FC0420ADF803
:1044500000006946854800F089FC48208DF803007B
:104460000220ADF8000069467F4800F07FFC08BDDF
:1044700010B5044624B980217B4800F026FD03E0F6
:104480008021794800F01FFD10BD10B50421764849
:1044900000F019FD0821744800F017FD082172484A
:1044A00000F011FD0821704800F00DFD08216E4854
:1044B00000F009FD08216C4800F005FD08216A485C
:1044C00000F003FD10BD10B50020FFF7D1FF102153
:1044D000654800F0F8FCFFF7D8FF10BD002000E0B1
:1044E000401C0228FCD3704770B50024002517E05B
:1044F00040205D4914310860FFF7F0FF6006040EAC
:104500000221594800F0C5FC012801D144F0010402
:104510004020554910310860FFF7E0FF681CC5B224
:10452000082DE5DB204670BD10B510214E4800F087
:10453000CCFC10214C4800F0C8FC10214A4800F087
:10454000C4FC1021484800F0BEFC10BD10B5FFF7B8
:10455000EBFF00BF2021444800F09BFC0028F9D16C
:104560000421414800F0B1FC002411E0FFF7BCFF3A
:104570003F4921F81400FFF7B7FF3D4911F8141027
:1045800000EB012000B23A4921F81400601CC4B2CB
:10459000012CEBDB0421344800F095FC10BD0146F2
:1045A000334A32F91100704730B50146002300222A
:1045B0000B4603EB83002F4C2488FA2505FB0402ED
:1045C000FF20B2FBF0F22B48038090B230BD30B533
:1045D0000146002300220B4603EB8300264C24886F
:1045E000FA2505FB0402FF20B2FBF0F2224803800B
:1045F00090B230BD30B5002429E02046FFF7CFFF50
:104600001E4921F81400084630F914504FF47A700E
:10461000684347F6FF7190FBF1F000EB800000B2B9
:10462000174921F8140031F8141088B2FFF7BCFFC5
:1046300000B2134921F8140031F8141088B2FFF7C2
:10464000C6FF00B20E4921F81400601CC4B2012C50
:10465000D3DB30BD10B5FFF7E7FEFFF7ABFEFFF78A
:1046600032FF10BD0002300000080140001401407C
:10467000B60000208400002086000020D600002024
:10468000C600002010B500F0BBF810BD70B50446A0
:10469000002600F0CFF82546E11704EB116109125E
:1046A000A02202EB4101C8B200F072F900F003F958
:1046B000E11704EB11610912A4EB0121C8B200F06B
:1046C00067F900F0F8F800F0B5F8A12000F060F903
:1046D00000F0F1F8002000F088F9064600F0CCF870
:1046E000304670BD70B504460E4600F0A3F825466E
:1046F000E11704EB11610912A02202EB4101C8B2DB
:1047000000F046F900F0D7F8E11704EB1161091247
:10471000A4EB0121C8B200F03BF900F0CCF8304620
:1047200000F036F900F0C7F800F0A6F80A2000F013
:10473000D0F970BD2DE9F04105460E46174600241C
:1047400009E0E20026FA02F2D1B22A1990B2FFF78C
:10475000C9FF601CC4B2BC42F3DBBDE8F0812DE9A7
:10476000F04107460C460026002509E036023919BB
:10477000491B491E88B2FFF789FF0644681CC5B271
:10478000A542F3DB3046BDE8F08110B5FF20FFF70E
:104790007DFF0446552C01D1002010BD5521FF207E
:1047A000FFF7A0FFFF20FFF771FF0446552C01D152
:1047B0000020F2E70120F0E770B506460C461546EA
:1047C00008E03046721C96B2FFF760FF04F8010B58
:1047D000681E85B2002DF4D170BD70B505460C463B
:1047E000164606E021782846FFF77CFF681C85B254
:1047F000641C3000A6F101018EB2F3D170BD00003F
:1048000008B50121102000F06DFD4FF4C050ADF847
:10481000000010208DF8030003208DF80200694687
:104820008A4800F0A3FA0120894908608949C1F843
:10483000AC0108BD10B58548406820F4704083493C
:1048400048600846406840F4405048600120804974
:10485000091F08607F49C1F8B001042000F015F974
:1048600000207B49091F0860042000F00EF9002099
:104870007849C1F8B00110BD10B57448406820F403
:104880007040724948600846406840F440504860B3
:1048900000206F4908606F49C1F8AC01042000F0A6
:1048A000F4F801206A4908606A49C1F8AC010420A3
:1048B00000F0EBF810BD10B500246448406820F407
:1048C0007040624948600846406840F400404860D3
:1048D00001205F49091F086000F0D7F801205D49F9
:1048E000C1F8B00100F0D1F807E0601CC4B2FA2CA6
:1048F00003DDFFF7C1FF012010BD55488438006873
:104900000028F2D15249086000BFF5E710B5002039
:104910004F4908604D48406820F470404B4948605A
:104920000846406840F44050486000204949C1F8BA
:10493000AC01022000F0A9F80120454908600220DE
:1049400000F0A3F800204349C1F8B00110BD10B534
:1049500000203F4908603D48406820F470403B49D2
:1049600048600846406840F440504860012039499A
:10497000C1F8AC01022000F088F801203449086039
:10498000022000F082F800203249C1F8B00110BDC9
:1049900070B504462D48406820F470402B494860AB
:1049A0000846406840F440504860002028490860AC
:1049B000002517E0E0092649091F08606006040E7B
:1049C000022000F062F801202249C1F8B001022063
:1049D00000F05BF800201E490860022000F055F846
:1049E000681CC5B2082DE5DB70BD70B50546002416
:1049F0001648406820F470401449486008464068F2
:104A000040F400404860002616E00020104908608D
:104A1000022000F03AF801200E49C1F8B00160060A
:104A2000040E0B488438006808B1601CC4B2012031
:104A300000F02BF8701CC6B2082EE6DB15B9FFF7A4
:104A400086FF01E0FFF762FF204670BD00100140C5
:104A5000B00122420000224210B56FF0040000F0C5
:104A6000F8FE2E4800682E49B0FBF1F02D49087081
:104A70000846007800EB4001C1EBC0104FF6FF7113
:104A800001EAC0002849088010BD0146254A127875
:104A90004A434FF0E0235A6100229A611A46126994
:104AA00042F001021A6100BF4FF0E022106900F0ED
:104AB00001021AB100F48032002AF5D04FF0E02252
:104AC000126922F001024FF0E0231A6100229A617C
:104AD00070470146144A12884A434FF0E0235A6156
:104AE00000229A611A46126942F001021A6100BF5F
:104AF0004FF0E022106900F001021AB100F4803298
:104B0000002AF5D04FF0E022126922F001024FF0A6
:104B1000E0231A6100229A61704700000000002023
:104B200000127A00880000208A000020014600BFA1
:104B3000704700BF494A128802F04002002AF9D0AB
:104B4000C2B2464B1B1D1A80704710B586B0044692
:104B5000012144F2040000F0C5FB4FF40070ADF8F1
:104B6000140003208DF8160018208DF8170005A9F1
:104B70003B4800F0FBF84FF48060ADF814000420CF
:104B80008DF8170005A9364800F0F0F825208DF8BB
:104B9000000003208DF801008DF8020001208DF83F
:104BA0000300684600F00BFE01940020ADF80800F9
:104BB000ADF80A00ADF80C00ADF810000C20ADF80F
:104BC0000E0001A9254800F034FC012240F22551D5
:104BD000224800F0C6FC0121204800F0B6FC06B0D7
:104BE00010BD10B540F225511C4800F09FFD10B3D8
:104BF0001A4800F01BFDC4B21A48008800F40040B7
:104C0000C8B91848008800F4804060B10A2C03D06D
:104C100000201449088020E01248008840F4004039
:104C20001049088019E00D2C06D10E48008840F488
:104C300080400C49088010E00A480088C0F30D004D
:104C400009490C5407480088401C0649088008465A
:104C50000088C72801DD0020088010BD0038014011
:104C60000008014090000020E6000020094880472D
:104C700009480047FEE7FEE7FEE7FEE7FEE7FEE73E
:104C8000FEE7FEE7FEE7FEE704480549054A064B56
:104C9000704700004F030008310100081002002097
:104CA00010080020100400201004002010B5044655
:104CB000CC48844208D10121042000F02DFB0021C2
:104CC000042000F029FB46E0C748844208D10121B6
:104CD000082000F021FB0021082000F01DFB3AE035
:104CE000C248844208D10121102000F015FB0021A8
:104CF000102000F011FB2EE0BD48844208D10121B4
:104D0000202000F009FB0021202000F005FB22E01C
:104D1000B848844208D10121402000F0FDFA00216A
:104D2000402000F0F9FA16E0B348844208D101218E
:104D3000802000F0F1FA0021802000F0EDFA0AE076
:104D4000AE48844207D10121801500F0E5FA002128
:104D5000A01500F0E1FA10BD10B50121084600F0E1
:104D6000DBFA0021012000F0D7FA10BD2DE9F04157
:104D7000024600250026002000230024002791F889
:104D800003C00CF00F0591F803C00CF0100CBCF13F
:104D9000000F03D091F802C04CEA050591F800C05D
:104DA000BCF1000F31D0146800202BE04FF0010C53
:104DB0000CFA00F3B1F800C00CEA03069E4220D1C1
:104DC00083004FF00F0C0CFA03F7BC4305FA03FC09
:104DD0004CEA040491F803C0BCF1280F06D14FF04F
:104DE000010C0CFA00FCC2F814C00AE091F803C0F0
:104DF000BCF1480F05D14FF0010C0CFA00FCC2F8D1
:104E000010C0401C0828D1D31460B1F800C0BCF118
:104E1000FF0F34DD546800202EE000F1080C4FF045
:104E2000010808FA0CF3B1F800C00CEA03069E4230
:104E300021D183004FF00F0C0CFA03F7BC4305FAA5
:104E400003FC4CEA040491F803C0BCF1280F05D11F
:104E500000F1080C08FA0CF8C2F8148091F803C0AD
:104E6000BCF1480F07D100F1080C4FF0010808FA17
:104E70000CF8C2F81080401C0828CED35460BDE85E
:104E8000F0814FF6FF710180022181700421C17011
:104E900070470246002093680B400BB1012000E0F0
:104EA000002070470146886880B2704702460020A3
:104EB000D3680B400BB1012000E000207047014691
:104EC000C86880B2704701617047416170470AB19C
:104ED000016100E041617047C16070474FF480326A
:104EE0000A438261816182618269826970470246F8
:104EF0000020434B18684FF68073184040EA0210B8
:104F000008433F4B186070473E49C8617047F0B591
:104F10000A46002300240021002500F00046B6F1D7
:104F2000004F02D1364EF16901E0354E7168C0F391
:104F3000034583B200F44016B6F5401F08D121F0B6
:104F400070612F4E766826F070662D4F7E6012E0FD
:104F500000F48016B6F5801F06D1032606FA05F484
:104F6000A14341F0706106E0460D360103FA06F6F2
:104F7000B14341F0706122B1460D360103FA06F6E5
:104F8000314300F00046B6F1004F02D11C4EF161F2
:104F900001E01B4E7160F0BD30B500228B071C0F85
:104FA0000F2303FA04F2164B08338C1053F8243005
:104FB0009343134C08348D1044F8253023468C104D
:104FC00053F824308C07240F00FA04F423430C4CCC
:104FD00008348D1044F8253030BD0A49DC310860B2
:104FE0007047000000080140000C01400010014023
:104FF0000014014000180140001C01400020014045
:105000000000014000002042DF48006840F001003D
:10501000DD49086008464068DC490840DA494860D4
:1050200008460068DA490840D74908600846006821
:1050300020F4802008600846406820F4FE004860A4
:105040004FF41F0088607047CF49096821F4803110
:10505000CD4A11601146096821F480211160B0F534
:10506000803F03D0B0F5802F0ED106E0C649096815
:1050700041F48031C44A116007E0C349096841F432
:10508000A021C14A116000E000BF00BF704710B509
:1050900001460022002300204A11012A02D1BA4C05
:1050A000236806E0022A02D1B74C236A01E0B64C1D
:1050B000636A01F01F02012494401C400CB10120DE
:1050C00000E0002010BD38B500200090002400252D
:1050D00000BF3120FFF7DBFF05460098401C009021
:1050E0000098B0F5A06F01D0002DF2D03120FFF76D
:1050F000CEFF08B1012400E00024204638BD01465F
:105100000020A14A106820F0F80040EAC1001060B9
:105110007047A04908607047024600209A4B5868C3
:1051200020F47C1042EA01031843974B5860704703
:1051300098490866704701460020934A506820F05D
:1051400003000843506070478F48406800F00C002F
:105150007047014600208C4A506820F0F000084358
:105160005060704701460020874A506820F4E06094
:1051700008435060704701460020834A506820F47D
:10518000605040EAC1005060704729B17E4A527AAF
:1051900002437D4B5A7204E07B4A527A82437A4B37
:1051A0005A7270477B49D831086070470146002029
:1051B000754A506820F44040084350607047002111
:1051C000714A20321170704A82F82010012802D0F2
:1051D00004280AD104E001216B4A2032117005E055
:1051E0000521694A2032117000E000BF00BF7047FE
:1051F0006949086070476449096A0143624A11625B
:105200007047654944390860704730B50021002275
:10521000002400235C4D6D6805F00C0121B10429C8
:1052200005D0082923D105E05C4D056022E05B4DE7
:1052300005601FE0544D6D6805F47012524D6D68A5
:1052400005F48034022505EB92421CB9544D5543B8
:1052500005600BE04C4D6D6805F400351DB1504DF7
:105260005543056002E04D4D5543056002E04B4D4E
:10527000056000BF00BF444D6D6805F0F0010909ED
:10528000484D6B5C0568DD4045603F4D6D6805F439
:10529000E061090A434D6B5C4568DD4085603A4D2D
:1052A0006D6805F46051C90A3E4D6B5C4568DD4090
:1052B000C560354D6D6805F44041890B3A4D6B5C16
:1052C000C568B5FBF3F5056130BD29B12E4A5269B9
:1052D00002432D4B5A6104E02B4A526982432A4B08
:1052E0005A61704729B1284A92690243264B9A6154
:1052F00004E0254A92698243234B9A61704729B1A1
:10530000214AD2690243204BDA6104E01E4AD26985
:1053100082431D4BDA61704729B11B4AD2680243B0
:10532000194BDA6004E0184AD2688243164BDA60FF
:10533000704729B1144A12690243134B1A6104E001
:10534000114A12698243104B1A6170471249403961
:10535000086070470F49C86470470B49C8717047AF
:105360000948406A40F0807007494862704701462A
:105370000020054A92680A400AB1012000E000209E
:105380007047014988727047001002400000FFF822
:10539000FFFFF6FE000042428004424200127A0003
:1053A00000093D0092000020A200002010B5044634
:1053B000FB48844209D101218803FFF7ADFF00219A
:1053C0004FF48040FFF7A8FF32E0F648844209D14D
:1053D00001214804FFF7ADFF00214FF40030FFF733
:1053E000A8FF25E0F048844209D101218804FFF795
:1053F000A0FF00214FF48020FFF79BFF18E0EB484F
:10540000844209D10121C804FFF793FF00214FF422
:105410000020FFF78EFF0BE0E548844208D1012110
:105420000805FFF786FF00214FF48010FFF781FF8A
:1054300010BD2DE9F04786B005460E460024A24671
:1054400000BFA1460027B08900B100BF2F462C8ABB
:105450004CF6FF700440F08804432C82AC894EF671
:10546000F3100440B088318908437189084304432C
:10547000AC81AC8A4FF6FF400440B0890443AC8253
:1054800001A8FFF7C2FEC648874202D1DDF810A08E
:1054900001E0DDF80CA0A88900F4004040B10AEB5F
:1054A000CA0000EB0A1031684900B0FBF1F807E0D0
:1054B0000AEBCA0000EB0A1031688900B0FBF1F872
:1054C0006420B8FBF0F004012009642101FB10897D
:1054D000A88900F4004040B1322000EBC900B0FBC5
:1054E000F1F000F00700044308E0322000EB09105F
:1054F0006421B0FBF1F000F00F0004432C8106B0F2
:10550000BDE8F0874FF41651016000218180C18011
:1055100001810C21418100218181704710B5024633
:105520000020108A4FF2FF0318400B884C88234359
:105530008C882343CC8823431843108210BD00215C
:10554000018041808180C180704721B1828942F40D
:105550000052828104E082894DF6FF731A408281F5
:105560007047F0B50346002400260025002040F6D1
:105570006A17B94200D100BF1846C1F3421401F0C6
:105580001F06012707FA06F5012C01D10C3004E0B3
:10559000022C01D1103000E014301AB107682F43FB
:1055A000076002E00768AF430760F0BD1AB1838A65
:1055B0000B43838202E0838A8B4383827047028A93
:1055C0004FF6F0731A400282028A0A430282704741
:1055D00082894FF2FF731A40828182890A43828155
:1055E000704721B1828942F00202828104E08289FF
:1055F0004FF6FD731A4082817047028A4FF6DF73BF
:105600001A400282028A0A430282704721B1028A4A
:1056100042F48042028204E0028A4BF6FF731A4091
:1056200002827047C1F30802828070470146888871
:10563000C0F308007047818941F001018181704702
:10564000028BD2B20283028B42EA012202837047AC
:10565000028B02F47F420283028B0A43028370476B
:1056600021B1828A42F02002828204E0828A4FF6CF
:10567000DF731A408282704721B1828A42F01002A1
:10568000828204E0828A4FF6EF731A40828270476A
:1056900021B1828A42F00802828204E0828A4FF6B7
:1056A000F7731A408282704721B1828942F4004226
:1056B000828103E08289C2F30E028281704721B1A8
:1056C000828A42F40062828204E0828A4FF2FF738F
:1056D0001A4082827047828A4FF6FB731A40828298
:1056E000828A0A438282704721B1828A42F0020292
:1056F000828204E0828A4FF6FD731A4082827047EC
:1057000002460020B1F5007F00D100BF13880B4096
:105710000BB1012000E00020704701F40072B2F5E7
:10572000007F00D100BFCA430280704770B50246B7
:10573000002400230025002040F66A16B14200D163
:1057400000BFC1F3421501F01F03012606FA03F35F
:10575000012D02D19689334006E0022D02D1168A2E
:10576000334001E0968A33400C12012606FA04F415
:105770001688344013B10CB1012000E0002070BD48
:1057800010B50022002340F66A14A14200D100BFE8
:105790000A1201249440A3B2DC43048010BD00002F
:1057A000003801400044004000480040004C0040E8
:1057B0000050004031490143314A1160704770B5D3
:1057C000002100230F22C47804B32D4C246804F474
:1057D000E064C4F5E064210AC1F10403CA404478DE
:1057E00004FA03F18478144021430901254C06781A
:1057F000A155047804F01F050124AC4005786D1113
:10580000AD0005F1E025C5F8004109E0047804F099
:105810001F050124AC401C4D0678761145F8264042
:1058200070BD1A4A0A400243154B1B1F1A6070478D
:1058300039B1134A121D12680243114B1B1D1A6025
:1058400006E00F4A121D126882430D4B1B1D1A60A1
:105850007047042808D14FF0E021096941F00401A4
:105860004FF0E022116107E04FF0E021096921F0DB
:1058700004014FF0E0221161704700000000FA05BA
:105880000CED00E000E400E080E100E080FFFF1F9D
:1058900010B50446FE48844208D10121C014FFF728
:1058A0003BFD0021E014FFF737FDC4E0B4F1804F69
:1058B00008D101210846FFF73CFD00210120FFF738
:1058C00038FDB8E0F348844208D101210220FFF7F7
:1058D00030FD00210220FFF72CFDACE0EE488442B1
:1058E00008D101210420FFF724FD00210420FFF747
:1058F00020FDA0E0E948844208D101210820FFF7FB
:1059000018FD00210820FFF714FD94E0E4488442CC
:1059100008D101211020FFF70CFD00211020FFF716
:1059200008FD88E0DF48844208D101212020FFF7EC
:1059300000FD00212020FFF7FCFC7CE0DA488442D7
:1059400008D101214014FFF7E7FC00216014FFF7A4
:10595000E3FC70E0D548844209D10121C804FFF777
:10596000DBFC00214FF40020FFF7D6FC63E0D048B9
:10597000844209D101210805FFF7CEFC00214FF434
:105980008010FFF7C9FC56E0CA48844209D10121C2
:105990004805FFF7C1FC00214FF40010FFF7BCFCE5
:1059A00049E0C548844208D101214020FFF7C1FCED
:1059B00000214020FFF7BDFC3DE0C048844208D1F3
:1059C00001218020FFF7B5FC00218020FFF7B1FC0A
:1059D00031E0BB48844208D101218015FFF7A9FCC2
:1059E0000021A015FFF7A5FC25E0B648844209D1A7
:1059F00001210804FFF790FC00214FF48030FFF7ED
:105A00008BFC18E0B048844209D101214804FFF71B
:105A100083FC00214FF40030FFF77EFC0BE0AB4825
:105A2000844208D101218804FFF776FC00214FF45D
:105A30008020FFF771FC10BD00220288944B984231
:105A40000ED0994B98420BD0B0F1804F08D0914BBB
:105A5000984205D0904B984202D0904B984204D186
:105A60004FF68F731A404B881A438D4B984207D0DC
:105A70008C4B984204D04FF6FF431A40CB881A4310
:105A800002808B8883850B880385814B98420BD0DD
:105A9000854B984208D08B4B984205D08A4B984250
:105AA00002D08A4B984201D10B7A0386012383826C
:105AB000704770B5002400220023058C4FF6FE7657
:105AC00035400584028C8388048B4FF68F752C40FB
:105AD000B51E2C400D882C43751E2A400D892A4383
