:020000040800F2
:100000008807002095150008E9010008EB010008A9
:10001000EF010008F3010008F701000800000000EC
:10002000000000000000000000000000FB010008CC
:10003000FD01000800000000FF01000801020008A7
:10004000AF150008AF150008AF150008AF15000880
:10005000AF150008AF150008AF150008AF15000870
:10006000AF150008AF150008AF150008AF15000860
:10007000AF150008AF150008AF150008AF15000850
:10008000AF150008AF150008AF150008AF15000840
:10009000AF150008AF150008AF150008AF15000830
:1000A000AF150008AF150008AF150008AF15000820
:1000B000AF150008AF150008AF150008AF15000810
:1000C000AF150008AF150008AF150008AF15000800
:1000D000AF1500080B150008AF150008AF15000894
:1000E000AF150008AF150008AF15000800F002F8C2
:1000F00000F03AF80AA090E8000C82448344AAF188
:100100000107DA4501D100F02FF8AFF2090EBAE885
:100110000F0013F0010F18BFFB1A43F0010318473B
:10012000443A0000643A0000103A24BF78C878C10D
:10013000FAD8520724BF30C830C144BF04680C60ED
:10014000704700000023002400250026103A28BF35
:1001500078C1FBD8520728BF30C148BF0B60704739
:100160001FB51FBD10B510BD02F056FA1146FFF7BE
:10017000F7FF00F009F802F074FA03B4FFF7F2FF9A
:1001800003BC01F067F900004FF4A06001F0A6FF86
:1001900000F06CF900F026F901F0F2F84FF4E130CC
:1001A00001F067F900F04AFA03E040F29A2000F00B
:1001B00076F900F0BFFA0128F7D00120094908605C
:1001C00000F06AFB00F0F8FB01F066F800F0DCFEDE
:1001D00007E000F07DF900F0BEF900F0CCF900F086
:1001E000B4FFF6E7B0812142704700BFFEE700BFD1
:1001F000FEE700BFFEE700BFFEE7704770477047AD
:10020000704700000CB50020019000906C48006819
:1002100040F480306A49086000BF6948006800F413
:10022000003000900198401C0190009818B9019886
:10023000B0F5A06FF1D16248006800F4003010B151
:100240000120009001E0002000900098012843D197
:100250005C48006840F010005A4908600846006891
:1002600020F0030008600846006840F002000860C3
:10027000534840685249486008464068486008460C
:10028000406840F4806048600846406820F47C1074
:1002900048600846406840F4E81048600846006836
:1002A00040F08070086000BF4548006800F00070B2
:1002B0000028F9D04248406820F0030040494860D7
:1002C0000846406840F00200486000BF3C48406873
:1002D00000F00C000828F9D10CBD10B5FFF792FF13
:1002E00010BD10B53648006840F001003449086080
:1002F000084640683449084031494860084600686B
:10030000324908402E4908600846006820F48020E1
:1003100008600846406820F4FE0048604FF41F0063
:100320008860FFF7DAFF4FF000602949086010BDD0
:1003300010B5002100200022214B5B6803F00C0166
:1003400021B1042906D0082928D107E0214B224CED
:10035000236027E01F4B204C236023E0184B5B6891
:1003600003F47010164B5B6803F48032022303EB36
:10037000904022B9194B4343174C23600DE0104BBA
:100380005B6803F4003323B1144B4343124C2360E6
:1003900003E0104B4343104C236003E00D4B0E4C25
:1003A000236000BF00BF064B5B68C3F303130C4C14
:1003B000E15C094B1B68CB40074C236010BD00007B
:1003C00000100240002002400000FFF8FFFFF6FE90
:1003D00008ED00E000127A000000002000093D0056
:1003E0000400002008B50121042001F00FFC30209A
:1003F000ADF8000048208DF803006946184801F068
:1004000049F908BD10B5044614B10120154908701A
:1004100014480078B8B11448006818B11248001D9B
:10042000006880B9022000F0E8FF00200D49087044
:100430000D48006808B9012010BD0B48001D006878
:1004400060B90220F8E708480068012806D106488C
:10045000001D0068012801D1024908700020EBE767
:1004600000080140140000201001214208B50121BC
:10047000082001F0CBFB4FF48050ADF800001020B5
:100480008DF8030003208DF8020069460C4801F046
:1004900001F94FF480510A4801F0A9F908BD094952
:1004A0000968491C074A1160814208D10649096858
:1004B000C943064AC2F8B0110021024A11607047D0
:1004C000000C014018000020B08121420080214230
:1004D0002DE9F041002419E0204600F01FFF0546F9
:1004E00002F0B0FC4B4941F8240051F8240002F01E
:1004F0005DFC07460022484B02F094F9054602F0E5
:10050000B7F8444941F82400601CC4B2042CE3DB72
:100510004049486802F076FCC0B2404908803D4935
:10052000086802F06FFC3E4908703A49C86802F05A
:1005300069FC3C4908703749886802F037FC074677
:10054000394A3A4B02F0C6F8054602F0C3FA384978
:100550000870BDE8F08110B50020FFF753FF044696
:10056000012C02D13349087004E0022C02D1002092
:100570003049087010BD10B52A480078052803DD01
:1005800001202D4908700AE026480078052803DA82
:1005900002202949087002E00020274908702448F9
:1005A0000078052803DA0120234948700AE0204832
:1005B0000078052803DD02201F49487002E0002072
:1005C0001D49487015480088052803DD01201A4997
:1005D00088700AE011480088052803DA02201649CD
:1005E000887002E00020144988701248007818B121
:1005F00006201149C87002E009200F49C8700E4852
:1006000000F0DEF810BD0146002901DA484200E0A2
:100610000846704750000020000079401C00002070
:10062000200000201E0000209A9999999999D93F9D
:100630001F000020210000202200002008B5012119
:100640000D2001F0E3FA0121A94801F0F4F84FF47C
:100650000040ADF8000010208DF8030003208DF855
:1006600002006946A34801F015F88020ADF80000AB
:1006700010208DF8030003208DF8020069469E4883
:1006800001F008F81020ADF8000048208DF80300B4
:1006900003208DF802006946974800F0FBFF902187
:1006A000954801F0A4F84FF40041924801F09FF8FA
:1006B00000F034F900209149086001209049C1F808
:1006C000BC0108BD2DE9F04107460D461646002045
:1006D0008C490860384600F045F98046002405E062
:1006E000FF2000F03FF92855601CC4B2B442F7DB8C
:1006F0000120844908604046BDE8F0812DE9F041C1
:1007000007460C46154600207E490860384600F032
:1007100029F98046002605E014F8010B00F022F9C3
:10072000701CC6B2AE42F7DB012076490860404635
:10073000BDE8F0811CB574A103C9CDE90001052213
:1007400069463020FFF7DAFF052269461020FFF7DF
:10075000B9FF002406E01DF80400A52800D003E03E
:10076000601CC4B2052CF6DB00BF052C01D00120B3
:100770001CBD0020FCE770B505460C460020614911
:100780000860284600F0EEF80646204600F0EAF839
:1007900001205B49C1F8BC01304670BD70B504460C
:1007A000002058490860204600F0DCF8FF2000F0E7
:1007B000D9F8054601205249C1F8BC01284670BD50
:1007C00070B5054600204D49086005222946A02045
:1007D000FFF794FF01204E49C1F89C0100BF474834
:1007E0008C3800680028FAD10720FFF7D7FF0446AD
:1007F00021462720FFF7BFFF04F0100028B1FF219A
:10080000E120FFF7B8FF102070BD04F0200008B110
:100810002020F9E7FF20F7E770B504460720FFF72F
:10082000BDFF054629462720FFF7A5FF05F040003C
:1008300050B1052221466120FFF744FFFF21E2204D
:10084000FFF799FF002070BD0120FCE710B50020E4
:100850002A49086005222F492A20FFF74FFF01216E
:100860002120FFF788FF01212220FFF784FF2821A4
:100870002520FFF780FF05213120FFF77CFF0F21A6
:100880002620FFF778FF0F212020FFF774FF0120BB
:100890001F49C1F89C0110BD10B500201749086020
:1008A00005221D493020FFF729FF052219492A207A
:1008B000FFF724FF01212120FFF75DFF0121222006
:1008C000FFF759FF1A212420FFF755FF2821252083
:1008D000FFF751FF0F212620FFF74DFF0E212020AB
:1008E000FFF749FF01200A49C1F89C0110BD000033
:1008F0000002300000080140000C01409C812142B0
:1009000000002142BC012142A5A5A5A5A50000002B
:1009100000802142052F0008002F000808B50121A2
:10092000092001F073F901211F4800F084FF4820DD
:10093000ADF8000003208DF8020010208DF80300B0
:1009400069461A4800F0A6FE2020ADF800000320FA
:100950008DF8020048208DF803006946134800F026
:1009600099FE08BD00211BE000F080021AB10122AF
:100970000F4B1A6002E000220D4B1A6001220C4B53
:100980000C331A604206100E0A4AD2F814210AB13A
:1009900040F001000022064B0C331A604A1CD1B211
:1009A0000829E1DB7047000000023000000C014024
:1009B0008C8121420080214208B50121082001F0EC
:1009C00025F94FF44050ADF8000010208DF80300D9
:1009D00003208DF802006946FC4800F05BFE4FF4EE
:1009E0004051FA4800F003FF08BD10B5022000F0A6
:1009F000E0FC10BD10B5F548001D006820F4702023
:100A0000F249091D08600846006840F4403008605B
:100A10000120EF490860EF49C1F8B401FFF7E5FF95
:100A20000020EB490860FFF7E0FF0020E949C1F82A
:100A3000B40110BD10B5E548001D006820F4702019
:100A4000E249091D08600846006840F4403008602B
:100A50000020DF49091D0860DE49C1F8B001FFF739
:100A6000C4FF0120DA49091D0860DA49C1F8B00164
:100A7000FFF7BBFF10BD10B50024D448001D00686F
:100A800020F47020D149091D08600846006840F430
:100A9000002008600120CE490860FFF7A6FF012072
:100AA000CC49C1F8B401FFF7A0FF07E0601CC4B255
:100AB000FA2C03DDFFF7BEFF012010BDC4488038CB
:100AC00000680028F2D1C249091D086000BFF4E7A0
:100AD00010B50020BE49091D0860BC48001D006813
:100AE00020F47020B949091D08600846006840F4E8
:100AF000403008600020B749C1F8B001FFF775FF2A
:100B00000120B349091D0860FFF76FFF0020B149BC
:100B1000C1F8B40110BD10B50020AD49091D086031
:100B2000AA48001D006820F47020A849091D08602B
:100B30000846006840F4403008600120A549C1F82B
:100B4000B001FFF752FF0120A149091D0860FFF71E
:100B50004CFF00209F49C1F8B40110BD70B5044698
:100B60009A48001D006820F470209849091D08600B
:100B70000846006840F44030086000209449091D90
:100B80000860002512E0E009914908606006040E43
:100B900001209049C1F8B401FFF727FF00208C49DC
:100BA000091D0860FFF721FF681CC5B2082DEADBAC
:100BB00070BD70B505460C46FFF71CFF7820FFF7A7
:100BC000CDFFFFF758FF18B1FFF734FF012070BDCC
:100BD0002846FFF7C3FFFFF74EFF2046FFF7BEFF93
:100BE000FFF749FF18B1FFF725FF0120EFE7FFF7F7
:100BF00021FF0020EBE710B5044621460020FFF757
:100C0000D8FF10BD10B5044621464020FFF7D1FFA4
:100C100010BD10B5642000F0F0FBAE20FFF7EBFF35
:100C20002020FFF7E8FF1020FFF7E5FFB020FFF7D7
:100C3000E2FFC820FFF7DFFF0020FFF7DCFF1020F6
:100C4000FFF7D9FF4020FFF7D6FF8120FFF7D3FF42
:100C5000FF20FFF7D0FFA120FFF7CDFFA620FFF771
:100C6000CAFFA820FFF7C7FF3F20FFF7C4FFA4205B
:100C7000FFF7C1FFD320FFF7BEFF0020FFF7BBFF48
:100C8000D520FFF7B8FFF020FFF7B5FFD920FFF719
:100C9000B2FF2220FFF7AFFFDA20FFF7ACFF1220F0
:100CA000FFF7A9FFDB20FFF7A6FF2020FFF7A3FF38
:100CB0008D20FFF7A0FF1420FFF79DFFAF20FFF767
:100CC0009AFF10BD70B504460D4605F1B001C8B2DB
:100CD000FFF791FF102141EA1410FFF78CFF04F099
:100CE0000F0141F00100FFF786FF70BD70B50646A9
:100CF000002415E004F1B001C8B2FFF77CFF00202A
:100D0000FFF779FF1020FFF776FF002504E030465B
:100D1000FFF778FF681CC5B2802DF8DB601CC4B2F9
:100D2000082CE7DB70BD10B50020FFF7DFFF10BD1A
:100D300010B58D20FFF75FFF1420FFF75CFFAF2099
:100D4000FFF759FF10BD10B58D20FFF754FF10209D
:100D5000FFF751FFAE20FFF74EFF10BD2DE9F04722
:100D60000646894617469A464FF00008002400259B
:100D7000BAF1010F03D0BAF1020F67D12EE020E0E3
:100D8000785D203800F0FF087E2E04DD002609F192
:100D9000010000F0FF0949463046FFF793FF0024A9
:100DA00009E008EB48010C4A02EB4101085DFFF73E
:100DB00029FF601CC4B2062CF3DBB01DC6B2681C50
:100DC000C5B2785D0028DBD140E00000000C014096
:100DD000B0812142008021424A33000832E0785D30
:100DE000203800F0FF08782E04DD002609F101000C
:100DF00000F0FF0949463046FFF764FF002407E092
:100E000004EB08115E4A505CFFF7FCFE601CC4B2A4
:100E1000082CF5DB09F10100C1B23046FFF752FFA3
:100E2000002408E004EB08110831554A505CFFF734
:100E3000E9FE601CC4B2082CF4DB06F10800C6B25F
:100E4000681CC5B2785D0028C9D100BF00BFBDE8ED
:100E5000F08710B50246012000E050430B00A1F1DD
:100E60000104E1B2F9D110BD2DE9FE4306460F465B
:100E700090461D46DDF82890002411E0281B401EF6
:100E8000C1B20A20FFF7E5FFB8FBF0F00A21B0FB82
:100E9000F1F201FB120030300DF80400601CC4B206
:100EA000AC42EBDB00200DF80400F9B2F0B24B4687
:100EB0006A46FFF753FFBDE8FE832DE9F041804607
:100EC0000E46174600247D0131464046FFF7FAFEE4
:100ED00000BF06E02B49485DFFF794FE6D1C601CC7
:100EE000C4B2102CF6DB701CC1B24046FFF7EAFE1C
:100EF000002406E02349485DFFF784FE6D1C601C5A
:100F0000C4B2102CF6DBBDE8F0812DE9F05F064697
:100F10000F4690461C46DDF828A04FF0000BE11765
:100F200004EB5171C910A4EBC10131B92046E1179E
:100F300004EB5171C1F3C70506E02046E11704EB4D
:100F40005171C910491CCDB23D4614E029463046C6
:100F5000FFF7B8FEB1460AE059460BF1010B1AF84B
:100F60000100FFF74FFE09F1010000F0FF09C14544
:100F7000F2DB681CC5B2A542E8DBBDE8F09F0000CB
:100F8000723500080A2F000810B50024FFF7D0FEC4
:100F90000020FFF7ABFE00BF09E0182101EB0411B0
:100FA000C8B222460021FFF788FF601CC4B2052C9E
:100FB000F3DB10BD70B50026012414E001250EE01E
:100FC00006F11603DAB26306190E182303EB0513B4
:100FD000D8B2FFF772FF701CC6B2681CC5B2042DF0
:100FE000EEDB601CC4B2032CE8DBA14800780428C7
:100FF0001CDB00209E4908709E480078401C9D49DB
:10100000087008460078042801DB00200870994821
:101010000078401DC4B207E02107080E1F220621F8
:10102000FFF74BFF601CC4B2082CF5DB002408E07E
:10103000611DCAB22107080E0621FFF73EFF601CA2
:10104000C4B28C480078401DA042F1DC884800788A
:10105000401C8749087070BD2DE9F041074688465D
:10106000002601252FE0012429E0BE4218D1824844
:10107000008858B106F10D03DAB26B06190E182379
:1010800003EB0413D8B2FFF718FF14E06A06110E41
:10109000182202EB0412D0B21F22FFF70EFF0AE063
:1010A00006F10D03DAB26B06190E182303EB0413D5
:1010B000D8B2FFF702FF701CC6B2601CC4B2042C89
:1010C000D3DB681CC5B2042DCDDB4FEA48006B4969
:1010D000098888420ADC0020684908806648008840
:1010E00008B9012000E000206349088063480088B7
:1010F000401C62490880BDE8F081F8B505460E46FF
:101100001446052C0FDB05D120208DF800008DF84A
:10111000010010E02B208DF8000004F12B00C0B27C
:101120008DF8010007E02D208DF80000C4F1350096
:10113000C0B28DF8010000208DF8020002236A463B
:1011400031462846FFF70AFEF8BD38B54C4800780E
:101150004C490978884205D04A48007848490870C7
:10116000FFF712FF4748007800287ED046480278F3
:1011700003210020FFF7C1FF444802780521002029
:10118000FFF7BBFF4248027803217020FFF7B5FF4D
:101190004048027805217020FFF7AFFF3C480078F7
:1011A00005280DDD3B480078052801DD022426E0F6
:1011B00038480078052801DA002420E001241EE0E8
:1011C0003348007805280DDA32480078052801DD1B
:1011D000082414E02F480078052801DA06240EE0E0
:1011E00007240CE02B480078052801DD052406E0E3
:1011F00028480078052801DA032400E00424244963
:101200000978481FFFF7FFF9C0B28DF800002149A7
:101210000978481FFFF7F7F9C0B28DF801009DF873
:10122000000028B99DF80100C0F10600C5B213E026
:101230009DF8010028B99DF80000C0F10600C5B274
:101240000AE09DF800109DF80120881800EBD0718D
:101250004910C1F10601CDB2042C00D10325294665
:101260002046FFF7F9FE02E0FFE7FFF7A3FE38BDD7
:1012700028000020290000202A0000202C00002047
:101280002E000020210000201C0000202000002053
:101290001E0000201F00002000B587B001214FF480
:1012A000017000F0B3FC4FF4004000F013FC0F207D
:1012B000ADF8040000208DF8070001A92E4800F0C9
:1012C000E9F92E4800F078FF002002908DF80C001C
:1012D0008DF80D004FF4602004900020059001204F
:1012E0008DF8180002A9254800F08DFF0121234840
:1012F00000F0B5FF214800F0D4FF00BF1F4800F008
:10130000D5FF0028FAD11D4800F0DAFF00BF1B48C6
:1013100000F0DBFF0028FAD107B000BD10B504468D
:10132000072301222146154801F005F80121134841
:1013300000F0D5FF00BF0221104801F041F900285C
:10134000F9D00E4801F05EF810BD2DE9F0410746D6
:101350000C460025002608E03846FFF7DFFF05446D
:10136000052000F04AF8701CC6B2A642F4DBB5FBBB
:10137000F4F080B2BDE8F081000801400024014093
:1013800010B56FF0040000F0F8FE2E4800682E49FA
:10139000B0FBF1F02D4908700846007800EB4001E1
:1013A000C1EBC0104FF6FF7101EAC0002849088068
:1013B00010BD0146254A12784A434FF0E0235A6196
:1013C00000229A611A46126942F001021A6100BFB6
:1013D0004FF0E022106900F001021AB100F48032EF
:1013E000002AF5D04FF0E022126922F001024FF0FE
:1013F000E0231A6100229A6170470146144A12885C
:101400004A434FF0E0235A6100229A611A4612695A
:1014100042F001021A6100BF4FF0E022106900F0B3
:1014200001021AB100F48032002AF5D04FF0E02218
:10143000126922F001024FF0E0231A6100229A6142
:10144000704700000000002000127A0030000020E9
:1014500032000020014600BF704700BF494A128891
:1014600002F04002002AF9D0C2B2464B1B1D1A807E
:10147000704710B586B00446012144F2040000F024
:10148000C5FB4FF40070ADF8140003208DF8160072
:1014900018208DF8170005A93B4800F0FBF84FF421
:1014A0008060ADF8140004208DF8170005A93648B7
:1014B00000F0F0F825208DF8000003208DF80100E1
:1014C0008DF8020001208DF80300684600F00BFE45
:1014D00001940020ADF80800ADF80A00ADF80C004A
:1014E000ADF810000C20ADF80E0001A9254800F061
:1014F00034FC012240F22551224800F0C6FC0121B3
:10150000204800F0B6FC06B010BD10B540F22551E1
:101510001C4800F09FFD10B31A4800F01BFDC4B238
:101520001A48008800F40040C8B91848008800F440
:10153000804060B10A2C03D000201449088020E0CC
:101540001248008840F400401049088019E00D2C32
:1015500006D10E48008840F480400C49088010E015
:101560000A480088C0F30D0009490C540748008858
:10157000401C0649088008460088C72801DD002075
:10158000088010BD003801400008014038000020EC
:10159000600000200948804709480047FEE7FEE751
:1015A000FEE7FEE7FEE7FEE7FEE7FEE7FEE7FEE713
:1015B00004480549054A064B70470000E30200084D
:1015C000ED00000888010020880700208803002023
:1015D0008803002010B50446CC48844208D101217C
:1015E000042000F02DFB0021042000F029FB46E040
:1015F000C748844208D10121082000F021FB0021C6
:10160000082000F01DFB3AE0C248844208D10121C5
:10161000102000F015FB0021102000F011FB2EE03F
:10162000BD48844208D10121202000F009FB00219F
:10163000202000F005FB22E0B848844208D10121B7
:10164000402000F0FDFA0021402000F0F9FA16E0F9
:10165000B348844208D10121802000F0F1FA002132
:10166000802000F0EDFA0AE0AE48844207D1012163
:10167000801500F0E5FA0021A01500F0E1FA10BD98
:1016800010B50121084600F0DBFA0021012000F02E
:10169000D7FA10BD2DE9F0410246002500260020B2
:1016A00000230024002791F803C00CF00F0591F8E7
:1016B00003C00CF0100CBCF1000F03D091F802C075
:1016C0004CEA050591F800C0BCF1000F31D0146858
:1016D00000202BE04FF0010C0CFA00F3B1F800C031
:1016E0000CEA03069E4220D183004FF00F0C0CFA47
:1016F00003F7BC4305FA03FC4CEA040491F803C069
:10170000BCF1280F06D14FF0010C0CFA00FCC2F816
:1017100014C00AE091F803C0BCF1480F05D14FF0A6
:10172000010C0CFA00FCC2F810C0401C0828D1D3F0
:101730001460B1F800C0BCF1FF0F34DD5468002024
:101740002EE000F1080C4FF0010808FA0CF3B1F894
:1017500000C00CEA03069E4221D183004FF00F0C1B
:101760000CFA03F7BC4305FA03FC4CEA040491F8B5
:1017700003C0BCF1280F05D100F1080C08FA0CF8E1
:10178000C2F8148091F803C0BCF1480F07D100F1F2
:10179000080C4FF0010808FA0CF8C2F81080401C41
:1017A0000828CED35460BDE8F0814FF6FF71018068
:1017B000022181700421C1707047024600209368A5
:1017C0000B400BB1012000E0002070470146886803
:1017D00080B2704702460020D3680B400BB1012055
:1017E00000E0002070470146C86880B27047016180
:1017F0007047416170470AB1016100E04161704783
:10180000C16070474FF480320A4382618161826116
:1018100082698269704702460020434B18684FF680
:101820008073184040EA021008433F4B186070472D
:101830003E49C8617047F0B50A46002300240021E4
:10184000002500F00046B6F1004F02D1364EF16996
:1018500001E0354E7168C0F3034583B200F44016D1
:10186000B6F5401F08D121F070612F4E766826F042
:1018700070662D4F7E6012E000F48016B6F5801F72
:1018800006D1032606FA05F4A14341F0706106E093
:10189000460D360103FA06F6B14341F0706122B1FC
:1018A000460D360103FA06F6314300F00046B6F164
:1018B000004F02D11C4EF16101E01B4E7160F0BD82
:1018C00030B500228B071C0F0F2303FA04F2164BCE
:1018D00008338C1053F824309343134C08348D1084
:1018E00044F8253023468C1053F824308C07240FFD
:1018F00000FA04F423430C4C08348D1044F82530CE
:1019000030BD0A49DC310860704700000008014022
:10191000000C01400010014000140140001801407B
:10192000001C014000200140000001400000204256
:10193000DF48006840F00100DD4908600846406863
:10194000DC490840DA49486008460068DA4908403E
:10195000D74908600846006820F4802008600846DF
:10196000406820F4FE0048604FF41F008860704714
:10197000CF49096821F48031CD4A116011460968C8
:1019800021F480211160B0F5803F03D0B0F5802FA5
:101990000ED106E0C649096841F48031C44A11609D
:1019A00007E0C349096841F4A021C14A116000E081
:1019B00000BF00BF704710B5014600220023002081
:1019C0004A11012A02D1BA4C236806E0022A02D148
:1019D000B74C236A01E0B64C636A01F01F02012490
:1019E00094401C400CB1012000E0002010BD38B52F
:1019F000002000900024002500BF3120FFF7DBFF0E
:101A000005460098401C00900098B0F5A06F01D0EA
:101A1000002DF2D03120FFF7CEFF08B1012400E005
:101A20000024204638BD01460020A14A106820F05D
:101A3000F80040EAC10010607047A0490860704794
:101A4000024600209A4B586820F47C1042EA0103B9
:101A50001843974B5860704798490866704701468D
:101A60000020934A506820F00300084350607047FC
:101A70008F48406800F00C007047014600208C4AF7
:101A8000506820F0F0000843506070470146002085
:101A9000874A506820F4E060084350607047014670
:101AA0000020834A506820F4605040EAC100506032
:101AB000704729B17E4A527A02437D4B5A7204E044
:101AC0007B4A527A82437A4B5A7270477B49D831AB
:101AD0000860704701460020754A506820F4404075
:101AE0000843506070470021714A20321170704ADB
:101AF00082F82010012802D004280AD104E0012134
:101B00006B4A2032117005E00521694A20321170BC
:101B100000E000BF00BF7047694908607047644932
:101B2000096A0143624A1162704765494439086095
:101B3000704730B500210022002400235C4D6D6801
:101B400005F00C0121B1042905D0082923D105E0B5
:101B50005C4D056022E05B4D05601FE0544D6D68F3
:101B600005F47012524D6D6805F48034022505EBC2
:101B700092421CB9544D554305600BE04C4D6D68C5
:101B800005F400351DB1504D5543056002E04D4D43
:101B90005543056002E04B4D056000BF00BF444D5A
:101BA0006D6805F0F0010909484D6B5C0568DD4082
:101BB00045603F4D6D6805F4E061090A434D6B5C7B
:101BC0004568DD4085603A4D6D6805F46051C90A8D
:101BD0003E4D6B5C4568DD40C560354D6D6805F474
:101BE0004041890B3A4D6B5CC568B5FBF3F5056167
:101BF00030BD29B12E4A526902432D4B5A6104E08F
:101C00002B4A526982432A4B5A61704729B1284AAC
:101C100092690243264B9A6104E0254A9269824305
:101C2000234B9A61704729B1214AD2690243204B64
:101C3000DA6104E01E4AD26982431D4BDA617047C3
:101C400029B11B4AD2680243194BDA6004E0184AF2
:101C5000D2688243164BDA60704729B1144A126980
:101C60000243134B1A6104E0114A12698243104B7C
:101C70001A61704712494039086070470F49C864BB
:101C800070470B49C87170470948406A40F080703E
:101C900007494862704701460020054A92680A4099
:101CA0000AB1012000E000207047014988727047A6
:101CB000001002400000FFF8FFFFF6FE0000424265
:101CC0008004424200127A0000093D003A000020E0
:101CD0004A00002010B50446FB48844209D1012186
:101CE0008803FFF7ADFF00214FF48040FFF7A8FF06
:101CF00032E0F648844209D101214804FFF7ADFFE4
:101D000000214FF40030FFF7A8FF25E0F04884429F
:101D100009D101218804FFF7A0FF00214FF48020A2
:101D2000FFF79BFF18E0EB48844209D10121C8046A
:101D3000FFF793FF00214FF40020FFF78EFF0BE029
:101D4000E548844208D101210805FFF786FF0021FC
:101D50004FF48010FFF781FF10BD2DE9F04786B0EA
:101D600005460E460024A24600BFA1460027B089C2
:101D700000B100BF2F462C8A4CF6FF700440F0885B
:101D800004432C82AC894EF6F3100440B0883189AC
:101D90000843718908430443AC81AC8A4FF6FF4085
:101DA0000440B0890443AC8201A8FFF7C2FEC648D4
:101DB000874202D1DDF810A001E0DDF80CA0A8896F
:101DC00000F4004040B10AEBCA0000EB0A10316891
:101DD0004900B0FBF1F807E00AEBCA0000EB0A107B
:101DE00031688900B0FBF1F86420B8FBF0F0040121
:101DF0002009642101FB1089A88900F4004040B14A
:101E0000322000EBC900B0FBF1F000F00700044302
:101E100008E0322000EB09106421B0FBF1F000F083
:101E20000F0004432C8106B0BDE8F0874FF4165133
:101E3000016000218180C18001810C21418100214C
:101E40008181704710B502460020108A4FF2FF03CF
:101E500018400B884C8823438C882343CC88234329
:101E60001843108210BD0021018041808180C18013
:101E7000704721B1828942F40052828104E0828954
:101E80004DF6FF731A4082817047F0B50346002477
:101E900000260025002040F66A17B94200D100BF95
:101EA0001846C1F3421401F01F06012707FA06F590
:101EB000012C01D10C3004E0022C01D1103000E0E3
:101EC00014301AB107682F43076002E00768AF4378
:101ED0000760F0BD1AB1838A0B43838202E0838AD4
:101EE0008B4383827047028A4FF6F0731A40028256
:101EF000028A0A430282704782894FF2FF731A40B6
:101F0000828182890A438281704721B1828942F0AD
:101F10000202828104E082894FF6FD731A408281B9
:101F20007047028A4FF6DF731A400282028A0A4320
:101F30000282704721B1028A42F48042028204E0A8
:101F4000028A4BF6FF731A4002827047C1F30802FF
:101F50008280704701468888C0F3080070478189F5
:101F600041F0010181817047028BD2B20283028B62
:101F700042EA012202837047028B02F47F4202830D
:101F8000028B0A430283704721B1828A42F0200209
:101F9000828204E0828A4FF6DF731A4082827047A1
:101FA00021B1828A42F01002828204E0828A4FF6D6
:101FB000EF731A408282704721B1828A42F0080290
:101FC000828204E0828A4FF6F7731A408282704759
:101FD00021B1828942F40042828103E08289C2F306
:101FE0000E028281704721B1828A42F400628282AD
:101FF00004E0828A4FF2FF731A4082827047828A1D
:102000004FF6FB731A408282828A0A4382827047AB
:1020100021B1828A42F00202828204E0828A4FF673
:10202000FD731A408282704702460020B1F5007F9E
:1020300000D100BF13880B400BB1012000E000204D
:10204000704701F40072B2F5007F00D100BFCA43AF
:102050000280704770B5024600240023002500204E
:1020600040F66A16B14200D100BFC1F3421501F03B
:102070001F03012606FA03F3012D02D1968933408E
:1020800006E0022D02D1168A334001E0968A3340E1
:102090000C12012606FA04F41688344013B10CB170
:1020A000012000E0002070BD10B50022002340F6A2
:1020B0006A14A14200D100BF0A1201249440A3B2C5
:1020C000DC43048010BD00000038014000440040A3
:1020D00000480040004C004000500040314901439E
:1020E000314A1160704770B5002100230F22C47877
:1020F00004B32D4C246804F4E064C4F5E064210AC0
:10210000C1F10403CA40447804FA03F1847814400E
:1021100021430901254C0678A155047804F01F05D8
:102120000124AC4005786D11AD0005F1E025C5F83E
:10213000004109E0047804F01F050124AC401C4D67
:102140000678761145F8264070BD1A4A0A400243C7
:10215000154B1B1F1A60704739B1134A121D1268C4
:102160000243114B1B1D1A6006E00F4A121D126834
:1021700082430D4B1B1D1A607047042808D14FF095
:10218000E021096941F004014FF0E022116107E00C
:102190004FF0E021096921F004014FF0E0221161C4
:1021A000704700000000FA050CED00E000E400E0DC
:1021B00080E100E080FFFF1F10B50446FA4884422A
:1021C00008D101214015FFF73BFD00216015FFF705
:1021D00037FD17E0F548844208D101210015FFF7CB
:1021E0002FFD00212015FFF72BFD0BE0F048844266
:1021F00008D10121C803FFF723FD00214FF400405F
:10220000FFF71EFD10BD30B50246002000235068C8
:10221000E84C20400D790C6844EA052420435060C6
:102220009068E54C2040D1E902542C434D7944EAB2
:10223000450420439060D06A20F470000C7C641E3A
:10224000E4B2234340EA0350D06230BD0021016074
:10225000017141718160C16001210174704721B138
:10226000826842F00102826003E0826822F001028B
:102270008260704721B1826842F48072826003E01C
:10228000826822F480728260704710B50023CBB25E
:102290001AB144681C43446002E044689C434460B3
:1022A00010BD816841F0080181607047014600203F
:1022B0008A6802F008020AB1012000E0002070479D
:1022C000816841F0040181607047014600208A68FE
:1022D00002F004020AB1012000E00020704721B1A1
:1022E000826842F4A002826003E0826822F4A002C5
:1022F00082607047014600208A6802F480020AB1B9
:10230000012000E00020704710B50A46002100239C
:10231000416821F46041531E41EA4331416010BDE0
:1023200021B1426842F40062426003E0426822F454
:10233000006242607047F0B504460D46002000215F
:10234000092D11DDE068A5F10A0606EB4607072610
:1023500006FA07F18843A5F10A0606EB460603FADA
:1023600006F10843E0600CE0206905EB450707260D
:1023700006FA07F1884305EB450603FA06F1084320
:102380002061072A0FDA606B561E06EB86071F26B0
:1023900006FA07F18843561E06EB860605FA06F193
:1023A0000843606322E00D2A0FDA206BD61F06EB8C
:1023B00086071F2606FA07F18843D61F06EB860616
:1023C00005FA06F10843206310E0E06AA2F10D0669
:1023D00006EB86071F2606FA07F18843A2F10D06D1
:1023E00006EB860605FA06F10843E062F0BD21B16E
:1023F000826842F48012826003E0826822F48012D4
:10240000826070470146C86C80B2704766484C30A5
:102410000068704721B1426842F48062426003E084
:10242000426822F480624260704721B1426842F4FF
:102430008052426003E0426822F48052426070475A
:102440000A460021816821F4E04111438160704710
:1024500021B1826842F40042826003E0826822F483
:1024600000428260704721B1826842F402128260A9
:1024700003E0826822F40212826070470146002065
:102480008A6802F400120AB1012000E000207047BF
:10249000F0B504461546002000220026092911DD6A
:1024A000E068A1F10A0707EB470C072707FA0CF2CF
:1024B0009043A1F10A0707EB470703FA07F210431D
:1024C000E0600CE0206901EB410C072707FA0CF2F1
:1024D000904301EB410703FA07F210432061A06B20
:1024E000C0F30156EF1C06F1010CA7EB0C0707EB3C
:1024F000870C1F2707FA0CF29043EF1C06F1010C22
:10250000A7EB0C0707EB870701FA07F21043A0635C
:10251000F0BD10B50A4600210023816B21F4401163
:10252000531E41EA0351816310BD08B50023009397
:102530000090009B0B440093009B1A6008BD08B5F7
:10254000024600200090009201F12800009B1844F0
:1025500000900098006880B208BD0A4600214168DA
:10256000164B1940114341607047416282627047C7
:102570000A460021416821F01F0111434160704764
:1025800040B109490831096841F40001064A08329E
:10259000116007E004490831096821F40001024A8A
:1025A00008321160704700000024014000280140FB
:1025B000003C0140FFFEF0FFFDF7F1FFFFFD3FFF94
:1025C0000246002013680B400BB1012000E0002000
:1025D0007047CA430260704770B50246002000236E
:1025E00000240B125568CEB205EA060415681D409A
:1025F00015B10CB1012000E0002070BD00220A12CC
:10260000D343036070477047704770477047704707
:1026100000487047280100207546FFF7F9FFAE46D5
:1026200005006946534620F00700854618B020B5DE
:10263000FEF7BEFFBDE820404FF000064FF0000758
:102640004FF000084FF0000B21F00701AC46ACE85A
:10265000C009ACE8C009ACE8C009ACE8C0098D46C7
:1026600070470446AFF300802046FDF786FD00006A
:1026700021F00042A2F16052B2F5801F01F0004348
:1026800028BFD2F17F6C0BD95FEA001C43EAC2027B
:1026900042EB507018BF704728BF20F00100704710
:1026A000B2F5801FBCBF184670474FEA410C1CF5BD
:1026B000001F02D2084600F01EBC70B500F037FAC9
:1026C00000000089FFF7F6BF4FF00040A0F5800042
:1026D0007047000010B591EA030F48BF83F0004334
:1026E00000F18282841A71EB030C05D2121943EBBC
:1026F0000C03001B61EB0C01DFF824E14FEA1154DD
:10270000A4EB135C1EEA430F18BF9EEA445F73D02C
:1027100023EA0E03DCF1200E21EA045143F4801376
:1027200032D322FA0CFE10EB0E0023FA0CFE41EB22
:102730000E01CCF1200E03FA0EFE10EB0E0051F14B
:102740000001B1F5801FCCF1200E32D201EB045113
:1027500012FA0EF2BDE8104058BF7047401C38BF57
:102760005FEA420218BF7047002814BF20F0010042
:1027700041F100014FEA410313F5001F38BF7047D4
:10278000A1F1C04100F021BA012A43EB0302ACF1F0
:10279000200CDCF11F0E32BF4FF0000E23FA0CF3B9
:1027A00010EB030041EB0451B4EB115FD0D0A1EB6F
:1027B000045101F5801149085FEA300001EB045132
:1027C0000ED350F1000038BF12FA0EFE08D1BDE85A
:1027D0001040C9E7401C38BF5FEA4202CAD1C3E7D4
:1027E000BDE810404FEA410313F5001F38BF7047A2
:1027F000A1F1C04100F0E9B99EEA445F08D011EAB6
:102800005E0FBDE8104004BF01F00041002070479A
:10281000BDE8104070B500F08AF900BF64FBBE3E11
:102820000000E0FF2DE9C04130B4DFF8A0C23CEA6F
:10283000111418BF3CEA131400F0EC8081EA030580
:102840001CEA111444EAD57418BF1CEA131500F0F1
:10285000C780A4EB05044FF0004545EAC12145EAD5
:10286000C32341EA505143EA525304F17F74994221
:1028700004F500344FEAC0204FEAC22208BF90425C
:1028800000F09C804FEA13650FF24016765D4FEA28
:10289000134506FB05F7C7F1807706FB07F74FEAFC
:1028A000D737A7FB03687642C8F58038A7FB06CE6A
:1028B00038BFA8F1010807FB08E64FF0000EA6FBA1
:1028C000028CE6FB03CEDCF1000CCEF1004E38BFEB
:1028D000AEF1010EA6FB0C584FF000074FF00005BB
:1028E000E6FB0E87A1FB08C6A0FB07CE16EB0E0683
:1028F00045F10005E1FB076515F1E04E7EBFA4F54B
:1029000080345FEA46066D4116F1800745F1000507
:102910004FEA17274FEA066647EA0567A6F1DE4643
:10292000B6F1805F4FEA15251FD9384624F0010C17
:1029300005EBC471BCF1FE6F01EB0C1102D8F0BCC9
:10294000BDE8008124425CBF01F5801E9EEAC47F81
:1029500002D4F0BCBDE80081244238D4F0BCA1F11F
:10296000C041BDE8004100F030B94FEAD22242EA4E
:1029700043524FEAD323A7FB02864FEAD02040EA16
:10298000415007FB03661EEA0E0F4FEAD12105FBFB
:10299000026658BFA6EB0056B6EB00564FEA520E41
:1029A0004EEAC37E18EB0E0E56EB530EBDD518EB58
:1029B00002085E417F1C55F10005B6E74FF4801513
:1029C0004FF000074FF000064FF00008ADE7F0BCF5
:1029D0004FF0000001F1C04101F00041BDE800816D
:1029E00011EA0C1F0CEA131500D00CE013EA0C1FBF
:1029F00000F025804FF00000F0BC81EA030101F0F7
:102A00000041BDE80081F0BCBDE8004181EA03015E
:102A100000F0DBB8F0BCBDE8004170B500F087F80D
:102A2000097EFC3E00F007B881EA03014FF0000088
:102A300001F00041704781EA030100F0C6B8F0BC24
:102A4000BDE800414FF0000021497047FFFDFBF950
:102A5000F7F5F4F2F0EEEDEBE9E8E6E4E3E1E0DED1
:102A6000DDDBDAD8D7D5D4D3D1D0CFCDCCCBCAC843
:102A7000C7C6C5C4C2C1C0BFBEBDBCBBBAB9B8B76A
:102A8000B6B5B4B3B2B1B0AFAEADACABAAA9A8A85D
:102A9000A7A6A5A4A3A3A2A1A09F9F9E9D9C9C9B2B
:102AA0009A999998979796959594939392919190D6
:102AB0008F8F8E8E8D8C8C8B8B8A89898888878767
:102AC0008685858484838382828181800000FF07DC
:102AD0000000F87F4FEA1153A3F58063D3F11E0382
:102AE000A8BFD3F1200C08DB4FF0004242EAC1221C
:102AF00052EA505232FA03F0704709420BD4102BBD
:102B0000C4BF0020704703F5787CBCF1FF3F05D0BF
:102B10004FF0FF3070474FF00000704770B500F085
:102B200006F800BF4992248000207047F0E70EF1BC
:102B3000020E2EF0030E5EF8046B364205D4012A15
:102B400043EB030515F5001F12D8012841EB010CDA
:102B50001CF5001F0CD80ED14FEAD17C15F5001FD3
:102B60000CEB4C0C0CF1020C08BF4CEBD37C04E0DA
:102B70004FF0080C01E04FEAD37C0CEB4C0526FA31
:102B800005F606F00706B6F1040C06D20EEB860C2D
:102B9000BDE870404CF0010C6047DFE80CF0090B19
:102BA00002024FF000414FF00000A1F5002170BD7E
:102BB00019461046012851EB010418BFD4F5001442
:102BC00084BF002001F0004170BD0808A0F500118D
:102BD0004FEA31017047000010B591EA030F48BF7A
:102BE00083F000433FF57EAD841A71EB030C07D2EE
:102BF00012198CF0004C43EB0C03001B61EB0C0131
:102C0000DFF8A4E14FEA1154A4EB135C1EEA430F72
:102C100018BF9EEA445F00F0B08023EA6E03524280
:102C200021EA0451C3EB6E0338BF5B1EDCF1200EBA
:102C300025D322FA0CFE10EB0E0043FA0CFE41EBFA
:102C40000E01CCF1200E03FA0EFE10EB0E0051F136
:102C50000001CCF1200E29D412FA0EF201EB04513E
:102C6000BDE8104058BF7047401C1CBFB2F1004F78
:102C7000704700280CBF491C20F00100704712EB80
:102C8000020E43EB030218BF4FF0010E4EEA420260
:102C9000ACF1200CDCF11E0E54D943FA0CFE10EB03
:102CA0000E0051F1FF31CCF11E0ED5D50EF1010E03
:102CB00012FA0EFE404141EB010101EB445C5FEA78
:102CC0005C5C10D910EBDE7001EB045138BFBEF133
:102CD000004FBDE8104018BF704700280CBF491CCA
:102CE00020F00100704730D24FEAD42C11F50011CA
:102CF00024F400641BD0B1FA81F20B3AA41AA41E8A
:102D0000D2F12003914030FA03F31943904001EBD4
:102D1000CC71002C01EB0451BDE81040A8BF7047F6
:102D200001F1C0414FF0000001F000417047B0FADE
:102D300080F310FA03F100D110BDE41A173C4805E6
:102D4000C90AE4E701EB045110BD491001EB04513D
:102D5000BDE810404FEA300002E04FF0000170473C
:102D60004A0008BF0042F8D0B2F5001F28BF7047E4
:102D700001F000414FF0000070479EEA445F07D029
:102D800011EA5E0FBDE8104004BF0021002070472B
:102D9000BDE8104070B5FFF7CAFE00BF40DFF63E49
:102DA00083F00041104670470000E0FF43004FEA07
:102DB000D30C4FEA3C0C43401FBF40070CF160515D
:102DC00013F0FE4F70471CF0006F03D100200CF091
:102DD000004170470CF0004343EA507010B540EAE0
:102DE000CC0000F042F800BF000000924FEA000162
:102DF000FFF7EBBE4FF000414FF00000A1F50021BE
:102E000070470000C10DD1F19E0206DB4FEA00239E
:102E100043F0004323FA02F07047004207D54FEA1F
:102E20004001B1F1FE4F02D24FF00000704710B5E3
:102E300000F01BF849922480002070476FEA2000C0
:102E400070470000B0FA80F310FA03F2C3F19D035B
:102E50000AD0D90501EB1220530638BF704700F1A4
:102E6000010008BF20F0010070470EF1020E2EF0A5
:102E7000030E5EF8044B244204D44FEA4102B2F13F
:102E80007F4F11D84FEA4003B3F17F4F0CD80ED1DA
:102E90004FEAD07CB2F17F4F0CEB4C0C0CF1020CE2
:102EA00008BF4CEBD17C04E04FF0080C01E04FEA86
:102EB000D17C0CEB4C0324FA03F404F00704B4F1C6
:102EC000040C06D20EEB840CBDE810404CF0010C53
:102ED0006047DFE80CF0070802024FF00040A0F561
:102EE000800010BD0846420018BFD2F1807288BF32
:102EF00000F0004010BDFF2141EAD050C0057047EE
:102F0000565665100156566510010000E02020A0BD
:102F10007010F010101018F000000000000F0A09E7
:102F20000808080505190F000000000020E0F8243B
:102F300000000000FC808080800000080B0A3B0538
:102F400005051F151F12301F0000008080C81800E3
:102F5000905088946258080000000010101F101252
:102F60002E2A2A6749474141400000004040FE4068
:102F7000006020A02CA090302000000404223F011B
:102F8000202225342C222011000000000098A89453
:102F9000ACE09CA454BC4400000000000034544A3F
:102FA0003910394A4A3E0C040000000000000000BD
:102FB00000000000000000000000003F1F0F0F078E
:102FC000070707070F0F1F3F000080808080808069
:102FD00080FFFF808080808080000101010101016D
:102FE00001010101010101010100808080808080D8
:102FF000808080808080808080000101010101014B
:1030000001FFFF010101010101004040404040403B
:10301000404040404040404040000101010101016A
:103020000101010101010101010080808080808097
:103030008080808080808080800000000000000010
:103040000000000000000000000000001818000050
:103050000000000018180000000000000000000040
:103060001818000000000000000000000000000030
:1030700018180000000000000000000018180000F0
:1030800000000000181800000000000000303800A8
:103090000000000000383000000000000018180098
:1030A0000000000000181800000000000418F830AC
:1030B0005090000000000000000000000000000030
:1030C0000000010204081020000000000000403051
:1030D0001CFF1C3040000000000000000000000049
:1030E00000FF0000000000000000000000000000E1
:1030F0000000905030F81804000000002010080470
:10310000020100000000000000008080C0C0E0A0BC
:103110009080808080808080800000000101030218
:1031200004000000000000000000E018040ACA09C2
:1031300009F989898A0A0418E000030C10282F482D
:10314000484F48482828100C0300808080808080E9
:10315000808090A0E0C0C0808000000000000000DF
:103160000000040203010100000000000000000054
:1031700000008040201008040000000020181F0CF0
:103180000A0900000000000000000000000000002C
:1031900000FF000000000000000000000000020C22
:1031A00038FF380C02000000000000000408102066
:1031B000408000000000000000000000000000004F
:1031C0000000090A0C1F1820000000000000000089
:1031D00000008040201008040200804020100804F5
:1031E00002010000000000000000000000000000DC
:1031F00000000000000000000000C0C0C0C0C0C04F
:10320000C0C0C0C0C0C0C0C0C00002040810204080
:10321000800000000000000000000000000000002E
:1032200000010204081020408000FFFF00000000A1
:1032300000000000000000000000FFFF0000000090
:1032400000000000000000000000000080E0B8A4C2
:10325000000090A07C6050C80000000102023F12F4
:1032600011004F201F112463000000000000000027
:1032700000000000000000FFFF0000000000000050
:1032800000000000000000FFFF00020408102040C2
:1032900080000000000000000000000000000000AE
:1032A000000102040810204080000303030303030D
:1032B00003030303030303030300000000000000F3
:1032C00000000000000000000000000000000000FE
:1032D00000008040201008040200804020100804F4
:1032E00002010000000000000000000000000000DB
:1032F00000000000000000000000000000000000CE
:10330000000000000000000000000000800818001D
:10331000808080FC404040C000000000203D020052
:103320001F10120F1208380F0000000000F0040CEC
:10333000000008080804FC0000000000003F000036
:103340000000000000207F000000000000000000DE
:103350000000002F000000000700070000147F1489
:103360007F1400242A7F2A12006264081323003687
:103370004955225000000503000000001C224100B6
:10338000000041221C000014083E08140008083EFA
:103390000808000000A060000008080808080000F5
:1033A00060600000002010080402003E5149453EC4
:1033B0000000427F400000426151494600214145E2
:1033C0004B31001814127F10002745454539003C49
:1033D0004A49493000017109050300364949493617
:1033E00000064949291E0000363600000000563606
:1033F00000000008142241000014141414140000EA
:103400004122140800020151090600324959513E77
:10341000007C1211127C007F49494936003E41412F
:103420004122007F4141221C007F49494941007FE0
:1034300009090901003E4149497A007F0808087FCF
:103440000000417F4100002040413F01007F0814FF
:103450002241007F40404040007F020C027F007FFD
:103460000408107F003E4141413E007F09090906E2
:10347000003E4151215E007F091929460046494915
:1034800049310001017F0101003F4040403F001FE2
:103490002040201F003F4038403F00631408146361
:1034A00000070870080700615149454300007F414B
:1034B000410000552A552A55000041417F00000473
:1034C00002010204004040404040000001020400AC
:1034D000002054545478007F484444380038444411
:1034E000442000384444487F00385454541800089D
:1034F0007E0901020018A4A4A47C007F08040478BB
:103500000000447D4000004080847D00007F102842
:1035100044000000417F4000007C04180478007CD7
:103520000804047800384444443800FC2424241857
:103530000018242418FC007C080404080048545493
:10354000542000043F444020003C4040207C001CAC
:103550002040201C003C4030403C004428102844BF
:10356000001CA0A0A07C004464544C441414141407
:103570001414000000000000000000000000000023
:103580000000000000F800000000000000333000E0
:10359000000000100C06100C0600000000000000E7
:1035A000000040C07840C0784000043F04043F045D
:1035B0000400007088FC08300000001820FF211E65
:1035C0000000F008F000E018000000211C031E219C
:1035D0001E0000F00888700000001E212324192717
:1035E000211010160E000000000000000000000076
:1035F0000000000000E0180402000000000718208E
:10360000400000020418E0000000004020180700FD
:103610000000404080F0804040000202010F0102A3
:103620000200000000F0000000000101011F010184
:103630000100000000000000000080B070000000E9
:103640000000000000000000000000010101010175
:103650000101000000000000000000303000000008
:1036600000000000000080601804006018060100DF
:10367000000000E010080810E000000F10202010EB
:103680000F00001010F8000000000020203F202054
:1036900000000070080808887000003028242221EB
:1036A00030000030088888483000001820202011A1
:1036B0000E000000C02010F8000000070424243F82
:1036C000240000F80888880808000019212020112B
:1036D0000E0000E0108888180000000F1120201153
:1036E0000E0000380808C83808000000003F00003D
:1036F00000000070880808887000001C2221212228
:103700001C0000E010080810E00000003122221127
:103710000F00000000C0C0000000000000303000BA
:103720000000000000800000000000008060000039
:103730000000000080402010080000010204081072
:103740002000404040404040400004040404040481
:10375000040000081020408000000020100804022F
:103760000100007048080808F00000000030360131
:103770000000C030C828E810E000071827242314F0
:103780000B000000C038E0000000203C23020227AC
:10379000382008F8888888700000203F20202011F9
:1037A0000E00C03008080808380007182020201034
:1037B000080008F808080810E000203F202020102A
:1037C0000F0008F88888E8081000203F20202320F8
:1037D000180008F88888E8081000203F200003003F
:1037E0000000C03008080838000007182020221EFA
:1037F000020008F808000008F808203F2101012114
:103800003F20000808F8080800000020203F202082
:10381000000000000808F8080800C08080807F00D1
:10382000000008F888C028180800203F200126382A
:10383000200008F8080000000000203F2020202081
:10384000300008F8F800F8F80800203F003F003F7B
:10385000200008F830C00008F808203F20000718B2
:103860003F00E01008080810E0000F102020201092
:103870000F0008F808080808F000203F21010101A6
:103880000000E01008080810E0000F182424385049
:103890004F0008F8888888887000203F2000030CBB
:1038A00030200070880808083800003820212122C4
:1038B0001C00180808F8080818000000203F200025
:1038C000000008F808000008F808001F2020202049
:1038D0001F000878880000C83808000007380E016B
:1038E0000000F80800F80008F800033C0700073C57
:1038F0000300081868808068180820302C03032C07
:1039000030200838C800C83808000000203F2000D8
:10391000000010080808C838080020382621202098
:103920001800000000FE020202000000007F40407C
:103930004000000C30C0000000000000000106380C
:10394000C00000020202FE000000004040407F0074
:103950000000000004020202040000000000000059
:103960000000000000000000000080808080808057
:10397000808000020204000000000000000000003F
:103980000000000080808080000000192422222294
:103990003F2008F8008080000000003F1120201127
:1039A0000E000000008080800000000E112020200A
:1039B0001100000000808088F800000E1120201007
:1039C0003F200000808080800000001F22222222F1
:1039D0001300008080F0888888180020203F202075
:1039E00000000000808080808000006B949494939D
:1039F000600008F8008080800000203F2100002047
:103A00003F2000809898000000000020203F2020E8
:103A10000000000000809898000000C08080807F37
:103A2000000008F8000080808000203F24022D3034
:103A30002000000808F8000000000020203F20209F
:103A400000008080808080808000203F20003F2018
:103A5000003F8080008080800000203F2100002007
:103A60003F200000808080800000001F2020202058
:103A70001F00808000808000000080FFA1202011B6
:103A80000E000000008080808000000E112020A029
:103A9000FF80808080008080800020203F212000E7
:103AA00001000000808080808000003324242424D2
:103AB0001900008080E0808000000000001F2020AE
:103AC00000008080000000808000001F2020201067
:103AD0003F20808080000080808000010E3008063A
:103AE000010080800080008080800F300C030C304B
:103AF0000F0000808000808080000020312E0E3179
:103B00002000808080000080808080818E70180678
:103B1000010000808080808080000021302C2221E4
:103B2000300000000000807C020200000000003F26
:103B3000404000000000FF00000000000000FF0007
:103B400000000002027C800000000040403F0000B6
:103B50000000000601010202040400000000000051
:103B600000000000843B000800000020500000001E
:103B700028010008D43B000850000020380700004E
:103B80004401000800A24A040000000000000000F8
:103B900001020304060708090100000000000000FC
:103BA0000000000000000000000001000000000014
:103BB0000000000000000000000000000000000005
:103BC00000000102030401020304060708090204BD
:043BD00006080000E3
:04000005080000ED02
:00000001FF
