:020000040800F2
:10000000E8C70220BD0200081B5A00085F2C000848
:10001000195A0008A1080008A57200080000000095
:100020000000000000000000000000004F6B00080E
:10003000230C0008000000006D5D0008756C0008CE
:10004000D7020008D7020008D7020008D70200082C
:10005000D7020008D7020008D7020008D70200081C
:10006000D7020008D7020008D7020008D70200080C
:10007000D7020008D7020008D7020008D7020008FC
:10008000D7020008D7020008D7020008D7020008EC
:10009000D7020008D7020008D7020008D7020008DC
:1000A000D7020008D7020008D7020008D7020008CC
:1000B000D7020008CD6C0008056D0008D7020008C3
:1000C000D7020008D7020008D7020008D7020008AC
:1000D000D702000839720008D7020008D7020008CA
:1000E000D7020008D7020008D7020008D70200088C
:1000F000D7020008D7020008D7020008D70200087C
:10010000D7020008D7020008D7020008D70200086B
:10011000D7020008D7020008D7020008D70200085B
:10012000D70200083D0B0008D7020008D7020008DC
:10013000D7020008D7020008D7020008D70200083B
:10014000D7020008D7020008D7020008D70200082B
:10015000D7020008D7020008D7020008D70200081B
:10016000D7020008D7020008D7020008D70200080B
:10017000D7020008D7020008B50A000800000000F6
:10018000D7020008D7020008D7020008D7020008EB
:10019000D7020008D7020008D7020008D7020008DB
:1001A000D7020008D7020008D702000800F002F8C2
:1001B00000F06DF80AA090E8000C82448344AAF194
:1001C0000107DA4501D100F062F8AFF2090EBAE892
:1001D0000F0013F0010F18BFFB1A43F0010318477B
:1001E000F8060100180701000A444FF0000C10F84F
:1001F000013B13F0070408BF10F8014B1D1108BFA5
:1002000010F8015B641E05D010F8016B641E01F844
:10021000016BF9D113F0080F1EBF10F8014BAD1C94
:100220000C1B09D16D1E58BF01F801CBFAD505E0B2
:1002300014F8016B01F8016B6D1EF9D59142D6D30C
:10024000704700000023002400250026103A28BF34
:1002500078C1FBD8520728BF30C148BF0B60704738
:10026000642900F0A980752900F0A680782900F0A3
:10027000DF80632900F0AA82732900F0AF8200209A
:1002800070471FB50BF00EFB1FBD10B510BD00F081
:10029000D7FA1146FFF7F5FF09F020FC00F0F5FA58
:1002A00003B4FFF7F2FF03BC07F0B3F930BF72B637
:1002B000704762B6704780F30888704709488047E6
:1002C00009480047FEE7FEE7FEE7FEE7FEE7FEE738
:1002D000FEE7FEE7FEE7FEE704480549054A064B50
:1002E00070470000796C0008AD010008E8C10220E9
:1002F000E8C70220E8C30220E8C3022070470000DC
:100300000FB4044910B503AA029800F06BFA10BCB0
:100310005DF814FB3800002070B50446856900685C
:10032000C10601D5302600E02026C00707D070BDE9
:10033000D4E9012130469047206A401C20626D1E9E
:10034000F6D570BD70B5044685690078C00707D141
:1003500070BDD4E9012120209047206A401C206212
:100360006D1EF6D570BD70B50C460546012A05D048
:100370002878800600D5EA69002302E0012305E021
:100380005B1C934202D2E05C0028F9D1A869E61810
:10039000C01AA861286A184428622846FFF7BCFFE3
:1003A00004E0D5E9012114F8010B9047B442F8D3D9
:1003B0002846FFF7C7FF70BD2DE9F041064600242F
:1003C00010687529314616A510D0AFF300800028BB
:1003D00002DA404213A507E031688A0701D512A569
:1003E00002E0490704D511A5012401E0AFF3008024
:1003F00000210A2206F1240709E0B0FBF2FCB0FB61
:10040000F2F302FB1C00303078541846491C0028D7
:10041000F3D123462A463046BDE8F04100F073B9D7
:10042000000000002D0000002B0000002000000054
:1004300070B504460D4621461068AFF30080218850
:10044000090502D50F4A7A4402E00E4A7A440E3278
:10045000002104F1240305E000F00F060009965D79
:100460005E54491C0028F7D120780023000704D5EA
:10047000702D02D009B1022311322046BDE8704030
:1004800000F041B9A00101002DE9F05F8946044662
:100490004FF0000ADFF874B1FB44C0F820A02046FA
:1004A000E1688847002874D0252806D0D4E90121C6
:1004B0009047206A401C2062F1E700265F462046F4
:1004C000E16888472028054607DB312D05D27819D9
:1004D00010F8200C08B10643F1E7B00701D526F06B
:1004E0000406C4F81CA00027C4F818A02A2D09D0BF
:1004F000284607F087F838B304EB8708303DC8F882
:10050000185019E059F8041B204604EB870291614A
:10051000E1688847012F054618D1E069002820DAF4
:1005200026F020061DE0D8F8180000EB800005EB4F
:1005300040003038C8F818002046E1688847054672
:1005400007F060F80028EED1012F0AD02E2D08D137
:100550002046E16888477F1C0546022F46F02006AA
:10056000C4DBA069002803DA404246F00106A0611E
:10057000F00701D026F010066C2D0BD0682D09D0A5
:100580004C2D39D06A2D35D0742D35D07A2D33D0FD
:1005900016E038E0E1682F4620468847B842054615
:1005A00009D16C2F26D04FF48060E16806432046C5
:1005B0008847054604E06C2F1AD04FF4807006433C
:1005C0000DB3A5F14100192802D8203546F4006684
:1005D0004A462946204626604E46FFF741FE80B136
:1005E00001280BD0F61D26F0070000F1080956E798
:1005F0004020E4E78020D8E70020D6E706F1040990
:100600004DE7284652E7206ABDE8F09F76010100D9
:10061000032A40F2308010F0030C00F0158011F82E
:10062000013BBCF1020F624498BF11F801CB00F806
:10063000013B38BF11F8013BA2F1040298BF00F85A
:1006400001CB38BF00F8013B11F0030300F0258017
:10065000083AC0F0088051F8043B083A51F804CB3E
:10066000A0E80810F5E7121D5CBF51F8043B40F804
:10067000043BAFF30080D20724BF11F8013B11F80F
:1006800001CB48BF11F8012B24BF00F8013B00F853
:1006900001CB48BF00F8012B704710B5203AC0F0DD
:1006A0000B80B1E81850203AA0E81850B1E8185073
:1006B000A0E81850BFF4F5AF5FEA027C24BFB1E8B0
:1006C0001850A0E8185044BF18C918C0BDE8104021
:1006D0005FEA827C24BF51F8043B40F8043B08BF2A
:1006E0007047D20728BF31F8023B48BF11F8012BF1
:1006F00028BF20F8023B48BF00F8012B7047704725
:100700007047704770472DE9F0470D46994692466D
:10071000044600F124080168880604D5E06921F048
:100720001001216000E00120A84201DD471B00E02C
:100730000027A1697A1902EB0900081AA061207844
:10074000C00602D42046FFF7E7FD002608E0D4E902
:1007500001211AF806009047206A401C761C20628E
:100760004E45F4DB2078C0060AD52046FFF7D4FDBD
:1007700006E0D4E9012130209047206A401C206225
:10078000381EA7F10107F4DC07E0D4E9012118F8CD
:1007900005009047206A401C2062281EA5F1010533
:1007A000F3DC2046FFF7CEFD2078000602D50220BC
:1007B000BDE8F0870120FBE710B5436913B1AFF343
:1007C000008001E0FFF7CFFD012010BD127800F19D
:1007D00024010A7000224A700122EDE711684FF0EF
:1007E000FF32E9E7074B70B50D467B4400F011F886
:1007F0000446284600F020F810B14FF0FF3070BDDD
:10080000204670BD8390000001694A1C026108788F
:10081000704700B58FB0CDE9013100210591054940
:100820007944CDE9031011466846FFF72DFE0FB05D
:1008300000BD0000E5FFFFFF007B00F08000704777
:10084000754600F029F8AE4605006946534620F08B
:100850000700854618B020B5FFF73EFDBDE82040F3
:100860004FF000064FF000074FF000084FF0000B6C
:1008700021F00701AC46ACE8C009ACE8C009ACE81F
:10088000C009ACE8C0098D4670470446AFF300804C
:100890002046FFF705FD00000048704784C1022094
:1008A000FEE702780B789A4212D94B789A420FD21F
:1008B00042788B789A420BD9CB789A4208D28078CA
:1008C0000A79904204D94979884201D201207047BF
:1008D000002070472DE9FF4F83B01E46039D14464C
:1008E0008B460027B5B16A465946284605F0B5FA49
:1008F00001A9684605F03BFA214601A8FFF7D1FFA0
:1009000000B97F1C2169A0680844B7EB501F01D8CB
:100910006D1EE8D1AA4600274FF4A078039D15E08C
:100920006A465946284605F098FA01A9684605F036
:100930001EFA214601A8FFF7B4FF00B97F1C216908
:10094000A0680844B7EB501F02D86D1C4545E7D39B
:10095000A94600275FEA0B0516D06A462946039888
:1009600005F07BFA01A9684605F001FA214601A8C5
:10097000FFF797FF00B97F1C6169E0680844B7EB97
:10098000501F01D86D1EE8D1A84600275D4615E02E
:100990006A462946039805F060FA01A9684605F001
:1009A000E6F9214601A8FFF77CFF00B97F1C6169C9
:1009B000E0680844B7EB501F02D86D1CF02DE7D358
:1009C0000AEB09004008306008EB05004008706041
:1009D000A9EB0A00A5EB0801C6E90201A268904252
:1009E0000CD9E268914209D92269904206D2606925
:1009F000814203D2012007B0BDE8F08F0020FAE762
:100A00002DE9F8438046274816460F4608990268A4
:100A1000002542F4800202600068234C00F480004C
:100A20000090A4F140008463A063204820604FF050
:100A30000070C4E901054013E560C4E90410001129
:100A4000C4E9063040022062042060620120C4E94B
:100A50000A052046256300F02BFB204600F054FBDE
:100A6000134984F83450A7B13B46424620460096CD
:100A700000F0C7FA2068016841F01001016000220F
:100A80001146392000F0E0FCBDE8F843392000F0C1
:100A9000D0BC01B033464246BDE8F043024800F006
:100AA0006FBB000030380240181800202864024054
:100AB00028000550014800F053B90000D817002065
:100AC00007480649016000212022C0E90112C160E7
:100AD00001614161816100F0B5B90000000005507D
:100AE000D817002010B50021084604F0C9FD04F015
:100AF000BDFE06480068016841F00101016004483C
:100B0000016841F00101016010BD000018180020CB
:100B1000000005500748016821F0010101600168EB
:100B2000C907FCD104480068016821F00101016097
:100B300070470000000005501818002030B4194814
:100B40001A4D1A4A0068184B184C603DB83A984242
:100B500002D91549543903E0A04203D91249583942
:100B6000096804E0A84201D9516800E0116811F455
:100B7000006F15D04FF40061984202D90A484C38F2
:100B800003E0A04203D908485038016004E0A842BD
:100B900001D9D16000E091600548406830BC004751
:100BA00030BC70471818002058640240B8600240FA
:100BB0005000002001681823CAB2103AB2FBF3F2C9
:100BC000054B6FF30901032A9B5C436500D9091D9E
:100BD0000165084670470000BEB8000810B50468FB
:100BE00063608368402B036803D099600068C2602B
:100BF00010BD9A600068C16010BD30B504682568FA
:100C000025F480252560046863608368402B0368B1
:100C100003D099600068C26030BD9A600068C1600E
:100C200030BD704770B5B3F5804F05D06FF070419F
:100C300040F82210002070BD50F82230084C2340AC
:100C4000D1E9004544EA05148D688E892D0245EAF4
:100C5000064589692C430C431C4340F82240E9E7D0
:100C60000000F0CFF0B50C6850F82450194A154038
:100C7000D1E90123D1E903671A433E4332434E6968
:100C800032438E693243CE6932430E6A32434E6A32
:100C900032438E6A3243CE6A3243CE6B32430E6B9E
:100CA00032434E6B32432A43082B01D142F04002BB
:100CB00040F824204A6BB2F5801F08D10A6832B18F
:100CC0004FF480720A6104490268114301600020F8
:100CD000F0BD00008000E0FF00011000F0B500EB67
:100CE000820253688E8903F04044D1E9003543EA1B
:100CF00005138D682D0245EA06452B430E8A0D4DDE
:100D000005EB065633430E7D6F0107EB0666334352
:100D10008E693343234353600268D20207D5426889
:100D2000098A22F4700205EB015111434160002051
:100D3000F0BD00000000F0FF7047000006480068AA
:100D4000C16841F00101C16004480178491C01708B
:100D500001214170FFF7DEBED817002050000020AF
:100D600070B50446006881684FF0040649074FF0EB
:100D7000000516D50169490713D5C16821F00401A2
:100D8000C16020684661E06B40F00200E06384F8D7
:100D9000256084F82450A06B00F061F92046FFF72D
:100DA000CBFF20688168890717D50169890714D5A9
:100DB000C16821F00201C160216802204861E06B36
:100DC00040F00100E06384F8256084F82450A06BB3
:100DD00000F045F92046FFF7AFFF20688168C9069B
:100DE00009D50169C90606D51021416184F824504E
:100DF000204600F07DF82068816809070ED501695A
:100E000009070BD5C16821F00801C16021680820DD
:100E1000486184F82450204600F0F2F82068816888
:100E2000C9070ED00169C9070BD0C16821F00101C3
:100E3000C16021680120486184F824502046FFF7F2
:100E40007DFF70BD10B5040003D094F8250010B1EB
:100E500004E0012010BD204600F05EF8022084F876
:100E600025002068016840F6F872914301606168CE
:100E700060690143D4E9030210430143A0680143C0
:100E8000A0690143206A01432068026811430160A0
:100E90006068102805D1E17FE06961F31F601349A4
:100EA00088612068C16841F01001C1602068C16894
:100EB00041F00801C1602068C16841F00101C160D2
:100EC0002068C16841F00401C1602068C16841F038
:100ED0000201C1602068016841F480410160002086
:100EE000E063012084F82500002010BD00000550BB
:100EF000084910B54888401C80B24880EF2801D9C5
:100F00000020488081B2002004F0BAFBBDE8104008
:100F100004F0ACBC50000020334800B5016887B035
:100F200041F001010160006800F0010005902E48C9
:100F3000001F016841F001010160016801F0010139
:100F40000591016841F002010160016801F00201B0
:100F50000591016841F004010160016801F004019C
:100F60000591016841F008010160016801F0080184
:100F70000591016841F0800101600068694600F058
:100F800080000590402000900220019001200290F6
:100F9000032003900D200490144800F019F94FF439
:100FA000607000906946124800F012F94FF43C60FE
:100FB000009069460F4800F00BF908200090694640
:100FC0000D4800F005F94FF48070009069460B4819
:100FD00000F0FEF8002211464E2000F035FA4E20B7
:100FE00000F027FA07B000BD34380240000002408C
:100FF0000004024000080240000C0240001C0240B5
:10100000704770B5044690F83400049D012808D05C
:10101000012084F8340020680668360303D41226C1
:1010200005E0022070BD0668360302D5222684F84A
:101030003560066826F0010606602068066846F4FA
:1010400080260660206803612B462046FFF7C6FD18
:101050002068016841F001010160002070BD2DE9A8
:10106000F04104460068016821F00101016000F0D0
:10107000A3F9054600264FF47A770FE000F09CF9BB
:10108000401BB8420AD954F84C0F40F0200044F8F5
:101090001809032026706070BDE8F08120680068A0
:1010A000C007EBD104F8346F012060700020F3E733
:1010B00070B5040025D094F83500022821D02068AE
:1010C000016821F0010101602068002505602068A9
:1010D0004560206885602068C560206805612168DA
:1010E000212048612046FFF765FD94F854203F21F8
:1010F00091408160E56484F8355084F834500020D4
:1011000070BD012070BD000070B504001AD002202F
:10111000636A84F8350021680A6818480240D4E9F7
:1011200001052843D4E9035635432843656928431C
:10113000A5692843E5692843256A28431043042B01
:1011400002D005E0012070BDD4E90B231A431043FF
:10115000086022685069616A20F00700084304298A
:1011600001D1A16A084350612046FFF723FD00200A
:10117000E064012084F83500002070BD3F8010F04D
:1011800070B5044690F83400012814D0012084F88A
:101190003400022084F835002068056825F0010538
:1011A00005602046FFF729FD2068016841F0010134
:1011B0000160002070BD022070BD31B500F0FCF868
:1011C000044600F0F9F80099001B8842F9D338BDB5
:1011D0002DE9F84FDFF8A091002209F1040A0AF185
:1011E000040B4FF00F080BF1040E01260B6896401C
:1011F0003340B34271D14C68022C01D0122C11D172
:10120000D40800EB84073D6A5407E40E08FA04FC96
:1012100025EA0C05D1F810C00CFA04FC4CEA050CC8
:10122000C7F820C007685400032591F804C0A54002
:101230000CF0030CAF430CFA04FC4CEA070CC0F8AA
:1012400000C04F68012F05D0022F03D0112F01D00D
:10125000122F11D18768D1F80CC0AF430CFA04FCEF
:101260004CEA070CC0F808C04768B7430E79C6F3CC
:10127000001696403E434660C668AE438D68A54062
:101280003543C5604C68E4006FD53C4C256845F497
:1012900080452560246822F0030504F4804400940E
:1012A000374C2E19D6F808789407250F08FA05F45C
:1012B000A743344CA04201D100242EE0324CA0427E
:1012C00001D1012429E0314CA04201D1022424E0C3
:1012D0002F4CA04202D103241FE046E02D4CA04237
:1012E00001D1042419E02C4CA04201D1052414E0C2
:1012F0002A4CA04201D106240FE0294CA04201D182
:1013000007240AE0274CA04201D1082405E0264C1E
:10131000A04201D1092400E00A24AC403C43C6F8B5
:101320000848D9F800404D464E689C43F60300D566
:101330001C432C60DAF8004055464E689C43B603C7
:1013400000D51C432C60DBF800405D464E689C4392
:10135000F60200D51C432C60DEF8004075464E684E
:101360009C43B60200D51C432C60521C102AFFF48B
:101370003CAFBDE8F88F0000003C0140443802401B
:10138000003001400000024000040240000802401A
:10139000000C0240001002400014024000180240FD
:1013A000001C024000200240002402400AB181617A
:1013B00070470904FBE7000001480068704700001F
:1013C0002C00002002480168491C016070470000A1
:1013D0002C0000200B4810B5016841F40071016039
:1013E000016841F480610160016841F4807101602D
:1013F000052000F049F80F2000F006F800F015F87D
:10140000002010BD003C024010B5044600F096F9E3
:101410004FF47A71B0FBF1F001F0ACF900222146F3
:10142000501E00F011F8002010BD08B500200090FB
:1014300008BD00F01F02012191404009800000F129
:10144000E020C0F800117047F0B40E4B1B68C3F3E6
:101450000223C3F10704042C00D904241D1D072D09
:1014600001D2002300E0DB1E012606FA04F56D1E02
:101470000D409D409E40761E164045EA0601F0BC98
:1014800004F0CCBA0CED00E0064A00F00701106849
:101490004FF6FF03184040EA01200349084310605B
:1014A000704700000CED00E00000FA052DE9F8435C
:1014B0001D48016841F0805101600068012700F07B
:1014C00080500090380490FAA0F0DFF86080B0FA05
:1014D00080F048F82070FFF76FFF04464FF47A75EC
:1014E000134E04E0FFF768FF001BA84213D8706892
:1014F000C003F7D54FF4003090FAA0F0B0FA80F0B6
:1015000048F82070FFF758FF044607E0FFF754FF44
:10151000001BA84202D90320BDE8F883706880034D
:10152000F4D50020F8E700004038024000000E42E9
:10153000007000402DE9F05FDFF8F8A104460F4687
:10154000DAF80000DFF8F08100F00F02C8B27A4943
:10155000814641F2883608F10808BA4261D2024653
:101560008AF80020DAF8000000F00F00B8427DD1C0
:101570002078800707D5D8F80020A36822F0F00271
:101580001A43C8F800202078C0072DD060680128D1
:101590001AD002281BD0032819D00968890700290E
:1015A00064DAD8F80010474621F003010143C8F877
:1015B0000010FFF701FF0546606801280FD00228E0
:1015C00018D003281CD027E009688903E7E70968D9
:1015D0008901E4E7FFF7F0FE401BB04258D83868B5
:1015E000C0F381000128F5D188E0FFF7E5FE401B3C
:1015F000B0424DD83868C0F381000228F5D17DE0B3
:101600003868FFF7D9FE401BB042F9D940E0FFF738
:10161000D3FE401BB0423BD8386810F00C0FF6D117
:101620006CE02078800707D5D8F80020A36822F066
:10163000F0021A43C8F800202078C0074CD0606838
:10164000012828D0022829D0032827D00968890733
:10165000002949DAD8F8002022F003020243C8F832
:101660000020FFF7A9FE0546606800E03CE0012885
:101670001DD0022829D0032838D0B346464630680A
:1016800010F00C0F28D0FFF797FE411B5945F6D9F3
:101690000320BDE8F09F09688903D9E7096889013B
:1016A000D6E7FFF789FE411B594502D9F0E7B3465B
:1016B00046463068C0F381000128F2D10CE0FFF704
:1016C0007BFE411B594502D9E2E7B34646463068E6
:1016D000C0F381000228F2D18AF80090DAF8000005
:1016E00000F00F00B84209D00120D2E7444620683C
:1016F000FFF762FE401BB042F9D9C9E720784007E6
:1017000007D5D8F80010E26821F4E0511143C8F879
:1017100000102078000708D5D8F80010226921F4BD
:10172000604141EAC201C8F800100F20FFF76CFECB
:101730000020AEE7003C02400038024010B500F047
:1017400043F808490968F02292FAA2F201F0F00188
:10175000B2FA82F2D140044A515CC84003490860A1
:1017600010BD000008380240AEB800081800002084
:1017700010B5FFF7E3FF074909684FF4E05292FA0A
:10178000A2F201F4E051B2FA82F2D140024A515C75
:10179000C84010BD08380240AEB8000810B5FFF7C9
:1017A000CDFF074909684FF4604292FAA2F201F4B2
:1017B0006041B2FA82F2D140024A515CC84010BD89
:1017C00008380240AEB8000830B51948006810F07B
:1017D0000C01184812D0184C04290ED008290DD13C
:1017E000134A121F1168136801F03F015D0247F6AA
:1017F000C07304D5B4FBF1F003E0204630BDB0FB6C
:10180000F1F01168194093FAA3F3B3FA83F3D940C6
:10181000484311684FF4403292FAA2F201F4403189
:10182000B2FA82F2D140491C4900B0FBF1F030BD60
:10183000083802400024F40040787D012DE9F84F7B
:1018400004460078DFF8FCA2BF4DC0074FF0000649
:1018500048D0DAF800105046C1F38101012908D0C0
:101860000068C0F3810002280AD1281D00684002E8
:1018700006D52868800335D56068002873D031E02C
:10188000DFF8C49209F1020989F80060FFF794FDBE
:10189000074641F2883804E0FFF78EFDC11B414541
:1018A0007AD828688003F7D4207989F80000606826
:1018B00060B1FFF781FD074604E0FFF77DFDC11B26
:1018C0004145EDD828688003F7D50BE0FFF774FD9C
:1018D000074604E0FFF770FDC11B4145E0D82868CA
:1018E0008003F7D42078DFF86492800744D5DAF8D3
:1018F0000010504611F00C0F4FF0F80809D00068A6
:10190000C0F3810002280BD18E48001F00684002FE
:1019100006D42868800714D5E068012823D110E098
:10192000E068D0B10120C9F80000FFF745FD074687
:1019300004E0FFF741FDC01B6428B1D82868800788
:10194000F7D5286898FAA8F22169B2FA82F220F055
:10195000F8009140084328600EE0C9F80060FFF7E6
:101960002BFD074605E0EAE0FFF726FDC01B6428D3
:1019700012D828688007F7D42078000725D5DFF82B
:10198000C4817348616908F16C0881B1012101606B
:10199000FFF712FD074605E07EE0FFF70DFDC01BD7
:1019A000642879D8D8F800008007F6D50DE00660E5
:1019B000FFF702FD074604E0FFF7FEFCC01B6428AA
:1019C0006AD8D8F800008007F6D42078400753D5AD
:1019D0005C483830016841F0805101600068DFF8F0
:1019E000748100F080500090D8F8001041F48071AC
:1019F000C8F80010FFF7E0FC074604E0FFF7DCFC46
:101A0000C01B642848D8D8F80000C005F6D5DFF818
:101A100034B10BF1680B8BF80060FFF7CDFC074683
:101A200041F2883804E0FFF7C7FCC11B41457ED86E
:101A3000DBF800008007F6D4207A8BF80000A0685D
:101A400068B1FFF7B9FC074604E0FFF7B5FCC11B1E
:101A500041456CD8DBF800008007F6D50CE0FFF7B5
:101A6000ABFC074604E0FFF7A7FCC11B41455ED86D
:101A7000DBF800008007F6D4A069E8B3DAF80010BC
:101A8000C1F3810102295AD0022806D0C9F860604A
:101A9000FFF792FC04464DE049E04F46C9F860600C
:101AA000FFF78AFC064604E0FFF786FC801B6428EB
:101AB0003DD828688001F7D4D4E90701084347F6E8
:101AC000C07191FAA1F1626AB1FA81F18A40A16A0A
:101AD0004FF0FF3303EB51014FF4403393FAA3F37C
:101AE000B3FA83F399400A4310434FF0706292FABD
:101AF000A2F2B2FA82F200E01FE0E16A91400843EC
:101B00001049091F086001203866FFF755FC04469C
:101B100004E0FFF751FC001B642808D82868800106
:101B2000F7D50AE0FFF748FC001B642802D9032020
:101B3000BDE8F88F28688001F4D40020F8E7012080
:101B4000F6E7000008380240003802400000474233
:101B5000800E4742007000402DE9F04790F82020A9
:101B600081F85620828CA1F85420826A0023120E3C
:101B700094090C70C2F383044C7002F003028A7063
:101B8000826A120CCA70028D120A0A7190F828201B
:101B90004A71C26A4FF6FF7A120E0AEA0212CA802E
:101BA000C26ACC88C2F3074244EA1214CC8002F025
:101BB0000F020A72828DC2F30722D4094C72C2F35B
:101BC00080148C72C2F34014CC72C2F300140C73F4
:101BD00000264E73046A4FF00109002C7DD0012CC1
:101BE000FCD0022C7AD02923C2F380144C769206C2
:101BF000520E01F81A2F10F8302F0C7844EAD21444
:101C000001F8014B02F07F0201F8012B50F8042F7C
:101C1000120ED4090C70C2F341144C70C2F382044A
:101C20008C709207120FCA7004C8CC78C2F30742B6
:101C300044EA9214CC70C2F340140C714E7102F05D
:101C400001028A7130F8042CC2F30722D409CC7146
:101C5000C2F380140C72C2F340144C72C2F300142D
:101C60008C72C2F38104CC7202F003020A7310F882
:101C7000042C52084A734C4681F80E9050F8082BF9
:101C8000120E0A7450F8082C120C0AEA02224A8238
:101C900030F8082C4D8AC2F3072215434D8210F804
:101CA000082C120641F8142F50F8042C0D68120E5F
:101CB00045EA02420A6050F8042C0D68C2F307425C
:101CC00045EA02220A6030F8042C0D68C2F30722AC
:101CD000154320C110F8042C01E034E076E001F84F
:101CE000012B0268120E01F8032B0268120C120677
:101CF0000A6002880D68C2F3072245EA02420A60C0
:101D000002780D6845EA02220A6042680D6845EAD9
:101D1000126520C142680D78C2F3074245EA1215E8
:101D200001F8025B1207120D0A8082880D88C2F347
:101D30000722154321F8025B0079400808704C70B7
:101D40001846BDE8F0879207120D0A6190F82C2022
:101D50000C6944EA82020A61026B0C69120E44EAC1
:101D600092140C61C2F3C2040C7502F007024A75AA
:101D7000026BC2F3074254098C75C2F38204CC751E
:101D80009207520F0A76028E0C7EC2F3072244EAB3
:101D9000D2140C760C690F7EBF1C09FA07F5641C7F
:101DA000A4FB05784FEAE57C06FB058504FB0C5592
:101DB00091F808C009FA0CF4A7FB04C80C6505FBF0
:101DC000048407FB0644C1E912C40DE790F82C20F7
:101DD0009206920A0A61026B0C69120E44EA022210
:101DE0000A61026B0C69C2F3074214430C61028E54
:101DF0000C69C2F30722641C46F10005ED0445EAB4
:101E00005435E404C1E912454FF400740C65EBE667
:101E100070B586B000250E4604468DF80C50057747
:101E200000F046F876200095CDE901502B462A4671
:101E30002946206804F06EF9204604F033FC8DF842
:101E40000C009DF80C0038B9204604F01FFB8DF8FB
:101E50000C009DF80C0018B19DF80C0006B070BD88
:101E600031462046FFF778FE8DF80C009DF80C00F7
:101E7000A0B9B6F85400694600040090072001900C
:101E80004020CDE9020500010490206804F05BF9D0
:101E90000721204604F06CF98DF80C0004F11000C5
:101EA00007C88DE8070094E80F0004F033F9D3E782
:101EB0001D4800B5016887B041F400610160006809
:101EC00000F40060059018481438016841F480015E
:101ED0000160016801F480010591016841F004018D
:101EE0000160016801F004010591016841F00801F9
:101EF00001600068694600F0080005904FF4F85052
:101F000000900220019001200290032003900C20F9
:101F100004900648FFF75CF90420009069460448E5
:101F2000FFF756F907B000BD4438024000080240F0
:101F3000000C02402DE9F04F8BB004460D46DDE960
:101F40001478216800201646C862216A022903D14C
:101F50000F02560A46EAC3561021CDE9007140210E
:101F6000834608010291CDE903B06946206804F078
:101F7000EAF81021204604F0FBF800286DD14FF05C
:101F8000FF3A08FB07F0CDE905A007A990204FF024
:101F9000020981E8010A01200A9005A9206804F0DD
:101FA00098F8B8F1010F01D9122000E01120CDE915
:101FB00000606946206804F0C6F8B8F1010F1AD92C
:101FC0001221204604F0D4F8070046D140F22A3B03
:101FD0002068416B11EA0B0F28D1406B0004F7D544
:101FE0000026206804F0ACF845F82600761C082E80
:101FF000F7D32035ECE71121204604F0B9F80700AB
:102000002BD140F22A6B2068416B11EA0B0F0DD1E6
:10201000406B0004F7D50026206804F091F845F8DD
:102020002600761C082EF7D32035ECE7406BC00560
:102030000CD5B8F1010F09D9206A18B1012801D0D7
:10204000022803D1204600F033F807462168486B88
:10205000000705D50820886304200BB0BDE8F08F89
:10206000486B800703D54846C1F83890F5E7486BC0
:10207000800603D5202088630620EEE7486B8005A4
:1020800004D54FF4007088630720E6E7564603E066
:1020900004F056F801C5761E2068416B890201D50F
:1020A000002EF5D1216840F2FF5088633846D4E70E
:1020B00010B586B0044600200C21CDE90001402176
:1020C000CDE90210080104906946206804F03BF84D
:1020D0000C21204604F04CF806B010BDFEB50446B5
:1020E000006A00250E46032805D030B1012804D02F
:1020F000022802D01FE02720FEBDB6F5805F05D084
:10210000B6F5006F04D03EB1262514E0272512E075
:10211000204604F002FC02E0204604F0C5FB050066
:1021200009D1211DD4E905070EC9CDE90060029748
:10213000206803F0EFFF2846FEBD2DE9F04F8DB07B
:10214000064600250C468DF82C50DDE916983168BE
:1021500017462846CD62316A4FF4007B022903D12D
:10216000570AD94647EAC3571021CDE900914021CB
:10217000824608010291CDE903A06946306803F068
:10218000E2FF1021304603F0F3FF00286ED1B8F1D2
:10219000010F01D9192000E01820CDE9007069462F
:1021A000306803F0D0FFB8F1010F01D9192100E028
:1021B0001821304603F0DCFF00287FD1411E09FBC7
:1021C00008F99020CDE906900591CDF820A00120D6
:1021D000CDE909A005A9306803F07BFFB8F1010F34
:1021E00024D84FE0406B400420D5A9EB05002028FF
:1021F00011D281074FEA900000D0401C8246002790
:1022000006E02146306803F0AEFF241D2D1D7F1C23
:1022100057450BD2F5E7002704EB8701306803F040
:10222000A2FF7F1C082FF7D3203420353068416B84
:1022300040F21A321142D5D02AE0406B400421D539
:10224000A9EB0500202812D281074FEA900000D0A8
:10225000401C8246002706E02146306803F083FFD9
:10226000241D2D1D7F1C57450CD2F5E726E00027C5
:1022700004EB8701306803F076FF7F1C082FF7D34B
:10228000203420353068416B40F21A621142D4D0BC
:10229000406BC0050BD5B8F1010F08D9306A18B1F1
:1022A000012801D0022802D13046FFF701FF316832
:1022B000486B000705D50820886304200DB0BDE8F1
:1022C000F08F486B800702D502208863F6E7486BE1
:1022D000C00603D5102088630520EFE7486B800512
:1022E00003D5C1F838B00720E8E740F2FF50886313
:1022F0000BA9304604F038F90028DFD19DF82C10E6
:102300000729F5D00629F3D0D8E770B5040004D02A
:1023100094F85100002510B106E0012070BD84F84A
:102320005050204600F034F8022084F85100206814
:10233000016821F040010160D4E901010843D4E9BA
:1023400003121143084361690843218B01F40071B2
:102350000843E1690843216A0843A16A08432168E8
:102360000860A069042101EA1040616A08432168FD
:1023700048602168E06A08612068C16921F4006151
:10238000C1616565012084F85100002070BD000026
:10239000124800B5016887B041F020010160006873
:1023A00000F0200005900D481430016841F48011C0
:1023B00001600068012100F4801005904FF4607006
:1023C00000900220CDE901010390052004906946A8
:1023D0000348FEF7FDFE07B000BD000030380240A4
:1023E000001402402DE9F843044690F85100DDF84E
:1023F0002080012801D022287ED169B162B15BB171
:1024000094F85000012877D0012784F8507094F890
:102410005100012803D005E00120BDE8F8833220F7
:1024200084F8510000266665A263A387E3872163D1
:10243000A386E386A664E664A06A4FF40055A8422A
:1024400009D12068016821F4005101602068016809
:1024500041F40051016020680168490603D4016815
:1024600041F040010160E0684FF48271B0F5006F07
:10247000606807D0002867D088426ED1E08E0128BE
:1024800062D06AE020B188420CD1E08E012809D1E7
:10249000206B21680088C860206B801C2063E08E60
:1024A000401EE086E08E80B9A06AA84244D1206830
:1024B000016841F4805101603EE02068C068A16B72
:1024C0000880A06B801CA0639EE04346002202218E
:1024D000204604F0EDFA002874D1206B21680088B2
:1024E000C860206B801C2063E08E401E0004000C3E
:1024F000E08609D1A06A00E0C7E0A84204D12068C4
:10250000016841F4805101604346002201212046C8
:1025100004F0CEFA00286FD12068C068A16B088053
:10252000A06B801CA063E08F401EE087E08E002837
:10253000CBD1606800286AD14346002201212046A1
:1025400004F0B6FAF0BBB8E7206B411C21632168A8
:102550000078C860E08E401EE086E08E98B9A06AE0
:10256000A84204D12068016841F4805101604346CB
:1025700000220121204604F09BFA18BB2068C068A5
:10258000A16B087040E0434600220221204604F07F
:102590008FFAB8B9206B411C216321680078C860AC
:1025A000E08E401E0004000CE08607D1A06AA8421D
:1025B00004D12068016841F4805101600022434643
:1025C000012100E018E0204604F072FAA0B920686A
:1025D000C168A06B421CA2630170E08F401EE087BF
:1025E000E08E0028CFD1606888B9434600220121DF
:1025F000204604F05DFA08B103200EE72068C168A8
:10260000A06B421CA2630170E08F401EE087A06AAD
:10261000A84210D1434600220121204604F048FA86
:1026200018B1606D40F002000FE02068C068ADF89E
:102630000000BDF80000434601228021204604F03E
:1026400037FA20B1606D40F020006065D4E784F86F
:10265000517020688168A26AC1F30011AA4210D1AA
:1026600079B1616D41F002016165016821F40051A9
:1026700001602068016841F40051016084F85060F5
:10268000CAE684F850600020C7E60220C5E670B5AF
:1026900015460E46040003D094F8490010B107E037
:1026A000012070BD002084F84800204600F01AF890
:1026B00004F108012068FEF7D5FA3146A2682068C7
:1026C000FEF70CFBD4E901022946236BFEF7AAFAB8
:1026D000A168206850F8212042F0010240F8212032
:1026E000002070BD1A4800B5016887B041F00101B3
:1026F0000160006800F00100059015480838016885
:1027000041F008010160016801F0080105910168CC
:1027100041F0100101600068694600F0100005906A
:102720004EF2B3700090022001900120029003202D
:1027300003900C2004900748FEF74AFD4FF6807086
:10274000009069460448FEF743FD07B000BD000055
:1027500038380240000C0240001002404FF0E021E7
:102760000428086903D020F004000861704740F095
:102770000400FAE710B5401EB0F1807F01D30120BC
:1027800010BD4FF0E02460610F21601703F046F99F
:102790000020A06107202061002010BD7047704715
:1027A00010B5040003D094F8390010B107E00120FF
:1027B00010BD002084F83800204600F00DF80220FB
:1027C00084F83900211D206804F0B6FA012084F84D
:1027D0003900002010BD0000094808B5016841F02B
:1027E000020101600068032200F002000090012154
:1027F0001D20FEF729FEBDE808401D20FEF719BE8A
:10280000403802400168CA6842F00102CA600068AC
:10281000016841F00101016000207047704770B508
:102820000446006801694FF00005C943890715D4C3
:10283000C168C943890711D4E91E016101202076CE
:10284000206880698007204602D0FFF7E7FF04E098
:1028500000F098F8204600F096F825762068016987
:10286000C943490717D4C168C943490713D46FF056
:1028700004010161022020762068806910F4407F05
:10288000204602D0FFF7CAFF04E000F07BF82046A4
:1028900000F079F8257620680169C943090716D444
:1028A000C168C943090712D46FF00801016104200F
:1028B00020762068C0698007204602D0FFF7AEFF6F
:1028C00004E000F05FF8204600F05DF8257620680F
:1028D0000169C943C90617D4C168C943C90613D4DD
:1028E0006FF010010161082020762068C06910F4A3
:1028F000407F204602D0FFF791FF04E000F042F84D
:10290000204600F040F8257620680169C943C907D0
:1029100008D1C168C943C90704D1891E0161204695
:1029200000F032F820680169C943090609D4C1687A
:10293000C943090605D46FF0800101612046FFF705
:102940002DFF20680169C943490609D4C168C943FC
:10295000490605D46FF040010161204600F02AF8D5
:1029600020680169C94389060BD4C168C943890637
:1029700007D46FF0200101612046BDE87040FFF7E9
:102980000EBF70BD7047704710B50549884206D12B
:10299000044C05A02178FDF7B3FC0020207010BD89
:1029A00070180020500000206672616D653A256441
:1029B0000D0A00007047704738B501680446086882
:1029C000CA68C0F3000002F4807238B132B10868FE
:1029D00048680090E06B40F00100E06308684A69D5
:1029E000C0F3400002F0010238B132B10868486813
:1029F0000090E06B40F00400E06308684A69C0F3AF
:102A0000800002F0010238B132B1086848680090D5
:102A1000E06B40F00200E06308684A69C0F3C00060
:102A200002F0010238B132B1086848680090E06BEA
:102A300040F00800E0630868C968C0F3401001F086
:102A4000200118B111B1204604F06CFA2068016829
:102A5000C068C1F3C01100F0800019B110B1204668
:102A600004F06EFB21680868CA68C0F3801002F0A9
:102A70004002012568B162B1CA68204622F04002D6
:102A8000CA6094F8391032290CD080F8395000F01F
:102A9000E5F8E06B002804D084F839502046FFF7B1
:102AA0008AFF38BD222180F83910F0E770B50400A4
:102AB00004D094F83900002510B106E0012070BD63
:102AC00084F83850204600F021F8022084F83900BC
:102AD0002068C16821F40051C160204604F076FAF4
:102AE0002068016921F4904101612068416921F069
:102AF0002A0141612068C16841F40051C160E56369
:102B0000012084F83900002070BD000030B51E4956
:102B1000044687B0086840F00100086008681A4958
:102B200000F0010014310590086840F010000860C2
:102B30000868164D00F0100005904815009002201E
:102B40000121CDE901010390072004906946284640
:102B5000FEF73EFB2815009069462846FEF738FB35
:102B60002168C86820F04000C8602068C16841F052
:102B70002001C1602520FEF75CFC032211462520C0
:102B8000FEF762FC07B030BD303802400000024062
:102B90002DE9F047044690F8390099460D46012882
:102BA00001D0122857D125B31AB394F83800012860
:102BB00051D0012684F838600027E76394F8390083
:102BC000122819D0222084F83900A285E2854FF41A
:102BD0008058E08D4B46401EE085A0684FF0000213
:102BE00040454FF02001204616D104F0DCFAB0B980
:102BF00004E00120BDE8F0873220E4E720690028E6
:102C00002068406803D0C1B225F8011B12E0C0F370
:102C1000080125F8021B0DE004F0C5FA08B10320F5
:102C2000E8E7206900282068406801D000F07F00B4
:102C300005F8010BE08D0028CBD194F8390032283B
:102C400005D084F8396084F838700020D2E712206B
:102C500084F83900F7E70220CCE770477047FEE7B9
:102C600070B5114886B00025016841F4807101609B
:102C70000068032400F4807005900120CDE902046F
:102C80008002CDE90005094E69463046FEF7A0FAFC
:102C9000F014CDE900050220CDE902046946304672
:102CA000FEF796FA06B070BD3038024000200240B0
:102CB00070B50E490E4A064608881268002422B1F3
:102CC0003046BDE8704002F00BBE4D880021454300
:102CD000084602F0D5FC02F0C9FDB1B2054801E09A
:102CE0000180641CAC42FBD370BD0000F0030020E7
:102CF000A8040020000008602DE9F05F394C3A4D2F
:102D0000A071296839B102F0FBFDE88A2080288B88
:102D10006080BDE8F09F33492C232A2589884FF035
:102D2000F00949F2413A2B2645F2105B4FF4305E30
:102D30004FF448774FF4A07845F2103C4FF4F0720E
:102D400058B1A4F80080A4F80290514501D0614523
:102D500029D123816581A68139E0A4F80090A4F8E7
:102D60000280514501D0614508D123816581A6814A
:102D7000614531D1A4F8008062802DE0594508D129
:102D8000A4F808E04FF4285060814FF42C50A08143
:102D900006E0A1F5C85063381ED123816681A58164
:102DA0002280678018E0594508D1A4F808E04FF464
:102DB000285060814FF42C50A08106E0A1F5C85046
:102DC000633804D123816581A681278062806145B3
:102DD00002D12280A4F80280BDE8F05F002002F05A
:102DE00073BB0000F0030020A80400202DE9FE4F73
:102DF0000026A2EB000882465F1A701E35468946FF
:102E0000B8F1000F02DD4FF0010102E003D14FF0F5
:102E10000001019102E0C8F100080190002F02DDDD
:102E20004FF0010002E003D14FF00000009002E0FB
:102E3000C7F1000700904046B84501DD044600E0B8
:102E40003C46601C4FF0000B029015E01FFA89F120
:102E50001FFA8AF000F016F846443D44A64202DD0F
:102E60000199361B8A44A54202DD00992D1B894435
:102E70000BF101001FFA80FB02998B45E6DDBDE8EE
:102E8000FE8F000010B5084A084C126822B1226873
:102E9000BDE8104002F048BD02F0F2FB02F0E6FC93
:102EA00003492088088010BDA80400203C000020B1
:102EB000000008602DE9F0411C4615460E46074605
:102EC0000B46FFF793FF3A46234631461046FFF77D
:102ED0008DFF23462A4619463846FFF787FF2A46C4
:102EE00023463146BDE8F0411046FFF77FBF0000A2
:102EF0002DE9F041044639480D46006820B12046CE
:102F0000BDE8F04102F010BD354E270A3146B088C9
:102F10004989A0F513434FEA1528413B0BD0A0F592
:102F2000A643103B07D0B3F5007311D0A0F5C853EA
:102F3000633B27D04BE0084602F08CFC384602F099
:102F40007DFCE0B202F07AFCB08902F083FC38E04C
:102F5000084602F07FFC384602F070FC7089401C85
:102F600080B202F077FCE0B202F068FCB08902F0B7
:102F700071FC404602F062FCB089401C80B202F055
:102F800069FC21E0B07918B93088001B401E84B27A
:102F9000084602F05FFC270A384602F04FFCE0B218
:102FA00002F04CFC384602F049FCE0B202F046FC6C
:102FB000B08902F04FFC404602F040FCE8B202F05B
:102FC0003DFC404602F03AFCE8B202F037FC05490D
:102FD00030890880881C0280BDE8F081A8040020A8
:102FE000F0030020FEFF07602DE9F8431F46144B55
:102FF000804608981B6833B100903B46404602F07B
:10300000B1FCBDE8F883A2EB0802521C96B20C4654
:1030100085B2DFF830900FE02146404602F030FBE9
:1030200002F024FC0020494602E00D80401C80B2E2
:10303000B042FAD3641CA4B2BC42EDD9E1E700006F
:10304000A8040020000008602DE9F04FFF4895B06B
:103050000024016841F00201016000684FF001099D
:1030600000F0020000902020CDE910090320CDE9F6
:10307000129010A9F648FEF7ABF8F6484FF020453D
:10308000F5490560C0E901141021C460C0E904419C
:1030900084610902C461C0E909418900C0E90B41AA
:1030A00089014463C0E90E4146210B910F20CDE90F
:1030B0000904CDE9020404900F9402AA09A9089416
:1030C000E448FFF7E4FA322004F060FCD32002F079
:1030D000C1FB02F083F9DF4A5032908002F07EF9A2
:1030E000908002F07BF94FF6FF7808EA002090808C
:1030F00002F074F9918849F2413A0843908045F210
:10310000103645F2105441F66317504547D0D4208D
:1031100002F0A0FB02F062F9908002F05FF990806B
:1031200002F05CF908EA0020908002F057F99188DB
:1031300008439080B04232D04FF45A4002F08AFBEC
:1031400002F04CF990804FF45B4002F083FB02F0F8
:1031500045F908EA002090804FF45C4002F07AFBC9
:1031600002F03CF9918808439080B0F5004F7DD083
:10317000A04214D0A12002F06DFB02F02FF9908044
:1031800002F02CF908EA0020908002F027F99188DB
:103190000843A0F5AE419080613900D197809046F8
:1031A0009188AEA0FDF7ACF8B8F8040050457DD189
:1031B000CF2002F04FFB002002F040FBC12002F0C4
:1031C0003DFB302002F03AFBED2002F043FB64208F
:1031D00002F034FB032002F031FB122002F02EFB40
:1031E000812002F02BFBE82002F034FB852002F066
:1031F00025FB102002F022FB7A2002F01FFBCB20DF
:1032000002F028FB392002F019FB2C2002F016FBFB
:10321000002002F013FB342002F010FB022002F029
:103220000DFBF72002F016FB202002F007FBEA203E
:1032300002F010FB002002F001FB002002F0FEFA79
:10324000C02002F007FB1B2002F0F8FAC12002F0B8
:1032500001FB012002F0F2FAC52002F0FBFA302057
:1032600002F0ECFA302002F0E9FA00E0B8E0C72002
:1032700002F0F0FAB72002F0E1FA362002F0EAFAA2
:10328000482002F0DBFA3A2002F0E4FA552002F07E
:10329000D5FAB12002F0DEFA002002F0CFFA1A20AF
:1032A00002F0CCFAB62002F0D5FA00E09AE00A204B
:1032B00002F0C4FAA22002F0C1FAF22002F0CAFA27
:1032C000002002F0BBFA262002F0C4FA012002F02E
:1032D000B5FAE02002F0BEFA0F2002F0AFFA2A2081
:1032E00002F0ACFA282002F0A9FA082002F0A6FAAF
:1032F0000E2002F0A3FA082002F0A0FA542002F0F7
:103300009DFAA92002F09AFA432002F097FA0A20C7
:1033100002F094FA0F2002F091FA002002F08EFAE7
:10332000002002F08BFA002002F088FA002002F060
:1033300085FAE12002F08EFA002002F07FFA1520D3
:1033400002F07CFA172002F079FA072002F076FAF0
:10335000112002F073FA062002F070FA2B2002F01E
:103360006DFA562002F06AFA3C2002F067FA052056
:1033700002F064FA102002F061FA0F2002F05EFA07
:103380003F2002F05BFA3F2002F058FA0F2002F0D3
:1033900055FA2B2002F05EFA002002F04FFA0020CE
:1033A00002F04CFA012002F049FA3F2002F046FAFE
:1033B0002A2002F04FFA002002F040FA002002F02A
:1033C0003DFA002002F03AFAEF2002F037FA11201D
:1033D00002F040FA782004F0D9FA292001F011BF58
:1033E0009480DCE6B0427DD1ED2002F033FA01207A
:1033F00002F024FAFE2002F021FAEE2002F02AFA6E
:10340000DE2002F01BFA212002F018FAF12002F06F
:1034100021FA012002F012FADF2002F01BFA10203C
:1034200002F00CFAC42002F015FA8F2002F006FA1E
:10343000C62002F00FFA002002F000FAE22002F0AB
:10344000FDF9E22002F0FAF9E2200FE03038024004
:1034500000040240A0030020040100A0204C4344CB
:103460002049443A25780D0A0000000002F0E6F9F0
:10347000BF2002F0EFF9AA2002F0E0F9B02002F03C
:10348000E9F90D2002F0DAF9002002F0D7F90D2059
:1034900002F0D4F9002002F0D1F9112002F0CEF9A7
:1034A000002002F0CBF9192002F0C8F9002002F048
:1034B000C5F9212002F0C2F9002002F0BFF92D2049
:1034C00002F0BCF9002002F0B9F93D2002F0B6F993
:1034D000002002F0B3F95D2002F0B0F9002002F004
:1034E000ADF900E0FDE35D2002F0A8F9002002F054
:1034F000A5F9B12002F0AEF9802002F09FF900207A
:1035000002F09CF98B2002F099F9002002F096F964
:10351000962002F093F9002002F090F9B22002F018
:1035200099F9002002F08AF9002002F087F90220C0
:1035300002F084F9002002F081F9032002F07EF904
:10354000002002F07BF9B32002F084F9002002F0A1
:1035500075F9002002F072F9002002F06FF90020E6
:1035600002F06CF9002002F069F9002002F066F91F
:10357000002002F063F9002002F060F9002002F060
:103580005DF9002002F05AF9002002F057F90020FE
:1035900002F054F9002002F051F9002002F04EF937
:1035A000002002F04BF9002002F048F9002002F060
:1035B00045F9002002F042F9002002F03FF9002016
:1035C00002F03CF9002002F039F9002002F036F94F
:1035D000002002F033F9002002F030F9B42002F0AC
:1035E00039F98B2002F02AF9002002F027F9962001
:1035F00002F024F9002002F021F9A12002F01EF9C6
:10360000002002F01BF9B52002F024F9022002F09C
:1036100015F9002002F012F9032002F00FF9002042
:1036200002F00CF9042002F009F9002002F006F97A
:10363000B62002F00FF9002002F000F9002002F09D
:10364000FDF8B72002F006F9002002F0F7F800209C
:1036500002F0F4F83F2002F0F1F8002002F0EEF85A
:103660005E2002F0EBF8002002F0E8F8642002F09F
:10367000E5F8002002F0E2F88C2002F0DFF80020EC
:1036800002F0DCF8AC2002F0D9F8002002F0D6F805
:10369000DC2002F0D3F8002002F0D0F8702002F015
:1036A000CDF8002002F0CAF8902002F0C7F8002000
:1036B00002F0C4F8EB2002F0C1F8002002F0BEF8DE
:1036C000DC2002F0BBF8002002F0B8F8B82002F0CD
:1036D000C1F8002002F0B2F8002002F0AFF800209C
:1036E00002F0ACF8002002F0A9F8002002F0A6F8E1
:1036F000002002F0A3F8002002F0A0F8002002F061
:103700009DF8BA2002F0A6F8242002F097F80020D5
:1037100002F094F8002002F091F8002002F08EF8F8
:10372000C12002F097F8202002F088F8002002F073
:1037300085F8542002F082F8002002F07FF8FF2084
:1037400002F07CF8002002F079F8C22002F082F842
:103750000A2002F073F8002002F070F8042002F052
:103760006DF8002002F06AF8C32002F073F83C20E4
:1037700002F064F8002002F061F83A2002F05EF8EE
:10378000002002F05BF8392002F058F8002002F027
:1037900055F8372002F052F8002002F04FF83C2094
:1037A00002F04CF8002002F049F8362002F046F80A
:1037B000002002F043F8322002F040F8002002F02E
:1037C0003DF82F2002F03AF8002002F037F82C20C4
:1037D00002F034F8002002F031F8292002F02EF82F
:1037E000002002F02BF8262002F028F8002002F03A
:1037F00025F8242002F022F8002002F01FF82420EF
:1038000002F01CF8002002F019F8232002F016F84C
:10381000002002F013F83C2002F010F8002002F023
:103820000DF8362002F00AF8002002F007F83220E6
:1038300002F004F8002002F001F82F2001F0FEFF52
:10384000002001F0FBFF2C2001F0F8FF002001F028
:10385000F5FF292001F0F2FF002001F0EFFF262004
:1038600001F0ECFF002001F0E9FF242001F0E6FF69
:10387000002001F0E3FF242001F0E0FF002001F030
:10388000DDFF232001F0DAFF002001F0D7FFC42084
:1038900001F0E0FF622001F0D1FF002001F0CEFF37
:1038A000052001F0CBFF002001F0C8FF842001F0CB
:1038B000C5FF002001F0C2FFF02001F0BFFF002093
:1038C00001F0BCFF182001F0B9FF002001F0B6FFA5
:1038D000A42001F0B3FF002001F0B0FF182001F098
:1038E000ADFF002001F0AAFF502001F0A7FF00204B
:1038F00001F0A4FF0C2001F0A1FF002001F09EFFC9
:10390000172001F09BFF002001F098FF952001F0A7
:1039100095FF002001F092FFF32001F08FFF0020BF
:1039200001F08CFFE62001F089FF002001F086FF06
:10393000C52001F08FFF322001F080FF002001F050
:103940007DFF442001F07AFF002001F077FF652021
:1039500001F074FF002001F071FF762001F06EFF8E
:10396000002001F06BFF882001F068FF002001F0CB
:1039700065FFC62001F06EFF202001F05FFF0020F0
:1039800001F05CFF172001F059FF002001F056FF05
:10399000012001F053FF002001F050FFC72001F08B
:1039A00059FF002001F04AFF002001F047FF0020EE
:1039B00001F044FF002001F041FFC82001F04AFF60
:1039C000002001F03BFF002001F038FF002001F053
:1039D00035FF002001F032FFC92001F03BFF00203D
:1039E00001F02CFF002001F029FF002001F026FF4C
:1039F000002001F023FF002001F020FF002001F053
:103A00001DFF002001F01AFF002001F017FF002029
:103A100001F014FF002001F011FF002001F00EFF63
:103A2000002001F00BFF002001F008FF002001F052
:103A300005FF002001F002FF002001F0FFFEE02062
:103A400001F008FF162001F0F9FE002001F0F6FE5B
:103A50001C2001F0F3FE002001F0F0FE212001F017
:103A6000EDFE002001F0EAFE362001F0E7FE002026
:103A700001F0E4FE462001F0E1FE002001F0DEFE50
:103A8000522001F0DBFE002001F0D8FE642001F09E
:103A9000D5FE002001F0D2FE7A2001F0CFFE0020FA
:103AA00001F0CCFE8B2001F0C9FE002001F0C6FE23
:103AB000992001F0C3FE002001F0C0FEA82001F013
:103AC000BDFE002001F0BAFEB92001F0B7FE0020D3
:103AD00001F0B4FEC42001F0B1FE002001F0AEFE02
:103AE000CA2001F0ABFE002001F0A8FED22001F0B8
:103AF000A5FE002001F0A2FED92001F09FFE0020CB
:103B000001F09CFEE02001F099FE002001F096FEFD
:103B1000F32001F093FE002001F090FEE12001F07F
:103B200099FE162001F08AFE002001F087FE1C207D
:103B300001F084FE002001F081FE222001F07EFED3
:103B4000002001F07BFE362001F078FE002001F01D
:103B500075FE452001F072FE002001F06FFE52203C
:103B600001F06CFE002001F069FE642001F066FEA9
:103B7000002001F063FE7A2001F060FE002001F0D9
:103B80005DFE8B2001F05AFE002001F057FE9920C7
:103B900001F054FE002001F051FEA82001F04EFE7D
:103BA000002001F04BFEB92001F048FE002001F09A
:103BB00045FEC42001F042FE002001F03FFECA2075
:103BC00001F03CFE002001F039FED22001F036FE6B
:103BD000002001F033FED82001F030FE002001F07B
:103BE0002DFEE02001F02AFE002001F027FEF32048
:103BF00001F024FE002001F021FEE22001F02AFE67
:103C0000052001F01BFE002001F018FE0B2001F042
:103C100015FE002001F012FE1B2001F00FFE002017
:103C200001F00CFE342001F009FE002001F006FE38
:103C3000442001F003FE002001F000FE4F2001F0BF
:103C4000FDFD002001F0FAFD612001F0F7FD0020EC
:103C500001F0F4FD792001F0F1FD002001F0EEFD0E
:103C6000882001F0EBFD002001F0E8FD972001F035
:103C7000E5FD002001F0E2FDA62001F0DFFD0020BF
:103C800001F0DCFDB72001F0D9FD002001F0D6FDE8
:103C9000C22001F0D3FD002001F0D0FDC72001F0CB
:103CA000CDFD002001F0CAFDD12001F0C7FD0020AC
:103CB00001F0C4FDD62001F0C1FD002001F0BEFDE1
:103CC000DD2001F0BBFD002001F0B8FDF32001F084
:103CD000B5FD002001F0B2FDE32001F0BBFD0520A1
:103CE00000E00CE301F0AAFD002001F0A7FD0A208E
:103CF00001F0A4FD002001F0A1FD1C2001F09EFDBB
:103D0000002001F09BFD332001F098FD002001F020
:103D100095FD442001F092FD002001F08FFD502020
:103D200001F08CFD002001F089FD622001F086FD8C
:103D3000002001F083FD782001F080FD002001F0DB
:103D40007DFD882001F07AFD002001F077FD9720AD
:103D500001F074FD002001F071FDA62001F06EFD60
:103D6000002001F06BFDB72001F068FD002001F09C
:103D700065FDC22001F062FD002001F05FFDC7205B
:103D800001F05CFD002001F059FDD12001F056FD4D
:103D9000002001F053FDD52001F050FD002001F07E
:103DA0004DFDDD2001F04AFD002001F047FDF3202C
:103DB00001F044FD002001F041FDE42001F04AFD46
:103DC000012001F03BFD002001F038FD012001F051
:103DD00035FD002001F032FD022001F02FFD002012
:103DE00001F02CFD2A2001F029FD002001F026FD24
:103DF0003C2001F023FD002001F020FD4B2001F0CC
:103E00001DFD002001F01AFD5D2001F017FD0020CE
:103E100001F014FD742001F011FD002001F00EFDF1
:103E2000842001F00BFD002001F008FD932001F03B
:103E300005FD002001F002FDA22001F0FFFC0020A2
:103E400001F0FCFCB32001F0F9FC002001F0F6FCCD
:103E5000BE2001F0F3FC002001F0F0FCC42001F0D2
:103E6000EDFC002001F0EAFCCD2001F0E7FC002091
:103E700001F0E4FCD32001F0E1FC002001F0DEFCC5
:103E8000DD2001F0DBFC002001F0D8FCF32001F084
:103E9000D5FC002001F0D2FCE52001F0DBFC002085
:103EA00001F0CCFC002001F0C9FC002001F0C6FCB0
:103EB000002001F0C3FC022001F0C0FC002001F052
:103EC000BDFC292001F0BAFC002001F0B7FC3C2029
:103ED00001F0B4FC002001F0B1FC4B2001F0AEFC7D
:103EE000002001F0ABFC5D2001F0A8FC002001F0F7
:103EF000A5FC742001F0A2FC002001F09FFC8420AE
:103F000001F09CFC002001F099FC932001F096FC4C
:103F1000002001F093FCA22001F090FC002001F0B1
:103F20008DFCB32001F08AFC002001F087FCBE204C
:103F300001F084FC002001F081FCC42001F07EFC33
:103F4000002001F07BFCCD2001F078FC002001F086
:103F500075FCD32001F072FC002001F06FFCDC2026
:103F600001F06CFC002001F069FCF32001F066FC1C
:103F7000002001F063FCE62001F06CFC112001F050
:103F80005DFC002001F05AFC342001F057FC0020B9
:103F900001F054FC562001F051FC002001F04EFCD1
:103FA000762001F04BFC002001F048FC772001F066
:103FB00045FC002001F042FC662001F03FFC00209F
:103FC00001F03CFC882001F039FC002001F036FCB7
:103FD000992001F033FC002001F030FCBB2001F0FF
:103FE0002DFC002001F02AFC992001F027FC002084
:103FF00001F024FC662001F021FC002001F01EFCF1
:10400000552001F01BFC002001F018FC552001F0A8
:1040100015FC002001F012FC452001F00FFC0020EF
:1040200001F00CFC432001F009FC002001F006FC2B
:10403000442001F003FC002001F000FCE72001F027
:1040400009FC322001F0FAFB002001F0F7FB5520BB
:1040500001F0F4FB002001F0F1FB762001F0EEFB13
:10406000002001F0EBFB662001F0E8FB002001F0EE
:10407000E5FB672001F0E2FB002001F0DFFB672099
:1040800001F0DCFB002001F0D9FB872001F0D6FB1A
:10409000002001F0D3FB992001F0D0FB002001F0BB
:1040A000CDFBBB2001F0CAFB002001F0C7FB99202B
:1040B00001F0C4FB002001F0C1FB772001F0BEFB42
:1040C000002001F0BBFB442001F0B8FB002001F010
:1040D000B5FB562001F0B2FB002001F0AFFB23201E
:1040E00001F0ACFB002001F0A9FB332001F0A6FB9E
:1040F000002001F0A3FB452001F0A0FB002001F00F
:104100009DFBE82001F0A6FB002001F097FB0020BA
:1041100001F094FB992001F091FB002001F08EFB4F
:10412000872001F08BFB002001F088FB882001F044
:1041300085FB002001F082FB772001F07FFB00204F
:1041400001F07CFB662001F079FB002001F076FB9A
:10415000882001F073FB002001F070FBAA2001F021
:104160006DFB002001F06AFBBB2001F067FB002023
:1041700001F064FB992001F061FB002001F05EFB7F
:10418000662001F05BFB002001F058FB552001F098
:1041900055FB002001F052FB552001F04FFB0020A1
:1041A00001F04CFB442001F049FB002001F046FBEC
:1041B000442001F043FB002001F040FB552001F0BA
:1041C0003DFB002001F03AFBE92001F043FBAA206F
:1041D00001F034FB002001F031FB002001F02EFB48
:1041E000002001F02BFB002001F034FBAA2001F09D
:1041F00025FBCF2001F02EFB002001F01FFB00204B
:1042000001F01CFB002001F019FB002001F016FB5F
:10421000002001F013FB002001F010FB002001F052
:104220000DFB002001F00AFB002001F007FB00203D
:1042300001F004FB002001F001FB002001F0FEFA78
:10424000002001F0FBFA002001F0F8FA002001F054
:10425000F5FA002001F0F2FA002001F0EFFAF02068
:1042600001F0F8FA002001F0E9FA502001F0E6FA36
:10427000002001F0E3FA002001F0E0FA002001F054
:10428000DDFAF32001F0E6FA002001F0D7FAF92078
:1042900001F0E0FA062001F0D1FA102001F0CEFA88
:1042A000292001F0CBFA002001F0C8FA3A2001F0F1
:1042B000D1FA552001F0C2FA112001F0CBFA6420A6
:1042C00003F064FB292001F0C5FA352001F0C2FAA1
:1042D000002001F0B3FA512001F0BCFAFF2001F0F8
:1042E000ADFA532001F0B6FA2C2001F0A7FA5520C0
:1042F00001F0B0FA822001F0A1FA2C20FEE3A042E6
:104300007DD14FF470435521184601F0B9FA4FF2B0
:10431000010BAA21584601F0B3FA52214FF20200D4
:1043200001F0AEFA08214FF2030001F0A9FA0121D1
:104330004FF2040001F0A4FA0D214FF4304001F0D7
:104340009FFA0D214BF2010001F09AFA0D214BF278
:10435000020001F095FA34214FF4364001F090FA52
:1043600034214BF2016001F08BFA34214BF20260F0
:1043700001F086FA0D214FF4314001F081FA0D2150
:104380004BF2011001F07CFA0D214BF2021001F00A
:1043900077FA34214FF4374001F072FA34214BF2AE
:1043A000017001F06DFA34214BF2027001F068FAED
:1043B00000214FF4324001F063FA00214BF201205A
:1043C00001F05EFA00214BF2022001F059FA24219B
:1043D0004FF4384001F054FA24214BF6010001F06B
:1043E0004FFA24214BF6020001F04AFA01214FF462
:1043F0003F4001F045FA0F214FF4334000E0FCE369
:1044000001F03EFA0F214BF2013001F039FA0F2191
:104410004BF2023001F034FA34214FF4394001F00C
:104420002FFA34214BF6011001F02AFA34214BF611
:10443000021001F025FA08214FF4354001F020FA6E
:1044400008214BF2015001F01BFA08214BF20250F7
:1044500001F016FA03214FF4424001F011FA242131
:104460004FF43A4001F00CFA24214BF6012001F000
:1044700007FA24214BF6022001F002FA00214FF442
:104480003C4001F0FDF978214BF6014001F0F8F9CC
:1044900000214BF6024001F0F3F900214FF43D40BA
:1044A00001F0EEF978214BF6015001F0E9F9002115
:1044B0004BF6025001F0E4F900214FF43E4001F0C8
:1044C000DFF964214BF6016001F0DAF900214FF4C5
:1044D000514001F0D5F933214DF2011001F0D0F92E
:1044E00000214DF2021001F0CBF934214DF20310FE
:1044F00001F0C6F900214DF2041001F0C1F93A2192
:104500004DF2051001F0BCF900214DF2061001F04A
:10451000B7F94A214DF2071001F0B2F900214DF22E
:10452000081001F0ADF95C214DF2091001F0A8F975
:1045300000214DF20A1001F0A3F981214DF20B1078
:1045400001F09EF900214DF20C1001F099F9A6211D
:104550004DF20D1001F094F900214DF20E1001F012
:104560008FF9E5214DF20F1001F08AF901214DF28A
:10457000101001F085F913214DF2111001F080F9AE
:1045800001214DF2121001F07BF954214DF213106C
:1045900001F076F901214DF2141001F071F9822138
:1045A0004DF2151001F06CF901214DF2161001F0D9
:1045B00067F9CA214DF2171001F062F902214DF29C
:1045C000181001F05DF900214DF2191001F058F9B1
:1045D00002214DF21A1001F053F901214DF21B1086
:1045E00001F04EF902214DF21C1001F049F934217D
:1045F0004DF21D1001F044F902214DF21E1001F0A0
:104600003FF967214DF21F1001F03AF902214DF2F6
:10461000201001F035F984214DF2211001F030F91C
:1046200002214DF2221001F02BF9A4214DF22310AA
:1046300001F026F902214DF2241001F021F9B721F1
:104640004DF2251001F01CF902214DF2261001F067
:1046500017F9CF214DF2271001F012F902214DF286
:10466000281001F00DF9DE214DF2291001F008F9B2
:1046700002214DF22A1001F003F9F2214DF22B1024
:1046800001F0FEF802214DF22C1001F0F9F8FE21A4
:104690004DF22D1001F0F4F803214DF22E1001F02F
:1046A000EFF810214DF22F1001F0EAF803214DF23E
:1046B000301001F0E5F833214DF2311001F0E0F84F
:1046C00003214DF2321001F0DBF86D214DF2331071
:1046D00001F0D6F800214FF4524001F0D1F8332117
:1046E0004DF2012001F0CCF800214DF2022001F042
:1046F000C7F834214DF2032001F0C2F800214DF239
:10470000042001F0BDF83A214DF2052001F0B8F87F
:1047100000214DF2062001F0B3F84A214DF20720A6
:1047200001F0AEF800214DF2082001F0A9F85C215B
:104730004DF2092001F0A4F800214DF20A2001F009
:104740009FF881214DF20B2001F09AF800214DF2E3
:104750000C2001F095F8A6214DF20D2001F090F803
:1047600000214DF20E2001F08BF8E5214DF20F20D3
:1047700001F086F801214DF2102001F081F813219B
:104780004DF2112001F07CF801214DF2122001F0D0
:1047900077F854214DF2132001F072F801214DF207
:1047A000142001F06DF882214DF2152001F068F817
:1047B00001214DF2162001F063F8CA214DF21720B5
:1047C00001F05EF802214DF2182001F059F80021A5
:1047D0004DF2192001F054F802214DF21A2001F097
:1047E0004FF801214DF21B2001F04AF802214DF251
:1047F0001C2001F045F834214DF21D2001F040F855
:1048000002214DF21E2001F03BF867214DF21F20DE
:1048100001F036F802214DF2202001F031F8842118
:104820004DF2212001F02CF802214DF2222001F05E
:1048300027F8A4214DF2232001F022F802214DF2A5
:10484000242001F01DF8B7214DF2252001F018F8C1
:1048500002214DF2262001F013F8CF214DF227203E
:1048600001F00EF802214DF2282001F009F8DE21B6
:104870004DF2292001F004F802214DF22A2000F027
:10488000FFFFF2214DF22B2000F0FAFF02214DF242
:104890002C2000F0F5FFFE214DF22D2000F0F0FF5E
:1048A00003214DF22E2000F0EBFF10214DF22F20BE
:1048B00000F0E6FF03214DF2302000F0E1FF33214C
:1048C0004DF2312000F0DCFF03214DF2322000F0E8
:1048D000D7FF6D214DF2332000F0D2FF00214FF4BD
:1048E000534000F0CDFF33214DF2013000F0C8FFFE
:1048F00000214DF2023000F0C3FF34214DF20330AD
:1049000000F0BEFF00214DF2043000F0B9FF3A2163
:104910004DF2053000F0B4FF00214DF2063000F0FA
:10492000AFFF4A214DF2073000F0AAFF00214DF2FF
:10493000083000F0A5FF5C214DF2093000F0A0FF27
:1049400000214DF20A3000F09BFF81214DF20B3027
:1049500000F096FF00214DF20C3000F091FFA621EF
:104960004DF20D3000F08CFF00214DF20E3000F0C2
:1049700087FFE5214DF20F3000F082FF01214DF25B
:10498000103000F07DFF13214DF2113000F078FF60
:1049900001214DF2123000F073FF54214DF213301B
:1049A00000F06EFF01214DF2143000F069FF82210A
:1049B0004DF2153000F064FF01214DF2163000F089
:1049C0005FFFCA214DF2173000F05AFF02214DF26D
:1049D000183000F055FF00214DF2193000F050FF63
:1049E00002214DF21A3000F04BFF01214DF21B3035
:1049F00000F046FF02214DF21C3000F041FF34214F
:104A00004DF21D3000F03CFF02214DF21E3000F04F
:104A100037FF67214DF21F3000F032FF02214DF2C7
:104A2000203000F02DFF84214DF2213000F028FFCE
:104A300002214DF2223000F023FFA4214DF2233059
:104A400000F01EFF02214DF2243000F019FFB721C3
:104A50004DF2253000F014FF02214DF2263000F017
:104A60000FFFCF214DF2273000F00AFF02214DF257
:104A7000283000F005FFDE214DF2293000F000FF64
:104A800002214DF22A3000F0FBFEF2214DF22B30D4
:104A900000F0F6FE02214DF22C3000F0F1FEFE2176
:104AA0004DF22D3000F0ECFE03214DF22E3000F0DF
:104AB000E7FE10214DF22F3000F0E2FE03214DF20F
:104AC000303000F0DDFE33214DF2313000F0D8FE01
:104AD00003214DF2323000F0D3FE6D214DF2333020
:104AE00000F0CEFE00214FF4544000F0C9FE332107
:104AF0004DF2014000F0C4FE002100E081E34DF2E0
:104B0000024000F0BDFE34214DF2034000F0B8FE3B
:104B100000214DF2044000F0B3FE3A214DF2054071
:104B200000F0AEFE00214DF2064000F0A9FE4A2141
:104B30004DF2074000F0A4FE00214DF2084000F0C5
:104B40009FFE5C214DF2094000F09AFE00214DF2DB
:104B50000A4000F095FE81214DF20B4000F090FEDE
:104B600000214DF20C4000F08BFEA6214DF20D40CD
:104B700000F086FE00214DF20E4000F081FEE5219E
:104B80004DF20F4000F07CFE01214DF2104000F08C
:104B900077FE13214DF2114000F072FE01214DF21B
:104BA000124000F06DFE54214DF2134000F068FEFB
:104BB00001214DF2144000F063FE82214DF21540B8
:104BC00000F05EFE01214DF2164000F059FECA21B0
:104BD0004DF2174000F054FE02214DF2184000F053
:104BE0004FFE00214DF2194000F04AFE02214DF225
:104BF0001A4000F045FE012100E005E34DF21B40A4
:104C000000F03EFE02214DF21C4000F039FE34213E
:104C10004DF21D4000F034FE02214DF21E4000F026
:104C20002FFE67214DF21F4000F02AFE02214DF2B7
:104C3000204000F025FE84214DF2214000F020FEAE
:104C400002214DF2224000F01BFEA4214DF2234030
:104C500000F016FE02214DF2244000F011FEB721B3
:104C60004DF2254000F00CFE02214DF2264000F0EE
:104C700007FECF214DF2274000F002FE02214DF247
:104C8000284000F0FDFDDE214DF2294000F0F8FD46
:104C900002214DF22A4000F0F3FDF2214DF22B40AB
:104CA00000F0EEFD02214DF22C4000F0E9FDFE2166
:104CB0004DF22D4000F0E4FD03214DF22E4000F0B6
:104CC000DFFD10214DF22F4000F0DAFD03214DF2FF
:104CD000304000F0D5FD33214DF2314000F0D0FDE1
:104CE00003214DF2324000F0CBFD6D214DF23340F7
:104CF00000F0C6FD00214FF4554000F0C1FD332106
:104D00004DF2015000F0BCFD00214DF2025000F0C8
:104D1000B7FD34214DF2035000F0B2FD00214DF2F9
:104D2000045000F0ADFD3A214DF2055000F0A8FD11
:104D300000214DF2065000F0A3FD4A214DF207502C
:104D400000F09EFD00214DF2085000F099FD5C211D
:104D50004DF2095000F094FD00214DF20A5000F090
:104D60008FFD81214DF20B5000F08AFD00214DF2A4
:104D70000C5000F085FDA6214DF20D5000F080FD95
:104D800000214DF20E5000F07BFDE5214DF20F5059
:104D900000F076FD01214DF2105000F071FD13215D
:104DA0004DF2115000F06CFD01214DF2125000F057
:104DB00067FD54214DF2135000F062FD01214DF2C8
:104DC000145000F05DFD82214DF2155000F058FDA9
:104DD00001214DF2165000F053FDCA214DF217503B
:104DE00000F04EFD02214DF2185000F049FD002167
:104DF0004DF2195000F044FD02214DF21A5000F01E
:104E00003FFD01214DF21B5000F03AFD02214DF211
:104E10001C5000F035FD34214DF21D5000F030FDE6
:104E200002214DF21E5000F02BFD67214DF21F5064
:104E300000F026FD02214DF2205000F021FD8421DA
:104E40004DF2215000F01CFD02214DF2225000F0E5
:104E500017FDA4214DF2235000F012FD02214DF266
:104E6000245000F00DFDB7214DF2255000F008FD53
:104E700002214DF2265000F003FDCF214DF22750C4
:104E800000F0FEFC02214DF2285000F0F9FCDE217A
:104E90004DF2295000F0F4FC02214DF22A5000F0AE
:104EA000EFFCF2214DF22B5000F0EAFC02214DF212
:104EB0002C5000F0E5FCFE214DF22D5000F0E0FCFE
:104EC00003214DF22E5000F0DBFC10214DF22F504B
:104ED00000F0D6FC03214DF2305000F0D1FC33211C
:104EE0004DF2315000F0CCFC03214DF2325000F075
:104EF000C7FC6D214DF2335000F0C2FC00214FF48D
:104F0000564000F0BDFC33214DF2016000F0B8FCCA
:104F100000214DF2026000F0B3FC34214DF2036039
:104F200000F0AEFC00214DF2046000F0A9FC3A2133
:104F30004DF2056000F0A4FC00214DF2066000F087
:104F40009FFC4A214DF2076000F09AFC00214DF2CF
:104F5000086000F095FC5C214DF2096000F090FCC7
:104F600000214DF20A6000F08BFC81214DF20B60B4
:104F700000F086FC00214DF20C6000F081FCA621BF
:104F80004DF20D6000F07CFC00214DF20E6000F04F
:104F900077FCE5214DF20F6000F072FC01214DF22B
:104FA000106000F06DFC13214DF2116000F068FC00
:104FB00001214DF2126000F063FC54214DF21360A8
:104FC00000F05EFC01214DF2146000F059FC8221DA
:104FD0004DF2156000F054FC01214DF2166000F016
:104FE0004FFCCA214DF2176000F04AFC02214DF23D
:104FF000186000F045FC00214DF2196000F040FC03
:1050000002214DF21A6000F03BFC01214DF21B60C1
:1050100000F036FC02214DF21C6000F031FC34211E
:105020004DF21D6000F02CFC02214DF21E6000F0DC
:1050300027FC67214DF21F6000F022FC02214DF297
:10504000206000F01DFC84214DF2216000F018FC6E
:1050500002214DF2226000F013FCA4214DF22360E6
:1050600000F00EFC02214DF2246000F009FCB72193
:105070004DF2256000F004FC02214DF2266000F0A4
:10508000FFFBCF214DF2276000F0FAFB02214DF229
:10509000286000F0F5FBDE214DF2296000F0F0FB06
:1050A00002214DF22A6000F0EBFBF2214DF22B6061
:1050B00000F0E6FB02214DF22C6000F0E1FBFE2146
:1050C0004DF22D6000F0DCFB03214DF22E6000F06C
:1050D000D7FB10214DF22F6000F0D2FB03214DF2DF
:1050E000306000F0CDFB33214DF2316000F0C8FBA1
:1050F00003214DF2326000F0C3FB6D214DF23360AD
:1051000000F0BEFB5521184600F0BAFBAA21584614
:1051100000F0B6FB52214FF2020000F0B1FB082173
:105120004FF2030000F0ACFB00214FF2040000F04E
:10513000A7FBCC214FF4314000F0A2FB00214BF241
:10514000011000F09DFB05214FF4364000F098FB64
:1051500070214FF4374000F093FB70214BF2017047
:1051600000F08EFB01214FF4384000F089FB032151
:105170004BF6010000F084FB03214BF6020000F027
:105180007FFB03214BF6030000F07AFB02214FF472
:105190003C4000F075FB00214BF6014000F070FB35
:1051A00000214BF6024000F06BFBD0214FF4494048
:1051B00000F066FB02214CF6011000F061FB50216B
:1051C0004CF6021000F05CFB50214CF6031000F08E
:1051D00057FB50214CF6041000F052FB00214FF415
:1051E000545000F04DFB55214FF4685000F048FB3F
:1051F0004FF4885000F02EFB782002F0DFFB4FF4D4
:10520000245000F027FBB9E0B842FCD1E22000F0C6
:1052100021FB1D2000F012FB022000F00FFB0420F8
:1052200000F00CFB642002F0C9FBE02000F012FB50
:10523000012000F003FB0A2002F0A8FBE02000F0B0
:1052400009FB032000F0FAFA0C2002F09FFB01207A
:1052500000F000FB0A2002F099FBE62000F0FAFAC9
:105260002F2000F0EBFAFF2000F0E8FAFF2000F01A
:10527000E5FAB02000F0EEFA202000F0DFFA00207E
:1052800000F0DCFA032000F0D9FA40F21F3000F001
:10529000D5FA012000F0D2FA40F2DF1000F0CEFA89
:1052A000002000F0CBFAB42000F0D4FA042000F083
:1052B000C5FA40F21F4000F0C1FA002000F0BEFA2B
:1052C0002E2000F0BBFA002000F0B8FA002000F019
:1052D000B5FA002000F0B2FA002000F0AFFAB620D4
:1052E00000F0B8FA022000F0A9FA4FF4037000F0C1
:1052F000A5FA002000F0A2FA172000F09FFA15206E
:1053000000F09CFA002000F099FA002000F096FAD4
:10531000F02000F09FFA032000F090FA292000F01E
:1053200099FAD02000F096FA002000F087FABE200B
:1053300000F090FA052000F081FAFE2000F07EFADD
:10534000012000F07BFA002000F078FA002000F045
:1053500075FA002000F072FAB82000F07BFA032002
:1053600000F06CFA012000F069FABA2000F072FA3D
:10537000012000F063FA642000F07EF8B8F8040021
:10538000504505D0B04203D0A04201D0B84217D159
:10539000D5F8040120F00F00C5F80401D5F8040188
:1053A00020F47060C5F80401D5F8040140F0040051
:1053B000C5F80401D5F8040140F48060C5F8040183
:1053C0000120FDF799FC0449C1F894920020FDF7F3
:1053D0006FFC15B0BDE8F08F00804042034808B56F
:1053E0000088ADF80000BDF8000008BD00000860AE
:1053F00010B5204C2288824202D962888A4201D8A4
:10540000002010BD00F03CF9A08841F66312A0F521
:105410001341413905D0A0F5A641103901D0904281
:1054200001D12E2005E0A0F5AA41103903D14FF497
:10543000385000F00FFAFFF7D1FFA1889142E0D079
:105440000220401EC0B2FCD2FFF7C8FF0446022172
:10545000491EC9B2FCD2FFF7C1FFE1B24FF6FF729D
:1054600002EA012124EA6212890A42EA411141EA70
:10547000D02010BDF003002010B50246BE2000F081
:10548000E9F9052000F0DAF9104606F0FAF89FED88
:105490000C1B53EC112B06F007F906F0C5F880B28F
:1054A00000F0CCF9012000F0C9F9FF2000F0C6F9A6
:1054B000002000F0C3F9BDE81040002000F0BEB9A4
:1054C0006666666666660440F0B56C4D0023294644
:1054D000AA79898841F66314012A01D01AB11BE028
:1054E000A14202D118E0A14216D1082814D2DFE867
:1054F00000F00406080A0C0E101206200CE007202B
:105500000AE0042008E0052006E0012004E0002075
:1055100002E0032000E00220A1F5134745F210321B
:1055200045F21056413F05D0914203D0B14201D01F
:10553000A14277D1082812D2DFE800F01104060852
:105540000A0C0E1080230AE0402308E0C02306E086
:10555000202304E0602302E0A02300E0E023B14226
:1055600002D14FF4585000E03620914205D0B142AC
:1055700003D0A14201D043F00803194600F080F99E
:10558000AA88A2420AD098062888698802D588424B
:1055900002D303E0884201D9298068806889B24239
:1055A00041D100F057F9002000F048F96889401C0B
:1055B00080B200F04FF9002000F040F96889801CAB
:1055C00080B200F047F92888401EC0F30F2000F099
:1055D00035F96889C01C80B200F03CF92878401E7B
:1055E000C0B200F02BF9A88900F034F9002000F0D7
:1055F00025F9A889401C80B200F02CF9002000F0A9
:105600001DF9A889801C80B200F024F96888401E2A
:10561000C0F30F2000F012F9A889C01C80B200F07E
:1056200019F922E028E000F015F9002000F006F951
:10563000002000F003F92888401EC0F30F2000F07E
:10564000FDF82878401EC0B200F0F8F8A88900F0F4
:1056500001F9002000F0F2F8002000F0EFF868886F
:10566000401EC0F30F2000F0E9F8A878BDE8F04034
:10567000401EC0B200F0E2B8F0BD0000F003002010
:10568000F0B5214D0A4604460F0AA8882946260A85
:105690004989A0F51343413B24D0A0F5A643103B14
:1056A00020D0B3F500732DD1084600F0D3F8304672
:1056B00000F0C4F86889401C80B200F0CBF8E0B27A
:1056C00000F0BCF8A88900F0C5F8384600F0B6F83C
:1056D000A889401C80B200F0BDF8BDE8F040D0B20F
:1056E00000F0ACB8084600F0B5F8304600F0A6F877
:1056F000E0B200F0A3F8A88900F0ACF8384600F05A
:105700009DF8EAE7F0BD0000F00300202DE9F84F16
:1057100082461F460E468B46580700D0012000EBFC
:10572000D700790810FB01F0203AC0B202F0FF095F
:105730000025009047E00C2F10D0102F12D0182F0A
:1057400014D0202F42D1224901EBC9104FF000089C
:10575000445D200610D51F48026811E009EB49009E
:105760001D4906E01D4901EB0910EFE71C4909EB53
:10577000C90001EB8000E9E70A9828B9154842689A
:1057800031465046FDF7B4FB6006040E1548761C02
:10579000B6B24088B04219D9A6EB0B00B84209D185
:1057A0000AF101001FFA80FA0E485E460188514551
:1057B0000CD906E008F1010000F0FF08B8F1080F6D
:1057C000C7D36D1CEDB200988542B4D3BDE8F88F05
:1057D00086D000083C000020C6B800083ABD00088A
:1057E0002AC30008F00300202DE9F84F044600F01A
:1057F000FF0810190D46DDE90A761FFA80FA5819DC
:105800001FFA80F94FF0000B11E0544502D3E8195C
:10581000444685B24D450FD23B4629462046CDF839
:1058200000B0FFF773FF04EB570084B2761C3278A8
:10583000A2F120005E28E8D9BDE8F88F01B5BDF8D7
:105840000000ADF80000BDF800000149088008BD67
:105850000000086001B5BDF80000ADF80000BDF81B
:1058600000000149088008BDFEFF076002480349A7
:105870000089088070470000F0030020FEFF0760E9
:10588000024A1080901C018070470000FEFF0760F4
:10589000114810B5016886B041F48071016000685C
:1058A0000E4C00F480700590602000900120019063
:1058B00002900320039069462046FBF789FC0122F1
:1058C00020212046FBF772FD012240212046FBF7F4
:1058D0006DFD06B010BD00003038024000200240CF
:1058E00008B500900548018BC08A491E8BB2401E46
:1058F00082B20021084600F035F808BDA804002057
:1059000010B5084B1C465875A1888AB2218889B207
:1059100020B1012801D1D9821A8310BDDA821983FE
:1059200010BD0000A8040020F0B50C4F94B23D4615
:10593000DFF82CC02B68EA692D7D7E7D5CF8255050
:1059400026B103FB01004243AC52F0BD7E68301A21
:10595000401E03FB001050432C52F0BDA804002051
:10596000440000202DE9F843274EDDF82090002464
:10597000757D0DB1054606E077680D46B91A1A46E1
:105980003B1A491E5B1E306896F814C0DFF87C8015
:10599000521B871A58F82CC0F66900FB015006FB11
:1059A00000C51B487F1EBFB2066846F400060660AD
:1059B000006800F4000000901648066826F0010612
:1059C00006604FF440360660022646630764C563EE
:1059D000591AF30303EB0242491C11434164C0F816
:1059E0003890016841F0010101605A0102E0641C35
:1059F000944202D241688907F9D5816841F00201D9
:105A00008160BDE8F8830000A80400204400002065
:105A10003038024000B00240FEE770470907090E27
:105A2000002806DA00F00F0000F1E02080F8141DD5
:105A3000704700F1E02080F80014704710B504466C
:105A40000021FF2000F026FB00217C2000F022FB3B
:105A500004217D2000F01EFB09217C2000F01AFBB0
:105A60002007010E7D2000F015FB0021BDE810404D
:105A70007D2000F00FBB000110B52030C0B240F017
:105A800008040021FF2000F005FB00217C2000F02D
:105A900001FB02217D2000F0FDFA03217C2000F0B3
:105AA000F9FA21467D2000F0F5FA2146BDE81040C4
:105AB0007D2000F0EFBA10B500F046F9002000F0AC
:105AC000E7F80320FFF7D7FF0220FFF7B7FF022018
:105AD00000F007F8BDE81040F0214FF4A07000F08E
