:020000040800F2
:10000000F009002055020008054200089B1800086E
:1000100059410008E9040008394A000800000000BE
:10002000000000000000000000000000B3450008D0
:1000300065050008000000006D440008394600080E
:100040006F0200086F0200086F0200086F020008CC
:100050006F0200086F0200086F0200086F020008BC
:100060006F0200086F0200086F0200086F020008AC
:100070006F0200086F0200086F0200086F0200089C
:100080006F0200086F0200086F0200086F0200088C
:100090006F0200086F0200086F0200086F0200087C
:1000A0006F0200086F0200086F0200086F0200086C
:1000B0006F0200086F0200086F0200086F0200085C
:1000C0006F0200086F0200086F0200086F0200084C
:1000D0006F020008A5490008114A00086F020008D5
:1000E0006F0200086F0200086F0200086F0200082C
:1000F0006F0200086F0200086F0200086F0200081C
:100100006F0200086F0200086F0200086F0200080B
:100110006F0200086F0200086F0200086F020008FB
:100120006F020008F90400086F0200086F0200085F
:100130006F0200086F0200086F0200086F020008DB
:100140006F0200086F0200086F0200086F020008CB
:100150006F0200086F0200086F0200086F020008BB
:100160006F0200086F0200086F0200086F020008AB
:100170006F0200086F020008ED0400080000000094
:100180006F0200086F0200086F0200086F0200088B
:100190006F0200086F0200086F0200086F0200087B
:1001A0006F0200086F0200086F02000800F002F8FA
:1001B00000F041F80AA090E8000C82448344AAF1C0
:1001C0000107DA4501D100F036F8AFF2090EBAE8BE
:1001D0000F0013F0010F18BFFB1A43F0010318477B
:1001E000544C0000744C0000103A24BF78C878C109
:1001F000FAD8520724BF30C830C144BF04680C602D
:10020000704700000023002400250026103A28BF74
:1002100078C1FBD8520728BF30C148BF0B60704778
:10022000782900F07980002070471FB504F0DCFDCC
:100230001FBD10B510BD00F027F91146FFF7F5FFFF
:1002400004F038FC00F045F903B4FFF7F2FF03BCFB
:1002500004F0F3FB0948804709480047FEE7FEE742
:10026000FEE7FEE7FEE7FEE7FEE7FEE7FEE7FEE766
:1002700004480549054A064B704700003D46000802
:10028000AD010008F0030020F0090020F005002077
:10029000F0050020704700000FB4044910B503AA10
:1002A000029800F0C3F810BC5DF814FB2000002099
:1002B0002DE9F0410E460446002020622046E16808
:1002C000884730B3252805D0D4E901219047206A1A
:1002D000401CF2E7E168204600278847050018D057
:1002E000A5F14100192802D820354FF400673246A5
:1002F000294620462760FFF793FF40B1012804D02C
:10030000F61D26F007060836D8E7361DD6E728463C
:10031000DAE7206ABDE8F08170B504460D46214653
:100320001068AFF300802188090502D50F4A7A448E
:1003300002E00E4A7A440E32002104F1240305E063
:1003400000F00F060009965D5E54491C0028F7D1A5
:1003500020780023000704D5702D02D009B10223B4
:1003600011322046BDE8704000F006B8DA4A0000BD
:1003700070477047704770472DE9F0470D46994622
:100380009246044600F124080168880604D5E06915
:1003900021F01001216000E00120A84201DD471B8F
:1003A00000E00027A1697A1902EB0900081AA06190
:1003B0002078C00602D42046AFF30080002608E073
:1003C000D4E901211AF806009047206A401C761CE7
:1003D00020624E45F4DB2078C0060AD52046AFF3F4
:1003E000008006E0D4E9012130209047206A401CBB
:1003F0002062381EA7F10107F4DC07E0D4E90121EF
:1004000018F805009047206A401C2062281EA5F1BC
:100410000105F3DC2046AFF300802078000602D50A
:100420000220BDE8F0870120FBE70000074B70B514
:100430000D467B4400F011F80446284600F020F8F1
:1004400010B14FF0FF3070BD204670BD6B4600000C
:1004500001694A1C02610878704700B58FB0CDE988
:1004600001310021059105497944CDE90310114678
:100470006846FFF71DFF0FB000BD0000E5FFFFFF5E
:10048000007B00F080007047754600F029F8AE460A
:1004900005006946534620F00700854618B020B590
:1004A000FFF7E6FEBDE820404FF000064FF00007E2
:1004B0004FF000084FF0000B21F00701AC46ACE80C
:1004C000C009ACE8C009ACE8C009ACE8C0098D4679
:1004D00070470446AFF300802046FFF7B5FE0000EA
:1004E000004870478C030020FEE70000014800F040
:1004F000D1B80000EC01002030B51748184D184A5B
:100500000068164B164C603DB83A984202D9134920
:10051000543903E0A04203D910495839096804E06E
:10052000A84201D9516800E0116811F4006F0BD0A6
:100530004FF40061984202D908484C3803E0A042C9
:1005400003D906485038016030BDA84201D9D160B6
:1005500030BD916030BD00002C0200205864024084
:10056000B86002407047000070B5B3F5804F05D009
:100570006FF0704140F82210002070BD50F822301A
:10058000084C2340D1E9004544EA05148D688E8962
:100590002D0245EA064589692C430C431C4340F86B
:1005A0002240E9E70000F0CFF0B50C6850F8245085
:1005B000194A1540D1E90123D1E903671A433E43A3
:1005C00032434E6932438E693243CE6932430E6AFA
:1005D00032434E6A32438E6A3243CE6A3243CE6B26
:1005E00032430E6B32434E6B32432A43082B01D108
:1005F00042F0400240F824204A6BB2F5801F08D137
:100600000A6832B14FF480720A61044902681143EA
:1006100001600020F0BD00008000E0FF000110003C
:10062000F0B500EB820253688E8903F04044D1E9B3
:10063000003543EA05138D682D0245EA06452B4334
:100640000E8A0D4D05EB065633430E7D6F0107EB09
:10065000066633438E693343234353600268D202F4
:1006600007D54268098A22F4700205EB0151114353
:1006700041600020F0BD00000000F0FF7047000066
:1006800003480068C16841F00101C1607047000083
:10069000EC01002070B50446006881684FF0040644
:1006A00049074FF0000516D50169490713D5C16800
:1006B00021F00401C16020684661E06B40F0020057
:1006C000E06384F8256084F82450A06B00F056F8AD
:1006D0002046FFF7D3FF20688168890717D5016995
:1006E000890714D5C16821F00201C1602168022088
:1006F0004861E06B40F00100E06384F8256084F815
:100700002450A06B00F03AF82046FFF7B7FF2068AE
:100710008168C90609D50169C90606D5102141615C
:1007200084F82450204600F027F8206881680907E3
:100730000ED5016909070BD5C16821F00801C16018
:1007400021680820486184F82450204600F015F8FC
:1007500020688168C9070ED00169C9070BD0C1683C
:1007600021F00101C16021680120486184F8245012
:100770002046FFF785FF70BD704770472DE9F041B7
:1007800004460068016821F00101016000F014F9DD
:10079000054600264FF47A770FE000F00DF9401B74
:1007A000B8420AD954F84C0F40F0200044F8180918
:1007B000032026706070BDE8F08120680068C007E3
:1007C000EBD104F8346F012060700020F3E70000E3
:1007D0002DE9F84FDFF8A091002209F1040A0AF18F
:1007E000040B4FF00F080BF1040E01260B68964026
:1007F0003340B34271D14C68022C01D0122C11D17C
:10080000D40800EB84073D6A5407E40E08FA04FCA0
:1008100025EA0C05D1F810C00CFA04FC4CEA050CD2
:10082000C7F820C007685400032591F804C0A5400C
:100830000CF0030CAF430CFA04FC4CEA070CC0F8B4
:1008400000C04F68012F05D0022F03D0112F01D017
:10085000122F11D18768D1F80CC0AF430CFA04FCF9
:100860004CEA070CC0F808C04768B7430E79C6F3D6
:10087000001696403E434660C668AE438D68A5406C
:100880003543C5604C68E4006FD53C4C256845F4A1
:1008900080452560246822F0030504F48044009418
:1008A000374C2E19D6F808789407250F08FA05F466
:1008B000A743344CA04201D100242EE0324CA04288
:1008C00001D1012429E0314CA04201D1022424E0CD
:1008D0002F4CA04202D103241FE046E02D4CA04241
:1008E00001D1042419E02C4CA04201D1052414E0CC
:1008F0002A4CA04201D106240FE0294CA04201D18C
:1009000007240AE0274CA04201D1082405E0264C28
:10091000A04201D1092400E00A24AC403C43C6F8BF
:100920000848D9F800404D464E689C43F60300D570
:100930001C432C60DAF8004055464E689C43B603D1
:1009400000D51C432C60DBF800405D464E689C439C
:10095000F60200D51C432C60DEF8004075464E6858
:100960009C43B60200D51C432C60521C102AFFF495
:100970003CAFBDE8F88F0000003C01404438024025
:100980000030014000000240000402400008024024
:10099000000C024000100240001402400018024007
:1009A000001C024000200240002402400AB1816184
:1009B00070470904FBE70000014800687047000029
:1009C0001400002002480168491C016070470000C3
:1009D000140000200B4810B5016841F4007101605B
:1009E000016841F480610160016841F48071016037
:1009F000052000F049F80F2000F006F800F015F887
:100A0000002010BD003C024010B5044600F096F9ED
:100A10004FF47A71B0FBF1F000F0D0FD00222146D6
:100A2000501E00F011F8002010BD08B50020009005
:100A300008BD00F01F02012191404009800000F133
:100A4000E020C0F800117047F0B40E4B1B68C3F3F0
:100A50000223C3F10704042C00D904241D1D072D13
:100A600001D2002300E0DB1E012606FA04F56D1E0C
:100A70000D409D409E40761E164045EA0601F0BCA2
:100A800003F0E4BC0CED00E0064A00F0070110683A
:100A90004FF6FF03184040EA012003490843106065
:100AA000704700000CED00E00000FA052DE9F84366
:100AB0001D48016841F0805101600068012700F085
:100AC00080500090380490FAA0F0DFF86080B0FA0F
:100AD00080F048F82070FFF76FFF04464FF47A75F6
:100AE000134E04E0FFF768FF001BA84213D870689C
:100AF000C003F7D54FF4003090FAA0F0B0FA80F0C0
:100B000048F82070FFF758FF044607E0FFF754FF4E
:100B1000001BA84202D90320BDE8F8837068800357
:100B2000F4D50020F8E700004038024000000E42F3
:100B3000007000402DE9F05FDFF8F8A104460F4691
:100B4000DAF80000DFF8F08100F00F02C8B27A494D
:100B5000814641F2883608F10808BA4261D202465D
:100B60008AF80020DAF8000000F00F00B8427DD1CA
:100B70002078800707D5D8F80020A36822F0F0027B
:100B80001A43C8F800202078C0072DD060680128DB
:100B90001AD002281BD0032819D009688907002918
:100BA00064DAD8F80010474621F003010143C8F881
:100BB0000010FFF701FF0546606801280FD00228EA
:100BC00018D003281CD027E009688903E7E70968E3
:100BD0008901E4E7FFF7F0FE401BB04258D83868BF
:100BE000C0F381000128F5D188E0FFF7E5FE401B46
:100BF000B0424DD83868C0F381000228F5D17DE0BD
:100C00003868FFF7D9FE401BB042F9D940E0FFF742
:100C1000D3FE401BB0423BD8386810F00C0FF6D121
:100C20006CE02078800707D5D8F80020A36822F070
:100C3000F0021A43C8F800202078C0074CD0606842
:100C4000012828D0022829D0032827D0096889073D
:100C5000002949DAD8F8002022F003020243C8F83C
:100C60000020FFF7A9FE0546606800E03CE001288F
:100C70001DD0022829D0032838D0B3464646306814
:100C800010F00C0F28D0FFF797FE411B5945F6D9FD
:100C90000320BDE8F09F09688903D9E70968890145
:100CA000D6E7FFF789FE411B594502D9F0E7B34665
:100CB00046463068C0F381000128F2D10CE0FFF70E
:100CC0007BFE411B594502D9E2E7B34646463068F0
:100CD000C0F381000228F2D18AF80090DAF800000F
:100CE00000F00F00B84209D00120D2E74446206846
:100CF000FFF762FE401BB042F9D9C9E720784007F0
:100D000007D5D8F80010E26821F4E0511143C8F883
:100D100000102078000708D5D8F80010226921F4C7
:100D2000604141EAC201C8F800100F20FFF76CFED5
:100D30000020AEE7003C02400038024010B500F051
:100D400043F808490968F02292FAA2F201F0F00192
:100D5000B2FA82F2D140044A515CC84003490860AB
:100D600010BD000008380240F24D000800000020CD
:100D700010B5FFF7E3FF074909684FF4E05292FA14
:100D8000A2F201F4E051B2FA82F2D140024A515C7F
:100D9000C84010BD08380240F24D000810B5FFF7FA
:100DA000CDFF074909684FF4604292FAA2F201F4BC
:100DB0006041B2FA82F2D140024A515CC84010BD93
:100DC00008380240F24D000830B51948006810F0AC
:100DD0000C01184812D0184C04290ED008290DD146
:100DE000134A121F1168136801F03F015D0247F6B4
:100DF000C07304D5B4FBF1F003E0204630BDB0FB76
:100E0000F1F01168194093FAA3F3B3FA83F3D940D0
:100E1000484311684FF4403292FAA2F201F4403193
:100E2000B2FA82F2D140491C4900B0FBF1F030BD6A
:100E3000083802400024F40040787D012DE9F84F85
:100E400004460078DFF8FCA2BF4DC0074FF0000653
:100E500048D0DAF800105046C1F38101012908D0CA
:100E60000068C0F3810002280AD1281D00684002F2
:100E700006D52868800335D56068002873D031E036
:100E8000DFF8C49209F1020989F80060FFF794FDC8
:100E9000074641F2883804E0FFF78EFDC11B41454B
:100EA0007AD828688003F7D4207989F80000606830
:100EB00060B1FFF781FD074604E0FFF77DFDC11B30
:100EC0004145EDD828688003F7D50BE0FFF774FDA6
:100ED000074604E0FFF770FDC11B4145E0D82868D4
:100EE0008003F7D42078DFF86492800744D5DAF8DD
:100EF0000010504611F00C0F4FF0F80809D00068B0
:100F0000C0F3810002280BD18E48001F0068400208
:100F100006D42868800714D5E068012823D110E0A2
:100F2000E068D0B10120C9F80000FFF745FD074691
:100F300004E0FFF741FDC01B6428B1D82868800792
:100F4000F7D5286898FAA8F22169B2FA82F220F05F
:100F5000F8009140084328600EE0C9F80060FFF7F0
:100F60002BFD074605E0EAE0FFF726FDC01B6428DD
:100F700012D828688007F7D42078000725D5DFF835
:100F8000C4817348616908F16C0881B10121016075
:100F9000FFF712FD074605E07EE0FFF70DFDC01BE1
:100FA000642879D8D8F800008007F6D50DE00660EF
:100FB000FFF702FD074604E0FFF7FEFCC01B6428B4
:100FC0006AD8D8F800008007F6D42078400753D5B7
:100FD0005C483830016841F0805101600068DFF8FA
:100FE000748100F080500090D8F8001041F48071B6
:100FF000C8F80010FFF7E0FC074604E0FFF7DCFC50
:10100000C01B642848D8D8F80000C005F6D5DFF822
:1010100034B10BF1680B8BF80060FFF7CDFC07468D
:1010200041F2883804E0FFF7C7FCC11B41457ED878
:10103000DBF800008007F6D4207A8BF80000A06867
:1010400068B1FFF7B9FC074604E0FFF7B5FCC11B28
:1010500041456CD8DBF800008007F6D50CE0FFF7BF
:10106000ABFC074604E0FFF7A7FCC11B41455ED877
:10107000DBF800008007F6D4A069E8B3DAF80010C6
:10108000C1F3810102295AD0022806D0C9F8606054
:10109000FFF792FC04464DE049E04F46C9F8606016
:1010A000FFF78AFC064604E0FFF786FC801B6428F5
:1010B0003DD828688001F7D4D4E90701084347F6F2
:1010C000C07191FAA1F1626AB1FA81F18A40A16A14
:1010D0004FF0FF3303EB51014FF4403393FAA3F386
:1010E000B3FA83F399400A4310434FF0706292FAC7
:1010F000A2F2B2FA82F200E01FE0E16A91400843F6
:101100001049091F086001203866FFF755FC0446A6
:1011100004E0FFF751FC001B642808D82868800110
:10112000F7D50AE0FFF748FC001B642802D903202A
:10113000BDE8F88F28688001F4D40020F8E701208A
:10114000F6E700000838024000380240000047423D
:10115000800E47420070004070B5040004D094F83F
:101160005100002510B106E0012070BD84F85050F8
:10117000204600F033F8022084F85100206801680E
:1011800021F040010160D4E901010843D4E90312D0
:101190001143084361690843218B01F4007108433E
:1011A000E1690843216A0843A16A0843216808608D
:1011B000A069042101EA1040616A0843216848607F
:1011C0002168E06A08612068C16921F40061C16199
:1011D0006565012084F85100002070BD114800B5FC
:1011E000016887B041F010010160006800F0100054
:1011F00005900C481430016841F40051016000680A
:10120000012100F400500590642000900220CDE9F7
:10121000010103900520049069460348FFF7D8FABE
:1012200007B000BD30380240001002402DE9F843FD
:10123000044690F85100DDF82080012801D02228D2
:101240007ED169B162B15BB194F85000012877D0CA
:10125000012784F8507094F85100012803D005E06C
:101260000120BDE8F883322084F85100002666652D
:10127000A263A387E3872163A386E386A664E6646B
:10128000A06A4FF40055A84209D12068016821F4F2
:10129000005101602068016841F40051016020683C
:1012A0000168490603D4016841F040010160E0682B
:1012B0004FF48271B0F5006F606807D0002867D0E6
:1012C00088426ED1E08E012862D06AE020B1884267
:1012D0000CD1E08E012809D1206B21680088C860FC
:1012E000206B801C2063E08E401EE086E08E80B97B
:1012F000A06AA84244D12068016841F4805101608D
:101300003EE02068C068A16B0880A06B801CA063D1
:101310009EE0434600220221204603F0FBF800280D
:1013200074D1206B21680088C860206B801C20630A
:10133000E08E401E0004000CE08609D1A06A00E0A7
:10134000C7E0A84204D12068016841F480510160DF
:10135000434600220121204603F0DCF800286FD12B
:101360002068C068A16B0880A06B801CA063E08F20
:10137000401EE087E08E0028CBD1606800286AD14B
:10138000434600220121204603F0C4F8F0BBB8E731
:10139000206B411C216321680078C860E08E401EEC
:1013A000E086E08E98B9A06AA84204D1206801685E
:1013B00041F480510160434600220121204603F0A0
:1013C000A9F818BB2068C068A16B087040E04346CC
:1013D00000220221204603F09DF8B8B9206B411C81
:1013E000216321680078C860E08E401E0004000C74
:1013F000E08607D1A06AA84204D12068016841F4C0
:101400008051016000224346012100E018E020469F
:1014100003F080F8A0B92068C168A06B421CA263E9
:101420000170E08F401EE087E08E0028CFD1606819
:1014300088B9434600220121204603F06BF808B129
:1014400003200EE72068C168A06B421CA2630170F4
:10145000E08F401EE087A06AA84210D143460022D8
:101460000121204603F056F818B1606D40F00200EB
:101470000FE02068C068ADF80000BDF800004346EA
:1014800001228021204603F045F820B1606D40F034
:1014900020006065D4E784F8517020688168A26AF2
:1014A000C1F30011AA4210D179B1616D41F002017E
:1014B0006165016821F4005101602068016841F410
:1014C0000051016084F85060CAE684F85060002042
:1014D000C7E60220C5E670B515460E46040003D0E7
:1014E00094F8490010B107E0012070BD002084F895
:1014F0004800204600F01AF804F108012068FFF7C0
:1015000053F83146A2682068FFF78AF8D4E901024F
:101510002946236BFFF728F8A168206850F821209E
:1015200042F0010240F82120002070BD1A4800B5A9
:10153000016887B041F001010160006800F001001E
:10154000059015480838016841F0080101600168FC
:1015500001F008010591016841F010010160006887
:10156000694600F0100005904EF2B3700090022022
:10157000019001200290032003900C200490074862
:10158000FFF726F94FF68070009069460448FFF790
:101590001FF907B000BD000038380240000C0240BF
:1015A000001002404FF0E0210428086903D020F029
:1015B00004000861704740F00400FAE710B5401ECF
:1015C000B0F1807F01D3012010BD4FF0E0246061B5
:1015D0000F21601702F03AFF0020A0610720206170
:1015E000002010BD704738B5016804460868CA6815
:1015F000C0F3000002F4807238B132B10868486864
:101600000090E06B40F00100E06308684A69C0F3B5
:10161000400002F0010238B132B108684868009019
:10162000E06B40F00400E06308684A69C0F38000A2
:1016300002F0010238B132B1086848680090E06BEE
:1016400040F00200E06308684A69C0F3C00002F09D
:10165000010238B132B1086848680090E06B40F090
:101660000800E0630868C968C0F3401001F0200179
:1016700018B111B1204603F00BF820680168C0686A
:10168000C1F3C01100F0800019B110B1204603F081
:101690000DF921680868CA68C0F3801002F04002A2
:1016A000012568B162B1CA68204622F04002CA60D2
:1016B00094F8391032290CD080F8395000F0ECF849
:1016C000E06B002804D084F839502046FFF78AFFE9
:1016D00038BD222180F83910F0E770B5040004D03D
:1016E00094F83900002510B106E0012070BD84F89F
:1016F0003850204600F020F8022084F83900206895
:10170000C16821F40051C160204603F015F820683B
:10171000016921F4904101612068416921F02A01A9
:1017200041612068C16841F40051C160E563012056
:1017300084F83900002070BD30B5044600682049A7
:1017400087B0884239D11F48016841F0010101602A
:10175000006800F0010005901A481430016841F05B
:10176000100101600068012100F0100005904FF4A5
:10177000007000900220CDE9010103900720124D76
:10178000049069462846FFF723F82815009069461B
:101790002846FFF71DF82068C16821F04001C160AC
:1017A0002068C16841F02001C1602520FFF741F9A0
:1017B000032211462520FFF747F907B030BD00008E
:1017C0000010014030380240000002402DE9F0478F
:1017D000044690F8390099460D46012801D0122898
:1017E00057D125B31AB394F83800012851D00126F7
:1017F00084F838600027E76394F83900122819D07C
:10180000222084F83900A285E2854FF48058E08DCB
:101810004B46401EE085A0684FF0000240454FF067
:101820002001204616D103F074F8B0B904E001207D
:10183000BDE8F0873220E4E720690028206840688E
:1018400003D0C1B225F8011B12E0C0F3080125F84E
:10185000021B0DE003F05DF808B10320E8E7206902
:1018600000282068406801D000F07F0005F8010BD7
:10187000E08D0028CBD194F83900322805D084F8C7
:10188000396084F838700020D2E7122084F83900DB
:10189000F7E70220CCE770477047FEE770B51148C4
:1018A00086B00025016841F480710160006803245E
:1018B00000F4807005900120CDE902048002CDE99A
:1018C0000005094E69463046FEF782FFF014CDE967
:1018D00000050220CDE9020469463046FEF778FF94
:1018E00006B070BD303802400020024070B5064698
:1018F000094800240188458820464D43214602F0CE
:1019000057FB02F0EFFBB1B2044801E00180641C18
:10191000AC42FBD370BD0000DC0100200000086079
:101920002DE9F04F334B2C24194698712A258988CC
:101930002B2645F2105B4FF4305E4FF448774FF0A2
:10194000F00949F2413A4FF4A07845F2103C4FF4C7
:10195000F07258B1A3F80080A3F80290514501D06D
:10196000614529D11C815D819E8139E0A3F80090F9
:10197000A3F80280514501D0614508D11C815D81E9
:101980009E81614531D1A3F800805A802DE05945F0
:1019900008D1A3F808E04FF4285058814FF42C5098
:1019A000988106E0A1F5C85063381ED11C815E8184
:1019B0009D811A805F8018E0594508D1A3F808E09E
:1019C0004FF4285058814FF42C50988106E0A1F52F
:1019D000C850633804D11C815D819E811F805A806C
:1019E000614502D11A80A3F80280BDE8F04F0020C3
:1019F00002F002BADC0100202DE9F04FFF4895B05B
:101A00000024016841F00201016000684FF0010903
:101A100000F0020000902020CDE910090320CDE95C
:101A2000129010A9F648FEF7D3FEF6484FF0204575
:101A3000F5490560C0E901141021C460C0E9044102
:101A400084610902C461C0E909418900C0E90B4110
:101A500089014463C0E90E4146210B910F20CDE975
:101A60000904CDE9020404900F9402AA09A908947C
:101A7000E448FFF730FD322002F0EAFFD32002F005
:101A800025FB02F087F9DF4A5032908002F082F99C
:101A9000908002F07FF94FF6FF7808EA00209080EE
:101AA00002F078F9918849F2413A0843908045F272
:101AB000103645F2105441F66317504547D0D420F4
:101AC00002F004FB02F066F9908002F063F9908066
:101AD00002F060F908EA0020908002F05BF991883A
:101AE00008439080B04232D04FF45A4002F0EEFAF0
:101AF00002F050F990804FF45B4002F0E7FA02F0F8
:101B000049F908EA002090804FF45C4002F0DEFAC8
:101B100002F040F9918808439080B0F5004F7DD0E5
:101B2000A04214D0A12002F0D1FA02F033F9908043
:101B300002F030F908EA0020908002F02BF9918839
:101B40000843A0F5AE419080613900D1978090465E
:101B50009188AEA0FEF7A0FBB8F8040050457DD1F7
:101B6000CF2002F0B3FA002002F0A4FAC12002F064
:101B7000A1FA302002F09EFAED2002F0A7FA6420CC
:101B800002F098FA032002F095FA122002F092FA7D
:101B9000812002F08FFAE82002F098FA852002F006
:101BA00089FA102002F086FA7A2002F083FACB201C
:101BB00002F08CFA392002F07DFA2C2002F07AFA39
:101BC000002002F077FA342002F074FA022002F0CA
:101BD00071FAF72002F07AFA202002F06BFAEA207C
:101BE00002F074FA002002F065FA002002F062FAB6
:101BF000C02002F06BFA1B2002F05CFAC12002F058
:101C000065FA012002F056FAC52002F05FFA302092
:101C100002F050FA302002F04DFA00E0B8E0C720A0
:101C200002F054FAB72002F045FA362002F04EFADC
:101C3000482002F03FFA3A2002F048FA552002F01C
:101C400039FAB12002F042FA002002F033FA1A20E9
:101C500002F030FAB62002F039FA00E09AE00A20E9
:101C600002F028FAA22002F025FAF22002F02EFA61
:101C7000002002F01FFA262002F028FA012002F0CC
:101C800019FAE02002F022FA0F2002F013FA2A20BB
:101C900002F010FA282002F00DFA082002F00AFAE9
:101CA0000E2002F007FA082002F004FA542002F095
:101CB00001FAA92002F0FEF9432002F0FBF90A2004
:101CC00002F0F8F90F2002F0F5F9002002F0F2F925
:101CD000002002F0EFF9002002F0ECF9002002F001
:101CE000E9F9E12002F0F2F9002002F0E3F9152011
:101CF00002F0E0F9172002F0DDF9072002F0DAF92E
:101D0000112002F0D7F9062002F0D4F92B2002F0BE
:101D1000D1F9562002F0CEF93C2002F0CBF9052093
:101D200002F0C8F9102002F0C5F90F2002F0C2F944
:101D30003F2002F0BFF93F2002F0BCF90F2002F073
:101D4000B9F92B2002F0C2F9002002F0B3F900200B
:101D500002F0B0F9012002F0ADF93F2002F0AAF93B
:101D60002A2002F0B3F9002002F0A4F9002002F0CA
:101D7000A1F9002002F09EF9EF2002F09BF911205A
:101D800002F0A4F9782002F063FE292001F011BFCF
:101D90009480DCE6B0427DD1ED2002F097F901207D
:101DA00002F088F9FE2002F085F9EE2002F08EF9AB
:101DB000DE2002F07FF9212002F07CF9F12002F010
:101DC00085F9012002F076F9DF2002F07FF910207A
:101DD00002F070F9C42002F079F98F2002F06AF95C
:101DE000C62002F073F9002002F064F9E22002F04C
:101DF00061F9E22002F05EF9E2200FE030380240A3
:101E0000000402408C010020040100A0204C434447
:101E10002049443A25780D0A0000000002F04AF9F2
:101E2000BF2002F053F9AA2002F044F9B02002F0DA
:101E30004DF90D2002F03EF9002002F03BF90D2093
:101E400002F038F9002002F035F9112002F032F9E1
:101E5000002002F02FF9192002F02CF9002002F0E6
:101E600029F9212002F026F9002002F023F92D2083
:101E700002F020F9002002F01DF93D2002F01AF9CD
:101E8000002002F017F95D2002F014F9002002F0A2
:101E900011F900E0FDE35D2002F00CF9002002F0F2
:101EA00009F9B12002F012F9802002F003F90020B4
:101EB00002F000F98B2002F0FDF8002002F0FAF8A1
:101EC000962002F0F7F8002002F0F4F8B22002F0B9
:101ED000FDF8002002F0EEF8002002F0EBF80220FE
:101EE00002F0E8F8002002F0E5F8032002F0E2F842
:101EF000002002F0DFF8B32002F0E8F8002002F042
:101F0000D9F8002002F0D6F8002002F0D3F8002023
:101F100002F0D0F8002002F0CDF8002002F0CAF85C
:101F2000002002F0C7F8002002F0C4F8002002F000
:101F3000C1F8002002F0BEF8002002F0BBF800203B
:101F400002F0B8F8002002F0B5F8002002F0B2F874
:101F5000002002F0AFF8002002F0ACF8002002F000
:101F6000A9F8002002F0A6F8002002F0A3F8002053
:101F700002F0A0F8002002F09DF8002002F09AF88C
:101F8000002002F097F8002002F094F8B42002F04C
:101F90009DF88B2002F08EF8002002F08BF896203E
:101FA00002F088F8002002F085F8A12002F082F803
:101FB000002002F07FF8B52002F088F8022002F03D
:101FC00079F8002002F076F8032002F073F8002080
:101FD00002F070F8042002F06DF8002002F06AF8B8
:101FE000B62002F073F8002002F064F8002002F03E
:101FF00061F8B72002F06AF8002002F05BF80020D8
:1020000002F058F83F2002F055F8002002F052F894
:102010005E2002F04FF8002002F04CF8642002F03D
:1020200049F8002002F046F88C2002F043F8002026
:1020300002F040F8AC2002F03DF8002002F03AF83F
:10204000DC2002F037F8002002F034F8702002F0B3
:1020500031F8002002F02EF8902002F02BF800203A
:1020600002F028F8EB2002F025F8002002F022F818
:10207000DC2002F01FF8002002F01CF8B82002F06B
:1020800025F8002002F016F8002002F013F80020D6
:1020900002F010F8002002F00DF8002002F00AF81B
:1020A000002002F007F8002002F004F8002002F0FF
:1020B00001F8BA2002F00AF8242001F0FBFF00200A
:1020C00001F0F8FF002001F0F5FF002001F0F2FF21
:1020D000C12001F0FBFF202001F0ECFF002001F007
:1020E000E9FF542001F0E6FF002001F0E3FFFF20AC
:1020F00001F0E0FF002001F0DDFFC22001F0E6FF6B
:102100000A2001F0D7FF002001F0D4FF042001F0E5
:10211000D1FF002001F0CEFFC32001F0D7FF3C200B
:1021200001F0C8FF002001F0C5FF3A2001F0C2FF16
:10213000002001F0BFFF392001F0BCFF002001F0BA
:10214000B9FF372001F0B6FF002001F0B3FF3C20BB
:1021500001F0B0FF002001F0ADFF362001F0AAFF32
:10216000002001F0A7FF322001F0A4FF002001F0C1
:10217000A1FF2F2001F09EFF002001F09BFF2C20EB
:1021800001F098FF002001F095FF292001F092FF57
:10219000002001F08FFF262001F08CFF002001F0CD
:1021A00089FF242001F086FF002001F083FF242016
:1021B00001F080FF002001F07DFF232001F07AFF75
:1021C000002001F077FF3C2001F074FF002001F0B7
:1021D00071FF362001F06EFF002001F06BFF32200E
:1021E00001F068FF002001F065FF2F2001F062FF81
:1021F000002001F05FFF2C2001F05CFF002001F0C7
:1022000059FF292001F056FF002001F053FF26203E
:1022100001F050FF002001F04DFF242001F04AFFA3
:10222000002001F047FF242001F044FF002001F0CE
:1022300041FF232001F03EFF002001F03BFFC420BE
:1022400001F044FF622001F035FF002001F032FF71
:10225000052001F02FFF002001F02CFF842001F069
:1022600029FF002001F026FFF02001F023FF0020CD
:1022700001F020FF182001F01DFF002001F01AFFDF
:10228000A42001F017FF002001F014FF182001F036
:1022900011FF002001F00EFF502001F00BFF002085
:1022A00001F008FF0C2001F005FF002001F002FF03
:1022B000172001F0FFFE002001F0FCFE952001F048
:1022C000F9FE002001F0F6FEF32001F0F3FE0020FD
:1022D00001F0F0FEE62001F0EDFE002001F0EAFE44
:1022E000C52001F0F3FE322001F0E4FE002001F0F1
:1022F000E1FE442001F0DEFE002001F0DBFE65205F
:1023000001F0D8FE002001F0D5FE762001F0D2FECB
:10231000002001F0CFFE882001F0CCFE002001F06B
:10232000C9FEC62001F0D2FE202001F0C3FE00202D
:1023300001F0C0FE172001F0BDFE002001F0BAFE42
:10234000012001F0B7FE002001F0B4FEC72001F02B
:10235000BDFE002001F0AEFE002001F0ABFE00202B
:1023600001F0A8FE002001F0A5FEC82001F0AEFE9D
:10237000002001F09FFE002001F09CFE002001F0F3
:1023800099FE002001F096FEC92001F09FFE00207A
:1023900001F090FE002001F08DFE002001F08AFE89
:1023A000002001F087FE002001F084FE002001F0F3
:1023B00081FE002001F07EFE002001F07BFE002067
:1023C00001F078FE002001F075FE002001F072FEA1
:1023D000002001F06FFE002001F06CFE002001F0F3
:1023E00069FE002001F066FE002001F063FEE0209F
:1023F00001F06CFE162001F05DFE002001F05AFE97
:102400001C2001F057FE002001F054FE212001F0B5
:1024100051FE002001F04EFE362001F04BFE002060
:1024200001F048FE462001F045FE002001F042FE8A
:10243000522001F03FFE002001F03CFE642001F03C
:1024400039FE002001F036FE7A2001F033FE002034
:1024500001F030FE8B2001F02DFE002001F02AFE5D
:10246000992001F027FE002001F024FEA82001F0B1
:1024700021FE002001F01EFEB92001F01BFE00200D
:1024800001F018FEC42001F015FE002001F012FE3C
:10249000CA2001F00FFE002001F00CFED22001F056
:1024A00009FE002001F006FED92001F003FE002005
:1024B00001F000FEE02001F0FDFD002001F0FAFD3A
:1024C000F32001F0F7FD002001F0F4FDE12001F020
:1024D000FDFD162001F0EEFD002001F0EBFD1C20BB
:1024E00001F0E8FD002001F0E5FD222001F0E2FD11
:1024F000002001F0DFFD362001F0DCFD002001F0BE
:10250000D9FD452001F0D6FD002001F0D3FD522079
:1025100001F0D0FD002001F0CDFD642001F0CAFDE6
:10252000002001F0C7FD7A2001F0C4FD002001F079
:10253000C1FD8B2001F0BEFD002001F0BBFD992004
:1025400001F0B8FD002001F0B5FDA82001F0B2FDBA
:10255000002001F0AFFDB92001F0ACFD002001F03A
:10256000A9FDC42001F0A6FD002001F0A3FDCA20B2
:1025700001F0A0FD002001F09DFDD22001F09AFDA8
:10258000002001F097FDD82001F094FD002001F01B
:1025900091FDE02001F08EFD002001F08BFDF32085
:1025A00001F088FD002001F085FDE22001F08EFDA4
:1025B000052001F07FFD002001F07CFD0B2001F0E3
:1025C00079FD002001F076FD1B2001F073FD002055
:1025D00001F070FD342001F06DFD002001F06AFD76
:1025E000442001F067FD002001F064FD4F2001F060
:1025F00061FD002001F05EFD612001F05BFD002027
:1026000001F058FD792001F055FD002001F052FD48
:10261000882001F04FFD002001F04CFD972001F0D3
:1026200049FD002001F046FDA62001F043FD0020F9
:1026300001F040FDB72001F03DFD002001F03AFD22
:10264000C22001F037FD002001F034FDC72001F069
:1026500031FD002001F02EFDD12001F02BFD0020E6
:1026600001F028FDD62001F025FD002001F022FD1B
:10267000DD2001F01FFD002001F01CFDF32001F022
:1026800019FD002001F016FDE32001F01FFD0520DB
:1026900000E00CE301F00EFD002001F00BFD0A202C
:1026A00001F008FD002001F005FD1C2001F002FDF5
:1026B000002001F0FFFC332001F0FCFC002001F0C1
:1026C000F9FC442001F0F6FC002001F0F3FC50205E
:1026D00001F0F0FC002001F0EDFC622001F0EAFCCA
:1026E000002001F0E7FC782001F0E4FC002001F07C
:1026F000E1FC882001F0DEFC002001F0DBFC9720EB
:1027000001F0D8FC002001F0D5FCA62001F0D2FC9D
:10271000002001F0CFFCB72001F0CCFC002001F03C
:10272000C9FCC22001F0C6FC002001F0C3FCC72098
:1027300001F0C0FC002001F0BDFCD12001F0BAFC8A
:10274000002001F0B7FCD52001F0B4FC002001F01E
:10275000B1FCDD2001F0AEFC002001F0ABFCF32069
:1027600001F0A8FC002001F0A5FCE42001F0AEFC83
:10277000012001F09FFC002001F09CFC012001F0F1
:1027800099FC002001F096FC022001F093FC00204F
:1027900001F090FC2A2001F08DFC002001F08AFC61
:1027A0003C2001F087FC002001F084FC4B2001F06C
:1027B00081FC002001F07EFC5D2001F07BFC00200C
:1027C00001F078FC742001F075FC002001F072FC2F
:1027D000842001F06FFC002001F06CFC932001F0DC
:1027E00069FC002001F066FCA22001F063FC0020DF
:1027F00001F060FCB32001F05DFC002001F05AFC08
:10280000BE2001F057FC002001F054FCC42001F070
:1028100051FC002001F04EFCCD2001F04BFC0020CB
:1028200001F048FCD32001F045FC002001F042FCFF
:10283000DD2001F03FFC002001F03CFCF32001F022
:1028400039FC002001F036FCE52001F03FFC0020BF
:1028500001F030FC002001F02DFC002001F02AFCEA
:10286000002001F027FC022001F024FC002001F0F0
:1028700021FC292001F01EFC002001F01BFC3C2063
:1028800001F018FC002001F015FC4B2001F012FCB7
:10289000002001F00FFC5D2001F00CFC002001F095
:1028A00009FC742001F006FC002001F003FC8420E8
:1028B00001F000FC002001F0FDFB932001F0FAFB89
:1028C000002001F0F7FBA22001F0F4FB002001F052
:1028D000F1FBB32001F0EEFB002001F0EBFBBE208A
:1028E00001F0E8FB002001F0E5FBC42001F0E2FB71
:1028F000002001F0DFFBCD2001F0DCFB002001F027
:10290000D9FBD32001F0D6FB002001F0D3FBDC2063
:1029100001F0D0FB002001F0CDFBF32001F0CAFB59
:10292000002001F0C7FBE62001F0D0FB112001F0F0
:10293000C1FB002001F0BEFB342001F0BBFB0020F6
:1029400001F0B8FB562001F0B5FB002001F0B2FB0E
:10295000762001F0AFFB002001F0ACFB772001F006
:10296000A9FB002001F0A6FB662001F0A3FB0020DC
:1029700001F0A0FB882001F09DFB002001F09AFBF4
:10298000992001F097FB002001F094FBBB2001F09F
:1029900091FB002001F08EFB992001F08BFB0020C1
:1029A00001F088FB662001F085FB002001F082FB2E
:1029B000552001F07FFB002001F07CFB552001F049
:1029C00079FB002001F076FB452001F073FB00202D
:1029D00001F070FB432001F06DFB002001F06AFB69
:1029E000442001F067FB002001F064FBE72001F0C8
:1029F0006DFB322001F05EFB002001F05BFB5520F7
:102A000001F058FB002001F055FB762001F052FB4D
:102A1000002001F04FFB662001F04CFB002001F08C
:102A200049FB672001F046FB002001F043FB6720D3
:102A300001F040FB002001F03DFB872001F03AFB54
:102A4000002001F037FB992001F034FB002001F059
:102A500031FBBB2001F02EFB002001F02BFB992065
:102A600001F028FB002001F025FB772001F022FB7C
:102A7000002001F01FFB442001F01CFB002001F0AE
:102A800019FB562001F016FB002001F013FB232058
:102A900001F010FB002001F00DFB332001F00AFBD8
:102AA000002001F007FB452001F004FB002001F0AD
:102AB00001FBE82001F00AFB002001F0FBFA0020F6
:102AC00001F0F8FA992001F0F5FA002001F0F2FA8D
:102AD000872001F0EFFA002001F0ECFA882001F0E5
:102AE000E9FA002001F0E6FA772001F0E3FA00208D
:102AF00001F0E0FA662001F0DDFA002001F0DAFAD8
:102B0000882001F0D7FA002001F0D4FAAA2001F0C1
:102B1000D1FA002001F0CEFABB2001F0CBFA002060
:102B200001F0C8FA992001F0C5FA002001F0C2FABC
:102B3000662001F0BFFA002001F0BCFA552001F038
:102B4000B9FA002001F0B6FA552001F0B3FA0020DE
:102B500001F0B0FA442001F0ADFA002001F0AAFA29
:102B6000442001F0A7FA002001F0A4FA552001F05A
:102B7000A1FA002001F09EFAE92001F0A7FAAA20AC
:102B800001F098FA002001F095FA002001F092FA85
:102B9000002001F08FFA002001F098FAAA2001F03D
:102BA00089FACF2001F092FA002001F083FA002088
:102BB00001F080FA002001F07DFA002001F07AFA9D
:102BC000002001F077FA002001F074FA002001F0F3
:102BD00071FA002001F06EFA002001F06BFA00207B
:102BE00001F068FA002001F065FA002001F062FAB5
:102BF000002001F05FFA002001F05CFA002001F0F3
:102C000059FA002001F056FA002001F053FAF020A2
:102C100001F05CFA002001F04DFA502001F04AFA70
:102C2000002001F047FA002001F044FA002001F0F2
:102C300041FAF32001F04AFA002001F03BFAF920B2
:102C400001F044FA062001F035FA102001F032FAC2
:102C5000292001F02FFA002001F02CFA3A2001F08F
:102C600035FA552001F026FA112001F02FFA6420E0
:102C700001F0EEFE292001F029FA352001F026FAB4
:102C8000002001F017FA512001F020FAFF2001F096
:102C900011FA532001F01AFA2C2001F00BFA5520FA
:102CA00001F014FA822001F005FA2C20FEE3A04284
:102CB0007DD14FF470435521184601F01DFA4FF2B3
:102CC000010BAA21584601F017FA52214FF20200D7
:102CD00001F012FA08214FF2030001F00DFA012170
:102CE0004FF2040001F008FA0D214FF4304001F0DA
:102CF00003FA0D214BF2010001F0FEF90D214BF218
:102D0000020001F0F9F934214FF4364001F0F4F9F2
:102D100034214BF2016001F0EFF934214BF20260F3
:102D200001F0EAF90D214FF4314001F0E5F90D21F0
:102D30004BF2011001F0E0F90D214BF2021001F00D
:102D4000DBF934214FF4374001F0D6F934214BF24E
:102D5000017001F0D1F934214BF2027001F0CCF98D
:102D600000214FF4324001F0C7F900214BF201205D
:102D700001F0C2F900214BF2022001F0BDF924213B
:102D80004FF4384001F0B8F924214BF6010001F06E
:102D9000B3F924214BF6020001F0AEF901214FF402
:102DA0003F4001F0A9F90F214FF4334000E0FCE36C
:102DB00001F0A2F90F214BF2013001F09DF90F2132
:102DC0004BF2023001F098F934214FF4394001F010
:102DD00093F934214BF6011001F08EF934214BF6B2
:102DE000021001F089F908214FF4354001F084F90F
:102DF00008214BF2015001F07FF908214BF20250FB
:102E000001F07AF903214FF4424001F075F92421D1
:102E10004FF43A4001F070F924214BF6012001F003
:102E20006BF924214BF6022001F066F900214FF4E2
:102E30003C4001F061F978214BF6014001F05CF96A
:102E400000214BF6024001F057F900214FF43D40BC
:102E500001F052F978214BF6015001F04DF90021B3
:102E60004BF6025001F048F900214FF43E4001F0CA
:102E700043F964214BF6016001F03EF900214FF463
:102E8000514001F039F933214DF2011001F034F9CC
:102E900000214DF2021001F02FF934214DF2031000
:102EA00001F02AF900214DF2041001F025F93A2130
:102EB0004DF2051001F020F900214DF2061001F04D
:102EC0001BF94A214DF2071001F016F900214DF2CD
:102ED000081001F011F95C214DF2091001F00CF914
:102EE00000214DF20A1001F007F981214DF20B107B
:102EF00001F002F900214DF20C1001F0FDF8A621BD
:102F00004DF20D1001F0F8F800214DF20E1001F015
:102F1000F3F8E5214DF20F1001F0EEF801214DF22A
:102F2000101001F0E9F813214DF2111001F0E4F84E
:102F300001214DF2121001F0DFF854214DF213106F
:102F400001F0DAF801214DF2141001F0D5F88221D8
:102F50004DF2151001F0D0F801214DF2161001F0DC
:102F6000CBF8CA214DF2171001F0C6F802214DF23C
:102F7000181001F0C1F800214DF2191001F0BCF851
:102F800002214DF21A1001F0B7F801214DF21B1089
:102F900001F0B2F802214DF21C1001F0ADF834211D
:102FA0004DF21D1001F0A8F802214DF21E1001F0A3
:102FB000A3F867214DF21F1001F09EF802214DF297
:102FC000201001F099F884214DF2211001F094F8BD
:102FD00002214DF2221001F08FF8A4214DF22310AE
:102FE00001F08AF802214DF2241001F085F8B72192
:102FF0004DF2251001F080F802214DF2261001F06B
:103000007BF8CF214DF2271001F076F802214DF226
:10301000281001F071F8DE214DF2291001F06CF852
:1030200002214DF22A1001F067F8F2214DF22B1027
:1030300001F062F802214DF22C1001F05DF8FE2142
:103040004DF22D1001F058F803214DF22E1001F031
:1030500053F810214DF22F1001F04EF803214DF2DC
:10306000301001F049F833214DF2311001F044F8ED
:1030700003214DF2321001F03FF86D214DF2331073
:1030800001F03AF800214FF4524001F035F83321B5
:103090004DF2012001F030F800214DF2022001F044
:1030A0002BF834214DF2032001F026F800214DF2D7
:1030B000042001F021F83A214DF2052001F01CF81E
:1030C00000214DF2062001F017F84A214DF20720A9
:1030D00001F012F800214DF2082001F00DF85C21FA
:1030E0004DF2092001F008F800214DF20A2001F00C
:1030F00003F881214DF20B2000F0FEFF00214DF27C
:103100000C2000F0F9FFA6214DF20D2000F0F4FF95
:1031100000214DF20E2000F0EFFFE5214DF20F20CF
:1031200000F0EAFF01214DF2102000F0E5FF13212D
:103130004DF2112000F0E0FF01214DF2122000F0CD
:10314000DBFF54214DF2132000F0D6FF01214DF298
:10315000142000F0D1FF82214DF2152000F0CCFFA9
:1031600001214DF2162000F0C7FFCA214DF21720B1
:1031700000F0C2FF02214DF2182000F0BDFF002137
:103180004DF2192000F0B8FF02214DF21A2000F094
:10319000B3FF01214DF21B2000F0AEFF02214DF2E2
:1031A0001C2000F0A9FF34214DF21D2000F0A4FFE7
:1031B00002214DF21E2000F09FFF67214DF21F20DB
:1031C00000F09AFF02214DF2202000F095FF8421AB
:1031D0004DF2212000F090FF02214DF2222000F05C
:1031E0008BFFA4214DF2232000F086FF02214DF237
:1031F000242000F081FFB7214DF2252000F07CFF54
:1032000002214DF2262000F077FFCF214DF227203A
:1032100000F072FF02214DF2282000F06DFFDE2148
:103220004DF2292000F068FF02214DF22A2000F023
:1032300063FFF2214DF22B2000F05EFF02214DF2E0
:103240002C2000F059FFFE214DF22D2000F054FFFC
:1032500003214DF22E2000F04FFF10214DF22F20C0
:1032600000F04AFF03214DF2302000F045FF3321EA
:103270004DF2312000F040FF03214DF2322000F0EA
:103280003BFF6D214DF2332000F036FF00214FF45B
:10329000534000F031FF33214DF2013000F02CFF9C
:1032A00000214DF2023000F027FF34214DF20330AF
:1032B00000F022FF00214DF2043000F01DFF3A2102
:1032C0004DF2053000F018FF00214DF2063000F0FD
:1032D00013FF4A214DF2073000F00EFF00214DF29E
:1032E000083000F009FF5C214DF2093000F004FFC6
:1032F00000214DF20A3000F0FFFE81214DF20B302B
:1033000000F0FAFE00214DF20C3000F0F5FEA6218F
:103310004DF20D3000F0F0FE00214DF20E3000F0C5
:10332000EBFEE5214DF20F3000F0E6FE01214DF2FB
:10333000103000F0E1FE13214DF2113000F0DCFE00
:1033400001214DF2123000F0D7FE54214DF213301E
:1033500000F0D2FE01214DF2143000F0CDFE8221AA
:103360004DF2153000F0C8FE01214DF2163000F08C
:10337000C3FECA214DF2173000F0BEFE02214DF20D
:10338000183000F0B9FE00214DF2193000F0B4FE03
:1033900002214DF21A3000F0AFFE01214DF21B3038
:1033A00000F0AAFE02214DF21C3000F0A5FE3421EF
:1033B0004DF21D3000F0A0FE02214DF21E3000F053
:1033C0009BFE67214DF21F3000F096FE02214DF268
:1033D000203000F091FE84214DF2213000F08CFE6F
:1033E00002214DF2223000F087FEA4214DF223305D
:1033F00000F082FE02214DF2243000F07DFEB72164
:103400004DF2253000F078FE02214DF2263000F01A
:1034100073FECF214DF2273000F06EFE02214DF2F7
:10342000283000F069FEDE214DF2293000F064FE04
:1034300002214DF22A3000F05FFEF2214DF22B30D6
:1034400000F05AFE02214DF22C3000F055FEFE2114
:103450004DF22D3000F050FE03214DF22E3000F0E1
:103460004BFE10214DF22F3000F046FE03214DF2AD
:10347000303000F041FE33214DF2313000F03CFE9F
:1034800003214DF2323000F037FE6D214DF2333022
:1034900000F032FE00214FF4544000F02DFE3321A5
:1034A0004DF2014000F028FE002100E081E34DF2E2
:1034B000024000F021FE34214DF2034000F01CFEDA
:1034C00000214DF2044000F017FE3A214DF2054074
:1034D00000F012FE00214DF2064000F00DFE4A21E0
:1034E0004DF2074000F008FE00214DF2084000F0C8
:1034F00003FE5C214DF2094000F0FEFD00214DF27B
:103500000A4000F0F9FD81214DF20B4000F0F4FD7E
:1035100000214DF20C4000F0EFFDA6214DF20D40D0
:1035200000F0EAFD00214DF20E4000F0E5FDE5213E
:103530004DF20F4000F0E0FD01214DF2104000F08F
:10354000DBFD13214DF2114000F0D6FD01214DF2BB
:10355000124000F0D1FD54214DF2134000F0CCFD9B
:1035600001214DF2144000F0C7FD82214DF21540BB
:1035700000F0C2FD01214DF2164000F0BDFDCA2150
:103580004DF2174000F0B8FD02214DF2184000F056
:10359000B3FD00214DF2194000F0AEFD02214DF2C5
:1035A0001A4000F0A9FD012100E005E34DF21B40A7
:1035B00000F0A2FD02214DF21C4000F09DFD3421DF
:1035C0004DF21D4000F098FD02214DF21E4000F02A
:1035D00093FD67214DF21F4000F08EFD02214DF258
:1035E000204000F089FD84214DF2214000F084FD4F
:1035F00002214DF2224000F07FFDA4214DF2234034
:1036000000F07AFD02214DF2244000F075FDB72153
:103610004DF2254000F070FD02214DF2264000F0F1
:103620006BFDCF214DF2274000F066FD02214DF2E7
:10363000284000F061FDDE214DF2294000F05CFDE4
:1036400002214DF22A4000F057FDF2214DF22B40AD
:1036500000F052FD02214DF22C4000F04DFDFE2104
:103660004DF22D4000F048FD03214DF22E4000F0B8
:1036700043FD10214DF22F4000F03EFD03214DF29D
:10368000304000F039FD33214DF2314000F034FD7F
:1036900003214DF2324000F02FFD6D214DF23340F9
:1036A00000F02AFD00214FF4554000F025FD3321A4
:1036B0004DF2015000F020FD00214DF2025000F0CB
:1036C0001BFD34214DF2035000F016FD00214DF298
:1036D000045000F011FD3A214DF2055000F00CFDB0
:1036E00000214DF2065000F007FD4A214DF207502F
:1036F00000F002FD00214DF2085000F0FDFC5C21BD
:103700004DF2095000F0F8FC00214DF20A5000F093
:10371000F3FC81214DF20B5000F0EEFC00214DF244
:103720000C5000F0E9FCA6214DF20D5000F0E4FC35
:1037300000214DF20E5000F0DFFCE5214DF20F505C
:1037400000F0DAFC01214DF2105000F0D5FC1321FD
:103750004DF2115000F0D0FC01214DF2125000F05A
:10376000CBFC54214DF2135000F0C6FC01214DF268
:10377000145000F0C1FC82214DF2155000F0BCFC49
:1037800001214DF2165000F0B7FCCA214DF217503E
:1037900000F0B2FC02214DF2185000F0ADFC002107
:1037A0004DF2195000F0A8FC02214DF21A5000F021
:1037B000A3FC01214DF21B5000F09EFC02214DF2B2
:1037C0001C5000F099FC34214DF21D5000F094FC87
:1037D00002214DF21E5000F08FFC67214DF21F5068
:1037E00000F08AFC02214DF2205000F085FC84217B
:1037F0004DF2215000F080FC02214DF2225000F0E9
:103800007BFCA4214DF2235000F076FC02214DF206
:10381000245000F071FCB7214DF2255000F06CFCF3
:1038200002214DF2265000F067FCCF214DF22750C7
:1038300000F062FC02214DF2285000F05DFCDE2118
:103840004DF2295000F058FC02214DF22A5000F0B0
:1038500053FCF2214DF22B5000F04EFC02214DF2B0
:103860002C5000F049FCFE214DF22D5000F044FC9C
:1038700003214DF22E5000F03FFC10214DF22F504D
:1038800000F03AFC03214DF2305000F035FC3321BA
:103890004DF2315000F030FC03214DF2325000F077
:1038A0002BFC6D214DF2335000F026FC00214FF42B
:1038B000564000F021FC33214DF2016000F01CFC69
:1038C00000214DF2026000F017FC34214DF203603C
:1038D00000F012FC00214DF2046000F00DFC3A21D2
:1038E0004DF2056000F008FC00214DF2066000F08A
:1038F00003FC4A214DF2076000F0FEFB00214DF26F
:10390000086000F0F9FB5C214DF2096000F0F4FB67
:1039100000214DF20A6000F0EFFB81214DF20B60B7
:1039200000F0EAFB00214DF20C6000F0E5FBA6215F
:103930004DF20D6000F0E0FB00214DF20E6000F052
:10394000DBFBE5214DF20F6000F0D6FB01214DF2CB
:10395000106000F0D1FB13214DF2116000F0CCFBA0
:1039600001214DF2126000F0C7FB54214DF21360AB
:1039700000F0C2FB01214DF2146000F0BDFB82217A
:103980004DF2156000F0B8FB01214DF2166000F019
:10399000B3FBCA214DF2176000F0AEFB02214DF2DD
:1039A000186000F0A9FB00214DF2196000F0A4FBA3
:1039B00002214DF21A6000F09FFB01214DF21B60C5
:1039C00000F09AFB02214DF21C6000F095FB3421BF
:1039D0004DF21D6000F090FB02214DF21E6000F0E0
:1039E0008BFB67214DF21F6000F086FB02214DF238
:1039F000206000F081FB84214DF2216000F07CFB0F
:103A000002214DF2226000F077FBA4214DF22360E9
:103A100000F072FB02214DF2246000F06DFBB72133
:103A20004DF2256000F068FB02214DF2266000F0A7
:103A300063FBCF214DF2276000F05EFB02214DF2C7
:103A4000286000F059FBDE214DF2296000F054FBA4
:103A500002214DF22A6000F04FFBF2214DF22B6063
:103A600000F04AFB02214DF22C6000F045FBFE21E4
:103A70004DF22D6000F040FB03214DF22E6000F06E
:103A80003BFB10214DF22F6000F036FB03214DF27D
:103A9000306000F031FB33214DF2316000F02CFB3F
:103AA00003214DF2326000F027FB6D214DF23360AF
:103AB00000F022FB5521184600F01EFBAA215846B3
:103AC00000F01AFB52214FF2020000F015FB082112
:103AD0004FF2030000F010FB00214FF2040000F051
:103AE0000BFBCC214FF4314000F006FB00214BF2E0
:103AF000011000F001FB05214FF4364000F0FCFA04
:103B000070214FF4374000F0F7FA70214BF201704A
:103B100000F0F2FA01214FF4384000F0EDFA0321F1
:103B20004BF6010000F0E8FA03214BF6020000F02A
:103B3000E3FA03214BF6030000F0DEFA02214FF412
:103B40003C4000F0D9FA00214BF6014000F0D4FAD5
:103B500000214BF6024000F0CFFAD0214FF449404B
:103B600000F0CAFA02214CF6011000F0C5FA50210B
:103B70004CF6021000F0C0FA50214CF6031000F091
:103B8000BBFA50214CF6041000F0B6FA00214FF4B5
:103B9000545000F0B1FA55214FF4685000F0ACFADF
:103BA0004FF4885000F092FA782000F05FFF4FF455
:103BB000245000F08BFAB9E0B842FCD1E22000F0CA
:103BC00085FA1D2000F076FA022000F073FA042036
:103BD00000F070FA642000F049FFE02000F076FA6F
:103BE000012000F067FA0A2000F032FFE02000F028
:103BF0006DFA032000F05EFA0C2000F029FF01208E
:103C000000F064FA0A2000F023FFE62000F05EFADC
:103C10002F2000F04FFAFF2000F04CFAFF2000F0B8
:103C200049FAB02000F052FA202000F043FA0020B8
:103C300000F040FA032000F03DFA40F21F3000F09F
:103C400039FA012000F036FA40F2DF1000F032FAC3
:103C5000002000F02FFAB42000F038FA042000F021
:103C600029FA40F21F4000F025FA002000F022FA65
:103C70002E2000F01FFA002000F01CFA002000F0B7
:103C800019FA002000F016FA002000F013FAB6200E
:103C900000F01CFA022000F00DFA4FF4037000F05F
:103CA00009FA002000F006FA172000F003FA1520A8
:103CB00000F000FA002000F0FDF9002000F0FAF911
:103CC000F02000F003FA032000F0F4F9292000F0BE
:103CD000FDF9D02000F0FAF9002000F0EBF9BE2049
:103CE00000F0F4F9052000F0E5F9FE2000F0E2F91B
:103CF000012000F0DFF9002000F0DCF9002000F0E6
:103D0000D9F9002000F0D6F9B82000F0DFF903203F
:103D100000F0D0F9012000F0CDF9BA2000F0D6F97A
:103D2000012000F0C7F9642000F03EF8B8F8040064
:103D3000504505D0B04203D0A04201D0B84217D1BF
:103D4000D5F8040120F00F00C5F80401D5F80401EE
:103D500020F47060C5F80401D5F8040140F00400B7
:103D6000C5F80401D5F8040140F48060C5F80401E9
:103D70000020FDF7D5FD042000F03EF80449C1F80D
:103D800094920020FDF7B2FD15B0BDE8F08F000061
:103D900000804042034808B50088ADF80000BDF837
:103DA000000008BD0000086010B50246BE2000F00B
:103DB0008DF9052000F07EF9104600F004FF9FED1C
:103DC0000C1B53EC112B00F011FF00F0CFFE80B262
:103DD00000F070F9012000F06DF9FF2000F06AF9A1
:103DE000002000F067F9BDE81040002000F062B943
:103DF0006666666666660440F0B56C4D002329462B
:103E0000AA79898841F66314012A01D01AB11BE00E
:103E1000A14202D118E0A14216D1082814D2DFE84D
:103E200000F00406080A0C0E101206200CE0072011
:103E30000AE0042008E0052006E0012004E000205C
:103E400002E0032000E00220A1F5134745F2103202
:103E500045F21056413F05D0914203D0B14201D006
:103E6000A14277D1082812D2DFE800F01104060839
:103E70000A0C0E1080230AE0402308E0C02306E06D
:103E8000202304E0602302E0A02300E0E023B1420D
:103E900002D14FF4585000E03620914205D0B14293
:103EA00003D0A14201D043F00803194600F024F9E1
:103EB000AA88A2420AD098062888698802D5884232
:103EC00002D303E0884201D9298068806889B24220
:103ED00041D100F0FBF8002000F0ECF86889401CAC
:103EE00080B200F0F3F8002000F0E4F86889801C4C
:103EF00080B200F0EBF82888401EC0F30F2000F0DD
:103F0000D9F86889C01C80B200F0E0F82878401E1B
:103F1000C0B200F0CFF8A88900F0D8F8002000F077
:103F2000C9F8A889401C80B200F0D0F8002000F049
:103F3000C1F8A889801C80B200F0C8F86888401ECB
:103F4000C0F30F2000F0B6F8A889C01C80B200F0C2
:103F5000BDF822E028E000F0B9F8002000F0AAF84F
:103F6000002000F0A7F82888401EC0F30F2000F0C2
:103F7000A1F82878401EC0B200F09CF8A88900F093
:103F8000A5F8002000F096F8002000F093F868886B
:103F9000401EC0F30F2000F08DF8A878BDE8F04077
:103FA000401EC0B200F086B8F0BD0000DC01002069
:103FB000F0B53F4D0C460246060AA9882846270A56
:103FC0004089A1F51343413B28D0A1F5A643103BFE
:103FD00024D0A1F5C853633B2FD0A1F5AA43103BD1
:103FE00064D100F073F8304600F064F86889401C32
:103FF00080B200F06BF8D0B200F05CF8A88900F055
:1040000065F8384600F056F8A889401C80B200F0E8
:104010005DF8E0B2BDE8F04000F04CB800F056F8B2
:10402000304600F047F8D0B200F044F8A88900F01C
:104030004DF8384600F03EF8EBE7A97929B300F0D7
:1040400045F8304600F036F8D0B200F033F8288852
:10405000401EC0F30F2000F02DF82878401EC0B29B
:1040600000F028F8A88900F031F8384600F022F86E
:10407000E0B200F01FF86888401EC0F30F2000F087
:1040800019F8A878401EC0B2C4E72988891A491EC9
:104090008AB200F01BF8002000F00CF8002000F0BD
:1040A00009F8100A00F006F8D0B2D9E7F0BD000018
:1040B000DC01002001B5BDF80000ADF80000BDF83E
:1040C00000000149088008BD0000086001B5BDF886
:1040D0000000ADF80000BDF800000149088008BDEF
:1040E000FEFF07600248034900890880704700000E
:1040F000DC010020FEFF0760024A1080901C018056
:1041000070470000FEFF0760114810B5016886B0D7
:1041100041F48071016000680E4C00F480700590DD
:1041200060200090012001900290032003906946D6
:104130002046FCF74DFB012220212046FCF736FCEF
:10414000012240212046FCF731FC06B010BD0000E2
:104150003038024000200240FEE7000070B52549DB
:10416000064686B00868002540F00100086008682F
:1041700000F0010005901F481030016841F4003143
:1041800001600068012100F40030059004200090D7
:104190000220CDE9010103900720174C04906946E5
:1041A0002046FCF715FB0820009069462046FCF7E6
:1041B0000FFB134C11482060C4E90165E5600C2039
:1041C0002561C4E905052046FDF787FA2068C16826
:1041D00021F04001C1602068C16841F02001C16048
:1041E0002620FCF726FC022211462620FCF72CFC98
:1041F00006B070BD3038024000000240004400406C
:104200004C010020704700001CB50FA00522D0E92A
:104210000010CDE900106946302000F0E3F80522D7
:104220006946102000F07EF8002069460A5CA52A45
:1042300003D1401CC0B20528F8D3052801D00120C5
:104240001CBD00201CBD0000A5A5A5A5A500000063
:1042500030B51A4887B00025016841F010010160AF
:10426000016801F010010591016841F04001016011
:104270000068012400F0400005904FF4A050CDE903
:1042800000040320CDE9024069460D48FCF7A0FA7E
:104290000820CDE9000569460A48FCF799FA00F0C4
:1042A000E7F800F089F8102000F01AF90648C0F885
:1042B000B052C0F8A84207B030BD0000303802400C
:1042C00000180240001002400000434210B5134C99
:1042D0000020C4F8B002052211492A2004F52C74EC
:1042E00000F080F80121212000F09AF8012122201D
:1042F00000F096F82821252000F092F820213120A6
:1043000000F08EF80F21262000F08AF80F212020DF
:1043100000F086F80120206010BD0000000043423C
:10432000074E00082DE9F0410C4F0E4600211546BE
:10433000C7F8A81200F0C4F88046002405E0FF206A
:1043400000F0BEF83055641CE4B2AC42F7D3012053
:10435000C7F8A8024046BDE8F081000000004342D3
:1043600010B5074C0021C4F8A81204F52A7400F017
:10437000A7F8FF2000F0A4F80121216010BD000083
:104380000000434270B505460720FFF7E9FF0446E9
:104390000146272000F044F860060AD5202229466D
:1043A0006120FFF7BFFFFF21E22000F039F8002075
:1043B00070BD012070BD000010B5094C2068016877
:1043C00021F0400101600020206160612046FCF77F
:1043D000C3FE2068016841F04001016010BD00008B
:1043E000DC0200202DE9F0410C4F0D46002116465D
:1043F000C7F8A81200F064F88046002405E015F81C
:10440000010B00F05DF8641CE4B2B442F7D3012064
:10441000C7F8A8024046BDE8F08100000000434212
:1044200070B50D46084C01460020C4F8A8020846A5
:1044300004F52A7400F044F80646284600F040F8D7
:1044400001202060304670BD000043420907090E7C
:10445000002806DA00F00F0000F1E02080F8141DBB
:10446000704700F1E02080F80014704770470000AA
:1044700010B5124C1048022120604FF48270606029
:104480000020A060C4E90301012161614902A1612A
:104490003821C4E907106062A0620720E06220466C
:1044A000FCF75AFE2068016841F040010160BDE858
:1044B0001040FF2000F004B800340140DC0200206E
:1044C00001B582B04FF47A700090012301AA02A9CD
:1044D0000248FCF7ABFE9DF804000EBDDC02002094
:1044E0000B4A10B511680B6823F040030B6011688C
:1044F0000B684FF6C77423400B6011680B680343C9
:104500000B601068016841F04001016010BD0000BF
:10451000DC0200202DE9F0471D4690460F46044678
:10452000FCF74AFA06465FEA08004FF000084FF42D
:10453000005A4FF0010926D034E0681C23D025B181
:10454000FCF73AFA801BA8421DD92068416821F087
:10455000E00141602068016821F040010160A06A2B
:10456000504509D12068016821F40051016020689C
:10457000016841F40051016084F8519084F8508042
:104580000320BDE8F0872068806837EA0000D4D1B6
:104590000DE0681C06D0002DD7D0FCF70DFA801B6B
:1045A000A842D2D82068806837EA0000F1D0002005
:1045B000E7E7704770B51E4C92B00025266846F0BC
:1045C00080562660246804F080541194194C2668A3
:1045D00046F44046266024680DF1240C04F440445F
:1045E0001194012400940194022406948CE80D0097
:1045F0006605CDE907616846FCF720FC00B1FEE7DF
:10460000FCF754FA00B1FEE70CA90F2081E8310055
:104610004FF4A0500F904FF48050109005210CA83B
:10462000FCF788FA002800D0FEE712B070BD000049
:104630004038024000700040FCF7C4B910480168DF
:1046400041F4700101600F48016841F0010101600F
:104650000C4A00210832116002680B4B1A400260BC
:10466000031D0A4A1A60026822F48022026005488B
:104670000C3001600249580680390860704700001C
:1046800088ED00E000380240FFFFF6FE1030002405
:1046900010B590F83910222903D0322901D0022018
:1046A00010BD8168B1F5805F11D0016900290168F2
:1046B0001FD0496801F07F03816A4A1C82620B7037
:1046C000C18D491E0904090CC18518D02FE002696B
:1046D000816A002A0268526805D0D2B20A80816AD3
:1046E000491C8162ECE7C2F308020A80816A891CD6
:1046F000F7E74A68816A4B1C83620A70E0E7016849
:10470000CA6822F02002CA6090F83910322910D00D
:104710000168CA6822F48072CA6001684A6922F09E
:1047200001024A61012180F83910FDF7B4F8002038
:1047300010BD1221F7E700002DE9F04104460068A2
:104740000169E26821F440510A4302612068C168AE
:1047500049F20C6291432369A268E5691A436369CF
:104760002B431A430A43C2602068416921F4407216
:10477000A16911434161E06964263225B0F5004F1B
:10478000484A494920681DD0884201D0904269D1E9
:10479000FCF704FB00EBC00101EB00106168B046C0
:1047A0008900B0FBF1F1B1FBF8F6FCF7F7FA00EB8A
:1047B000C00101EB001061688900B0FBF1F7FCF764
:1047C000EDFA68E0884201D0904219D1FCF7E6FA90
:1047D00000EBC00101EB00106168B0464900B0FB7E
:1047E000F1F1B1FBF8F6FCF7D9FA00EBC00101EBEF
:1047F000001061684900B0FBF1F7FCF7CFFA18E050
:10480000FCF7B6FA00EBC00101EB00106168B0469E
:104810004900B0FBF1F1B1FBF8F6FCF7A9FA00EBA7
:10482000C00101EB001061684900B0FBF1F7FCF733
:104830009FFA00EBC00101EB001061684900B0FB7A
:10484000F1F1B1FBF8F06FF01801484307EB80007D
:1048500005EB0011B1FBF8F0216866F31F108860CA
:10486000BDE8F081FCF784FA00EBC00101EB001019
:104870006168B0468900B0FBF1F1B1FBF8F6FCF7D6
:1048800077FA00EBC00101EB001061688900B0FB12
:10489000F1F7FCF76DFA00EBC00101EB0010616865
:1048A0008900CCE7001401400010014090F8391055
:1048B000122903D0322901D0022070478168B1F556
:1048C000805F016A0BD04A1C02620268097851605D
:1048D000C18C491E0904090CC1840ED017E0098857
:1048E0000268C1F30801516001690029016A02D020
:1048F000491C0162ECE7891CFBE70168CA6822F0E9
:104900008002CA600068C16841F04001C1600020B7
:1049100070472DE9F0471D4690460F460446FCF7C8
:104920004BF806465FEA08004FF000094FF0010817
:1049300008D030E0681C05D095B1FCF73DF8801B2D
:10494000A8420DD82068006837EA0000F2D127E0BD
:10495000681C20D025B1FCF72FF8801BA8421AD97B
:104960002068C16821F08001C1602068C16821F021
:104970002001C1602068C16821F48071C160206895
:10498000416921F00101416184F8398084F838904F
:104990000320BDE8F0872068006837EA0000D7D020
:1049A0000020F6E738B5184800680068C043800664
:1049B00022D44FF47A73012269461348FCF706FFAC
:1049C000124A5088010417D441049DF800104FF09A
:1049D000000304D50A290ED140F4004012E00D294D
:1049E0000ED0C0F30D04084D401CC83D80B22955BF
:1049F0005080C72800D953800348FCF7F4FD38BD28
:104A000040F480405080F7E70C0100201C0000209B
:104A100007480168890606D5011D0968662902D183
:104A2000044A01211170016821F0200101607047E2
:104A3000004400401C000020FEE7704710B504460B
:104A40000420FCF7AFFD0148046010BD18000020F1
:104A500070B5054600244FF47A7603E0304600F046
:104A600005F8641CAC42F9D370BD000070B54FF07E
:104A7000E02500216C69094AAB6912685043AA69B4
:104A80009A42FCD002D2A3EB020302E0A4EB02069E
:104A90003344194413468142F1D370BD18000020FD
:104AA00003490A685206FCD5C2B24A60704700004A
:104AB00000100140FBF78EFF0823022219214FF45A
:104AC000B470FFF777FDB420FFF7B8FF4FF4E1347F
:104AD000204600F039F82046FFF740FBFFF714FBB3
:104AE000FCF7DCFEFCF788FFFFF7B2FB134C08E095
:104AF000D4F8980200B30020C4F89802C820FFF749
:104B0000A7FFFFF781FB0028F2D1FFF7DFFB0120B1
:104B1000C4F898020A4C0B4D0948FFF733FC0028F3
:104B2000FAD12118225C497801EB02212980801CEE
:104B300080B22028F5D3EFE70120DDE700004442F2
:104B400024000020000008600749064AC1E900204F
:104B500000208860C860086188610C2048610846B0
:104B6000FCF7BBBD001001400C0100204FEA1153BF
:104B7000A3F58063D3F11E03A8BFD3F1200C08DB9B
:104B80004FF0004242EAC12252EA505232FA03F098
:104B9000704709420BD4102BC4BF0020704703F5A7
:104BA000787CBCF1FF3F05D04FF0FF3070474FF0ED
:104BB0000000704770B500F0C3F800BF4992248030
:104BC00000207047F0E7B0FA80F310FA03F10AD042
:104BD000C3F11D0303F580634FEA41504FEA0352CE
:104BE00002EBD12170474FF000007047DFF848C159
:104BF00070B51CEA111E1EBF1CEA13159EEA0C0FAD
:104C000095EA0C0F00F06F8081EA030423EA4C134D
:104C10004EEAD47E21EA4C1141F4801143F4801312
:104C2000AE44A1FB024CA0FB0365AEF17F7E3619BA
:104C300055EB0C05A1FB034C4CF10003A0FB021C3F
:104C400016EB0C06654153F10003094218BF46F00C
:104C5000010613F4007F0BD14FEA03314FEA053010
:104C6000340341EA155140EA16506FF003020AE09E
:104C70004FEAC3214FEAC520F40241EA555140EA08
:104C800056506FF0020202EB2E4201EB025585EA0C
:104C9000CE710AD05FEA440C18BF24F0004450F1F2
:104CA000000041F1000120EAD47040F2FE7C624530
:104CB00000D270BDA84214BF4FF080444FF0404472
:104CC000002E08BF0024BEF1806FA8BFA1F1C04133
:104CD000BDE8704080F282804FF0000001F1C041D9
:104CE00001F0004170479EEA0C0F0CEA131518BF43
:104CF00095EA0C0F06D04FF0000081EA030E0EF08B
:104D0000004170BD00F01CF88900013E00F007B8BA
:104D100000F009B84FEA430C5FEA5C5C08D081EA16
:104D2000030100F05BB84FEA410C5FEA5C5CF6D12E
:104D30004FF00000014970470000FF070000F87FB6
:104D40000EF1020E2EF0030E5EF8046B364205D40F
:104D5000012A43EB030515F5001F12D8012841EB8A
:104D6000010C1CF5001F0CD80ED14FEAD17C15F5B3
:104D7000001F0CEB4C0C0CF1020C08BF4CEBD37C6D
:104D800004E04FF0080C01E04FEAD37C0CEB4C053B
:104D900026FA05F606F00706B6F1040C06D20EEB6D
:104DA000860CBDE870404CF0010C6047DFE80CF069
:104DB000090B02024FF000414FF00000A1F5002165
:104DC00070BD19461046012851EB010418BFD4F5F7
:104DD000001484BF002001F0004170BD0808A0F558
:104DE00000114FEA310170474FF04070E1EE100AB8
:104DF00070470000000001020304010203040607DB
:104E00000809232332320123233232013031323375
:104E100034353637383941424344454640305800EE
:104E20003031323334353637383961626364656620
:104E300040307800544E000800000020240000009C
:104E4000E8010008784E000824000020CC0900008A
:104E5000040200080024F40000000000000000002C
:104E6000010203040607080900000000000000001A
:084E700000000000000000003A
:04000005080001AD41
:00000001FF
