:020000040800F2
:1000000098070020D5010008454900084309000869
:10001000C5480008B7040008E754000800000000C5
:10002000000000000000000000000000854E0008F5
:10003000B906000800000000F14B0008994F0008C5
:10004000EF010008EF010008EF010008EF010008D0
:10005000EF010008EF010008BB060008EF010008EF
:10006000C5060008CF060008D9060008EF01000801
:10007000EF010008EF010008EF010008EF010008A0
:10008000BB040008EF010008EF010008EF010008C1
:10009000EF010008EF010008EF010008E306000887
:1000A000EF01000859500008EF010008EF010008B7
:1000B000EF010008EF010008EF010008EF01000860
:1000C000EF010008EF010008EF010008EF01000850
:1000D000EF0100082D520008EF010008EF010008B1
:1000E000EF010008EF010008EF010008EF01000830
:1000F000EF010008EF010008EF010008EF01000820
:10010000EF010008EF010008EF010008EF0100080F
:10011000EF010008EF010008EF010008EF010008FF
:10012000EF010008EF010008EF010008EF010008EF
:1001300000F002F800F03FF80AA090E8000C8244BA
:100140008344AAF10107DA4501D100F034F8AFF297
:10015000090EBAE80F0013F0010F18BFFB1A43F0A5
:10016000010318474459000064590000103A24BFA5
:1001700078C878C1FAD8520724BF30C830C144BF0C
:1001800004680C607047000000230024002500264E
:10019000103A28BF78C1FBD8520728BF30C148BFEA
:1001A0000B607047782900F04380002070471FB52E
:1001B0001FBD10B510BD00F053F91146FFF7F7FF52
:1001C00005F012FA00F071F903B4FFF7F2FF03BC77
:1001D00005F08BF90948804709480047FEE7FEE72C
:1001E000FEE7FEE7FEE7FEE7FEE7FEE7FEE7FEE7E7
:1001F00004480549054A064B704700009D4F00081A
:100200003101000898010020980700209803002081
:1002100098030020704700000FB4044910B503AAEA
:10022000029800F0EBF810BC5DF814FB0800002009
:1002300070B504460D4621461068AFF30080218852
:10024000090502D50F4A7A4402E00E4A7A440E327A
:10025000002104F1240305E000F00F060009965D7B
:100260005E54491C0028F7D120780023000704D5EC
:10027000702D02D009B1022311322046BDE8704032
:1002800000F062B8345800002DE9F0410F460546F1
:10029000002028622846E968884770B3252805D0E1
:1002A000D5E901219047286A401CF2E7E968284611
:1002B000002688476C2804460AD0682C08D04C2CAD
:1002C00035D06A2C31D0742C31D07A2C2FD016E056
:1002D000E968064628468847B042044608D16C2E95
:1002E00023D04FF480662846E9688847044606E034
:1002F0006C2E03D04FF4807601E01EE04026E4B17E
:10030000A4F14100192802D8203446F400663A4688
:10031000214628462E60FFF745FF60B1012808D02E
:10032000FF1D27F007070837B4E78026DBE7002624
:10033000D9E73F1DAEE72046B2E7286ABDE8F08165
:1003400070477047704770472DE9F0470D46994652
:100350009246044600F124080168880604D5E06945
:1003600021F01001216000E00120A84201DD471BBF
:1003700000E00027A1697A1902EB0900081AA061C0
:100380002078C00602D42046AFF30080002608E0A3
:10039000D4E901211AF806009047206A401C761C17
:1003A00020624E45F4DB2078C0060AD52046AFF324
:1003B000008006E0D4E9012130209047206A401CEB
:1003C0002062381EA7F10107F4DC07E0D4E901211F
:1003D00018F805009047206A401C2062281EA5F1ED
:1003E0000105F3DC2046AFF300802078000602D53B
:1003F0000220BDE8F0870120FBE70000074B70B545
:100400000D467B4400F011F80446284600F020F821
:1004100010B14FF0FF3070BD204670BDC7510000D5
:1004200001694A1C02610878704700B58FB0CDE9B8
:1004300001310021059105497944CDE903101146A8
:100440006846FFF721FF0FB000BD0000E5FFFFFF8A
:10045000007B00F0800070470048704738010020A2
:100460007546FFF7F9FFAE4605006946534620F092
:100470000700854618B020B5FFF7BAFEBDE820405A
:100480004FF000064FF000074FF000084FF0000B50
:1004900021F00701AC46ACE8C009ACE8C009ACE803
:1004A000C009ACE8C0098D4670470446AFF3008030
:1004B0002046FFF789FE00BFFEE710B54FF400703D
:1004C00000F0C6F818B14FF4007000F001F810BD4C
:1004D00000F0805111B10349086001E00249486011
:1004E00070470000040402400000024021B102688D
:1004F00042F00102026004E002684FF6FE731A4007
:100500000260704701684FF6FE72114001600021E1
:10051000016041608160C1604B49884208D14A490D
:100520000839496841F00F01474A083A51608AE0AA
:1005300045491431884208D143490839496841F096
:10054000F001414A083A51607DE03F492831884234
:1005500008D13D490839496841F470613A4A083A7E
:10056000516070E038493C31884208D13649083939
:10057000496841F47041344A083A516063E03249B5
:100580005031884208D130490839496841F4702116
:100590002D4A083A516056E02B496431884208D10F
:1005A00029490839496841F47001274A083A5160DD
:1005B00049E025497831884208D1234908394968FA
:1005C00041F07061204A083A51603CE01F4988427E
:1005D00006D1011F096841F00F01021F116032E0CE
:1005E0001A491431884208D11849091F096841F095
:1005F000F001164A121F116025E014492831884283
:1006000008D11249091F096841F470610F4A121F8D
:10061000116018E00D493C31884208D10B49091F8F
:10062000096841F47041094A121F11600BE0074943
:100630005031884207D10549091F096841F47021EA
:10064000024A121F1160704708000240080402406D
:1006500001460020002201F0805313B1054B1A68B7
:1006600001E0054B1A6802EA01030BB1012000E02A
:1006700000207047000402400000024010B5002234
:10068000026847F6F0739A430C6A8B6823430C693F
:1006900023434C6923438C692343CC6923434C6A2D
:1006A00023438C6A23431A430260CB6843600B6880
:1006B00083604B68C36010BD704710B5012000F027
:1006C00015F810BD10B5042000F010F810BD10B5DD
:1006D000082000F00BF810BD10B5102000F006F84F
:1006E00010BD10B5402000F001F810BD01490860B0
:1006F000704700001404014051B18200A2F1C042D1
:10070000126842F001038200A2F1C042136009E0C6
:100710008200A2F1C0421268034B1A408300A3F189
:10072000C0431A6070470000FEFF0F00D0E90112BD
:100730001143C2681143026911434269114382693E
:100740001143C2691143026A1143426A1143826A2A
:100750001143C26A1143026B114302689200A2F175
:10076000C0421160816808290BD101688900A1F19C
:10077000C041096841F0400201688900A1F1C0410F
:100780000A60416B0968426B526841EA0211426B90
:10079000926841EA0221426B928941EA0241426B2E
:1007A000128A41EA0251426B127D41EA0261426BB8
:1007B000926911430268521C9200A2F1C04211607A
:1007C000C16AB1F5804F1BD1816B0968826B526899
:1007D00041EA0211826B926841EA0221826B128A1D
:1007E00041EA0251826B127D41EA0261826B926999
:1007F000114302689200A2F1C042C2F8041107E05E
:100800006FF0704201688900A1F1C041C1F8042174
:1008100070472DE9F0410246002500260020002304
:100820000024002791F803C00CF00F0591F803C0D5
:100830000CF0100CBCF1000F03D091F802C04CEA90
:10084000050591F800C0BCF1000F31D014680020FC
:100850002BE04FF0010C0CFA00F3B1F800C00CEAE9
:1008600003069E4220D183004FF00F0C0CFA03F7D1
:10087000BC4305FA03FC4CEA040491F803C0BCF144
:10088000280F06D14FF0010C0CFA00FCC2F814C07E
:100890000AE091F803C0BCF1480F05D14FF0010CFC
:1008A0000CFA00FCC2F810C0401C0828D1D3146018
:1008B000B1F800C0BCF1FF0F34DD546800202EE019
:1008C00000F1080C4FF0010808FA0CF3B1F800C071
:1008D0000CEA03069E4221D183004FF00F0C0CFA64
:1008E00003F7BC4305FA03FC4CEA040491F803C087
:1008F000BCF1280F05D100F1080C08FA0CF8C2F879
:10090000148091F803C0BCF1480F07D100F1080C26
:100910004FF0010808FA0CF8C2F81080401C0828B3
:10092000CED35460BDE8F0810246002093680B40AE
:100930000BB1012000E00020704741617047016168
:10094000704700BFFEE7000008B50121442004F015
:1009500071F91C20ADF8000048208DF803006946AD
:100960000648FFF756FF0120ADF8000028208DF85B
:10097000030069460248FFF74CFF08BD001801401C
:100980000008014070B504460026174805884088D5
:1009900045431548808846F60401884216D112481E
:1009A0008079012812D100200F4988712A204881BE
:1009B0002B2088810021084603F06CFE01200A49A3
:1009C00088712B2048812A20888103E00021084675
:1009D00003F060FE03F03EFF002602E003480480BF
:1009E000761CAE42FAD370BD980000200008006C5F
:1009F00010B50446002C66D16C498871F02008803F
:100A00004FF4A07048800846808849F241318842FE
:100A10000BD06648808846F60401884205D06348BA
:100A2000808845F2103188421AD12C205F49088114
:100A30002A2048812B2088810846808846F60401B8
:100A4000884205D05948808845F21031884206D145
:100A50004FF4A070554908804FF4F0704880A1E031
:100A60005248808845F21051884210D14FF43050DE
:100A70004E4908814FF4285048814FF42C5088810A
:100A80004FF4F07008804FF4487048808AE047487F
:100A9000808841F6631188420DD12C20434908819A
:100AA0002B2048812A2088814FF4F07008804FF471
:100AB0004870488076E022203C4908812020488107
:100AC000212088816EE00120384988714FF4A070A0
:100AD0000880F02048800846808849F241318842E9
:100AE00005D03248808845F21031884207D12C2049
:100AF0002E4908812A2048812B2088813FE02B48FD
:100B0000808846F60401884207D12C2027490881B5
:100B10002B2048812A20888131E02448808845F2B2
:100B20001051884210D14FF43050204908814FF4C1
:100B3000285048814FF42C5088814FF44870088029
:100B40004FF4F07048801AE01848808841F663112D
:100B500088420DD12C20154908812A2048812B205C
:100B600088814FF4487008804FF4F070488006E0A8
:100B700022200E49088121204881202088810B48AD
:100B8000808846F60401884205D00848808845F2EE
:100B90001031884206D14FF4F070044908804FF4B8
:100BA000A0704880002003F0FFFB10BD98000020DB
:100BB00000B59FB00121080204F01CF801214FF498
:100BC000B47004F037F80120ADF8780010208DF8EB
:100BD0007B0003208DF87A001EA9FE48FFF719FE5E
:100BE0004CF23370ADF8780018208DF87B000320AC
:100BF0008DF87A001EA9F848FFF70BFE4FF68070BB
:100C0000ADF8780018208DF87B0003208DF87A006D
:100C10001EA9F248FFF7FDFD41F20100ADF8780092
:100C200018208DF87B0003208DF87A001EA9EC486F
:100C3000FFF7EFFD01200890002009900F200A9097
:100C400000200B900C900D900E90019002900320CC
:100C500003900020049005900690079006200F90C6
:100C600000201090119010201290002013901590E9
:100C70001490169017904FF48050189000201990FF
:100C80004FF480401A9000201B9008A81C9001A8E7
:100C90001D900FA8FFF74AFD01210620FFF72CFD4C
:100CA000322004F047FC002003F048FBCD49888047
:100CB00008468088FF280ADB084680884FF6FF71C7
:100CC000884204D0C7488088B0F5134F7ED1D32026
:100CD00003F0BAFD03F028FBC249888003F024FB2F
:100CE000C049888003F020FBBE4988800846808880
:100CF0004FF6FF7101EA0020BA49888003F014FB27
:100D0000B84989880843B74988800846808849F2ED
:100D1000413188425AD0BF2003F096FD03F004FB16
:100D2000B049888003F000FBAE49888003F0FCFAEC
:100D3000AC49888003F0F8FAAA4988800846808880
:100D40004FF6FF7101EA0020A649888003F0ECFA13
:100D5000A44989880843A34988800846808846F6C4
:100D6000040188427AD0D42003F06EFD03F0DCFA4F
:100D70009C49888003F0D8FA9A49888003F0D4FA15
:100D800098498880084680884FF6FF7101EA002064
:100D90009449888003F0C8FA9249898808439149A8
:100DA00088800846808845F21031884256D04FF43A
:100DB0005A4003F049FD03F0B7FA8A4988804FF49E
:100DC0005B4003F041FD03F0AFFA00E046E08549E7
:100DD0008880084680884FF6FF7101EA002081492B
:100DE00088804FF45C4003F02FFD03F09DFA7D49AD
:100DF000898808437B49888008468088B0F5004F81
:100E000002D145F2105088807648808845F2105112
:100E1000884223D0A12003F017FD03F085FA714921
:100E2000888003F081FA6F498880084680884FF6F1
:100E3000FF7101EA00206B49888003F075FA694967
:100E400089880843674988800846808845F261712F
:100E5000884203D141F663106249888061488188E5
:100E600061A0FFF7D9F95F48808849F24131884293
:100E70007ED1CF2003F0E8FC002003F0DFFCC1208E
:100E800003F0DCFC302003F0D9FCED2003F0DCFCA7
:100E9000642003F0D3FC032003F0D0FC122003F005
:100EA000CDFC812003F0CAFCE82003F0CDFC8520B6
:100EB00003F0C4FC102003F0C1FC7A2003F0BEFC58
:100EC000CB2003F0C1FC392003F0B8FC2C2003F048
:100ED000B5FC002003F0B2FC342003F0AFFC02208C
:100EE00003F0ACFCF72003F0AFFC202003F0A6FCDD
:100EF000EA2003F0A9FC002003F0A0FC002003F08E
:100F00009DFCC02003F0A0FC1B2003F097FCC12037
:100F100003F09AFC012003F091FCC52003F094FC3F
:100F2000302003F08BFC302003F088FCC72003F056
:100F30008BFCB72003F082FC362003F085FC4820B0
:100F400003F07CFC3A2003F07FFC552003F076FC94
:100F5000B12003F079FC002003F070FC1A2003F0AC
:100F60006DFCB62003F070FC0A2003F067FC00E083
:100F7000AAE0A22003F062FCF22003F065FC00204E
:100F800003F05CFC262003F05FFC012003F056FC1C
:100F9000E02003F059FC0F2003F050FC2A2003F05E
:100FA0004DFC282003F04AFC082003F047FC0E20EB
:100FB00003F044FC082003F041FC542003F03EFC05
:100FC000A92003F03BFC432003F038FC0A2003F087
:100FD00035FC11E0000C01400014014000180140F4
:100FE0000020014098000020204C43442049443A0E
:100FF00025780D0A000000000F2003F01FFC0020E0
:1010000003F01CFC002003F019FC002003F016FC88
:10101000002003F013FCE12003F016FC002003F095
:101020000DFC152003F00AFC172003F007FC072035
:1010300003F004FC112003F001FC062003F0FEFB8A
:101040002B2003F0FBFB562003F0F8FB3C2003F0C1
:10105000F5FB052003F0F2FB102003F0EFFB0F205F
:1010600003F0ECFB3F2003F0E9FB3F2003F0E6FB3D
:101070000F2003F0E3FB2B2003F0E6FB002003F03E
:10108000DDFB002003F0DAFB012003F0D7FB3F205B
:1010900003F0D4FB2A2003F0D7FB002003F0CEFBA3
:1010A000002003F0CBFB002003F0C8FBEF2003F08F
:1010B000C5FB112003F0C8FB782004F03BFA29207F
:1010C00003F0C2FB03F01DB9FE48808846F6040118
:1010D00088427CD1112003F0B7FB142004F02AFAD7
:1010E000D02003F0B1FB072003F0A8FB422003F05F
:1010F000A5FB1D2003F0A2FBD12003F0A5FB0020DF
:1011000003F09CFB1A2003F099FB092003F096FBE7
:10111000D22003F099FB012003F090FB222003F082
:101120008DFBC02003F090FB102003F087FB3B20D9
:1011300003F084FB002003F081FB022003F07EFB20
:10114000112003F07BFBC52003F07EFB032003F09E
:1011500075FBC82003F078FB002003F06FFB25200F
:1011600003F06CFB212003F069FB052003F066FB14
:10117000002003F063FB0A2003F060FB652003F00E
:101180005DFB252003F05AFB772003F057FB50202E
:1011900003F054FB0F2003F051FB002003F04EFB43
:1011A000F82003F051FB012003F048FBFE2003F080
:1011B0004BFB002003F042FB022003F03FFB20200A
:1011C00003F042FB362003F03FFB082000E02CE058
:1011D00003F034FB3A2003F037FB552003F02EFBDD
:1011E0002B2003F031FB002003F028FB002003F04C
:1011F00025FB012003F022FB3F2003F01FFB2A20E8
:1012000003F022FB002003F019FB002003F016FB83
:10121000012003F013FBDF2003F010FB782004F023
:1012200089F9292003F010FB4CE7A648808845F295
:101230001031884240F07C87ED2003F005FB01204F
:1012400003F0FCFAFE2003F0F9FAEE2003F0FCFABA
:10125000DE2003F0F3FA212003F0F0FAF12003F08E
:10126000F3FA012003F0EAFADF2003F0EDFA102090
:1012700003F0E4FAC42003F0E7FA8F2003F0DEFA6B
:10128000C62003F0E1FA002003F0D8FAE22003F0D0
:10129000D5FAE22003F0D2FAE22003F0CFFABF2021
:1012A00003F0D2FAAA2003F0C9FAB02003F0CCFA76
:1012B0000D2003F0C3FA002003F0C0FA0D2003F064
:1012C000BDFA002003F0BAFA112003F0B7FA0020AB
:1012D00003F0B4FA192003F0B1FA002003F0AEFADB
:1012E000212003F0ABFA002003F0A8FA2D2003F030
:1012F000A5FA002003F0A2FA3D2003F09FFA002097
:1013000003F09CFA5D2003F099FA002003F096FAAE
:101310005D2003F093FA002003F090FAB12003F06F
:1013200093FA802003F08AFA002003F087FA8B20DA
:1013300003F084FA002003F081FA962003F07EFA8D
:10134000002003F07BFAB22003F07EFA002003F0C5
:1013500075FA002003F072FA022003F06FFA002001
:1013600003F06CFA032003F069FA002003F066FA38
:10137000B32003F069FA002003F060FA002003F0C4
:101380005DFA002003F05AFA002003F057FA00201B
:1013900003F054FA002003F051FA002003F04EFA53
:1013A000002003F04BFA002003F048FA002003F07D
:1013B00045FA002003F042FA002003F03FFA002033
:1013C00003F03CFA002003F039FA002003F036FA6B
:1013D000002003F033FA002003F030FA002003F07D
:1013E0002DFA002003F02AFA002003F027FA00204B
:1013F00003F024FA002003F021FA002003F01EFA83
:10140000002003F01BFAB42003F01EFA8B2003F037
:1014100015FA002003F012FA962003F00FFA0020CC
:1014200003F00CFAA12003F009FA002003F006FAF9
:10143000B52003F009FA022003F000FA002003F0BF
:10144000FDF9032003F0FAF9002003F0F7F9042076
:1014500003F0F4F9002003F0F1F9B62003F0F4F9F9
:10146000002003F0EBF9002003F0E8F9B72003F0C7
:10147000EBF9002003F0E2F9002003F0DFF93F2050
:1014800003F0DCF9002003F0D9F95E2003F0D6F96F
:10149000002003F0D3F9642003F0D0F9002003F01A
:1014A000CDF98C2003F0CAF9002003F0C7F9AC2075
:1014B00003F0C4F9002003F0C1F9DC2003F0BEF909
:1014C000002001E09800002003F0B8F9702003F03C
:1014D000B5F9002003F0B2F9902003F0AFF9002035
:1014E00003F0ACF9EB2003F0A9F9002003F0A6F912
:1014F000DC2003F0A3F9002003F0A0F9B82003F0EA
:10150000A3F9002003F09AF9002003F097F90020D6
:1015100003F094F9002003F091F9002003F08EF914
:10152000002003F08BF9002003F088F9002003F07D
:1015300085F9BA2003F088F9242003F07FF9002010
:1015400003F07CF9002003F079F9002003F076F92C
:10155000C12003F079F9202003F070F9002003F096
:101560006DF9542003F06AF9002003F067F9FF20B9
:1015700003F064F9002003F061F9C22003F064F97C
:101580000A2003F05BF9002003F058F9042003F06F
:1015900055F9002003F052F9C32003F055F93C201F
:1015A00003F04CF9002003F049F93A2003F046F922
:1015B000002003F043F9392003F040F9002003F044
:1015C0003DF9372003F03AF9002003F037F93C20C9
:1015D00003F034F9002003F031F9362003F02EF93E
:1015E000002003F02BF9322003F028F9002003F04B
:1015F00025F92F2003F022F9002003F01FF92C20F9
:1016000003F01CF9002003F019F9292003F016F962
:10161000002003F013F9262003F010F9002003F056
:101620000DF9242003F00AF9002003F007F9242023
:1016300003F004F9002003F001F9232003F0FEF881
:10164000002003F0FBF83C2003F0F8F8002003F042
:10165000F5F8362003F0F2F8002003F0EFF832201E
:1016600003F0ECF8002003F0E9F82F2003F0E6F88F
:10167000002003F0E3F82C2003F0E0F8002003F052
:10168000DDF8292003F0DAF8002003F0D7F826204F
:1016900003F0D4F8002003F0D1F8242003F0CEF8B2
:1016A000002003F0CBF8242003F0C8F8002003F05A
:1016B000C5F8232003F0C2F8002003F0BFF8C420CF
:1016C00003F0C2F8622003F0B9F8002003F0B6F886
:1016D000052003F0B3F8002003F0B0F8842003F0F5
:1016E000ADF8002003F0AAF8F02003F0A7F80020DE
:1016F00003F0A4F8182003F0A1F8002003F09EF8EE
:10170000A42003F09BF8002003F098F8182003F0C1
:1017100095F8002003F092F8502003F08FF8002095
:1017200003F08CF80C2003F089F8002003F086F811
:10173000172003F083F8002003F080F8952003F0D1
:101740007DF8002003F07AF8F32003F077F800200A
:1017500003F074F8E62003F071F8002003F06EF84F
:10176000C52003F071F8322003F068F8002003F080
:1017700065F8442003F062F8002003F05FF865206C
:1017800003F05CF8002003F059F8762003F056F8D7
:10179000002003F053F8882003F050F8002003F0F5
:1017A0004DF8C62003F050F8202003F047F8002041
:1017B00003F044F8172003F041F8002003F03EF84E
:1017C000012003F03BF8002003F038F8C72003F0B5
:1017D0003BF8002003F032F8002003F02FF800203F
:1017E00003F02CF8002003F029F8C82003F02CF8AF
:1017F000002003F023F8002003F020F8002003F07D
:101800001DF8002003F01AF8C92003F01DF800208D
:1018100003F014F8002003F011F8002003F00EF894
:10182000002003F00BF8002003F008F8002003F07C
:1018300005F8002003F002F8002002F0FFFF00206E
:1018400002F0FCFF002002F0F9FF002002F0F6FF9A
:10185000002002F0F3FF002002F0F0FF002002F071
:10186000EDFF002002F0EAFF002002F0E7FFE02099
:1018700002F0EAFF162002F0E1FF002002F0DEFF96
:101880001C2002F0DBFF002002F0D8FF212002F034
:10189000D5FF002002F0D2FF362002F0CFFF00205B
:1018A00002F0CCFF462002F0C9FF002002F0C6FF84
:1018B000522002F0C3FF002002F0C0FF642002F0BB
:1018C000BDFF002002F0BAFF7A2002F0B7FF00202F
:1018D00002F0B4FF8B2002F0B1FF002002F0AEFF57
:1018E000992002F0ABFF002002F0A8FFA82002F030
:1018F000A5FF002002F0A2FFB92002F09FFF002008
:1019000002F09CFFC42002F099FF002002F096FF35
:10191000CA2002F093FF002002F090FFD22002F0D4
:101920008DFF002002F08AFFD92002F087FF0020FF
:1019300002F084FFE02002F081FF002002F07EFF31
:10194000F32002F07BFF002002F078FFE12002F09C
:101950007BFF162002F072FF002002F06FFF1C20B8
:1019600002F06CFF002002F069FF222002F066FF07
:10197000002002F063FF362002F060FF002002F03A
:101980005DFF452002F05AFF002002F057FF522071
:1019900002F054FF002002F051FF642002F04EFFDD
:1019A000002002F04BFF7A2002F048FF002002F0F6
:1019B00045FF8B2002F042FF002002F03FFF9920FC
:1019C00002F03CFF002002F039FFA82002F036FFB1
:1019D000002002F033FFB92002F030FF002002F0B7
:1019E0002DFFC42002F02AFF002002F027FFCA20AA
:1019F00002F024FF002002F021FFD22002F01EFF9F
:101A0000002002F01BFFD82002F018FF002002F097
:101A100015FFE02002F012FF002002F00FFFF3207C
:101A200002F00CFF002002F009FFE22002F00CFFA0
:101A3000052002F003FF002002F000FF0B2002F05F
:101A4000FDFE002002F0FAFE1B2002F0F7FE00204F
:101A500002F0F4FE342002F0F1FE002002F0EEFE6F
:101A6000442002F0EBFE002002F0E8FE4F2002F0DE
:101A7000E5FE002002F0E2FE612002F0DFFE002021
:101A800002F0DCFE792002F0D9FE002002F0D6FE42
:101A9000882002F0D3FE002002F0D0FE972002F052
:101AA000CDFE002002F0CAFEA62002F0C7FE0020F4
:101AB00002F0C4FEB72002F0C1FE002002F0BEFE1C
:101AC000C22002F0BBFE002002F0B8FEC72002F0E8
:101AD000B5FE002002F0B2FED12002F0AFFE0020E1
:101AE00002F0ACFED62002F0A9FE002002F0A6FE15
:101AF000DD2002F0A3FE002002F0A0FEF32002F0A1
:101B00009DFE002002F09AFEE32002F09DFE0520DB
:101B100002F094FE002002F091FE0A2002F08EFEF8
:101B2000002002F08BFE1C2002F088FE002002F054
:101B300085FE332002F082FE002002F07FFE44206A
:101B400002F07CFE002002F079FE502002F076FECA
:101B5000002002F073FE622002F070FE002002F00E
:101B60006DFE782002F06AFE002002F067FE8820F9
:101B700002F064FE002002F061FE972002F05EFE9B
:101B8000002002F05BFEA62002F058FE002002F0CA
:101B900055FEB72002F052FE002002F04FFEC22098
:101BA00002F04CFE002002F049FEC72002F046FE83
:101BB000002002F043FED12002F040FE002002F09F
:101BC0003DFED52002F03AFE002002F037FEDD2077
:101BD00002F034FE002002F031FEF32002F02EFE6F
:101BE000002002F02BFEE42002F02EFE012002F085
:101BF00025FE002002F022FE012002F01FFE002040
:101C000002F01CFE022002F019FE002002F016FE77
:101C10002A2002F013FE002002F010FE3C2002F009
:101C20000DFE002002F00AFE4B2002F007FE00200D
:101C300002F004FE5D2002F001FE002002F0FEFD35
:101C4000742002F0FBFD002002F0F8FD842002F079
:101C5000F5FD002002F0F2FD932002F0EFFD0020E0
:101C600002F0ECFDA22002F0E9FD002002F0E6FD0A
:101C7000B32002F0E3FD002002F0E0FDBE2002F000
:101C8000DDFD002002F0DAFDC42002F0D7FD0020C7
:101C900002F0D4FDCD2002F0D1FD002002F0CEFDF7
:101CA000D32002F0CBFD002002F0C8FDDD2002F0C1
:101CB000C5FD002002F0C2FDF32002F0BFFD0020B0
:101CC00002F0BCFDE52002F0BFFD002002F0B6FDF1
:101CD000002002F0B3FD002002F0B0FD002002F071
:101CE000ADFD022002F0AAFD002002F0A7FD292090
:101CF00002F0A4FD002002F0A1FD3C2002F09EFDB8
:101D0000002002F09BFD4B2002F098FD002002F025
:101D100095FD5D2002F092FD002002F08FFD742001
:101D200002F08CFD002002F089FD842002F086FD87
:101D3000002002F083FD932002F080FD002002F0DD
:101D40007DFDA22002F07AFD002002F077FDB32095
:101D500002F074FD002002F071FDBE2002F06EFD65
:101D6000002002F06BFDC42002F068FD002002F0AC
:101D700065FDCD2002F062FD002002F05FFDD32062
:101D800002F05CFD002002F059FDDC2002F056FD5F
:101D9000002002F053FDF32002F050FD002002F07D
:101DA0004DFDE62002F050FD112002F047FD00201D
:101DB00002F044FD342002F041FD002002F03EFD1F
:101DC000562002F03BFD002002F038FD762002F0A4
:101DD00035FD002002F032FD772002F02FFD0020BB
:101DE00002F02CFD662002F029FD002002F026FD05
:101DF000882002F023FD002002F020FD992002F04F
:101E00001DFD002002F01AFDBB2002F017FD00208E
:101E100002F014FD992002F011FD002002F00EFDE9
:101E2000662002F00BFD002002F008FD552002F0B4
:101E300005FD002002F002FD552002F0FFFC00200D
:101E400002F0FCFC452002F0F9FC002002F0F6FC58
:101E5000432002F0F3FC002002F0F0FC442002F0EA
:101E6000EDFC002002F0EAFCE72002F0EDFC32205D
:101E700002F0E4FC002002F0E1FC552002F0DEFC60
:101E8000002002F0DBFC762002F0D8FC002002F0FB
:101E9000D5FC662002F0D2FC002002F0CFFC6720C7
:101EA00002F0CCFC002002F0C9FC672002F0C6FC66
:101EB000002002F0C3FC872002F0C0FC002002F0EA
:101EC000BDFC992002F0BAFC002002F0B7FCBB2058
:101ED00002F0B4FC002002F0B1FC992002F0AEFC4C
:101EE000002002F0ABFC772002F0A8FC002002F0FA
:101EF000A5FC442002F0A2FC002002F09FFC56202A
:101F000002F09CFC002002F099FC232002F096FCD9
:101F1000002002F093FC332002F090FC002002F03D
:101F20008DFC452002F08AFC002002F087FCE820AE
:101F300002F08AFC002002F081FC002002F07EFC0E
:101F4000992002F07BFC002002F078FC872002F050
:101F500075FC002002F072FC882002F06FFC00206B
:101F600002F06CFC772002F069FC002002F066FCB5
:101F7000662002F063FC002002F060FC882002F082
:101F80005DFC002002F05AFCAA2002F057FC002061
:101F900002F054FCBB2002F051FC002002F04EFC89
:101FA000992002F04BFC002002F048FC662002F071
:101FB00045FC002002F042FC552002F03FFC0020CE
:101FC00002F03CFC552002F039FC002002F036FC07
:101FD000442002F033FC002002F030FC442002F0E8
:101FE0002DFC002002F02AFC552002F027FC0020E6
:101FF00002F024FCE92002F027FCAA2002F01EFCDB
:10200000002002F01BFC002002F018FC002002F06F
:1020100015FC002002F018FCAA2002F00FFCCF20D3
:1020200002F012FC002002F009FC002002F006FC85
:10203000002002F003FC002002F000FC002002F06F
:10204000FDFB002002F0FAFB002002F0F7FB00206D
:1020500002F0F4FB002002F0F1FB002002F0EEFBA6
:10206000002002F0EBFB002002F0E8FB002002F071
:10207000E5FB002002F0E2FB002002F0DFFB002085
:1020800002F0DCFB002002F0D9FBF02002F0DCFBC8
:10209000002002F0D3FB502002F0D0FB002002F021
:1020A000CDFB002002F0CAFB002002F0C7FBF320AA
:1020B00002F0CAFB002002F0C1FBF92002F0C4FBD1
:1020C000062002F0BBFB102002F0B8FB292002F032
:1020D000B5FB002002F0B2FB3A2002F0B5FB552020
:1020E00002F0ACFB112002F0AFFB642003F022FAF7
:1020F000292002F0A9FB352002F0A6FB002002F007
:102100009DFB512002F0A0FBFF2002F097FB532023
:1021100002F09AFB2C2002F091FB552002F094FB78
:10212000822002F08BFB2C2002F08EFB02F0E9B83B
:10213000FE48808845F2105188427DD155214FF4E8
:10214000704002F091FBAA214FF2010002F08CFBDB
:1021500052214FF2020002F087FB08214FF20300E8
:1021600002F082FB01214FF2040002F07DFB0D2101
:102170004FF4304002F078FB0D214BF2010002F0E9
:1021800073FB0D214BF2020002F06EFB34214FF481
:10219000364002F069FB34214BF2016002F064FB2F
:1021A00034214BF2026002F05FFB0D214FF431400D
:1021B00002F05AFB0D214BF2011002F055FB0D21EC
:1021C0004BF2021002F050FB34214FF4374002F082
:1021D0004BFB34214BF2017002F046FB34214BF2F1
:1021E000027002F041FB00214FF4324002F03CFB50
:1021F00000214BF2012002F037FB00214BF20220BC
:1022000002F032FB24214FF4384002F02DFB242150
:102210004BF6010002F028FB24214BF6020002F0ED
:1022200023FB01214FF43F4002F01EFB0F214FF42E
:10223000334002F019FB00E0FDE30F214BF20130C7
:1022400002F012FB0F214BF2023002F00DFB3421A1
:102250004FF4394002F008FB34214BF6011002F034
:1022600003FB34214BF6021002F0FEFA08214FF472
:10227000354002F0F9FA08214BF2015002F0F4FA6D
:1022800008214BF2025002F0EFFA03214FF44240D2
:1022900002F0EAFA24214FF43A4002F0E5FA242150
:1022A0004BF6012002F0E0FA24214BF6022002F066
:1022B000DBFA00214FF43C4002F0D6FA78214BF6CD
:1022C000014002F0D1FA00214BF6024002F0CCFAB4
:1022D00000214FF43D4002F0C7FA78214BF601503F
:1022E00002F0C2FA00214BF6025002F0BDFA0021C2
:1022F0004FF43E4002F0B8FA64214BF6016002F060
:10230000B3FA00214FF4514002F0AEFA33214DF2FE
:10231000011002F0A9FA00214DF2021002F0A4FA15
:1023200034214DF2031002F09FFA00214DF2041007
:1023300002F09AFA3A214DF2051002F095FA0021C6
:102340004DF2061002F090FA4A214DF2071002F009
:102350008BFA00214DF2081002F086FA5C214DF252
:10236000091002F081FA00214DF20A1002F07CFA05
:1023700081214DF20B1002F077FA00214DF20C1082
:1023800002F072FAA6214DF20D1002F06DFA002152
:102390004DF20E1002F068FAE5214DF20F1002F036
:1023A00063FA01214DF2101002F05EFA13214DF292
:1023B000111002F059FA01214DF2121002F054FAF4
:1023C00054214DF2131002F04FFA01214DF2141076
:1023D00002F04AFA82214DF2151002F045FA01216D
:1023E0004DF2161002F040FACA214DF2171002F019
:1023F0003BFA02214DF2181002F036FA00214DF29C
:10240000191002F031FA02214DF21A1002F02CFAE2
:1024100001214DF21B1002F027FA02214DF21C108F
:1024200002F022FA34214DF21D1002F01DFA0221B1
:102430004DF21E1002F018FA67214DF21F1002F043
:1024400013FA02214DF2201002F00EFA84214DF20F
:10245000211002F009FA02214DF2221002F004FAD2
:10246000A4214DF2231002F0FFF902214DF22410B5
:1024700002F0FAF9B7214DF2251002F0F5F9022128
:102480004DF2261002F0F0F9CF214DF2271002F0A4
:10249000EBF902214DF2281002F0E6F9DE214DF2AF
:1024A000291002F0E1F902214DF22A1002F0DCF9C4
:1024B000F2214DF22B1002F0D7F902214DF22C102F
:1024C00002F0D2F9FE214DF22D1002F0CDF90321D8
:1024D0004DF22E1002F0C8F910214DF22F1002F02B
:1024E000C3F903214DF2301002F0BEF933214DF251
:1024F000311002F0B9F903214DF2321002F0B4F9B3
:102500006D214DF2331002F0AFF900214FF452402B
:1025100002F0AAF933214DF2012002F0A5F90021C1
:102520004DF2022002F0A0F9342101E098000020D1
:102530004DF2032002F098F900214DF2042002F040
:1025400093F93A214DF2052002F08EF900214DF267
:10255000062002F089F94A214DF2072002F084F9A1
:1025600000214DF2082002F07FF95C214DF2092094
:1025700002F07AF900214DF20A2002F075F981216A
:102580004DF20B2002F070F900214DF20C2002F008
:102590006BF9A6214DF20D2002F066F900214DF2F3
:1025A0000E2002F061F9E5214DF20F2002F05CF9F6
:1025B00001214DF2102002F057F913214DF21120A4
:1025C00002F052F901214DF2122002F04DF954218E
:1025D0004DF2132002F048F901214DF2142002F0CF
:1025E00043F982214DF2152002F03EF901214DF20E
:1025F000162002F039F9CA214DF2172002F034F901
:1026000002214DF2182002F02FF900214DF219207D
:1026100002F02AF902214DF21A2002F025F90121D7
:102620004DF21B2002F020F902214DF21C2002F095
:102630001BF934214DF21D2002F016F902214DF252
:102640001E2002F011F967214DF21F2002F00CF953
:1026500002214DF2202002F007F984214DF22120C1
:1026600002F002F902214DF2222002F0FDF8A4212D
:102670004DF2232002F0F8F802214DF2242002F05E
:10268000F3F8B7214DF2252002F0EEF802214DF2C9
:10269000262002F0E9F8CF214DF2272002F0E4F8DD
:1026A00002214DF2282002F0DFF8DE214DF2292030
:1026B00002F0DAF802214DF22A2002F0D5F8F221D8
:1026C0004DF22B2002F0D0F802214DF22C2002F026
:1026D000CBF8FE214DF22D2002F0C6F803214DF279
:1026E0002E2002F0C1F810214DF22F2002F0BCF88C
:1026F00003214DF2302002F0B7F833214DF23120A2
:1027000002F0B2F803214DF2322002F0ADF86D2153
:102710004DF2332002F0A8F800214FF4534002F0AC
:10272000A3F833214DF2013002F09EF800214DF262
:10273000023002F099F834214DF2033002F094F89F
:1027400000214DF2043002F08FF83A214DF20530AD
:1027500002F08AF800214DF2063002F085F84A2195
:102760004DF2073002F080F800214DF2083002F0FF
:102770007BF85C214DF2093002F076F800214DF231
:102780000A3002F071F881214DF20B3002F06CF842
:1027900000214DF20C3002F067F8A6214DF20D3009
:1027A00002F062F800214DF20E3002F05DF8E521F2
:1027B0004DF20F3002F058F801214DF2103002F0C6
:1027C00053F813214DF2113002F04EF801214DF271
:1027D000123002F049F854214DF2133002F044F85F
:1027E00001214DF2143002F03FF882214DF21530F4
:1027F00002F03AF801214DF2163002F035F8CA2104
:102800004DF2173002F030F802214DF2183002F08C
:102810002BF800214DF2193002F026F802214DF27A
:102820001A3002F021F801214DF21B3002F01CF8A1
:1028300002214DF21C3002F017F834214DF21D3008
:1028400002F012F802214DF21E3002F00DF867215D
:102850004DF21F3002F008F802214DF2203002F054
:1028600003F884214DF2213001F0FEFF02214DF2E8
:10287000223001F0F9FFA4214DF2233001F0F4FFE2
:1028800002214DF2243001F0EFFFB7214DF2253047
:1028900001F0EAFF02214DF2263001F0E5FFCF21E1
:1028A0004DF2273001F0E0FF02214DF2283001F017
:1028B000DBFFDE214DF2293001F0D6FF02214DF27F
:1028C0002A3001F0D1FFF2214DF22B3001F0CCFF84
:1028D00002214DF22C3001F0C7FFFE214DF22D30C8
:1028E00001F0C2FF03214DF22E3001F0BDFF102197
:1028F0004DF22F3001F0B8FF03214DF2303001F0DE
:10290000B3FF33214DF2313001F0AEFF03214DF220
:10291000323001F0A9FF6D214DF2333001F0A4FFF8
:1029200000214FF4544001F09FFF33214DF201404C
:1029300001F09AFF00214DF2024001F095FF342191
:102940004DF2034001F090FF00214DF2044001F0F0
:102950008BFF3A214DF2054001F086FF00214DF238
:10296000064001F081FF4A214DF2074001F07CFF53
:1029700000214DF2084001F077FF5C214DF2094043
:1029800001F072FF00214DF20A4001F06DFF81213C
:102990004DF20B4001F068FF00214DF20C4001F0B8
:1029A00063FFA6214DF20D4001F05EFF00214DF2C4
:1029B0000E4001F059FFE5214DF20F4001F054FFA8
:1029C00001214DF2104001F04FFF13214DF2114053
:1029D00001F04AFF01214DF2124001F045FF542160
:1029E0004DF2134001F040FF01214DF2144001F07F
:1029F0003BFF82214DF2154001F036FF01214DF2DF
:102A0000164001F031FFCA214DF2174001F02CFFB2
:102A100002214DF2184001F027FF00214DF219402C
:102A200001F022FF02214DF21A4001F01DFF0121A9
:102A30004DF21B4000E006E301F016FF02214DF2CB
:102A40001C4001F011FF34214DF21D4001F00CFF3C
:102A500002214DF21E4001F007FF67214DF21F4099
:102A600001F002FF02214DF2204001F0FDFE842121
:102A70004DF2214001F0F8FE02214DF2224001F01A
:102A8000F3FEA4214DF2234001F0EEFE02214DF2AF
:102A9000244001F0E9FEB7214DF2254001F0E4FEAB
:102AA00002214DF2264001F0DFFECF214DF22740FA
:102AB00001F0DAFE02214DF2284001F0D5FEDE21C0
:102AC0004DF2294001F0D0FE02214DF22A4001F0E2
:102AD000CBFEF2214DF22B4001F0C6FE02214DF259
:102AE0002C4001F0C1FEFE214DF22D4001F0BCFE54
:102AF00003214DF22E4001F0B7FE10214DF22F4080
:102B000001F0B2FE03214DF2304001F0ADFE332161
:102B10004DF2314001F0A8FE03214DF2324001F0A8
:102B2000A3FE6D214DF2334001F09EFE00214FF4D3
:102B3000554001F099FE33214DF2015001F094FE11
:102B400000214DF2025001F08FFE34214DF203506E
:102B500001F08AFE00214DF2045001F085FE3A2179
:102B60004DF2055001F080FE00214DF2065001F0BB
:102B70007BFE4A214DF2075001F076FE00214DF216
:102B8000085001F071FE5C214DF2095001F06CFE1D
:102B900000214DF20A5001F067FE81214DF20B50E9
:102BA00001F062FE00214DF20C5001F05DFEA62105
:102BB0004DF20D5001F058FE00214DF20E5001F083
:102BC00053FEE5214DF20F5001F04EFE01214DF272
:102BD000105001F049FE13214DF2115001F044FE56
:102BE00001214DF2125001F03FFE54214DF21350DD
:102BF00001F03AFE01214DF2145001F035FE822120
:102C00004DF2155001F030FE01214DF2165001F049
:102C10002BFECA214DF2175001F026FE02214DF283
:102C2000185001F021FE00214DF2195001F01CFE58
:102C300002214DF21A5001F017FE01214DF21B50F6
:102C400001F012FE02214DF21C5001F00DFE342164
:102C50004DF21D5001F008FE02214DF21E5001F010
:102C600003FE67214DF21F5001F0FEFD02214DF2DF
:102C7000205001F0F9FD84214DF2215001F0F4FDC6
:102C800002214DF2225001F0EFFDA4214DF223501C
:102C900001F0EAFD02214DF2245001F0E5FDB721DB
:102CA0004DF2255001F0E0FD02214DF2265001F0D9
:102CB000DBFDCF214DF2275001F0D6FD02214DF270
:102CC000285001F0D1FDDE214DF2295001F0CCFD5C
:102CD00002214DF22A5001F0C7FDF2214DF22B5096
:102CE00001F0C2FD02214DF22C5001F0BDFDFE218C
:102CF0004DF22D5001F0B8FD03214DF22E5001F0A0
:102D0000B3FD10214DF22F5001F0AEFD03214DF225
:102D1000305001F0A9FD33214DF2315001F0A4FDF6
:102D200003214DF2325001F09FFD6D214DF23350E1
:102D300001F09AFD00214FF4564001F095FD33213A
:102D40004DF2016001F090FD00214DF2026001F0B2
:102D50008BFD34214DF2036001F086FD00214DF220
:102D6000046001F081FD3A214DF2056001F07CFD27
:102D700000214DF2066001F077FD4A214DF2076017
:102D800001F072FD00214DF2086001F06DFD5C2143
:102D90004DF2096001F068FD00214DF20A6001F07A
:102DA00063FD81214DF20B6001F05EFD00214DF2CB
:102DB0000C6001F059FDA6214DF20D6001F054FDAB
:102DC00000214DF20E6001F04FFDE5214DF20F6044
:102DD00001F04AFD01214DF2106001F045FD132183
:102DE0004DF2116001F040FD01214DF2126001F041
:102DF0003BFD54214DF2136001F036FD01214DF2EF
:102E0000146001F031FD82214DF2156001F02CFDBE
:102E100001214DF2166001F027FDCA214DF2176025
:102E200001F022FD02214DF2186001F01DFD00218C
:102E30004DF2196001F018FD02214DF21A6001F007
:102E400013FD01214DF21B6001F00EFD02214DF238
:102E50001C6001F009FD34214DF21D6001F004FDFC
:102E600002214DF21E6001F0FFFC67214DF21F6050
:102E700001F0FAFC02214DF2206001F0F5FC842102
:102E80004DF2216001F0F0FC02214DF2226001F0D0
:102E9000EBFCA4214DF2236001F0E6FC02214DF28F
:102EA000246001F0E1FCB7214DF2256001F0DCFC6B
:102EB00002214DF2266001F0D7FCCF214DF22760B0
:102EC00001F0D2FC02214DF2286001F0CDFCDE21A0
:102ED0004DF2296001F0C8FC02214DF22A6001F098
:102EE000C3FCF2214DF22B6001F0BEFC02214DF239
:102EF0002C6001F0B9FCFE214DF22D6001F0B4FC14
:102F000003214DF22E6001F0AFFC10214DF22F6035
:102F100001F0AAFC03214DF2306001F0A5FC332141
:102F20004DF2316001F0A0FC03214DF2326001F05E
:102F30009BFC6D214DF2336001F096FC55214FF45E
:102F4000704001F091FCAA214FF2010001F08CFCCD
:102F500052214FF2020001F087FC08214FF20300DA
:102F600001F082FC00214FF2040001F07DFCCC2135
:102F70004FF4314001F078FC00214BF2011001F0D8
:102F800073FC05214FF4364001F06EFC70214FF4C4
:102F9000374001F069FC70214BF2017001F064FCD4
:102FA00001214FF4384001F05FFC03214BF6010092
:102FB00001F05AFC03214BF6020001F055FC0321FD
:102FC0004BF6030001F050FC02214FF43C4001F0AD
:102FD0004BFC00214BF6014001F046FC00214BF672
:102FE000024001F041FCD0214FF4494001F03CFC8B
:102FF00002214CF6011001F037FC50214CF6021072
:1030000001F032FC50214CF6031001F02DFC502150
:103010004CF6041001F028FC00214FF4545001F04C
:1030200023FC55214FF4685001F01EFC4FF48850EA
:1030300001F00AFC782002F0A3FA4FF4245001F0CA
:1030400003FC01F05EB9FE48808849F225318842D0
:103050007ED147F6F001E52001F006FC4FF48071C7
:10306000012001F001FC4FF4E061022001F0FCFBC3
:1030700041F23001032001F0F7FB0021042001F0B0
:10308000F3FB40F20221082001F0EEFB00210920B1
:1030900001F0EAFB00210A2001F0E6FB00210C20F0
:1030A00001F0E2FB00210D2001F0DEFB00210F20EA
:1030B00001F0DAFB0021102001F0D6FB07211120DE
:1030C00001F0D2FB0021122001F0CEFB00211320E1
:1030D00001F0CAFB0021072001F0C6FB41F290611C
:1030E000102001F0C1FB40F22721112001F0BCFBB0
:1030F0009D21122001F0B8FB4FF4C851132001F0BC
:10310000B3FB2521292001F0AFFB0D212B2001F07D
:10311000ABFB0721302001F0A7FB40F20331312047
:1031200001F0A2FB0321322001F09EFB40F20621B8
:10313000352001F099FB0821362001F095FB40F283
:103140000641372001F090FB4FF44171382000E038
:1031500057E001F089FB0721392001F085FB40F29F
:1031600002613C2001F080FB08213D2001F07CFB46
:103170000021502001F078FBEF21512001F074FB79
:103180000021522001F070FB40F23F11532001F06A
:103190006BFB4FF42741602001F066FB01216120A9
:1031A00001F062FB00216A2001F05EFB002180201B
:1031B00001F05AFB0021812001F056FB0021822002
:1031C00001F052FB0021832001F04EFB00218420FE
:1031D00001F04AFB0021852001F046FB10219020E0
:1031E00001F042FB4FF4C061922001F03DFB40F240
:1031F0003311072001F038FB2221002001F034FBBD
:103200001FE78F48808849F2283188427ED141F2F9
:103210008F01EC2001F028FB41F23421EF2001F076
:1032200023FB4FF48071012001F01EFB4FF4E0619D
:10323000022001F019FB41F23001032001F014FBE0
:103240000021042001F010FB40F20221082001F0CF
:103250000BFB0021092001F007FB00210A2001F0EF
:1032600003FB01210C2001F0FFFA00210D2001F0E9
:10327000FBFA00210F2001F0F7FA0021102001F0E5
:10328000F3FA0721112001F0EFFA0021122001F0DA
:10329000EBFA0021132001F0E7FA0121072001F0E9
:1032A000E3FA322002F046F941F29041102001F099
:1032B000DBFA40F22721112001F0D6FA322002F089
:1032C00039F98A21122001F0CFFA322002F032F9C6
:1032D0004FF4D051132001F0C7FA0621292001F044
:1032E000C3FA0D212B2001F0BFFA322002F022F99F
:1032F0000021202001F0B8FA0021212001F0B4FAC9
:10330000322002F017F90021302000E074E001F0D3
:10331000ABFA40F20461312001F0A6FA40F2053127
:10332000322001F0A1FA0021352001F09DFA40F68B
:103330000941362001F098FA4FF40171372001F06D
:1033400093FA40F20131382001F08EFA40F2077111
:10335000392001F089FA00213C2001F085FA40F67D
:103360000A213D2001F080FA322002F0E3F800212A
:10337000502001F079FAEF21512001F075FA002177
:10338000522001F071FA40F23F11532001F06CFA23
:103390004FF42741602001F067FA0121612001F01C
:1033A00063FA00216A2001F05FFA0021802001F019
:1033B0005BFA0021812001F057FA0021822001F000
:1033C00053FA0021832001F04FFA0021842001F0FC
:1033D0004BFA0021852001F047FA1021902001F0DE
:1033E00043FA4FF4C061922001F03EFA40F23311EB
:1033F000072001F039FA24E61148808849F220318B
:1034000088427DD10021084601F02EFA4FF48071E8
:10341000012001F029FA4FF4E061022001F024FAC2
:1034200041F23001032001F01FFA0021042001F0D5
:103430001BFA40F20221082001F016FA002101E0F7
:1034400098000020092001F00FFA00210A2001F065
:103450000BFA01210C2001F007FA00210D2001F0E8
:1034600003FA00210F2001F0FFF9322002F062F888
:1034700040F20111072001F0F7F9322002F05AF86A
:103480004FF48651102001F0EFF90721112001F0CF
:10349000EBF94FF48871122001F0E6F94FF4306136
:1034A000132001F0E1F90021292001F0DDF944F2B7
:1034B00010012B2001F0D8F90021502001F0D4F99F
:1034C000EF21512001F0D0F90021522001F0CCF978
:1034D00040F23F11532001F0C7F94FF41C51602016
:1034E00001F0C2F90121612001F0BEF900216A203A
:1034F00001F0BAF90021802001F0B6F9002100E0C6
:1035000031E0812001F0B0F90021822001F0ACF916
:103510000021832001F0A8F90021842001F0A4F902
:103520000021852001F0A0F91021902001F09CF9E4
:103530000021922001F098F90121932001F094F9E3
:103540004FF48871952001F08FF90021972001F048
:103550008BF90021982001F087F940F273110720C0
:1035600001F082F96DE5FE48808849F231318842E8
:103570007DD141F21401E72001F076F94FF480711A
:10358000012001F071F94FF40071022001F06CF993
:1035900041F23801032001F067F940F202210820CE
:1035A00001F062F90021092001F05EF900210A20F2
:1035B00001F05AF900210C2001F056F900210D20EC
:1035C00001F052F900210F2001F04EF900211020E6
:1035D00001F04AF90721112001F046F900211220DB
:1035E00001F042F90021132001F03EF9C82001F05A
:1035F000A1FF41F29061102001F036F940F227213D
:10360000112001F031F9322001F094FF0C21122039
:1036100001F02AF9322001F08DFF4FF400611320F0
:1036200001F022F91121292001F01EF90B212B2094
:1036300001F01AF9322001F07DFF0021202001F075
:1036400013F940F23F11212001F00EF90021302042
:1036500001F00AF94FF48371312001F005F90021DE
:10366000322001F001F94FF40171352000E064E0EF
:1036700001F0FAF841F20A61362001F0F5F840F263
:103680000771372001F0F0F84FF48371382001F012
:10369000EBF840F20771392001F0E6F840F2024100
:1036A0003C2001F0E1F840F60F413D2001F0DCF84C
:1036B0000021502001F0D8F8EF21512001F0D4F87A
:1036C0000021522001F0D0F840F23F11532001F0C8
:1036D000CBF84FF41C51602001F0C6F801216120A5
:1036E00001F0C2F800216A2001F0BEF8002180201C
:1036F00001F0BAF80021812001F0B6F80021822003
:1037000001F0B2F80021832001F0AEF800218420FE
:1037100001F0AAF80021852001F0A6F810219020E0
:1037200001F0A2F84FF4C061922001F09DF840F240
:103730003311072001F098F883E48948808845F226
:10374000084188427ED14FF48071012001F08CF84D
:103750004FF4E061022001F087F841F230010320CC
:1037600001F082F80021042001F07EF840F20721E8
:10377000082001F079F80021092001F075F80021F6
:103780000A2001F071F800210C2001F06DF80021F1
:103790000D2001F069F800210F2001F065F81420D8
:1037A00001F0C8FE41F2B061102001F05DF8012186
:1037B000112001F059F80121172001F055F84FF4BC
:1037C0009C71122001F050F84FF40061132001F0B9
:1037D0004BF80921292001F047F809212A2001F09E
:1037E00043F80021A42001F03FF80021502001F00F
:1037F0003BF8EF21512001F037F80021522001F071
:1038000033F840F23F11532001F02EF84FF41C51D1
:10381000602001F029F80121612001F025F8002144
:103820006A2001F021F80021802001F01DF800211C
:10383000812001F019F80021822001F015F8002103
:10384000832000E023E001F00FF80021842001F044
:103850000BF80021852001F007F81321902001F0DA
:1038600003F80021922000F0FFFF0321932000F0D5
:10387000FBFF4FF48871952000F0F6FF40F27311C2
:10388000072000F0F1FF322001F054FEB8E4344884
:10389000808841F2055188427ED10021072000F046
:1038A000E3FF322001F046FE4FF48E71122000F04B
:1038B000DBFF0121A42000F0D7FF0F21082000F03A
:1038C000D3FF08210A2000F0CFFF08210D2000F0CF
:1038D000CBFF40F20771302000F0C6FF07213120F6
:1038E00000F0C2FF40F20361322000F0BDFF4FF450
:1038F000E061332000F0B8FF40F20221342000F0F4
:10390000B3FF0221352000F0AFFF41F60F713620E2
:1039100000F0AAFF40F20771372000F0A5FF002158
:10392000382000F0A1FF0021392000F09DFF40F277
:1039300007713A2000F098FF00213B2000F094FF2F
:1039400007213C2000F090FF00213D2000F08CFF7B
:10395000322001F0EFFD0121072000F085FF01E09A
:10396000980000200121172000F07EFF322001F096
:10397000E1FD4FF4BD51102000F076FF40F2172119
:10398000112000F071FF4FF48F71122000F06CFFD6
:103990004FF47061132000E097E000F065FF002114
:1039A0002A2000F061FF0A21292000F05DFF4FF47A
:1039B0009F71122000F058FF0021502000F054FFAA
:1039C000EF21512000F050FF0021522000F04CFF69
:1039D00040F23F11532000F047FF4FF41C5160208C
:1039E00000F042FF0121612000F03EFF00216A202B
:1039F00000F03AFF0021802000F036FF00218120F6
:103A000000F032FF0021822000F02EFF00218320F1
:103A100000F02AFF0021842000F026FF00218520ED
:103A200000F022FF1321902000F01EFF4FF44071A0
:103A3000922000F019FF0521932000F015FF0021CE
:103A4000952000F011FF0021972000F00DFF0021CC
:103A5000982000F009FF4FF48071012000F004FF6E
:103A60004FF4E061022000F0FFFE41F23801032034
:103A700000F0FAFE0021042000F0F6FE00210C20E8
:103A800000F0F2FE00210F2000F0EEFE00212020C9
:103A900000F0EAFE0021212000F0E6FE21210720AF
:103AA00000F0E2FE142001F045FD6121072000F046
:103AB000DBFE142001F03EFD40F27311072000F000
:103AC000D3FE142001F036FD95E4FE4880884BF2C9
:103AD000055188427ED10021084600F0C5FE002134
:103AE000084600F0C1FE0021084600F0BDFE00219E
:103AF000084600F0B9FE0121A42000F0B5FE142014
:103B000001F018FD4FF41C51602000F0ADFE40F2B2
:103B10000221082000F0A8FE4FF40571302000F0CB
:103B2000A3FE43F21571312000F09EFE40F20461C5
:103B3000322000F099FE40F61661332000F094FE2A
:103B400042F21121342000F08FFE4FF4A8513520AD
:103B500000F08AFE48F20751362000F085FE41F25F
:103B60000741372000F080FE41F20341382000F089
:103B70007BFE2021392000F077FE1A21902000F0F2
:103B800073FE0021102000F06FFE0721112000F0CD
:103B90006BFE0021122000F067FE0021132000F0D0
:103BA00063FE142001F0C6FC4FF4E661102000F023
:103BB0005BFE40F23711112000F056FE142001F098
:103BC000B9FC4FF4DC71122000F04EFE142001F01D
:103BD000B1FC00E083E04FF47061132000F044FE7C
:103BE00080212A2000F040FE4821292000F03CFEE0
:103BF000142001F09FFC4FF48071012000F034FE8E
:103C00004FF4E061022000F02FFE41F23801032062
:103C100000F02AFE40F20221082000F025FE0021DB
:103C20000A2000F021FE00210C2000F01DFE0021E2
:103C30000D2000F019FE30210E2000F015FE0021AD
:103C4000502000F011FEEF21512000F00DFE002168
:103C5000522000F009FE40F23F11532000F004FE14
:103C60004FF41C51602000F0FFFD0121612000F0A5
:103C7000FBFD00216A2000F0F7FD1121902000F0EB
:103C8000F3FD4FF4C061922000F0EEFD40F20241DE
:103C9000932000F0E9FD0221942000F0E5FD1420BE
:103CA00001F048FC0121072000F0DEFD142001F0A6
:103CB00041FC6121072000F0D7FD40F2731107207D
:103CC00000F0D2FD0021202000F0CEFD00212120B7
:103CD00000F0CAFD2221002000F0C6FD11E3794862
:103CE00080884CF2055188427ED10021084600F0C0
:103CF000BBFD0021084600F0B7FD142001F01AFCBE
:103D00000021084600F0B0FD0021084600F0ACFD9F
:103D10000021084600F0A8FD0021084600F0A4FD9F
:103D20000121A42000F0A0FD142001F003FC4FF4B9
:103D30001C51602000F098FD40F60601082000F0BC
:103D400093FD40F20371302000F08EFD01213120FF
:103D500000F08AFD0421322000F086FD4FF48171CD
:103D6000332000F081FD4FF44071342000F07CFDE1
:103D700040F20311352000F077FD1F21362000F0BE
:103D800073FD40F20371372000F06EFD01213820F1
:103D900000F06AFD0421392000F066FD1521902015
:103DA00000F062FD4FF48261102000F05DFD40F2F2
:103DB0004721112000F058FD4FF4DE71122000F071
:103DC00053FD4FF46061132000F04EFD782001F0A8
:103DD000B1FB4FF48071012000F046FD4FF40071FB
:103DE000022000F041FD00E050E041F230010320EC
:103DF00000F03AFD08210A2000F036FD00210C20D9
:103E000000F032FD20210E2000F02EFD00210F20B9
:103E100000F02AFD0021202000F026FD00212120B5
:103E200000F022FD3D212A2000F01EFD142001F0AB
:103E300081FB2D21292000F017FD0021502000F0EA
:103E400013FD4DF2EF01512000F00EFD0021522034
:103E500000F00AFD40F23F11532000F005FD002163
:103E6000612000F001FD00216A2000F0FDFC4FF40C
:103E70004071922000F0F8FC0521932000F0F4FC42
:103E80004FF48071072000F0EFFC3AE20D48808883
:103E900044F2315188427CD10121002000F0E4FC41
:103EA0000A2001F047FB41F22861102000F0DCFC01
:103EB0000E21122000F0D8FC40F63921132000F02A
:103EC000D3FC01E0980000200A2001F033FB4021E0
:103ED000112000F0C9FC5021152000F0C5FC0A207B
:103EE00001F028FB1E21122000F0BEFC0A2001F088
:103EF00021FB4FF4B151102000F0B6FC42F63921FD
:103F0000132000F0B1FC0A2001F014FB4FF4807183
:103F1000012000F0A9FC4FF44071022000F0A4FC45
:103F200041F23801032000F09FFC40F202210820FA
:103F300000F09AFC08210A2000F096FC00213020B5
:103F400000F092FC40F20241312000F08DFC4FF471
:103F50008371322000F088FC40F20351332000F0DE
:103F600083FC4FF48271342000F07EFC40F201317A
:103F7000352000F079FC40F20771362000F074FC27
:103F800040F20531372000F06FFC4FF40271382009
:103F900000E040E000F068FC40F60B71392000F0D2
:103FA00063FC0221412000F05FFC4FF41C516020B3
:103FB00000F05AFC0121612000F056FC4FF404711E
:103FC000902000F051FC4FF48571922000F04CFCE1
:103FD0000421932000F048FC4FF48071A02000F0F1
:103FE00043FC0121072000F03FFC2121072000F0C5
:103FF0003BFC2321072000F037FC3321072000F091
:1040000033FC40F23311072000F02EFC0021A020E9
:1040100000F02AFC75E1C248808844F2355188429C
:104020007ED13021152000F01FFC10219A2000F0D5
:104030001BFC2021112000F017FC43F22841102026
:1040400000F012FC0221122000F00EFC41F23801B7
:10405000132000F009FC282001F06CFA1221084618
:1040600000F002FC282001F065FA43F22041102004
:1040700000F0FAFB43F23801132000F0F5FB462074
:1040800001F058FA0021302000F0EEFB40F202412E
:10409000312000F0E9FB40F20731322000F0E4FB70
:1040A0004FF44171332000F0DFFB0421342000F095
:1040B000DBFB40F20141352000F0D6FB40F20771F6
:1040C000362000F0D1FB40F20531372000F0CCFB68
:1040D0004FF4C261382000F0C7FB4FF4C2613920B1
:1040E00000F0C2FB4FF48071012000F0BDFB4FF4E3
:1040F0004071022000F0B8FB41F23001032000F0D3
:10410000B3FB40F60801082000F0AEFB08210A20AE
:1041100000F0AAFB4FF41C51602000F0A5FB00E06A
:1041200031E00121612000F09FFB4FF49F7190204E
:1041300000F09AFB4FF48071922000F095FB4FF451
:104140008071932000F090FB4FF44051A02000F0CC
:104150008BFB1021A32000F087FB0121072000F03A
:1041600083FB2121072000F07FFB2321072000F0A3
:104170007BFB3321072000F077FB40F2331107204F
:1041800000F072FBBDE06648808841F6631188420A
:10419000F8D1E22000F058FB1D2000F04FFB022078
:1041A00000F04CFB042000F049FB642001F0E8F92A
:1041B000E02000F049FB012000F040FB0A2001F064
:1041C000B9F9E02000F040FB032000F037FB0C20A1
:1041D00001F0B0F9012000F037FB0A2001F0AAF944
:1041E000E62000F031FB2F2000F028FBFF2000F03C
:1041F00025FBFF2000F022FBB02000F025FB202053
:1042000000F01CFB002000F019FB032000F016FB5F
:1042100040F21F3000F012FB012000F00FFB40F2D3
:10422000DF1000F00BFB002000F008FBB42000F0D2
:104230000BFB042000F002FB40F21F4000F0FEFAEE
:10424000002000F0FBFA2E2000F0F8FA002000F029
:10425000F5FA002000F0F2FA002000F0EFFA00205A
:1042600000F0ECFAB62000F0EFFA022000F0E6FAD7
:104270004FF4037000F0E2FA002000F0DFFA17209C
:1042800000F0DCFA152000F0D9FA002000F0D6FA90
:10429000002000F0D3FAF02000F0D6FA032000F05E
:1042A000CDFA292000F0D0FAD02000F0CDFA00207D
:1042B00000F0C4FABE2000F0C7FA052000F0BEFAF4
:1042C000FE2000F0BBFA012000F0B8FA002000F058
:1042D000B5FA002000F0B2FA002000F0AFFAB820E2
:1042E00000F0B2FA032000F0A9FA012000F0A6FACB
:1042F000BA2000F0A9FA012000F0A0FA642000F032
:1043000029F80020FCF774FB01200649086004200E
:1043100000F04AF80020FCF735FB1FB000BD00009C
:10432000980000208081214208B503480088009051
:10433000BDF8000008BD00000008006C10B5044680
:10434000204600F081FA052001F01AF9FFF7ECFF92
:1043500010BD00002DE9F0470446BE2000F074FABD
:10436000052000F06BFA204601F073FA07464FF083
:1043700066320C4B01F080FA054601F03DFA1FFA57
:1043800080F9484600F05AFA012000F057FAFF2061
:1043900000F054FA002000F051FA002000F04EFA2C
:1043A000BDE8F0876666044070B504460023002629
:1043B000B748807901280BD1B548808846F60401BA
:1043C000884205D0B248808841F66311884208D1FE
:1043D000AF488079F0B9AE48808841F663118842D1
:1043E00018D1082C15D2DFE804F00406080A0C0ED8
:1043F000101206240DE007240BE0042409E0052434
:1044000007E0012405E0002403E0032401E0022486
:1044100000BF00BF9E48808849F24131884217D0D2
:104420009B48808846F60401884211D098488088CD
:1044300045F2103188420BD09548808845F21051E2
:10444000884205D09248808841F6631188427DD128
:10445000082C1CD2DFE804F00406090C0F12151812
:1044600000BF14E043F0800311E043F040030EE08E
:1044700043F0C0030BE043F0200308E043F0600387
:1044800005E043F0A00302E043F0E00300BF00BFFB
:104490007F48808845F21051884202D14FF4585627
:1044A00000E036267A48808845F2103188420DD0E7
:1044B0007748808845F21051884207D07448808838
:1044C00041F66311884201D043F0080370488088A8
:1044D00046F60401884201D143F0020319463046F2
:1044E00000F0C2F96A48808841F6631188421DD005
:1044F00003F0200068B16648008865494988884211
:1045000014DA634805884088614908800846458078
:104510000CE05F4800885E494988884206DD5C48B7
:10452000058840885A490880084645805848808850
:1045300045F21051884254D15549488900F084F918
:10454000002000F07BF95249498900E078E0491CDD
:1045500088B200F079F9002000F070F94C494989DF
:10456000891C88B200F070F949490988491EC1F3D5
:104570000F2000F063F946494989C91C88B200F050
:1045800063F943490978491EC8B200F057F9404918
:10459000888900F059F9002000F050F93C498989D8
:1045A000491C88B200F050F9002000F047F9384962
:1045B0008989891C88B200F047F935494988491E24
:1045C000C1F30F2000F03AF931498989C91C88B23A
:1045D00000F03AF92E498978491EC8B200F02EF948
:1045E00055E02B49488900F02FF9002000F026F90A
:1045F000002000F023F926490988491EC1F30F2045
:1046000000F01CF922490978491EC8B200F016F9D9
:104610001F49888900F018F9002000F00FF90020E8
:1046200000F00CF91A494988491EC1F30F2000F027
:1046300005F917498978491EC8B200F0FFF826E04D
:10464000082C1CD2DFE804F004070A0D0F1215181D
:1046500043F0300313E043F0100310E043F0200375
:104660000DE000BF0BE043F0380308E043F02803FF
:1046700005E043F0180302E043F0080300BF00BF69
:10468000032643F480531946304600F0EDF870BD20
:104690009800002010B503460C466748808849F210
:1046A0004131884205D06448808845F21031884203
:1046B00014D16149488900F0C7F8181200F0BEF81B
:1046C000D8B200F0BBF85C49888900F0BDF8201230
:1046D00000F0B4F8E0B200F0B1F8ABE056488088E2
:1046E00046F6040188421DD153488079012804D13F
:1046F00051480088401EC01A83B24F49488900F0D3
:10470000A3F8181200F09AF8D8B200F097F84A49C6
:10471000888900F099F8201200F090F8E0B200F0DB
:104720008DF887E04448808841F66311884247D17C
:1047300041488079A8B940480088401EC01A83B219
:104740003D49488900F080F8002000F077F800200B
:1047500000F074F8181200F071F8D8B200F06EF89A
:1047600016E03549488900F06FF8181200F066F835
:10477000D8B200F063F830490988491EC1F30F2010
:1047800000F05CF82C490978491EC8B200F056F8D0
:104790002949888900F058F8201200F04FF8E0B25B
:1047A00000F04CF824494988491EC1F30F2000F05D
:1047B00045F821498978491EC8B200F03FF839E030
:1047C0001D48808845F21051884220D11A494889F5
:1047D00000F03AF8181200F031F817494989491CDD
:1047E00088B200F031F8D8B200F028F81249888970
:1047F00000F02AF8201200F021F80F498989491C9D
:1048000088B200F021F8E0B200F018F812E00A488F
:104810008079012804D108480088401EC01A83B25C
:1048200005494889194600F01FF80349888921463F
:1048300000F01AF810BD000098000020014908801F
:10484000704700000008006C0149088070470000B4
:10485000FE07006C0248008902490880704700008A
:1048600098000020FE07006C024A1080921C118004
:1048700070470000FE07006C08B50121482000F0D9
:10488000D9F92020ADF8000010208DF80300032096
:104890008DF8020069460948FBF7BBFF2021074855
:1048A000FCF74DF82020ADF8000069460448FBF7FE
:1048B000B0FF20210248FCF742F808BD000C01407F
:1048C0000018014000BFFEE710B586B00446012184
:1048D000480400F09FF90121042000F0ABF9042006
:1048E000ADF8140018208DF8170003208DF816007D
:1048F00005A91248FBF78DFF0820ADF8140004202D
:104900008DF8170005A90D48FBF783FF01940020DF
:10491000ADF80800ADF80A00ADF80C00ADF81000D5
:104920000C20ADF80E0001A9054800F067FD01213B
:10493000034800F0BFFC06B010BD000000080140B5
:1049400000440040704700001CB511A103C9CDE927
:104950000001082000F058FA05226946302000F0D6
:10496000D3F805226946102000F082F8002406E002
:104970001DF80400A52800D003E0601CC4B2052C7B
:10498000F6DB00BF052C01D001201CBD0020FCE798
:10499000A5A5A5A5A500000008B501214FF48470C8
:1049A00000F048F94FF48050ADF8000010208DF869
:1049B000030003208DF8020069461448FBF729FF25
:1049C0004FF480511148FBF7BAFF4FF4C070ADF8B7
:1049D000000069460E48FBF71CFF4020ADF80000C0
:1049E00048208DF8030069460948FBF712FF4FF491
:1049F000C0710748FBF7A1FF00F096F900200549B8
:104A0000086080200249086108BD0000000C0140D8
:104A100000200140A001244210B500201149086087
:104A2000052211492A2000F06FF80121212000F011
:104A300089F80121222000F085F82821252000F0A6
:104A400081F82021312000F07DF80F21262000F090
:104A500079F83F21202000F075F801200349C1F8C2
:104A6000A00110BDA0012442795A00080000244290
:104A70002DE9F04107460D46164680200A49486157
:104A8000384600F09BF98046002405E0FF2000F046
:104A900095F92855601CC4B2B442F7DB8020024966
:104AA00008614046BDE8F0810020014070B5044631
:104AB000802007494861204600F080F9FF2000F07F
:104AC0007DF90546802002490861284670BD000036
:104AD0000020014070B504460720FFF7E7FF0546B8
:104AE0002946272000F02EF805F0400050B1202282
:104AF00021466120FFF7BCFFFF21E22000F022F8F1
:104B0000002070BD0120FCE72DE9F04107460C466E
:104B1000154680200A494861384600F04FF9804622
:104B2000002605E014F8010B00F048F9701CC6B22D
:104B3000AE42F7DB8020024908614046BDE8F081C3
:104B40000020014070B505460C46802006494861AA
:104B5000284600F033F90646204600F02FF9802061
:104B600001490861304670BD0020014070B5002148
:104B700000230F22C47804B3154C246804F4E064C5
:104B8000C4F5E064210AC1F10403CA40447804FA80
:104B900003F184781440214309010E4C0678A15595
:104BA000047804F01F050124AC4005786D11AD00B8
:104BB00005F1E025C5F8004109E0047804F01F057F
:104BC0000124AC40044D0678761145F8264070BDAE
:104BD0000CED00E000E400E080E100E00249014368
:104BE000024A1160704700000000FA050CED00E079
:104BF0007047000029B1064A52690243044B5A61CA
:104C000004E0034A52698243014B5A617047000035
:104C10000010024029B1064AD2690243044BDA610E
:104C200004E0034AD2698243014BDA617047000015
:104C30000010024029B1064A92690243044B9A616E
:104C400004E0034A92698243014B9A617047000075
:104C50000010024030B500210022002400232D4D19
:104C60006D6805F00C0121B1042905D0082923D174
:104C700005E0294D056022E0274D05601FE0254D28
:104C80006D6805F47012234D6D6805F480340225BB
:104C900005EB92421CB9214D554305600BE01D4DBB
:104CA0006D6805F400351DB11C4D5543056002E0EB
:104CB000194D5543056002E0174D056000BF00BF68
:104CC000144D6D6805F0F0010909154D6B5C056820
:104CD000DD4045600F4D6D6805F4E061090A104D37
:104CE0006B5C4568DD4085600A4D6D6805F4605178
:104CF000C90A0B4D6B5C4568DD40C560054D6D68AC
:104D000005F44041890B074D6B5CC568B5FBF3F5B5
:104D1000056130BD0010024000127A0000093D001C
:104D2000640000207400002000B587B00121082035
:104D3000FFF780FF01218803FFF76CFF4FF460400D
:104D4000ADF8180018208DF81B0003208DF81A000C
:104D500006A91848FBF75DFD4FF460411548FBF7C5
:104D6000EEFD0020ADF804004FF48270ADF80600AF
:104D70000020ADF80800ADF80A00ADF80C004FF4C3
:104D80000070ADF80E001020ADF810000020ADF856
:104D900012000720ADF8140001A9074800F054F8EC
:104DA0000121054800F044F8FF2000F007F807B0A3
:104DB00000BD0000000C0140003800400246002108
:104DC00005E0481CC1B2642901DD002070470D4890
:104DD000008800F002000028F3D00A48001D02807D
:104DE00005E0481CC1B2642901DD0020EEE705485A
:104DF000008800F001000028F3D00248001D008860
:104E0000C0B2E3E70838004010B504460748008800
:104E10004FF6C771084005490880084600882043BE
:104E200008800121014800F003F810BD003800405F
:104E300021B1028842F04002028004E002884FF66D
:104E4000BF731A400280704710B50022028802F436
:104E500041520B884C8823438C882343CC882343BE
:104E60000C8923434C8923438C892343CC892343D6
:104E70001A430280838B4FF2FF74234083830B8A93
:104E8000038210BD704710B500F002F810BD00009D
:104E90000CB50020019000903348006840F4803049
:104EA0003149086000BF3048006800F400300090CD
:104EB0000198401C0190009818B90198B0F5A06FB6
:104EC000F1D12948006800F4003010B101200090B1
:104ED00001E0002000900098012843D12348006899
:104EE00040F01000214908600846006820F00300E7
:104EF00008600846006840F0020008601A484068F0
:104F0000194948600846406848600846406840F4CF
:104F1000806048600846406820F47C10486008467D
:104F2000406840F4641048600846006840F08070B3
:104F3000086000BF0C48006800F000700028F9D03D
:104F40000948406820F00300074948600846406867
:104F500040F00200486000BF0348406800F00C00C9
:104F60000828F9D10CBD00000010024000200240CA
:104F7000042808D14FF0E021096941F004014FF005
:104F8000E022116107E04FF0E021096921F00401FE
:104F90004FF0E022116170477047000010B51348D0
:104FA000006840F001001149086008464068104957
:104FB00008400E494860084600680E4908400B4901
:104FC00008600846006820F48020086008464068B1
:104FD00020F4FE0048604FF41F008860FFF753FF85
:104FE0004FF000600449086010BD0000001002404E
:104FF0000000FFF8FFFFF6FE08ED00E07FB5054674
:105000000C460121C802FFF715FEADF80850ADF8B7
:1050100004400020ADF80A00ADF8060001A90D48D3
:1050200000F0B2F8012211460A4800F0A3F8192056
:105030008DF8000001208DF801008DF802008DF838
:1050400003006846FFF792FD0121024800F075F861
:105050007FBD0000002C014010B50121314800F057
:1050600078F800285CD001212E4800F063F8102168
:105070002D48FBF759FC78B108212B48FBF754FC6D
:1050800050B104212848FBF74FFC28B101212748E3
:10509000FBF74AFC012843D110212348FBF744FCCD
:1050A00058B90421224800F01AFA00BF8021204894
:1050B00000F048F90028F9D032E008211A48FBF73F
:1050C00033FC58B902211A4800F009FA00BF8021C8
:1050D000174800F037F90028F9D021E004211248E0
:1050E000FBF722FC58B90321114800F0F8F900BF82
:1050F00080210F4800F026F90028F9D010E00121A6
:105100000A48FBF711FC01280AD10121084800F0E8
:10511000E6F900BF8021064800F014F90028F9D014
:1051200010BD0000002C01400018014000080140A3
:1051300000440040CA430282704721B1028842F015
:105140000102028004E002884FF6FE731A400280DA
:10515000704730B50246002000230024158A05EA76
:105160000103958905EA010413B10CB1012000E0A7
:10517000002030BD1AB183890B43838102E083890B
:105180008B43838170470000002202881D4B9842A8
:105190000ED01D4B98420BD0B0F1804F08D01B4B66
:1051A000984205D01A4B984202D01A4B984204D12B
:1051B0004FF68F731A404B881A43174B984207D00B
:1051C000164B984204D04FF6FF431A40CB881A433F
:1051D00002808B8883850B8803850A4B98420BD00D
:1051E000094B984208D00E4B984205D00D4B98427F
:1051F00002D00D4B984201D10B7A038601238382A2
:1052000070470000002C01400034014000040040C1
:1052100000080040000C0040001000400014004056
:1052200000400140004401400048014010B540F2F8
:1052300025511D4800F093F810B31B4800F04AF9BF
:10524000C4B21A48008800F40040C8B91748008862
:1052500000F4804060B10A2C03D00020134908807C
:1052600020E01248008840F400401049088019E00E
:105270000D2C06D10D48008840F480400B49088071
:1052800010E00A480088C0F30D0009490C54074893
:105290000088401C0549088008460088632801DD15
:1052A0000020088010BD00000038014020000020D0
:1052B000D400002021B1828942F40052828104E0AE
:1052C00082894DF6FF731A40828170471AB1838A32
:1052D0000B43838202E0838A8B4383827047000002
:1052E0002DE9F04107460C4615461E4601210846A9
:1052F000FFF780FC3846FBF705F91048046045606D
:1053000000200E4988600846C66000200861486198
:105310008861C86120200862C0014862002088625C
:105320003846FBF7ABF901213846FBF7DFF80122DD
:1053300040210348FFF7CAFFBDE8F081A800002024
:105340000044004002460020B1F5007F00D100BFBC
:1053500013880B400BB1012000E00020704770B5AE
:105360000246002400230025002040F66A16B142C0
:1053700000D100BFC1F3421501F01F03012606FA58
:1053800003F3012D02D19689334006E0022D02D1AC
:10539000168A334001E0968A33400C12012606FA41
:1053A00004F41688344013B10CB1012000E0002051
:1053B00070BDF0B50346002400260025002040F60D
:1053C0006A17B94200D100BF1846C1F3421401F078
:1053D0001F06012707FA06F5012C01D10C3004E065
:1053E000022C01D1103000E014301AB107682F43AD
:1053F000076002E00768AF430760F0BD2DE9F047A2
:1054000086B005460E460024A24600BFA1460027EE
:10541000B08900B100BF2F462C8A4CF6FF700440C3
:10542000F08804432C82AC894EF6F3100440B08817
:1054300031890843718908430443AC81AC8A4FF633
:10544000FF400440B0890443AC8201A8FFF702FC8E
:105450001F48874202D1DDF810A001E0DDF80CA062
:10546000A88900F4004040B10AEBCA0000EB0A1022
:1054700031684900B0FBF1F807E00AEBCA0000EB25
:105480000A1031688900B0FBF1F86420B8FBF0F035
:1054900004012009642101FB1089A88900F400405F
:1054A00040B1322000EBC900B0FBF1F000F0070082
:1054B000044308E0322000EB09106421B0FBF1F056
:1054C00000F00F0004432C8106B0BDE8F087000017
:1054D0000038014001468888C0F308007047C1F3D6
:1054E00008028280704700BFFEE7014600BF704798
:1054F00010B56FF00400FFF73BFD0A4800680A4949
:10550000B0FBF1F0094908700846007800EB400153
:10551000C1EBC0104FF6FF7101EAC00004490880DA
:1055200010BD00005000002000127A000200002090
:10553000040000200146114A12884A434FF0E0233C
:105540005A6100229A611A46126942F001021A61F8
:1055500000BF4FF0E022106900F001021AB100F420
:105560008032002AF5D04FF0E022126922F00102C9
:105570004FF0E0231A6100229A6170470400002076
:105580000146114A12784A434FF0E0235A61002243
:105590009A611A46126942F001021A6100BF4FF087
:1055A000E022106900F001021AB100F48032002AF2
:1055B000F5D04FF0E022126922F001024FF0E02313
:1055C0001A6100229A6170470200002000BF054A5C
:1055D000128802F04002002AF9D0C2B2014B1B1D12
:1055E0001A8070470038014000BF00BFFFF780FFFE
:1055F0004FF4A060FFF7F2FA4FF4E131002000F021
:1056000093F82C48FFF760F9FFF736F9FBF79CF9A0
:10561000FBF7CEFAFFF7C0F90AE06420FFF78AFF34
:105620002548006808B9012000E0002022490860F0
:10563000FFF78AF90028F0D101201F490860FFF721
:10564000EBF901231D4A1E491E48FFF749FE472179
:10565000C720FFF7D3FCF0211948001FFFF73FFFD9
:1056600000BF80211648001FFFF76CFE0028F8D00D
:105670001EE01548FFF72EFAD0B9F0211048001FA0
:10568000FFF72DFF00BF80210D48001FFFF75AFED6
:105690000028F8D0002409E00B49601C085C095D73
:1056A00000EB012009490880A01CC4B2202CF3DBC8
:1056B000DFE70000001815009401234200000020DD
:1056C000044400406C000240780000200008006C98
:1056D0002DE9FC4107460C4615461E46DDF82080A4
:1056E000ADF8044003208DF8060018208DF807005F
:1056F00001A93846FBF78DF8ADF8046004208DF859
:10570000070001A92846FBF784F88DF800800220E5
:105710008DF801008DF8020001208DF80300684625
:10572000FFF724FABDE8FC8130B585B004460D468C
:1057300024B1012C11D0022C32D11FE0012144F2FE
:105740000400FFF777FA25204FF48063274A5115AC
:1057500000901046FFF7BCFF23E001214804FFF74B
:1057600059FA01210420FFF765FA262008231F4A71
:10577000042100901046FFF7ABFF12E001218804DE
:10578000FFF748FA01210820FFF754FA27204FF4C9
:105790000063174A111500901046FFF799FF00E0CB
:1057A00000BF00BF01950020ADF80800ADF80A0069
:1057B000ADF80C00ADF810000C20ADF80E000D494E
:1057C00051F8240001A9FFF719FE0A4951F82400F5
:1057D000012240F22551FFF7ECFD064951F8240063
:1057E0000121FFF767FD05B030BD00000008014052
:1057F000000C01400C0000204FEA1153A3F5806318
:10580000D3F11E03A8BFD3F1200C08DB4FF00042F8
:1058100042EAC12252EA505232FA03F0704709427A
:105820000BD4102BC4BF0020704703F5787CBCF16B
:10583000FF3F05D04FF0FF3070474FF0000070473A
:1058400070B500F0C3F800BF499224800020704773
:10585000F0E7B0FA80F310FA03F10AD0C3F11D03A8
:1058600003F580634FEA41504FEA035202EBD12126
:1058700070474FF000007047DFF848C170B51CEA70
:10588000111E1EBF1CEA13159EEA0C0F95EA0C0FA1
:1058900000F06F8081EA030423EA4C134EEAD47EC1
:1058A00021EA4C1141F4801143F48013AE44A1FB72
:1058B000024CA0FB0365AEF17F7E361955EB0C055B
:1058C000A1FB034C4CF10003A0FB021C16EB0C06E1
:1058D000654153F10003094218BF46F0010613F475
:1058E000007F0BD14FEA03314FEA0530340341EA20
:1058F000155140EA16506FF003020AE04FEAC32147
:105900004FEAC520F40241EA555140EA56506FF083
:10591000020202EB2E4201EB025585EACE710AD05B
:105920005FEA440C18BF24F0004450F1000041F13C
:10593000000120EAD47040F2FE7C624500D270BDC6
:10594000A84214BF4FF080444FF04044002E08BFDF
:105950000024BEF1806FA8BFA1F1C041BDE8704036
:1059600080F282804FF0000001F1C04101F000415F
:1059700070479EEA0C0F0CEA131518BF95EA0C0F3E
:1059800006D04FF0000081EA030E0EF0004170BD1A
:1059900000F01CF88900013E00F007B800F009B8DB
:1059A0004FEA430C5FEA5C5C08D081EA030100F037
:1059B0005BB84FEA410C5FEA5C5CF6D14FF0000047
:1059C000014970470000FF070000F87F0EF1020E4A
:1059D0002EF0030E5EF8046B364205D4012A43EB29
:1059E000030515F5001F12D8012841EB010C1CF529
:1059F000001F0CD80ED14FEAD17C15F5001F0CEB1F
:105A00004C0C0CF1020C08BF4CEBD37C04E04FF0C3
:105A1000080C01E04FEAD37C0CEB4C0526FA05F6A6
:105A200006F00706B6F1040C06D20EEB860CBDE8B4
:105A300070404CF0010C6047DFE80CF0090B0202EB
:105A40004FF000414FF00000A1F5002170BD194654
:105A50001046012851EB010418BFD4F5001484BF8F
:105A6000002001F0004170BD0808A0F500114FEAC8
:105A70003101704723233232012323323201303186
:105A80003233343536373839414243444546403065
:105A90005800303132333435363738396162636417
:105AA0006566403078000000C85A000800000020F9
:105AB000780000006C010008405B000878000020BE
:105AC000200700008801000800000000000000001E
:105AD0000000000000380140004400400048004041
