:020000040800F2
:1000000010080020A9010008C91E0008891700086F
:10001000F11D0008CB150008C52F000800000000E6
:100020000000000000000000000000009D2000080B
:100030002516000800000000511F0008B523000825
:10004000C3010008C3010008C3010008C301000880
:10005000C3010008C3010008C3010008C301000870
:10006000C3010008C3010008C3010008C301000860
:10007000C3010008C3010008C3010008C301000850
:10008000C3010008C3010008C3010008C301000840
:10009000C3010008C3010008C3010008C301000830
:1000A000C301000859260008C3010008C301000865
:1000B000C3010008C3010008C3010008C301000810
:1000C000C3010008C3010008C3010008C301000800
:1000D000C3010008552D0008C3010008C301000832
:1000E000C3010008C3010008C301000800F002F8C2
:1000F00000F04AF80AA090E8000C82448344AAF178
:100100000107DA4501D100F03FF8AFF2090EBAE875
:100110000F0013F0010F18BFFB1A43F0010318473B
:1001200084860000A4860000103A24BF78C878C1F5
:10013000FAD8520724BF30C830C144BF04680C60ED
:10014000704700000023002400250026103A28BF35
:1001500078C1FBD8520728BF30C148BF0B60704739
:10016000662907F08C83642900F0708000207047B6
:100170001FB500F0BFFC04000020002106F094FA37
:10018000E0601FBD10B510BD00F0F8FD1146FFF78F
:10019000EFFF05F00FF800F016FE03B4FFF7F2FFD3
:1001A00003BC03F0CAFA0000094880470948004729
:1001B000FEE7FEE7FEE7FEE7FEE7FEE7FEE7FEE717
:1001C000FEE7FEE704480549054A064B7047000074
:1001D000B9230008ED0000081002002010080020DC
:1001E0001004002010040020704710B54C1084EA61
:1001F000530404D54042C1F1000138BF491E1B42DF
:1002000004D55242C3F1000338BF5B1E00F056F91B
:1002100014F0804F04D04042C1F1000138BF491EA4
:1002200014F0004F04D05242C3F1000338BF5B1EEC
:1002300010BD00000FB4044910B503AA029800F0E5
:1002400025FC10BC5DF814FBA40000202DE9F04152
:100250000646002410687529314616A510D0AFF364
:100260000080002802DA404213A507E031688A07BF
:1002700001D512A502E0490704D511A5012401E02A
:10028000AFF3008000210A2206F1240709E0B0FB49
:10029000F2FCB0FBF2F302FB1C003030785418463D
:1002A000491C0028F3D123462A463046BDE8F041D8
:1002B00000F086B9000000002D0000002B000000B7
:1002C000200000002DE9F05F894604464FF0000A47
:1002D000DFF874B1FB44C0F820A02046E1688847ED
:1002E000002874D0252806D0D4E901219047206A3F
:1002F000401C2062F1E700265F462046E1688847FF
:100300002028054607DB312D05D2781910F8200C7E
:1003100008B10643F1E7B00701D526F00406C4F89A
:100320001CA00027C4F818A02A2D09D0284603F0E5
:10033000FDF938B304EB8708303DC8F8185019E0D0
:1003400059F8041B204604EB87029161E168884755
:10035000012F054618D1E069002820DA26F0200692
:100360001DE0D8F8180000EB800005EB40003038A5
:10037000C8F818002046E1688847054603F0D6F91A
:100380000028EED1012F0AD02E2D08D12046E16899
:1003900088477F1C0546022F46F02006C4DBA06973
:1003A000002803DA404246F00106A061F00701D0C0
:1003B00026F010066C2D0BD0682D09D04C2D39D0AD
:1003C0006A2D35D0742D35D07A2D33D016E038E033
:1003D000E1682F4620468847B842054609D16C2F70
:1003E00026D04FF48060E1680643204688470546E2
:1003F00004E06C2F1AD04FF4807006430DB3A5F1C2
:100400004100192802D8203546F400664A4629469C
:10041000204626604E46FFF7A3FE80B101280BD090
:10042000F61D26F0070000F1080956E74020E4E732
:100430008020D8E70020D6E706F104094DE72846DA
:1004400052E7206ABDE8F09FE282000040EA010323
:1004500010B59B070FD1042A0DD310C808C9121F6D
:100460009C42F8D020BA19BA884201D9012010BDA7
:100470004FF0FF3010BD1AB1D30703D0521C07E074
:10048000002010BD10F8013B11F8014B1B1B07D1D8
:1004900010F8013B11F8014B1B1B01D1921EF1D149
:1004A000184610BD02F0FF0343EA032242EA02426B
:1004B00000F000BB704770477047704753EA020C6A
:1004C00000F069802DE9F04B4FF00006002B1FBFB4
:1004D000B3FA83F503FA05F424FA05F65E4012BF79
:1004E0001643B2FA82F502FA05F4C5F120051EBFE3
:1004F00022FA05FC44EA0C04203556EA044C4FEA83
:10050000144418BF641C4FF000084FF000099042DB
:1005100071EB030C39D3002919BFB1FA81F701FA45
:1005200007F6B0FA80F700FA07F6C7F120071EBFFA
:1005300020FA07FC46EA0C062037B6FBF4FCA7EBD2
:100540000507103F07F01F0BCBF120060CFA0BFB41
:100550002CFA06F644BFB3460026202FA4BF5E4601
:100560004FF0000B5BEA060C08BF4FF0010B19EBD4
:100570000B09ABFB027C48EB0608C01B06FB02CC58
:100580000BFB03CC71EB0C01C1E70B460246414665
:100590004846BDE8F08B13B54FF000004FF0000166
:1005A000AFF30080BDE81C40704710B500F0A6FA1C
:1005B000006810BD10B5044600F0A0FA046010BD3C
:1005C0002DE9F0470D4699469246044600F124086D
:1005D0000168880604D5E06921F01001216000E07F
:1005E0000120A84201DD471B00E00027A1697A191C
:1005F00002EB0900081AA0612078C00602D4204648
:10060000AFF30080002608E0D4E901211AF80600C3
:100610009047206A401C761C20624E45F4DB20780F
:10062000C0060AD52046AFF3008006E0D4E90121D8
:1006300030209047206A401C2062381EA7F1010735
:10064000F4DC07E0D4E9012118F805009047206A9E
:10065000401C2062281EA5F10105F3DC2046AFF303
:1006600000802078000602D50220BDE8F087012036
:10067000FBE770472DE9FF4F0C461E464FF0FF3752
:100680008BB0D2E90001DDF860800A908A46C1F3A0
:100690000A5505B93D46002108464FF00000BAF161
:1006A000000F00F4400005DA00EB80004FF4400139
:1006B00001EA50004FEA9059B9F1010F00DDB94647
:1006C0000A9850EA4A000ED044F61050A5F2FF35C1
:1006D00045432F14B8F1000F1ED07542291E1EDDB0
:1006E000C9F100021CE0B8F1010F4FF0000001D089
:1006F000302103E0F24305E02154401CB042FBDB13
:1007000030460022002121540B99C1F80880C1E92C
:1007100000200FB0BDE8F08FBD1B6D1CDEE74A4620
:1007200000DA694206A800F08BFA06AB93E80700EE
:1007300003AB83E8070050460A9900F08BFB8DE875
:100740000700A0F500501F3800900398002D09DD28
:1007500042F21F014A46084403A90390684600F08C
:10076000EAFD08E0A0F500504A461F3803A90390AF
:10077000684600F0F4FD8DE807000004000C03D08B
:100780004FF0FF30410800E01046B8F1000F03D0F1
:100790000022009215461EE0751E05D400F0B2F945
:1007A000303262556D1EF9D5B3460122084302D09E
:1007B00000227F1C04E02078302801D100227F1E17
:1007C000002A099786D01DE0112D07DA00F09AF96A
:1007D000303262556D1C50EA0102F5D1084302D057
:1007E0000098C8B10EE00021681E05E0235C625C41
:1007F00063542254401E491C8142F7DBAB46A81BC0
:10080000401E0990002004F80B000B98099AC0F8CC
:100810000880C0E9002B7CE711264FF0000859E75B
:100820002DE9F04F88460446D21D22F0070191B011
:10083000D1E90001CDE90A0102F0FCFE02460B9865
:10084000C00F01D02D2007E02068810701D52B20A3
:1008500002E0202101EAC000032A099001D0072A02
:1008600005DB03464146204600F0AAF90BE120785B
:10087000800601D5E06900E00620B8F1650F8146E9
:1008800006D0B8F1660F18D0B8F1670F70D131E01B
:100890000020B9F1110F009001DB112301E009F1F3
:1008A00001030AAA01A90CA8FFF7E4FEDDE90C7018
:1008B000002609F10105834647E001204B460090E0
:1008C0004FF000470AAA01A90CA8FFF7D3FEDDE903
:1008D0000DB00C995D46002610B909F101000D1804
:1008E000B9EB050003D4C0F1FF3609F10105A5EB12
:1008F00009002BE0B9F1010F01DA4FF001090020E6
:10090000B9F1110F0090484601DD112300E00346C4
:100910000AAA01A90CA8FFF7ADFEDDE90C704D464F
:1009200000268346207800070AD4AB4500DA5D46EE
:1009300001A8012D04DD411911F8011C302907D04F
:100940004F4502DA17F1040F04DA012082460FE066
:100950006D1EEEE7002F02DCED1B3E4403E0781C29
:10096000A84200DD7D1CB81B00F1010A4FF00047D2
:100970002078000703D4AA4501DB4FF0FF3A00219D
:10098000B7F1004F0DF143088DF8431024D0022039
:100990002B23002F01DA7F422D230A21021EA0F112
:1009A000010000DC5FB197FBF1FC97FBF1F201FB6A
:1009B0001C7C17460CF1300C08F801CDEEE7A8F1CD
:1009C000010003702188090501D5452100E065215A
:1009D000A0F1010800F8011C09980FA9A1EB080774
:1009E000FF1D00B10120411901EBEA70A1693844F3
:1009F000081A401EA0612078C00602D42046AFF33A
:100A00000080099828B1D4E901219047206A401C50
:100A100020622078C00622D52046AFF300801EE079
:100A2000002E04DBB34502DD01A8805D00E030202C
:100A3000D4E901219047206A401C2062761CAAF16B
:100A400001005FEA000A0AD100F054F8C0680168AA
:100A5000405CD4E901219047206A401C2062281E96
:100A6000A5F10105DCDC07E0D4E9012118F8010B50
:100A70009047206A401C2062381EA7F10107F3DC72
:100A80002046AFF30080032011B043E6074B70B55A
:100A90000D467B4400F081F80446284600F03EF9FC
:100AA00010B14FF0FF3070BD204670BD57400000C0
:100AB0004FF000020429C0F0128010F0030C00F087
:100AC0003381CCF1040CBCF1020F18BF00F8012BEC
:100AD000A8BF20F8022BA1EB0C0100F025B95FEABA
:100AE000C17C24BF00F8012B00F8012B48BF00F89F
:100AF000012B704700487047CC0100200048704728
:100B0000AC01002030B5B0F10A024FEA900E71F14D
:100B100000034EEA817EB0EB0E0061EB91014FEADB
:100B2000101E4EEA017E10EB0E0041EB11114FEA50
:100B3000102E4EEA016E10EB0E0041EB11214FEA30
:100B4000104E4EEA014E10EB0E0041EB11414018E1
:100B500041F100014FEAD00040EA41704FEAD10173
:100B600010EB80054FEA810444EA907444EB0104E1
:100B70006D1944EB0404521BA3414FF0000348BF1E
:100B80000A3200D530BD401C41F1000130BD0000EB
:100B900001694A1C02610878704700B58FB0CDE941
:100BA00001310021059105497944CDE90310114631
:100BB0006846FFF787FB0FB000BD0000E5FFFFFFB1
:100BC0002DE9F0411F46044603260168072A01F477
:100BD000006004DB08B116A505E016A503E008B126
:100BE00015A500E015A521F010002060A069C01E29
:100BF000A0610FB1401EA0612046AFF300804FB14D
:100C0000D4E9012138469047206A401C2062C01C6C
:100C1000206206E0206AFAE7D4E9012115F8010B09
:100C20009047761EF8D22046AFF30080BDE8F081F1
:100C30004E414E006E616E00494E4600696E660080
:100C40002DE9F047814616468AB0334878440DC8EE
:100C50008DE80D0030487844801C03AC0DC884E852
:100C60000D0041F69B300844372190FBF1F290FBD8
:100C7000F1F5A5F1800501FB12041B3C02D564428D
:100C8000012000E00020DFF890A080460027FA4411
:100C9000AAF1BE0A0DE0E00709D03246684607EB2C
:100CA00047010AEB810100F05AFB8DE80700641050
:100CB0007F1C002CEFD1184F7F44AC3F18E0E807B1
:100CC00014D007EB04100DF1180A90E80E008AE822
:100CD0000E00C068F04201D198190890324606A96A
:100CE00003A800F03CFB03AB83E807006D10641C15
:100CF000002DE4D132466946B8F1000F03A802D0B6
:100D000000F019FB01E000F02AFBC9E90001C9F875
:100D100008200AB0BDE8F087EC7A0000007B00F004
:100D2000800070474FF0000200B513469446964687
:100D3000203922BFA0E80C50A0E80C50B1F12001EE
:100D4000BFF4F7AF090728BFA0E80C5048BF0CC09C
:100D50005DF804EB890028BF40F8042B08BF7047FA
:100D600048BF20F8022B11F0804F18BF00F8012B6C
:100D70007047000000487047AC0100207546FFF73F
:100D8000F9FFAE4605006946534620F00700854648
:100D900018B020B5FFF716FABDE820404FF0000666
:100DA0004FF000074FF000084FF0000B21F0070153
:100DB000AC46ACE8C009ACE8C009ACE8C009ACE896
:100DC000C0098D4670470446AFF300802046FFF708
:100DD000E4F900004FF0013C50F8042B51F8043BBB
:100DE0009A4221D1A2EB0C03934313EACC1317D1FF
:100DF00050F8042B51F8043B9A4215D1A2EB0C0396
:100E0000934313EACC130BD150F8042B51F8043B55
:100E10009A4209D1A2EB0C03934313EACC13DBD023
:100E20004FF00000704700BFD01A01BAB1FA81F14B
:100E300001F0180122FA01F0CB40C1F12001DBB230
:100E4000C0B2C01A2CFA01F3D11A914311EAC311AE
:100E5000E6D170475FEA400C08BF91F0000F4FEAFF
:100E60008C234FEAC12243EA51514FEA1C5018BF6C
:100E700000F5F0404FEA300018BF41F000415FEA52
:100E80006C5C00F02980BCF1FF3F08BF40F080405F
:100E90007047130C06BF12044FF0100C4FF0000CFB
:100EA000130E04BF12020CF1080C130F04BF120141
:100EB0000CF1040C930F04BF92000CF1020CD30F41
:100EC00004BF52000CF1010C11464FF00002A0F1DA
:100ED0001F00A0EB0C00704711F0004F08BF7047D7
:100EE00031F000413FF4D5AF0B0C06BF09044FF0C1
:100EF000100C4FF0000C0B0E04BF09020CF1080C93
:100F00000B0F04BF09010CF1040C8B0F04BF890007
:100F10000CF1020CCB0F04BF49000CF1010CCCF119
:100F20002003A0EB0C0022FA03F302FA0CF241EAD0
:100F3000030100F10100704720F07F4C80EA0300BC
:100F400023F07F47ACEB070303F57C5300F0004030
:100F500003F1FF032DE980494FEA154B09B44FEA2D
:100F6000144325EA0B4E24EA03480FF2042606EB4D
:100F7000132749083E785FEA320203FB0667C7F58C
:100F8000000707FB06F64FEA54374FEAD64606F14C
:100F9000020607FB066CCCF1005C4FEA1C472CEA0A
:100FA000074C07FB06F40CFB06F504EB15464FEA6D
:100FB000961634BF00204FF000404FEAD13706FBB1
:100FC00007FC4FEA1C4C0CFB0BF7D21B03FB0CF786
:100FD00061EB07010CFB0EF7B0EB074072EB174219
:100FE0000CFB08F734BFA2EB0742B2EB074261EB00
:100FF00017414FEA0C444FEA910706FB07FC4FEA02
:101000001C4C0CFB0BF7B0EBC74072EB573203FBE9
:101010000CF734BFA2EBC742B2EBC74261EB5731CA
:101020000CFB0EF7B0EBC70072EB57720CFB08F726
:1010300034BFA2EBC702B2EBC70261EB5771039F4B
:101040004FEA816141EA921104EBCC044FEAD137B7
:101050004FEA826206FB07FC42EA90124FEA806088
:101060004FEA1C4C0CFB0BF7D21B03FB0CF761EB9C
:1010700007010CFB0EF7B0EB074072EB17420CFBBD
:1010800008F734BFA2EB0742B2EB074261EB17410E
:101090004FEA8C554FEA910704EB9C2406FB07FCB2
:1010A0004FEA1C4C0CFB0BF7B0EBC74072EB57320E
:1010B00003FB0CF734BFA2EBC742B2EBC74261EBB4
:1010C00057310CFB0EF7B0EBC70072EB57720CFBFD
:1010D00008F734BFA2EBC702B2EBC70261EB57714E
:1010E00015EB4C254FEA816141EA92114FEA826289
:1010F0004FEAD13742EA901206FB07FC44F10004A4
:101100004FEA80604FEA1C4C0CFB0BF7D21B03FB31
:101110000CF761EB07010CFB0EF7B0EB074072EB2D
:1011200017420CFB08F734BFA2EB0742B2EB0742B1
:1011300061EB174115EB1C154FEA813141EA9241F1
:101140004FEA823242EA90424FEA80304FEA0C7610
:1011500044F1000448EA03434EEA0B484FF0000E06
:10116000B2EB080C71EB030724BF624639464EEB25
:101170000E0E4FF0000B0018524149414BEB0B0B88
:10118000B2EB080C71EB03077BF1000B24BF624646
:1011900039464EEB0E0E4FF0000B001852414941FC
:1011A0004BEB0B0BB2EB080C71EB03077BF1000B65
:1011B00024BF624639464EEB0E0E51EA020718BFB5
:1011C00046F0010616EB0E7655F1000254F10001CF
:1011D00003D5BDE88901BDE80088BDE88901BDE807
:1011E0000048B619524141EB0101A3F101037047D8
:1011F00080807F7E7D7C7B7A797877767675747354
:10120000727171706F6E6E6D6C6C6B6A6A69686812
:10121000676666656464636362616160605F5F5EA8
:101220005E5D5D5C5C5B5B5A5A595958585757561E
:101230005655555554545353525252515150505083
:101240004F4F4F4E4E4D4D4D4C4C4C4B4B4B4A4AD5
:101250004A49494948484847474747464646454519
:101260004544444444434343434242424241414152
:10127000002B26D4770021D01CB54FEA370703B4E2
:101280004FF010004FF010014FF000000FBCBDE810
:1012900010400BF1010BBBF1010F08BF5FEA17070C
:1012A00022BF12F1010211F101014FF0004143F19F
:1012B000000300F0004043EA00007047F9D35708EC
:1012C000DAE746EA064613F1400F4FEA16461FDDFD
:1012D00013F1200FDFBF16430A46002120335B4283
:1012E000C8D0C3F1200746EA064602FA07F74FEADC
:1012F000164646EA0706C3F1200722FA03F201FA6E
:1013000007F721FA03F14FF0000342EA0702B1E7C1
:1013100046EA020646EA06464FEA164646EA01064D
:10132000BCBF46EA0646360C4FF000034FF0000201
:101330004FF000019EE72DE9C048934630B491E894
:10134000380007C831EA400C48BF34EA430C03D5E3
:10135000FFF7F2FDFFF78CFFF0BCBDE800882DE938
:10136000C048934630B491E8380007C810F0804F69
:1013700008BF13F0804F03D100F005F8FFF778FFA6
:10138000F0BCBDE8008820F07F4780EA030023F02E
:101390007F4C07EB0C03A3F57C5300F00040A3F156
:1013A000FE0392F0000F00F0B38095F0000F00F004
:1013B00077802DE901494FEA11404FEA144621EAAE
:1013C000004800FB06FC24EA064708FB06F607FB7C
:1013D00008F800FB07F718EB06484CEB164C4FEAF1
:1013E000124B18EB07484FEA15464CEB174022EA20
:1013F0000B4E0BFB06FC25EA06470EFB06F607FB29
:101400000EFE0BFB07F71EEB064E4CEB164C4FF097
:1014100000061EEB074E4CEB174B18EB0B0840F188
:10142000000018EB0E0B58EB000840F100008F1A7B
:101430004FF000013CBFC943661B14BFB5EB040C61
:1014400000213CBFC943F61B4FEA17444EEA8E0EFB
:1014500027EA04454FEA1C4704FB07622CEA074CC5
:1014600005FB07F70CFB05F604FB0CFC16EB074627
:1014700042EB174216EB0C4642EB1C421BEB0606F6
:1014800058EB0202414146EA9E0601D5BDE80189BA
:10149000B619524141EB0101A3F10103BDE80189F5
:1014A0004FEA14454FEA114724EA054621EA074C62
:1014B00005FB07F406FB07F70CFB06F105FB0CFC2C
:1014C00011EB074144EB17444FEA124711EB0C4173
:1014D00044EB1C4422EA074C05FB07F206FB07F726
:1014E0000CFB06F605FB0CFC16EB074642EB17421D
:1014F00016EB0C4642EB1C456A1854F1000148BF3C
:101500007047B619524141EB0101A3F10103704745
:1015100095F0000F37D04FEA11424FEA144721EA05
:10152000024624EA074C02FB07F106FB07F70CFB17
:1015300006F402FB0CFC14EB074441EB17414FEAA5
:10154000154714EB0C4441EB1C4125EA074C02FB08
:1015500007F506FB07F70CFB06F602FB0CFC16EB87
:10156000074645EB174516EB0C4645EB1C42121996
:1015700051F1000148BF7047B619524141EB0101DA
:10158000A3F1010370474FEA14454FEA114724EADB
:10159000054621EA074C05FB07F106FB07F70CFBA4
:1015A00006F24FF0000605FB0CFC12EB074241EB84
:1015B000174112EB0C4251EB1C4148BF7047921887
:1015C00041EB0101A3F10103704700BFFEE70000FA
:1015D00010B504460F49204606F0A0F804D30E4982
:1015E000204605F09BFF12D200200C4908600C49F0
:1015F000C1F8BC010949091F08600949C1F8B001D7
:1016000001220021084600F02DFE012010BD00201F
:10161000FCE7000000002042000020C2B881214207
:101620000080214270472DE9F04102460025002646
:10163000002000230024002791F803C00CF00F05C0
:1016400091F803C00CF0100CBCF1000F03D091F81E
:1016500002C04CEA050591F800C0BCF1000F31D082
:10166000146800202BE04FF0010C0CFA00F3B1F8E5
:1016700000C00CEA03069E4220D183004FF00F0CFD
:101680000CFA03F7BC4305FA03FC4CEA040491F896
:1016900003C0BCF1280F06D14FF0010C0CFA00FC7E
:1016A000C2F814C00AE091F803C0BCF1480F05D19C
:1016B0004FF0010C0CFA00FCC2F810C0401C0828C6
:1016C000D1D31460B1F800C0BCF1FF0F34DD546811
:1016D00000202EE000F1080C4FF0010808FA0CF38E
:1016E000B1F800C00CEA03069E4221D183004FF0FE
:1016F0000F0C0CFA03F7BC4305FA03FC4CEA040494
:1017000091F803C0BCF1280F05D100F1080C08FACC
:101710000CF8C2F8148091F803C0BCF1480F07D14F
:1017200000F1080C4FF0010808FA0CF8C2F810801C
:10173000401C0828CED35460BDE8F0810161704799
:101740002DE9F04104460E46022000F08DFC0746CC
:10175000B7F5004F03DB781C00B2208001E038B2FF
:1017600020802088404200B22080042000F07CFCD1
:101770000546B5F5004F03DB681C00B2308001E080
:1017800028B23080BDE8F08100BFFEE7014649067F
:10179000084A926942F00102064B9A61064A526871
:1017A00022F0E062044B5A601A4652680A435A60BB
:1017B00070470000001002400000014008B5012100
:1017C000082000F0D7FB2020ADF8000048208DF85D
:1017D000030069460148FFF726FF08BD000C0140E1
:1017E00008B52048006800283AD10A2002F058FBCA
:1017F0001C480068002833D11B48007880F00100A5
:101800001949087000BF174800680028FBD0164827
:10181000007820B10121154800F0C6FF20E000212A
:10182000124800F0C1FF00200E49A43108601049A1
:10183000C1F8BC010B49A0310860091F08600120F4
:1018400008498C310860022000231A46194600908E
:10185000184600F025FC01220021084600F002FD98
:1018600008BD00001481214262000020002C0140CC
:101870000080214208B50121082000F07BFB4FF4D5
:101880008070ADF8000010208DF8030003208DF863
:10189000020069460348FFF7C6FE012002490860BE
:1018A00008BD0000000C0140A0812142B0F90020D9
:1018B00041F270739A4202DD1A46028007E0B0F9E5
:1018C00000200C4B9A4202DA4EF690020280B1F9E7
:1018D000002041F270739A4202DD1A460A8007E046
:1018E000B1F90020034B9A4202DA4EF690020A80C8
:1018F0007047000090E8FFFF10B500200E49086017
:101900000E48006820F00F000C4908600846006887
:1019100040F00300086000200949C1F8A00100F070
:1019200011F801200449086000F00CF80020044977
:10193000C1F8AC0110BD0000AC0121420408014017
:101940000000214210B5022002F0D0FA10BD0000C4
:1019500008B50121042000F00DFB4FF41060ADF834
:10196000000010208DF8030003208DF80200694666
:101970000448FFF758FE4FF410610248FFF7DEFEFF
:1019800008BD00000008014010B500200E490860A5
:101990000E48006820F00F000C49086008460068F7
:1019A00040F00300086001200949C1F8A001FFF7D9
:1019B000C9FF012004490860FFF7C4FF0020044963
:1019C000C1F8AC0110BD0000AC0121420408014087
:1019D0000000214270B5054600241648006820F03A
:1019E0000F00144908600846006840F004000860D1
:1019F000002614E0002010490860FFF7A3FF012033
:101A00000E49C1F8AC016006040E0B488C38006822
:101A100008B1601CC4B2FFF795FF701CC6B2082E57
:101A2000E8DB15B9FFF7B0FF01E0FFF765FF2046DF
:101A300070BD000004080140AC01214200002142B9
:101A400070B504461248006820F00F001049086085
:101A50000846006840F00300086000200D49086057
:101A6000002512E0E0090B490C3908606006040EFD
:101A700001200949C1F8AC01FFF764FF00200549C6
:101A80000860FFF75FFF681CC5B2082DEADB70BD78
:101A900004080140AC0121420000214210B50E486B
:101AA000006820F00F000C4908600846006840F00C
:101AB000030008600120094908600949C1F8AC0128
:101AC000FFF740FF002005490860FFF73BFF0020BB
:101AD0000349C1F8AC0110BD04080140A001214236
:101AE0000000214210B50E48006820F00F000C499C
:101AF00008600846006840F00300086000200949BB
:101B000008600949C1F8A001FFF71CFF0120054941
:101B100008600549C1F8A001FFF714FF10BD0000DF
:101B200004080140AC0121420000214210B500240C
:101B30001448006820F00F00124908600846006849
:101B400040F00400086001200F490860FFF7FAFE2A
:101B500001200E49C1F8AC01FFF7F4FE07E0601C5C
:101B6000C4B2FA2C03DDFFF7BDFF012010BD06480B
:101B7000803800680028F2D103490C31086000BFAA
:101B8000F4E7000004080140A001214200002142C6
:101B900010B5FFF7DDFE80216B2000F0D7F8642040
:101BA00002F07EF900216B2000F0D0F8032000F055
:101BB0008BF8002000F080F8322000F0AAF8002115
:101BC000382000F0C3F800216A2000F0BFF800219F
:101BD000232000F0BBF88021372000F0B7F87520F3
:101BE00000F013F80446682C0BD101216B2000F0A3
:101BF000ADF800216C2000F0A9F8322000F089F83F
:101C000001E0012010BD0020FCE770B50446FFF79D
:101C100045FFD020FFF714FFFFF788FF2046FFF7AE
:101C20000FFFFFF783FFFFF739FFD120FFF708FF12
:101C3000FFF77CFF0020FFF7CDFE0546FFF752FFC0
:101C4000284670BD2DE9F04106460F4614461D4654
:101C5000FFF724FF002141EA4601C8B2FFF7F0FE7A
:101C6000FFF764FF20B1FFF73DFF0120BDE8F081E1
:101C70003846FFF7E5FEFFF759FFFFF70FFF012199
:101C800001EB4601C8B2FFF7DBFEFFF74FFF0DE0A7
:101C9000012C04D10020FFF79DFE287003E00120F5
:101CA000FFF798FE2870601EC4B26D1C002CEFD1A7
:101CB000FFF718FF0020D9E710B50446E006010E33
:101CC0001C2000F043F810BD10B50446E006010EDC
:101CD0001B2000F03BF810BD70B504460025BC2C5D
:101CE00001DB012510E0622C01DB02250CE02A2C2F
:101CF00001DB032508E0142C01DB042504E00A2C99
:101D000001DB052500E0062529461A2000F01EF813
:101D100070BD70B50446B4F57A7F01DD4FF47A7476
:101D2000042C00DA04244FF47A7090FBF4F0401E87
:101D3000C5B22946192000F009F80546264604EBED
:101D4000D671C1F34F00FFF7C7FF70BD70B50546F0
:101D50000C46FFF7A3FED020FFF772FEFFF7E6FE6A
:101D600018B1FFF7BFFE012070BD2846FFF768FEDF
:101D7000FFF7DCFE2046FFF763FEFFF7D7FE18B142
:101D8000FFF7B0FE0120EFE7FFF7ACFE0020EBE726
:101D90002DE9F04105460E4617469846FFF77EFEB0
:101DA000002141EA4501C8B2FFF74AFEFFF7BEFE37
:101DB00020B1FFF797FE0120BDE8F0813046FFF724
:101DC0003FFEFFF7B3FE00240CE018F80400FFF715
:101DD00037FEFFF7ABFE18B1FFF784FE0120EBE7FB
:101DE000601CC4B2BC42F0DBFFF77CFE0020E3E7DE
:101DF00000BFFEE708B50121082000F0BBF84FF452
:101E00007040ADF8000010208DF8030003208DF81D
:101E1000020069460148FFF706FC08BD000C0140BE
:101E200000B589B00121022000F094F801210820BA
:101E300000F0A0F80320ADF8200018208DF8230052
:101E400003208DF8220008A91D48FFF7ECFB41F69E
:101E50001F40ADF818000020ADF81400ADF81A00CE
:101E6000ADF8160005A9174800F028FE6020ADF86F
:101E700004000120ADF806000020ADF80A00ADF81E
:101E80000C0001A90F4800F045FD01A90D4800F024
:101E90009BFD01210B4800F093FC0821094800F04C
:101EA00089FD0821074800F0CDFD0121054800F01B
:101EB00069FC0121034800F077FC09B000BD000077
:101EC000000C0140000400407047000070B5002184
:101ED00000230F22C47804B3154C246804F4E06492
:101EE000C4F5E064210AC1F10403CA40447804FA4D
:101EF00003F184781440214309010E4C0678A15562
:101F0000047804F01F050124AC4005786D11AD0084
:101F100005F1E025C5F8004109E0047804F01F054B
:101F20000124AC40044D0678761145F8264070BD7A
:101F30000CED00E000E400E080E100E00249014334
:101F4000024A1160704700000000FA050CED00E045
:101F50007047000029B1064AD2690243044BDA6196
:101F600004E0034AD2698243014BDA617047000002
:101F70000010024029B1064A92690243044B9A615B
:101F800004E0034A92698243014B9A617047000062
:101F90000010024030B500210022002400232D4D06
:101FA0006D6805F00C0121B1042905D0082923D161
:101FB00005E0294D056022E0274D05601FE0254D15
:101FC0006D6805F47012234D6D6805F480340225A8
:101FD00005EB92421CB9214D554305600BE01D4DA8
:101FE0006D6805F400351DB11C4D5543056002E0D8
:101FF000194D5543056002E0174D056000BF00BF55
:10200000144D6D6805F0F0010909154D6B5C05680C
:10201000DD4045600F4D6D6805F4E061090A104D23
:102020006B5C4568DD4085600A4D6D6805F4605164
:10203000C90A0B4D6B5C4568DD40C560054D6D6898
:1020400005F44041890B074D6B5CC568B5FBF3F5A2
:10205000056130BD0010024000127A0000093D0009
:10206000C0000020D00000200146022902D004292F
:102070000ED107E04FF08042908C00224FF0804359
:102080009A8407E0044A10880022034B1A8001E07A
:10209000002000BF00BF70472408004070470000C8
:1020A00070B5049C64B9154E056835600D88144EF2
:1020B00035801588134E35801D88134E35801CE001
:1020C000012C0FD10D4D2D6805600D4DB5F9005057
:1020D0000D800C4DB5F9005015800B4DB5F9005031
:1020E0001D800AE0022C08D10025044E3560044E04
:1020F0003580044E3580044E358070BD640000206C
:10210000680000206A0000206C00002000280ADA25
:102110000122174B1A600022164BC3F8BC21424221
:10212000154B1A8008E00022114B1A600122114B56
:10213000C3F8BC21104B188000290CDA01220C4B8B
:102140001B1F1A6000220B4BC3F8B0214A420A4BF6
:102150001B1F1A800AE00022054B1B1F1A60012278
:10216000044BC3F8B021044B1B1F198070470000BB
:10217000B8812142008021424004004010B500F0A7
:1021800001F810BD0CB500200190009033480068A4
:1021900040F480303149086000BF3048006800F4E6
:1021A000003000900198401C0190009818B90198E7
:1021B000B0F5A06FF1D12948006800F4003010B1EB
:1021C0000120009001E0002000900098012843D1F8
:1021D0002348006840F01000214908600846006864
:1021E00020F0030008600846006840F00200086024
:1021F0001A484068194948600846406848600846DF
:10220000406840F4806048600846406820F47C10D4
:1022100048600846406840F4E81048600846006896
:1022200040F08070086000BF0C48006800F000704B
:102230000028F9D00948406820F0030007494860A9
:102240000846406840F00200486000BF034840680C
:1022500000F00C000828F9D10CBD0000001002406D
:10226000002002402DE9FF5F05460E469146B9F178
:10227000010F05D100203A49086004B0BDE8F09F85
:10228000A919084605F01EF9364908603648006865
:1022900004F04CFF0746354A354B04F06DFCCDE9A0
:1022A00002013048006804F041FF07462F4A314BD5
:1022B00004F062FCCDE90001DDE9022304F03CFA00
:1022C000824604F007FA274908602B4890F900007D
:1022D00005F0F8F80746234801682148006804F033
:1022E00051FF8046394604F04DFF1D4908602349DF
:1022F0001B48006805F012FA03D22048184908600C
:1023000008E01F491648006805F008F902D21C4889
:10231000134908601B4948681149096805F032F9FA
:102320008046184908680F49096805F02BF982466C
:10233000414604F027FF074605F088F8044641F2BD
:102340007C518C4201DD0C4603E00F48844200DAE8
:102350000446044800680449086020B28DE7000084
:102360009800002090000020940000209A999999EC
:102370009999E93F9999C93F5E00002000C05A45EC
:1023800000C05AC54400002084EAFFFF042808D199
:102390004FF0E021096941F004014FF0E0221161A2
:1023A00007E04FF0E021096921F004014FF0E0223D
:1023B000116170477047000010B51348006840F085
:1023C00001001149086008464068104908400E495C
:1023D0004860084600680E4908400B4908600846F6
:1023E000006820F4802008600846406820F4FE0061
:1023F00048604FF41F008860FFF7C0FE4FF0006098
:102400000449086010BD0000001002400000FFF801
:10241000FFFFF6FE08ED00E0F0B50C461546002281
:102420000021068C4FF6FE773E400684028B018C1D
:102430004FF60C7632407E1C06EA03162E433243DA
:10244000104EB0420ED0104EB0420BD0B0F1804FC3
:1024500008D00E4EB04205D00D4EB04202D00D4E07
:10246000B04206D14FF6FD76314044F001063143CB
:1024700005E04FF6F576314044F001063143028322
:102480000184F0BD002C01400034014000040040F4
:1024900000080040000C0040F0B50C461546002234
:1024A00000210026078C4FF6EF7C07EA0C07078413
:1024B000028B018C4FF6FF7707EA041640F6FF47C0
:1024C0003A404FF6FF7707EA03373A434FF6FF7774
:1024D00007EA05273A43114FB8420ED0104FB842D1
:1024E0000BD0B0F1804F08D00E4FB84205D00E4F40
:1024F000B84202D00D4FB84206D14FF6DF773940CF
:1025000046F01007394305E04FF65F77394044F055
:102510001007394302830184F0BD0000002C014004
:10252000003401400004004000080040000C00405E
:10253000F0B50C461546002200210026078C4FF608
:10254000FF6C07EA0C070784828B018C4FF6FF773C
:1025500007EA04264FF60C773A404FF6FF7707EA72
:1025600003172F433A43114FB8420ED0104FB842D1
:102570000BD0B0F1804F08D00E4FB84205D00E4FAF
:10258000B84202D00D4FB84206D14FF6FF5739403E
:1025900046F48077394305E04FF2FF57394044F461
:1025A0008077394382830184F0BD0000002C014014
:1025B000003401400004004000080040000C0040CE
:1025C000F0B50C461546002200210026078C4EF679
:1025D000FF7C07EA0C070784828B018C4FF6FF779C
:1025E00007EA043640F6FF473A404FF6FF7707EA1E
:1025F00005273A434FF6FF7707EA03373A43114F6F
:10260000B8420ED0104FB8420BD0B0F1804F08D076
:102610000E4FB84205D00E4FB84202D00D4FB8420F
:1026200006D14DF6FF77394046F48057394305E02F
:1026300047F6FF57394044F4805739438283018479
:10264000F0BD0000002C01400034014000040040B7
:1026500000080040000C004038B501213A4800F065
:10266000DFF800286ED00121374800F09AF837498A
:102670003748FFF765F83748374B384A38490090F4
:10268000384802F00DFE3448B0F9001035480068B3
:1026900000F072FC3449088000222C48B0F9001088
:1026A0002B48B0F90000FFF7DDFD304908802948CC
:1026B000B0F9000004F006FF044622462348B0F9B2
:1026C00000102348B0F9000000F022FB00B22849B6
:1026D0000880254800882549098808442449098834
:1026E000084400B2234908801F4800881F49098810
:1026F00008441F490988401A00B21F4908801D4834
:10270000FFF7D4F817480068FEF762FF38B91A4897
:10271000B0F900101748B0F90000FFF7F7FC1748B0
:102720000088401C1549088008460088952809DD66
:10273000002008801248006808B9012000E000204D
:102740000F49086038BD0000002C014082000020C5
:10275000800000207E0000207C0000207800002007
:1027600074000020700000208400002086000020FB
:10277000880000208A0000208C0000206E000020CD
:10278000A081214221B1028842F08002028004E04F
:1027900002884FF67F731A4002807047CA43028254
:1027A0007047CA430282704721B1028842F0010299
:1027B000028004E002884FF6FE731A4002807047E0
:1027C00031B1B0F8442042F40042A0F8442005E0C2
:1027D000B0F84420C2F30E02A0F844207047F0B5D0
:1027E0000C4615461E460021002200230189028B5B
:1027F000038C4FF6F877394021434FF6FC473A40B7
:1028000040F201173A434FF6DD773B404FF6FF7732
:1028100007EA06172F433B43018102830384F0BD7F
:1028200030B50246002000230024158A05EA010382
:10283000958905EA010413B10CB1012000E00020E4
:1028400030BD000070B505460C46244885420ED0C8
:10285000234885420BD0B5F1804F08D021488542EE
:1028600005D02148854202D02048854200D100E0B1
:1028700000BF208850B92389A28861882846FFF7C5
:10288000CBFDE188284600F0ECF825E020880428FC
:102890000AD12389A28861882846FFF7FDFDE188D7
:1028A000284600F0E7F817E0208808280AD1238995
:1028B000A28861882846FFF73BFEE188284600F0A1
:1028C000E6F809E02389A28861882846FFF778FEA8
:1028D000E188284600F0E4F870BD0000002C0140BB
:1028E000003401400004004000080040000C00409B
:1028F000002101804180012181800021C18001816E
:1029000070471AB183890B43838102E083898B432B
:102910008381704770B5002400220023058C4FF698
:10292000FF6635400584028C8388848B4FF68F7553
:102930002C404FF6FC752C400D882C434FF6FF556C
:102940002A400D894FF6FF7606EA05252A434D8871
:1029500006EA05252A43154DA84202D0144DA84287
:102960001DD14FF2FF752A404D894FF6FF7606EADA
:1029700005252A434FF6FF352A408D8806EA0525AE
:102980002A434EF6FF752B404DF6FF752B408D897F
:1029900006EA05152B43CD8906EA05152B438380EE
:1029A0008483CD888587028470BD0000002C01409F
:1029B000003401400A460021818B4FF6F77319401D
:1029C000114381837047000070B50022002300246A
:1029D000058C4EF6FF7635400584038C8488828B07
:1029E00048F6FF752A404FF6FF452A400D884FF6FE
:1029F000FF7606EA05252A434DF6FF752B400D8923
:102A000006EA05352B434D8806EA05352B430B4D69
:102A1000A84202D00A4DA84208D14BF6FF752C40BF
:102A20008D894FF6FF7606EA85152C4384808283D4
:102A3000CD88A0F84050038470BD0000002C0140F8
:102A4000003401400A460021818B4FF2FF73194088
:102A50004FF6FF7303EA0223194381837047818491
:102A60007047028B4FF6F3731A400283028B0A43BE
:102A700002837047028B4FF2FF331A400283028BAE
:102A80004FF6FF7303EA01231A4302837047828BD8
:102A90004FF6F3731A408283828B0A438283704716
:102AA000828B4FF2FF331A408283828B4FF6FF7383
:102AB00003EA01231A438283704700000022028840
:102AC0001D4B98420ED01D4B98420BD0B0F1804F59
:102AD00008D01B4B984205D01A4B984202D01A4B93
:102AE000984204D14FF68F731A404B881A43174B04
:102AF000984207D0164B984204D04FF6FF431A4035
:102B0000CB881A4302808B8883850B8803850A4B08
:102B100098420BD0094B984208D00E4B984205D0F2
:102B20000D4B984202D00D4B984201D10B7A03868F
:102B30000123838270470000002C014000340140D3
:102B40000004004000080040000C0040001000405D
:102B50000014004000400140004401400048014092
:102B60004FF6FF71818000210180C1804180017298
:102B7000704700001FB50121C802FFF7FBF941F2C1
:102B80008730ADF808004720ADF804000020ADF80C
:102B90000A00ADF8060001A90D48FFF78FFF0122DA
:102BA00011460B48FFF7ADFE19208DF800000120FB
:102BB0008DF8010003208DF8020001208DF803003C
:102BC0006846FFF783F900210148FFF7EDFD1FBDBF
:102BD000002C014000B587B001210846FFF7BAF983
:102BE00001210420FFF7C6F90320ADF800000420FE
:102BF0008DF8030069461E48FEF715FD04A8FFF78F
:102C0000AFFF0020ADF810004FF6FF70ADF81400D4
:102C10000020ADF81600ADF8120004A94FF0804076
:102C2000FFF74CFF00231A4603214FF08040FFF7C7
:102C3000D6FD01A8FFF75CFE0A20ADF80C0001A943
:102C40004007FFF7FFFD01218807FFF7A7FD0122DD
:102C500011469007FFF755FE00214FF08040FFF727
:102C6000FEFE01218807FFF79FFD07B000BD0000B1
:102C70000008014000B587B001210420FFF76AF980
:102C800001210820FFF776F9C020ADF800000420EC
:102C90008DF8030069461C48FEF7C5FC04A8FFF741
:102CA0005FFF0020ADF810004FF6FF70ADF8140084
:102CB0000020ADF81600ADF8120004A91348FFF784
:102CC000FDFE00231A4603211048FFF788FD01A8E6
:102CD000FFF70EFE0A20ADF80C0001A90B48FFF724
:102CE000B1FD01210948FFF759FD012211460748AE
:102CF000FFF707FE00210548FFF7B1FE0121034859
:102D0000FFF752FD07B000BD000C01400008004075
:102D10002DE9F0410746884614460B48B0F90000FB
:102D200004F0D0FB0646214604F029FD074908605F
:102D3000074908680549096804F024FC0546284647
:102D400004F084FBBDE8F081600000209C000020BE
:102D50005000002010B540F225511D4800F04AF8FF
:102D600010B31B4800F002F9C4B21A48008800F4FE
:102D70000040C8B91748008800F4804060B10A2CB0
:102D800003D000201349088020E01248008840F456
:102D900000401049088019E00D2C06D10D4800882C
:102DA00040F480400B49088010E00A480088C0F3D6
:102DB0000D0009490C5407480088401C054908804B
:102DC00008460088C72801DD0020088010BD0000EB
:102DD00000380140A8000020E400002021B18289D1
:102DE00042F40052828104E082894DF6FF731A405A
:102DF0008281704770B50246002400230025002020
:102E000040F66A16B14200D100BFC1F3421501F08D
:102E10001F03012606FA03F3012D02D196893340E0
:102E200006E0022D02D1168A334001E0968A334033
:102E30000C12012606FA04F41688344013B10CB1C2
:102E4000012000E0002070BDF0B5034600240026FC
:102E50000025002040F66A17B94200D100BF18468D
:102E6000C1F3421401F01F06012707FA06F5012CF1
:102E700001D10C3004E0022C01D1103000E01430FC
:102E80001AB107682F43076002E00768AF43076085
:102E9000F0BD00002DE9F04786B005460E4600243F
:102EA000A24600BFA1460027B08900B100BF2F464F
:102EB0002C8A4CF6FF700440F08804432C82AC89C5
:102EC0004EF6F3100440B0883189084371890843F5
:102ED0000443AC81AC8A4FF6FF400440B089044300
:102EE000AC8201A8FFF756F81F48874202D1DDF8EF
:102EF00010A001E0DDF80CA0A88900F4004040B16A
:102F00000AEBCA0000EB0A1031684900B0FBF1F887
:102F100007E00AEBCA0000EB0A1031688900B0FB39
:102F2000F1F86420B8FBF0F004012009642101FBF2
:102F30001089A88900F4004040B1322000EBC9009C
:102F4000B0FBF1F000F00700044308E0322000EB92
:102F500009106421B0FBF1F000F00F0004432C8154
:102F600006B0BDE8F08700000038014001468888BF
:102F7000C0F30800704700002DE9F05F05460C46DD
:102F80000021284604F006FC8146204604F09AFA07
:102F900083460B488168584604F0F4FA8046084995
:102FA0000868494604F0EEFA8246414604F0EAF821
:102FB000074604F04BFA06B23046BDE8F09F000029
:102FC0003800002000BFFEE72DE9F04F9DB04FF024
:102FD000000900201C901B9080461A908246834670
:102FE00019901890179016901590149013901290B5
:102FF0001190FEA000681090FDA000680F90FDA049
:1030000000680E90FCA000680D90FCA000680C9079
:10301000FBA000680B90FBA000680A90FAA0006873
:103020000990FAA000680890F9A000680790F9A03C
:103030000068069000210D460E46F748008800F40F
:103040000040B0F5004F7DD100246FE0F348005DF3
:1030500010A9095D884203D10AF1010000F0FF0ABE
:10306000EE48005D0FA9095D884203D10BF1010014
:1030700000F0FF0BE948005D0EA9095D884203D10D
:103080001998401CC0B21990E448005D0DA9095D73
:10309000884203D11898401CC0B21890DF48005DE8
:1030A0000CA9095D884203D11798401CC0B2179043
:1030B000DA48005D0BA9095D884203D11698401CCF
:1030C000C0B21690D548005D0AA9095D884203D1B7
:1030D0001598401CC0B21590D048005D09A9095D43
:1030E000884203D11498401CC0B21490CB48005DB4
:1030F00008A9095D884203D11398401CC0B21390FF
:10310000C648005D07A9095D884203D11298401C9A
:10311000C0B21290C148005D06A9095D884203D182
:103120001198401CC0B21190601CC4B2032C8DDBFE
:10313000BAF1030F1FD0BBF1030F1CD0199803285D
:1031400019D000E026E21898032814D01798032815
:1031500011D0169803280ED0159803280BD0149878
:10316000032808D01398032805D01298032802D00A
:10317000119803287ED1BAF1030F05D101201B90CD
:10318000A7A0FDF757F857E0BBF1030F05D10220C8
:103190001B90A5A0FDF74EF84EE01998032804D126
:1031A0001B90A3A0FDF746F846E01898032805D128
:1031B00004201B90A0A0FDF73DF83DE017980328E0
:1031C00005D105201B909EA0FDF734F834E0169839
:1031D000032805D106201B9099A0FDF72BF82BE0C2
:1031E0001598032805D107201B9095A0FDF722F81C
:1031F00022E01498032805D108201B9090A0FDF729
:1032000019F819E01398032805D109201B908CA008
:10321000FDF710F810E01298032805D10A201B9042
:1032200087A0FDF707F807E01198032804D10B20C9
:103230001B9083A0FCF7FEFF032411E07748005D9C
:10324000302803DB7548005D392803DD7348005DD5
:103250002E2803D11A98401CC0B21A90601CC4B228
:103260006E48005D0028E9D11A98C01CA04204D124
:10327000012000E07AE11C9002E074A0FCF7DAFF84
:103280001C9800287DD0032406E06448005D2E28A9
:1032900000D1A046601CC4B26048005D0028F4D193
:1032A000A146B8F1000F53D0A8F10400C7B2002521
:1032B0002E4603241EE03A46791ECFB200206A490A
:1032C00000F09CF9CDE902015449095DA1F13000FB
:1032D00003F03AFCCDE90001DDE9022303F04CFCE8
:1032E0002A463346CDE9040103F026FA05460E4688
:1032F000601CC4B24445DEDB012708F10100C4B202
:103300001EE03A46791CCFB25848594900F076F988
:10331000CDE902014149095DA1F1300003F014FC3F
:10332000CDE90001DDE9022303F026FC2A463346FD
:10333000CDE9040103F000FA05460E46601CC4B254
:103340004C45DEDB2A4633464AA0FCF773FF2EE0ED
:10335000A9F10400C7B200252E46032420E03A4616
:10336000791ECFB20020404900F048F9CDE90201B2
:103370002A49095DA1F1300003F0E6FBCDE9000127
:1033800000E017E0DDE9022303F0F6FB2A463346AE
:10339000CDE9040103F0D0F905460E46601CC4B225
:1033A0004C45DCDB2A46334632A0FCF743FF33A012
:1033B000FCF740FF1B980B286AD2DFE800F0D0062C
:1033C0006A7B8C9DA4AAAFB4C2002846314603F0A4
:1033D00081F92B490860086803F0A8FE02460B46F5
:1033E000CDE9040127A0FCF725FFBEE055503A00C7
:1033F00055443A0056503A0056493A0073313A0063
:1034000073323A0073333A0073343A0073353A003A
:1034100073363A0073743A00A8000020E4000020DC
:1034200055503A200000000055443A2000000000AA
:1034300056503A200000000056493A200000000093
:10344000B8F1CABDD5FDC8B7A3A10000CAFDBEDD55
:10345000D2ECB3A32CC7EBD6D8D0C2B7A2CBCDA3A6
:10346000A1A3A1A3A10D0A00000024409A99999953
:103470009999B93F256C6609000000000D0A00000B
:10348000380000205550203D2025660D0A00000020
:1034900065E02846314603F01DF940498860886898
:1034A00003F044FE02460B46CDE904013CA0FCF7C4
:1034B000C1FE5AE02846314603F00CF93B4908604A
:1034C000086803F033FE02460B46CDE9040138A03C
:1034D000FCF7B0FE49E02846314603F0FBF83349DB
:1034E0004860486803F022FE02460B46CDE904011D
:1034F00032A0FCF79FFE38E033480078404240B2EB
:103500003249087031E0304890F900002F490870C6
:103510002BE04FF630002E49088026E04FF4FA6089
:103520002B49088021E0284800780A3040B226491B
:103530000870084690F90000642801DD64200870D6
:1035400013E0214800780A3840B21F490870084645
:1035500090F90000002801DA0020087005E0002042
:103560001A4908701A49088000BF02E019A0FCF748
:1035700061FEAFF2F800FCF75DFE002404E00020DD
:103580001C490855601CC4B21A48005D0028F6D1D9
:10359000194908801DB0BDE8F08F000038000020F8
:1035A0005544203D2025660D0A00000044000020FF
:1035B0005650203D2025660D0A0000005649203D4A
:1035C0002025660D0A000000AA0000205E000020F1
:1035D00060000020B8F1CABDB4EDCEF3A3ACC7EBD8
:1035E000D6D8D0C2B7A2CBCDA3A1A3A1A3A10D0AC7
:1035F00000000000E4000020A80000202DE9F041B8
:103600000746884616460024094D07E022462B4609
:103610003846414603F0B0FA04460D463000A6F1A4
:103620000101CEB2F2D120462946BDE8F08100006A
:103630000000F03F490050EAC12018BF04204A0DA5
:1036400018BF40F0010040F2FF72B2EB515F08BFBB
:1036500040F00200012808BF052070472DE9F04125
:103660004F1E00EBC7010446D1E9000115461E4676
:1036700037F006020DD02A46334603F07DFA7F1E4E
:1036800004EBC703D3E9002303F056F837F0060232
:10369000F1D1022F25D0042F13D0062F18BFBDE87B
:1036A000F0812A46334603F067FAD4E90A2303F08F
:1036B00043F82A46334603F05FFAD4E9082303F0BF
:1036C0003BF82A46334603F057FAD4E9062303F0C1
:1036D00033F82A46334603F04FFAD4E9042303F0C3
:1036E0002BF82A46334603F047FAD4E9022303F0C5
:1036F00023F82A46334603F03FFAD4E90023BDE815
:10370000F04103F019B8012204F0EDB803F014B849
:10371000002213461046114603F0BEB8024A0020AC
:10372000110704F0E0B8000001FDFFFF30380A285F
:1037300001D20120704700207047014600BF70474A
:103740002DE9FE4F06460F460025684601F0DCF9DC
:10375000002442E056F8240057F82410A0EB010A98
:10376000BAF1000F01DB514601E0CAF10001084641
:1037700003F0A8FE83464FF08F4103F071FD8046B1
:103780005DF82400002103F02DFE16D05DF8241012
:10379000404603F065FD82464FF07E5103F0FAFF8C
:1037A000814629F0004A0F48416A504603F0B6FFAF
:1037B00012D20120A04005430EE00A48C1694046EC
:1037C00003F0ACFE05D30748016A404603F0A6FFAC
:1037D00002D20120A0400543641C032CBADB28461A
:1037E000BDE8FE8F9C7900082DE9F04D8D4F21F04A
:1037F000004A86B005460C46BA452ADBAAEB07000C
:1038000028430AD08848824501DC1AD1CDB106B0E0
:103810002846BDE8F04DFFF776BF844A844B284622
:1038200003F0AAF907460E46824A834B28462146F2
:1038300003F0A2F906B03A463346BDE8F04D02F077
:103840007BBF0120FCF7B6FE06B0BDE8F04DFFF7E8
:103850005FBF7A48824542DABAF1795F0BDA2846CF
:10386000FFF7E8FE042808BFFFF758FF284606B018
:103870002146BDE8F08D2A460B46104603F07CF940
:10388000834602466E480E460B4606217844FFF7F3
:10389000E5FE5A46334603F06FF9804669488A468A
:1038A0005A46334604217844FFF7D8FE5A46334639
:1038B00003F062F900223B4602F03EFF02460B464F
:1038C0004046514602F0E8FF2A46234603F054F9E9
:1038D00006B02A462346BDE8F04D02F02DBF28462B
:1038E00024F0004100223D463B4603F043FA4FF0EE
:1038F000FF3203F0F8FF0646024653480F460B46D8
:1039000006217844FFF7AAFE32463B4603F034F91D
:10391000CDE900014D4832463B4604217844FFF78B
:103920009DFE32463B4603F027F900222B4602F06B
:1039300003FF834602913046394602F03FFE80463F
:1039400043480D46504517DCDDE900015A46029B0D
:1039500002F0A2FF42462B4603F00EF942462B46E8
:1039600002F0EAFE012203F0BEFF304A304B03F0C2
:10397000F3FA304A304B4CE04FF0000A52460B4607
:10398000404602F0D9FECDE9031052462B461046C0
:10399000194603F0F1F832463B4603F0EBF9DDE956
:1039A000033202F079FF06460F46DDE900015A4670
:1039B000029B02F071FF8346009101223046394696
:1039C00003F091FF194A1A4B03F0D4F906460F464B
:1039D00001224046294603F086FF5A46009B03F029
:1039E000CBF832463B4603F0B7FA06460F460122B3
:1039F0005046294603F077FF0E4DDFF858802A46DF
:103A0000434603F0B7F932463B4603F0B3F92A4682
:103A1000434603F0AFF9002CD8BF81F0004106B057
:103A2000BDE8F08D0000F03F0000F07F075C14332C
:103A300026A6913C182D4454FB21F93F0000E03F9D
:103A4000404D0000564D0000CA4C0000E04C000004
:103A50003333EF3FFB21E93F2DE9F84F04460D4694
:103A600021F0004000917349814211DC7249884283
:103A700001DC06D12CB120462946BDE8F84FFFF7FE
:103A800042BE6E48002DCCBF6D496E49BDE8F88F2F
:103A90006D49814211DD6D498142D8BF4FF0FF363B
:103AA0006DDD20462946FFF7C5FD042808BFFFF756
:103AB00035FE20462946BDE8F88F6549654F25F05B
:103AC0000045814233DD6449814219DD00263246DA
:103AD0004FF080432046294602F02EFE80468A465B
:103AE00001222046294603F0FEFE00223B4603F059
:103AF00033FA4246534602F0CFFE04460D463EE0FE
:103B000001260022BA463B462046294602F014FE12
:103B100080460F46002253462046294603F01CFAF1
:103B200042463B4602F0B8FE04460D4627E04B49AC
:103B300081421BDDDFF828A10226002253462046E1
:103B4000294603F019F800223B4602F0F5FD8046B5
:103B50000F46002253462046294603F0FDF942460F
:103B60003B4602F099FE04460D4608E00326224635
:103B70002B4600203B4902F08FFE04460D462246AC
:103B80002B461046194602F0F7FF8B468246024646
:103B90000B4602F0F1FF07460246334888460B46C3
:103BA00006217844FFF75AFD52465B4602F0E4FFD7
:103BB00082462E488B463A46434605217844FFF715
:103BC0004DFD3A46434602F0D7FF02460B46002E13
:103BD000504659460CDA02F0AFFD22462B4602F061
:103BE000CBFF01B022462B46BDE8F04F03F0C2B830
:103BF00002F0A2FD22462B4602F0BEFF1C4A7A4488
:103C000002EBC603D3E9002303F0A6F922462B46B4
:103C100003F0A2F9174A7A4402EBC603D3E9002362
:103C200003F0A8F8009A002AB8BF81F00041BDE86F
:103C3000F88F0000000010440000F07F182D44545D
:103C4000FB21F93FFB21F9BF0000DC3F0000203ED3
:103C50000000F33F0000F03F0000E63F008003401B
:103C60000000F83F0000F0BFE24A0000A04A000058
:103C70003E4A0000064A00002DE9F04D9446CCF182
:103C8000000423F000464CEA0404524F46EAD47480
:103C90009A46884621F00042BC4206D8454240EA96
:103CA000050442EAD474BC4204D9BDE8F04D624632
:103CB000FFF72CBDAAF14055A5F17F6555EA0C042C
:103CC0000BD0022404EAAA74434DDFF810E144EA61
:103CD000D87452EA000B04D00CE0BDE8F04DFFF7B9
:103CE000BBBE002C14BF012CBDE8F08D022C30D0DF
:103CF000032C32D056EA0C0B0AD0BE4220D1BA4275
:103D000009D126F0804622F080423346114617E062
:103D100000291ADB25E0DFF8C8B0FB44002C04BF03
:103D2000DBE90001BDE8F08D012C02BFDBE90001F9
:103D300081F00041BDE8F08D022C0AD0032C0CD09C
:103D4000BA4212D1B8F1000F0BDA23482549BDE879
:103D5000F08D28462449BDE8F08D28467146BDE81F
:103D6000F08D1D482149BDE8F08D921B12153C2AAB
:103D7000C4BF19481D490EDCBAF1000FBEBF12F1D5
:103D80003C0F0020014606DB624602F085FD21F073
:103D90000041FFF761FE002C08BFBDE8F08D012C4B
:103DA00004BF81F00041BDE8F08D114A114B022C97
:103DB00007D003F0D1F82A46BDE8F04D0A4B03F0D6
:103DC000CBB803F0C9F82A46BDE8F04D064B02F027
:103DD000D1BF00000000F07F182D4454FB2109C022
:103DE0009A490000FB21F9BFFB210940FB21F93F63
:103DF000075C143326A6A13C2DE9F0410446E07887
:103E000000F0C006E07800F03F05607800F00100A7
:103E100098B1EF102846E91705EB5171C910A5EBD1
:103E2000C101491C01F0FF080B48006820B10A4895
:103E3000414602683846904700BF607800F00800AD
:103E400030B10548406818B1B011034A516888473D
:103E50000020BDE8F0810000D400002010B56FF014
:103E60000400FEF793FA0A4800680A49B0FBF1F033
:103E7000094908700846007800EB4001C1EBC0100A
:103E80004FF6FF7101EAC0000449088010BD000030
:103E9000AC00002000127A00A0000020A200002048
:103EA0000146114A12884A434FF0E0235A6100222A
:103EB0009A611A46126942F001021A6100BF4FF07E
:103EC000E022106900F001021AB100F48032002AE9
:103ED000F5D04FF0E022126922F001024FF0E0230A
:103EE0001A6100229A617047A20000200146114A1F
:103EF00012784A434FF0E0235A6100229A611A4631
:103F0000126942F001021A6100BF4FF0E02210690D
:103F100000F001021AB100F48032002AF5D04FF00F
:103F2000E022126922F001024FF0E0231A61002220
:103F30009A617047A000002038B5044664B1202083
:103F40008DF8000028208DF8010030208DF8020047
:103F500038208DF8030004E0A32204216846FCF712
:103F6000A1FA6A46042140F69E2002F055FA01F0BB
:103F70003FFE38BD3EB5044602208DF80000CA2041
:103F80008DF80100E3208DF8020009208DF8030070
:103F90006A460421682002F03FFAA3208DF8000051
:103FA00004F0400048B1C0208DF80100C8208DF811
:103FB0000200C2208DF8030006E0A3208DF8010066
:103FC0008DF802008DF8030004F4C07048B1C420DD
:103FD0008DF80400CC208DF80500C6208DF8060071
:103FE00006E0A3208DF804008DF805008DF806008A
:103FF000A3208DF807008DF808008DF809006A46A7
:104000000A2140F6A72002F007FA04F0030018B1D5
:1040100020208DF8000002E0D8208DF800006A46CC
:10402000012140F6B62002F0F7F904F0200018B1A3
:10403000012000F0ADF802E0002000F0A9F804F43F
:10404000C07008B304F4807060B1B2208DF8000035
:104050008B208DF80100B6208DF802009B208DF892
:1040600003000BE0B0208DF8000080208DF80100E7
:10407000B4208DF8020090208DF803006A460421D8
:1040800040F6A22002F0C8F904F0010020B3F820A5
:104090008DF800006A4601214FF40B6002F0BCF974
:1040A000FA21072000F02CFC072000F0F3FB012090
:1040B00000F013FC642000F0F3FC4FF4FA7000F001
:1040C00002FDC821304800F0A3FB282000F0BCFB13
:1040D0000A2000F0CCFB08E0D8208DF800006A46EA
:1040E00001214FF40B6002F097F904F0020018B1BF
:1040F000D9208DF8000002E0D8208DF800006A4633
:10410000012140F23D7002F087F904F0040018B17B
:10411000012000F069F802E0002000F065F804F0EA
:10412000100018B10120FFF707FF02E00020FFF7A1
:1041300003FF44F008001549488101F059FD0020B3
:104140001249887304F0400018B10846807B801D36
:10415000887304F4C07020B10C48807B801D0B492B
:10416000887304F0140020B10848807B10300749A0
:10417000887304F0030020B10448807B001D0349CC
:10418000887300203EBD000009E3CA02D40000206D
:104190003EB504466CB10EA1D1E900208968CDE995
:1041A000002002916A4609214FF4976002F034F929
:1041B0003EBD0AA2D2E900109268CDE90102009149
:1041C0006A4609214FF4976002F026F9F0E70000F3
:1041D000B8AAB38DB4980D355D000000B8AAAAAA9C
:1041E000B088C3C5C700000038B5044664B1C0201C
:1041F0008DF80000C2208DF80100C4208DF8020067
:10420000C6208DF8030004E08B2204216846FCF7E9
:1042100049F96A46042140F6982002F0FDF801F0C1
:10422000E7FC38BD10B5C8234FF48062024940F660
:10423000F63001F071FB10BDC47900082DE9F04F94
:104240008DB00746884615469946DDE9166B002471
:10425000002030806B49887B5A4605A901F028FC74
:1042600018B1601E0DB0BDE8F08F6648807A00F08E
:104270001400002867D09DF8140000069DF8151062
:1042800040EA01409DF8161040EA01209DF8171001
:10429000084328609DF8180000069DF8191040EAB0
:1042A00001409DF81A1040EA01209DF81B100843B8
:1042B00068609DF81C0000069DF81D1040EA014052
:1042C0009DF81E1040EA01209DF81F100843A860C9
:1042D0009DF8200000069DF8211040EA01409DF85D
:1042E000221040EA01209DF823100843E86004F101
:1042F0001000C4B22868001401906868001402908D
:10430000A86800140390E8680014049001984043E2
:10431000029901FB0100039901FB0100049901FBD3
:10432000010ABAF1706F02DBBAF1885F05DD01F0B6
:104330005FFC00203080401E94E7B6F9000040F496
:104340008070308000BF2F48807A00F0400020B39A
:1043500005A9601C085C095D40EA012000B2A8F8CC
:10436000000005A9E01C095C05AAA01C105C41EA3C
:10437000002000B2A8F8020005A9601D095C201DFC
:10438000105C41EA002000B2A8F80400A01DC4B2ED
:10439000B6F9000040F0080030801A48408900F467
:1043A000C07008B305A9601C085C095D40EA0120E3
:1043B00000B2388005A9E01C095C05AAA01C105CAD
:1043C00041EA002000B2788005A9601D095C201D2B
:1043D000105C41EA002000B2B880A01DC4B2B6F95A
:1043E000000040F0700030800648807A00F0030042
:1043F00018B105A90819FFF7FFFC484600F016FFA1
:1044000000202FE7D400002070B588B0064601A830
:1044100001F0D6F8BDF804000021C90341EA504577
:10442000C4034448007A00F0030056F820000590C9
:104430004048007A00F0040010B105984042059011
:104440003C48007AC0F3C10056F820000690394875
:10445000007A00F0200010B10698404206903548DE
:10446000007AC0F3811056F8200007903148008987
:1044700000F4807010B10798404207900598C1176A
:10448000A0FB042301FB043100FB0510810041EA7D
:10449000927005900698C117A0FB042301FB04311C
:1044A00000FB0510810041EA927006900798C11741
:1044B000A0FB042301FB043100FB0510810041EA4D
:1044C000927007900598000E8DF808000598000C72
:1044D0008DF809000598000A8DF80A000598C0B209
:1044E0008DF80B000698000E8DF80C000698000C55
:1044F0008DF80D000698000A8DF80E000698C0B2DF
:104500008DF80F000798000E8DF810000798000C2A
:104510008DF811000798000A8DF812000798C0B2B4
:104520008DF8130002AA0C214FF4257001F074FFDE
:1045300008B070BDD400002030B585B0044616A286
:1045400007CA02AB07C3C82C03DD4FF0FF3005B02C
:1045500030BDC82090FBF4F0401E85B2280A8DF8CB
:104560000000E8B28DF801006A46022140F21620F0
:1045700001F052FF10B14FF0FF30E8E702AA0C2122
:1045800040F6C12001F048FF10B14FF0FF30DEE7E8
:10459000044884810020DAE7FEF2ABC4AAF1DFDF31
:1045A000BBAFDFDFD40000201FB504464848007AC7
:1045B00000F0030054F8200001904548007A00F014
:1045C000040010B10198404201904148007AC0F3C4
:1045D000C10054F8200002903D48007A00F020000D
:1045E00010B10298404202903948007AC0F381101D
:1045F00054F8200003903648008900F4807010B110
:104600000398404203903349019880FB0101800FD9
:1046100040EA810001902F49029880FB011082003E
:1046200042EA917002902B49039880FB01108200AE
:1046300042EA917003900198000E8DF800000198F5
:10464000000C8DF801000198000A8DF80200019815
:10465000C0B28DF803006A4604214FF4747001F073
:10466000DBFE18B14FF0FF3004B010BD0298000E11
:104670008DF800000298000C8DF801000298000AE5
:104680008DF802000298C0B28DF803006A4604213A
:104690004FF4757001F0C0FE10B14FF0FF30E3E74A
:1046A0000398000E8DF800000398000C8DF80100AF
:1046B0000398000A8DF802000398C0B28DF8030039
:1046C0006A4604214FF4767001F0A6FECCE70000A4
:1046D000D400002009E3CA0210B586B0044647A002
:1046E0000068039046A00068029046A00068019010
:1046F00045A00068009004F0030003A9085C8DF851
:10470000140003A8C4F3C101405C8DF8150003A890
:10471000C4F38111405C8DF8160004F0030002A977
:10472000085C8DF8100002A8C4F3C101405C8DF84C
:10473000110002A8C4F38111405C8DF8120005AA93
:10474000032140F2264001F067FE18B14FF0FF3020
:1047500006B010BD04AA032140F22A4001F05CFE1D
:1047600010B14FF0FF30F3E70198059000980490E6
:1047700004F0040058B19DF8140040F001008DF8D9
:1047800014009DF8100040F001008DF8100004F0B6
:10479000200058B19DF8150040F001008DF815007B
:1047A0009DF8110040F001008DF8110004F48070B4
:1047B00058B19DF8160040F001008DF816009DF8E4
:1047C000120040F001008DF8120005AA03214FF4F9
:1047D000886001F021FE10B14FF0FF30B8E704AA65
:1047E000032140F2314001F017FE10B14FF0FF30CD
:1047F000AEE7064804810020AAE700004CCD6C001B
:104800000CC92C003656760026466600D4000020DF
:10481000F8B505460E464FF47A7095FBF0F000FBB4
:1048200006F4200E8DF80000200C8DF80100200AFF
:104830008DF80200E0B28DF803006A4604214FF4BF
:10484000AE7001F0E9FDF8BD38B50446052094FBD3
:10485000F0F084B220128DF80000E0B28DF8010073
:104860006A4602214FF4AD7001F0D6FD38BD38B56F
:104870000446052094FBF0F084B220128DF800006D
:10488000E0B28DF801006A4602214FF4AC7001F0ED
:10489000C3FD38BD38B504460020009004F0010087
:1048A00020B19DF8000040F03000009004F00200BC
:1048B00020B19DF8000040F00C00009004F00400CE
:1048C00020B19DF8000040F0030000906A460121ED
:1048D0004FF4A47001F0A0FD38BD38B50446012C9A
:1048E00001DA012402E0042C00DD0424601EC0B2C1
:1048F00000906A46012140F24F1001F08DFD38BD55
:104900002DE9FC4706460F4606F0070010B1B7F543
:10491000C86F03DD4FF0FF30BDE8FC87384602F07A
:10492000E9FD8146594902F09BFC8046684600F04B
:1049300021FE9DF80000022806D0042816D0082881
:1049400026D0102848D135E04FF08D41404602F086
:1049500019FE814602F096FD84B24D49404602F0B0
:1049600011FE814602F08EFD85B238E04FF08C4199
:10497000404602F007FE814602F084FD84B24549BC
:10498000404602F0FFFD814602F07CFD85B226E044
:104990004FF08B41404602F0F5FD814602F072FD7A
:1049A00084B23D49404602F0EDFD814602F06AFDC9
:1049B00085B214E04FF08A41404602F0E3FD8146A3
:1049C00002F060FD84B23549404602F0DBFD8146CD
:1049D00002F058FD85B202E04FF0FF309CE700BFC7
:1049E00020128DF80400E0B28DF8050028128DF831
:1049F0000600E8B28DF8070006F00100A0B101AA98
:104A000002214FF4EA7001F007FD10B14FF0FF30C2
:104A100082E70DF1060202214FF4927001F0FCFCD6
:104A200010B14FF0FF3077E706F00200A0B101AA05
:104A300002214FF4EC7001F0EFFC10B14FF0FF30A9
:104A40006AE70DF1060202214FF4947001F0E4FCD4
:104A500010B14FF0FF305FE706F00400A0B101AAEB
:104A600002214FF4EE7001F0D7FC10B14FF0FF308F
:104A700052E70DF1060202214FF4967001F0CCFCD2
:104A800010B14FF0FF3047E7002045E700004843F2
:104A9000000040460000C045000040450000C04402
:104AA00038B50446052094FBF0F085B228128DF845
:104AB0000000E8B28DF801006A4602214FF4EF7061
:104AC00001F0AAFC38BD38B50446052094FBF0F08F
:104AD00085B228128DF80000E8B28DF801006A4610
:104AE00002214FF4ED7001F097FC38BD00BF054A7C
:104AF000128802F04002002AF9D0C2B2014B1B1DFD
:104B00001A807047003801407CB50546284949683D
:104B1000087801AB04220D21FDF794F808B10720B5
:104B20007CBD9DF80700C0F301109DF8041001F052
:104B3000E00140EAE1008DF800009DF80700C0F3B5
:104B400081009DF8051001F0E00140EAE1008DF8D8
:104B500001009DF8070000F003009DF8061001F029
:104B6000E00140EAE1008DF8020000241CE01DF89D
:104B7000040018B9002045F8240013E00D4845F85A
:104B8000240006E055F824000B4902F0FBFC45F830
:104B900024001DF80400401EC0B20DF804000028D7
:104BA000F0D100BF601CC4B2032CE0DB0020B7E7EB
:104BB000000000207B14AE3E1D5A843F2DE9F04FCB
:104BC00087B005460C46914601208DF81000002064
:104BD0008DF81100FE4A1268917CFD4A52681078E7
:104BE00004AB0222FDF7D4F820B14FF0FF3007B03C
:104BF000BDE8F08FC820FFF753F900208DF81000B2
:104C0000F34A1268D17BF24A5268107804AB012251
:104C1000FDF7BEF810B14FF0FF30E8E7EC4A12683C
:104C20005179EB4A5268107804AB0122FDF7B0F8D5
:104C300010B14FF0FF30DAE7E54A1268917CE44AA0
:104C40005268107804AB0122FDF7A2F810B14FF0C2
:104C5000FF30CCE7DE4A1268D17DDD4A5268107819
:104C600004AB0122FDF794F810B14FF0FF30BEE71E
:104C7000D74A12681179D64A5268107804AB0122DB
:104C8000FDF786F810B14FF0FF30B0E70C208DF83B
:104C90001000CF4A12681179CD4A5268107804ABDF
:104CA0000122FDF775F810B14FF0FF309FE70F209C
:104CB000FFF7F6F8C648806A407A8DF81000C44ABB
:104CC00012689178C24A5268107804AB0122FDF74D
:104CD0005FF810B14FF0FF3089E7BD48806A007A75
:104CE0008DF81000BA4A12685178B94A52681078A3
:104CF00004AB0122FDF74CF810B14FF0FF3076E71E
:104D0000B9F1000F07D0B248806A807A40F0E00025
:104D10008DF8100004E0AE48806A807A8DF81000AB
:104D2000AB4A12689179AA4A5268107804AB012202
:104D3000FDF72EF810B14FF0FF3058E7B9F1000F32
:104D400007D0A348806AC07A40F0E0008DF81000D8
:104D500003E0A048C07A8DF810009D4A1268D1790E
:104D60009B4A5268107804AB0122FDF711F810B18C
:104D70004FF0FF303BE7B9F1000F02D0C820FFF73A
:104D80008FF840208DF81000914A12681179904AEE
:104D90005268107804AB0122FCF7FAFF10B14FF013
:104DA000FF3024E778208DF81000894A1268517985
:104DB000874A5268107804AB0122FCF7E9FF10B172
:104DC0004FF0FF3013E783498889FFF769F8002027
:104DD0008DF810007E4A126851797D4A5268107829
:104DE00004AB0122FCF7D4FF10B14FF0FF30FEE618
:104DF000774A1268917A764A5268107804AB022298
:104E0000FCF720FF10B14FF0FF30F0E69DF81100E5
:104E10009DF8101040EA012B0C209BFBF0F0C6B26D
:104E20000020A86068602860A06060602060824602
:104E300065E0674A1268D17A654A5268107804AB17
:104E40000C22FCF7FFFE10B14FF0FF30CFE69DF8CB
:104E500011009DF8101040EA012000B2ADF80800E2
:104E60009DF813009DF8121040EA012000B2ADF841
:104E70000A009DF815009DF8141040EA012000B2C8
:104E8000ADF80C00BDF90810206808442060BDF999
:104E90000A10606808446060BDF90C10A0680844FE
:104EA000A0609DF817009DF8161040EA012000B29E
:104EB000ADF800009DF819009DF8181040EA012097
:104EC00000B2ADF802009DF81B009DF81A1040EAF0
:104ED000012000B2ADF80400BDF9001028680844B4
:104EE0002860BDF90210686808446860BDF90410C4
:104EF000A8680844A8600AF1010000F0FF0AB24562
:104F000097DB3448D0F800C02868C117090441EA8B
:104F100010410704624600233846FBF766F9324623
:104F20000023CDE90201FBF760F928602948D0F899
:104F300000C06868C117090441EA104107046246CD
:104F400000233846FBF751F932460023CDE9020130
:104F5000FBF74BF968601F48D0F800C0A868C1177C
:104F6000090441EA10410704624600233846FBF772
:104F70003CF932460023CDE90201FBF736F9A8607F
:104F80001448D0F804C02168C817000440EA11484A
:104F90000F046246002338464146FBF726F93246A5
:104FA0000023CDE90201FBF720F920600948D0F881
:104FB00004C06068C117090441EA10410704624651
:104FC00000233846FBF711F93246002304E00000C5
:104FD000000000209C790008CDE90201FBF705F9EB
:104FE00060601148D0F804C0A068C117090441EA04
:104FF00010410704624600233846FBF7F6F83246B4
:105000000023CDE90201FBF7F0F8A060A0680028BA
:1050100004DDA068A0F58030A06003E0A06800F582
:105020008030A0600020E2E59C7900082DE9FC5F5B
:1050300006460F4600253D494968087801AB032222
:105040000D21FCF7FFFD10B10720BDE8FC9F9DF886
:10505000040000F01F008DF804009DF8050000F02A
:105060001F008DF805009DF8060000F01F008DF868
:105070000600002456E056F8240057F82410A0EB50
:10508000010BBBF1000F01DB594601E0CBF1000140
:10509000084602F017FA4FF08F41009002F0E0F856
:1050A000814601A8005D68B32149086802F022FA30
:1050B000834659461F4802F0D3F8804604E01E4953
:1050C000404602F05FFA804601A8005D401EC0B273
:1050D00001A908550028F2D14146484602F0C0F81F
:1050E00083464FF07E5102F055FB82462AF0004B7A
:1050F0000F488169584602F011FB12D20120A040EE
:1051000005430EE00A480169484602F007FA05D354
:1051100007484169484602F001FB02D20120A04045
:105120000543641C032CA6DB28468EE70000002004
:105130009C79000800B04C4554E3853F10B5044607
:10514000204600F00FF80346E01C00F00BF843EA9D
:10515000C00083B2A01D00F005F843EA801083B2BE
:10516000184610BD014691F90020002A01DD0020FB
:105170001EE091F90020002A01DA042018E091F9DC
:105180000120002A01DD012012E091F90120002A0E
:1051900001DA05200CE091F90220002A01DD02204D
:1051A00006E091F90220002A01DA062000E007203B
:1051B000704700004FF4A060FCF7C0FEFEF74EFE03
:1051C0004FF4165001F020FA0220FCF7DFFA01201C
:1051D000FCF7DCFAFCF74EFBFCF7F0FAFDF7FAFC03
:1051E000FDF748FDFCF706FEFCF71AFEFDF7C2FCD2
:1051F000FCF7CEFC0AE00C48006808B9012000E08A
:105200000020094908600A20FEF74AFE00F062F912
:105210000028F0D101200449086003E0FCF7E0FA1F
:10522000FDF7D2FEFAE70000A0812142704700009E
:1052300070B50446002624F00104184890F82400B4
:1052400008B1002070BD1548807A10B94FF0FF30CA
:10525000F8E71248057C807A204010490874084617
:10526000007CA04202D04FF0FF3600E0002614B9C7
:105270000A48007D18B1012001F058F902E0002031
:1052800001F054F93CB100F0B3FC20B103480574BF
:105290004FF0FF30D6E73046D4E700000000002092
:1052A0002DE9F04F9BB004460D4616461F464FF0C1
:1052B0007E584FF000094FF0000A4FF0000B14A881
:1052C00015A91AAB10AACDE9001016A918A8FEF767
:1052D000B5FF18B101201BB0BDE8F08FBDF8540038
:1052E00000F4807000287CD0109802F0EBF84FF0AA
:1052F0009D410F9001F0B4FF8046119802F0E2F852
:105300004FF09D410F9001F0ABFF8146129802F0E3
:10531000D9F84FF09D410F9001F0A2FF82461398FB
:1053200002F0D0F84FF09D410F9001F099FF8346B5
:1053300041464FF0804002F025F95146069002F0B8
:1053400021F9494608904FF0404002F01BF95946B8
:10535000069002F017F90790089901F013FF0990E1
:1053600001F0E4FECDE90A01FEF73EFA4FF06632A5
:10537000574BCDE90C0101F0FFFBCDE90E0101F027
:10538000A9F9206051464FF0804002F0FBF85146E9
:10539000039002F0F7F8494605904FF0404002F0C4
:1053A000F1F84946039002F0EDF80490059902F0F7
:1053B000F1F94FF07E51069001F0E4FE079001F004
:1053C000B5FECDE90A0141464FF0804002F0DAF81F
:1053D0004946049002F0D6F8514606904FF08040BE
:1053E00000E06AE002F0CEF85946049002F0CAF8F4
:1053F0000590069901F0C6FE079001F097FECDE9F1
:105400000801DDE90A23FEF737FC4FF06632304B26
:10541000CDE90C0101F0B0FBCDE90E0101F05AF924
:1054200028605946584602F0ADF85146069050465D
:1054300002F0A8F849460490484602F0A3F8414615
:105440000290404602F09EF80190029901F09AFE07
:105450000390049902F09EF90590069902F09AF9DA
:10546000079001F063FECDE90A015946404602F07B
:1054700089F851460590484602F084F80490059951
:1054800001F080FE4FF08041069002F07BF807901B
:1054900001F04CFECDE90801DDE90A23FEF7ECFB43
:1054A0004FF066320A4BCDE90C0101F065FBCDE906
:1054B0000E0101F00FF9306001E002200BE7BDF8AA
:1054C00062003880BDF8641024980180002002E753
:1054D00066A64C4070B50024FCF73AFA00F024F9B7
:1054E000002840D1782000F02FFFC4B20CB1012079
:1054F00070BD7820FFF79CFEC4B20CB10220F7E724
:10550000642000F0D3FEC4B20CB10320F0E7FEF734
:1055100089FEC4B20CB10420EAE71548FFF70EFE7D
:105520000546FFF7D9F8C4B20CB10520E0E740F218
:105530007310FEF71FFDC4B20CB10620D8E764203B
:10554000FEF7FAFFC4B20CB10720D1E700F0A4FFC8
:1055500004460CB10820CBE7012000F0A3FDC4B243
:105560001CB10920C4E70A20C2E70020C0E7000000
:105570002C00002001461148407A30B1012807D0A4
:10558000022808D003280CD108E0022008700BE0A4
:105590000420087008E00820087005E0102008705A
:1055A00002E04FF0FF30704700BF0448C07C18B1E4
:1055B00008784006000E08700020F4E70000002084
:1055C00001461348407A30B1012808D002280AD099
:1055D000032810D10BE04FF4804008800EE041F624
:1055E0009C7008800AE04FF48050088006E04FF479
:1055F0000060088002E04FF0FF30704700BF0448B1
:10560000C07C10B10888401008800020F5E7000039
:105610000000002001460248007C0870002070470E
:105620000000002001460F48007A30B1012807D061
:10563000022809D003280FD10AE0FA2008800EE0E2
:105640004FF4FA7008800AE04FF47A70088006E0A0
:105650004FF4FA60088002E00020088000BF00BF1D
:10566000002070470000002001460E48007A30B14B
:10567000012807D0022808D003280CD108E00A48E6
:1056800008600BE00948086008E00948086005E088
:105690000848086002E04FF0FF30704700BF00206C
:1056A000FBE70000000000200000034300008342ED
:1056B000333303423333834101461248C07A08280A
:1056C00017D2DFE800F01704070A0D101318BC20EA
:1056D000088013E06220088010E02A2008800DE096
:1056E000142008800AE00A20088007E005200880CE
:1056F00004E000BF00BF0020088000BF00BF002002
:1057000070470000000000200146064890F8240081
:1057100010B14FF0FF3070470248C0890880002068
:10572000F9E70000000000201CB580208DF8000083
:10573000654A1268917C644A526810786B4601226F
:10574000FCF726FB10B14FF0FF301CBD6420FEF7C4
:10575000A7FB00208DF800005B4A1268917C5A4A32
:10576000526810786B460122FCF712FB10B14FF023
:10577000FF30EAE7544A1268917D534A5268107824
:105780006B460622FCF75EFA10B14FF0FF30DCE703
:105790009DF80500C007400F9DF8031001F00101BE
:1057A00040EA41009DF8011001F0010140EA0104C6
:1057B00094B1012C03D101214348C17431E0022C82
:1057C00003D100214048C1742BE021463FA0FAF7E5
:1057D00031FD4FF0FF30B8E73B4A1268D1783A4AC2
:1057E000526810786B460122FCF72CFA10B14FF08A
:1057F000FF30AAE79DF8000000F00F042CB93D48E7
:10580000FAF718FD4FF0FF309FE7042C06D13AA0BD
:10581000FAF710FD01212C48C17402E000212A484A
:10582000C174FF2128488172FF2027490872FF2197
:1058300025484172C1724FF6FF71C181FF21017489
:1058400081740121017380F82210002180F8231057
:10585000417501751630016041608160163880F82D
:10586000241080F82510C1844FF4FA6000F062FC27
:1058700010B14FF0FF3068E7022000F02BFB10B1B1
:105880004FF0FF3061E72A2000F0CEFC10B14FF05E
:10589000FF305AE7322000F009FD10B14FF0FF3021
:1058A00053E70020FFF7C4FC10B14FF0FF304CE786
:1058B000002000F051FB10B14FF0FF3045E7002011
:1058C00000F042FD002040E700000020556E737597
:1058D00070706F7274656420736F6674776172653F
:1058E0002070726F64756374207265762025642E53
:1058F0000A0000005487000848616C662073656EDA
:105900007369746976697479207061727420666F46
:10591000756E642E0A0000002DE9F04385B005463F
:105920000E4690469946294890F8250020B14FF040
:10593000FF3005B0BDE8F08316B94FF0FF30F8E74F
:10594000002423E0281B102801DD102000E0281B84
:1059500087B232193946204600F05EFD10B14FF093
:10596000FF30E6E701AA3946204600F001F910B100
:105970004FF0FF30DDE730193A4601A9FAF766FD2E
:1059800010B16FF00100D4E7E01984B2AC42D9DB6A
:105990004FEA28208DF8000008F0FF008DF8010084
:1059A0000A4A1268917E094A526810786B460222B0
:1059B000FCF7EEF910B14FF0FF30BAE701210348D0
:1059C00080F82510A0F826900020B2E70000002003
:1059D00038B50446282C02DD4FF0FF3038BDDCB965
:1059E000002000F0EBFB00208DF8000007208DF870
:1059F00001002E4A1268917C2C4A526810786B463E
:105A00000222FCF7C5F910B14FF0FF30E6E70021A4
:105A1000264801750020E1E7012000F0CFFB20209F
:105A20008DF80000012C06D100208DF80100052022
:105A300000F0FAFB17E0052C06DC01208DF80100D0
:105A4000052000F0F1FB0EE0142C06DC02208DF89E
:105A500001000A2000F0E8FB05E003208DF80100BA
:105A6000142000F0E1FB9DF80100072101EB8010FC
:105A7000C0B28DF801000D4A1268917C0B4A526841
:105A800010786B460222FCF783F910B14FF0FF301B
:105A9000A4E70821054881720021017301210175E5
:105AA0000020FFF7C5FB002098E700000000002061
:105AB000F8B504460F4616462C4890F8240010B955
:105AC0004FF0FF30F8BD2948807A10B94FF0FF3011
:105AD000F8E7264A1268917A244A526810786B4691
