:020000040800F2
:10000000A0080020F9510008290200082B0200086E
:100010002F02000833020008370200080000000029
:100020000000000000000000000000003B0200088B
:100030003D020008000000003F02000841020008E5
:1000400013520008135200081352000813520008FC
:1000500013520008135200081352000813520008EC
:1000600013520008135200081352000813520008DC
:1000700013520008135200081352000813520008CC
:1000800013520008135200081352000813520008BC
:1000900013520008135200081352000813520008AC
:1000A000135200083141000813520008135200088F
:1000B000135200081352000813520008135200088C
:1000C000135200081352000813520008135200087C
:1000D000135200086F510008135200081352000811
:1000E00013520008135200081352000800F002F8DF
:1000F00000F04DF80AA090E8000C82448344AAF175
:100100000107DA4501D100F042F8AFF2090EBAE872
:100110000F0013F0010F18BFFB1A43F0010318473B
:10012000E4A7000004A80000103A24BF78C878C1F2
:10013000FAD8520724BF30C830C144BF04680C60ED
:10014000704700000023002400250026103A28BF35
:1001500078C1FBD8520728BF30C148BF0B60704739
:10016000662909F01884642906F0BE85782906F00E
:10017000F785002070471FB507F00EFA0400002035
:10018000002108F027FBE0601FBD10B510BD07F08F
:1001900047FB1146FFF7EFFF00F008F807F065FB9B
:1001A00003B4FFF7F2FF03BC04F086FF4FF4A06036
:1001B00005F0C6FD00F02EFA00F0AAF904F012FFD7
:1001C0004FF4E13004F087FF00F0F3FA03E040F26F
:1001D0009A2000F038FA02F02FFD0028F7D13121E3
:1001E00041F61F4000F01EF900F07CF904F09CFB82
:1001F00003E040F29A2000F026FA04F000FC012807
:10020000F7D001200749086004F087FC41F61F4140
:10021000312000F0C9F903E004F07CF804F0CEFCD2
:10022000FAE70000B8812142704700BFFEE700BF37
:10023000FEE700BFFEE700BFFEE77047704770476C
:10024000704700000CB50020019000906C480068D9
:1002500040F480306A49086000BF6948006800F4D3
:10026000003000900198401C0190009818B9019846
:10027000B0F5A06FF1D16248006800F4003010B111
:100280000120009001E0002000900098012843D157
:100290005C48006840F010005A4908600846006851
:1002A00020F0030008600846006840F00200086083
:1002B00053484068524948600846406848600846CC
:1002C000406840F4806048600846406820F47C1034
:1002D00048600846406840F4E810486008460068F6
:1002E00040F08070086000BF4548006800F0007072
:1002F0000028F9D04248406820F003004049486097
:100300000846406840F00200486000BF3C48406832
:1003100000F00C000828F9D10CBD10B5FFF792FFD2
:1003200010BD10B53648006840F00100344908603F
:10033000084640683449084031494860084600682A
:10034000324908402E4908600846006820F48020A1
:1003500008600846406820F4FE0048604FF41F0023
:100360008860FFF7DAFF4FF000602949086010BD90
:1003700010B5002100200022214B5B6803F00C0126
:1003800021B1042906D0082928D107E0214B224CAD
:10039000236027E01F4B204C236023E0184B5B6851
:1003A00003F47010164B5B6803F48032022303EBF6
:1003B000904022B9194B4343174C23600DE0104B7A
:1003C0005B6803F4003323B1144B4343124C2360A6
:1003D00003E0104B4343104C236003E00D4B0E4CE5
:1003E000236000BF00BF064B5B68C3F303130C4CD4
:1003F000E15C094B1B68CB40074C236010BD00003B
:1004000000100240002002400000FFF8FFFFF6FE4F
:1004100008ED00E000127A000000002000093D0015
:100420000400002030B589B005460C46012108467D
:1004300005F02BFA0121042005F01AFA0F20ADF87F
:10044000200018208DF8230003208DF8220008A931
:100450002D4804F051FFADF81850ADF814400020BD
:10046000ADF81A00ADF8160005A94FF0804005F070
:10047000A9FD0121880706F001FA6020ADF804000B
:100480000120ADF806000020ADF80A00ADF80C0020
:100490004FF48070ADF8100001A9800505F0CFFD84
:1004A0000020ADF80A0001A94FF0804005F009FED8
:1004B0000020ADF80A0001A94FF0804005F04EFE83
:1004C0000020ADF80A0001A94FF0804005F091FE30
:1004D0000121880706F0D2F80121880706F0DAF832
:1004E00009B030BD10B54FF4A26081068886088738
:1004F0008887064908804FF47A7004F0B0FD4FF405
:100500007A7004F0ACFD10BD0008014040000040CE
:1005100008B501211C2005F0ABF901211E4804F0AB
:10052000BCFF4FF44050ADF8000028208DF80300C8
:1005300069461A4804F0E0FE08BD10B5044614B13F
:1005400001201749087016480078B8B115480068AE
:1005500018B11448001D006880B9322004F07FFDF6
:1005600000200F4908700F48006808B9012010BD2D
:100570000C48001D006860B90220F8E709480068CF
:10058000012806D10748001D0068012801D104494F
:1005900008700020EBE7000000023000000C014072
:1005A000140000203081214238B505460C4617481A
:1005B000806940F400601549886115480580001F76
:1005C000048013482038008840F001001049203989
:1005D00008800846008840F0400008800C482C380D
:1005E000008840F001000A492C39088019208DF854
:1005F000000000208DF801008DF8020001208DF828
:100600000300684605F0A1FB38BD00000010024061
:100610002C2C014008B50121082005F029F94FF4E0
:100620004440ADF8000010208DF8030003208DF841
:1006300002006946154804F05FFE4FF44441134838
:1006400004F007FF08BD12490968491C104A1160EF
:10065000814208D10F490968C9430F4AC2F8B8114D
:1006600000210B4A116070470C490968491C0B4A6C
:100670001160814209D10749091D0968C943064A29
:10068000C2F8BC110021054A11607047000C0140FE
:1006900018000020B8812142008021421C00002067
:1006A00070B505460C4600F0CDF9D02000F07EFA7A
:1006B00000F009FA18B100F0E5F9012070BD2846F4
:1006C00000F074FA00F0FFF9204600F06FFA00F035
:1006D000FAF918B100F0D6F90120EFE700F0D2F9ED
:1006E0000020EBE770B504460025BC2C01DB01259A
:1006F00010E0622C01DB02250CE02A2C01DB032533
:1007000008E0142C01DB042504E00A2C01DB05259C
:1007100000E0062529461A20FFF7C2FF70BD70B51C
:100720000446B4F57A7F01DD4FF47A74042C00DAC4
:1007300004244FF47A7090FBF4F0401EC5B22946B1
:100740001920FFF7ADFF0546264604EBD671C1F32D
:100750004F00FFF7C7FF70BD70B5044600F072F997
:10076000D02000F023FA00F0AEF9204600F01EFA87
:1007700000F0A9F900F066F9D12000F017FA00F0B6
:10078000A2F9002000F03DFA054600F07BF928466A
:1007900070BD10B50446E006010E1C20FFF780FF77
:1007A00010BD10B50446E006010E1B20FFF778FFD0
:1007B00010BD10B500F02DF980216B20FFF770FF00
:1007C000642004F04CFC00216B20FFF769FF03203C
:1007D000FFF7E7FF0020FFF7DCFF3220FFF79FFF66
:1007E00000213820FFF75CFF00216A20FFF758FF47
:1007F00000212320FFF754FF80213720FFF750FF0F
:100800007520FFF7A9FF0446682C0BD101216B204E
:10081000FFF746FF00216C20FFF742FF3220FFF771
:100820007EFF01E0012010BD0020FCE72DE9F04132
:1008300006460F4614461D4600F004F9002141EA21
:100840004601C8B200F0B2F900F03DF920B100F065
:1008500019F90120BDE8F081384600F0A7F900F051
:1008600032F900F0EFF8012101EB4601C8B200F0C7
:100870009DF900F028F90DE0012C04D1002000F0D2
:10088000C0F9287003E0012000F0BBF92870601E59
:10089000C4B26D1C002CEFD100F0F4F80020D9E7B1
:1008A0002DE9F84F6B46022241216820FFF7BEFF79
:1008B0009DF801009DF8001040EA01200FFA80FA2F
:1008C000504608F0D7F9804600224B4B08F07AF8E2
:1008D00006464A4A4A4B07F0C5FF044607F090FF18
:1008E00083464849584608F0E3FE044608F044FEB3
:1008F00000B2BDE8F88F2DE9FC4104460D461646CE
:100900006B46062243216820FFF790FF0746BFB9D8
:100910009DF801009DF8001040EA012000B22080FF
:100920009DF803009DF8021040EA012000B22880E3
:100930009DF805009DF8041040EA012000B23080C7
:100940003846BDE8FC812DE9FC4104460D461646BB
:100950006B4606223B216820FFF768FF0746BFB9B8
:100960009DF801009DF8001040EA012000B22080AF
:100970009DF803009DF8021040EA012000B2288093
:100980009DF805009DF8041040EA012000B2308077
:100990003846BDE8FC812DE9F04105460E46174674
:1009A000984600F04FF8002141EA4501C8B200F036
:1009B000FDF800F088F820B100F064F80120BDE8EF
:1009C000F081304600F0F2F800F07DF800240CE0F1
:1009D00018F8040000F0EAF800F075F818B100F01B
:1009E00051F80120EBE7601CC4B2BC42F0DB00F020
:1009F00049F80020E3E7000000407540A4703D0A7C
:100A0000D74342400000C84210B5022004F003FB67
:100A100010BD08B50121042004F02AFF4FF4C05096
:100A2000ADF8000010208DF8030003208DF80200BF
:100A300069468D4804F060FC4FF4C0518A4804F0C8
:100A400008FD08BD10B58848001D006820F47040FE
:100A50008549091D08600846006840F44050086058
:100A60000120824908608249C1F8B001FFF7CCFF3C
:100A700000207E490860FFF7C7FF00207C49C1F8CD
:100A8000B00110BD10B57848001D006820F470401A
:100A90007549091D08600846006840F44050086028
:100AA00000207249091D08607149C1F8AC01FFF7C7
:100AB000ABFF01206D49091D08606D49C1F8AC010B
:100AC000FFF7A2FF10BD10B500246748001D0068A5
:100AD00020F470406449091D08600846006840F42D
:100AE00000400860012061490860FFF78DFF012088
:100AF0005F49C1F8B001FFF787FF07E0601CC4B28F
:100B0000FA2C03DDFFF7BEFF012010BD57488038E7
:100B100000680028F2D15549091D086000BFF4E7BC
:100B200010B500205149091D08604F48001D00689C
:100B300020F470404C49091D08600846006840F4E4
:100B40004050086000204A49C1F8AC01FFF75CFF43
:100B500001204649091D0860FFF756FF002044495F
:100B6000C1F8B00110BD10B500204049091D086052
:100B70003D48001D006820F470403B49091D086095
:100B80000846006840F44050086001203849C1F828
:100B9000AC01FFF739FF01203449091D0860FFF758
:100BA00033FF00203249C1F8B00110BD70B50446D2
:100BB0002D48001D006820F470402B49091D086075
:100BC0000846006840F44050086000202749091D8D
:100BD0000860002512E0E009244908606006040E60
:100BE00001202349C1F8B001FFF70EFF00201F4983
:100BF000091D0860FFF708FF681CC5B2082DEADB75
:100C000070BD70B5054600241748001D006820F42B
:100C100070401549091D08600846006840F400400E
:100C20000860002615E000201049091D0860FFF744
:100C3000EBFE01200E49C1F8B0016006040E0B481E
:100C40008038006808B1601CC4B2FFF7DDFE701C7C
:100C5000C6B2082EE7DB15B9FFF785FF01E0FFF705
:100C60005FFF204670BD000000080140AC0121423A
:100C70000000214238B50446F74890F82400C0B17E
:100C800014B10220009001E000200090F24A1268A6
:100C9000D17BF14A526810786B460122FFF77BFE48
:100CA00010B14FF0FF3038BD9DF80010EA48417494
:100CB00023E0E948807A10B94FF0FF30F3E724B120
:100CC000E548407C08B10020EDE714B10120009018
:100CD00001E000200090E04A1268D17BDE4A5268B1
:100CE00010786B460122FFF756FE10B14FF0FF302F
:100CF000D9E79DF80010D84841740020D3E738B5F3
:100D000000241FE0D4480068C07AA04204D0D24832
:100D10000068407DA04200D112E0CF4949680878C0
:100D20006B4601222146FFF781FD10B14FF0FF30E5
:100D300038BD9DF800202146C8A005F0A1FF00BFE6
:100D4000601CC4B2C44840680079A042DADC0020CC
:100D5000EEE770B504460D46BF480068C07AA04271
:100D600004D0BD480068407DA04202D14FF0FF3062
:100D700070BDB94840680079A04202DC4FF0FF30F6
:100D8000F6E7B549496808782B4601222146FFF766
:100D90004DFDEDE738B50446AF4890F82300A0427A
:100DA00001D1002038BD14B13020009001E00020B6
:100DB0000090A948807C20B19DF8000040F002001E
:100DC0000090A54890F8220020B19DF8000040F066
:100DD00080000090A04A1268117D9F4A52681078E6
:100DE0006B460122FFF7D7FD10B14FF0FF30D9E776
:100DF000994880F823400020D4E738B5044604F031
:100E0000700010B10120009005E014B100200090A6
:100E100001E040200090904A1268917C8E4A52680E
:100E200010786B460122FFF7B6FD20B100218A48F9
:100E30008172481E38BD9DF8000020F040018648B0
:100E400001730020009004F0400020B99DF80000DC
:100E500040F00400009004F0200020B99DF800004C
:100E600040F00200009004F0100020B99DF800004E
:100E700040F00100009004F0080020B99DF8000047
:100E800040F038000090744A1268D17C724A52686F
:100E900010786B460122FFF77EFD20B100216E48DD
:100EA0008172481EC6E724B1082C02D00020FFF74B
:100EB00071FF6948847200210175322004F0CFF877
:100EC0000020B7E738B504466348807CA04201D1D2
:100ED000002038BD002C46D05F4A126811795E4A66
:100EE000526810786B460122FFF7A0FC10B14FF05A
:100EF000FF30EEE79DF8000020F020000090564AF9
:100F000012681179544A526810786B460122FFF733
:100F100042FD10B14FF0FF30DBE7032004F09FF8F3
:100F2000022000904C4890F8220020B19DF800006B
:100F300040F080000090484890F8230020B19DF8D0
:100F4000000040F030000090434A1268117D424A90
:100F5000526810786B460122FFF71DFD002851D022
:100F60004FF0FF30B5E73C4A126811793A4A5268AF
:100F700010786B460122FFF759FC10B14FF0FF309B
:100F8000A7E73548807A00F0010028B19DF80000FD
:100F900040F02000009004E09DF8000020F02000C8
:100FA00000902D4A126811792B4A526810786B46CE
:100FB0000122FFF7F0FC10B14FF0FF3089E703206A
:100FC00004F04DF8244890F8220010B180200090E1
:100FD00001E000200090204890F8230020B19DF807
:100FE000000040F0300000901B4A1268117D1A4A40
:100FF000526810786B460122FFF7CDFC10B14FF01C
:10100000FF3066E714488474002062E708B5124890
:10101000807A10B94FF0FF3008BD002000900E4AD2
:101020001268D17B0C4A526810786B460122FFF798
:10103000B2FC10B14FF0FF30EEE7074A1268517969
:10104000054A526810786B460122FFF7A4FC68B18C
:101050004FF0FF30E0E70000200000202523357826
:101060003A20252335780D0A00000000F84A12685E
:101070001179F74A526810786B460122FFF78BFC12
:1010800010B14FF0FF30C7E7F14890F82400002876
:1010900053D00C200090EE4A12681179EC4A526845
:1010A00010786B460122FFF776FC10B14FF0FF304D
:1010B000B2E7322003F0D3FFC0200090E448807AEA
:1010C00000F0010020B19DF8000040F020000090E9
:1010D000DF4A12681179DE4A526810786B460122A5
:1010E000FFF759FC10B14FF0FF3095E7D848407C2E
:1010F00010B10220009001E000200090D44A126854
:10110000D17BD34A526810786B460122FFF743FC2B
:1011100010B14FF0FF307FE700200090CC4A1268FA
:101120005179CB4A526810786B460122FFF733FCA5
:10113000002855D04FF0FF306EE704200090C44ADD
:1011400012681179C24A526810786B460122FFF783
:1011500022FC10B14FF0FF305EE7BD48807C20B923
:10116000BB48807A00F0010010B94020009001E0F7
:1011700060200090B64A12681179B54A526810781A
:101180006B460122FFF707FC10B14FF0FF3043E739
:10119000322003F064FFAE48407C10B10120009083
:1011A00001E000200090AA4A1268D17BA84A526848
:1011B00010786B460122FFF7EEFB10B14FF0FF30C5
:1011C0002AE7A34A12685179A14A52681078A04BC5
:1011D00010330122FFF7DFFB10B14FF0FF301BE7A8
:1011E000002019E770B50446002624F00104984851
:1011F00090F8240008B1002070BD9548807A10B99D
:101200004FF0FF30F8E79248057C807A2040904903
:1012100008740846007CA04202D04FF0FF3600E080
:10122000002614B98A48007D18B10120FFF722FD7D
:1012300002E00020FFF71EFD3CB1FFF7E7FE20B102
:10124000834805744FF0FF30D6E73046D4E738B511
:1012500004467F48807A10B94FF0FF3038BDBC2C6F
:1012600002DB0120009015E0622C02DB02200090DE
:1012700010E02A2C02DB032000900BE0142C02DB90
:101280000420009006E00A2C02DB0520009001E01B
:10129000062000906E48C07A9DF80010884201D167
:1012A0000020DBE76A4A12689178694A5268107830
:1012B0006B460122FFF76FFB10B14FF0FF30CDE717
:1012C0009DF800106248C1720020C7E738B5044697
:1012D000282C02DD4FF0FF3038BDDCB90020FFF7CD
:1012E00059FD00208DF8000007208DF80100584AB4
:1012F0001268917C564A526810786B460222FFF7BA
:101300004AFB10B14FF0FF30E6E70021504801756D
:101310000020E1E70120FFF73DFD20208DF80000CF
:10132000012C06D100208DF801000520FFF78FFF6A
:1013300017E0052C06DC01208DF801000520FFF7E1
:1013400086FF0EE0142C06DC02208DF801000A2036
:10135000FFF77DFF05E003208DF801001420FFF763
:1013600076FF9DF80100072101EB8010C0B28DF8D7
:101370000100374A1268917C354A526810786B46F2
:101380000222FFF708FB10B14FF0FF30A4E708215D
:101390002F48817200210173012101750020FFF7A0
:1013A00021FF002098E738B504462948807A10B913
:1013B0004FF0FF3038BD264890F8240010B14FF0B0
:1013C000FF30F7E72248007D50B134B1282C04DC0F
:1013D000E0B2FFF77BFF0020ECE70020FFF776FF8D
:1013E000042C01DA042404E0B4F57A7F01DD4FF423
:1013F0007A744FF47A7090FBF4F0401EC0B2009003
:10140000134A12685178124A526810786B460122CA
:10141000FFF7C1FA10B14FF0FF30CBE79DF80000A5
:10142000401C4FF47A7191FBF0F081B20848C18101
:101430000146C9894810FFF70AFF0020BAE738B50E
:1014400004460348807A28B94FF0FF3038BD0000C9
:1014500020000020022C06D0042C07D0082C08D035
:10146000102C0CD108E0002000900BE00820009028
:1014700008E01020009005E01820009002E04FF0F6
:10148000FF30E3E700BFF948407A9DF80010B0EB69
:10149000E10F01D10020D9E7F44A1268D179F34A6B
:1014A000526810786B460122FFF775FA10B14FF0C1
:1014B000FF30CBE79DF80000C110EC4841720020DE
:1014C000C4E738B50446E948807A10B94FF0FF30D8
:1014D00038BDFA2C09D0B4F5FA7F09D0B4F57A7F7B
:1014E00009D0B4F5FA6F0CD108E0002000900BE0B1
:1014F0000820009008E01020009005E018200090DF
:1015000002E04FF0FF30E3E700BFD848007A9DF8D3
:101510000010B0EBE10F01D10020D9E7D34A1268E7
:101520009179D24A526810786B460122FFF733FA5C
:1015300010B14FF0FF30CBE79DF80000C010CB4951
:1015400008720020C4E71CB580208DF80000C74A4F
:101550001268917CC54A526810786B460122FFF7E9
:101560001AFA10B14FF0FF301CBD642003F077FD74
:1015700000208DF80000BD4A1268917CBB4A526879
:1015800010786B460122FFF706FA10B14FF0FF30DA
:10159000EAE7B64A1268917DB44A526810786B4601
:1015A0000622FFF743F910B14FF0FF30DCE79DF85A
:1015B0000500C007400F9DF8031001F0010140EA4B
:1015C00041009DF8011001F0010140EA010494B1CD
:1015D000012C03D10121A548C17431E0022C03D1B3
:1015E0000021A248C1742BE02146A1A005F048FBD0
:1015F0004FF0FF30B8E79D4A1268D1789B4A526895
:1016000010786B460122FFF711F910B14FF0FF304F
:10161000AAE79DF8000000F00F042CB99E4805F0E1
:101620002FFB4FF0FF309FE7042C06D19BA005F065
:1016300027FB01218D48C17402E000218B48C17451
:10164000FF218A488172FF2088490872FF2187485C
:101650004172C1724FF6FF71C181FF210174817423
:101660000121017380F82210002180F823104175B8
:1016700001751630016041608160163880F82410D1
:1016800080F82510C1844FF4FA60FFF71AFF10B1FB
:101690004FF0FF3068E70220FFF7D1FE10B14FF0A6
:1016A000FF3061E72A20FFF7D2FD10B14FF0FF3085
:1016B0005AE73220FFF777FE10B14FF0FF3053E7C3
:1016C0000020FFF78FFD10B14FF0FF304CE70020F6
:1016D000FFF7F8FB10B14FF0FF3045E70020FFF7B0
:1016E0008CFB002040E770477CB504460D465F4800
:1016F000807A00F0700010B94FF0FF307CBD5B4A7B
:101700001268117B594A526810786B460622FFF71F
:101710008DF810B14FF0FF30F0E79DF801009DF813
:10172000001040EA012000B220809DF803009DF8DF
:10173000021040EA012000B260809DF805009DF88B
:10174000041040EA012000B2A08015B12846FFF73E
:10175000CAFF0020D2E77CB504460D464348807A94
:1017600000F0080010B94FF0FF307CBD3F4A12680E
:10177000517B3E4A526810786B460622FFF756F8B6
:1017800010B14FF0FF30F0E79DF801009DF8001018
:1017900040EA012000B220809DF803009DF802106D
:1017A00040EA012000B260809DF805009DF8041019
:1017B00040EA012000B2A08015B12846FFF793FF50
:1017C0000020D2E72DE9FE4F05460C462748807AD7
:1017D00018B94FF0FF30BDE8FE8F244A1268917BA4
:1017E000224A5268107802AB0222FFF71FF810B1AC
:1017F0004FF0FF30EFE79DF809009DF8081040EA30
:10180000012006B214B12046FFF76DFF1749496861
:10181000C88807F005FF154901904968B1F908002B
:1018200007F0E6FE8346304607F0E2FE5946009098
:1018300008F03CF88246019907F0A8FD81461F494F
:1018400007F036FD80464FF08F4107F031FF074625
:1018500007F092FE28600020BDE710B588B004466E
:101860001CB94FF0FF3008B010BD29E02000002067
:10187000556E737570706F7274656420736F6674E3
:10188000776172652070726F64756374207265761B
:101890002025642E0A000000B4A8000848616C6688
:1018A0002073656E736974697669747920706172EA
:1018B0007420666F756E642E0A00000000000C42F2
:1018C000206830B9606820B9A06810B9002008B05D
:1018D00010BDFA494968087806AB03221146FEF7A5
:1018E000A5FF10B14FF0FF30F1E79DF81800082177
:1018F00001EB201000F00F00ADF800009DF819007A
:1019000001EB201000F00F00ADF802009DF81A0066
:1019100001EB201000F00F00ADF80400206841003A
:10192000BDF90000403091FBF0F000B2ADF81000BE
:1019300060684100BDF90200403091FBF0F000B258
:10194000ADF81200A0684100BDF90400403091FBE1
:10195000F0F000B2ADF81400D8494968087806AB39
:1019600006221146FEF762FF10B14FF0FF30AEE7DE
:101970009DF819009DF8181040EA012000B2ADF85A
:1019800008009DF81B009DF81A1040EA012000B2E3
:10199000ADF80A009DF81D009DF81C1040EA0120DA
:1019A00000B2ADF80C00BDF81000BDF808100844F6
:1019B00000B2ADF81000BDF81200BDF80A100844DE
:1019C00000B2ADF81200BDF81400BDF80C100844C8
:1019D00000B2ADF81400BDF81000000A8DF8180030
:1019E000BDF81000C0B28DF81900BDF81200000A51
:1019F0008DF81A00BDF81200C0B28DF81B00BDF8BA
:101A00001400000A8DF81C00BDF81400C0B28DF857
:101A10001D00AA494968087806AB06221146FEF760
:101A2000BAFF10B14FF0FF3051E700204FE70146F9
:101A3000A248007A30B1012807D0022809D0032833
:101A40000FD10AE0FA2008800EE04FF4FA70088007
:101A50000AE04FF47A70088006E04FF4FA600880DC
:101A600002E00020088000BF00BF00207047014650
:101A70009248407A30B1012807D0022808D00328C4
:101A80000CD108E0022008700BE00420087008E088
:101A90000820087005E01020087002E04FF0FF30C9
:101AA000704700BF8548C07C18B108784006000E1A
:101AB00008700020F4E701468048C07A082817D251
:101AC000DFE800F01704070A0D101318BC20088087
:101AD00013E06220088010E02A2008800DE0142026
:101AE00008800AE00A20088007E00520088004E05A
:101AF00000BF00BF0020088000BF00BF002070476B
:101B000001466E4890F8240010B14FF0FF30704746
:101B10006A48C08908800020F9E701460020088053
:101B2000401E704701464FF0FF3070470146634842
:101B3000007A30B1012807D0022808D003280CD140
:101B400008E05F4808600BE05E48086008E05E4817
:101B5000086005E05D48086002E04FF0FF30704724
:101B600000BF0020FBE701465448407A30B101280D
:101B700008D002280AD0032810D10BE04FF480408F
:101B800008800EE041F69C7008800AE04FF4805017
:101B9000088006E04FF40060088002E04FF0FF305C
:101BA000704700BF4548C07C10B1088840100880CD
:101BB0000020F5E701464148007C0870002070478E
:101BC00001463E48807A10B10120087001E00020F3
:101BD00008700020704738B504463848807A10B93C
:101BE0004FF0FF3038BD354A1268117C334A5268D5
:101BF00010786B460222FEF719FE10B14FF0FF304D
:101C0000F0E79DF801009DF8001040EA012000B2C5
:101C100020800020E6E72DE9FE4F074688469246E1
:101C20001D46DDF830B000260024244890F824003A
:101C300010B1601EBDE8FE8F002028701F48807A1A
:101C400010B94FF0FF30F5E71C48007C10B94FF099
:101C5000FF30EFE71948007C00F0400008B1B01CED
:101C6000C6B21648007C00F0200008B1B01CC6B215
:101C70001248007C00F0100008B1B01CC6B20F483A
:101C8000007C00F0080008B1B01DC6B20B4A126813
:101C9000917A0A4A526810786B460222FEF7C6FD16
:101CA00010B14FF0FF30C5E79DF801009DF800101E
:101CB00040EA0129B1450BDA0020BBE720000020F3
:101CC0000000034300008342333303423333834134
:101CD000FC4840684088B9EB600F17DDF94A12688C
:101CE000517CF84A526810786B460122FEF79EFD3F
:101CF00010B14FF0FF309DE79DF8000000F010009C
:101D000020B1FFF783F96FF0010093E75046FFF72A
:101D1000EAFCEC4A1268D17AEA4A526810786B46BB
:101D20003246FEF783FD10B14FF0FF3082E799FB9A
:101D3000F6F0401E8BF8000000202870B4422AD034
:101D4000E048007C00F0080028B3601C1DF800008B
:101D50001DF8041040EA012000B2A8F80000E01CC1
:101D60001DF80010A01C1DF8000041EA002000B280
:101D7000A8F80200601D1DF80010201D1DF80000CD
:101D800041EA002000B2A8F80400287840F00800DA
:101D90002870A01D84B2B44213D0CA48007C00F061
:101DA000400070B1601C1DF800001DF8041040EAEE
:101DB000012000B23880287840F040002870A01C34
:101DC00084B2B44213D0BF48007C00F0200070B150
:101DD000601C1DF800001DF8041040EA012000B24C
:101DE0007880287840F020002870A01C84B2B4428B
:101DF00013D0B448007C00F0100070B1601C1DF8D6
:101E000000001DF8041040EA012000B2B8802878D4
:101E100040F010002870A01C84B200200AE7F8B53A
:101E200004460F461646A74890F8240010B94FF014
:101E3000FF30F8BDA348807A10B94FF0FF30F8E7C3
:101E4000A04A1268917A9F4A526810786B46022223
:101E5000FEF7ECFC10B14FF0FF30EAE79DF801000F
:101E60009DF8001040EA0125A54203DA00203070F9
:101E7000401EDEE7934840684088B5EB600F17DDF1
:101E8000904A1268517C8F4A526810786B46012242
:101E9000FEF7CCFC10B14FF0FF30CAE79DF8000010
:101EA00000F0100020B1FFF7B1F86FF00100C0E7BB
:101EB000E2B2844B1B68D97A824B5B6818783B4648
:101EC000FEF7B4FC10B14FF0FF30B2E795FBF4F031
:101ED000401E30700020ACE701467A4880F822109E
:101EE000002070477CB5054676494968087801AB03
:101EF00004220D21FEF79AFC08B107207CBD9DF855
:101F00000700C0F301109DF8041001F0E00140EA61
:101F1000E1008DF800009DF80700C0F381009DF8F6
:101F2000051001F0E00140EAE1008DF801009DF8A4
:101F3000070000F003009DF8061001F0E00140EA00
:101F4000E1008DF8020000241CE01DF8040018B91F
:101F5000002045F8240013E05B4845F8240006E023
:101F600055F82400594907F0A3FB45F824001DF853
:101F70000400401EC0B20DF804000028F0D100BFDC
:101F8000601CC4B2032CE0DB0020B7E72DE9FE4F54
:101F900006460F4600256846FFF7A4FF002442E0EE
:101FA00056F8240057F82410A0EB010ABAF1000FEC
:101FB00001DB514601E0CAF10001084607F018FBB9
:101FC00083464FF08F4107F0E1F980465DF8240029
:101FD000002107F09DFA16D05DF82410404607F066
:101FE000D5F982464FF07E5107F060FC814629F01A
:101FF000004A3748416A504607F026FC12D20120B9
:10200000A04005430EE03248C169404607F01CFB82
:1020100005D32F48016A404607F016FC02D2012082
:10202000A0400543641C032CBADB2846BDE8FE8FA4
:102030002DE9FC5F06460F460025224949680878CD
:1020400001AB03220D21FEF7F1FB10B10720BDE823
:10205000FC9F9DF8040000F01F008DF804009DF81F
:10206000050000F01F008DF805009DF8060000F047
:102070001F008DF80600002462E056F8240057F88F
:102080002410A0EB010BBBF1000F01DB594601E06E
:10209000CBF10001084607F0ABFA4FF08F410090FA
:1020A00007F074F9814601A8005DC0B308490868CB
:1020B00007F0B6FA83465946064807F067F98046A6
:1020C0000FE00000200000207B14AE3E1D5A843F2C
:1020D000B49A000800B04C45FE49404607F0E8FAC3
:1020E000804601A8005D401EC0B201A90855002825
:1020F000F2D14146484607F049F983464FF07E51F8
:1021000007F0D4FB82462AF0004BF3488169584619
:1021100007F09AFB13D20120A04005430FE0FFE730
:10212000ED480169484607F08FFA05D3EA4841694E
:10213000484607F089FB02D20120A0400543641CF9
:10214000032C9ADB284682E72DE9F04F87B005463D
:102150000C46914601208DF8100000208DF81100EA
:10216000DE4A1268917CDD4A5268107804AB022284
:10217000FEF711FC20B14FF0FF3007B0BDE8F08F43
:10218000C82002F06CFF00208DF81000D34A1268BE
:10219000D17BD24A5268107804AB0122FEF7FBFBD8
:1021A00010B14FF0FF30E8E7CC4A12685179CB4AC2
:1021B0005268107804AB0122FEF7EDFB10B14FF02E
:1021C000FF30DAE7C54A1268917CC44A5268107839
:1021D00004AB0122FEF7DFFB10B14FF0FF30CCE77C
:1021E000BE4A1268D17DBD4A5268107804AB012204
:1021F000FEF7D1FB10B14FF0FF30BEE7B74A1268CF
:102200001179B64A5268107804AB0122FEF7C3FB7D
:1022100010B14FF0FF30B0E70C208DF81000AF4A3E
:1022200012681179AD4A5268107804AB0122FEF7AA
:10223000B2FB10B14FF0FF309FE70F2002F00FFF0D
:10224000A648806A407A8DF81000A44A12689178F6
:10225000A24A5268107804AB0122FEF79CFB10B131
:102260004FF0FF3089E79D48806A007A8DF81000B2
:102270009A4A12685178994A5268107804AB012240
:10228000FEF789FB10B14FF0FF3076E7B9F1000F90
:1022900007D09248806A807A40F0E0008DF8100004
:1022A00004E08E48806A807A8DF810008B4A1268AC
:1022B00091798A4A5268107804AB0122FEF76BFBD1
:1022C00010B14FF0FF3058E7B9F1000F07D0834845
:1022D000806AC07A40F0E0008DF8100003E07E488C
:1022E000C07A8DF810007D4A1268D1797B4A526815
:1022F000107804AB0122FEF74EFB10B14FF0FF3017
:102300003BE7B9F1000F02D0C82002F0A8FE402040
:102310008DF81000714A12681179704A526810786D
:1023200004AB0122FEF737FB10B14FF0FF3024E77A
:1023300078208DF81000694A12685179674A52680E
:10234000107804AB0122FEF726FB10B14FF0FF30EE
:1023500013E76149888902F082FE00208DF81000A1
:102360005E4A126851795D4A5268107804AB0122C6
:10237000FEF711FB10B14FF0FF30FEE6574A12682E
:10238000917A564A5268107804AB0222FEF74EFA50
:1023900010B14FF0FF30F0E69DF811009DF81010DD
:1023A00040EA012B0C209BFBF0F0C6B20020A86095
:1023B00068602860A06060602060824665E0474AEF
:1023C0001268D17A454A5268107804AB0C22FEF7A5
:1023D0002DFA10B14FF0FF30CFE69DF811009DF8B7
:1023E000101040EA012000B2ADF808009DF813007B
:1023F0009DF8121040EA012000B2ADF80A009DF8E5
:1024000015009DF8141040EA012000B2ADF80C0050
:10241000BDF90810206808442060BDF90A10606802
:1024200008446060BDF90C10A0680844A0609DF8E5
:1024300017009DF8161040EA012000B2ADF8000028
:102440009DF819009DF8181040EA012000B2ADF87F
:1024500002009DF81B009DF81A1040EA012000B20E
:10246000ADF80400BDF90010286808442860BDF9E3
:102470000210686808446860BDF90410A868084440
:10248000A8600AF1010000F0FF0AB24597DB12488C
:10249000D0F800C02868C117090441EA10410704B8
:1024A00062460023384604F0C7FB32460023CDE9DC
:1024B000020104F0C1FB28600748D0F800C068683A
:1024C000C117090441EA1041070462460023384657
:1024D00006E0000054E3853FB49A00082000002085
:1024E00004F0AAFB32460023CDE9020104F0A4FB6C
:1024F0006860FE48D0F800C0A868C117090441EA26
:102500001041070462460023384604F095FB32462A
:102510000023CDE9020104F08FFBA860F348D0F856
:1025200004C02168C817000440EA11480F0462463D
:1025300000233846414604F07FFB32460023CDE9B4
:10254000020104F079FB2060E848D0F804C060681C
:10255000C117090441EA10410704624600233846C6
:1025600004F06AFB32460023CDE9020104F064FB6B
:102570006060DE48D0F804C0A068C117090441EAD1
:102580001041070462460023384604F055FB3246EA
:102590000023CDE9020104F04FFBA060A0680028F1
:1025A00004DDA068A0F58030A06003E0A06800F51D
:1025B0008030A0600020E0E538B50446CC4890F8B3
:1025C0002400A04201D1002038BD24B3C84890F8AF
:1025D000250010B94FF0FF30F6E70020FEF74AFB68
:1025E0000020FEF76FFCC249C88CFEF7DCFE00201D
:1025F0000090BF49496808786B4601222321FEF705
:10260000CAF90121BA4880F824100120FEF732FBF4
:10261000FEF7FCFC13E00020FEF72CFBB448007C26
:102620000090B349496808786B4601222321FEF7E0
:10263000B2F90021AE4880F82410FEF7E7FC002034
:10264000C2E72DE9F04F8DB083460F4602200C9073
:10265000A74890F8240020B10020FFF7ADFF012625
:1026600000E0002603A8FFF7E2F905A8FFF7FFF94D
:1026700001A8FFF720FA02A8FFF742FA9C4890F859
:102680000AA004A8FFF796FA002407E000223946C2
:102690005846FFF759FD00B902E0641C022CF5DB37
:1026A00000BF022C01D1002528E0002407E0012210
:1026B00006A909A8FFF748FD00B902E0641C022C36
:1026C000F5DB00BF022C01D1002517E006A9384632
:1026D000FFF75CFC00F0FF0809A95846FFF7A8FCCB
:1026E00000F0FF090025B9F1000F01D145F0010507
:1026F000B8F1000F01D145F0020500BFFF207C4971
:102700000872FF217A484172C1724FF6FF71C18190
:10271000FF218172017401210173BDF80C00FEF7E5
:10272000D0FE9DF81400FEF78AFEBDF80400FEF707
:102730008EFDBDF80800FEF736FE5046FEF75DFB45
:102740009DF81000FEF74EFD16B10120FFF734FF93
:1027500028460DB0BDE8F08FF8B504460D46164684
:1027600016B94FF0FF30F8BD6148807A10B94FF0CC
:10277000FF30F8E720128DF80000E0B28DF801007C
:102780009DF8010028445A4949684989884202DD78
:102790004FF0FF30E7E7564A1268117E544A5268FC
:1027A00010786B460222FEF7F6F810B14FF0FF30BA
:1027B000D9E7EAB24E4B1B68597D4D4B5B681878E0
:1027C0003346FEF7E8F810B14FF0FF30CBE70020BA
:1027D000C9E7F8B504460D46164616B94FF0FF3066
:1027E000F8BD4348807A10B94FF0FF30F8E7201267
:1027F0008DF80000E0B28DF801009DF8010028443A
:102800003B4949684989884202DD4FF0FF30E7E7DC
:10281000374A1268117E364A526810786B46022297
:10282000FEF7B9F810B14FF0FF30D9E7EAB2304BFC
:102830001B68597D2E4B5B6818783346FDF7F6FF11
:1028400010B14FF0FF30CBE70020C9E72DE9F0438E
:1028500085B005460E4690469946254890F82500D5
:1028600020B14FF0FF3005B0BDE8F08316B94FF04E
:10287000FF30F8E7002423E0281B102801DD10209A
:1028800000E0281B87B2321939462046FFF764FF63
:1028900010B14FF0FF30E6E701AA39462046FFF7B6
:1028A00098FF10B14FF0FF30DDE730193A4601A92B
:1028B00004F01EFB10B16FF00100D4E7E01984B200
:1028C000AC42D9DB4FEA28208DF8000008F0FF0069
:1028D0008DF80100064A1268917E054A5268107808
:1028E0006B460222FEF757F838B103E0B49A0008AD
:1028F000200000204FF0FF30B5E70121FE4880F8AE
:102900002510A0F826900020ADE70146FA4890F87F
:1029100024000870002070474FF0FF3070470246D7
:102920004FF0FF30704701464FF0FF307047F8B569
:1029300005460F461446002C70D0B5F5FF5F01DD4B
:10294000FF2605E0202D01DA012601E0C5F3471638
:1029500007B90127282C02DD4FF0FF30F8BDE6480B
:10296000407D28BBE44890F8240038B10020FFF7F0
:1029700023FE0121E04880F8201003E00021DE481A
:1029800080F82010DC481630FFF751F8DA4818308C
:10299000FFF76DF8D8481A30FFF78DF8D6481C308D
:1029A000FFF7AEF8D448817A81771F30FFF702F93C
:1029B0000020FEF75FF90020FEF788FC00208DF86C
:1029C0000000CD4A12689178CB4A526810786B4665
:1029D0000122FDF7E0FF10B14FF0FF30BEE74020CD
:1029E0008DF80000C44A1268D17BC34A526810783F
:1029F0006B460122FDF7CFFF00B165E08DF8006066
:102A00008DF80170BC4A1268117ABB4A526810787E
:102A10006B460222FDF7BFFF08B155E047E00520F5
:102A200002F01DFBB448407A072101EBC000C0B2A0
:102A30008DF80000B04A1268D179AF4A5268107818
:102A40006B460122FDF7A7FF00B13DE020208DF885
:102A50000000012C03D100208DF801000EE0052CB0
:102A600003DC01208DF8010008E0142C03DC0220B7
:102A70008DF8010002E003208DF801009DF80100AF
:102A8000072101EB8010C0B28DF801009A4A12684C
:102A9000917C994A526810786B460222FDF77BFFC1
:102AA00000B111E0012194484175002056E7924A97
:102AB0001632002103E0505C00B105E0491C0C29EE
:102AC000F9D34FF0FF3049E7FF208B490872FF210F
:102AD00089484172C1724FF6FF71C181FF21817235
:102AE0000174012101730146887FFEF786F982494E
:102AF000C88AFEF7E6FC8049087EFEF7A0FC7E4906
:102B0000488BFEF7A4FB7C49888BFEF74CFC7A4986
:102B1000C87FFEF767FB784890F8200010B10120CD
:102B2000FFF74AFD002174484175002016E770B593
:102B300088B002A905A8FFF784FD0446032C3ED106
:102B400001A8FEF7F3FF059806F052FD064601992D
:102B500006F0AEFD054606F00FFD0590069806F05E
:102B600047FD0646019906F0A3FD054606F004FD63
:102B70000690079806F03CFD0646019906F098FD80
:102B8000054606F0F9FC079005A800F0CEFA684665
:102B9000FEF7E9FFBDF80010029848430290BDF827
:102BA0000010039848430390BDF800100498484370
:102BB000049002A800F04CFB002008B070BD01207A
:102BC000FBE7014691F90020002A01DD00201EE00C
:102BD00091F90020002A01DA042018E091F901207F
:102BE000002A01DD012012E091F90120002A01DA1A
:102BF00005200CE091F90220002A01DD022006E008
:102C000091F90220002A01DA062000E0072070472F
:102C100010B504462046FFF7D4FF0346E01CFFF73B
:102C2000D0FF43EAC00083B2A01DFFF7CAFF43EA0A
:102C3000801083B2184610BD70B50024FDF7E9FE80
:102C4000FEF781FC002840D17820FEF7D6F8C4B208
:102C50000CB1012070BD7820FEF7C4FAC4B20CB1EB
:102C60000220F7E76420FEF79EFBC4B20CB10320FC
:102C7000F0E700F0BFF9C4B20CB10420EAE71F4846
:102C8000FFF7C6FF054600F0BFF9C4B20CB105203E
:102C9000E0E740F2731000F0F8FDC4B20CB106207A
:102CA000D8E7642000F06AFBC4B20CB10720D1E77A
:102CB000FFF73DFF04460CB10820CBE70120FFF7EA
:102CC0007BFCC4B21CB10920C4E70A20C2E7002083
:102CD000C0E72DE9F04F9DB004460D464FF07E56FB
:102CE00000274FF000084FF0000914A815A91AABEF
:102CF00010AACDE9001003E0200000204C000020C5
:102D000016A918A800F020FF18B101201DB0BDE8D9
:102D1000F08FBDF8540000F4807000287ED0109829
:102D200006F066FC4FF09D410F9006F02FFB064623
:102D3000119806F05DFC4FF09D410F9006F026FBC8
:102D40000746129806F054FC4FF09D410F9006F094
:102D50001DFB8046139806F04BFC4FF09D410F90F1
:102D600006F014FB814631464FF0804006F0A0FC8F
:102D70004146069006F09CFC394608904FF04040D2
:102D800006F096FC4946069006F092FC07900899DA
:102D900006F08EFA099006F05FFACDE90A0105F017
:102DA000EBF94FF066328F4BCDE90C0105F07AFF5D
:102DB000CDE90E0105F024FD824641464FF08040EA
:102DC00006F076FC4146039006F072FC3946059009
:102DD0004FF0404006F06CFC3946039006F068FC6A
:102DE0000490059906F062FD4FF07E51069006F0C2
:102DF0005FFA079006F030FACDE90A0131464FF04C
:102E0000804006F055FC3946049006F051FC4146DE
:102E100006904FF0804006F04BFC00E0E0E04946B1
:102E2000049006F045FC0590069906F041FA0790DB
:102E300006F012FACDE90801DDE90A2305F0E4FB0A
:102E40004FF06632674BCDE90C0105F02BFFCDE961
:102E50000E0105F0D5FC83464946484606F028FC9D
:102E600041460690404606F023FC39460490384619
:102E700006F01EFC31460290304606F019FC019027
:102E8000029906F015FA0390049906F00FFD0590DB
:102E9000069906F00BFD079006F0DEF9CDE90A0170
:102EA0004946304606F004FC41460590384606F097
:102EB000FFFB0490059906F0FBF94FF08041069066
:102EC00006F0F6FB079006F0C7F9CDE90801DDE949
:102ED0000A2305F099FB4FF06632424BCDE90C0115
:102EE00005F0E0FECDE90E0105F08AFC1B903E499D
:102EF0000868514606F0DCF93B49086048685946C5
:102F000006F0D6F93849486088681B9906F0D0F970
:102F100035498860BDF9620006F06AFB0F903348BE
:102F200001680F9806F0C4F930490860BDF96000E7
:102F300006F05EFB0F902D4841680F9806F0B8F937
:102F40002A494860BDF9640006F052FB0F902748FB
:102F500081680F9806F0ACF924498860244800780D
:102F6000401C2349087008460078022836D11E49C3
:102F700008684FF0804106F009FA20601A49486855
:102F80004FF0804106F002FA6060174988684FF000
:102F9000804106F0FBF9A0600020134908604860FA
:102FA0008860124908684FF0804106F0EFF9286008
:102FB0000E4948684FF0804106F0E8F968600B4917
:102FC00088684FF0804106F0E1F9A86000200749C9
:102FD0000860486088600649087097E6012095E619
:102FE000022093E666A64C40C0000020CC000020E2
:102FF0005500002010B5C8234FF48062F74940F611
:10300000F630FFF723FC10BD10B586B00446F4A0DF
:1030100000680390F3A000680290F3A0006801909C
:10302000F2A00068009004F0030003A9085C8DF88A
:10303000140003A8C4F3C101405C8DF8150003A877
:10304000C4F38111405C8DF8160004F0030002A95E
:10305000085C8DF8100002A8C4F3C101405C8DF833
:10306000110002A8C4F38111405C8DF8120005AA7A
:10307000032140F22640FFF76FFB18B14FF0FF30FD
:1030800006B010BD04AA032140F22A40FFF764FBFA
:1030900010B14FF0FF30F3E70198059000980490CD
:1030A00004F0040058B19DF8140040F001008DF8C0
:1030B00014009DF8100040F001008DF8100004F09D
:1030C000200058B19DF8150040F001008DF8150062
:1030D0009DF8110040F001008DF8110004F480709B
:1030E00058B19DF8160040F001008DF816009DF8CB
:1030F000120040F001008DF8120005AA03214FF4E0
:103100008860FFF729FB10B14FF0FF30B8E704AA41
:10311000032140F23140FFF71FFB10B14FF0FF30A9
:10312000AEE7B34804810020AAE71FB50446B048C3
:10313000007A00F0030054F820000190AC48007AB7
:1031400000F0040010B1019840420190A848007AB4
:10315000C0F3C10054F820000290A548007A00F0A6
:10316000200010B1029840420290A148007AC0F3BA
:10317000811054F8200003909D48008900F480706D
:1031800010B10398404203909A49019880FB0101D5
:10319000800F40EA810001909649029880FB01105F
:1031A000820042EA917002909249039880FB0110DC
:1031B000820042EA917003900198000E8DF80000A1
:1031C0000198000C8DF801000198000A8DF80200AA
:1031D0000198C0B28DF803006A4604214FF4747060
:1031E000FFF7BAFA18B14FF0FF3004B010BD0298E3
:1031F000000E8DF800000298000C8DF80100029876
:10320000000A8DF802000298C0B28DF803006A46E9
:1032100004214FF47570FFF79FFA10B14FF0FF30A3
:10322000E3E70398000E8DF800000398000C8DF87A
:1032300001000398000A8DF802000398C0B28DF8CF
:1032400003006A4604214FF47670FFF785FACCE755
:1032500070B588B0064601A8FEF785FCBDF80400ED
:103260000021C90341EA5045C4036148007A00F0D7
:10327000030056F8200005905D48007A00F0040035
:1032800010B10598404205905948007AC0F3C1003A
:1032900056F8200006905648007A00F0200010B141
:1032A0000698404206905248007AC0F3811056F8C2
:1032B000200007904E48008900F4807010B10798F4
:1032C000404207900598C117A0FB042301FB04317D
:1032D00000FB0510810041EA927005900698C11725
:1032E000A0FB042301FB043100FB0510810041EA2F
:1032F000927006900798C117A0FB042301FB0431CC
:1033000000FB0510810041EA927007900598000EBD
:103310008DF808000598000C8DF809000598000A42
:103320008DF80A000598C0B28DF80B000698000EC3
:103330008DF80C000698000C8DF80D000698000A18
:103340008DF80E000698C0B28DF80F000798000E99
:103350008DF810000798000C8DF811000798000AEE
:103360008DF812000798C0B28DF8130002AA0C2144
:103370004FF42570FFF7F0F908B070BD30B585B097
:1033800004461DA207CA02AB07C3C82C03DD4FF0D9
:10339000FF3005B030BDC82090FBF4F0401E85B270
:1033A000280A8DF80000E8B28DF801006A46022173
:1033B00040F21620FFF7D0F910B14FF0FF30E8E7E8
:1033C00002AA0C2140F6C120FFF7C6F910B14FF058
:1033D000FF30DEE7064884810020DAE7DC9A000847
:1033E0004CCD6C000CC92C00365676002646660083
:1033F000D800002009E3CA02FEF2ABC4AAF1DFDF65
:10340000BBAFDFDF0146FC488089088000207047A1
:103410002DE9FC4706460F4606F0070010B1B7F548
:10342000C86F03DD4FF0FF30BDE8FC87384606F07B
:10343000F7F88146F14905F0A9FF80466846FEF796
:1034400016FB9DF80000022806D0042816D0082894
:1034500026D0102848D135E04FF08D41404606F087
:1034600027F9814606F0A4F884B2E549404606F003
:103470001FF9814606F09CF885B238E04FF08C4188
:10348000404606F015F9814606F092F884B2DD490F
:10349000404606F00DF9814606F08AF885B226E02E
:1034A0004FF08B41404606F003F9814606F080F864
:1034B00084B2D549404606F0FBF8814606F078F81C
:1034C00085B214E04FF08A41404606F0F1F881469B
:1034D00006F06EF884B2CD49404606F0E9F8814620
:1034E00006F066F885B202E04FF0FF309CE700BFBF
:1034F00020128DF80400E0B28DF8050028128DF836
:103500000600E8B28DF8070006F00100A0B101AA9C
:1035100002214FF4EA70FFF71FF910B14FF0FF30AE
:1035200082E70DF1060202214FF49270FFF714F9C1
:1035300010B14FF0FF3077E706F00200A0B101AA0A
:1035400002214FF4EC70FFF707F910B14FF0FF3094
:103550006AE70DF1060202214FF49470FFF7FCF8C0
:1035600010B14FF0FF305FE706F00400A0B101AAF0
:1035700002214FF4EE70FFF7EFF810B14FF0FF307B
:1035800052E70DF1060202214FF49670FFF7E4F8BE
:1035900010B14FF0FF3047E7002045E738B504464B
:1035A0000020009004F0010020B19DF8000040F0E0
:1035B0003000009004F0020020B19DF8000040F0BF
:1035C0000C00009004F0040020B19DF8000040F0D1
:1035D000030000906A4601214FF4A470FFF7BCF885
:1035E00038BD38B50446012C01DA012402E0042C70
:1035F00000DD0424601EC0B200906A46012140F242
:103600004F10FFF7A9F838BD38B50446052094FBE4
:10361000F0F085B228128DF80000E8B28DF80100B4
:103620006A4602214FF4EF70FFF796F838BD38B5BF
:103630000446052094FBF0F085B228128DF80000B6
:10364000E8B28DF801006A4602214FF4ED70FFF7F1
:1036500083F838BDF8B505460E464FF47A7095FBF1
:10366000F0F000FB06F4200E8DF80000200C8DF821
:103670000100200A8DF80200E0B28DF803006A46CE
:1036800004214FF4AE70FFF767F8F8BD38B5044673
:10369000052094FBF0F084B220128DF80000E0B217
:1036A0008DF801006A4602214FF4AD70FFF754F81F
:1036B00038BD38B50446052094FBF0F084B22012E2
:1036C0008DF80000E0B28DF801006A4602214FF447
:1036D000AC70FFF741F838BD38B5044614B94FF067
:1036E000FF3038BD6A4604214FF45870FFF771F877
:1036F00010B14FF0FF30F4E79DF8000000069DF890
:10370000011040EA01409DF8021040EA01209DF8B6
:103710000310084320600020E3E738B50446200E7C
:103720008DF80000200C8DF80100200A8DF80200B1
:10373000E0B28DF803006A4604214FF45870FFF799
:103740000BF838BD38B5044614B94FF0FF3038BD1A
:103750006A4604214FF47170FFF73BF810B14FF047
:10376000FF30F4E79DF8000000069DF8011040EAE4
:1037700001409DF8021040EA01209DF80310084323
:1037800000EB8000800020600020E0E738B50446B0
:103790001420B4FBF0F4200E8DF80000200C8DF8FE
:1037A0000100200A8DF80200E0B28DF803006A469D
:1037B00004214FF47170FEF7CFFF38BD38B50446D1
:1037C00064B120208DF8000028208DF80100302001
:1037D0008DF8020038208DF8030004E0A3220421B4
:1037E000684603F0B1FB6A46042140F69E20FEF7CE
:1037F000B3FFFDF70BFC38BDD800002000004843A4
:10380000000040460000C045000040450000C044A4
:1038100038B5044664B1C0208DF80000C2208DF890
:103820000100C4208DF80200C6208DF8030004E0DA
:103830008B220421684603F087FB6A46042140F688
:103840009820FEF789FFFDF7E1FB38BD3EB5044641
:103850006CB1FDA1D1E900208968CDE90020029179
:103860006A4609214FF49760FEF776FF3EBDF9A244
:10387000D2E900109268CDE9010200916A4609215F
:103880004FF49760FEF768FFF0E73EB5044602206C
:103890008DF80000CA208DF80100E3208DF80200A9
:1038A00009208DF803006A4604216820FEF754FFC2
:1038B000A3208DF8000004F0400048B1C0208DF82E
:1038C0000100C8208DF80200C2208DF8030006E038
:1038D000A3208DF801008DF802008DF8030004F498
:1038E000C07048B1C4208DF80400CC208DF80500CC
:1038F000C6208DF8060006E0A3208DF804008DF8A0
:1039000005008DF80600A3208DF807008DF808004B
:103910008DF809006A460A2140F6A720FEF71CFF31
:1039200004F0030018B120208DF8000002E0D82038
:103930008DF800006A46012140F6B620FEF70CFF24
:1039400004F0200018B10120FFF780FF02E0002002
:10395000FFF77CFF04F4C07008B304F4807060B11A
:10396000B2208DF800008B208DF80100B6208DF874
:1039700002009B208DF803000BE0B0208DF80000C2
:1039800080208DF80100B4208DF8020090208DF881
:1039900003006A46042140F6A220FEF7DDFE04F093
:1039A000010020B3F8208DF800006A4601214FF491
:1039B0000B60FEF7D1FEFA210720FFF729FD072053
:1039C000FFF7ECFD0120FFF70CFE6420FFF71CFE63
:1039D0004FF4FA70FFF72BFEC821A148FFF73AFE1B
:1039E0002820FFF753FE0A20FFF763FE08E0D820E7
:1039F0008DF800006A4601214FF40B60FEF7ACFE23
:103A000004F0020018B1D9208DF8000002E0D8209F
:103A10008DF800006A46012140F23D70FEF79CFEE1
:103A200004F0040018B10120FFF7F2FE02E00020CC
:103A3000FFF7EEFE04F0100018B10120FFF7BEFE04
:103A400002E00020FFF7BAFE44F0080085494881F3
:103A5000FDF7DCFA00208349887304F0400018B1B8
:103A60000846807B801D887304F4C07020B17D48B7
:103A7000807B801D7B49887304F0140020B1794855
:103A8000807B10307749887304F0030020B17548BB
:103A9000807B001D7349887300203EBD014671483C
:103AA00040890880002070472DE9F0410446E07805
:103AB00000F0C006E07800F03F05607800F00100FB
:103AC00098B1EF102846E91705EB5171C910A5EB25
:103AD000C101491C01F0FF086248006820B161483B
:103AE000414602683846904700BF607800F0080001
:103AF00030B15C48406818B1B0115A4A51688847E3
:103B00000020BDE8F08110B586B0044656A207CA71
:103B100003AB07C357A207CA8DE80700012C09D0E1
:103B2000022C0ED103AA0B2140F68220FEF714FED0
:103B300006B010BD6A460B2140F68220FEF70CFE4F
:103B4000F6E74FF0FF30F3E72DE9F04F8DB0074671
:103B5000884615469946DDE9166B00240020308022
:103B60004049887B5A4605A9FEF759F918B1601EED
:103B70000DB0BDE8F08F3B48807A00F014000028BB
:103B800061D09DF8140000069DF8151040EA014030
:103B90009DF8161040EA01209DF817100843286090
:103BA0009DF8180000069DF8191040EA01409DF8A4
:103BB0001A1040EA01209DF81B10084368609DF828
:103BC0001C0000069DF81D1040EA01409DF81E10E3
:103BD00040EA01209DF81F100843A8609DF82000CE
:103BE00000069DF8211040EA01409DF8221040EAAD
:103BF00001209DF823100843E86004F11000C4B2CE
:103C0000286800140190686800140290A8680014E5
:103C10000390E8680014049001984043029901FB66
:103C20000100039901FB0100049901FB010ABAF1AB
:103C3000706F02DBBAF1885F22DDFDF7E7F9002043
:103C40003080401E94E721E0B8AAB38DB4980D35BA
:103C50005D000000B8AAAAAAB088C3C5C7000000CA
:103C600009E3CA02D8000020D8B1B9F38BA391B6FA
:103C700009B4D900DAB1B9F38BA391B6DAB4DA009A
:103C8000B6F9000040F48070308000BF3448807A7C
:103C900000F0400020B305A9601C085C095D40EA03
:103CA000012000B2A8F8000005A9E01C095C05AAE3
:103CB000A01C105C41EA002000B2A8F8020005A98F
:103CC000601D095C201D105C41EA002000B2A8F8CC
:103CD0000400A01DC4B2B6F9000040F00800308016
:103CE0001F48408900F4C07008B305A9601C085C37
:103CF000095D40EA012000B2388005A9E01C095C9A
:103D000005AAA01C105C41EA002000B2788005A939
:103D1000601D095C201D105C41EA002000B2B880E3
:103D2000A01DC4B2B6F9000040F0700030800C480D
:103D3000807A00F0030018B105A90819FFF7B4FE56
:103D40004846FDF7D0FC002012E701460448016018
:103D50000020704701460248416000207047000083
:103D6000D80000200020FE49086048608860FD49B6
:103D7000086048608860704700B54FF496604FF067
:103D80008041888608878887F7490880FFF7EAFF1F
:103D900000BD10B540F6AC54A04200DD204640F610
:103DA000AC54A14200DD214640F6AC54A24200DDF5
:103DB000224640F6AC54A34200DD23464FF0804437
:103DC000A0862187A287E84C238010BD0FB42DE97F
:103DD000F04393B000240025002600271D991A986F
:103DE00005F064FD10901E991B9805F05FFD119081
:103DF0001F991C9805F05AFD1290DA4A1099106824
:103E000005F056FAD7490860D64A1199506805F06E
:103E10004FFAD4494860D34A1299906805F048FA9D
:103E2000D04988600021CF4800F098FFCF4A116840
:103E3000109805F03BFD0D90CC4A5168119805F0A3
:103E400035FD0E90C94A9168129805F02FFD0F902C
:103E5000C649109808601198486012988860C44A52
:103E60001099106805F024FC0990BE4A1168C04AF8
:103E7000506805F01DFC0A90BD4A0D99906805F048
:103E800017FC0B90BB4A1199106805F011FC0590C6
:103E9000B44A5168B74A506805F00AFC0690B54A22
:103EA0000E99906805F004FC0790B34A12991068C7
:103EB00005F0FEFB0190AB4A9168AF4A506805F0EF
:103EC000F7FB0290AC4A0F99906805F0F1FB039064
:103ED000DDE9090105F0ECF981460B9905F0E8F9F7
:103EE000804605F049FB00B2ADF83000DDE9050180
:103EF00005F0DEF98146079905F0DAF9804605F00C
:103F00003BFB00B2ADF82000DDE9010105F0D0F97E
:103F10008146039905F0CCF9804605F02DFB00B2EF
:103F2000ADF810009548008840F28661884230DD87
:103F3000BDF83000914909880844BDF82010401AA6
:103F4000BDF81010084484B2BDF830008B490988D0
:103F50000844BDF820100844BDF81010401A85B27E
:103F6000BDF8300085490988081ABDF820100844BA
:103F7000BDF81010084486B2BDF830007F490988AA
:103F8000081ABDF82010401ABDF81010401A87B268
:103F900006E04FF49664254626462746FFF7E2FEE4
:103FA00077490868774905F04FFC11D974490868CA
:103FB000754905F049FB0BD971494868714905F00D
:103FC00043FC05D96E4948686F4905F03DFB02D8AE
:103FD00000206E4908703B46324629462046FFF7CE
:103FE000D8FE13B0BDE8F0035DF814FB0FB4F0B5D4
:103FF00087B00F990C9805F059FC049010990D9812
:1040000005F054FC059011990E9805F04FFC0690B0
:10401000534A0499106805F04BF951490860504A19
:104020000599506805F044F94D4948604C4A069995
:10403000906805F03DF94A4988600121484800F040
:104040008DFE534A1168049805F030FC0190504AE7
:104050005168059805F02AFC02904D4A916806982F
:1040600005F024FC03904A490498086005984860CC
:1040700006988860474A9168019805F019FB054643
:10408000444A5168364A106805F012FB0646414A18
:104090001168049805F00CFB0746314605F008F955
:1040A0000446294605F004F980F000403A490860CA
:1040B0003A4A9168029805F0FBFA0546374A51687A
:1040C000274A506805F0F4FA0646344A1168059804
:1040D00005F0EEFA0746314605F0EAF804462946AF
:1040E00005F0E6F880F000402B4948602C4A9168C2
:1040F000039805F0DDFA0546294A5168184A906888
:1041000005F0D6FA0646264A1168069805F0D0FA58
:104110000746314605F0CCF80446294605F0C8F8B4
:1041200080F000401C49886007B0F0BC5DF814FBCB
:104130001CB51C48008800F0010000285DD019481B
:10414000008820F001001749088017480078401CBB
:10415000154908700D48007808B1642026E047E052
:104160000C01002030010020400000403C010020F4
:10417000600000206C000020780000205A00002021
:10418000F400002000003442000034C25800002037
:10419000480100208400002024010020900000201D
:1041A000E8000020102C01405C000020FCF75CFAC5
:1041B0001249134800F044FE12490870084600787E
:1041C000A8B91149D1E90101CDE900010E48036800
:1041D0000B4807C8FFF70AFF0C49D1E90101CDE9F7
:1041E00000010A480368054807C8FFF7EFFD04E02F
:1041F0006420FCF728FAFFF7BFFD1CBD1801002062
:10420000F4000020590000200001002024010020BB
:10421000FE49088000BFFD49091F098801F04001DF
:104220000029F8D0704700B50022FB20FFF7F0FF0F
:104230006D20FFF7EDFF2520FFF7EAFF501F42B288
:1042400002F16D0042B202F1250042B2002309E002
:10425000EF49C85CFFF7DCFFED48C05C104442B298
:10426000581C43B2EB4800788342F1DBD0B2FFF731
:10427000CFFF00BD30B50A46CB1701EB1363C3F384
:104280000723E34C04F81030CB1701EB13631B1228
:10429000A1EB0323012404EB4004DD4D2B5530BD7D
:1042A00010B5DD49086805F067F900B200EB800041
:1042B0004FF6FF7101EA400421460020FFF7DAFFC4
:1042C000D549486805F058F900B200EB80004FF678
:1042D000FF7101EA400421460120FFF7CBFFCE49E0
:1042E000886805F049F900B200EB80004FF6FF71D5
:1042F00001EA400421460220FFF7BCFFC7490868D5
:1043000005F03AF984B221460320FFF7B3FFFFF727
:104310008AFF10BD2DE9FF47C148008800F4004026
:1043200000287DD04FF0020A0AE0BE4810F80A00CB
:104330003038BC4901F80A000AF1010000F0FF0A18
:10434000BAF1050FF1DDB7480078502875D1B548AE
:104350004078522823D1B349897864225143B14A25
:10436000127902EB820201EB4201AE4A52798818BF
:1043700005F03EF90446AC4905F008F8AB49086081
:1043800008460068AA490860A849086804F064FF64
:10439000044622460B46A7A002F072FC4BE2A1485D
:1043A000407859281ED19F498978642251439D4AFB
:1043B000127902EB820201EB42019A4A5279881883
:1043C00005F016F90446984904F0E0FF9F4908609B
:1043D000086804F041FF044622460B469CA002F008
:1043E0004FFC28E28F4840784F28D7D18D498978F3
:1043F000642251438B4A127902EB820201EB4201A3
:10440000884A5279881805F0F3F80446864904F082
:10441000BDFF95490860084600689449086001E0BE
:104420000DE20AE09049086804F016FF04462246AF
:104430000B468FA002F024FCFDE17A480078492861
:1044400073D178484078522823D1764989786422FC
:104450005143744A127902EB820201EB4201714A24
:104460005279881805F0C4F804466F4904F08EFFAD
:104470006E494860084640686D4948606B49486825
:1044800004F0EAFE044622460B467FA002F0F8FB49
:10449000D1E16448407859281ED162498978642264
:1044A0005143604A127902EB820201EB42015D4AFC
:1044B0005279881805F09CF804465B4904F066FFC1
:1044C00062494860486804F0C7FE044622460B462D
:1044D00073A002F0D5FBAEE1524840784F28ABD133
:1044E00050498978642251434E4A127902EB820284
:1044F00001EB42014B4A5279881805F079F80446DD
:10450000494904F043FF5849486008464068574904
:1045100048605549486804F09FFE044622460B4611
:1045200059A002F0ADFB86E1FFE73E480078442841
:104530006AD13C484078522823D13A49897864228C
:104540005143384A127902EB820201EB4201354AAB
:104550005279881805F04CF80446334904F016FFE8
:104560003249886008468068314988602F498868E8
:1045700004F072FE044622460B463DA002F080FB8A
:1045800059E12848407859281ED126498978642263
:104590005143244A127902EB820201EB4201214A83
:1045A0005279881805F024F804461F4904F0EEFEFD
:1045B00026498860886804F04FFE044622460B4670
:1045C0003DA002F05DFB36E1164840784F28AAD1A5
:1045D0001449897864225143124A127902EB82020B
:1045E00001EB42010F4A5279881805F001F80446A0
:1045F0000D4904F0CBFE1C498860084680681B49C1
:1046000088601949886863E06CE000000438014064
:10461000540100209C000020F4000020180100201C
:10462000A8000020760100200000C84260000020A1
:104630006C0000200D0A5049445F524F4C202D5011
:104640003A25342E32660D0A000000007800002062
:104650000D0A5049445F594157202D503A25342EB8
:1046600032660D0A00000000840000209000002047
:104670000D0A5049445F524F4C202D443A25342EA8
:1046800032660D0A000000000D0A5049445F524F87
:104690004C202D493A25342E32660D0A00000000C8
:1046A0000D0A5049445F594157202D493A25342E6F
:1046B00032660D0A000000000D0A5049445F59415E
:1046C00057202D443A25342E32660D0A0000000092
:1046D00004F0C2FD044622460B46AFF26C0002F025
:1046E000CFFAA8E0574800784328FAD156A002F044
:1046F000C7FA56A002F0C4FA5749886804F0ACFD26
:1047000004460D465449486804F0A6FD8046894693
:104710005149086804F0A0FD064632460B464FA0FA
:10472000CDE90089CDE9024502F0AAFA5949886825
:1047300004F092FD04460D465649486804F08CFD8D
:10474000804689465349086804F086FD064632468D
:104750000B4651A0CDE90089CDE9024502F090FA5F
:104760005B49886804F078FD04460D46584948685E
:1047700004F072FD804689465549086804F06CFDD6
:10478000064632460B4653A0CDE90089CDE90245E5
:1047900002F076FA5DA002F073FA5F49886804F0CF
:1047A0005BFD04460D465C49486804F055FD06462D
:1047B0000F465949086804F04FFD804642460B46B3
:1047C00026A0CDE90067CDE9024502F059FA534928
:1047D000886804F041FD04460D465049486804F0DD
:1047E0003BFD06460F464D49086804F035FD8046FE
:1047F00042460B4628A0CDE90067CDE9024502F00C
:104800003FFA4749886804F027FD04460D464449AD
:10481000486804F021FD06460F464149086804F047
:104820001BFD804642460B462AA0CDE90067CDE934
:10483000024502F025FA00203A49088000BFBDE891
:10484000FF870000760100200D0A0000C4DABBB724
:10485000A3BA0D0A00000000600000205049445F28
:10486000524F4C202D503A25322E32660D0A202010
:104870002020202020202D493A25322E32660D0A94
:1048800020202020202020202D443A25322E326660
:104890000D0A00006C0000205049445F504954202C
:1048A0002D503A25322E32660D0A2020202020205D
:1048B00020202D493A25322E32660D0A2020202054
:1048C000202020202D443A25322E32660D0A000089
:1048D000780000205049445F594157202D503A2517
:1048E000322E32660D0A20202020202020202D4943
:1048F0003A25322E32660D0A20202020202020204A
:104900002D443A25322E32660D0A0000CDE2BBB7A7
:10491000A3BA0D0A000000008400002090000020CF
:10492000E8000020A800002008B50121082000F0C0
:104930009FFF4FF4C070ADF8000010208DF8030009
:1049400003208DF802006946D64800F0D5FC1020FF
:10495000ADF8000048208DF8030003208DF8020018
:104960006946D04800F0C8FC4FF4C871CD4800F04B
:1049700070FD00F0ABF90020CB4908600120CB4965
:10498000C1F8A00108BD2DE9F04107460D461646C5
:104990000020C549091D0860384600F0B8F9804676
:1049A000002405E0FF2000F0B2F92855601CC4B2D5
:1049B000B442F7DB0120BC49091D08604046BDE850
:1049C000F0812DE9F04107460C4615460020B64916
:1049D000091D0860384600F09AF98046002605E077
:1049E00014F8010B00F093F9701CC6B2AE42F7DB6D
:1049F0000120AD49091D08604046BDE8F0811CB5A5
:104A0000ABA103C9CDE90001052269463020FFF7BB
:104A1000D8FF052269461020FFF7B5FF002406E005
:104A20001DF80400A52800D003E0601CC4B2052CCA
:104A3000F6DB00BF052C01D001201CBD0020FCE7E7
:104A400070B505460C4600209749091D08602846A8
:104A500000F05DF90646204600F059F9012093491F
:104A6000C1F8A001304670BD70B5044600208E49E3
:104A7000091D0860204600F04AF9FF2000F047F9C0
:104A8000054601208949C1F8A001284670BD70B5CE
:104A9000054600208449086003222946A020FFF72C
:104AA00090FF01208149C1F89C0100BF7E488C38ED
:104AB00000680028FAD10720FFF7D6FF04462146F8
:104AC0002720FFF7BDFF04F0100028B1FF21E120EF
:104AD000FFF7B6FF102070BD04F0200008B12020C1
:104AE000F9E7FF20F7E770B504460720FFF7BCFFA2
:104AF000054629462720FFF7A3FF05F0400050B1E7
:104B0000032221466120FFF73EFFFF21E220FFF74D
:104B100097FF002070BD0120FCE710B5002062491E
:104B20000860052264492A20FFF74BFF012121205C
:104B3000FFF786FF01212220FFF782FF2821252091
:104B4000FFF77EFF03213120FFF77AFF0F21262098
:104B5000FFF776FF0F212020FFF772FF0120534956
:104B6000C1F89C0110BD10B500204F490860052216
:104B700052493020FFF725FF05224F492A20FFF731
:104B800020FF01212120FFF75BFF01212220FFF7F9
:104B900057FF1A212420FFF753FF28212520FFF774
:104BA0004FFF0F212620FFF74BFF0E212020FFF79C
:104BB00047FF01203D49C1F89C0110BD08B568467A
:104BC000FFF791FF00285DD13D4908709DF8010075
:104BD000092807D100203B49087040F286603A4915
:104BE000088006E09DF80100082802D1012035491F
:104BF00008709DF80000012811D13248007820B1DA
:104C0000002029491C31086003E00020264920319A
:104C100008602D480088801C2B49088040E09DF8E2
:104C20000000022811D12748007820B100201E4939
:104C30001C31086003E000201B4920310860224835
:104C40000088801E204908802AE09DF80000032883
:104C500026D09DF80000042822D09DF800000528E9
:104C60001ED09DF8000006281AD01648007820B102
:104C700001200D491C31086012E001200A49203151
:104C800008600DE00E480078C82809DB00200D49B7
:104C9000087040F286600C490880002008490870BE
:104CA00008BD0000000C01409C812142008021428F
:104CB000A5A5A5A5A5000000D7A60008D2A60008B6
:104CC0005C000020580000205A00002008B5012197
:104CD000082000F0CDFD6020ADF8000003208DF825
:104CE000020010208DF803006946194800F004FB0B
:104CF0004FF40060ADF8000003208DF8020048205A
:104D00008DF803006946124800F0F6FA08BD00214C
:104D10001BE000F080021AB101220E4B1A6002E083
:104D200000220C4B1A6001220A4B1B1F1A6042061C
:104D3000100E094AD2F82C210AB140F001000022DD
:104D4000044B1B1F1A604A1CD1B20829E1DB7047D3
:104D5000000C0140988121420080214270B586B04C
:104D600004460D469C4A07CA03AB07C39A4A0C3255
:104D700007CA8DE80700002D38D10399206804F098
:104D800063FD01D2039820600499606804F05CFD23
:104D900001D2049860600599A06804F055FD01D225
:104DA0000598A060039880F000463046216804F022
:104DB0004BFD03D2039880F000402060049880F0FF
:104DC00000463046616804F03FFD03D2049880F04D
:104DD00000406060059880F000463046A16804F00D
:104DE00033FD03D2059880F00040A060012D25D14D
:104DF0000099206804F028FD01D2009820600199F4
:104E0000606804F021FD01D201986060009880F094
:104E100000463046216804F017FD03D2009880F068
:104E200000402060019880F000463046616804F040
:104E30000BFD03D2019880F00040606006B070BDA9
:104E40002DE9F04F89B00446894602A905A8FDF76F
:104E500040FF00287DD1059804F0FEF905464FF08B
:104E600033325E4B03F01EFFCDE90001206804F0F1
:104E7000F3F905464FF06632594B03F013FF8246B3
:104E8000DDE9002303F0EEFC074603F0B9FC2060E7
:104E9000069804F0E1F907464FF033324F4B03F028
:104EA00001FF05460E46606804F0D6F907464FF04C
:104EB00066324B4B03F0F6FE2A463346CDE900013D
:104EC00003F0D0FC824603F09BFC6060079804F07E
:104ED000C3F905464FF03332404B03F0E3FE07467B
:104EE0008846A06804F0B8F905464FF066323C4B9E
:104EF00003F0D8FE3A464346CDE9000103F0B2FC88
:104F0000824603F07DFCA060029804F0A5F90546F6
:104F10004FF03332314B03F0C5FE07468846D9F8CF
:104F2000000004F099F905464FF066322C4B03F06F
:104F3000B9FE82463A46434603F094FCCDE90001AF
:104F400003F05EFCC9F80000039804F085F90546FB
:104F500000E03FE04FF03332204B03F0A3FE074662
:104F60008846D9F8040004F077F905464FF0663218
:104F70001B4B03F097FE82463A46434603F072FC11
:104F8000CDE9000103F03CFCC9F80400049804F0EA
:104F900063F905464FF03332104B03F083FE0746AA
:104FA0008846D9F8080004F057F905464FF06632F4
:104FB0000B4B03F077FE82463A46434603F052FC21
:104FC000CDE9000103F01CFCC9F80800002009B07D
:104FD000BDE8F08F0120FAE7DCA600083333D33FA9
:104FE0006666E63F10B56FF0040000F0F8FE2E484C
:104FF00000682E49B0FBF1F02D4908700846007892
:1050000000EB4001C1EBC0104FF6FF7101EAC00098
:105010002849088010BD0146254A12784A434FF0BE
:10502000E0235A6100229A611A46126942F0010295
:105030001A6100BF4FF0E022106900F001021AB1BE
:1050400000F48032002AF5D04FF0E022126922F0FD
:1050500001024FF0E0231A6100229A617047014675
:10506000144A12884A434FF0E0235A6100229A61A1
:105070001A46126942F001021A6100BF4FF0E022A5
:10508000106900F001021AB100F48032002AF5D054
:105090004FF0E022126922F001024FF0E0231A6182
:1050A00000229A61704700000000002000127A0080
:1050B0009E000020A0000020014600BF704700BFF6
:1050C000494A128802F04002002AF9D0C2B2464B87
:1050D0001B1D1A80704710B586B00446012144F2AA
:1050E000040000F0C5FB4FF40070ADF8140003207D
:1050F0008DF8160018208DF8170005A93B4800F020
:10510000FBF84FF48060ADF8140004208DF8170010
:1051100005A9364800F0F0F825208DF8000003209E
:105120008DF801008DF8020001208DF8030068461B
:1051300000F00BFE01940020ADF80800ADF80A0065
:10514000ADF80C00ADF810000C20ADF80E0001A970
:10515000254800F034FC012240F22551224800F09D
:10516000C6FC0121204800F0B6FC06B010BD10B509
:1051700040F225511C4800F09FFD10B31A4800F082
:105180001BFDC4B21A48008800F40040C8B9184892
:10519000008800F4804060B10A2C03D0002014493C
:1051A000088020E01248008840F400401049088040
:1051B00019E00D2C06D10E48008840F480400C49BF
:1051C000088010E00A480088C0F30D0009490C541B
:1051D00007480088401C0649088008460088C72800
:1051E00001DD0020088010BD0038014000080140AA
:1051F000A8000020760100200948804709480047A0
:10520000FEE7FEE7FEE7FEE7FEE7FEE7FEE7FEE776
:10521000FEE7FEE704480549054A064B70470000D3
:1052200023030008ED000008A0020020A0080020D1
:10523000A0040020A004002010B50446CC488442FD
:1052400008D10121042000F02DFB0021042000F0F2
:1052500029FB46E0C748844208D10121082000F01C
:1052600021FB0021082000F01DFB3AE0C2488442E7
:1052700008D10121102000F015FB0021102000F0C2
:1052800011FB2EE0BD48844208D10121202000F00E
:1052900009FB0021202000F005FB22E0B8488442F1
:1052A00008D10121402000F0FDFA0021402000F04B
:1052B000F9FA16E0B348844208D10121802000F0B9
:1052C000F1FA0021802000F0EDFA0AE0AE488442B5
:1052D00007D10121801500F0E5FA0021A01500F0AA
:1052E000E1FA10BD10B50121084600F0DBFA0021FB
:1052F000012000F0D7FA10BD2DE9F041024600254B
:105300000026002000230024002791F803C00CF0A1
:105310000F0591F803C00CF0100CBCF1000F03D086
:1053200091F802C04CEA050591F800C0BCF1000FED
:1053300031D0146800202BE04FF0010C0CFA00F380
:10534000B1F800C00CEA03069E4220D183004FF062
:105350000F0C0CFA03F7BC4305FA03FC4CEA0404F7
:1053600091F803C0BCF1280F06D14FF0010C0CFAE4
:1053700000FCC2F814C00AE091F803C0BCF1480F69
:1053800005D14FF0010C0CFA00FCC2F810C0401C13
:105390000828D1D31460B1F800C0BCF1FF0F34DD90
:1053A000546800202EE000F1080C4FF0010808FAC4
:1053B0000CF3B1F800C00CEA03069E4221D1830031
:1053C0004FF00F0C0CFA03F7BC4305FA03FC4CEA50
:1053D000040491F803C0BCF1280F05D100F1080CBA
:1053E00008FA0CF8C2F8148091F803C0BCF1480F19
:1053F00007D100F1080C4FF0010808FA0CF8C2F8C8
:105400001080401C0828CED35460BDE8F0814FF6D0
:10541000FF710180022181700421C1707047024632
:10542000002093680B400BB1012000E00020704782
:105430000146886880B2704702460020D3680B405E
:105440000BB1012000E0002070470146C86880B21F
:10545000704701617047416170470AB1016100E026
:1054600041617047C16070474FF480320A438261E6
:105470008161826182698269704702460020434BE4
:1054800018684FF68073184040EA021008433F4BFB
:10549000186070473E49C8617047F0B50A4600235E
:1054A00000240021002500F00046B6F1004F02D193
:1054B000364EF16901E0354E7168C0F3034583B2A1
:1054C00000F44016B6F5401F08D121F070612F4E50
:1054D000766826F070662D4F7E6012E000F480162C
:1054E000B6F5801F06D1032606FA05F4A14341F064
:1054F000706106E0460D360103FA06F6B14341F04D
:10550000706122B1460D360103FA06F6314300F010
:105510000046B6F1004F02D11C4EF16101E01B4E76
:105520007160F0BD30B500228B071C0F0F2303FA0A
:1055300004F2164B08338C1053F824309343134C69
:1055400008348D1044F8253023468C1053F824304D
:105550008C07240F00FA04F423430C4C08348D10FC
:1055600044F8253030BD0A49DC310860704700003E
:1055700000080140000C01400010014000140140EF
:1055800000180140001C01400020014000000140C3
:1055900000002042DF48006840F00100DD4908605B
:1055A00008464068DC490840DA4948600846006817
:1055B000DA490840D74908600846006820F480208E
:1055C00008600846406820F4FE0048604FF41F0061
:1055D00088607047CF49096821F48031CD4A116055
:1055E0001146096821F480211160B0F5803F03D095
:1055F000B0F5802F0ED106E0C649096841F480312C
:10560000C44A116007E0C349096841F4A021C14AB6
:10561000116000E000BF00BF704710B501460022D6
:10562000002300204A11012A02D1BA4C236806E067
:10563000022A02D1B74C236A01E0B64C636A01F03A
:105640001F02012494401C400CB1012000E0002006
:1056500010BD38B5002000900024002500BF312087
:10566000FFF7DBFF05460098401C00900098B0F55E
:10567000A06F01D0002DF2D03120FFF7CEFF08B18E
:10568000012400E00024204638BD01460020A14A44
:10569000106820F0F80040EAC10010607047A0498F
:1056A00008607047024600209A4B586820F47C102E
:1056B00042EA01031843974B5860704798490866BF
:1056C000704701460020934A506820F003000843C9
:1056D000506070478F48406800F00C0070470146EA
:1056E00000208C4A506820F0F0000843506070475A
:1056F00001460020874A506820F4E060084350606B
:10570000704701460020834A506820F4605040EA08
:10571000C1005060704729B17E4A527A02437D4BE6
:105720005A7204E07B4A527A82437A4B5A7270472B
:105730007B49D8310860704701460020754A50689F
:1057400020F440400843506070470021714A2032E5
:105750001170704A82F82010012802D004280AD162
:1057600004E001216B4A2032117005E00521694AED
:105770002032117000E000BF00BF70476949086027
:1057800070476449096A0143624A1162704765497A
:1057900044390860704730B50021002200240023FE
:1057A0005C4D6D6805F00C0121B1042905D0082974
:1057B00023D105E05C4D056022E05B4D05601FE0F4
:1057C000544D6D6805F47012524D6D6805F48034C7
:1057D000022505EB92421CB9544D554305600BE080
:1057E0004C4D6D6805F400351DB1504D55430560B5
:1057F00002E04D4D5543056002E04B4D056000BF92
:1058000000BF444D6D6805F0F0010909484D6B5C1F
:105810000568DD4045603F4D6D6805F4E061090AAB
:10582000434D6B5C4568DD4085603A4D6D6805F41D
:105830006051C90A3E4D6B5C4568DD40C560354D21
:105840006D6805F44041890B3A4D6B5CC568B5FB4A
:10585000F3F5056130BD29B12E4A526902432D4B43
:105860005A6104E02B4A526982432A4B5A617047BD
:1058700029B1284A92690243264B9A6104E0254ADD
:1058800092698243234B9A61704729B1214AD269B8
:105890000243204BDA6104E01E4AD26982431D4B69
:1058A000DA61704729B11B4AD2680243194BDA60AA
:1058B00004E0184AD2688243164BDA60704729B177
:1058C000144A12690243134B1A6104E0114A126927
:1058D0008243104B1A617047124940390860704783
:1058E0000F49C86470470B49C87170470948406A3E
:1058F00040F0807007494862704701460020054A21
:1059000092680A400AB1012000E000207047014976
:1059100088727047001002400000FFF8FFFFF6FE9B
:10592000000042428004424200127A0000093D0019
:10593000AA000020BA00002010B50446FB488442AB
:1059400009D101218803FFF7ADFF00214FF480400A
:10595000FFF7A8FF32E0F648844209D1012148044C
:10596000FFF7ADFF00214FF40030FFF7A8FF25E05F
:10597000F048844209D101218804FFF7A0FF0021EB
:105980004FF48020FFF79BFF18E0EB48844209D1D9
:105990000121C804FFF793FF00214FF40020FFF717
:1059A0008EFF0BE0E548844208D101210805FFF78E
:1059B00086FF00214FF48010FFF781FF10BD2DE915
:1059C000F04786B005460E460024A24600BFA14619
:1059D0000027B08900B100BF2F462C8A4CF6FF701B
:1059E0000440F08804432C82AC894EF6F310044046
:1059F000B08831890843718908430443AC81AC8A7B
:105A00004FF6FF400440B0890443AC8201A8FFF781
:105A1000C2FEC648874202D1DDF810A001E0DDF8E1
:105A20000CA0A88900F4004040B10AEBCA0000EBCA
:105A30000A1031684900B0FBF1F807E00AEBCA0030
:105A400000EB0A1031688900B0FBF1F86420B8FB64
:105A5000F0F004012009642101FB1089A88900F4F9
:105A6000004040B1322000EBC900B0FBF1F000F083
:105A70000700044308E0322000EB09106421B0FB6A
:105A8000F1F000F00F0004432C8106B0BDE8F08770
:105A90004FF41651016000218180C18001810C21E9
:105AA000418100218181704710B502460020108A93
:105AB0004FF2FF0318400B884C8823438C88234304
:105AC000CC8823431843108210BD002101804180FF
:105AD0008180C180704721B1828942F40052828165
