:020000040800F2
:10000000D06A02205D020008E7450008FF190008D9
:100010001545000869050008ED4F000800000000C4
:10002000000000000000000000000000674B000816
:100030004B070008000000000D490008ED4B0008C8
:1000400077020008770200087702000877020008AC
:10005000770200087702000877020008770200089C
:10006000770200087702000877020008770200088C
:10007000770200087702000877020008770200087C
:10008000770200087702000877020008770200086C
:10009000770200087702000877020008770200085C
:1000A000770200087702000877020008770200084C
:1000B000770200087702000877020008770200083C
:1000C000770200087702000877020008770200082C
:1000D00077020008594F0008C54F00087702000852
:1000E000770200087702000877020008770200080C
:1000F00077020008770200087702000877020008FC
:1001000077020008770200087702000877020008EB
:1001100077020008770200087702000877020008DB
:1001200077020008710600087702000877020008CD
:1001300077020008770200087702000877020008BB
:1001400077020008770200087702000877020008AB
:10015000770200087702000877020008770200089B
:10016000770200087702000877020008770200088B
:10017000770200087702000821060008000000004E
:10018000770200087702000877020008770200086B
:10019000770200087702000877020008770200085B
:1001A00077020008770200087702000800F002F8E2
:1001B00000F044F80AA090E8000C82448344AAF1BD
:1001C0000107DA4501D100F039F8AFF2090EBAE8BB
:1001D0000F0013F0010F18BFFB1A43F0010318477B
:1001E000FC9B00001C9C0000103A24BF78C878C11A
:1001F000FAD8520724BF30C830C144BF04680C602D
:10020000704700000023002400250026103A28BF74
:1002100078C1FBD8520728BF30C148BF0B60704778
:10022000642900F07D80782900F0B68000207047B6
:100230001FB505F02BF91FBD10B510BD00F064F916
:100240001146FFF7F5FF04F00FFF00F082F903B449
:10025000FFF7F2FF03BC04F0CAFE00000948804724
:1002600009480047FEE7FEE7FEE7FEE7FEE7FEE798
:10027000FEE7FEE7FEE7FEE704480549054A064BB0
:1002800070470000F14B0008AD010008D064022067
:10029000D06A0220D0660220D0660220704700009B
:1002A0000FB4044910B503AA029800F0FFF810BC7F
:1002B0005DF814FB200000202DE9F0410E460446B5
:1002C000002020622046E168884730B3252805D009
:1002D000D4E901219047206A401CF2E7E1682046FA
:1002E00000278847050018D0A5F14100192802D839
:1002F00020354FF400673246294620462760FFF735
:100300008FFF40B1012804D0F61D26F007060836FD
:10031000D8E7361DD6E72846DAE7206ABDE8F0813F
:100320002DE9F0410646002410687529314616A5CE
:1003300010D0AFF30080002802DA404213A507E096
:1003400031688A0701D512A502E0490704D511A535
:10035000012401E0AFF3008000210A2206F1240706
:1003600009E0B0FBF2FCB0FBF2F302FB1C00303002
:1003700078541846491C0028F3D123462A463046B3
:10038000BDE8F04100F038B8000000002D0000008A
:100390002B0000002000000070B504460D462146E9
:1003A0001068AFF300802188090502D50F4A7A440E
:1003B00002E00E4A7A440E32002104F1240305E0E3
:1003C00000F00F060009965D5E54491C0028F7D125
:1003D00020780023000704D5702D02D009B1022334
:1003E00011322046BDE8704000F006B8009A0000C7
:1003F00070477047704770472DE9F0470D469946A2
:100400009246044600F124080168880604D5E06994
:1004100021F01001216000E00120A84201DD471B0E
:1004200000E00027A1697A1902EB0900081AA0610F
:100430002078C00602D42046AFF30080002608E0F2
:10044000D4E901211AF806009047206A401C761C66
:1004500020624E45F4DB2078C0060AD52046AFF373
:10046000008006E0D4E9012130209047206A401C3A
:100470002062381EA7F10107F4DC07E0D4E901216E
:1004800018F805009047206A401C2062281EA5F13C
:100490000105F3DC2046AFF300802078000602D58A
:1004A0000220BDE8F0870120FBE70000074B70B594
:1004B0000D467B4400F011F80446284600F020F871
:1004C00010B14FF0FF3070BD204670BD9F4B000053
:1004D00001694A1C02610878704700B58FB0CDE908
:1004E00001310021059105497944CDE903101146F8
:1004F0006846FFF7E1FE0FB000BD0000E5FFFFFF1B
:10050000007B00F080007047754600F029F8AE4689
:1005100005006946534620F00700854618B020B50F
:10052000FFF7AAFEBDE820404FF000064FF000079D
:100530004FF000084FF0000B21F00701AC46ACE88B
:10054000C009ACE8C009ACE8C009ACE8C0098D46F8
:1005500070470446AFF300802046FFF778FE0000A6
:10056000004870476C640220FEE700002DE9F84364
:100570008046274816460F4608990268002542F42F
:10058000800202600068234C00F480000090A4F117
:1005900040008463A063204820604FF00070C4E9ED
:1005A00001054013E560C4E904100011C4E90630F8
:1005B00040022062042060620120C4E90A0520464E
:1005C000256300F0EFFA204600F018FB134984F889
:1005D0003450A7B13B4642462046009600F08BFAC5
:1005E0002068016841F010010160002211463920A5
:1005F00000F09AFCBDE8F843392000F08ABC01B055
:1006000033464246BDE8F043024800F033BB0000E9
:10061000303802401464022028640240280005504B
:10062000014800F029B90000D463022007480649B8
:10063000016000212022C0E90112C1600161416115
:10064000816100F08BB9000000000550D4630220E6
:1006500005480068016841F0010101600348016834
:1006600041F0010101607047146402200000055050
:1006700030B51748184D184A0068164B164C603DA7
:10068000B83A984202D91349543903E0A04203D939
:1006900010495839096804E0A84201D9516800E0BE
:1006A000116811F4006F0BD04FF40061984202D929
:1006B00008484C3803E0A04203D90648503801608E
:1006C00030BDA84201D9D16030BD916030BD00007D
:1006D0001464022058640240B86002400168182384
:1006E000CAB2103AB2FBF3F2054B6FF30901032AC9
:1006F0009B5C436500D9091D0165084670470000F1
:10070000A654000810B5046863608368402B036832
:1007100003D099600068C26010BD9A600068C16033
:1007200010BD30B50468256825F48025256004686F
:1007300063608368402B036803D099600068C260DF
:1007400030BD9A600068C16030BD704770B5B3F5C8
:10075000804F05D06FF0704140F82210002070BD2E
:1007600050F82230084C2340D1E9004544EA0514F2
:100770008D688E892D0245EA064589692C430C4314
:100780001C4340F82240E9E70000F0CFF0B50C68C8
:1007900050F82450194A1540D1E90123D1E90367E3
:1007A0001A433E4332434E6932438E693243CE6927
:1007B00032430E6A32434E6A32438E6A3243CE6A05
:1007C0003243CE6B32430E6B32434E6B32432A437D
:1007D000082B01D142F0400240F824204A6BB2F5C8
:1007E000801F08D10A6832B14FF480720A6104494F
:1007F0000268114301600020F0BD00008000E0FFAE
:1008000000011000F0B500EB820253688E8903F0FE
:100810004044D1E9003543EA05138D682D0245EACD
:1008200006452B430E8A0D4D05EB065633430E7DD0
:100830006F0107EB066633438E69334323435360EE
:100840000268D20207D54268098A22F4700205EBD9
:100850000151114341600020F0BD00000000F0FF95
:100860007047000003480068C16841F00101C160A1
:1008700070470000D463022070B5044600688168A8
:100880004FF0040649074FF0000516D501694907E6
:1008900013D5C16821F00401C16020684661E06B96
:1008A00040F00200E06384F8256084F82450A06BD7
:1008B00000F04FF92046FFF7D3FF206881688907D1
:1008C00017D50169890714D5C16821F00201C160FB
:1008D000216802204861E06B40F00100E06384F889
:1008E000256084F82450A06B00F033F92046FFF710
:1008F000B7FF20688168C90609D50169C90606D510
:100900001021416184F82450204600F07DF82068D1
:10091000816809070ED5016909070BD5C16821F067
:100920000801C16021680820486184F824502046ED
:1009300000F0E0F820688168C9070ED00169C90796
:100940000BD0C16821F00101C1602168012048611C
:1009500084F824502046FFF785FF70BD10B50400D1
:1009600003D094F8250010B104E0012010BD20460A
:1009700000F04CF8022084F825002068016840F659
:10098000F87291430160616860690143D4E9030230
:1009900010430143A0680143A0690143206A014359
:1009A00020680268114301606068102805D1E17F6A
:1009B000E06961F31F60134988612068C16841F0F4
:1009C0001001C1602068C16841F00801C160206861
:1009D000C16841F00101C1602068C16841F00401B3
:1009E000C1602068C16841F00201C16020680168EF
:1009F00041F4804101600020E063012084F825007B
:100A0000002010BD0000055070470000334800B5BD
:100A1000016887B041F001010160006800F0010049
:100A200005902E48001F016841F001010160016836
:100A300001F001010591016841F0020101600168C6
:100A400001F002010591016841F0040101600168B3
:100A500001F004010591016841F00801016001689D
:100A600001F008010591016841F080010160006812
:100A7000694600F08000059040200090022001901F
:100A800001200290032003900D200490144800F0F0
:100A90000FF94FF4607000906946124800F008F9B1
:100AA0004FF43C60009069460F4800F001F90820BF
:100AB000009069460D4800F0FBF84FF480700090FC
:100AC00069460B4800F0F4F8002211464E2000F071
:100AD0002BFA4E2000F01DFA07B000BD343802405A
:100AE000000002400004024000080240000C0240E6
:100AF000001C0240704770B5044690F83400049D15
:100B0000012808D0012084F83400206806683603E4
:100B100003D4122605E0022070BD0668360302D514
:100B2000222684F83560066826F0010606602068F3
:100B3000066846F480260660206803612B4620463E
:100B4000FFF7E0FD2068016841F00101016000202D
:100B500070BD2DE9F04104460068016821F00101F3
:100B6000016000F099F9054600264FF47A770FE00E
:100B700000F092F9401BB8420AD954F84C0F40F0EB
:100B8000200044F81809032026706070BDE8F08149
:100B900020680068C007EBD104F8346F0120607052
:100BA0000020F3E770B5040025D094F83500022842
:100BB00021D02068016821F0010101602068002532
:100BC000056020684560206885602068C5602068F1
:100BD00005612168212048612046FFF77FFD94F8D8
:100BE00054203F2191408160E56484F8355084F8B9
:100BF0003450002070BD012070BD000070B50400AD
:100C00001AD00220636A84F8350021680A681848FF
:100C10000240D4E901052843D4E90356354328436B
:100C200065692843A5692843E5692843256A28435F
:100C30001043042B02D005E0012070BDD4E90B2342
:100C40001A431043086022685069616A20F0070067
:100C50000843042901D1A16A084350612046FFF7E7
:100C60003DFD0020E064012084F83500002070BDC7
:100C70003F8010F070B5044690F83400012814D07D
:100C8000012084F83400022084F8350020680568CB
:100C900025F0010505602046FFF743FD2068016847
:100CA00041F001010160002070BD022070BD000014
:100CB0002DE9F84FDFF8A091002209F1040A0AF1AA
:100CC000040B4FF00F080BF1040E01260B68964041
:100CD0003340B34271D14C68022C01D0122C11D197
:100CE000D40800EB84073D6A5407E40E08FA04FCBC
:100CF00025EA0C05D1F810C00CFA04FC4CEA050CEE
:100D0000C7F820C007685400032591F804C0A54027
:100D10000CF0030CAF430CFA04FC4CEA070CC0F8CF
:100D200000C04F68012F05D0022F03D0112F01D032
:100D3000122F11D18768D1F80CC0AF430CFA04FC14
:100D40004CEA070CC0F808C04768B7430E79C6F3F1
:100D5000001696403E434660C668AE438D68A54087
:100D60003543C5604C68E4006FD53C4C256845F4BC
:100D700080452560246822F0030504F48044009433
:100D8000374C2E19D6F808789407250F08FA05F481
:100D9000A743344CA04201D100242EE0324CA042A3
:100DA00001D1012429E0314CA04201D1022424E0E8
:100DB0002F4CA04202D103241FE046E02D4CA0425C
:100DC00001D1042419E02C4CA04201D1052414E0E7
:100DD0002A4CA04201D106240FE0294CA04201D1A7
:100DE00007240AE0274CA04201D1082405E0264C44
:100DF000A04201D1092400E00A24AC403C43C6F8DB
:100E00000848D9F800404D464E689C43F60300D58B
:100E10001C432C60DAF8004055464E689C43B603EC
:100E200000D51C432C60DBF800405D464E689C43B7
:100E3000F60200D51C432C60DEF8004075464E6873
:100E40009C43B60200D51C432C60521C102AFFF4B0
:100E50003CAFBDE8F88F0000003C01404438024040
:100E6000003001400000024000040240000802403F
:100E7000000C024000100240001402400018024022
:100E8000001C024000200240002402400AB181619F
:100E900070470904FBE70000014800687047000044
:100EA0001400002002480168491C016070470000DE
:100EB000140000200B4810B5016841F40071016076
:100EC000016841F480610160016841F48071016052
:100ED000052000F049F80F2000F006F800F015F8A2
:100EE000002010BD003C024010B5044600F096F909
:100EF0004FF47A71B0FBF1F000F012FC00222146B1
:100F0000501E00F011F8002010BD08B50020009020
:100F100008BD00F01F02012191404009800000F14E
:100F2000E020C0F800117047F0B40E4B1B68C3F30B
:100F30000223C3F10704042C00D904241D1D072D2E
:100F400001D2002300E0DB1E012606FA04F56D1E27
:100F50000D409D409E40761E164045EA0601F0BCBD
:100F600003F042BB0CED00E0064A00F007011068F8
:100F70004FF6FF03184040EA012003490843106080
:100F8000704700000CED00E00000FA052DE9F84381
:100F90001D48016841F0805101600068012700F0A0
:100FA00080500090380490FAA0F0DFF86080B0FA2A
:100FB00080F048F82070FFF76FFF04464FF47A7511
:100FC000134E04E0FFF768FF001BA84213D87068B7
:100FD000C003F7D54FF4003090FAA0F0B0FA80F0DB
:100FE00048F82070FFF758FF044607E0FFF754FF6A
:100FF000001BA84202D90320BDE8F8837068800373
:10100000F4D50020F8E700004038024000000E420E
:10101000007000402DE9F05FDFF8F8A104460F46AC
:10102000DAF80000DFF8F08100F00F02C8B27A4968
:10103000814641F2883608F10808BA4261D2024678
:101040008AF80020DAF8000000F00F00B8427DD1E5
:101050002078800707D5D8F80020A36822F0F00296
:101060001A43C8F800202078C0072DD060680128F6
:101070001AD002281BD0032819D009688907002933
:1010800064DAD8F80010474621F003010143C8F89C
:101090000010FFF701FF0546606801280FD0022805
:1010A00018D003281CD027E009688903E7E70968FE
:1010B0008901E4E7FFF7F0FE401BB04258D83868DA
:1010C000C0F381000128F5D188E0FFF7E5FE401B61
:1010D000B0424DD83868C0F381000228F5D17DE0D8
:1010E0003868FFF7D9FE401BB042F9D940E0FFF75E
:1010F000D3FE401BB0423BD8386810F00C0FF6D13D
:101100006CE02078800707D5D8F80020A36822F08B
:10111000F0021A43C8F800202078C0074CD060685D
:10112000012828D0022829D0032827D00968890758
:10113000002949DAD8F8002022F003020243C8F857
:101140000020FFF7A9FE0546606800E03CE00128AA
:101150001DD0022829D0032838D0B346464630682F
:1011600010F00C0F28D0FFF797FE411B5945F6D918
:101170000320BDE8F09F09688903D9E70968890160
:10118000D6E7FFF789FE411B594502D9F0E7B34680
:1011900046463068C0F381000128F2D10CE0FFF729
:1011A0007BFE411B594502D9E2E7B346464630680B
:1011B000C0F381000228F2D18AF80090DAF800002A
:1011C00000F00F00B84209D00120D2E74446206861
:1011D000FFF762FE401BB042F9D9C9E7207840070B
:1011E00007D5D8F80010E26821F4E0511143C8F89F
:1011F00000102078000708D5D8F80010226921F4E3
:10120000604141EAC201C8F800100F20FFF76CFEF0
:101210000020AEE7003C02400038024010B500F06C
:1012200043F808490968F02292FAA2F201F0F001AD
:10123000B2FA82F2D140044A515CC84003490860C6
:1012400010BD00000838024096540008000000203D
:1012500010B5FFF7E3FF074909684FF4E05292FA2F
:10126000A2F201F4E051B2FA82F2D140024A515C9A
:10127000C84010BD083802409654000810B5FFF76A
:10128000CDFF074909684FF4604292FAA2F201F4D7
:101290006041B2FA82F2D140024A515CC84010BDAE
:1012A000083802409654000830B51948006810F01C
:1012B0000C01184812D0184C04290ED008290DD161
:1012C000134A121F1168136801F03F015D0247F6CF
:1012D000C07304D5B4FBF1F003E0204630BDB0FB91
:1012E000F1F01168194093FAA3F3B3FA83F3D940EC
:1012F000484311684FF4403292FAA2F201F44031AF
:10130000B2FA82F2D140491C4900B0FBF1F030BD85
:10131000083802400024F40040787D012DE9F84FA0
:1013200004460078DFF8FCA2BF4DC0074FF000066E
:1013300048D0DAF800105046C1F38101012908D0E5
:101340000068C0F3810002280AD1281D006840020D
:1013500006D52868800335D56068002873D031E051
:10136000DFF8C49209F1020989F80060FFF794FDE3
:10137000074641F2883804E0FFF78EFDC11B414566
:101380007AD828688003F7D4207989F8000060684B
:1013900060B1FFF781FD074604E0FFF77DFDC11B4B
:1013A0004145EDD828688003F7D50BE0FFF774FDC1
:1013B000074604E0FFF770FDC11B4145E0D82868EF
:1013C0008003F7D42078DFF86492800744D5DAF8F8
:1013D0000010504611F00C0F4FF0F80809D00068CB
:1013E000C0F3810002280BD18E48001F0068400224
:1013F00006D42868800714D5E068012823D110E0BE
:10140000E068D0B10120C9F80000FFF745FD0746AC
:1014100004E0FFF741FDC01B6428B1D828688007AD
:10142000F7D5286898FAA8F22169B2FA82F220F07A
:10143000F8009140084328600EE0C9F80060FFF70B
:101440002BFD074605E0EAE0FFF726FDC01B6428F8
:1014500012D828688007F7D42078000725D5DFF850
:10146000C4817348616908F16C0881B10121016090
:10147000FFF712FD074605E07EE0FFF70DFDC01BFC
:10148000642879D8D8F800008007F6D50DE006600A
:10149000FFF702FD074604E0FFF7FEFCC01B6428CF
:1014A0006AD8D8F800008007F6D42078400753D5D2
:1014B0005C483830016841F0805101600068DFF815
:1014C000748100F080500090D8F8001041F48071D1
:1014D000C8F80010FFF7E0FC074604E0FFF7DCFC6B
:1014E000C01B642848D8D8F80000C005F6D5DFF83E
:1014F00034B10BF1680B8BF80060FFF7CDFC0746A9
:1015000041F2883804E0FFF7C7FCC11B41457ED893
:10151000DBF800008007F6D4207A8BF80000A06882
:1015200068B1FFF7B9FC074604E0FFF7B5FCC11B43
:1015300041456CD8DBF800008007F6D50CE0FFF7DA
:10154000ABFC074604E0FFF7A7FCC11B41455ED892
:10155000DBF800008007F6D4A069E8B3DAF80010E1
:10156000C1F3810102295AD0022806D0C9F860606F
:10157000FFF792FC04464DE049E04F46C9F8606031
:10158000FFF78AFC064604E0FFF786FC801B642810
:101590003DD828688001F7D4D4E90701084347F60D
:1015A000C07191FAA1F1626AB1FA81F18A40A16A2F
:1015B0004FF0FF3303EB51014FF4403393FAA3F3A1
:1015C000B3FA83F399400A4310434FF0706292FAE2
:1015D000A2F2B2FA82F200E01FE0E16A9140084311
:1015E0001049091F086001203866FFF755FC0446C2
:1015F00004E0FFF751FC001B642808D8286880012C
:10160000F7D50AE0FFF748FC001B642802D9032045
:10161000BDE8F88F28688001F4D40020F8E70120A5
:10162000F6E7000008380240003802400000474258
:10163000800E47420070004070B515460E4604000B
:1016400003D094F8490010B107E0012070BD0020DC
:1016500084F84800204600F01BF804F108012068D7
:10166000FFF794F83146A2682068FFF7CBF8D4E979
:1016700001022946236BFFF769F8A168206850F83A
:10168000212042F0010240F82120002070BD00001E
:101690001A4800B5016887B041F001010160006897
:1016A00000F00100059015480838016841F0080174
:1016B0000160016801F008010591016841F0100125
:1016C00001600068694600F0100005904EF2B370AA
:1016D00000900220019001200290032003900C2032
:1016E00004900748FFF7E4FA4FF6807000906946CF
:1016F0000448FFF7DDFA07B000BD000038380240AB
:10170000000C0240001002404FF0E021042808695C
:1017100003D020F004000861704740F00400FAE7AD
:1017200010B5401EB0F1807F01D3012010BD4FF0F5
:10173000E02460610F21601702F056FF0020A061D5
:1017400007202061002010BD704738B501680446AD
:101750000868CA68C0F3000002F4807238B132B180
:10176000086848680090E06B40F00100E06308689A
:101770004A69C0F3400002F0010238B132B1086892
:1017800048680090E06B40F00400E06308684A6934
:10179000C0F3800002F0010238B132B10868486835
:1017A0000090E06B40F00200E06308684A69C0F313
:1017B000C00002F0010238B132B1086848680090F8
:1017C000E06B40F00800E0630868C968C0F34010AF
:1017D00001F0200118B111B1204603F033FA20685E
:1017E0000168C068C1F3C01100F0800019B110B1E8
:1017F000204603F035FB21680868CA68C0F38010F2
:1018000002F04002012568B162B1CA68204622F0A8
:101810004002CA6094F8391032290CD080F839504F
:1018200000F0ECF8E06B002804D084F83950204632
:10183000FFF78AFF38BD222180F83910F0E770B534
:10184000040004D094F83900002510B106E001200E
:1018500070BD84F83850204600F020F8022084F84B
:1018600039002068C16821F40051C160204603F0AE
:101870003DFA2068016921F49041016120684169C5
:1018800021F02A0141612068C16841F40051C16022
:10189000E563012084F83900002070BD30B50446AE
:1018A0000068204987B0884239D11F48016841F05B
:1018B00001010160006800F0010005901A48143031
:1018C000016841F0100101600068012100F0100082
:1018D00005904FF4007000900220CDE901010390C3
:1018E0000720124D049069462846FFF7E1F92815B4
:1018F000009069462846FFF7DBF92068C16821F0AF
:101900004001C1602068C16841F02001C16025200C
:10191000FFF7FFFA032211462520FFF705FB07B06A
:1019200030BD00000010014030380240000002408D
:101930002DE9F047044690F8390099460D460128F4
:1019400001D0122857D125B31AB394F838000128D2
:1019500051D0012684F838600027E76394F83900F5
:10196000122819D0222084F83900A285E2854FF48C
:101970008058E08D4B46401EE085A0684FF0000285
:1019800040454FF02001204616D103F09CFAB0B933
:1019900004E00120BDE8F0873220E4E72069002858
:1019A0002068406803D0C1B225F8011B12E0C0F3E3
:1019B000080125F8021B0DE003F085FA08B10320A9
:1019C000E8E7206900282068406801D000F07F0027
:1019D00005F8010BE08D0028CBD194F839003228AE
:1019E00005D084F8396084F838700020D2E71220DE
:1019F00084F83900F7E70220CCE770477047FEE72C
:101A000070B5114886B00025016841F4807101600D
:101A10000068032400F4807005900120CDE90204E1
:101A20008002CDE90005094E69463046FFF740F9CE
:101A3000F014CDE900050220CDE9020469463046E4
:101A4000FFF736F906B070BD303802400020024082
:101A500070B50646094800240188458820464D4354
:101A6000214602F0EBFB02F01BFDB1B2044801E09D
:101A70000180641CAC42FBD370BD0000C463022033
:101A8000000008602DE9F04F334B2C241946987163
:101A90002A2589882B2645F2105B4FF4305E4FF4DF
:101AA00048774FF0F00949F2413A4FF4A07845F2F7
:101AB000103C4FF4F07258B1A3F80080A3F80290E4
:101AC000514501D0614529D11C815D819E8139E05C
:101AD000A3F80090A3F80280514501D0614508D1D8
:101AE0001C815D819E81614531D1A3F800805A80BF
:101AF0002DE0594508D1A3F808E04FF4285058814B
:101B00004FF42C50988106E0A1F5C85063381ED1DF
:101B10001C815E819D811A805F8018E0594508D143
:101B2000A3F808E04FF4285058814FF42C509881C6
:101B300006E0A1F5C850633804D11C815D819E8107
:101B40001F805A80614502D11A80A3F80280BDE847
:101B5000F04F002002F096BAC46302202DE9F04154
:101B6000364D90460C4602460F0AA8882946160AAA
:101B70004989A0F51343413B0BD0A0F5A643103B88
:101B800007D0B3F5007311D0A0F5C853633B27D03D
:101B90004BE0084602F078FC304602F069FCD0B217
:101BA00002F066FCA88902F06FFC38E0084602F0FB
:101BB0006BFC304602F05CFC6889401C80B202F08D
:101BC00063FCD0B202F054FCA88902F05DFC3846F8
:101BD00002F04EFCA889401C80B202F055FC21E0C6
:101BE000A87918B92888801A401E82B2084602F0E7
:101BF0004BFC160A304602F03BFCD0B202F038FC37
:101C0000304602F035FCD0B202F032FCA88902F076
:101C10003BFC384602F02CFCE0B202F029FC3846CE
:101C200002F026FCE0B202F023FC05492889088076
:101C3000891CA1F80080BDE8F0810000C463022087
:101C4000FEFF07602DE9F0431F468146A2EB090025
:101C5000079B401C0C4686B29DB2DFF82C800FE03B
:101C60002146484602F0EAFA02F01AFC00204146FA
:101C700002E00D80401C80B2B042FAD3641CA4B2D2
:101C8000BC42EDD9BDE8F083000008602DE9F04FBB
:101C9000FF4895B00024016841F00201016000682E
:101CA0004FF0010900F0020000902020CDE910095A
:101CB0000320CDE9129010A9F648FEF7F9FFF64887
:101CC0004FF02045F5490560C0E901141021C460BA
:101CD000C0E9044184610902C461C0E90941890085
:101CE000C0E90B4189014463C0E90E4146210B91D3
:101CF0000F20CDE90904CDE9020404900F9402AA53
:101D000009A90894E448FFF797FC322003F07AF918
:101D1000D32002F0B9FB02F083F9DF4A5032908001
:101D200002F07EF9908002F07BF94FF6FF7808EA26
:101D30000020908002F074F9918849F2413A0843FA
:101D4000908045F2103645F2105441F66317504525
:101D500047D0D42002F098FB02F062F9908002F0A4
:101D60005FF9908002F05CF908EA0020908002F0B0
:101D700057F9918808439080B04232D04FF45A40CE
:101D800002F082FB02F04CF990804FF45B4002F0CD
:101D90007BFB02F045F908EA002090804FF45C409C
:101DA00002F072FB02F03CF9918808439080B0F594
:101DB000004F7DD0A04214D0A12002F065FB02F0BC
:101DC0002FF9908002F02CF908EA0020908002F0B0
:101DD00027F991880843A0F5AE419080613900D180
:101DE000978090469188AEA0FEF75AFAB8F80400A2
:101DF00050457DD1CF2002F047FB002002F038FB98
:101E0000C12002F035FB302002F032FBED2002F061
:101E10003BFB642002F02CFB032002F029FB122084
:101E200002F026FB812002F023FBE82002F02CFBCD
:101E3000852002F01DFB102002F01AFB7A2002F030
:101E400017FBCB2002F020FB392002F011FB2C20E5
:101E500002F00EFB002002F00BFB342002F008FB26
:101E6000022002F005FBF72002F00EFB202002F01A
:101E7000FFFAEA2002F008FB002002F0F9FA002045
:101E800002F0F6FAC02002F0FFFA1B2002F0F0FA8E
:101E9000C12002F0F9FA012002F0EAFAC52002F0AE
:101EA000F3FA302002F0E4FA302002F0E1FA00E028
:101EB000B8E0C72002F0E8FAB72002F0D9FA3620DD
:101EC00002F0E2FA482002F0D3FA3A2002F0DCFAFB
:101ED000552002F0CDFAB12002F0D6FA002002F02F
:101EE000C7FA1A2002F0C4FAB62002F0CDFA00E0D8
:101EF0009AE00A2002F0BCFAA22002F0B9FAF2201D
:101F000002F0C2FA002002F0B3FA262002F0BCFA76
:101F1000012002F0ADFAE02002F0B6FA0F2002F044
:101F2000A7FA2A2002F0A4FA282002F0A1FA082039
:101F300002F09EFA0E2002F09BFA082002F098FAB6
:101F4000542002F095FAA92002F092FA432002F000
:101F50008FFA0A2002F08CFA0F2002F089FA002092
:101F600002F086FA002002F083FA002002F080FAE4
:101F7000002002F07DFAE12002F086FA002002F053
:101F800077FA152002F074FA172002F071FA072090
:101F900002F06EFA112002F06BFA062002F068FAE5
:101FA0002B2002F065FA562002F062FA3C2002F083
:101FB0005FFA052002F05CFA102002F059FA0F20B7
:101FC00002F056FA3F2002F053FA3F2002F050FA96
:101FD0000F2002F04DFA2B2002F056FA002002F0FA
:101FE00047FA002002F044FA012002F041FA3F20B3
:101FF00002F03EFA2A2002F047FA002002F038FAF6
:10200000002002F035FA002002F032FAEF2002F050
:102010002FFA112002F038FA782002F0F3FF29207D
:1020200001F011BF9480DCE6B0427DD1ED2002F0DA
:102030002BFA012002F01CFAFE2002F019FAEE2021
:1020400002F022FADE2002F013FA212002F010FA48
:10205000F12002F019FA012002F00AFADF2002F062
:1020600013FA102002F004FAC42002F00DFA8F20B7
:1020700002F0FEF9C62002F007FA002002F0F8F99B
:10208000E22002F0F5F9E22002F0F2F9E2200FE09E
:10209000303802400004024074630220040100A0B2
:1020A000204C43442049443A25780D0A00000000A2
:1020B00002F0DEF9BF2002F0E7F9AA2002F0D8F919
:1020C000B02002F0E1F90D2002F0D2F9002002F078
:1020D000CFF90D2002F0CCF9002002F0C9F911204F
:1020E00002F0C6F9002002F0C3F9192002F0C0F98D
:1020F000002002F0BDF9212002F0BAF9002002F020
:10210000B7F92D2002F0B4F9002002F0B1F93D201A
:1021100002F0AEF9002002F0ABF95D2002F0A8F960
:10212000002002F0A5F900E0FDE35D2002F0A0F937
:10213000002002F09DF9B12002F0A6F9802002F003
:1021400097F9002002F094F98B2002F091F9002019
:1021500002F08EF9962002F08BF9002002F088F947
:10216000B22002F091F9002002F082F9002002F082
:102170007FF9022002F07CF9002002F079F90320B7
:1021800002F076F9002002F073F9B32002F07CF936
:10219000002002F06DF9002002F06AF9002002F040
:1021A00067F9002002F064F9002002F061F90020D4
:1021B00002F05EF9002002F05BF9002002F058F90D
:1021C000002002F055F9002002F052F9002002F040
:1021D0004FF9002002F04CF9002002F049F90020EC
:1021E00002F046F9002002F043F9002002F040F925
:1021F000002002F03DF9002002F03AF9002002F040
:1022000037F9002002F034F9002002F031F9002003
:1022100002F02EF9002002F02BF9002002F028F93C
:10222000B42002F031F98B2002F022F9002002F0F4
:102230001FF9962002F01CF9002002F019F9A120E4
:1022400002F016F9002002F013F9B52002F01CF993
:10225000022002F00DF9002002F00AF9032002F03A
:1022600007F9002002F004F9042002F001F900202F
:1022700002F0FEF8B62002F007F9002002F0F8F8AC
:10228000002002F0F5F8B72002F0FEF8002002F07E
:10229000EFF8002002F0ECF83F2002F0E9F800200F
:1022A00002F0E6F85E2002F0E3F8002002F0E0F829
:1022B000642002F0DDF8002002F0DAF88C2002F051
:1022C000D7F8002002F0D4F8AC2002F0D1F80020BA
:1022D00002F0CEF8DC2002F0CBF8002002F0C8F8C3
:1022E000702002F0C5F8002002F0C2F8902002F041
:1022F000BFF8002002F0BCF8EB2002F0B9F8002093
:1023000002F0B6F8DC2002F0B3F8002002F0B0F8DA
:10231000B82002F0B9F8002002F0AAF8002002F07C
:10232000A7F8002002F0A4F8002002F0A1F8002095
:1023300002F09EF8002002F09BF8002002F098F8CE
:10234000002002F095F8BA2002F09EF8242002F056
:102350008FF8002002F08CF8002002F089F80020AD
:1023600002F086F8C12002F08FF8202002F080F8F9
:10237000002002F07DF8542002F07AF8002002F0EC
:1023800077F8FF2002F074F8002002F071F8C22004
:1023900002F07AF80A2002F06BF8002002F068F8E8
:1023A000042002F065F8002002F062F8C32002F079
:1023B0006BF83C2002F05CF8002002F059F83A205B
:1023C00002F056F8002002F053F8392002F050F8DD
:1023D000002002F04DF8372002F04AF8002002F009
:1023E00047F83C2002F044F8002002F041F8362083
:1023F00002F03EF8002002F03BF8322002F038F8FC
:10240000002002F035F82F2002F032F8002002F010
:102410002FF82C2002F02CF8002002F029F82920B7
:1024200002F026F8002002F023F8262002F020F81F
:10243000002002F01DF8242002F01AF8002002F01B
:1024400017F8242002F014F8002002F011F82320DD
:1024500002F00EF8002002F00BF83C2002F008F821
:10246000002002F005F8362002F002F8002001F00A
:10247000FFFF322001F0FCFF002001F0F9FF2F20C8
:1024800001F0F6FF002001F0F3FF2C2001F0F0FF37
:10249000002001F0EDFF292001F0EAFF002001F00B
:1024A000E7FF262001F0E4FF002001F0E1FF2420F7
:1024B00001F0DEFF002001F0DBFF242001F0D8FF57
:1024C000002001F0D5FF232001F0D2FF002001F011
:1024D000CFFFC42001F0D8FF622001F0C9FF002027
:1024E00001F0C6FF052001F0C3FF002001F0C0FF8E
:1024F000842001F0BDFF002001F0BAFFF02001F0C0
:10250000B7FF002001F0B4FF182001F0B1FF002058
:1025100001F0AEFFA42001F0ABFF002001F0A8FF06
:10252000182001F0A5FF002001F0A2FF502001F0CB
:102530009FFF002001F09CFF0C2001F099FF00207C
:1025400001F096FF172001F093FF002001F090FFAB
:10255000952001F08DFF002001F08AFFF32001F0AB
:1025600087FF002001F084FFE62001F081FF0020BA
:1025700001F07EFFC52001F087FF322001F078FFD7
:10258000002001F075FF442001F072FF002001F0EF
:102590006FFF652001F06CFF002001F069FF7620DD
:1025A00001F066FF002001F063FF882001F060FF6A
:1025B000002001F05DFFC62001F066FF202001F041
:1025C00057FF002001F054FF172001F051FF0020B9
:1025D00001F04EFF012001F04BFF002001F048FF09
:1025E000C72001F051FF002001F042FF002001F060
:1025F0003FFF002001F03CFF002001F039FFC82020
:1026000001F042FF002001F033FF002001F030FF15
:10261000002001F02DFF002001F02AFFC92001F069
:1026200033FF002001F024FF002001F021FF0020F3
:1026300001F01EFF002001F01BFF002001F018FF39
:10264000002001F015FF002001F012FF002001F032
:102650000FFF002001F00CFF002001F009FF002017
:1026600001F006FF002001F003FF002001F000FF51
:10267000002001F0FDFE002001F0FAFE002001F034
:10268000F7FEE02001F000FF162001F0F1FE00202F
:1026900001F0EEFE1C2001F0EBFE002001F0E8FE50
:1026A000212001F0E5FE002001F0E2FE362001F0DD
:1026B000DFFE002001F0DCFE462001F0D9FE002004
:1026C00001F0D6FE522001F0D3FE002001F0D0FE32
:1026D000642001F0CDFE002001F0CAFE7A2001F056
:1026E000C7FE002001F0C4FE8B2001F0C1FE0020D7
:1026F00001F0BEFE992001F0BBFE002001F0B8FE03
:10270000A82001F0B5FE002001F0B2FEB92001F0D2
:10271000AFFE002001F0ACFEC42001F0A9FE0020B5
:1027200001F0A6FECA2001F0A3FE002001F0A0FEE9
:10273000D22001F09DFE002001F09AFED92001F088
:1027400097FE002001F094FEE02001F091FE0020B1
:1027500001F08EFEF32001F08BFE002001F088FED8
:10276000E12001F091FE162001F082FE002001F030
:102770007FFE1C2001F07CFE002001F079FE22206B
:1027800001F076FE002001F073FE362001F070FEAD
:10279000002001F06DFE452001F06AFE002001F0EE
:1027A00067FE522001F064FE002001F061FE64200B
:1027B00001F05EFE002001F05BFE7A2001F058FE81
:1027C000002001F055FE8B2001F052FE002001F0A8
:1027D0004FFE992001F04CFE002001F049FEA82098
:1027E00001F046FE002001F043FEB92001F040FE5A
:1027F000002001F03DFEC42001F03AFE002001F06F
:1028000037FECA2001F034FE002001F031FED22054
:1028100001F02EFE002001F02BFED82001F028FE52
:10282000002001F025FEE02001F022FE002001F052
:102830001FFEF32001F01CFE002001F019FEE22033
:1028400001F022FE052001F013FE002001F010FE31
:102850000B2001F00DFE002001F00AFE1B2001F00C
:1028600007FE002001F004FE342001F001FE0020EC
:1028700001F0FEFD442001F0FBFD002001F0F8FD19
:102880004F2001F0F5FD002001F0F2FD612001F084
:10289000EFFD002001F0ECFD792001F0E9FD0020C2
:1028A00001F0E6FD882001F0E3FD002001F0E0FDED
:1028B000972001F0DDFD002001F0DAFDA62001F0F7
:1028C000D7FD002001F0D4FDB72001F0D1FD00209C
:1028D00001F0CEFDC22001F0CBFD002001F0C8FDCB
:1028E000C72001F0C5FD002001F0C2FDD12001F09C
:1028F000BFFD002001F0BCFDD62001F0B9FD002095
:1029000001F0B6FDDD2001F0B3FD002001F0B0FDC7
:10291000F32001F0ADFD002001F0AAFDE32001F05D
:10292000B3FD052000E00CE301F0A2FD002001F062
:102930009FFD0A2001F09CFD002001F099FD1C2064
:1029400001F096FD002001F093FD332001F090FD91
:10295000002001F08DFD442001F08AFD002001F0EF
:1029600087FD502001F084FD002001F081FD6220F0
:1029700001F07EFD002001F07BFD782001F078FD64
:10298000002001F075FD882001F072FD002001F0AB
:102990006FFD972001F06CFD002001F069FDA6207D
:1029A00001F066FD002001F063FDB72001F060FD3D
:1029B000002001F05DFDC22001F05AFD002001F071
:1029C00057FDC72001F054FD002001F051FDD1203A
:1029D00001F04EFD002001F04BFDD52001F048FD37
:1029E000002001F045FDDD2001F042FD002001F056
:1029F0003FFDF32001F03CFD002001F039FDE42013
:102A000001F042FD012001F033FD002001F030FD16
:102A1000012001F02DFD002001F02AFD022001F02F
:102A200027FD002001F024FD2A2001F021FD0020D7
:102A300001F01EFD3C2001F01BFD002001F018FDFF
:102A40004B2001F015FD002001F012FD5D2001F08A
:102A50000FFD002001F00CFD742001F009FD0020A5
:102A600001F006FD842001F003FD002001F000FDCF
:102A7000932001F0FDFC002001F0FAFCA22001F0FF
:102A8000F7FC002001F0F4FCB32001F0F1FC002081
:102A900001F0EEFCBE2001F0EBFC002001F0E8FCB0
:102AA000C42001F0E5FC002001F0E2FCCD2001F0A3
:102AB000DFFC002001F0DCFCD32001F0D9FC002079
:102AC00001F0D6FCDD2001F0D3FC002001F0D0FCA9
:102AD000F32001F0CDFC002001F0CAFCE52001F05C
:102AE000D3FC002001F0C4FC002001F0C1FC002058
:102AF00001F0BEFC002001F0BBFC022001F0B8FC9C
:102B0000002001F0B5FC292001F0B2FC002001F00A
:102B1000AFFC3C2001F0ACFC002001F0A9FC4B20F4
:102B200001F0A6FC002001F0A3FC5D2001F0A0FC58
:102B3000002001F09DFC742001F09AFC002001F0BF
:102B400097FC842001F094FC002001F091FC93207C
:102B500001F08EFC002001F08BFCA22001F088FC2B
:102B6000002001F085FCB32001F082FC002001F080
:102B70007FFCBE2001F07CFC002001F079FCC42029
:102B800001F076FC002001F073FCCD2001F070FC18
:102B9000002001F06DFCD32001F06AFC002001F060
:102BA00067FCDC2001F064FC002001F061FCF320F4
:102BB00001F05EFC002001F05BFCE62001F064FC0B
:102BC000112001F055FC002001F052FC342001F0EE
:102BD0004FFC002001F04CFC562001F049FC002085
:102BE00001F046FC762001F043FC002001F040FC9F
:102BF000772001F03DFC002001F03AFC662001F056
:102C000037FC002001F034FC882001F031FC00206A
:102C100001F02EFC992001F02BFC002001F028FC93
:102C2000BB2001F025FC002001F022FC992001F0DE
:102C30001FFC002001F01CFC662001F019FC0020A4
:102C400001F016FC552001F013FC002001F010FCEF
:102C5000552001F00DFC002001F00AFC452001F098
:102C600007FC002001F004FC432001F001FC0020DF
:102C700001F0FEFB442001F0FBFB002001F0F8FB1B
:102C8000E72001F001FC322001F0F2FB002001F00E
:102C9000EFFB552001F0ECFB002001F0E9FB762072
:102CA00001F0E6FB002001F0E3FB662001F0E0FB11
:102CB000002001F0DDFB672001F0DAFB002001F0CD
:102CC000D7FB672001F0D4FB002001F0D1FB872067
:102CD00001F0CEFB002001F0CBFB992001F0C8FBF6
:102CE000002001F0C5FBBB2001F0C2FB002001F079
:102CF000BFFB992001F0BCFB002001F0B9FB77205D
:102D000001F0B6FB002001F0B3FB442001F0B0FB62
:102D1000002001F0ADFB562001F0AAFB002001F0DD
:102D2000A7FB232001F0A4FB002001F0A1FB33202E
:102D300001F09EFB002001F09BFB452001F098FB79
:102D4000002001F095FBE82001F09EFB002001F03F
:102D50008FFB002001F08CFB992001F089FB002003
:102D600001F086FB872001F083FB002001F080FB4F
:102D7000882001F07DFB002001F07AFB772001F034
:102D800077FB002001F074FB662001F071FB00204E
:102D900001F06EFB882001F06BFB002001F068FB66
:102DA000AA2001F065FB002001F062FBBB2001F0CE
:102DB0005FFB002001F05CFB992001F059FB002033
:102DC00001F056FB662001F053FB002001F050FBA0
:102DD000552001F04DFB002001F04AFB552001F089
:102DE00047FB002001F044FB442001F041FB0020A0
:102DF00001F03EFB442001F03BFB002001F038FBDA
:102E0000552001F035FB002001F032FBE92001F0F4
:102E10003BFBAA2001F02CFB002001F029FB002045
:102E200001F026FB002001F023FB002001F02CFB29
:102E3000AA2001F01DFBCF2001F026FB002001F0AD
:102E400017FB002001F014FB002001F011FB002013
:102E500001F00EFB002001F00BFB002001F008FB4D
:102E6000002001F005FB002001F002FB002001F032
:102E7000FFFA002001F0FCFA002001F0F9FA00202E
:102E800001F0F6FA002001F0F3FA002001F0F0FA68
:102E9000002001F0EDFA002001F0EAFA002001F034
:102EA000E7FAF02001F0F0FA002001F0E1FA5020FA
:102EB00001F0DEFA002001F0DBFA002001F0D8FA80
:102EC000002001F0D5FAF32001F0DEFA002001F035
:102ED000CFFAF92001F0D8FA062001F0C9FA102043
:102EE00001F0C6FA292001F0C3FA002001F0C0FA6F
:102EF0003A2001F0C9FA552001F0BAFA112001F088
:102F0000C3FA642002F07EF8292001F0BDFA3520D2
:102F100001F0BAFA002001F0ABFA512001F0B4FA46
:102F2000FF2001F0A5FA532001F0AEFA2C2001F0A9
:102F30009FFA552001F0A8FA822001F099FA2C207E
:102F4000FEE3A0427DD14FF470435521184601F0B5
:102F5000B1FA4FF2010BAA21584601F0ABFA522107
:102F60004FF2020001F0A6FA08214FF2030001F02F
:102F7000A1FA01214FF2040001F09CFA0D214FF457
:102F8000304001F097FA0D214BF2010001F092FA66
:102F90000D214BF2020001F08DFA34214FF436403E
:102FA00001F088FA34214BF2016001F083FA3421F8
:102FB0004BF2026001F07EFA0D214FF4314001F036
:102FC00079FA0D214BF2011001F074FA0D214BF248
:102FD000021001F06FFA34214FF4374001F06AFA21
:102FE00034214BF2017001F065FA34214BF202708A
:102FF00001F060FA00214FF4324001F05BFA002149
:103000004BF2012001F056FA00214BF2022001F0B0
:1030100051FA24214FF4384001F04CFA24214BF6A8
:10302000010001F047FA24214BF6020001F042FAB8
:1030300001214FF43F4001F03DFA0F214FF433409E
:1030400000E0FCE301F036FA0F214BF2013001F011
:1030500031FA0F214BF2023001F02CFA34214FF4F7
:10306000394001F027FA34214BF6011001F022FA21
:1030700034214BF6021001F01DFA08214FF43540BF
:1030800001F018FA08214BF2015001F013FA08215F
:103090004BF2025001F00EFA03214FF4424001F0CE
:1030A00009FA24214FF43A4001F004FA24214BF6A6
:1030B000012001F0FFF924214BF6022001F0FAF97A
:1030C00000214FF43C4001F0F5F978214BF6014026
:1030D00001F0F0F900214BF6024001F0EBF900217C
:1030E0004FF43D4001F0E6F978214BF6015001F034
:1030F000E1F900214BF6025001F0DCF900214FF418
:103100003E4001F0D7F964214BF6016001F0D2F99D
:1031100000214FF4514001F0CDF933214DF201105F
:1031200001F0C8F900214DF2021001F0C3F9342179
:103130004DF2031001F0BEF900214DF2041001F030
:10314000B9F93A214DF2051001F0B4F900214DF220
:10315000061001F0AFF94A214DF2071001F0AAF96B
:1031600000214DF2081001F0A5F95C214DF2091083
:1031700001F0A0F900214DF20A1001F09BF9812124
:103180004DF20B1001F096F900214DF20C1001F0F8
:1031900091F9A6214DF20D1001F08CF900214DF2AC
:1031A0000E1001F087F9E5214DF20F1001F082F9C0
:1031B00001214DF2101001F07DF913214DF2111093
:1031C00001F078F901214DF2121001F073F9542148
:1031D0004DF2131001F06EF901214DF2141001F0BF
:1031E00069F982214DF2151001F064F901214DF2C7
:1031F000161001F05FF9CA214DF2171001F05AF9CB
:1032000002214DF2181001F055F900214DF219106C
:1032100001F050F902214DF21A1001F04BF9012191
:103220004DF21B1001F046F902214DF21C1001F085
:1032300041F934214DF21D1001F03CF902214DF20B
:103240001E1001F037F967214DF21F1001F032F91D
:1032500002214DF2201001F02DF984214DF22110B0
:1032600001F028F902214DF2221001F023F9A421E6
:103270004DF2231001F01EF902214DF2241001F04D
:1032800019F9B7214DF2251001F014F902214DF280
:10329000261001F00FF9CF214DF2271001F00AF9A5
:1032A00002214DF2281001F005F9DE214DF229101E
:1032B00001F000F902214DF22A1001F0FBF8F22191
:1032C0004DF22B1001F0F6F802214DF22C1001F016
:1032D000F1F8FE214DF22D1001F0ECF803214DF232
:1032E0002E1001F0E7F810214DF22F1001F0E2F856
:1032F00003214DF2301001F0DDF833214DF2311091
:1033000001F0D8F803214DF2321001F0D3F86D210D
:103310004DF2331001F0CEF800214FF4524001F08D
:10332000C9F833214DF2012001F0C4F800214DF21B
:10333000022001F0BFF834214DF2032001F0BAF869
:1033400000214DF2042001F0B5F83A214DF205209C
:1033500001F0B0F800214DF2062001F0ABF84A214F
:103360004DF2072001F0A6F800214DF2082001F0EF
:10337000A1F85C214DF2092001F09CF800214DF2EA
:103380000A2001F097F881214DF20B2001F092F80C
:1033900000214DF20C2001F08DF8A6214DF20D20F8
:1033A00001F088F800214DF20E2001F083F8E521AC
:1033B0004DF20F2001F07EF801214DF2102001F0B6
:1033C00079F813214DF2112001F074F801214DF22A
:1033D000122001F06FF854214DF2132001F06AF829
:1033E00001214DF2142001F065F882214DF21520E3
:1033F00001F060F801214DF2162001F05BF8CA21BE
:103400004DF2172001F056F802214DF2182001F07C
:1034100051F800214DF2192001F04CF802214DF233
:103420001A2001F047F801214DF21B2001F042F86B
:1034300002214DF21C2001F03DF834214DF21D20F7
:1034400001F038F802214DF21E2001F033F8672117
:103450004DF21F2001F02EF802214DF2202001F044
:1034600029F884214DF2212001F024F802214DF2A7
:10347000222001F01FF8A4214DF2232001F01AF8B8
:1034800002214DF2242001F015F8B7214DF225203C
:1034900001F010F802214DF2262001F00BF8CF21A7
:1034A0004DF2272001F006F802214DF2282001F00C
:1034B00001F8DE214DF2292000F0FCFF02214DF23F
:1034C0002A2000F0F7FFF2214DF22B2000F0F2FF4E
:1034D00002214DF22C2000F0EDFFFE214DF22D20B7
:1034E00000F0E8FF03214DF22E2000F0E3FF102151
:1034F0004DF22F2000F0DEFF03214DF2302000F0CE
:10350000D9FF33214DF2312000F0D4FF03214DF2D9
:10351000322000F0CFFF6D214DF2332000F0CAFFC2
:1035200000214FF4534000F0C5FF33214DF201302C
:1035300000F0C0FF00214DF2023000F0BBFF34214B
:103540004DF2033000F0B6FF00214DF2043000F0E0
:10355000B1FF3A214DF2053000F0ACFF00214DF2F1
:10356000063000F0A7FF4A214DF2073000F0A2FF1D
:1035700000214DF2083000F09DFF5C214DF2093032
:1035800000F098FF00214DF20A3000F093FF8121F6
:103590004DF20B3000F08EFF00214DF20C3000F0A8
:1035A00089FFA6214DF20D3000F084FF00214DF27D
:1035B0000E3000F07FFFE5214DF20F3000F07AFF72
:1035C00001214DF2103000F075FF13214DF2113042
:1035D00000F070FF01214DF2123000F06BFF54211A
:1035E0004DF2133000F066FF01214DF2143000F06F
:1035F00061FF82214DF2153000F05CFF01214DF298
:10360000163000F057FFCA214DF2173000F052FF7C
:1036100002214DF2183000F04DFF00214DF219301B
:1036200000F048FF02214DF21A3000F043FF012163
:103630004DF21B3000F03EFF02214DF21C3000F035
:1036400039FF34214DF21D3000F034FF02214DF2DC
:103650001E3000F02FFF67214DF21F3000F02AFFCF
:1036600002214DF2203000F025FF84214DF221305F
:1036700000F020FF02214DF2223000F01BFFA421B8
:103680004DF2233000F016FF02214DF2243000F0FD
:1036900011FFB7214DF2253000F00CFF02214DF251
:1036A000263000F007FFCF214DF2273000F002FF57
:1036B00002214DF2283000F0FDFEDE214DF22930CE
:1036C00000F0F8FE02214DF22A3000F0F3FEF22164
:1036D0004DF22B3000F0EEFE02214DF22C3000F0C6
:1036E000E9FEFE214DF22D3000F0E4FE03214DF203
:1036F0002E3000F0DFFE10214DF22F3000F0DAFE08
:1037000003214DF2303000F0D5FE33214DF231303F
:1037100000F0D0FE03214DF2323000F0CBFE6D21DF
:103720004DF2333000F0C6FE00214FF4544000F05B
:10373000C1FE33214DF2014000F0BCFE002100E04B
:1037400081E34DF2024000F0B5FE34214DF203401A
:1037500000F0B0FE00214DF2044000F0ABFE3A2133
:103760004DF2054000F0A6FE00214DF2064000F0AB
:10377000A1FE4A214DF2074000F09CFE00214DF2CF
:10378000084000F097FE5C214DF2094000F092FEE7
:1037900000214DF20A4000F08DFE81214DF20B40D8
:1037A00000F088FE00214DF20C4000F083FEA621BF
:1037B0004DF20D4000F07EFE00214DF20E4000F073
:1037C00079FEE5214DF20F4000F074FE01214DF22B
:1037D000104000F06FFE13214DF2114000F06AFE20
:1037E00001214DF2124000F065FE54214DF21340CC
:1037F00000F060FE01214DF2144000F05BFE8221DA
:103800004DF2154000F056FE01214DF2164000F039
:1038100051FECA214DF2174000F04CFE02214DF23C
:10382000184000F047FE00214DF2194000F042FE22
:1038300002214DF21A4000F03DFE012100E005E3B7
:103840004DF21B4000F036FE02214DF21C4000F00C
:1038500031FE34214DF21D4000F02CFE02214DF2CC
:103860001E4000F027FE67214DF21F4000F022FEAF
:1038700002214DF2204000F01DFE84214DF2214036
:1038800000F018FE02214DF2224000F013FEA421A8
:103890004DF2234000F00EFE02214DF2244000F0D4
:1038A00009FEB7214DF2254000F004FE02214DF241
:1038B000264000F0FFFDCF214DF2274000F0FAFD39
:1038C00002214DF2284000F0F5FDDE214DF22940A5
:1038D00000F0F0FD02214DF22A4000F0EBFDF22154
:1038E0004DF22B4000F0E6FD02214DF22C4000F09D
:1038F000E1FDFE214DF22D4000F0DCFD03214DF2F3
:103900002E4000F0D7FD10214DF22F4000F0D2FDE7
:1039100003214DF2304000F0CDFD33214DF2314016
:1039200000F0C8FD03214DF2324000F0C3FD6D21CF
:103930004DF2334000F0BEFD00214FF4554000F041
:10394000B9FD33214DF2015000F0B4FD00214DF2DC
:10395000025000F0AFFD34214DF2035000F0AAFDFB
:1039600000214DF2045000F0A5FD3A214DF2055022
:1039700000F0A0FD00214DF2065000F09BFD4A2111
:103980004DF2075000F096FD00214DF2085000F076
:1039900091FD5C214DF2095000F08CFD00214DF2AB
:1039A0000A5000F087FD81214DF20B5000F082FD9E
:1039B00000214DF20C5000F07DFDA6214DF20D507E
:1039C00000F078FD00214DF20E5000F073FDE5216E
:1039D0004DF20F5000F06EFD01214DF2105000F03D
:1039E00069FD13214DF2115000F064FD01214DF2EB
:1039F000125000F05FFD54214DF2135000F05AFDBB
:103A000001214DF2145000F055FD82214DF2155068
:103A100000F050FD01214DF2165000F04BFDCA217F
:103A20004DF2175000F046FD02214DF2185000F003
:103A300041FD00214DF2195000F03CFD02214DF2F4
:103A40001A5000F037FD01214DF21B5000F032FDFD
:103A500002214DF21C5000F02DFD34214DF21D507D
:103A600000F028FD02214DF21E5000F023FD6721D9
:103A70004DF21F5000F01EFD02214DF2205000F0CB
:103A800019FD84214DF2215000F014FD02214DF268
:103A9000225000F00FFDA4214DF2235000F00AFD4A
:103AA00002214DF2245000F005FDB7214DF22550C2
:103AB00000F000FD02214DF2265000F0FBFCCF216A
:103AC0004DF2275000F0F6FC02214DF2285000F094
:103AD000F1FCDE214DF2295000F0ECFC02214DF208
:103AE0002A5000F0E7FCF2214DF22B5000F0E2FCEE
:103AF00002214DF22C5000F0DDFCFE214DF22D5044
:103B000000F0D8FC03214DF22E5000F0D3FC102120
:103B10004DF22F5000F0CEFC03214DF2305000F05A
:103B2000C9FC33214DF2315000F0C4FC03214DF2A9
:103B3000325000F0BFFC6D214DF2335000F0BAFC62
:103B400000214FF4564000F0B5FC33214DF20160E6
:103B500000F0B0FC00214DF2026000F0ABFC34211B
:103B60004DF2036000F0A6FC00214DF2046000F06D
:103B7000A1FC3A214DF2056000F09CFC00214DF2C1
:103B8000066000F097FC4A214DF2076000F092FCBD
:103B900000214DF2086000F08DFC5C214DF20960BF
:103BA00000F088FC00214DF20A6000F083FC8121C6
:103BB0004DF20B6000F07EFC00214DF20C6000F035
:103BC00079FCA6214DF20D6000F074FC00214DF24D
:103BD0000E6000F06FFCE5214DF20F6000F06AFC12
:103BE00001214DF2106000F065FC13214DF21160CF
:103BF00000F060FC01214DF2126000F05BFC5421EA
:103C00004DF2136000F056FC01214DF2146000F0FB
:103C100051FC82214DF2156000F04CFC01214DF267
:103C2000166000F047FCCA214DF2176000F042FC1C
:103C300002214DF2186000F03DFC00214DF21960A8
:103C400000F038FC02214DF21A6000F033FC012133
:103C50004DF21B6000F02EFC02214DF21C6000F0C2
:103C600029FC34214DF21D6000F024FC02214DF2AC
:103C70001E6000F01FFC67214DF21F6000F01AFC6F
:103C800002214DF2206000F015FC84214DF22160EC
:103C900000F010FC02214DF2226000F00BFCA42188
:103CA0004DF2236000F006FC02214DF2246000F08A
:103CB00001FCB7214DF2256000F0FCFB02214DF222
:103CC000266000F0F7FBCF214DF2276000F0F2FBF9
:103CD00002214DF2286000F0EDFBDE214DF229605B
:103CE00000F0E8FB02214DF22A6000F0E3FBF22134
:103CF0004DF22B6000F0DEFB02214DF22C6000F053
:103D0000D9FBFE214DF22D6000F0D4FB03214DF2D2
:103D10002E6000F0CFFB10214DF22F6000F0CAFBA7
:103D200003214DF2306000F0C5FB33214DF23160CC
:103D300000F0C0FB03214DF2326000F0BBFB6D21AF
:103D40004DF2336000F0B6FB5521184600F0B2FB8F
:103D5000AA21584600F0AEFB52214FF2020000F0BB
:103D6000A9FB08214FF2030000F0A4FB00214FF251
:103D7000040000F09FFBCC214FF4314000F09AFB8F
:103D800000214BF2011000F095FB05214FF4364065
:103D900000F090FB70214FF4374000F08BFB702156
:103DA0004BF2017000F086FB01214FF4384000F027
:103DB00081FB03214BF6010000F07CFB03214BF655
:103DC000020000F077FB03214BF6030000F072FBCA
:103DD00002214FF43C4000F06DFB00214BF6014006
:103DE00000F068FB00214BF6024000F063FBD0219D
:103DF0004FF4494000F05EFB02214CF6011000F048
:103E000059FB50214CF6021000F054FB50214CF6A7
:103E1000031000F04FFB50214CF6041000F04AFB59
:103E200000214FF4545000F045FB55214FF46850E9
:103E300000F040FB4FF4885000F026FB782001F0A2
:103E4000EFF84FF4245000F01FFBB9E0B842FCD16A
:103E5000E22000F019FB1D2000F00AFB022000F018
:103E600007FB042000F004FB642001F0D9F8E020F7
:103E700000F00AFB012000F0FBFA0A2001F0C2F872
:103E8000E02000F001FB032000F0F2FA0C2001F02A
:103E9000B9F8012000F0F8FA0A2001F0B3F8E620A2
:103EA00000F0F2FA2F2000F0E3FAFF2000F0E0FA31
:103EB000FF2000F0DDFAB02000F0E6FA202000F04C
:103EC000D7FA002000F0D4FA032000F0D1FA40F233
:103ED0001F3000F0CDFA012000F0CAFA40F2DF10E6
:103EE00000F0C6FA002000F0C3FAB42000F0CCFACB
:103EF000042000F0BDFA40F21F4000F0B9FA0020A3
:103F000000F0B6FA2E2000F0B3FA002000F0B0FA6C
:103F1000002000F0ADFA002000F0AAFA002000F026
:103F2000A7FAB62000F0B0FA022000F0A1FA4FF490
:103F3000037000F09DFA002000F09AFA172000F0BC
:103F400097FA152000F094FA002000F091FA002072
:103F500000F08EFAF02000F097FA032000F088FAC3
:103F6000292000F091FAD02000F08EFA002000F015
:103F70007FFABE2000F088FA052000F079FAFE20D2
:103F800000F076FA012000F073FA002000F070FAD9
:103F9000002000F06DFA002000F06AFAB82000F06E
:103FA00073FA032000F064FA012000F061FABA20ED
:103FB00000F06AFA012000F05BFA642000F03AF8A1
:103FC000B8F80400504505D0B04203D0A04201D05B
:103FD000B84217D1D5F8040120F00F00C5F804014C
:103FE000D5F8040120F47060C5F80401D5F8040187
:103FF00040F00400C5F80401D5F8040140F48060E5
:10400000C5F804010120FDF73DFD0449C1F8949273
:104010000020FDF71DFD15B0BDE8F08F0080404287
:10402000034808B50088ADF80000BDF8000008BDE1
:104030000000086010B50246BE2000F025FA0520F9
:1040400000F016FA104601F010F99FED0C1B53EC2E
:10405000112B01F01DF901F0DBF880B200F008FA35
:10406000012000F005FAFF2000F002FA002000F025
:10407000FFF9BDE81040002000F0FAB966666666F8
:1040800066660440F0B56C4D00232946AA798988FC
:1040900041F66314012A01D01AB11BE0A14202D1FA
:1040A00018E0A14216D1082814D2DFE800F0040677
:1040B000080A0C0E101206200CE007200AE004206B
:1040C00008E0052006E0012004E0002002E00320D3
:1040D00000E00220A1F5134745F2103245F21056D8
:1040E000413F05D0914203D0B14201D0A14277D1E6
:1040F000082812D2DFE800F0110406080A0C0E109E
:1041000080230AE0402308E0C02306E0202304E0E7
:10411000602302E0A02300E0E023B14202D14FF48B
:10412000585000E03620914205D0B14203D0A14260
:1041300001D043F00803194600F0BCF9AA88A24256
:104140000AD098062888698802D5884202D303E0FD
:10415000884201D9298068806889B24241D100F043
:1041600093F9002000F084F96889401C80B200F0C7
:104170008BF9002000F07CF96889801C80B200F087
:1041800083F92888401EC0F30F2000F071F9688978
:10419000C01C80B200F078F92878401EC0B200F050
:1041A00067F9A88900F070F9002000F061F9A8898A
:1041B000401C80B200F068F9002000F059F9A8898D
:1041C000801C80B200F060F96888401EC0F30F20A8
:1041D00000F04EF9A889C01C80B200F055F922E029
:1041E00028E000F051F9002000F042F9002000F032
:1041F0003FF92888401EC0F30F2000F039F92878D5
:10420000401EC0B200F034F9A88900F03DF900204A
:1042100000F02EF9002000F02BF96888401EC0F352
:104220000F2000F025F9A878BDE8F040401EC0B28C
:1042300000F01EB9F0BD0000C4630220F0B53F4D90
:104240000C460246060AA9882846270A4089A1F595
:104250001343413B28D0A1F5A643103B24D0A1F540
:10426000C853633B2FD0A1F5AA43103B64D100F0A3
:104270000BF9304600F0FCF86889401C80B200F071
:1042800003F9D0B200F0F4F8A88900F0FDF8384640
:1042900000F0EEF8A889401C80B200F0F5F8E0B21A
:1042A000BDE8F04000F0E4B800F0EEF8304600F071
:1042B000DFF8D0B200F0DCF8A88900F0E5F8384665
:1042C00000F0D6F8EBE7A97929B300F0DDF8304625
:1042D00000F0CEF8D0B200F0CBF82888401EC0F332
:1042E0000F2000F0C5F82878401EC0B200F0C0F8DA
:1042F000A88900F0C9F8384600F0BAF8E0B200F03A
:10430000B7F86888401EC0F30F2000F0B1F8A87815
:10431000401EC0B2C4E72988891A491E8AB200F03B
:10432000B3F8002000F0A4F8002000F0A1F8100A73
:1043300000F09EF8D0B2D9E7F0BD0000C4630220BF
:104340002DE9F84F82461F460E468B46580700D08F
:10435000012000EBD700790810FB01F0203AC0B231
:1043600002F0FF090025009047E00C2F10D0102F1D
:1043700012D0182F14D0202F42D1224901EBC9109E
:104380004FF00008445D200610D51F48026811E078
:1043900009EB49001D4906E01D4901EB0910EFE753
:1043A0001C4909EBC90001EB8000E9E70A9828B92C
:1043B0001548426831465046FDF7D0FB6006040EB2
:1043C0001548761CB6B24088B04219D9A6EB0B004E
:1043D000B84209D10AF101001FFA80FA0E485E4680
:1043E000018851450CD906E008F1010000F0FF08F2
:1043F000B8F1080FC7D36D1CEDB200988542B4D355
:10440000BDE8F88F6E6C000824000020AE54000850
:1044100022590008125F0008C46302202DE9F84FFA
:10442000044600F0FF0810190D46DDE90A761FFA70
:1044300080FA58191FFA80F94FF0000B11E054452B
:1044400002D3E819444685B24D450FD23B46294672
:104450002046CDF800B0FFF773FF04EB570084B29D
:10446000761C3278A2F120005E28E8D9BDE8F88FEA
:1044700001B5BDF80000ADF80000BDF8000001492D
:10448000088008BD0000086001B5BDF80000ADF867
:104490000000BDF800000149088008BDFEFF07606C
:1044A000024803490089088070470000C463022065
:1044B000FEFF0760024A1080901C018070470000D8
:1044C000FEFF0760114810B5016886B041F48071A5
:1044D000016000680E4C00F4807005906020009030
:1044E0000120019002900320039069462046FCF7CA
:1044F000DFFB012220212046FCF7C8FC01224021DD
:104500002046FCF7C3FC06B010BD00003038024066
:1045100000200240FEE7000070B52549064686B03F
:104520000868002540F001000860086800F00100FC
:1045300005901F481030016841F4003101600068A7
:10454000012100F400300590042000900220CDE904
:10455000010103900720174C049069462046FCF7A0
:10456000A7FB0820009069462046FCF7A1FB134CEE
:1045700011482060C4E90165E5600C202561C4E9AB
:1045800005052046FDF75BF92068C16821F0400170
:10459000C1602068C16841F02001C1602620FCF79D
:1045A000B8FC012211462620FCF7BEFC06B070BD07
:1045B00030380240000002400044004034630220D2
:1045C00030B5074D00222B1F07E010F8014B2C607F
:1045D0001C686406FCD5521C92B28A42F5D330BDE9
:1045E00004440040704770470907090E002806DAA6
:1045F00000F00F0000F1E02080F8141D704700F17A
:10460000E02080F80014704710B504460021FF2018
:1046100000F08AFA00217C2000F086FA04217D2037
:1046200000F082FA09217C2000F07EFA2007010EBA
:104630007D2000F079FA0021BDE810407D2000F0D7
:1046400073BA000110B52030C0B240F00804002158
:10465000FF2000F069FA00217C2000F065FA0221B9
:104660007D2000F061FA03217C2000F05DFA2146F4
:104670007D2000F059FA2146BDE810407D2000F071
:1046800053BA70B520252C4630B1012807D0032835
:1046900008D004280BD108E01825342407E01C2595
:1046A0002A2404E02425162401E028250C240021D6
:1046B000FF2000F039FA00217C2000F035FA0421B7
:1046C0007D2000F031FA07217C2000F02DFA202116
:1046D0007D2000F029FA29467D2000F025FA2146A8
:1046E0007D2000F021FABDE8704006217D2000F019
:1046F0001BBA00002DE9F041414D002486B0286826
:10470000A04640F0010028602868012600F0010062
:1047100005904FF40040CDE900060327694639486B
:10472000CDE90267FCF7C4FA286840F0040028606D
:104730002868694600F0040005907003CDE9000682
:104740003148CDE90267FCF7B3FA304DC5F8B462E1
:104750000A2005F52D7500F055FCC5F800800A20EB
:1047600000F050FC2A4DC5F8BC820A2005F52F75D3
:1047700000F048FC2E6000F0CBF80121FF2000F093
:10478000D3F98021122000F0CFF9322000F03AFC5A
:104790001C2000F033F94FF6FF7606EA00251D20B5
:1047A00000F02CF940EA0501A1F5FE40A23806D040
:1047B00018A0FBF775FD012006B0BDE8F0810A20C6
:1047C00000F01CF906EA00250B2000F017F940EA7A
:1047D0000501A1F51850423804D011A0FBF760FD87
:1047E0000220E9E7114D05EB4400417815F814006B
:1047F00000F09AF9641CA4B2B12CF4D30020DBE7DA
:1048000030380240000002400008024000004142EF
:10481000000040424D49443A25640D0A0000000062
:104820004849443A25640D0A00000000EE9B000848
:1048300070B55E254126542430B102280BD00328E0
:104840000CD0042810D10CE00021FF2000F06CF9FE
:104850001021C7201AE065254F2405E05225662463
:1048600002E042253F2671240021FF2000F05CF980
:104870004021C72000F058F92946CC2000F054F917
:104880003146CD2000F050F92146CE20BDE87040E1
:1048900000F04AB970B5820701D0012070BD8A07C7
:1048A00001D0022070BD84088D080021FF2000F097
:1048B0003BF90421E02000F037F9E1B25A2000F082
:1048C00033F9E9B25B2000F02FF90421C4F3012091
:1048D00001EA951101435C2000F026F90021E02057
:1048E00000F022F9002070BD70B5074D002405EBE3
:1048F0004400417815F8140000F016F9641CA4B2C5
:104900000E2CF4D370BD00005E9D000870470000BF
:10491000104810B5016886B041F0020101600068DE
:104920000D4C00F00200059018200090012001902D
:1049300002900220039069462046FCF7B9F92068EE
:1049400020F0C0002060206840F04000206006B0E9
:1049500010BD0000303802400004024070B5322023
:1049600000F05EFB0A4C0120C4F88C02C4F89002EF
:10497000322004F5237400F053FB002565603220DB
:1049800000F04EFB2560BDE87040322000F048BBCF
:10499000008040422DE9F047164F0024386820F08F
:1049A000C000386038683860134E08254FF00108A1
:1049B000A146322000F034FBC6F890826006040E57
:1049C000D6F80C0208B1641CE4B2322000F028FBD7
:1049D000C6F890926D1E15F0FF05EAD1386820F0F8
:1049E000C0003860386840F0400038602046BDE8BC
:1049F000F0870000000402400080404210B50446E9
:104A000000F022F8602000F04DF8642000F008FB70
:104A1000204600F047F8642000F002FB00F02AF87E
:104A2000642000F0FDFA00F00FF8612000F03AF881
:104A3000642000F0F5FAFFF7ADFF0446FFF78EFFA4
:104A400000F018F8204610BD70B5094C0120C4F8DC
:104A50008C02C4F89002322004F5237400F0E0FACE
:104A600000252560322000F0DBFA656070BD000093
:104A70000080404270B50A4C0020C4F88C023220FD
:104A800004F5237400F0CCFA01256560322000F0B3
:104A9000C7FA2560BDE87040322000F0C1BA0000BE
:104AA000008040422DE9F04100241D4E0546A046FD
:104AB0000127280602D5C6F88C7201E0C6F88C8260
:104AC0006806050E322000F0ABFAC6F8907232206C
:104AD00000F0A6FAC6F89082641CE4B2082CE8D371
:104AE000104C206820F0C000206020682060322038
:104AF00000F096FAC6F89072322000F091FAD6F8DB
:104B00000C0200B10120C6F89082216821F0C0019A
:104B10002160216841F040012160BDE8F081000082
:104B2000008040420004024070B50D460646002455
:104B3000FFF78AFF6020FFF7B5FF00B10124642072
:104B400000F06EFA3046FFF7ADFF00B1012464209B
:104B500000F066FA2846FFF7A5FF00B10124FFF731
:104B600089FF204670BD704770B51E4C92B000257D
:104B7000266846F080562660246804F0805411941C
:104B8000194C266846F44046266024680DF1240C32
:104B900004F44044119401240094019402240694E6
:104BA0008CE80D006605CDE907616846FCF7B6FBA9
:104BB00000B1FEE7FCF7EAF900B1FEE70CA90F200F
:104BC00081E831004FF4A0500F904FF480501090C6
:104BD00005210CA8FCF71EFA002800D0FEE712B051
:104BE00070BD00004038024000700040FCF75AB928
:104BF0001048016841F4700101600F48016841F0FC
:104C0000010101600C4A00210832116002680B4B5F
:104C10001A400260031D0A4A1A60026822F48022C8
:104C2000026005480C30016002495806803908606E
:104C30007047000088ED00E000380240FFFFF6FEFC
:104C40001030002410B590F83910222903D03229F1
:104C500001D0022010BD8168B1F5805F11D00169DB
:104C6000002901681FD0496801F07F03816A4A1C4E
:104C700082620B70C18D491E0904090CC18518D0D0
:104C80002FE00269816A002A0268526805D0D2B218
:104C90000A80816A491C8162ECE7C2F308020A803B
:104CA000816A891CF7E74A68816A4B1C83620A7033
:104CB000E0E70168CA6822F02002CA6090F8391063
:104CC000322910D00168CA6822F48072CA60016873
:104CD0004A6922F001024A61012180F83910FCF78B
:104CE0008CFE002010BD1221F7E700002DE9F041F5
:104CF000044600680169E26821F440510A430261F8
:104D00002068C16849F20C6291432369A268E56991
:104D10001A4363692B431A430A43C26020684169FE
:104D200021F44072A16911434161E0696426322592
:104D3000B0F5004F484A494920681DD0884201D04B
:104D4000904269D1FCF79AFA00EBC00101EB001028
:104D50006168B0468900B0FBF1F1B1FBF8F6FCF7F1
:104D60008DFA00EBC00101EB001061688900B0FB17
:104D7000F1F7FCF783FA68E0884201D0904219D13C
:104D8000FCF77CFA00EBC00101EB00106168B04653
:104D90004900B0FBF1F1B1FBF8F6FCF76FFA00EB5C
:104DA000C00101EB001061684900B0FBF1F7FCF7AE
:104DB00065FA18E0FCF74CFA00EBC00101EB0010BB
:104DC0006168B0464900B0FBF1F1B1FBF8F6FCF7C1
:104DD0003FFA00EBC00101EB001061684900B0FB35
:104DE000F1F7FCF735FA00EBC00101EB0010616848
:104DF0004900B0FBF1F1B1FBF8F06FF01801484346
:104E000007EB800005EB0011B1FBF8F0216866F3B9
:104E10001F108860BDE8F081FCF71AFA00EBC001B2
:104E200001EB00106168B0468900B0FBF1F1B1FB05
:104E3000F8F6FCF70DFA00EBC00101EB0010616819
:104E40008900B0FBF1F7FCF703FA00EBC00101EBBE
:104E5000001061688900CCE7001401400010014097
:104E600090F83910122903D0322901D0022070475E
:104E70008168B1F5805F016A0BD04A1C026202684A
:104E800009785160C18C491E0904090CC1840ED0F7
:104E900017E009880268C1F308015160016900291F
:104EA000016A02D0491C0162ECE7891CFBE701683A
:104EB000CA6822F08002CA600068C16841F04001FF
:104EC000C160002070472DE9F0471D4690460F460F
:104ED0000446FBF7E1FF06465FEA08004FF00009D1
:104EE0004FF0010808D030E0681C05D095B1FBF701
:104EF000D3FF801BA8420DD82068006837EA000065
:104F0000F2D127E0681C20D025B1FBF7C5FF801B3C
:104F1000A8421AD92068C16821F08001C1602068C8
:104F2000C16821F02001C1602068C16821F480714E
:104F3000C1602068416921F00101416184F8398034
:104F400084F838900320BDE8F0872068006837EACD
:104F50000000D7D00020F6E738B518480068006890
:104F6000C043800622D44FF47A7301226946134865
:104F7000FCF7DEFC124A5088010417D441049DF866
:104F800000104FF0000304D50A290ED140F4004070
:104F900012E00D290ED0C0F30D04084D401CC83D91
:104FA00080B229555080C72800D953800348FCF7A8
:104FB000CCFB38BD40F480405080F7E7F46202201B
:104FC0001C00002007480168890606D5011D0968F4
:104FD000662902D1044A01211170016821F02001E3
:104FE00001607047004400401C000020FEE770474D
:104FF00010B504460420FCF787FB0148046010BD8F
:105000001800002070B5054600244FF47A7603E0BE
:10501000304600F005F8641CAC42F9D370BD0000C6
:1050200070B54FF0E02500216C69094AAB69126840
:105030005043AA699A42FCD002D2A3EB020302E0D9
:10504000A4EB02063344194413468142F1D370BDE8
:105050001800002003490A685206FCD5C2B24A6013
:1050600070470000001001401CB50024FBF722FF30
:105070000823022219214FF4B470FFF775FDB42004
:10508000FFF7B6FF4FF4E13000F0B0F84C48FFF7FF
:1050900043FAFFF717FAFCF7B3FCFCF7F7FD494DAD
:1050A0001027494E4FF496781DE048A0CDE90070D6
:1050B0003288102332213C20FFF7B0F94046FFF739
:1050C000A1FF002000903288462332213C20FCF7CB
:1050D000B9FDC820FFF796FFD5F8980200286AD0DE
:1050E0000020C5F89802FFF705FB0028DDD101205C
:1050F000C5F89802FFF7F8FB0020FFF799FB0220A4
:10510000FFF79FFA0220FFF77FFA0220FFF7B9FAB4
:10511000F0214FF4A070FFF7BDFBFBF787FA4FF4C7
:105120008060C30000904FF4164200212B48FBF72B
:105130001DFAFBF78DFADFF8A8A0DFF8A89040F27F
:105140003F1B4FF4206800210846FFF777F8FFF770
:10515000A7F90026214806EB8601002500EBC117C0
:1051600037F81500AAF80000020A09F8042009EB34
:105170000401A41C4870A4B25D4506D1701C81B224
:105180000020FFF75BF8FFF78BF9444509D1164C77
:10519000207890B141461348FFF712FA00202070A2
:1051A00004466D1CADB2B5F5A07FD9D3761CB6B25E
:1051B000F02ECFD3C7E7012093E7FFF713FAE7E715
:1051C0000018150000004442C46302204F563236D6
:1051D0003430204572726F72210000002C000020D4
:1051E000000008602C5802201C0000200749064AD5
:1051F000C1E9002000208860C860086188610C2037
:1052000048610846FCF71BBB00100140F462022015
:105210004FEA1153A3F58063D3F11E03A8BFD3F166
:10522000200C08DB4FF0004242EAC12252EA505201
:1052300032FA03F0704709420BD4102BC4BF002090
:10524000704703F5787CBCF1FF3F05D04FF0FF308D
:1052500070474FF00000704770B500F0C3F800BF12
:105260004992248000207047F0E7B0FA80F310FAEA
:1052700003F10AD0C3F11D0303F580634FEA4150E7
:105280004FEA035202EBD12170474FF00000704704
:10529000DFF848C170B51CEA111E1EBF1CEA1315C9
:1052A0009EEA0C0F95EA0C0F00F06F8081EA030470
:1052B00023EA4C134EEAD47E21EA4C1141F48011CA
:1052C00043F48013AE44A1FB024CA0FB0365AEF196
:1052D0007F7E361955EB0C05A1FB034C4CF1000306
:1052E000A0FB021C16EB0C06654153F100030942BA
:1052F00018BF46F0010613F4007F0BD14FEA0331CB
:105300004FEA0530340341EA155140EA16506FF078
:1053100003020AE04FEAC3214FEAC520F40241EA42
:10532000555140EA56506FF0020202EB2E4201EB5B
:10533000025585EACE710AD05FEA440C18BF24F00A
:10534000004450F1000041F1000120EAD47040F225
:10535000FE7C624500D270BDA84214BF4FF080446D
:105360004FF04044002E08BF0024BEF1806FA8BF5C
:10537000A1F1C041BDE8704080F282804FF0000092
:1053800001F1C04101F0004170479EEA0C0F0CEAA8
:10539000131518BF95EA0C0F06D04FF0000081EAF4
:1053A000030E0EF0004170BD00F01CF88900013EB4
:1053B00000F007B800F009B84FEA430C5FEA5C5C04
:1053C00008D081EA030100F05BB84FEA410C5FEAC4
:1053D0005C5CF6D14FF00000014970470000FF0708
:1053E0000000F87F0EF1020E2EF0030E5EF8046B43
:1053F000364205D4012A43EB030515F5001F12D8E8
:10540000012841EB010C1CF5001F0CD80ED14FEA0E
:10541000D17C15F5001F0CEB4C0C0CF1020C08BFF5
:105420004CEBD37C04E04FF0080C01E04FEAD37C56
:105430000CEB4C0526FA05F606F00706B6F1040C4F
:1054400006D20EEB860CBDE870404CF0010C6047B4
:10545000DFE80CF0090B02024FF000414FF00000B2
:10546000A1F5002170BD19461046012851EB010439
:1054700018BFD4F5001484BF002001F0004170BDB6
:105480000808A0F500114FEA310170474FF0407055
:10549000E1EE100A7047000000000102030401025F
:1054A000030406070809000610160006101600007F
:1054B00000000000000000000000000000003F406D
:1054C00000000000000000003000400030004000FC
:1054D000000009000BC03D000BC03D00090018C0D2
:1054E00024407FE0224031800000180024C01B00CF
:1054F0000D803240018003801C4027401C80074003
:1055000000401000600000000000000000000000EB
:10551000000000001F80204040200000402020406C
:105520001F8000000000090006001F80060009001F
:105530000000040004003F8004000400000000108C
:1055400000600000000000000000040004000400EF
:105550000400040000000000004000000000000003
:105560000000002001C006003800400000001F803D
:105570002040204020401F800000000010403FC01D
:1055800000400000000018C0214022402440184084
:10559000000010802040244024401B8000000200B6
:1055A0000D0011003FC0014000003C802440244019
:1055B0002440238000001F80244024403440038086
:1055C00000003000200027C03800200000001B80B1
:1055D0002440244024401B8000001C0022C02240A4
:1055E00022401F8000000000000008400000000072
:1055F0000000000000000460000000000000000047
:1056000004000A0011002080404009000900090040
:1056100009000900000000004040208011000A003D
:1056200004001800200023402400180000001F8000
:105630002040274029401F400000004007C039009B
:105640000F0001C0004020403FC0244024401B8088
:1056500000001F802040204020403080000020407B
:105660003FC0204020401F80000020403FC0244019
:105670002E4030C0000020403FC024402E003000AB
:1056800000000F00108020402240338002002040A4
:105690003FC0040004003FC02040204020403FC0E5
:1056A0002040204000000060202020203FC020003B
:1056B000200020403FC024400B0030C0204020404C
:1056C0003FC020400040004000C03FC03C0003C03D
:1056D0003C003FC0000020403FC00C4023003FC0C2
:1056E00020001F802040204020401F8000002040DC
:1056F0003FC024402400180000001F8021402140AA
:1057000020E01FA0000020403FC02440260019C018
:10571000004018C024402440224031800000300066
:1057200020403FC020403000000020003F8000406B
:1057300000403F80200020003E0001C007003800EC
:105740002000380007C03C0007C03800000020409F
:1057500039C0060039C0204000002000384007C092
:10576000384020000000304021C02640384020C092
:105770000000000000007FE040204020000000000A
:1057800070000C000380004000000000402040201A
:105790007FE000000000000020004000200000002A
:1057A0000000001000100010001000100010000099
:1057B00000004000000000000000000002800540E2
:1057C000054003C0004020003FC004400440038067
:1057D0000000000003800440044006400000000078
:1057E0000380044024403FC0004000000380054087
:1057F000054003400000000004401FC02440244036
:105800002000000002E00550055006500420204012
:105810003FC00440040003C000400000044027C013
:1058200000400000000000100010041027E00000FD
:10583000000020403FC00140070004C00440204059
:1058400020403FC000400040000007C0040007C0E7
:10585000040003C00000044007C00440040003C06B
:105860000040000003800440044003800000041056
:1058700007F004500440038000000000038004404F
:10588000045007F00010044007C002400400040068
:105890000000000006400540054004C00000000074
:1058A00004001F8004400040000004000780004006
:1058B000044007C000400400070004C00180060047
:1058C0000400060001C0070001C0060000000440FB
:1058D00006C0010006C0044000000410071004E0E8
:1058E0000180060004000000044005C0064004409A
:1058F00000000000000004007BE0402000000000E9
:1059000000000000FFF000000000000040207BE0ED
:105910000400000000004000800040002000200043
:105920004000000000000000000000000000000037
:1059300000000000000000001FCC000C0000000070
:105940000000000008003000600008003000600027
:105950000000022003FC1E20022003FC1E20022067
:10596000000000000E1811043FFF10840C780000A6
:1059700000000F0010840F3800C0077818840078EA
:10598000000000780F8410C411240E9800E40084F5
:10599000000808006800700000000000000000001F
:1059A000000000000000000007E01818200440027A
:1059B0000000000040022004181807E0000000006A
:1059C00000000240024001800FF0018002400240CE
:1059D00000000080008000800FF8008000800080C0
:1059E00000000001000D000E00000000000000009B
:1059F00000000000008000800080008000800080A7
:105A000000800000000C000C0000000000000000FE
:105A10000000000000060018006001800600180069
:105A20002000000007F0080810041004080807F020
:105A300000000000080408041FFC0004000400002B
:105A4000000000000E0C10141024104411840E0CE1
:105A5000000000000C1810041104110412880C70CE
:105A60000000000000E00320042408241FFC0024A0
:105A7000000000001F981084110411041088107099
:105A80000000000007F00888110411041888007055
:105A9000000000001C00100010FC13001C0010008F
:105AA000000000000E3811441084108411440E3898
:105AB000000000000700088C10441044088807F01C
:105AC0000000000000000000030C030C00000000B8
:105AD00000000000000000010106000000000000BE
