:020000040800F2
:10000000300700202D020008A34700086F0E0008EB
:10001000A147000843070008196600080000000017
:10002000000000000000000000000000435600082F
:10003000150A000800000000F14E000831570008C2
:10004000470200084702000847020008470200086C
:100050004702000847020008350A00084702000866
:100060006D0A0008A50A0008DD0A0008470200081A
:10007000470200084702000847020008470200083C
:10008000470200084702000847020008470200082C
:10009000470200084702000847020008590B000801
:1000A000470200084702000847020008470200080C
:1000B0004702000847020008ED5B000847020008FD
:1000C00047020008470200084702000847020008EC
:1000D000470200087D640008470200084702000844
:1000E00047020008470200084702000847020008CC
:1000F00047020008470200084702000847020008BC
:1001000047020008470200084702000847020008AB
:10011000470200084702000847020008470200089B
:10012000470200084702000847020008470200088B
:1001300000F002F800F06BF80AA090E8000C82448E
:100140008344AAF10107DA4501D100F060F8AFF26B
:10015000090EBAE80F0013F0010F18BFFB1A43F0A5
:100160000103184784920000A49200000A444FF053
:10017000000C10F8013B13F0070408BF10F8014B06
:100180001D1108BF10F8015B641E05D010F8016B4B
:10019000641E01F8016BF9D113F0080F1EBF10F8AF
:1001A000014BAD1C0C1B09D16D1E58BF01F801CBD2
:1001B000FAD505E014F8016B01F8016B6D1EF9D555
:1001C0009142D6D37047000000230024002500266A
:1001D000103A28BF78C1FBD8520728BF30C148BFAA
:1001E0000B607047642900F09D80752900F09A80AB
:1001F000782900F0D380632900F04082732900F051
:100200004582002070471FB51FBD10B510BD00F01E
:1002100057FA1146FFF7F7FF06F066FA00F075FA95
:1002200003B4FFF7F2FF03BC06F0FEF9094880476C
:1002300009480047FEE7FEE7FEE7FEE7FEE7FEE7C8
:10024000FEE7FEE7FEE7FEE704480549034A054BE3
:100250007047000075570008310100083003002086
:100260003007002030030020704700000FB404491D
:1002700010B503AA029800F00DFA10BC5DF814FB4B
:100280003400002070B5044685690068C10601D5B8
:10029000302600E02026C00707D070BDD4E9012138
:1002A00030469047206A401C20626D1EF6D570BD16
:1002B00070B5044685690078C00707D170BDD4E9E0
:1002C000012120209047206A401C20626D1EF6D537
:1002D00070BD70B50C460546012A05D02878800609
:1002E00000D5EA69002302E0012305E05B1C93428C
:1002F00002D2E05C0028F9D1A869E618C01AA8610A
:10030000286A184428622846FFF7BCFF04E0D5E9B4
:10031000012114F8010B9047B442F8D32846FFF7A7
:10032000C7FF70BD2DE9F04106460024106875290D
:10033000314616A510D0AFF30080002802DA404203
:1003400013A507E031688A0701D512A502E0490725
:1003500004D511A5012401E0AFF3008000210A2299
:1003600006F1240709E0B0FBF2FCB0FBF2F302FB5C
:100370001C00303078541846491C0028F3D123461D
:100380002A463046BDE8F04100F0FCB8000000000D
:100390002D0000002B0000002000000070B5044676
:1003A0000D4621461068AFF300802188090502D56B
:1003B0000F4A7A4402E00E4A7A440E32002104F1D8
:1003C000240305E000F00F060009965D5E54491C09
:1003D0000028F7D120780023000704D5702D02D023
:1003E00009B1022311322046BDE8704000F0CAB8BE
:1003F000F08E00002DE9F05F894604464FF0000AB8
:10040000DFF874B1FB44C0F820A02046E1688847BB
:10041000002874D0252806D0D4E901219047206A0D
:10042000401C2062F1E700265F462046E1688847CD
:100430002028054607DB312D05D2781910F8200C4D
:1004400008B10643F1E7B00701D526F00406C4F869
:100450001CA00027C4F818A02A2D09D0284606F0B1
:10046000DCF838B304EB8708303DC8F8185019E0C1
:1004700059F8041B204604EB87029161E168884724
:10048000012F054618D1E069002820DA26F0200661
:100490001DE0D8F8180000EB800005EB4000303874
:1004A000C8F818002046E1688847054606F0B5F808
:1004B0000028EED1012F0AD02E2D08D12046E16868
:1004C00088477F1C0546022F46F02006C4DBA06942
:1004D000002803DA404246F00106A061F00701D08F
:1004E00026F010066C2D0BD0682D09D04C2D39D07C
:1004F0006A2D35D0742D35D07A2D33D016E038E002
:10050000E1682F4620468847B842054609D16C2F3E
:1005100026D04FF48060E1680643204688470546B0
:1005200004E06C2F1AD04FF4807006430DB3A5F190
:100530004100192802D8203546F400664A4629466B
:10054000204626604E46FFF74DFE80B101280BD0B5
:10055000F61D26F0070000F1080956E74020E4E701
:100560008020D8E70020D6E706F104094DE72846A9
:1005700052E7206ABDE8F09FC68E000070477047C2
:10058000704770472DE9F0470D469946924604465C
:1005900000F124080168880604D5E06921F0100103
:1005A000216000E00120A84201DD471B00E0002798
:1005B000A1697A1902EB0900081AA0612078C00627
:1005C00002D42046FFF75EFE002608E0D4E90121B0
:1005D0001AF806009047206A401C761C20624E459F
:1005E000F4DB2078C0060AD52046FFF74BFE06E074
:1005F000D4E9012130209047206A401C2062381E37
:10060000A7F10107F4DC07E0D4E9012118F805009F
:100610009047206A401C2062281EA5F10105F3DCEA
:100620002046FFF745FE2078000602D50220BDE8EF
:10063000F0870120FBE7000001694A1C026108788D
:10064000704700B58FB0CDE9013100210591054912
:100650007944CDE9031011466846FFF7CBFE0FB091
:1006600000BD0000E5FFFFFF10B5436913B1AFF314
:10067000008001E0FFF72DFE012010BD127800F18F
:1006800024010A7000224A700122EDE711684FF040
:10069000FF32E9E7074B70B50D467B44FFF7D1FF0A
:1006A0000446284600F008F810B14FF0FF3070BD46
:1006B000204670BD33600000007B00F08000704772
:1006C000754600F029F8AE4605006946534620F00D
:1006D0000700854618B020B5FFF7B6FDBDE82040FD
:1006E0004FF000064FF000074FF000084FF0000BEE
:1006F00021F00701AC46ACE8C009ACE8C009ACE8A1
:10070000C009ACE8C0098D4670470446AFF30080CD
:100710002046FFF785FD000000487047CC0200200E
:1007200030B50546002400F041F9032135F81100E9
:10073000491CC9B204440C29F8D30920B4FBF0F0D9
:1007400030BDFEE72DE9F04FDFF8BCA18BB09AF881
:10075000000000286FD0042003F02AFD03F0A0FF62
:100760006A480024C0F8B841694D102129602E1F45
:10077000316029604FF0010BC0F8B8B13160DFF88B
:100780009891DFF890E1204699F800C02960DEF8E2
:1007900008203160D2B24FF6FF7303EA02222960CB
:1007A000DEF808303160DBB213435C4A1380BCF1E1
:1007B000000F61D049F2A067C21BB84245D016DCD9
:1007C00049F25607A0EB0702B84231D007DC12F518
:1007D000C86224D00A2A25D0142A4DD125E00A2A3D
:1007E0002AD0142A2BD0B2F5C86F45D12AE040F2A6
:1007F0004A68A2F24A67424533D007DC0A2A27D06A
:1008000017F1140227D00A2A36D127E0A7F5C067CE
:100810002C3F29D00A2F2AD0142F2DD12AE0ADF851
:10082000083029E0ADF80A3026E0ADF80C3023E0BE
:10083000ADF80E3020E063E0ADF810301CE0ADF80C
:10084000123019E0ADF8143016E0ADF8163013E0B0
:10085000ADF8183010E0ADF81A300DE0ADF81C30EE
:100860000AE0ADF81E3007E0ADF8203004E0ADF846
:10087000223001E0ADF82430401CB0F5963F85D31E
:100880008C23B4226421184600F0EEFC99F8000095
:100890004E4610B302A8FFF743FF80B200F0FEFA05
:1008A0001F4FF17827F81100491CC8B2F0702828B2
:1008B00013D900251BA037F81510FFF7D7FC6D1CC6
:1008C000292DF7D318A0FFF7D1FC154803F022FF1C
:1008D000B070F470347086F801B08AF800400020DF
:1008E00003F066FC307800280AD018200FA1CDE96B
:1008F0000001034678224FF487713C2003F0A5FEE7
:100900000BB0BDE8F08F000026000020000024425C
:10091000140C014000100140180000200008006C79
:1009200094010020256409000D0A000044697363E6
:1009300065726E2E2E2E000010B5074C41F2185134
:10094000204605F0D5FB0021204605F0D3FB0349E6
:100950000120087010BD00000004004000000020CD
:1009600010B5074C0021204605F0C2FB41F218519A
:10097000204605F0BFFB03490120087010BD0000B0
:10098000000400400000002010B5064C0021204665
:1009900005F0AEFB0021204605F0ACFB024900202B
:1009A000087010BD000400400000002070B5002257
:1009B0000021C2F10E060BE000EB410430F81130CB
:1009C0006588AB4202D920F811506380491CC9B236
:1009D0008E42F1DC521CD2B20E2AE9D370BDF0B5C2
:1009E00000234F1E11E05E1CF2B20BE030F81350F2
:1009F00030F81240A54203D920F8134020F81250D5
:100A0000521CD2B28A42F1D3F3B2BB42EBDB30F8D4
:100A10001100F0BD7047000010B540F226210448D7
:100A200005F06AFBBDE810404FF4FA7000F011BA0F
:100A30000034014010B50A2005F016FE01210948D6
:100A400000F0FCF9012806D10749D1F8A00138B11E
:100A50000020C1F8A001BDE81040012000F09EB8C0
:100A60000120F6E7000801400080214210B50A206D
:100A700005F0FAFD0421094800F0E0F930B9084911
:100A8000D1F8940138B10020C1F89401BDE81040BC
:100A9000042000F083B80120F6E7000000180140B0
:100AA0000080214210B50A2005F0DEFD082109482A
:100AB00000F0C4F930B90849D1F8940138B10020E8
:100AC000C1F89401BDE81040082000F067B801208B
:100AD000F6E70000001801400000234210B50A208C
:100AE00005F0C2FD1021094800F0A8F930B9084905
:100AF000D1F8940138B10020C1F89401BDE810404C
:100B0000102000F04BB80120F6E70000001801406B
:100B1000008021423EB50821002000F001F94FF489
:100B20008070002400908DF8044008208DF80500A6
:100B300001258DF80650684600F046F817208DF81C
:100B400008008DF809408DF80A408DF80B5002A876
:100B500003F0ACFF3EBD000010B54FF4807420469A
:100B600000F022F801280DD1094A0020C2F89801AE
:100B70000121C2F898110748C0F88C110648017885
:100B8000491C01702046BDE8104000F007B8000085
:100B90000080224200802142260000200149086096
:100BA0007047000014040140064A01460020126804
:100BB000044B0A4014331B680B4202D0002A00D0B9
:100BC000012070470004014030B51A4A837901685A
:100BD00053B313688B431360111D0B680468A34360
:100BE0000B60017911440B68046823430B60114BBF
:100BF000083319680468A14319601C1D2168056841
:100C0000A94321604179102905D011440A68006880
:100C100002430A6030BD19680268114319602168F7
:100C200000680143216030BD0079104402688A43A6
:100C3000026030BD000401408000A0F1C0400029E6
:100C4000016802D041F0010101E0024A1140016057
:100C500070470000FEFF0F0010B5D0E901121143EC
:100C6000D0E903231A4311434269114382691143B6
:100C7000C2691143026A1143426A1143826A1143F5
:100C8000C26A1143026B114302689200A2F1C04292
:100C900011608168082907D101688900A1F1C0416C
:100CA0000A6842F040020A60416BD1E9002342EA3F
:100CB00003128B688C891B0243EA04431A430B8A94
:100CC00042EA03520B7D896942EA03620A430168E2
:100CD0008900A1F1C0414A60C16AB1F5804F08D0D6
:100CE00000686FF070418000A0F1C040C0F80411AE
:100CF00010BD816BD1E9002342EA03128B680C8A94
:100D00001B0243EA04531A430B7D896942EA0362DA
:100D100000680A438000A0F1C040C0F8042110BD63
:100D200010B58A0721F003040649120F21440F234E
:100D30008C6893409C438C608B68904003438B602D
:100D400010BD000000000140F0B5CC78002204F096
:100D50000F03E40601D58C7823430C784FF00F0C79
:100D600014F0FF0F4FF0010E1BD005680E880EFA2D
:100D700002F42640A64210D196000CFA06F725EAA6
:100D8000070703FA06F5CE783D43282E02D0482EF9
:100D900002D002E0446100E00461521C082AE5D35D
:100DA00005600A88FF2A1CD94468002202F108065F
:100DB0000EFA06F50E882E40AE420ED196000CFAC1
:100DC00006F7BC4303FA06F7CE783C43282E00D141
:100DD0004561CE78482E00D10561521C082AE5D322
:100DE0004460F0BDF0B5144C002801DAE36900E07E
:100DF0006368450D2E0185B2C0F30157B540C0F3BD
:100E00000342032F05D0C6020AD503269640B343FA
:100E100007E023F07062636823F07063636002E0B0
:100E2000AB4343F0706201B12A43002801DAE2616A
:100E3000F0BD6260F0BD00000000014002460020ED
:100E400092680A4200D001207047416170470161F9
:100E5000704770B504464FF4FA7504E0FFF772FC72
:100E6000284605F01BFC641EA4B2F7D270BDFEE755
:100E700008B50121082004F0B7F84FF40070ADF870
:100E8000000048208DF8030003208DF80200694619
:100E90000148FFF759FF08BD000C01402DE9FF4153
:100EA000002403A904F075F96846039904F0F2F8E8
:100EB000DDE90057029E3A463346294612A0FFF765
:100EC000D5F9A6F12E004A2815D2142F11D9A5F173
:100ED0002300BA2800D304240F2800D20524A5F14A
:100EE0003200282800D20624823D322D08D2072461
:100EF00006E0032404E0782E01D3012400E002245C
:100F000004B02046BDE8F081483A20256409533AF0
:100F1000202564094C3A2025640D0A001CB51949A6
:100F20004FF47840F0220880182017A1CDE9000185
:100F300003463221002003F088FB102418A0CDE9DD
:100F400000402346C8225A211E2003F07EFB4FF4A6
:100F5000FA7005F089FB47F67C50009040F22313AD
:100F6000DD2240F20D11132000F09AF910A0CDE916
:100F70000040102308224FF49671802003F065FB97
:100F80001CBD00001E000020476F6F647320536F6C
:100F90007274696E672053797374656D0000000088
:100FA00053595354454D20496E69742E2E2E00001E
:100FB0002500000008B50121442004F015F81C208C
:100FC000ADF8000048208DF8030069460648FFF799
:100FD000BBFE0120ADF8000028208DF80300694613
:100FE0000248FFF7B1FE08BD0018014000080140AB
:100FF0002DE9F043174F0646002438887D88454385
:10100000B888A0F5D041043902D1B879012807D0B9
:101010000021084603F0A0F903F042FB0E4815E05A
:101020000020B8714FF02A09A7F80A904FF02B085A
:10103000A7F80C80014603F08FF90120B871A7F8DA
:101040000A80A7F80C90E7E70680641CAC42FBD34B
:10105000BDE8F083F60100200008006C2DE9F04F98
:101060004A492A232B24898845F2105A4FF4305BD1
:101070004FF4285E4FF448754FF0F00C49F24139B7
:101080004FF4A07745F210364FF4F07280B13F482C
:101090004FF00108494580F806800780A0F802C09B
:1010A00001D0B1423ED12C2505814381848157E096
:1010B00036484FF00008494580F80680A0F800C087
:1010C000478006D0A1F5D04CBCF1040C01D0B14250
:1010D0000CD12C2505814381A1F5D0438481043BAB
:1010E00001D0B14244D10780428041E0514507D14F
:1010F000A0F808B0A0F80AE04FF42C5181810EE06E
:10110000A1F5C856633E06D02221018120214181EC
:10111000212181812CE02C21018144818381028065
:10112000458025E0A1F5D04CBCF1040C09D0514517
:101130000BD1A0F808B0A0F80AE04FF42C5383813B
:1011400021E02C250581448109E0A1F5C85CBCF1B2
:10115000630C12D022230381212343812023838126
:10116000A1F5D043043B01D0B14201D102804780B8
:10117000BDE8F04F002003F01BB84FF02C0CA0F896
:1011800008C04381848105804280E9E7F6010020A0
:101190002DE9F84F0025161A5B1A6A1E2C46002E00
:1011A00002DD4FF0010702E003D14FF00007BB461C
:1011B00002E09346C6F10006002B02DD4FF001026B
:1011C00002E003D14FF00002924602E09246C3F1E2
:1011D00000039E4201DD324600E01A4602F1010C96
:1011E0000027CDF800C035E0DFF870E0DFF870C010
:1011F000BEF80A80ACF800800CF102094FEA102812
:10120000A9F8008000F0FF08A9F80080BEF80C8063
:10121000ACF800804FEA1128A9F8008001F0FF081F
:10122000A9F80080BEF80880ACF80080DFF834C070
:10123000BCF80080A9F8008035441C44954201DDCB
:10124000AD1A5844944201DDA41A51447F1CDDF8C4
:1012500000C0BFB26745C7DDBDE8F88FF6010020CA
:10126000FE07006C1E000020F0B51C4615460E4619
:1012700007460B46FFF78CFF3A4623463146104699
:10128000FFF786FF23462A4619463846FFF780FFB8
:101290002A4623463146BDE8F0401046FFF778BFA6
:1012A0002DE9F8431F4D1F468046AB88089EA3F5E5
:1012B000D040043802D1A879012807D0A2EB080059
:1012C000401C85B20C46DFF8609028E02B88084669
:1012D000991A0024AC713A462A24A3EB08036C81C6
:1012E0002B27491E5B1EAF8189B29BB20096FFF788
:1012F000D7FF0120A8716F81AC81BDE8F88321463A
:10130000404603F029F803F0CBF90020494602E0FB
:101310000E80401C80B2A842FAD3641CA4B2BC4226
:10132000EDD9EAE7F60100200008006C2DE9F04F46
:1013300001210E029FB0304603F03EFE01214FF422
:10134000B47003F051FE4FF00108ADF83C80102559
:101350008DF83F5003208DF83E0047460FA9FE4808
:10136000FFF7F2FC4CF23370ADF83C0018248DF816
:101370003F4003208DF83E000FA9F848FFF7E4FC3A
:101380004FF68070ADF83C008DF83F4003208DF89B
:101390003E000FA9F248FFF7D7FC41F20100ADF87B
:1013A0003C008DF83F4003208DF83E000FA9ED482A
:1013B000FFF7CAFC00200F21CDE918011A901B90FD
:1013C0001C901D9003211090CDE91101CDE9160765
:1013D000149006211590CDE90010CDE90205139077
:1013E00004902902CDE90801069005900790890034
:1013F000CDE90A010C9017A80D9010A80E90684630
:10140000FFF72AFC01210620FFF716FC322005F029
:101410002BF9002002F0A2FED34AD44C49F2413904
:10142000A51C908046F6040A45F2103B4FF6FF7764
:1014300045F21051FF2804D3B84202D0B0F5134F43
:101440006CD1D320208002F07FFE908002F07CFEE1
:10145000908002F079FE07EA0020908002F074FE8E
:10146000938818439080484558D0BF20208002F0D0
:101470006BFE908002F068FE908002F065FE908026
:1014800002F062FE07EA0020908002F05DFE938881
:1014900018439080504541D0D420208002F054FE63
:1014A000908002F051FE908002F04EFE07EA00208C
:1014B000908002F049FE93881843908058452DD0C3
:1014C0004FF45A40208002F03FFE90804FF45B4082
:1014D000208002F039FE07EA002090804FF45C4043
:1014E000208002F031FE938818439080B0F5004FC1
:1014F0007ED0884212D0A120208002F025FE90806C
:1015000002F022FE07EA0020908002F01DFE938880
:101510001843A0F5AE439080613B6AD080B2484545
:1015200068D1CF20208000202880C1202880302052
:101530002880ED202080642028800320288012202D
:10154000288081202880E820208085202880102085
:1015500028807A202880CB202080392028802C20C9
:101560002880002028803420288002202880F7202E
:10157000208020202880EA202080002028802880C9
:10158000C02020801B202880C120208001202880AE
:10159000C5202080302028802880C7202080B720C8
:1015A000288036202080482028803A20208055201E
:1015B0002880B1202080002028801A202880B62092
:1015C00020800A202880A2202880F220208000206D
:1015D00028802620208001202880E02020800F20E5
:1015E00028802A202880282028800820288002E0BF
:1015F0004CE046E04CE00E20288008202880542053
:101600002880A9202880432028800A2028800F20B5
:10161000288000202880288028802880E1202080C1
:101620000020288015202880172028800720288067
:1016300011202880062028802B20288056202880F2
:101640003C20288005202880102028800F2028801A
:101650003F20288028800F2028802B2020800020F9
:1016600028802880012028803F2028802A20208070
:101670000020288028802880EF20288011202080CA
:1016800081E041F66310908002F0CDBC9180FDE3D3
:1016900050457ED111202080142004F0E5FFD02099
:1016A000208007202880422028801D202880D120EB
:1016B0002080002028801A20288009202880D2201D
:1016C00020800120288022202880C0202080102017
:1016D00028803B202880002028800220288011209C
:1016E0002880C520208003202880C820208000205A
:1016F000288025202880212028800520288000207F
:1017000028800A20288065202880252028807720AE
:101710002880502028800F20288000202880F82052
:10172000208001202880FE202080002028800220A8
:1017300028802020208036202080082028803A2001
:101740002080552028802B20208000202880288081
:10175000012028803F200CE0000C014000140140D3
:101760000018014000200140F6010020FE07006C37
:101770000FE028802A202080002028802880012057
:101780002880DF202880782004F06EFF292001F0D7
:101790002FBC58457ED1ED20208001202880FE20DE
:1017A0002880EE202080DE20288021202880F12043
:1017B000208001202880DF20208010202880C42065
:1017C00020808F202880C620208000202880E220D2
:1017D000288028802880BF202080AA202880B02050
:1017E00020800D202880002028800D2028800020C7
:1017F000288011202880002028801920288000209F
:10180000288021202880002028802D20288000206A
:1018100028803D202880002028805D20288000200E
:1018200028805D20288000202880B1202080802012
:101830002880002028808B20288000202880962067
:10184000288000202880B220208000202880288046
:101850000220288000202880032028800020288063
:10186000B32020800020288028802880288028809D
:101870002880288028802880288028802880288028
:101880002880288028802880288028802880288018
:10189000288000E0FEE328802880B42020808B2070
:1018A0002880002028809620288000202880A120E1
:1018B000288000202880B520208002202880002059
:1018C00028800320288000202880042028800020F1
:1018D0002880B6202080002028802880B720208003
:1018E0000020288028803F202880002028805E203B
:1018F00028800020288064202880002028808C20D8
:10190000288000202880AC20288000202880DC202F
:1019100028800020288070202880002028809020A7
:10192000288000202880EB20288000202880DC20D0
:10193000288000202880B82020800020288028804F
:10194000288028802880288028802880BA2020802D
:10195000242028800020288028802880C120208002
:1019600020202880002028805420288000202880E3
:10197000FF20288000202880C22020800A20288084
:10198000002028800420288000202880C320208078
:101990003C202880002028803A20288000202880B1
:1019A00039202880002028803720288000202880A7
:1019B0003C20288000202880362028800020288095
:1019C00032202880002028802F2028800020288096
:1019D0002C20288000202880292028800020288092
:1019E000262028800020288024202880002028808D
:1019F0002420288000202880232028800020288080
:101A00003C20288000202880362028800020288044
:101A100032202880002028802F2028800020288045
:101A20002C20288000202880292028800020288041
:101A3000262028800020288024202880002028803C
:101A4000242028800020288023202880002028802F
:101A5000C420208062202880002028800520288043
:101A6000002028808420288000202880F0202880E2
:101A7000002028801820288000202880A42028808A
:101A800000202880182028800020288050202880CE
:101A9000002028800C202880002028801720288003
:101AA000002028809520288000202880F32028808E
:101AB00000202880E620288000202880C520208063
:101AC0003220288000202880442028800020288080
:101AD000652028800020288076202880002028800B
:101AE0008820288000202880C62020802020288070
:101AF00000202880172028800020288001202880AE
:101B000000202880C720208000202880288028806E
:101B10002880C820208000202880288028802880D5
:101B2000C9202080002028802880288028802880C4
:101B30002880288028802880288028802880288065
:101B4000288028802880E0202080162028800020FF
:101B500028801C2028800020288021202880002028
:101B600028803620288000202880462028800020D9
:101B7000288052202880002028806420288000208F
:101B800028807A202880002028808B202880002030
:101B900028809920288000202880A82028800020E4
:101BA0002880B920288000202880C4202880002098
:101BB0002880CA20288000202880D2202880002069
:101BC0002880D920288000202880E020288000203C
:101BD0002880F320288000202880E1202080162003
:101BE0002880002028801C20288000202880222097
:101BF000288000202880362028800020288045204A
:101C000028800020288052202880002028806420FE
:101C10002880002028807A202880002028808B209F
:101C20002880002028809920288000202880A82053
:101C3000288000202880B920288000202880C42007
:101C4000288000202880CA20288000202880D220D8
:101C5000288000202880D820288000202880E020AC
:101C6000288000202880F320288000202880E2207F
:101C7000208005202880002028800B20288000203C
:101C800028801B20288000202880342028800020E5
:101C9000288044202880002028804F202880002091
:101CA000288061202880002028807920288000203A
:101CB00028808820288000202880972028800020E5
:101CC0002880A620288000202880B7202880002097
:101CD0002880C220288000202880C720288000205B
:101CE0002880D120288000202880D620288000202D
:101CF0002880DD20288000202880F32028800020F4
:101D00002880E320208005202880002028800A20C9
:101D10002880002028801C20288000202880332054
:101D200028800020288044202880002028805020FF
:101D300028800020288062202880002028807820A9
:101D40002880002028808820288000202880972054
:101D5000288000202880A620288000202880B72006
:101D6000288000202880C220288000202880C720CA
:101D7000288000202880D120288000202880D5209D
:101D8000288000202880DD20288000202880F32063
:101D9000288000202880E420208001202880002046
:101DA0002880012028800020288002202880002010
:101DB00028802A202880002028803C20288000209D
:101DC00028804B202880002028805D20288000204B
:101DD00028807420288000202880842028800020EB
:101DE00028809320288000202880A220288000209E
:101DF0002880B320288000202880BE202880002052
:101E00002880C420288000202880CD202880002021
:101E10002880D320288000202880DD2028800020F2
:101E20002880F320288000202880E52020800020C2
:101E30002880288028802880022028800020288070
:101E400029202880002028803C202880002028800D
:101E50004B202880002028805D20288000202880BA
:101E6000742028800020288084202880002028805A
:101E70009320288000202880A2202880002028800D
:101E8000B320288000202880BE2000E033E1288095
:101E900000202880C420288000202880CD20288091
:101EA00000202880D320288000202880DC20288063
:101EB00000202880F320288000202880E620208031
:101EC00011202880002028803420288000202880AD
:101ED0005620288000202880762028800020288016
:101EE00077202880002028806620288000202880F5
:101EF00088202880002028809920288000202880A1
:101F0000BB2028800020288099202880002028805D
:101F100066202880002028805520288000202880E6
:101F200055202880002028804520288000202880F7
:101F300043202880002028804420288000202880FA
:101F4000E72020803220288000202880552028800B
:101F50000020288076202880002028806620288085
:101F60000020288067202880002028806720288083
:101F70000020288087202880002028809920288021
:101F800000202880BB2028800020288099202880DD
:101F90000020288077202880002028804420288066
:101FA0000020288056202880002028802320288098
:101FB0000020288033202880002028804520288089
:101FC00000202880E8202080002028802880992078
:101FD00028800020288087202880002028808820D2
:101FE00028800020288077202880002028806620F4
:101FF0002880002028808820288000202880AA208F
:10200000288000202880BB2028800020288099205C
:1020100028800020288066202880002028805520E5
:1020200028800020288055202880002028804420F7
:1020300028800020288044202880002028805520E7
:10204000288000202880E9202080AA2028800020E5
:102050002880288028802080AA202880CF202080E7
:1020600000202880288028802880288028802880B8
:102070002880288028802880288028802880288020
:1020800028802880F0202080002028805020288070
:10209000002000E02DE0288028802880F320208088
:1020A00000202880F9202080062028801020288009
:1020B00029202880002028803A2020805520288050
:1020C00011202080642004F0CFFA292020803520C0
:1020D00020800020288051202080FF20288053204D
:1020E00020802C20288055202080822028802C20B1
:1020F000FEE388427ED14FF470435521184602F02A
:10210000D9FA4FF20105AA21284602F0D3FA6E1C33
:102110005221304602F0CEFAAF1C0821384602F0B8
:10212000C9FA4FF204090121484602F0C3FA0D2111
:102130004FF4304002F0BEFA0D214BF2010002F0E4
:10214000B9FA0D214BF2020002F0B4FA4FF4364A0C
:102150003421504602F0AEFA34214BF2016002F015
:10216000A9FA34214BF2026002F0A4FA4FF4314B89
:102170000D21584602F09EFA0D214BF2011002F09B
:1021800099FA0D214BF2021002F094FA34214FF427
:10219000374002F08FFA34214BF2017002F08AFAD4
:1021A00034214BF2027002F085FA00214FF43240E4
:1021B00002F080FA00214BF2012002F07BFA0021AC
:1021C0004BF2022002F076FA24214FF4384002F05C
:1021D00071FA24214BF6010002F06CFA24214BF62F
:1021E000020002F067FA01214FF43F4002F062FA68
:1021F0000F2100E0FEE34FF4334002F05BFA0F21C1
:102200004BF2013002F056FA0F214BF2023002F08D
:1022100051FA34214FF4394002F04CFA34214BF694
:10222000011002F047FA34214BF6021002F042FA94
:1022300008214FF4354002F03DFA08214BF20150DD
:1022400002F038FA08214BF2025002F033FA03216F
:102250004FF4424002F02EFA24214FF43A4002F0AB
:1022600029FA24214BF6012002F024FA24214BF60E
:10227000022002F01FFA00214FF43C4002F01AFA4B
:1022800078214BF6014002F015FA00214BF602408E
:1022900002F010FA00214FF43D4002F00BFA7821D1
:1022A0004BF6015002F006FA00214BF6025002F004
:1022B00001FA00214FF43E4002F0FCF964214BF694
:1022C000016002F0F7F900214FF4514002F0F2F9F9
:1022D00033214DF2011002F0EDF900214DF2021010
:1022E00002F0E8F934214DF2031002F0E3F9002185
:1022F0004DF2041002F0DEF93A214DF2051002F021
:10230000D9F900214DF2061002F0D4F94A214DF21C
:10231000071002F0CFF900214DF2081002F0CAF9BF
:102320005C214DF2091002F0C5F900214DF20A10AE
:1023300002F0C0F981214DF20B1002F0BBF900212F
:102340004DF20C1002F0B6F9A6214DF20D1002F07C
:10235000B1F900214DF20E1002F0ACF9E5214DF279
:102360000F1002F0A7F901214DF2101002F0A2F9AE
:1023700013214DF2111002F09DF901214DF21210BE
:1023800002F098F954214DF2131002F093F9012153
:102390004DF2141002F08EF982214DF2151002F068
:1023A00089F901214DF2161002F084F9CA214DF28B
:1023B000171002F07FF902214DF2181002F07AF99D
:1023C00000214DF2191002F075F902214DF21A1098
:1023D00002F070F901214DF21B1002F06BF902219D
:1023E0004DF21C1002F066F934214DF21D1002F07E
:1023F00061F902214DF21E1002F05CF967214DF2E5
:102400001F1002F057F902214DF2201002F052F98C
:1024100084214DF2211002F04DF902214DF22210DB
:1024200002F048F9A4214DF2231002F043F90221F1
:102430004DF2241002F03EF9B7214DF2251002F0C2
:1024400039F902214DF2261002F034F9CF214DF274
:10245000271002F02FF902214DF2281002F02AF97C
:10246000DE214DF2291002F025F902214DF22A1049
:1024700002F020F9F2214DF22B1002F01BF902219B
:102480004DF22C1002F016F9FE214DF22D1002F043
:1024900011F903214DF22E1002F00CF910214DF22A
:1024A0002F1002F007F903214DF2301002F002F96B
:1024B00033214DF2311002F0FDF803214DF23210BC
:1024C00002F0F8F86D214DF2331002F0F3F800211C
:1024D0004FF4524002F0EEF833214DF2012002F0A9
:1024E000E9F800214DF2022002F0E4F834214DF227
:1024F000032002F0DFF800214DF2042002F0DAF8A8
:102500003A214DF2052002F0D5F800214DF20620C7
:1025100002F0D0F84A214DF2072002F0CBF800215A
:102520004DF2082002F0C6F85C214DF2092002F0BD
:10253000C1F800214DF20A2002F0BCF881214DF2D1
:102540000B2002F0B7F800214DF20C2002F0B2F897
:10255000A6214DF20D2002F0ADF800214DF20E2023
:1025600002F0A8F8E5214DF20F2002F0A3F80121B6
:102570004DF2102002F09EF813214DF2112002F0CE
:1025800099F801214DF2122002F094F854214DF2F5
:10259000132002F08FF801214DF2142002F08AF886
:1025A00082214DF2152002F085F801214DF216200E
:1025B00002F080F8CA214DF2172002F07BF80221C8
:1025C0004DF2182002F076F800214DF2192002F0A9
:1025D00071F802214DF21A2002F06CF801214DF23F
:1025E0001B2002F067F802214DF21C2002F062F875
:1025F00034214DF21D2002F05DF802214DF21E2023
:1026000002F058F867214DF21F2002F053F8022122
:102610004DF2202002F04EF884214DF2212002F0EC
:1026200049F802214DF2222002F044F8A4214DF293
:10263000232002F03FF802214DF2242002F03AF864
:10264000B7214DF2252002F035F802214DF2262067
:1026500002F030F8CF214DF2272002F02BF80221B2
:102660004DF2282002F026F8DE214DF2292002F05A
:1026700021F802214DF22A2002F01CF8F2214DF23D
:102680002B2002F017F802214DF22C2002F012F854
:10269000FE214DF22D2002F00DF803214DF22E20E7
:1026A00002F008F810214DF22F2002F003F8032168
:1026B0004DF2302001F0FEFF33214DF2312001F0C8
:1026C000F9FF03214DF2322001F0F4FF6D214DF2AC
:1026D000332001F0EFFF00214FF4534001F0EAFFF7
:1026E00033214DF2013001F0E5FF00214DF20230BF
:1026F00001F0E0FF34214DF2033001F0DBFF002157
:102700004DF2043001F0D6FF3A214DF2053001F0D0
:10271000D1FF00214DF2063001F0CCFF4A214DF2ED
:10272000073001F0C7FF00214DF2083001F0C2FF71
:102730005C214DF2093001F0BDFF00214DF20A305D
:1027400001F0B8FF81214DF20B3001F0B3FF002101
:102750004DF20C3001F0AEFFA6214DF20D3001F02C
:10276000A9FF00214DF20E3001F0A4FFE5214DF24A
:102770000F3001F09FFF01214DF2103001F09AFF60
:1027800013214DF2113001F095FF01214DF212306D
:1027900001F090FF54214DF2133001F08BFF012125
:1027A0004DF2143001F086FF82214DF2153001F018
:1027B00081FF01214DF2163001F07CFFCA214DF25C
:1027C000173001F077FF02214DF2183001F072FF4F
:1027D00000214DF2193001F06DFF02214DF21A3047
:1027E00001F068FF01214DF21B3001F063FF02216F
:1027F0004DF21C3001F05EFF34214DF21D3001F02E
:1028000059FF02214DF21E3001F054FF67214DF2B5
:102810001F3001F04FFF02214DF2203001F04AFF3E
:1028200084214DF2213001F045FF02214DF222308A
:1028300001F040FFA4214DF2233001F03BFF0221C3
:102840004DF2243001F036FFB7214DF2253001F072
:1028500031FF02214DF2263001F02CFFCF214DF245
:10286000273001F027FF02214DF2283001F022FF2E
:10287000DE214DF2293001F01DFF02214DF22A30F8
:1028800001F018FFF2214DF22B3001F013FF02216D
:102890004DF22C3001F00EFFFE214DF22D3001F0F3
:1028A00009FF03214DF22E3001F004FF10214DF2FB
:1028B0002F3001F0FFFE03214DF2303001F0FAFE1F
:1028C00033214DF2313001F0F5FE03214DF232306B
:1028D00001F0F0FE6D214DF2333001F0EBFE0021EE
:1028E0004FF4544001F0E6FE33214DF2014000E088
:1028F0007EE301F0DFFE00214DF2024001F0DAFE3E
:1029000034214DF2034001F0D5FE00214DF2044088
:1029100001F0D0FE3A214DF2054001F0CBFE00213E
:102920004DF2064001F0C6FE4A214DF2074001F08B
:10293000C1FE00214DF2084001F0BCFE5C214DF2C9
:10294000094001F0B7FE00214DF20A4001F0B2FE4D
:1029500081214DF20B4001F0ADFE00214DF20C4003
:1029600001F0A8FEA6214DF20D4001F0A3FE0021CA
:102970004DF20E4001F09EFEE5214DF20F4001F0B8
:1029800099FE01214DF2104001F094FE13214DF209
:10299000114001F08FFE01214DF2124001F08AFE3C
:1029A00054214DF2134001F085FE01214DF21440F7
:1029B00001F080FE82214DF2154001F07BFE0121E5
:1029C0004DF2164001F076FECA214DF2174001F09B
:1029D00071FE02214DF2184001F06CFE00214DF213
:1029E000194001F067FE02214DF21A4001F062FE2B
:1029F000012100E0FEE24DF21B4001F05BFE0221EE
:102A00004DF21C4001F056FE34214DF21D4001F004
:102A100051FE02214DF21E4001F04CFE67214DF2A5
:102A20001F4001F047FE02214DF2204001F042FE1E
:102A300084214DF2214001F03DFE02214DF2224061
:102A400001F038FEA4214DF2234001F033FE0221B3
:102A50004DF2244001F02EFEB7214DF2254001F049
:102A600029FE02214DF2264001F024FECF214DF235
:102A7000274001F01FFE02214DF2284001F01AFE0E
:102A8000DE214DF2294001F015FE02214DF22A40CF
:102A900001F010FEF2214DF22B4001F00BFE02215D
:102AA0004DF22C4001F006FEFE214DF22D4001F0CA
:102AB00001FE03214DF22E4001F0FCFD10214DF2EC
:102AC0002F4001F0F7FD03214DF2304001F0F2FDFF
:102AD00033214DF2314001F0EDFD03214DF2324042
:102AE00001F0E8FD6D214DF2334001F0E3FD0021DE
:102AF0004FF4554001F0DEFD33214DF2015001F05D
:102B0000D9FD00214DF2025001F0D4FD34214DF2E7
:102B1000035001F0CFFD00214DF2045001F0CAFD39
:102B20003A214DF2055001F0C5FD00214DF206504D
:102B300001F0C0FD4A214DF2075001F0BBFD00211C
:102B40004DF2085001F0B6FD5C214DF2095001F044
:102B5000B1FD00214DF20A5001F0ACFD81214DF292
:102B60000B5001F0A7FD00214DF20C5001F0A2FD29
:102B7000A6214DF20D5001F09DFD00214DF20E50A9
:102B800001F098FDE5214DF20F5001F093FD012178
:102B90004DF2105001F08EFD13214DF2115001F055
:102BA00089FD01214DF2125001F084FD54214DF2B6
:102BB000135001F07FFD01214DF2145001F07AFD18
:102BC00082214DF2155001F075FD01214DF2165094
:102BD00001F070FDCA214DF2175001F06BFD02218A
:102BE0004DF2185001F066FD00214DF2195001F030
:102BF00061FD02214DF21A5001F05CFD01214DF200
:102C00001B5001F057FD02214DF21C5001F052FD06
:102C100034214DF21D5001F04DFD02214DF21E50A8
:102C200001F048FD67214DF21F5001F043FD0221E4
:102C30004DF2205001F03EFD84214DF2215001F073
:102C400039FD02214DF2225001F034FDA4214DF254
:102C5000235001F02FFD02214DF2245001F02AFDF6
:102C6000B7214DF2255001F025FD02214DF22650ED
:102C700001F020FDCF214DF2275001F01BFD022174
:102C80004DF2285001F016FDDE214DF2295001F0E1
:102C900011FD02214DF22A5001F00CFDF2214DF2FE
:102CA0002B5001F007FD02214DF22C5001F002FDE6
:102CB000FE214DF22D5001F0FDFC03214DF22E506E
:102CC00001F0F8FC10214DF22F5001F0F3FC03212C
:102CD0004DF2305001F0EEFC33214DF2315001F055
:102CE000E9FC03214DF2325001F0E4FC6D214DF27C
:102CF000335001F0DFFC00214FF4564001F0DAFCC4
:102D000033214DF2016001F0D5FC00214DF202604B
:102D100001F0D0FC34214DF2036001F0CBFC002126
:102D20004DF2046001F0C6FC3A214DF2056001F05D
:102D3000C1FC00214DF2066001F0BCFC4A214DF2BD
:102D4000076001F0B7FC00214DF2086001F0B2FC11
:102D50005C214DF2096001F0ADFC00214DF20A60EA
:102D600001F0A8FC81214DF20B6001F0A3FC0021D1
:102D70004DF20C6001F09EFCA6214DF20D6001F0B9
:102D800099FC00214DF20E6001F094FCE5214DF21A
:102D90000F6001F08FFC01214DF2106001F08AFC00
:102DA00013214DF2116001F085FC01214DF21260FA
:102DB00001F080FC54214DF2136001F07BFC0121F5
:102DC0004DF2146001F076FC82214DF2156001F0A5
:102DD00071FC01214DF2166001F06CFCCA214DF22C
:102DE000176001F067FC02214DF2186001F062FCEF
:102DF00000214DF2196001F05DFC02214DF21A60D4
:102E000001F058FC01214DF21B6001F053FC02213E
:102E10004DF21C6001F04EFC34214DF21D6001F0BA
:102E200049FC02214DF21E6001F044FC67214DF285
:102E30001F6001F03FFC02214DF2206001F03AFCDE
:102E400084214DF2216001F035FC02214DF2226017
:102E500001F030FCA4214DF2236001F02BFC022193
:102E60004DF2246001F026FCB7214DF2256001F0FF
:102E700021FC02214DF2266001F01CFCCF214DF215
:102E8000276001F017FC02214DF2286001F012FCCE
:102E9000DE214DF2296001F00DFC02214DF22A6085
:102EA00001F008FCF2214DF22B6001F003FC02213D
:102EB0004DF22C6001F0FEFBFE214DF22D6001F081
:102EC000F9FB03214DF22E6001F0F4FB10214DF2CD
:102ED0002F6001F0EFFB03214DF2306001F0EAFBBF
:102EE00033214DF2316001F0E5FB03214DF23260F8
:102EF00001F0E0FB6D214DF2336001F0DBFB552169
:102F0000184601F0D7FBAA21284601F0D3FB522135
:102F1000304601F0CFFB0821384601F0CBFB002101
:102F2000484601F0C7FBCC21584601F0C3FB002105
:102F30004BF2011001F0BEFB0521504601F0BAFB37
:102F400070214FF4374001F0B5FB70214BF2017056
:102F500001F0B0FB01214FF4384001F0ABFB03213D
:102F60004BF6010001F0A6FB03214BF6020001F035
:102F7000A1FB03214BF6030001F09CFB02214FF45F
:102F80003C4001F097FB00214BF6014001F092FB21
:102F900000214BF6024001F08DFBD0214FF4494057
:102FA00001F088FB02214CF6011001F083FB502157
:102FB0004CF6021001F07EFB50214CF6031001F09C
:102FC00079FB50214CF6041001F074FB00214FF402
:102FD000545001F06FFB55214FF4685001F06AFB2B
:102FE0004FF488502080782003F058FB4FF4245091
:102FF0002080FDE3A0F513414FF4E06A40F2022B7C
:103000004FF42749253924D040F20777C91E7CD0D8
:103010004FF48879083179D0113978D0A0F5A841DA
:10302000083975D0A0F5A8514FF44079053970D012
:10303000B1F520416ED0B1F580516CD0A0F58A4138
:10304000313969D0091F68D0A0F5C851633965D0FE
:10305000CFE747F6F001E52001F02CFB31460120D7
:1030600001F028FB5146022001F024FB41F230011F
:10307000032001F01FFB0021042001F01BFB594637
:10308000082001F017FB0021092001F013FB0021AB
:103090000A2001F00FFB00210C2001F00BFB0021A6
:1030A0000D2001F007FB00210F2001F003FB0021A0
:1030B000102001F0FFFA0721112001F0FBFA002196
:1030C000122001F0F7FA0021132001F0F3FA002199
:1030D000072001F0EFFA41F29061102001F0EAFAC6
:1030E00040F22721112001F0E5FA9D21122001F084
:1030F000E1FA4FF4C851132001F0DCFA2521292010
:1031000001F0D8FA0D212B2009E079E035E1DAE170
:10311000B0E24CE3FEE3FEE3FEE3FEE3FEE301F098
:10312000C9FA0721302001F0C5FA40F203313120FD
:1031300001F0C0FA0321322001F0BCFA40F206216E
:10314000352001F0B7FA0821362001F0B3FA40F239
:103150000641372001F0AEFA4FF44171382001F0FA
:10316000A9FA0721392001F0A5FA40F202613C20BA
:1031700001F0A0FA08213D2001F09CFA0021502026
:1031800001F098FAEF21512001F094FA0021522029
:1031900001F090FA40F23F11532001F08BFA4946BA
:1031A000602001F087FA0121612001F083FA0021FB
:1031B0006A2001F07FFA0021802001F07BFA0021D3
:1031C000812001F077FA0021822001F073FA0021BA
:1031D000832001F06FFA0021842001F06BFA0021B6
:1031E000852001F067FA1021902001F063FA4FF476
:1031F000C061922001F05EFA40F233110720FDE336
:1032000041F28F01EC2001F055FA41F23421EF2018
:1032100001F050FA3146012001F04CFA51460220EB
:1032200001F048FA41F23001032001F043FA002195
:10323000042001F03FFA5946082001F03BFA002132
:10324000092001F037FA00210A2001F033FA0121A8
:103250000C2001F02FFA00210D2001F02BFA0021A3
:103260000F2001F027FA0021102001F023FA072196
:10327000112001F01FFA0021122001F01BFA002199
:10328000132001F017FA0121072001F013FA322070
:1032900003F0EAF941F29041102001F00BFA40F2FC
:1032A0002721112001F006FA322003F0DDF98A21EE
:1032B000122001F0FFF9322003F0D6F94FF4D0517B
:1032C000132001F0F7F90621292001F0F3F90D216F
:1032D0002B2001F0EFF9322003F0C6F90021202065
:1032E00001F0E8F90021212001F0E4F9322003F097
:1032F000BBF90021302001F0DDF940F204613120FA
:1033000001F0D8F940F20531322001F0D3F9002163
:10331000352001F0CFF940F60941362001F0CAF915
:103320004FF40171372001F0C5F940F20131382026
:1033300001F0C0F93946392001F0BCF900213C20E8
:1033400001F0B8F940F60A213D2001F0B3F932202E
:1033500003F08AF90021502001F0ACF9EF2151204F
:1033600001F0A8F90021522001F0A4F940F23F1128
:10337000532001F09FF9494651E10021084601F030
:1033800099F93146012001F095F95146022001F0EA
:1033900091F941F23001032001F08CF90021042061
:1033A00001F088F95946082001F084F9002109202C
:1033B00001F080F900210A2001F07CF901210C20A4
:1033C00001F078F900210D2001F074F900210F209F
:1033D00001F070F9322003F047F940F201110720A3
:1033E00001F068F9322003F03FF94FF486511020C4
:1033F00001F060F90721112001F05CF94B464946C4
:10340000122001F057F94FF43061132001F052F906
:103410000021292001F04EF944F210012B2001F087
:1034200049F90021502001F045F9EF21512001F028
:1034300041F90021522001F03DF940F23F115320A3
:1034400001F038F94FF41C51602001F033F90121EB
:10345000612001F02FF900216A2001F02BF90021F1
:10346000802001F027F90021812001F023F90021BB
:10347000822001F01FF90021832001F01BF90021B7
:10348000842001F017F90021852001F013F91021A3
:10349000902001F00FF90021922001F00BF9012199
:1034A000932001F007F91946952001F003F9002156
:1034B000972001F0FFF80021982001F0FBF840F27E
:1034C0007311072085E341F21401E72001F0F2F8BF
:1034D0003146012001F0EEF84FF40071022001F0B6
:1034E000E9F841F23801032001F0E4F859460820D8
:1034F00001F0E0F80021092001F0DCF800210A20A9
:1035000001F0D8F800210C2001F0D4F800210D20A2
:1035100001F0D0F800210F2001F0CCF8002110209C
:1035200001F0C8F80721112001F0C4F80021122091
:1035300001F0C0F80021132001F0BCF8C82003F00E
:1035400093F841F29061102001F0B4F840F2272185
:10355000112001F0AFF8322003F086F80C21122080
:1035600001F0A8F8322003F07FF84FF40061132037
:1035700001F0A0F81121292001F09CF80B212B204B
:1035800001F098F8322003F06FF80021202001F0BC
:1035900091F840F23F131946212001F08BF80021E9
:1035A000302001F087F84FF483742146312001F078
:1035B00081F80021322001F07DF84FF401713520AF
:1035C00001F078F841F20A61362001F073F83946CB
:1035D000372001F06FF82146382001F06BF83946AA
:1035E000392001F067F840F202413C2001F062F816
:1035F00040F60F413D2001F05DF80021502001F020
:1036000059F8EF21512001F055F80021522001F026
:1036100051F81946532001F04DF84FF41C51602029
:1036200001F048F80121612001F044F800216A20EE
:1036300001F040F80021802001F03CF800218120B9
:1036400001F038F80021822001F034F800218320B5
:1036500001F030F80021842001F02CF800218520B1
:1036600001F028F81021902001F024F84FF4C061F7
:103670009220FDE33146012001F01CF85146022062
:1036800001F018F841F23001032001F013F8002195
:10369000042001F00FF840F20721082001F00AF899
:1036A0000021092001F006F800210A2001F002F8AB
:1036B00000210C2000F0FEFF00210D2000F0FAFF99
:1036C00000210F2000F0F6FF142002F0CDFF41F2A0
:1036D000B061102000F0EEFF0121112000F0EAFFA0
:1036E0000121172000F0E6FF4FF49C71122000F03A
:1036F000E1FF4FF40061132000F0DCFF09212920D5
:1037000000F0D8FF09212A2000F0D4FF0021A420D6
:1037100000F0D0FF0021502000F0CCFFEF2151201D
:1037200000F0C8FF0021522000F0C4FF40F23F111A
:10373000532000F0BFFF4FF41C51602000F0BAFF8F
:103740000121612000F0B6FF00216A2000F0B2FFE5
:103750000021802000F0AEFF0021812000F0AAFFB0
:103760000021822000F0A6FF0021832000F0A2FFAC
:103770000021842000F09EFF0021852000F09AFFA8
:103780001321902000F096FF0021922000F092FF7C
:103790000321932000F08EFF4946952000F08AFF18
:1037A00040F27311072000F085FF322010E1002164
:1037B000072000F07FFF322002F056FF4FF48E7199
:1037C000122000F077FF0121A42000F073FF0F21E9
:1037D000082000F06FFF08210A2000F06BFF08218D
:1037E0000D2000F067FF3946302000F063FF00E055
:1037F00070E30721312000F05DFF40F203613220C9
:1038000000F058FF54465146332000F053FF59460C
:10381000342000F04FFF0221352000F04BFF41F62D
:103820000F71362000F046FF3946372000F042FF86
:103830000021382000F03EFF0021392000F03AFF3F
:1038400039463A2000F036FF00213B2000F032FFDD
:1038500007213C2000F02EFF00213D2000F02AFF30
:10386000322002F001FF0121072000F023FF012197
:10387000172000F01FFF322002F0F6FE4FF4BD517A
:10388000102000F017FF40F21721112000F012FF66
:103890004FF48F71122000F00DFF4FF47061132070
:1038A00000F008FF00212A2000F004FF0A2129204F
:1038B00000F000FF4FF49F71122000F0FBFE00218A
:1038C000502000F0F7FEEF21512000F0F3FE002120
:1038D000522000F0EFFE40F23F11532000F0EAFECC
:1038E0004FF41C51602000F0E5FE0121612000F042
:1038F000E1FE00216A2000F0DDFE0021802000F0C2
:10390000D9FE0021812000F0D5FE0021822000F0A8
:10391000D1FE04E05FE05DE126E2DCE283E300212A
:10392000832000F0C7FE0021842000F0C3FE0021A8
:10393000852000F0BFFE1321902000F0BBFE494619
:10394000922000F0B7FE0521932000F0B3FE002185
:10395000952000F0AFFE0021972000F0ABFE002183
:10396000982000F0A7FE3146012000F0A3FE21467A
:10397000022000F09FFE41F23801032000F09AFE81
:103980000021042000F096FE00210C2000F092FEA1
:1039900000210F2000F08EFE0021202000F08AFE82
:1039A0000021212000F086FE2121072000F082FE68
:1039B000142002F059FE6121072000F07BFE142044
:1039C00002F052FE40F27311072000F073FE142043
:1039D00002F04AFEA1E30021084600F06BFE002140
:1039E000084600F067FE0021084600F063FE002153
:1039F000084600F05FFE0121A42000E0E5E000F0B1
:103A000059FE142002F030FE4FF41C542146602071
:103A100000F050FE5D465946082000F04BFE4FF482
:103A20000571302000F046FE43F21571312000F0A0
:103A300041FE40F20461322000F03CFE40F6166187
:103A4000332000F037FE42F21121342000F032FE24
:103A50004FF4A851352000F02DFE48F207513620D2
:103A600000F028FE41F20741372000F023FE41F22A
:103A70000341382000F01EFE2021392000F01AFEFC
:103A80001A21902000F016FE0021102000F012FEF6
:103A90000721112000F00EFE0021122000F00AFE86
:103AA0000021132000F006FE142002F0DDFD4FF48B
:103AB000E661102000F0FEFD40F23711112000F009
:103AC000F9FD142002F0D0FD4FF4DC71122000F05B
:103AD000F1FD142002F0C8FD4FF47061132000F0D6
:103AE000E9FD80212A2000F0E5FD4821292000F091
:103AF000E1FD142002F0B8FD3146012000F0DAFDAE
:103B00005146022000F0D6FD41F23801032000F0BA
:103B1000D1FD2946082000F0CDFD00210A2000F04B
:103B2000C9FD00210C2000F0C5FD00210D2000F092
:103B3000C1FD30210E2000F0BDFD0021502000F01D
:103B4000B9FDEF21512000F0B5FD0021522000F019
:103B5000B1FD40F23F11532000F0ACFD2146602042
:103B600000F0A8FD0121612000F0A4FD00216A20E1
:103B700000F0A0FD1121902000F09CFD4FF4C061E9
:103B8000922000F097FD40F20241932000F092FD58
:103B90000221942000F08EFD142002F065FD012129
:103BA000072000F087FD142002F05EFD6121072050
:103BB00000F080FD40F27311072000F07BFD002132
:103BC000202000F077FD0021212000F073FD22214C
:103BD00000207DE10021084600F06CFD0021084630
:103BE00000F068FD142002F03FFD0021084600F0BF
:103BF00061FD0021084600F05DFD0021084600F04F
:103C000059FD0021084600F055FD0121A42000F0D7
:103C100051FD142002F028FD4FF41C51602000F0EB
:103C200049FD40F60601082000F044FD40F2037310
:103C30001946302000F03EFD0121312000F03AFD10
:103C40000421322000F036FD4FF48171332000F062
:103C500031FD4C464946342000F02CFD40F2031162
:103C6000352000F027FD1F21362000F023FD1946E6
:103C7000372000F01FFD0121382000F01BFD04213A
:103C8000392000F017FD1521902000F013FD4FF4AE
:103C90008261102000F00EFD40F24721112000F05B
:103CA00009FD4FF4DE71122000F004FD4FF4606155
:103CB000132000F0FFFC782002F0D6FC31460120F2
:103CC00000F0F8FC4FF40071022000F0F3FC41F228
:103CD0003001032000F0EEFC08210A2000F0EAFC8D
:103CE00000210C2000F0E6FC20210E2000F0E2FC78
:103CF00000210F2000F0DEFC0021202000F0DAFC83
:103D00000021212000F0D6FC3D212A2000F0D2FC29
:103D1000142002F0A9FC2D21292000F0CBFC002169
:103D2000502000F0C7FC4DF2EF01512000F0C2FC22
:103D30000021522000F0BEFC40F23F11532000F061
:103D4000B9FC0021612000F0B5FC00216A2000F0E0
:103D5000B1FC2146922000F0ADFC0521932000F03B
:103D6000A9FC3146FFF7ADBB0121002000F0A2FC09
:103D70000A2002F079FC41F22861102000F09AFC40
:103D80000E21122000F096FC40F63921132000F09D
:103D900091FC0A2002F068FC4021112000F08AFC0E
:103DA0005021152000F086FC0A2002F05DFC1E2147
:103DB000122000F07FFC0A2002F056FC4FF4B151B3
:103DC000102000F077FC42F63921132000F072FC3D
:103DD0000A2002F049FC3146012000F06BFC494604
:103DE000022000F067FC41F23801032000F062FC81
:103DF0005946082000F05EFC08210A2000F05AFC19
:103E00000021302000F056FC40F20241312000F049
:103E100051FC4FF48371322000F04CFC40F203510E
:103E2000332000F047FC4FF48271342000F042FC54
:103E300040F20131352000F03DFC3946362000F0DB
:103E400039FC40F20531372000F034FC4FF40271A8
:103E5000382000F02FFC40F60B71392000F02AFCCE
:103E60000221412000F026FC4FF41C51602000E0AC
:103E7000D4E000F01FFC0121612000F01BFC4FF496
:103E80000471902000F016FC4FF48571922000F030
:103E900011FC0421932000F00DFC3146A02000F01D
:103EA00009FC0121072000F005FC2121072000F07A
:103EB00001FC2321072000F0FDFB3321072000F047
:103EC000F9FB40F23311072000F0F4FB0021A020A1
:103ED00000F0F0FB21E13021152000F0EBFB102178
:103EE0009A2000F0E7FB2021112000F0E3FB43F2D1
:103EF0002841102000F0DEFB0221122000F0DAFB46
:103F000041F23801132000F0D5FB282002F0ACFB71
:103F10001221084600F0CEFB282002F0A5FB43F258
:103F20002041102000F0C6FB43F23801132000F0BE
:103F3000C1FB462002F098FB0021302000F0BAFBC4
:103F400040F20241312000F0B5FB40F2073132204F
:103F500000F0B0FB4FF44171332000F0ABFB0421C3
:103F6000342000F0A7FB40F20141352000F0A2FB15
:103F70003946362000F09EFB40F20531372000F034
:103F800099FB4FF4C2631946382000F093FB1946A1
:103F9000392000F08FFB3146012000F08BFB4946B1
:103FA000022000F087FB41F23001032000F082FB89
:103FB00040F60801082000F07DFB08210A2000F0EF
:103FC00079FB4FF41C51602000F074FB012161204B
:103FD00000F070FB4FF49F71902000F06BFB3146B6
:103FE000922000F067FB3146932000F063FB4FF412
:103FF0004051A02000F05EFB1021A32000F05AFBEE
:104000000121072000F056FB2121072000F052FB80
:104010002321072000F04EFB3321072000F04AFB4C
:1040200040F233119EE6E22020801D2028800220ED
:10403000288004202880642002F030FBE0202080CB
:10404000012028800A2002F00FFBE02020800320BE
:1040500028800C2002F008FB012020800A2002F0BA
:1040600003FBE62020802F202880FF202880288046
:10407000B020208020202880002028800320288055
:1040800040F21F3028800120288040F2DF10288075
:1040900000202880B42020800420288040F21F4087
:1040A0002880002028802E2028800020288028803A
:1040B00028802880B6202080022028804FF40370BA
:1040C00028800020288017202880152028800020A4
:1040D00028802880F020208003202880292020802C
:1040E000D020208000202880BE202080052028802D
:1040F000FE20288001202880002028802880288019
:10410000B82020800320288001202880BA20208029
:1041100001202880642000F02DF80020FCF79EFF8D
:104120000449C1F880810020FCF762FF1FB0BDE8A0
:10413000F08F0000008021420346012000E0584338
:10414000491EC9B2FBD27047034808B50088ADF8D4
:104150000000BDF8000008BD0008006C044910B55F
:104160000880052002F09AFABDE81040FFF7ECBF86
:10417000FE07006C0C4A10B5BE211180941C05216D
:10418000218003F0F2FA4FF06632084B03F000FB97
:1041900003F0BEFA208001202080FF202080002034
:1041A0002080208010BD0000FE07006C6666044081
:1041B000F0B5674E00233146B279898846F6040788
:1041C00041F66314012A01D02AB11DE0B9421BD087
:1041D000A14202D118E0A14216D1082814D2DFE88A
:1041E00000F00406080A0C0E101206200CE007204E
:1041F0000AE0042008E0052006E0012004E0002099
:1042000002E0032000E00220A1F5134C45F2103239
:1042100045F21055BCF1410C07D0B94205D091428E
:1042200003D0A94201D0A14275D1082812D2DFE8FB
:1042300000F0110406080A0C0E1080230AE0402347
:1042400008E0C02306E0202304E0602302E0A0236E
:1042500000E0E023A94202D14FF4585000E036209C
:10426000914205D0A94203D0A14201D043F00803F6
:10427000B94201D143F00203194600F01BFAB2889B
:10428000A2420AD098063088718802D5884202D3AB
:1042900003E0884201D9318070802E48811CAA42F7
:1042A0007289028021D100230B80531C03800023DC
:1042B0000B80931C038033885B1E1C0A0C80D21C6D
:1042C0000280DAB20A80B289028000230B80531C7C
:1042D000038000230B80931C038073885B1E1C0AE1
:1042E0000C80D21C0280D8B212E000220A800A8020
:1042F0003288521E130A0B80D2B20A80B289028021
:104300000020088008807088401E020A0A80C0B21F
:104310000880F0BDFFE7082812D2DFE800F00406AD
:1043200008110A0C0E1030230AE0102308E02023A5
:1043300006E0382304E0282302E0182300E00823E5
:10434000BDE8F040032043F4805100F0B3B9000011
:10435000F6010020FE07006C2DE9F04F4E4F0B4692
:104360003A46BD880C0ADFF834B191895289A5F527
:1043700013464FEA102C0BF1020A413E1DD0A5F561
:10438000A646103E19D03E46BE4696F806903688A0
:10439000A5F5D047A6EB0008A8F10108043F17D007
:1043A000A5F5C857633F28D0A5F5AA477646103F24
:1043B00051D0B9F1010F63D064E0ABF80020524650
:1043C000AAF800C0C0B2AAF80000ABF800100FE0D5
:1043D000B9F1010F01D11FFA88F0ABF80020050AEE
:1043E0005246AAF80050C0B2AAF80000ABF800107C
:1043F0001480D8B21080BDE8F08FB9F1000F1BD047
:10440000ABF800205246AAF800C0C0B2AAF80000DB
:10441000761E300AAAF80000F0B21080ABF8001047
:1044200011461480D8B21080BEF80200401E020A65
:104430000A80C0B20880DEE71FFA88F0ABF80020DF
:1044400000265246AAF80060AAF80060060AAAF8F8
:104450000060C0B2E1E7ABF80020AAF800C0521C2F
:10446000ABF80020C0B2AAF80000ABF80010AAF820
:104470000040491CABF80010D8B2AAF80000BAE717
:104480001FFA88F00146104600F014F9B089BDE823
:10449000F04F194600F00EB9F6010020FE07006C3F
:1044A0002DE9FC4F8E465C0700D0012404EBD304B9
:1044B0005D086C43203AD7B2E4B2414A019400242B
:1044C000DFF8F880B2F80AB0B2F80CA0B2F80890A1
:1044D0006FE00C2B2CD0102B2ED0182B6CD1394D1B
:1044E00007EBC70205EB8202354E125D0025768888
:1044F0000096160624D5A8F800B0304E4FEA102CCE
:10450000B61CA6F800C000F0FF0CA6F800C0A8F882
:1045100000A04FEA112CA6F800C001F0FF0CA6F88D
:1045200000C0A8F80090DFF8A0C0BCF800C025E0EB
:1045300007EB4702254DD5E7254A02EB0712D3E7E3
:104540000B9EEEB9A8F800B01C4E4FEA102CB61C1A
:10455000A6F800C000F0FF0CA6F800C0A8F800A064
:104560004FEA112CA6F800C001F0FF0CA6F800C01D
:10457000A8F80090DFF850C0BCF802C0A6F800C050
:104580005206491C009E120E89B28E4214D9A1EB2C
:104590000E069E4207D10A4A401C80B2128871461C
:1045A000824209D903E06D1CEDB2082DA1D3641C31
:1045B000E4B2019A94428CD3BDE8FC8FFE07006CF4
:1045C000F6010020F08300081E0000208C7900080E
:1045D000007E00082DE9FF4F81B00027DDF838B0DC
:1045E0001D46924680463C46B9464FEA5B0627E0A8
:1045F000281B401EC1B20A20FFF79EFDBAFBF0F057
:104600000A21B0FBF1F201FB120027B9691E8C42AE
:1046100001DA48B101273030C2B206FB048080B213
:104620005B46CDF8009006E006FB048080B25B4656
:104630002022CDF800900299FFF732FF641CE4B20B
:10464000AC42D5D305B0BDE8F08F2DE9F84F044654
:1046500000F0FF0810190D46DDE90A761FFA80FA0E
:1046600058191FFA80F94FF0010B11E0544502D39D
:10467000E819444685B24D450FD23B4629462046AF
:10468000CDF800B0FFF70CFF04EB570084B2761CA6
:104690003278A2F120005E28E8D9BDE8F88F00004A
:1046A000024803490089088070470000F601002095
:1046B000FE07006C024A1080901C018070470000C9
:1046C000FE07006C38B50121482000F08DFC202445
:1046D000ADF8004010208DF8030003200B4D8DF83D
:1046E000020069462846FCF72FFB20212846FCF7EC
:1046F000AEFBADF80040064C69462046FCF724FBB3
:1047000020212046FCF7A3FB38BD0000000C01402F
:10471000001801400FB5002230F8121001290CD00A
:10472000022910D0032914D0042918D005291CD03F
:10473000062920D0072924D028E0BDF80010491C04
:10474000ADF8001022E0BDF80210491CADF80210CF
:104750001CE0BDF80410491CADF8041016E0BDF8CB
:104760000610491CADF8061010E0BDF80810491CF1
:10477000ADF808100AE0BDF80A10491CADF80A109F
:1047800004E0BDF80C10491CADF80C10521C92B29C
:10479000282AC1D307216846FCF721F904B000BDDF
:1047A000FEE770471CB510A0D0E90010CDE900105D
:1047B000082000F007FF05226946302000F0EAF8E3
:1047C00005226946102000F055F8002069460A5C71
:1047D000A52A03D1401CC0B20528F8D3052801D072
:1047E00001201CBD00201CBDA5A5A5A5A50000009D
:1047F00038B501214FF4847000F0F6FB4FF480547B
:10480000ADF8004010208DF803000320164D8DF800
:10481000020069462846FCF797FA21462846FCF72D
:1048200016FB4FF4C070114CADF8000069462046ED
:10483000FCF78AFA4021ADF8001028218DF803100A
:1048400069462046FCF780FA4FF4E0712046FCF7F9
:10485000FCFA00F049FE06480021C0F8A011012131
:10486000C0F89C1138BD0000000C01400020014040
:10487000000024422DE9F0410C4F0E460021154660
:10488000C7F89C1100F076FE8046002405E0FF206A
:1048900000F070FE3055641CE4B2AC42F7D3012046
:1048A000C7F89C014046BDE8F081000000002442AA
:1048B00010B5074C0021C4F89C1104F5CE7400F02B
:1048C00059FEFF2000F056FE0121216010BD0000BE
:1048D0000000244210B5164C0020C4F8A0010522A7
:1048E0001449302004F5D07400F054F81149052221
:1048F000491D2A2000F04EF80121212000F068F81F
:104900000121222000F064F81A21242000F060F830
:104910002821252000F05CF80F21262000F058F80F
:104920000E21202000F054F80120206010BD00006E
:10493000000024429C92000870B50546102000F04B
:1049400041FE134C0020C4F8A00106222946A020F5
:1049500000F020F80120C4F8A001D4F818010028C4
:10496000FBD10720FFF7A4FF04460146272000F0F3
:104970002FF8A00601D5202070BDE00605D5FF2147
:10498000E12000F025F8102070BDFF2070BD000070
:10499000000024422DE9F0410C4F0D46002116463F
:1049A000C7F89C1100F0E6FD8046002405E015F8EC
:1049B000010B00F0DFFD641CE4B2B442F7D3012028
:1049C000C7F89C014046BDE8F08100000000244289
:1049D00070B50D46084C01460020C4F89C010846FD
:1049E00004F5CE7400F0C6FD0646284600F0C2FD70
:1049F00001202060304670BD000024427CB51025A7
:104A00001BA0CDE900502B46C82296211E20FFF79F
:104A10001CFEFFF7EDFE4FF6FF7415E019A0CDE97F
:104A200000501023C822AA211E20FFF70EFEC82026
:104A300001F01AFEAA23E62296211E200094FCF71C
:104A40002FFCC82001F010FEFFF7ACFE0028E5D1D6
:104A500011A0CDE900501023C822AA211E20FFF783
:104A6000F4FDBDE87C404FF4FA7001F0FDBD00009C
:104A70004E524632344C303120496E69742E2E2EFF
:104A8000000000004E524632344C303120457272E4
:104A90006F722121210000004E524632344C3031D9
:104AA00020496E6974204F4B0000000030B50F2381
:104AB000C27801780125F2B1144A126801F1E021AF
:104AC00002F4E062C2F5E062120AC2F10404D340CB
:104AD0004278A24084781C401443220181F80024CB
:104AE000007800F01F018D404009800000F1E020B7
:104AF000C0F8005130BD01F01F008540480980001A
:104B000000F1E020C0F8805130BD00000CED00E065
:104B10000249084302490860704700000000FA0596
:104B20000CED00E0002130B1012806D0032806D0AA
:104B3000042807D105E0B02104E0982102E0182103
:104B400000E03021552000F0AFBC70B58026222552
:104B50005E2430B1012808D003280AD004280FD1E0
:104B60000BE0402611252F240AE066261B254B2446
:104B700006E099262825712402E0C02633258D24DD
:104B800031464F2000F090FC3146502000F08CFC64
:104B90000021512000F088FC2946522000F084FCBE
:104BA0002146532000F080FC3146542000F07CFC6C
:104BB000BDE870409E21582000F076BC10B50E4C28
:104BC000207800F0B9F8607800F0DFF8A078FFF7FF
:104BD000BCFFE078FFF7A6FF207900F011F84FF452
:104BE000A073F022B0210C2000F0F9F80349002056
:104BF000C1F8BC0110BD00002700002000002442C5
:104C0000402130B1012806D0032806D0042807D15E
:104C100005E0302104E0382102E0502100E060216D
:104C2000562000F041BC0000F8B50024012140F2FC
:104C30003D1000F0D9F94FF48075ADF800504826CA
:104C40008DF803600320354F8DF802006946384621
:104C5000FCF77AF829463846FCF7F9F81820ADF841
:104C600000002F4F10258DF8035069463846FCF799
:104C70006BF818213846FCF7EAF8FF20ADF8000081
:104C80008DF8036069462748FCF75EF84020ADF8D0
:104C90000000254E8DF8035069463046FCF754F865
:104CA00040213046FCF7D3F84FF44046ADF80060A1
:104CB0008DF803501D4D69462846FCF745F83146EE
:104CC0002846FCF7C4F801211948FCF78BF800F0DE
:104CD000B5FA8021122000F0E7FB08B10120F8BDF1
:104CE000322001F0C1FC0B2000F03AFB732804D104
:104CF0000A2000F035FB762801D00220F8BD0D4DCA
:104D000005EB4400417815F8140000F0CDFB641C5D
:104D1000A4B2A82CF4D30020F8BD00000008014084
:104D2000000C01400010014000140140002001402F
:104D3000000230004C91000870B50025A6212C46D9
:104D4000012806D0022808D003280AD004280FD151
:104D50000BE0E5215A255C240AE0E5215825602472
:104D600006E0E52184254C2402E0E5219625402437
:104D7000132000F099FB2946012000F095FB214605
:104D8000BDE87040022000F08FBB70B50421C02444
:104D90008025072816D2DFE800F0150406090B0E5F
:104DA0001200242100E0142180240BE0142109E0EA
:104DB0001421402405E014218024C02502E01421A0
:104DC000A02440253A2000F06FFB2146682000F027
:104DD0006BFB2946BDE87040672000F065BB2DE9FC
:104DE000F041054600EB420086B201EB430084B27D
:104DF0000F46B4F5447F02D9A4F54474A4B203204D
:104E000000F0AEFA06F00302294600F0F00062F36B
:104E10009F010143032000F047FBC5F387011920E0
:104E200000F042FBC6F387011A2000F03DFB322060
:104E300000F096FAC7F3C701172000F035FBC4F362
:104E4000C701BDE8F041182000F02EBB7CB510254D
:104E50001BA0CDE900502B46C8226E211E20FFF773
:104E6000F4FB4FF6FF7415E019A0CDE900501023B4
:104E7000C82282211E20FFF7E8FBC82001F0F4FBC6
:104E80008223E6226E211E200094FCF709FAC82036
:104E900001F0EAFBFFF7C8FE0028E5D110A0CDE93C
:104EA00000501023C82282211E20FFF7CEFB4FF4B2
:104EB000967001F0D9FBBDE87C40FFF77FBE000093
:104EC0004F563736373020496E69742E2E2E00002B
:104ED0004F5637363730204572726F7221212100CC
:104EE0004F563736373020496E6974204F4B0000DB
:104EF000704700002DE9F04100F0F8FB144C2588C4
:104F0000FBF71AFD40F6B83605F1C80701E0FBF7DC
:104F100019FC2088B84202D22088B042F7D3FBF7B0
:104F200033FDFBF779FD00F0EFFBFBF719FD01E026
:104F3000FBF708FC2088A84202D92088B042F7D3AA
:104F4000FBF722FDBDE8F041C820FBF782BF00005F
:104F5000240800402DE9F04100F0C8FB154C2588DD
:104F6000FBF7EAFC40F6B83605F24F1701E0FBF715
:104F7000E9FB2088B84202D22088B042F7D3FBF781
:104F800003FD4FF49670FBF764FFFBF7E9FC01E0CB
:104F9000FBF7D8FB2088A84202D92088B042F7D37B
:104FA000FBF7F2FC00F0B0FBBDE8F041C820FBF7D6
:104FB00050BF000024080040044A0029516901D074
:104FC000014300E08143516170470000001002403E
:104FD000044A0029D16901D0014300E08143D16135
:104FE0007047000000100240044A0029916901D076
:104FF000014300E0814391617047000000100240CE
:1050000030B5204A5168204B11F00C0103D004291F
:1050100001D0082901D0036012E05168536801F4FF
:1050200070114FF0020413F4803F04EB914102D061
:1050300053689B0301D5154B00E0134B59430160A6
:1050400051680F2303EA1111114B5C5C0168E140C8
:1050500041605468072505EA14241C5D21FA04F414
:105060008460546805EAD4241B5DD940C16052684D
:10507000032303EA9232064B1B1F9A5CB1FBF2F149
:10508000016130BD0010024000127A0000093D00AD
:105090003C0000202DE9F0478246CBB2C1F3072245
:1050A000C1F30740934203DA824203DB164604E071
:1050B000834201DA064600E01E46934203DD824247
:1050C00003DC944604E0834201DD844600E09C4614
:1050D00006EB0C09C9EB09173F014FF4FF7897FB6A
:1050E000F8F7A6EB0C05664502D10024204639E00E
:1050F0009E420DD1C1F30743C1F30721C91A01EB49
:105100008101C90091FBF5F4824214DAF03412E017
:10511000964207D1C01A00EB8000C00090FBF5F466
:10512000503408E0864206D1981A00EB8000C00097
:1051300090FBF5F4A03447B1C5EB0510782F4FEA8A
:10514000001104DC91FBF9F005E0002003E0C9F553
:10515000F07091FBF0F0F02C01DDF02402E0002C67
:1051600000DA0024E1B2F02801DDF02002E000289E
:1051700000DA0020C2B2F02F01DDF02702E0002F9C
:1051800000DA0027CAE90012FBB2CAF80830BDE80D
:10519000F087F82202EA10220A70FC2202EAD0020A
:1051A0004A7000F01F0088707047000010B5044678
:1051B000082C1DD2DFE804F01C0406121416181A7D
:1051C0000EA000E00FA0FBF751F80DA0FBF74EF882
:1051D000052C0FD0BDE81040FFF7BCBE0BA0F2E7D6
:1051E0000CA0F0E70DA0EEE70EA0ECE70FA0EAE7B9
:1051F00010A0E8E7BDE81040FFF77CBEB0D7C9AB10
:105200000D0A0000BADAC9AB0D0A0000BBD2C9AB67
:105210000D0A0000BAECC9AB0D0A0000BBC6C9AB51
:105220000D0A0000C2CCC9AB0D0A0000C0B6C9AB64
:105230000D0A0000C6E4CBFB0D0A000038B50121C1
:105240004FF49070FFF7D0FE4FF40055ADF80050CA
:1052500048208DF803000320114C8DF802006946A8
:105260002046FBF771FD29462046FBF7F0FD08209C
:10527000ADF8000010200B4D8DF80300694628465C
:10528000FBF762FD08212846FBF7E1FD606820F48A
:1052900070006060606840F44010606038BD0000DD
:1052A000002001400014014070B5322001F0F6F9F1
:1052B0000C4D0120C5F8B4010B4EC6F88C0132200C
:1052C00005F5DA7506F5C67601F0E8F900243460D4
:1052D000322001F0E3F92C60BDE87040322001F08B
:1052E000DDB9000000002442008022422DE9F04791
:1052F000184F0024786820F470007860786840F4D3
:1053000000007860DFF85090144E08254FF0010837
:10531000A246322001F0C2F9C6F88C816006040E64
:10532000D9F8340108B1641CE4B2322001F0B6F9B6
:10533000C6F88CA16D1E15F0FF05EAD1786820F43F
:1053400070007860786840F4401078602046BDE8CE
:10535000F08700000020014000002442008022422B
:1053600010B5044600F022F8422000F055F8642001
:1053700001F094F9204600F04FF8642001F08EF916
:1053800000F02EF8642001F089F900F00FF84320B6
:1053900000F042F8642001F081F9FFF7A7FF04460E
:1053A000FFF782FF00F01CF8204610BD70B50A4ED2
:1053B0000120C6F8B401094DC5F88C01322005F56D
:1053C000C67506F5DA7601F069F9002434603220FA
:1053D00001F064F92C6070BD00002442008022427C
:1053E00070B50B4C0020C4F8B401322004F5DA7417
:1053F00001F054F907480125C0F88C51322001F022
:105400004DF92560BDE87040322001F047B9000039
:1054100000002442008022422DE9F04700241F4E64
:105420001F4F0546A0464FF00109280601D5484602
:1054300000E04046C6F8B4016806050E322001F0CF
:105440002DF9C7F88C91322001F028F9C7F88C812A
:10545000641CE4B2082CE8D3124C606820F470009D
:105460006060606840F400006060322001F016F96E
:10547000C7F88C91322001F011F9D6F8340100B14F
:105480000120C7F88C81616821F470016160616856
:1054900041F440116160BDE8F08700000000244243
:1054A000008022420020014070B50D4606460024CF
:1054B000FFF77CFF4220FFF7AFFF00B1012464201B
:1054C00001F0ECF83046FFF7A7FF00B1012464209B
:1054D00001F0E4F82846FFF79FFF00B10124FFF731
:1054E0007FFF204670BD000070B586B00121082006
:1054F000FFF77AFD01218803FFF76AFD4FF460454D
:10550000ADF8145018248DF817400320174E8DF86D
:10551000160005A93046FBF717FC29463046FBF775
:1055200096FC0020ADF80000ADF80800ADF80C4086
:105530004FF48271ADF80400ADF80210ADF806002A
:10554000ADF80E0071150720094CADF80A10ADF842
:1055500010006946204600F058F80121204600F06E
:105560003FF8FF2000F006F806B070BD000C0140C7
:105570000038004070B506460024114D03E0641C5D
:10558000E4B2C82C0FD80221284600F033F80028D6
:10559000F5D03146284600F036F8002405E0641CBA
:1055A000E4B2C82C01D9002070BD0121284600F0CA
:1055B00021F80028F3D0284600F023F8C0B270BDCF
:1055C0000038004001460548028822F03802028077
:1055D00002880A430280012100F002B8003800402E
:1055E0000029018802D041F0400101E021F0400192
:1055F000018070470246002012890A4200D0012033
:105600007047808970478181704730B502884C8827
:1056100002F441530A88CD8822438C882C432243CC
:105620000C8922434C8922438C892243CC89224312
:105630001A430280828B22F400628283098A0182EB
:1056400030BD70470CB500222648009201920168D7
:1056500041F4803101604FF4A063016801F400312E
:1056600001910099491C0091019911B90099994241
:10567000F3D10168890333D5012101911A490A68E0
:1056800042F010020A600A6822F003020A600A6807
:1056900042F002020A60416841604168416041682D
:1056A00041F480614160416821F47C1141604168AE
:1056B00041F4E8114160016841F0807101600168C6
:1056C0008901FCD5416821F003014160416841F046
:1056D000020141604168C1F381010229FAD10CBD88
:1056E00001920CBD001002400020024010B540F2B3
:1056F0001451044800F000FDBDE810404FF4FA706A
:10570000FBF7A7BB003401404FF47A71014800F069
:10571000F3BC0000003401404FF0E0210428086988
:1057200003D020F004000861704740F00400FAE75D
:10573000704700001CB50CA0D0E90010CDE90010A6
:10574000002000F0FDFD012801D000201CBDFFF766
:10575000C1F86846FFF7F0F8102803D1044900208B
:10576000C1F8940101201CBD7374617274000000C3
:10577000008021420F4810B5016841F0010101602D
:1057800041680D4A1140416001680C4A11400160B6
:10579000016821F480210160416821F4FE0141602B
:1057A0004FF41F018160FFF74DFF05494FF0006086
:1057B000086010BD001002400000FFF8FFFFF6FE79
:1057C00008ED00E02DE9F84F012400F02FFF4FF421
:1057D000A060FFF79DF94FF4E13000F0E9FFFBF71F
:1057E000A5FDFBF79BFB012540F2CF164FF4917A04
:1057F0004FF4877910274FF49678534605F1140239
:10580000494614200096FBF74BFD620803234146EE
:1058100068200097FEF7DEFE0A2000F025FF6D1CD1
:10582000641CEDB2E4B2152DE7D3FEF74BFFD3466F
:105830000125CA46D9465B4605F128025146142087
:105840000096FBF72DFD6208032341466820009770
:10585000FEF7C0FE0A2000F007FF6D1C641CEDB2CD
:10586000E4B2152DE6D3FBF7A5FBCB46D1460125C7
:10587000C246D8465B4605F13C02494614200096D4
:10588000FBF70EFD62080323514668200097FEF7E0
:10589000A1FE0A2000F0E8FE6D1C641CEDB2E4B22B
:1058A000152DE6D3062000F0D7FC0125434605F16F
:1058B0005002494614200096FBF7F2FC62080323CD
:1058C000514668200097FEF785FE0A2000F0CCFEC6
:1058D0006D1C641CEDB2E4B2152DE7D3FBF7C8FADA
:1058E00000F04EFDC346C8460125D1465B4605F192
:1058F0006402414614200096FBF7D2FC62080323A1
:10590000494668200097FEF765FE0A2000F0ACFECD
:105910006D1C641CEDB2E4B2152DE7D3FBF7FAF869
:105920000125C346CA464FF49178434605F17802F3
:10593000D946594614200096FBF7B2FC62080323AF
:10594000514668200097FEF745FE0A2000F08CFEC5
:105950006D1C641CEDB2E4B2152DE4D3002141F6B8
:105960001F4000F0F3F80125434605F18C0249463B
:1059700014200096FBF794FC62080323514668202C
:105980000097FEF727FE0A2000F06EFE6D1C641CD7
:10599000EDB2E4B2152DE7D3472142F2107000F0CA
:1059A00083F90125CB46D0464FF491794B4605F15A
:1059B000A002DA46594614200096FBF771FC6208F3
:1059C0000323414668200097FEF704FE0A2000F0FA
:1059D0004BFE6D1C641CEDB2E4B2152DE4D3FFF751
:1059E00035FACB46D1460125C246D8465B4605F17D
:1059F000B402494614200096FBF752FC62080323C8
:105A0000514668200097FEF7E5FD0A2000F02CFEC5
:105A10006D1C641CEDB2E4B2152DE6D3FEF7EEFF6B
:105A20000125434605F1C802494614200096FBF7BC
:105A300037FC62080323514668200097FEF7CAFD31
:105A40000A2000F011FE6D1C641CEDB2E4B2152DAD
:105A5000E7D34FF4FA7000F007FEBDE8F84F0020DE
:105A6000FBF7C6BA70B5048C24F001040484058BDE
:105A7000048C4FF6FF7606EA0313134325F0F30573
:105A80000E4A2B4390420ED00D4A90420BD0B0F1FB
:105A9000804F08D00B4A904205D00B4A904202D06A
:105AA0000A4A904202D124F0020201E024F00A02E4
:105AB0000A4342F001010383018470BD002C0140C0
:105AC000003401400004004000080040000C004089
:105AD000F0B5048C24F010040484078B048C4FF67A
