:020000040800F2
:1000000068070020CD010008A95A00089B070008D6
:10001000A55A0008610500080F64000800000000F0
:10002000000000000000000000000000755B0008F8
:100030006505000800000000315B0008CB5C00088B
:10004000E7010008E7010008E7010008E7010008F0
:10005000E7010008E7010008E7010008E7010008E0
:10006000E7010008E7010008E7010008E7010008D0
:10007000E7010008E7010008E7010008E7010008C0
:10008000E7010008E7010008E7010008E7010008B0
:10009000E7010008E7010008E7010008E7010008A0
:1000A000E7010008E7010008E7010008E701000890
:1000B000E70100082D5D0008E7010008E7010008DE
:1000C000E7010008E7010008E7010008E701000870
:1000D000E701000829630008E7010008E7010008BC
:1000E000E7010008E7010008E7010008E701000850
:1000F000E7010008E7010008E7010008E701000840
:10010000E7010008E7010008E7010008E70100082F
:10011000E7010008E7010008E7010008E70100081F
:10012000E7010008E7010008E7010008E70100080F
:1001300000F002F800F03AF80AA090E8000C8244BF
:100140008344AAF10107DA4501D100F02FF8AFF29C
:10015000090EBAE80F0013F0010F18BFFB1A43F0A5
:10016000010318476491000084910000103A24BFF5
:1001700078C878C1FAD8520724BF30C830C144BF0C
:1001800004680C607047000000230024002500264E
:10019000103A28BF78C1FBD8520728BF30C148BFEA
:1001A0000B6070471FB51FBD10B510BD00F046F8BD
:1001B0001146FFF7F7FF06F021FD00F064F803B4E5
:1001C000FFF7F2FF03BC06F059FC00000948804726
:1001D00009480047FEE7FEE7FEE7FEE7FEE7FEE729
:1001E000FEE7FEE7FEE7FEE704480549054A064B41
:1001F00070470000CD5C0008310100086801002054
:1002000068070020680300206803002070477047DB
:1002100070477047704710B500F008F8006810BDCF
:1002200010B5044600F002F8046010BD00487047A5
:100230000801002000487047080100207546FFF7BC
:10024000F9FFAE4605006946534620F00700854693
:1002500018B020B5FFF7C8FFBDE820404FF00006FA
:100260004FF000074FF000084FF0000B21F007019E
:10027000AC46ACE8C009ACE8C009ACE8C009ACE8E1
:10028000C0098D4670470446AFF300802046FFF753
:1002900096FFF8B504460D4648F23040009005F14F
:1002A000180083B204F1180082B22946204600F0FB
:1002B0006DFF4FF6FF7005F10E06B3B204F11406A0
:1002C000B2B205F10A06B1B2261D0090B0B200F03C
:1002D0005DFF4FF6FF7005F11406B3B204F10E0690
:1002E000B2B22E1DB1B204F10A060090B0B200F015
:1002F0004DFFF8BD2DE9F04F8BB00A244B2264214D
:10030000782000F045FD4D226421782000F040FD6A
:1003100002226421782000F03BFD01226421782034
:1003200000F036FD00247BE0052094FBF0F100FB9B
:100330001140002839D1204607F018FA0546002060
:100340007A4B7B4A7B49CDE9005005A805F0ACFD0E
:10035000DDE90501CDE90901204607F007FA054668
:100360000020754B724A7349CDE9005005A805F08D
:100370009BFDDDE90501CDE90701089807F0BEF90D
:1003800085B2079807F0BAF986B20A9807F0B6F96D
:1003900087B2099807F0B2F91FFA80F82B46324667
:1003A0003946404600F07CFC38E0204607F0DEF994
:1003B00005460020614B5E4A5E49CDE9005005A824
:1003C00005F072FDDDE90501CDE90901204607F0E0
:1003D000CDF905460020584B554A5649CDE9005005
:1003E00005A805F061FDDDE90501CDE907010898E3
:1003F00007F084F985B2079807F080F986B20A9869
:1004000007F07CF987B2099807F078F91FFA80F8AD
:100410002B4632463946404600F042FC601CC4B2CE
:100420003C2C81DB4FF4784045490880454991F9DF
:10043000030007F083F905460120434B3C4A3D4940
:10044000CDE9005005A805F02FFD40F2CF103C4942
:1004500008803C4991F9030007F070F9834607F0E2
:1004600015F94FF01132394BCDE9000106F01AFFB2
:1004700007468846334991F9020006F0E8FE3A46FD
:100480004346CDE9020106F07DFC054606F048FC36
:10049000824601202E4B264A2649CDE900A005A818
:1004A00005F002FD4FF6FF7025490880254890F9B8
:1004B00001000C2805DD234840780C3800F0FF09C6
:1004C00002E0204890F801901E4991F9020007F0DF
:1004D00035F9019007F0DAF805464FF055321D4B1B
:1004E00006F0E0FE82468B46484607F03FF9019051
:1004F00007F0CCF805460022174B06F0D3FE524613
:100500005B46CDE9020106F03DFC074606F008FC1B
:1005100001210490114B064ACDE90001054905A8C7
:1005200005F0C2FC0BB0BDE8F08F00000000704287
:100530000000C8420000F0420000964200008242E3
:100540001C0000200000002000005C421111913FBF
:10055000000034425555B53F000014400000F04102
:1005600000BFFEE77047000001B582B01AA0182155
:1005700002230C22CDE90010E621602005F094F959
:1005800015A0182102230C22CDE90010E6218420B9
:1005900005F08AF980201821CDE900109DF9092085
:1005A0000223E621482005F0B2F980201821CDE988
:1005B00000109DF90A200223E6216C2005F0A7F91E
:1005C00080201821CDE900109DF90B200223E6219F
:1005D000902005F09CF90EBD3A0000002DE9F04195
:1005E000024600250026002000230024002791F861
:1005F00003C00CF00F0591F803C00CF0100CBCF117
:10060000000F03D091F802C04CEA050591F800C034
:10061000BCF1000F31D0146800202BE04FF0010C2A
:100620000CFA00F3B1F800C00CEA03069E4220D198
:1006300083004FF00F0C0CFA03F7BC4305FA03FCE0
:100640004CEA040491F803C0BCF1280F06D14FF026
:10065000010C0CFA00FCC2F814C00AE091F803C0C7
:10066000BCF1480F05D14FF0010C0CFA00FCC2F8A8
:1006700010C0401C0828D1D31460B1F800C0BCF1F0
:10068000FF0F34DD546800202EE000F1080C4FF01D
:10069000010808FA0CF3B1F800C00CEA03069E4208
:1006A00021D183004FF00F0C0CFA03F7BC4305FA7D
:1006B00003FC4CEA040491F803C0BCF1280F05D1F7
:1006C00000F1080C08FA0CF8C2F8148091F803C085
:1006D000BCF1480F07D100F1080C4FF0010808FAEF
:1006E0000CF8C2F81080401C0828CED35460BDE836
:1006F000F0810000F0B50A46002300240021002507
:1007000000F00046B6F1004F02D11D4EF16901E044
:100710001B4E7168C0F3034583B200F44016B6F572
:10072000401F08D121F07061154E766826F0706682
:10073000134F7E6012E000F48016B6F5801F06D1DC
:10074000032606FA05F4A14341F0706106E0460D68
:10075000360103FA06F6B14341F0706122B1460D4D
:10076000360103FA06F6314300F00046B6F1004FB9
:1007700002D1034EF16101E0014E7160F0BD000055
:10078000000001400246002093680B400BB101209D
:1007900000E0002070470161704700BFFEE70000E5
:1007A00008B50121142005F0D5F901211148FFF702
:1007B000A1FF4FF40040ADF8000048208DF8030081
:1007C00069460D48FFF70AFF2020ADF800004820D9
:1007D0008DF8030069460948FFF700FF0120ADF8D6
:1007E000000028208DF8030069460348FFF7F6FE55
:1007F00008BD000000023000000801400010014068
:1008000010B5044614B1012024490870234800782B
:1008100068B320212248FFF7B5FF58B14FF40041DB
:100820002048FFF7AFFF28B101211E48FFF7AAFFBC
:1008300001281CD10A2006F095F9002017490870FC
:1008400020211748FFF79EFF08B9012010BD4FF483
:1008500000411448FFF796FF08B90220F6E701218E
:100860001048FFF78FFF012815D10320EEE7202164
:100870000B48FFF787FF01280DD1C1030948FFF797
:1008800081FF012807D101210648FFF77BFF10B93E
:100890000120024908700020D8E700002000002055
:1008A000001001400008014038B50020FFF7A8FF04
:1008B0000546032D72D1601CC4B2032C00DD002458
:1008C000ACE00021624805F07EFA012C04D0022C35
:1008D0000BD0032C3DD122E0CD219020FFF7D9FC95
:1008E000FE21902005F0BCF933E00020E523A8228A
:1008F000CD210090902000F049FC00204FF48C7333
:10090000A822FE210090902000F040FCCD216C2018
:10091000FFF7BFFCFE216C2005F0A2F919E00020D2
:10092000E5238422CD2100906C2000F02FFC0020D4
:100930004FF48B738422FE2100906C2000F026FC83
:10094000CD214820FFF7A5FCFE21482005F088F9BD
:1009500000BF00BF0020FFF753FF0546032D05D160
:10096000601CC4B2032C50DD00244EE0012D25D1C3
:100970000020AA23BE221E210090322000F006FC97
:10098000012C04D0022C0AD0032C16D10EE03148E1
:10099000C078401C40B22F49C8700EE056E02D4888
:1009A0008078401C40B22B49887006E02948407886
:1009B000401C40B22749487000BF26E0022D24D1D8
:1009C0000020AA23BE221E210090322000F0DEFB70
:1009D000012C04D0022C09D0032C15D10DE01D48A8
:1009E000C078401E40B21B49C8700DE0194880789D
:1009F000401E40B21749887006E016484078401EF5
:100A000040B21449487000BF00BF05F045FCFFF735
:100A100071FC104800680090FFF7A6FD002C7FF4E1
:100A200050AF0020E5236022CD210090482000F047
:100A3000ADFB00204FF48B736022FE210090482014
:100A400000F0A4FB0121024805F0BDF938BD00000B
:100A5000000400400000002070B5044600261D4838
:100A60000588408845431B48808846F60401884233
:100A700016D118488079012812D1002015498871B3
:100A80002A2048812B2088810021084604F09AFC06
:100A90000120104988712B2048812A20888103E099
:100AA0000021084604F08EFC04F0B4FF00260DE09F
:100AB0004FF48070084908614000486107480460AD
:100AC00080204861086180000861761CAE42EFD347
:100AD00070BD000030000020001001400C0C0140EF
:100AE00010B50446002C66D16C498871F02008804E
:100AF0004FF4A07048800846808849F2413188420E
:100B00000BD06648808846F60401884205D06348C9
:100B1000808845F2103188421AD12C205F49088123
:100B20002A2048812B2088810846808846F60401C7
:100B3000884205D05948808845F21031884206D154
:100B40004FF4A070554908804FF4F0704880A1E040
:100B50005248808845F21051884210D14FF43050ED
:100B60004E4908814FF4285048814FF42C50888119
:100B70004FF4F07008804FF4487048808AE047488E
:100B8000808841F6631188420DD12C2043490881A9
:100B90002B2048812A2088814FF4F07008804FF480
:100BA0004870488076E022203C4908812020488116
:100BB000212088816EE00120384988714FF4A070AF
:100BC0000880F02048800846808849F241318842F8
:100BD00005D03248808845F21031884207D12C2058
:100BE0002E4908812A2048812B2088813FE02B480C
:100BF000808846F60401884207D12C2027490881C5
:100C00002B2048812A20888131E02448808845F2C1
:100C10001051884210D14FF43050204908814FF4D0
:100C2000285048814FF42C5088814FF44870088038
:100C30004FF4F07048801AE01848808841F663113C
:100C400088420DD12C20154908812A2048812B206B
:100C500088814FF4487008804FF4F070488006E0B7
:100C600022200E49088121204881202088810B48BC
:100C7000808846F60401884205D00848808845F2FD
:100C80001031884206D14FF4F070044908804FF4C7
:100C9000A0704880002004F069F910BD30000020E9
:100CA0002DE9FF4F84B081468A46002003900290D0
:100CB0000698A0EB09050798A0EB0A06CDF804906A
:100CC000CDF800A0002D01DD012705E00DB90027BA
:100CD00002E04FF0FF376D42002E02DD4FF00108B9
:100CE00006E016B94FF0000802E04FF0FF387642F8
:100CF000B54201DD2C4600E034464FF0000B21E008
:100D0000009A91B2019A90B200F022F80398284418
:100D100003900298304402900398A04205DD0398A6
:100D2000001B03900198384401900298A04205DD11
:100D30000298001B02900098404400900BF10100C3
:100D40001FFA80FB601C8345DADD08B0BDE8F08F38
:100D500030B504460D462946204604F033FB04F026
:100D600059FE4FF480700749086140004861064809
:100D700000880649086080200249486108618000B7
:100D8000086130BD001001401C0000200C0C014027
:100D90002DE9F04306460F469046002445460320C1
:100DA000A0EB48093CE07A1B91B2321990B2FFF7F0
:100DB000CFFF3A1B91B2721990B2FFF7C9FF3A19EF
:100DC00091B2721990B2FFF7C3FF7A1991B232193A
:100DD00090B2FFF7BDFF7A1991B2321B90B2FFF7C4
:100DE000B7FF3A1991B2721B90B2FFF7B1FF7A1BAD
:100DF00091B2321B90B2FFF7ABFF3A1B91B2721B5C
:100E000090B2FFF7A5FF641CB9F1000F03DAA00050
:100E1000801D814404E0601B80000A3081446D1E07
:100E2000AC42C0DDBDE8F08370B504460D46164601
:100E3000D348808849F24131884205D0D048808823
:100E400045F21031884240D1CD49488904F0D0FDA7
:100E50004FF48070CB490861400048612012CA49B4
:100E600008608020C749486108618000086140101F
:100E7000086140004861E0B2C34908608020C14970
:100E80004861086180000861BD49888904F0B0FDAF
:100E90004FF48070BB490861400048612812BA498C
:100EA00008608020B74948610861800008614010EF
:100EB000086140004861E8B2B34908608020B14948
:100EC00048610861800008613DE1AD48808845F2D5
:100ED0001051884250D1AA49488904F089FD4FF445
:100EE0008070A8490861400048612012A649086046
:100EF0008020A4494861086180000861A0494989AF
:100F0000491C88B204F074FD4FF480709D4908615B
:100F100040004861E0B29C490860802099494861DE
:100F20000861800008619649888904F061FD4FF4EA
:100F30008070944908614000486128129249086015
:100F40008020904948610861800008618C49898946
:100F5000491C88B204F04CFD4FF480708949086147
:100F600040004861E8B288490860802085494861AE
:100F7000086180000861E6E08148808841F66311DD
:100F800088427DD17E48807920B97D480088401E06
:100F9000001B84B27A49488904F02AFD4FF480701E
:100FA0007849086140004861201277490860802034
:100FB0007449486108618000086140100861400080
:100FC0004861E0B27049086080206E49486108615C
:100FD00080000861401008614000486120126A49A1
:100FE00008608020674948610861800008614010FE
:100FF000086140004861E0B26349086080206149AF
:1010000048610861800008615D49888904F0F0FC4E
:101010004FF480705B4908614000486128125A49CA
:1010200008608020574948610861800008614010CD
:10103000086140004861E8B2534908608020514986
:101040004861086180000861401008614000486103
:1010500028124D49086080204A4948610861800093
:1010600008614010086140004861E8B246490860E4
:1010700080204449486108618000086163E0FFE71F
:101080003F48808846F60401884249D13C4880792F
:10109000012804D13A480088401E001B84B2384918
:1010A000488904F0A5FC4FF480703649086140007F
:1010B0004861201234490860802032494861086143
:1010C000800008614010086140004861E0B22E498C
:1010D000086080202B494861086180000861284928
:1010E000888904F085FC4FF480702649086140002F
:1010F000486128122449086080202249486108611B
:10110000800008614010086140004861E8B21E4953
:10111000086080201B49486108618000086112E076
:1011200017488079012804D115480088401E001B0B
:1011300084B213494889214604F074FC1049888917
:10114000294604F06FFC4FF480700E49486140005E
:1011500048610B4800890C490860802009494861B2
:10116000086180000861401008614000486106483D
:1011700006608020486108618000086170BD000041
:1011800030000020001001400C0C01402DE9FC4F04
:1011900005460E4617469846DDF82C900020019033
:1011A0002C48808846F60401884229D12948807954
:1011B000012825D1AB46354626480088C01B401E75
:1011C00086B2474623480088A0EB0B00401E1FFA5A
:1011D00080F800201F4988712A2048812B208881AF
:1011E00043463A4631462846CDF80090FFF7CEFFF9
:1011F0000120184988712B2048812A20888127E006
:10120000781B401C80B2019034461FE021462846DE
:1012100004F0D8F804F0FEFB4FF0000A11E04FF4A0
:1012200080700D490861400048610C48C0F800908A
:10123000802048610861800008610AF101001FFAFE
:1012400080FA01988245EADB601C84B24445DDDD0A
:10125000BDE8FC8F30000020001001400C0C014064
:1012600008B50121192004F075FC0121FE48FFF7A3
:1012700041FA4FF4F860ADF8000010208DF803003B
:1012800003208DF802006946F848FFF7A7F94FF4EC
:10129000F861F648FFF77FFA4FF6FF70ADF80000EF
:1012A0006946F348FFF79AF94FF6FF71F048FFF7E8
:1012B00072FA322005F056FC0121002004F0B2FB46
:1012C000322005F04FFC002003F0DEFDE949888064
:1012D00008468088FF280ADB084680884FF6FF71A1
:1012E000884204D0E3488088B0F5134F7ED1D320E4
:1012F00004F07EFB03F090FD03F08EFD03F08CFD07
:10130000DC498880084680884FF6FF7101EA00209A
:10131000D849888003F080FDD64989880843D5499B
:1013200088800846808849F2413188425ED0BF20DB
:1013300004F05EFB03F070FD03F06EFD03F06CFD46
:1013400003F06AFDCB498880084680884FF6FF711C
:1013500001EA0020C749888003F05EFDC5498988FD
:101360000843C44988800846808846F604018842BC
:1013700074D0D42004F03CFB03F04EFD03F04CFD90
:1013800003F04AFDBB498880084680884FF6FF710C
:1013900001EA0020B749888003F03EFDB5498988FD
:1013A0000843B44988800846808845F21031884255
:1013B00054D04FF45A4004F01BFB03F02DFD4FF4C2
:1013C0005B4004F015FB03F027FDAA49888008461E
:1013D00080884FF6FF7101EA0020A64988804FF40B
:1013E0005C4004F005FB03F017FD00E036E0A14986
:1013F000898808439F49888008468088B0F5004F57
:1014000002D145F2105088809A48808845F21051E8
:10141000884223D0A12004F0EBFA03F0FDFC9549AB
:10142000888003F0F9FC93498880084680884FF64D
:10143000FF7101EA00208F49888003F0EDFC8D499F
:10144000898808438B4988800846808845F2617105
:10145000884203D141F66310864988808548808898
:1014600049F2413188427CD1CF2004F0C1FA0020FA
:1014700004F0ACFAC12004F0A9FA302004F0A6FA76
:10148000ED2004F0B5FA642004F0A0FA032004F083
:101490009DFA122004F09AFA812004F097FAE820CD
:1014A00004F0A6FA852004F091FA102004F08EFAD8
:1014B0007A2004F08BFACB2004F09AFA392004F059
:1014C00085FA2C2004F082FA002004F07FFA342000
:1014D00004F07CFA022004F079FAF72004F088FA8C
:1014E000202004F073FAEA2004F082FA002004F0CD
:1014F0006DFA002004F06AFAC02004F079FA1B208B
:1015000004F064FAC12004F073FA012004F05EFADA
:10151000C52004F06DFA302004F058FA302004F0B1
:1015200055FAC72004F064FAB72004F04FFA3620C9
:1015300004F05EFA482004F049FA3A2004F058FA20
:10154000552004F043FAB12004F052FA002004F0D0
:101550003DFA1A2004F03AFAB62004F049FA0A20BB
:1015600000E0A2E004F032FAA22004F02FFAF22008
:1015700004F03EFA002004F029FA262004F038FA9C
:10158000012004F023FAE02004F032FA0F2004F0E6
:101590001DFA2A2004F01AFA282004F017FA08206D
:1015A00004F014FA0E2004F011FA082004F00EFAE8
:1015B000542004F00BFAA92004F008FA432004F0A8
:1015C00005FA0A2004F002FA0F2004F0FFF90020C7
:1015D00004F0FCF9002004F0F9F9002004F0F6F919
:1015E000002004F0F3F9E12004F002FA002004F0F6
:1015F000EDF9152004F0EAF9172004F0E7F90720C7
:1016000004F0E4F9112004F0E1F9062004F0DEF919
:101610002B2004F0DBF9562004F0D8F93C2004F02C
:10162000D5F9052004F0D2F9102004F0CFF90F20ED
:1016300004F0CCF93F2004F0C9F93F2004F0C6F9CA
:101640000F2004F0C3F92B2004F0D2F9002004F09D
:10165000BDF9002004F0BAF9012004F0B7F93F20E9
:1016600004F0B4F92A2007E0000230000010014025
:10167000000C01403000002004F0BAF9002004F012
:10168000A5F9002004F0A2F9002004F09FF9EF2052
:1016900004F09CF9112004F0ABF9782005F062FA0F
:1016A000292004F0A5F903F09ABBFE48808846F68D
:1016B000040188427ED1112004F09AF9142005F02B
:1016C00051FAD02004F094F9072004F07FF9422069
:1016D00004F07CF91D2004F079F9D12004F088F998
:1016E000002004F073F91A2004F070F9092004F0C6
:1016F0006DF9D22004F07CF9012004F067F9222072
:1017000004F064F9C02004F073F9102004F05EF9CD
:101710003B2004F05BF9002004F058F9022004F0AB
:1017200055F9112004F052F9C52004F061F90320A5
:1017300004F04CF9C82004F05BF9002004F046F9ED
:10174000252004F043F9212004F040F9052004F09D
:101750003DF9002004F03AF90A2004F037F9652039
:1017600004F034F9252004F031F9772004F02EF943
:10177000502004F02BF90F2004F028F9002004F089
:1017800025F9F82004F034F9012004F01FF9FE20B7
:1017900004F02EF9002004F019F9022004F016F9E3
:1017A000202004F025F9362004F022F9082004F066
:1017B0000DF900E02AE03A2004F01AF9552004F06F
:1017C00005F92B2004F014F9002004F0FFF80020A4
:1017D00004F0FCF8012004F0F9F83F2004F0F6F8DA
:1017E0002A2004F005F9002004F0F0F8002004F0AD
:1017F000EDF8012004F0EAF8DF2004F0E7F87820A3
:1018000005F0B0F9292004F0F3F84CE7A5488088EA
:1018100045F21031884240F07C87ED2004F0E8F872
:10182000012004F0D3F8FE2004F0D0F8EE2004F0FC
:10183000DFF8DE2004F0CAF8212004F0C7F8F12018
:1018400004F0D6F8012004F0C1F8DF2004F0D0F84D
:10185000102004F0BBF8C42004F0CAF88F2004F074
:10186000B5F8C62004F0C4F8002004F0AFF8E22078
:1018700004F0ACF8E22004F0A9F8E22004F0A6F8A5
:10188000BF2004F0B5F8AA2004F0A0F8B02004F0BE
:10189000AFF80D2004F09AF8002004F097F80D201E
:1018A00004F094F8002004F091F8112004F08EF870
:1018B000002004F08BF8192004F088F8002004F0D0
:1018C00085F8212004F082F8002004F07FF82D2014
:1018D00004F07CF8002004F079F83D2004F076F85C
:1018E000002004F073F85D2004F070F8002004F08C
:1018F0006DF85D2004F06AF8002004F067F8B1206C
:1019000004F076F8802004F061F8002004F05EF81E
:101910008B2004F05BF8002004F058F8962004F0C7
:1019200055F8002004F052F8B22004F061F80020CD
:1019300004F04CF8002004F049F8022004F046F8C6
:10194000002004F043F8032004F040F8002004F0E5
:101950003DF8B32004F04CF8002004F037F80020E4
:1019600004F034F8002004F031F8002004F02EF8E0
:10197000002004F02BF8002004F028F8002004F0E8
:1019800025F8002004F022F8002004F01FF80020C1
:1019900004F01CF8002004F019F8002004F016F8F8
:1019A000002004F013F8002004F010F8002004F0E8
:1019B0000DF8002004F00AF8002004F007F80020D9
:1019C00004F004F8002004F001F8002003F0FEFF0A
:1019D000002003F0FBFF002003F0F8FF002003F0DD
:1019E000F5FF002003F0F2FFB42004F001F88B2093
:1019F00003F0ECFF002003F0E9FF962003F0E6FF80
:101A0000002003F0E3FFA12003F0E0FF002003F03B
:101A1000DDFFB52003F0ECFF022003F0D7FF00202C
:101A200003F0D4FF032003F0D1FF002003F0CEFF2A
:101A3000042003F0CBFF002003F0C8FFB62003F022
:101A4000D7FF002003F0C2FF002003F0BFFFB72044
:101A500003F0CEFF002003F0B9FF002003F0B6FF33
:101A60003F2003F0B3FF002003F0B0FF5E2003F03F
:101A7000ADFF002003F0AAFF642003F0A7FF0020C1
:101A800003F0A4FF8C2003F0A1FF002003F09EFFD1
:101A9000AC2003F09BFF002003F098FFDC2003F054
:101AA00095FF01E030000020002003F08FFF702040
:101AB00003F08CFF002003F089FF902003F086FFE5
:101AC000002003F083FFEB2003F080FF002003F0F1
:101AD0007DFFDC2003F07AFF002003F077FFB820C1
:101AE00003F086FF002003F071FF002003F06EFF7B
:101AF000002003F06BFF002003F068FF002003F0DC
:101B000065FF002003F062FF002003F05FFF00206C
:101B100003F05CFFBA2003F06BFF242003F056FFB4
:101B2000002003F053FF002003F050FF002003F0DB
:101B30004DFFC12003F05CFF202003F047FF002091
:101B400003F044FF542003F041FF002003F03EFF68
:101B5000FF2003F03BFF002003F038FFC22003F01A
:101B600047FF0A2003F032FF002003F02FFF04207C
:101B700003F02CFF002003F029FFC32003F038FFFF
:101B80003C2003F023FF002003F020FF3A2003F065
:101B90001DFF002003F01AFF392003F017FF00207B
:101BA00003F014FF372003F011FF002003F00EFFB5
:101BB0003C2003F00BFF002003F008FF362003F069
:101BC00005FF002003F002FF322003F0FFFE00209B
:101BD00003F0FCFE2F2003F0F9FE002003F0F6FED8
:101BE0002C2003F0F3FE002003F0F0FE292003F088
:101BF000EDFE002003F0EAFE262003F0E7FE0020C1
:101C000003F0E4FE242003F0E1FE002003F0DEFEFA
:101C1000242003F0DBFE002003F0D8FE232003F095
:101C2000D5FE002003F0D2FE3C2003F0CFFE0020C2
:101C300003F0CCFE362003F0C9FE002003F0C6FE00
:101C4000322003F0C3FE002003F0C0FE2F2003F07B
:101C5000BDFE002003F0BAFE2C2003F0B7FE0020EA
:101C600003F0B4FE292003F0B1FE002003F0AEFE25
:101C7000262003F0ABFE002003F0A8FE242003F092
:101C8000A5FE002003F0A2FE242003F09FFE00200A
:101C900003F09CFE232003F099FE002003F096FE43
:101CA000C42003F0A5FE622003F090FE002003F0A4
:101CB0008DFE052003F08AFE002003F087FE8420BD
:101CC00003F084FE002003F081FEF02003F07EFE8E
:101CD000002003F07BFE182003F078FE002003F0C4
:101CE00075FEA42003F072FE002003F06FFE1820A2
:101CF00003F06CFE002003F069FE502003F066FE46
:101D0000002003F063FE0C2003F060FE002003F0CF
:101D10005DFE172003F05AFE002003F057FE9520C9
:101D200003F054FE002003F051FEF32003F04EFEBA
:101D3000002003F04BFEE62003F048FE002003F0F5
:101D400045FEC52003F054FE322003F03FFE002084
:101D500003F03CFE442003F039FE002003F036FE81
:101D6000652003F033FE002003F030FE762003F000
:101D70002DFE002003F02AFE882003F027FE00201D
:101D800003F024FEC62003F033FE202003F01EFEE5
:101D9000002003F01BFE172003F018FE002003F0C4
:101DA00015FE012003F012FE002003F00FFEC720F5
:101DB00003F01EFE002003F009FE002003F006FEE3
:101DC000002003F003FE002003F000FEC82003F013
:101DD0000FFE002003F0FAFD002003F0F7FD0020C5
:101DE00003F0F4FD002003F0F1FDC92003F000FE34
:101DF000002003F0EBFD002003F0E8FD002003F0DD
:101E0000E5FD002003F0E2FD002003F0DFFD0020EF
:101E100003F0DCFD002003F0D9FD002003F0D6FD27
:101E2000002003F0D3FD002003F0D0FD002003F0DC
:101E3000CDFD002003F0CAFD002003F0C7FD002007
:101E400003F0C4FD002003F0C1FD002003F0BEFD3F
:101E5000E02003F0CDFD162003F0B8FD002003F0D4
:101E6000B5FD1C2003F0B2FD002003F0AFFD2120E2
:101E700003F0ACFD002003F0A9FD362003F0A6FD21
:101E8000002003F0A3FD462003F0A0FD002003F096
:101E90009DFD522003F09AFD002003F097FD642081
:101EA00003F094FD002003F091FD7A2003F08EFDF5
:101EB000002003F08BFD8B2003F088FD002003F051
:101EC00085FD992003F082FD002003F07FFDA8200E
:101ED00003F07CFD002003F079FDB92003F076FDCE
:101EE000002003F073FDC42003F070FD002003F018
:101EF0006DFDCA2003F06AFD002003F067FDD220CB
:101F000003F064FD002003F061FDD92003F05EFDC5
:101F1000002003F05BFDE02003F058FD002003F0FB
:101F200055FDF32003F052FD002003F04FFDE120AA
:101F300003F05EFD162003F049FD002003F046FD8E
:101F40001C2003F043FD002003F040FD222003F09D
:101F50003DFD002003F03AFD362003F037FD002060
:101F600003F034FD452003F031FD002003F02EFD89
:101F7000522003F02BFD002003F028FD642003F025
:101F800025FD002003F022FD7A2003F01FFD002034
:101F900003F01CFD8B2003F019FD002003F016FD5B
:101FA000992003F013FD002003F010FDA82003F09A
:101FB0000DFD002003F00AFDB92003F007FD00200D
:101FC00003F004FDC42003F001FD002003F0FEFC3B
:101FD000CA2003F0FBFC002003F0F8FCD22003F041
:101FE000F5FC002003F0F2FCD82003F0EFFC002009
:101FF00003F0ECFCE02003F0E9FC002003F0E6FC39
:10200000F32003F0E3FC002003F0E0FCE22003F007
:10201000EFFC052003F0DAFC002003F0D7FC0B20D6
:1020200003F0D4FC002003F0D1FC1B2003F0CEFC15
:10203000002003F0CBFC342003F0C8FC002003F0A8
:10204000C5FC442003F0C2FC002003F0BFFC4F207D
:1020500003F0BCFC002003F0B9FC612003F0B6FCE7
:10206000002003F0B3FC792003F0B0FC002003F063
:10207000ADFC882003F0AAFC002003F0A7FC972009
:1020800003F0A4FC002003F0A1FCA62003F09EFCBA
:10209000002003F09BFCB72003F098FC002003F025
:1020A00095FCC22003F092FC002003F08FFCC720B7
:1020B00003F08CFC002003F089FCD12003F086FCA7
:1020C000002003F083FCD62003F080FC002003F006
:1020D0007DFCDD2003F07AFC002003F077FCF32088
:1020E00003F074FC002003F071FCE32003F080FC9B
:1020F000052003F06BFC002003F068FC0A2003F0CD
:1021000065FC002003F062FC1C2003F05FFC002053
:1021100003F05CFC332003F059FC002003F056FC74
:10212000442003F053FC002003F050FC502003F047
:102130004DFC002003F04AFC622003F047FC002025
:1021400003F044FC782003F041FC002003F03EFC47
:10215000882003F03BFC002003F038FC972003F0BC
:1021600035FC002003F032FCA62003F02FFC0020F9
:1021700003F02CFCB72003F029FC002003F026FC20
:10218000C22003F023FC002003F020FCC72003F052
:102190001DFC002003F01AFCD12003F017FC0020E6
:1021A00003F014FCD52003F011FC002003F00EFC1A
:1021B000DD2003F00BFC002003F008FCF32003F00B
:1021C00005FC002003F002FCE42003F011FC0120D8
:1021D00003F0FCFB002003F0F9FB012003F0F6FB09
:1021E000002003F0F3FB022003F0F0FB002003F0DB
:1021F000EDFB2A2003F0EAFB002003F0E7FB3C2084
:1022000003F0E4FB002003F0E1FB4B2003F0DEFBD6
:10221000002003F0DBFB5D2003F0D8FB002003F07F
:10222000D5FB742003F0D2FB002003F0CFFB842009
:1022300003F0CCFB002003F0C9FB932003F0C6FBA6
:10224000002003F0C3FBA22003F0C0FB002003F03A
:10225000BDFBB32003F0BAFB002003F0B7FBBE20A8
:1022600003F0B4FB002003F0B1FBC42003F0AEFB8D
:10227000002003F0ABFBCD2003F0A8FB002003F00F
:10228000A5FBD32003F0A2FB002003F09FFBDD2081
:1022900003F09CFB002003F099FBF32003F096FB76
:1022A000002003F093FBE52003F0A2FB002003F0E5
:1022B0008DFB002003F08AFB002003F087FB002049
:1022C00003F084FB022003F081FB002003F07EFB7F
:1022D000292003F07BFB002003F078FB3C2003F077
:1022E00075FB002003F072FB4B2003F06FFB002016
:1022F00003F06CFB5D2003F069FB002003F066FB3C
:10230000742003F063FB002003F060FB842003F0E3
:102310005DFB002003F05AFB932003F057FB0020E5
:1023200003F054FBA22003F051FB002003F04EFB0E
:10233000B32003F04BFB002003F048FBBE2003F06A
:1023400045FB002003F042FBC42003F03FFB0020CC
:1023500003F03CFBCD2003F039FB002003F036FBFB
:10236000D32003F033FB002003F030FBDC2003F02C
:102370002DFB002003F02AFBF32003F027FB0020B5
:1023800003F024FBE62003F033FB112003F01EFBD7
:10239000002003F01BFB342003F018FB002003F0A7
:1023A00015FB562003F012FB002003F00FFB7620F4
:1023B00003F00CFB002003F009FB772003F006FB81
:1023C000002003F003FB662003F000FB002003F075
:1023D000FDFA882003F0FAFA002003F0F7FA9920BA
:1023E00003F0F4FA002003F0F1FABB2003F0EEFA58
:1023F000002003F0EBFA992003F0E8FA002003F044
:10240000E5FA662003F0E2FA002003F0DFFA552037
:1024100003F0DCFA002003F0D9FA552003F0D6FAD5
:10242000002003F0D3FA452003F0D0FA002003F097
:10243000CDFA432003F0CAFA002003F0C7FA442083
:1024400003F0C4FA002003F0C1FAE72003F0D0FA49
:10245000322003F0BBFA002003F0B8FA552003F055
:10246000B5FA002003F0B2FA762003F0AFFA0020AC
:1024700003F0ACFA662003F0A9FA002003F0A6FAF4
:10248000672003F0A3FA002003F0A0FA672003F00E
:102490009DFA002003F09AFA872003F097FA0020B3
:1024A00003F094FA992003F091FA002003F08EFAD9
:1024B000BB2003F08BFA002003F088FA992003F088
:1024C00085FA002003F082FA772003F07FFA0020DB
:1024D00003F07CFA442003F079FA002003F076FA46
:1024E000562003F073FA002003F070FA232003F063
:1024F0006DFA002003F06AFA332003F067FA002037
:1025000003F064FA452003F061FA002003F05EFA5C
:10251000E82003F06DFA002003F058FA002003F0E1
:1025200055FA992003F052FA002003F04FFA872061
:1025300003F04CFA002003F049FA882003F046FA31
:10254000002003F043FA772003F040FA002003F064
:102550003DFA662003F03AFA002003F037FA8820AB
:1025600003F034FA002003F031FAAA2003F02EFA27
:10257000002003F02BFABB2003F028FA002003F020
:1025800025FA992003F022FA002003F01FFA6620B2
:1025900003F01CFA002003F019FA552003F016FA94
:1025A000002003F013FA552003F010FA002003F086
:1025B0000DFA442003F00AFA002003F007FA442041
:1025C00003F004FA002003F001FA552003F0FEF9AD
:1025D000002003F0FBF9E92003F00AFAAA2003F037
:1025E000F5F9002003F0F2F9002003F0EFF90020E4
:1025F00003F0ECF9002003F0FBF9AA2003F0E6F960
:10260000CF2003F0F5F9002003F0E0F9002003F0FB
:10261000DDF9002003F0DAF9002003F0D7F90020FB
:1026200003F0D4F9002003F0D1F9002003F0CEF933
:10263000002003F0CBF9002003F0C8F9002003F0DC
:10264000C5F9002003F0C2F9002003F0BFF9002013
:1026500003F0BCF9002003F0B9F9002003F0B6F94B
:10266000002003F0B3F9002003F0B0F9F02003F0EC
:10267000BFF9002003F0AAF9502003F0A7F90020C9
:1026800003F0A4F9002003F0A1F9002003F09EF963
:10269000F32003F0ADF9002003F098F9F92003F0DE
:1026A000A7F9062003F092F9102003F08FF92920F2
:1026B00003F08CF9002003F089F93A2003F098F92F
:1026C000552003F083F9112003F092F9642004F0FF
:1026D00049FA292003F08CF9352003F089F900200C
:1026E00003F074F9512003F083F9FF2003F06EF931
:1026F000532003F07DF92C2003F068F9552003F0F6
:1027000077F9822003F062F92C2003F071F902F0CE
:1027100066BBFE48808845F2105188427ED1552123
:102720004FF4704003F07EF9AA214FF2010003F04C
:1027300079F952214FF2020003F074F908214FF2A7
:10274000030003F06FF901214FF2040003F06AF96E
:102750000D214FF4304003F065F90D214BF20100DB
:1027600003F060F90D214BF2020003F05BF9342114
:102770004FF4364003F056F934214BF2016003F078
:1027800051F934214BF2026003F04CF90D214FF462
:10279000314003F047F90D214BF2011003F042F9EB
:1027A0000D214BF2021003F03DF934214FF4374074
:1027B00003F038F934214BF2017003F033F934217E
:1027C0004BF2027003F02EF900214FF4324003F077
:1027D00029F900214BF2012003F024F900214BF2EA
:1027E000022003F01FF924214FF4384003F01AF9B6
:1027F00024214BF6010003F015F924214BF60200C9
:1028000003F010F901214FF43F4003F00BF90F21C1
:102810004FF4334003F006F90F2100E0FEE34BF2E2
:10282000013003F0FFF80F214BF2023003F0FAF809
:1028300034214FF4394003F0F5F834214BF6011000
:1028400003F0F0F834214BF6021003F0EBF8082106
:102850004FF4354003F0E6F808214BF2015003F045
:10286000E1F808214BF2025003F0DCF803214FF4A9
:10287000424003F0D7F824214FF43A4003F0D2F855
:1028800024214BF6012003F0CDF824214BF6022041
:1028900003F0C8F800214FF43C4003F0C3F878215E
:1028A0004BF6014003F0BEF800214BF6024003F066
:1028B000B9F800214FF43D4003F0B4F878214BF60D
:1028C000015003F0AFF800214BF6025003F0AAF8D4
:1028D00000214FF43E4003F0A5F864214BF601605F
:1028E00003F0A0F800214FF4514003F09BF833218E
:1028F0004DF2011003F096F800214DF2021003F0A2
:1029000091F834214DF2031003F08CF800214DF2C0
:10291000041003F087F83A214DF2051003F082F815
:1029200000214DF2061003F07DF84A214DF2071008
:1029300003F078F800214DF2081003F073F85C21E1
:102940004DF2091003F06EF800214DF20A1003F069
:1029500069F881214DF20B1003F064F800214DF26B
:102960000C1003F05FF8A6214DF20D1003F05AF899
:1029700000214DF20E1003F055F8E5214DF20F1035
:1029800003F050F801214DF2101003F04BF8132121
:102990004DF2111003F046F801214DF2121003F030
:1029A00041F854214DF2131003F03CF801214DF28F
:1029B000141003F037F882214DF2151003F032F8AD
:1029C00001214DF2161003F02DF8CA214DF2171017
:1029D00003F028F802214DF2181003F023F800212B
:1029E0004DF2191003F01EF802214DF21A1003F0F7
:1029F00019F801214DF21B1003F014F802214DF2D9
:102A00001C1003F00FF834214DF21D1003F00AF8EA
:102A100002214DF21E1003F005F867214DF21F1040
:102A200003F000F802214DF2201002F0FBFF842198
:102A30004DF2211002F0F6FF02214DF2221002F0B9
:102A4000F1FFA4214DF2231002F0ECFF02214DF220
:102A5000241002F0E7FFB7214DF2251002F0E2FF4B
:102A600002214DF2261002F0DDFFCF214DF227109A
:102A700002F0D8FF02214DF2281002F0D3FFDE2130
:102A80004DF2291002F0CEFF02214DF22A1002F081
:102A9000C9FFF2214DF22B1002F0C4FF02214DF2CA
:102AA0002C1002F0BFFFFE214DF22D1002F0BAFFF4
:102AB00003214DF22E1002F0B5FF10214DF22F1020
:102AC00002F0B0FF03214DF2301002F0ABFF3321D2
:102AD0004DF2311002F0A6FF03214DF2321002F048
:102AE000A1FF6D214DF2331002F09CFF00214FF445
:102AF000524002F097FF33214DF2012002F092FF85
:102B000000214DF2022002F08DFF01E03000002094
:102B100034214DF2032002F085FF00214DF2042004
:102B200002F080FF3A214DF2052002F07BFF0021E8
:102B30004DF2062002F076FF4A214DF2072002F006
:102B400071FF00214DF2082002F06CFF5C214DF274
:102B5000092002F067FF00214DF20A2002F062FF17
:102B600081214DF20B2002F05DFF00214DF20C207F
:102B700002F058FFA6214DF20D2002F053FF002174
:102B80004DF20E2002F04EFFE5214DF20F2002F033
:102B900049FF01214DF2102002F044FF13214DF2B4
:102BA000112002F03FFF01214DF2122002F03AFF06
:102BB00054214DF2132002F035FF01214DF2142073
:102BC00002F030FF82214DF2152002F02BFF01218F
:102BD0004DF2162002F026FFCA214DF2172002F016
:102BE00021FF02214DF2182002F01CFF00214DF2BE
:102BF000192002F017FF02214DF21A2002F012FFF5
:102C000001214DF21B2002F00DFF02214DF21C208C
:102C100002F008FF34214DF21D2002F003FF0221D3
:102C20004DF21E2002F0FEFE67214DF21F2002F041
:102C3000F9FE02214DF2202002F0F4FE84214DF233
:102C4000212002F0EFFE02214DF2222002F0EAFEE6
:102C5000A4214DF2232002F0E5FE02214DF22420B2
:102C600002F0E0FEB7214DF2252002F0DBFE02214A
:102C70004DF2262002F0D6FECF214DF2272002F0A1
:102C8000D1FE02214DF2282002F0CCFEDE214DF2D1
:102C9000292002F0C7FE02214DF22A2002F0C2FED6
:102CA000F2214DF22B2002F0BDFE02214DF22C202C
:102CB00002F0B8FEFE214DF22D2002F0B3FE0321FA
:102CC0004DF22E2002F0AEFE10214DF22F2002F028
:102CD000A9FE03214DF2302002F0A4FE33214DF273
:102CE000312002F09FFE03214DF2322002F09AFEC5
:102CF0006D214DF2332002F095FE00214FF4534038
:102D000002F090FE33214DF2013002F08BFE0021E3
:102D10004DF2023002F086FE34214DF2033002F013
:102D200081FE00214DF2043002F07CFE3A214DF28A
:102D3000053002F077FE00214DF2063002F072FEFF
:102D40004A214DF2073002F06DFE00214DF20830AD
:102D500002F068FE5C214DF2093002F063FE0021B2
:102D60004DF20A3002F05EFE81214DF20B3002F08E
:102D700059FE00214DF20C3002F054FEA6214DF216
:102D80000D3002F04FFE00214DF20E3002F04AFEEF
:102D9000E5214DF20F3002F045FE01214DF21030D9
:102DA00002F040FE13214DF2113002F03BFE0121F2
:102DB0004DF2123002F036FE54214DF2133002F083
:102DC00031FE01214DF2143002F02CFE82214DF231
:102DD000153002F027FE01214DF2163002F022FEDE
:102DE000CA214DF2173002F01DFE02214DF21830BB
:102DF00002F018FE00214DF2193002F013FE0221FC
:102E00004DF21A3002F00EFE01214DF21B3002F09D
:102E100009FE02214DF21C3002F004FE34214DF275
:102E20001D3002F0FFFD02214DF21E3002F0FAFDCE
:102E300067214DF21F3002F0F5FD02214DF22030E6
:102E400002F0F0FD84214DF2213002F0EBFD022171
:102E50004DF2223002F0E6FDA4214DF2233002F0C3
:102E6000E1FD02214DF2243002F0DCFDB7214DF2EC
:102E7000253002F0D7FD02214DF2263002F0D2FDBE
:102E8000CF214DF2273002F0CDFD02214DF2283046
:102E900002F0C8FDDE214DF2293002F0C3FD02210F
:102EA0004DF22A3002F0BEFDF2214DF22B3002F03D
:102EB000B9FD02214DF22C3002F0B4FDFE214DF29D
:102EC0002D3002F0AFFD03214DF22E3002F0AAFDAD
:102ED00010214DF22F3002F0A5FD03214DF23030CC
:102EE00002F0A0FD33214DF2313002F09BFD0321B1
:102EF0004DF2323002F096FD6D214DF2333002F08A
:102F000091FD00214FF4544002F08CFD33214DF22D
:102F1000014002F087FD00214DF2024002F082FDE7
:102F200034214DF2034002F07DFD00214DF20440BA
:102F300002F078FD3A214DF2054002F073FD0021C8
:102F40004DF2064002F06EFD4A214DF2074002F0BC
:102F500069FD00214DF2084002F064FD5C214DF254
:102F6000094002F05FFD00214DF20A4002F05AFDD7
:102F700081214DF20B4002F055FD00214DF20C4035
:102F800002F050FDA6214DF20D4002F04BFD002154
:102F90004DF20E4002F046FDE5214DF20F4002F0E9
:102FA00041FD01214DF2104002F03CFD13214DF294
:102FB000114002F037FD01214DF2124002F032FDC6
:102FC00054214DF2134002F02DFD01214DF2144029
:102FD00002F028FD82214DF2154002F023FD01216F
:102FE0004DF2164002F01EFDCA214DF2174002F0CC
:102FF00019FD02214DF2184002F014FD00214DF29E
:10300000194002F00FFD02214DF21A4002F00AFDB4
:1030100001214DF21B4002F005FD00E004E3022116
:103020004DF21C4002F0FEFC34214DF21D4002F036
:10303000F9FC02214DF21E4002F0F4FC67214DF232
:103040001F4002F0EFFC02214DF2204002F0EAFCAA
:1030500084214DF2214002F0E5FC02214DF2224094
:1030600002F0E0FCA4214DF2234002F0DBFC02213F
:103070004DF2244002F0D6FCB7214DF2254002F07B
:10308000D1FC02214DF2264002F0CCFCCF214DF2C2
:10309000274002F0C7FC02214DF2284002F0C2FC9A
:1030A000DE214DF2294002F0BDFC02214DF22A4002
:1030B00002F0B8FCF2214DF22B4002F0B3FC0221E9
:1030C0004DF22C4002F0AEFCFE214DF22D4002F0FC
:1030D000A9FC03214DF22E4002F0A4FC10214DF278
:1030E0002F4002F09FFC03214DF2304002F09AFC89
:1030F00033214DF2314002F095FC03214DF2324074
:1031000002F090FC6D214DF2334002F08BFC002167
:103110004FF4554002F086FC33214DF2015002F08D
:1031200081FC00214DF2025002F07CFC34214DF272
:10313000035002F077FC00214DF2045002F072FCC3
:103140003A214DF2055002F06DFC00214DF206507F
:1031500002F068FC4A214DF2075002F063FC0021A6
:103160004DF2085002F05EFC5C214DF2095002F075
:1031700059FC00214DF20A5002F054FC81214DF21D
:103180000B5002F04FFC00214DF20C5002F04AFCB3
:10319000A6214DF20D5002F045FC00214DF20E50DB
:1031A00002F040FCE5214DF20F5002F03BFC012102
:1031B0004DF2105002F036FC13214DF2115002F086
:1031C00031FC01214DF2125002F02CFC54214DF241
:1031D000135002F027FC01214DF2145002F022FCA2
:1031E00082214DF2155002F01DFC01214DF21650C6
:1031F00002F018FCCA214DF2175002F013FC022114
:103200004DF2185002F00EFC00214DF2195002F060
:1032100009FC02214DF21A5002F004FC01214DF28A
:103220001B5002F0FFFB02214DF21C5002F0FAFB92
:1032300034214DF21D5002F0F5FB02214DF21E50DB
:1032400002F0F0FB67214DF21F5002F0EBFB022170
:103250004DF2205002F0E6FB84214DF2215002F0A5
:10326000E1FB02214DF2225002F0DCFBA4214DF2E1
:10327000235002F0D7FB02214DF2245002F0D2FB82
:10328000B7214DF2255002F0CDFB02214DF2265020
:1032900002F0C8FBCF214DF2275002F0C3FB022100
:1032A0004DF2285002F0BEFBDE214DF2295002F013
:1032B000B9FB02214DF22A5002F0B4FBF2214DF28B
:1032C0002B5002F0AFFB02214DF22C5002F0AAFB72
:1032D000FE214DF22D5002F0A5FB03214DF22E50A0
:1032E00002F0A0FB10214DF22F5002F09BFB0321B6
:1032F0004DF2305002F096FB33214DF2315002F086
:1033000091FB03214DF2325002F08CFB6D214DF206
:10331000335002F087FB00214FF4564002F082FB4D
:1033200033214DF2016002F07DFB00214DF202607D
:1033300002F078FB34214DF2036002F073FB0021B0
:103340004DF2046002F06EFB3A214DF2056002F08E
:1033500069FB00214DF2066002F064FB4A214DF248
:10336000076002F05FFB00214DF2086002F05AFB9B
:103370005C214DF2096002F055FB00214DF20A601C
:1033800002F050FB81214DF20B6002F04BFB00215B
:103390004DF20C6002F046FBA6214DF20D6002F0EA
:1033A00041FB00214DF20E6002F03CFBE5214DF2A5
:1033B0000F6002F037FB01214DF2106002F032FB8A
:1033C00013214DF2116002F02DFB01214DF212602C
:1033D00002F028FB54214DF2136002F023FB01217F
:1033E0004DF2146002F01EFB82214DF2156002F0D6
:1033F00019FB01214DF2166002F014FBCA214DF2B7
:10340000176002F00FFB02214DF2186002F00AFB78
:1034100000214DF2196002F005FB02214DF21A6005
:1034200002F000FB01214DF21B6002F0FBFA0221C9
:103430004DF21C6002F0F6FA34214DF21D6002F0EC
:10344000F1FA02214DF21E6002F0ECFA67214DF212
:103450001F6002F0E7FA02214DF2206002F0E2FA6A
:1034600084214DF2216002F0DDFA02214DF222604A
:1034700002F0D8FAA4214DF2236002F0D3FA02211F
:103480004DF2246002F0CEFAB7214DF2256002F031
:10349000C9FA02214DF2266002F0C4FACF214DF2A2
:1034A000276002F0BFFA02214DF2286002F0BAFA5A
:1034B000DE214DF2296002F0B5FA02214DF22A60B8
:1034C00002F0B0FAF2214DF22B6002F0ABFA0221C9
:1034D0004DF22C6002F0A6FAFE214DF22D6002F0B2
:1034E000A1FA03214DF22E6002F09CFA10214DF258
:1034F0002F6002F097FA03214DF2306002F092FA49
:1035000033214DF2316002F08DFA03214DF2326029
:1035100002F088FA6D214DF2336002F083FA5521F2
:103520004FF4704002F07EFAAA214FF2010002F03F
:1035300079FA52214FF2020002F074FA08214FF298
:10354000030002F06FFA00214FF2040002F06AFA61
:10355000CC214FF4314002F065FA00214BF201100A
:1035600002F060FA05214FF4364002F05BFA702158
:103570004FF4374002F056FA70214BF2017002F01E
:1035800051FA01214FF4384002F04CFA03214BF676
:10359000010002F047FA03214BF6020002F042FA62
:1035A00003214BF6030002F03DFA02214FF43C40A8
:1035B00002F038FA00214BF6014002F033FA002104
:1035C0004BF6024002F02EFAD0214FF4494002F0AF
:1035D00029FA02214CF6011002F024FA50214CF68F
:1035E000021002F01FFA50214CF6031002F01AFAF2
:1035F00050214CF6041002F015FA00214FF45450FB
:1036000002F010FA55214FF4685002F00BFA4FF413
:10361000885002F0EDF9782003F0CAFA4FF42450F4
:1036200002F0E6F901F0DBBBFE48808849F2253163
:1036300088427DD147F6F001E52002F0F3F94FF41E
:103640008071012002F0EEF94FF4E061022002F0F7
:10365000E9F941F23001032002F0E4F900210420ED
:1036600002F0E0F940F20221082002F0DBF900212B
:10367000092002F0D7F900210A2002F0D3F9002135
:103680000C2002F0CFF900210D2002F0CBF900212F
:103690000F2002F0C7F90021102002F0C3F9072122
:1036A000112002F0BFF90021122002F0BBF9002125
:1036B000132002F0B7F90021072002F0B3F941F21C
:1036C0009061102002F0AEF940F22721112002F0A3
:1036D000A9F99D21122002F0A5F94FF4C851132039
:1036E00002F0A0F92521292002F09CF90D212B20C0
:1036F00002F098F90721302002F094F940F20331EA
:10370000312002F08FF90321322002F08BF940F2D0
:103710000621352002F086F90821362002F082F9D0
:1037200040F20641372002F07DF94FF4417100E08C
:1037300058E0382002F076F90721392002F072F9BA
:1037400040F202613C2002F06DF908213D2002F0B8
:1037500069F90021502002F065F9EF21512002F0B3
:1037600061F90021522002F05DF940F23F1153202F
:1037700002F058F94FF42741602002F053F901217B
:10378000612002F04FF900216A2002F04BF900217C
:10379000802002F047F90021812002F043F9002146
:1037A000822002F03FF90021832002F03BF9002142
:1037B000842002F037F90021852002F033F910212E
:1037C000902002F02FF94FF4C061922002F02AF904
:1037D00040F23311072002F025F92221002002F0E7
:1037E00021F91FE78F48808849F2283188427DD12E
:1037F00041F28F01EC2002F015F941F23421EF2063
:1038000002F010F94FF48071012002F00BF94FF42F
:10381000E061022002F006F941F23001032002F0DB
:1038200001F90021042002F0FDF840F202210820F5
:1038300002F0F8F80021092002F0F4F800210A2033
:1038400002F0F0F801210C2002F0ECF800210D202C
:1038500002F0E8F800210F2002F0E4F80021102027
:1038600002F0E0F80721112002F0DCF8002112201C
:1038700002F0D8F80021132002F0D4F8012107202B
:1038800002F0D0F8322003F06DF941F2904110209F
:1038900002F0C8F840F22721112002F0C3F83220CC
:1038A00003F060F98A21122002F0BCF8322003F004
:1038B00059F94FF4D051132002F0B4F80621292011
:1038C00002F0B0F80D212B2002F0ACF8322003F00A
:1038D00049F90021202002F0A5F80021212002F062
:1038E000A1F8322003F03EF9002100E075E030201D
:1038F00002F098F840F20461312002F093F840F2AF
:103900000531322002F08EF80021352002F08AF8CD
:1039100040F60941362002F085F84FF40171372056
:1039200002F080F840F20131382002F07BF840F2DA
:103930000771392002F076F800213C2002F072F87D
:1039400040F60A213D2002F06DF8322003F00AF91A
:103950000021502002F066F8EF21512002F062F8B9
:103960000021522002F05EF840F23F11532002F095
:1039700059F84FF42741602002F054F801216120EA
:1039800002F050F800216A2002F04CF8002180205B
:1039900002F048F80021812002F044F80021822042
:1039A00002F040F80021832002F03CF8002184203E
:1039B00002F038F80021852002F034F81021902020
:1039C00002F030F84FF4C061922002F02BF840F280
:1039D0003311072002F026F824E61248808849F2C5
:1039E000203188427ED10021084602F01BF84FF4B6
:1039F0008071012002F016F84FF4E061022002F01D
:103A000011F841F23001032002F00CF800210420EB
:103A100002F008F840F20221082002F003F8002129
:103A2000092001E03000002001F0FCFF00210A2005
:103A300001F0F8FF01210C2001F0F4FF00210D201E
:103A400001F0F0FF00210F2001F0ECFF322003F025
:103A500089F840F20111072001F0E4FF322003F061
:103A600081F84FF48651102001F0DCFF072111206E
:103A700001F0D8FF4FF48871122001F0D3FF4FF40A
:103A80003061132001F0CEFF0021292001F0CAFF90
:103A900044F210012B2001F0C5FF0021502001F05D
:103AA000C1FFEF21512001F0BDFF0021522001F0A4
:103AB000B9FF40F23F11532001F0B4FF4FF41C5105
:103AC000602001F0AFFF0121612001F0ABFF002178
:103AD0006A2001F0A7FF0021802001F0A3FF002150
:103AE000812000E030E001F09DFF0021822001F004
:103AF00099FF0021832001F095FF0021842001F02F
:103B000091FF0021852001F08DFF1021902001F010
:103B100089FF0021922001F085FF0121932001F00F
:103B200081FF4FF48871952001F07CFF00219720E0
:103B300001F078FF0021982001F074FF40F273112A
:103B4000072001F06FFF6DE5FE48808849F23131B2
:103B500088427DD141F21401E72001F063FF4FF468
:103B60008071012001F05EFF4FF40071022001F02E
:103B700059FF41F23801032001F054FF40F20221C5
:103B8000082001F04FFF0021092001F04BFF002128
:103B90000A2001F047FF00210C2001F043FF002123
:103BA0000D2001F03FFF00210F2001F03BFF00211D
:103BB000102001F037FF0721112001F033FF002111
:103BC000122001F02FFF0021132001F02BFFC8204D
:103BD00002F0C8FF41F29061102001F023FF40F293
:103BE0002721112001F01EFF322002F0BBFF0C2123
:103BF000122001F017FF322002F0B4FF4FF40061F1
:103C0000132001F00FFF1121292001F00BFF0B21E0
:103C10002B2001F007FF322002F0A4FF002120201A
:103C200001F000FF40F23F11212001F0FBFE0021D6
:103C3000302001F0F7FE4FF48371312001F0F2FEE5
:103C40000021322001F0EEFE4FF40171352000E03A
:103C500064E001F0E7FE41F20A61362001F0E2FE85
:103C600040F20771372001F0DDFE4FF483713820F8
:103C700001F0D8FE40F20771392001F0D3FE40F286
:103C800002413C2001F0CEFE40F60F413D2001F004
:103C9000C9FE0021502001F0C5FEEF21512001F0A6
:103CA000C1FE0021522001F0BDFE40F23F11532021
:103CB00001F0B8FE4FF41C51602001F0B3FE012169
:103CC000612001F0AFFE00216A2001F0ABFE00216F
:103CD000802001F0A7FE0021812001F0A3FE002139
:103CE000822001F09FFE0021832001F09BFE002135
:103CF000842001F097FE0021852001F093FE102121
:103D0000902001F08FFE4FF4C061922001F08AFEF6
:103D100040F23311072001F085FE83E48948808852
:103D200045F2084188427DD14FF48071012001F0B5
:103D300079FE4FF4E061022001F074FE41F230019F
:103D4000032001F06FFE0021042001F06BFE40F221
:103D50000721082001F066FE0021092001F062FE23
:103D600000210A2001F05EFE00210C2001F05AFE25
:103D700000210D2001F056FE00210F2001F052FE1F
:103D8000142002F0EFFE41F2B061102001F04AFE73
:103D90000121112001F046FE0121172001F042FE11
:103DA0004FF49C71122001F03DFE4FF4006113208E
:103DB00001F038FE0921292001F034FE09212A20D2
:103DC00001F030FE0021A42001F02CFE0021502043
:103DD00001F028FEEF21512001F024FE00215220A5
:103DE00001F020FE40F23F11532001F01BFE4FF482
:103DF0001C51602001F016FE0121612001F012FE2D
:103E000000216A2001F00EFE0021802001F00AFE50
:103E10000021812001F006FE0021822001F002FE37
:103E2000002100E024E0832001F0FCFD002184203B
:103E300001F0F8FD0021852001F0F4FD1321902010
:103E400001F0F0FD0021922001F0ECFD0321932010
:103E500001F0E8FD4FF48871952001F0E3FD40F298
:103E60007311072001F0DEFD322002F07BFEB8E482
:103E70003448808841F2055188427DD100210720D5
:103E800001F0D0FD322002F06DFE4FF48E71122051
:103E900001F0C8FD0121A42001F0C4FD0F2108207C
:103EA00001F0C0FD08210A2001F0BCFD08210D2011
:103EB00001F0B8FD40F20771302001F0B3FD072199
:103EC000312001F0AFFD40F20361322001F0AAFD84
:103ED0004FF4E061332001F0A5FD40F202213420CF
:103EE00001F0A0FD0221352001F09CFD41F60F718B
:103EF000362001F097FD40F20771372001F092FD66
:103F00000021382001F08EFD0021392001F08AFDCA
:103F100040F207713A2001F085FD00213B2001F0BD
:103F200081FD07213C2001F07DFD00213D2001F0B5
:103F300079FD322002F016FE0121072001F072FD0A
:103F4000012101E030000020172001F06BFD32203C
:103F500002F008FE4FF4BD51102001F063FD40F265
:103F60001721112001F05EFD4FF48F71122001F036
:103F700059FD4FF4706100E098E0132001F052FD0C
:103F800000212A2001F04EFD0A21292001F04AFDDE
:103F90004FF49F71122001F045FD0021502001F0E7
:103FA00041FDEF21512001F03DFD0021522001F0A3
:103FB00039FD40F23F11532001F034FD4FF41C5104
:103FC000602001F02FFD0121612001F02BFD002177
:103FD0006A2001F027FD0021802001F023FD00214F
:103FE000812001F01FFD0021822001F01BFD002136
:103FF000832001F017FD0021842001F013FD002132
:10400000852001F00FFD1321902001F00BFD4FF4EE
:104010004071922001F006FD0521932001F002FD80
:104020000021952001F0FEFC0021972001F0FAFC10
:104030000021982001F0F6FC4FF48071012001F07E
:10404000F1FC4FF4E061022001F0ECFC41F2380198
:10405000032001F0E7FC0021042001F0E3FC002133
:104060000C2001F0DFFC00210F2001F0DBFC00211F
:10407000202001F0D7FC0021212001F0D3FC2121D8
:10408000072001F0CFFC142002F06CFD6121072015
:1040900001F0C8FC142002F065FD40F27311072006
:1040A00001F0C0FC142002F05DFD95E4FE4880881C
:1040B0004BF2055188427CD10021084601F0B2FC48
:1040C0000021084601F0AEFC0021084601F0AAFCE0
:1040D0000021084601F0A6FC0121A42001F0A2FC69
:1040E000142002F03FFD4FF41C51602001F09AFCB7
:1040F00040F20221082001F095FC4FF405713020B8
:1041000001F090FC43F21571312001F08BFC40F27C
:104110000461322001F086FC40F61661332001F084
:1041200081FC42F21121342001F07CFC4FF4A851B3
:10413000352001F077FC48F20751362001F072FC7F
:1041400041F20741372001F06DFC41F20341382074
:1041500001F068FC2021392001F064FC1A21902034
:1041600001F060FC0021102001F05CFC072111200F
:1041700001F058FC0021122001F054FC0021132012
:1041800001F050FC142002F0EDFC4FF4E661102029
:1041900001F048FC40F23711112001F043FC1420DB
:1041A00002F0E0FC4FF4DC71122001F03BFC142023
:1041B00000E085E002F0D6FC4FF47061132001F0BE
:1041C00031FC80212A2001F02DFC4821292001F01A
:1041D00029FC142002F0C6FC4FF48071012001F08C
:1041E00021FC4FF4E061022001F01CFC41F2380197
:1041F000032001F017FC40F20221082001F012FC1C
:1042000000210A2001F00EFC00210C2001F00AFC24
:1042100000210D2001F006FC30210E2001F002FCEF
:104220000021502001F0FEFBEF21512001F0FAFBAC
:104230000021522001F0F6FB40F23F11532001F023
:10424000F1FB4FF41C51602001F0ECFB01216120D7
:1042500001F0E8FB00216A2001F0E4FB112190202D
:1042600001F0E0FB4FF4C061922001F0DBFB40F273
:104270000241932001F0D6FB0221942001F0D2FBF1
:10428000142002F06FFC0121072001F0CBFB142069
:1042900002F068FC6121072001F0C4FB40F27311B9
:1042A000072001F0BFFB0021202001F0BBFB002113
:1042B000212001F0B7FB2221002001F0B3FB42E4F2
:1042C000794880884CF2055188427CD1002108460B
:1042D00001F0A8FB0021084601F0A4FB142002F025
:1042E00041FC0021084601F09DFB0021084601F039
:1042F00099FB0021084601F095FB0021084601F0DA
:1043000091FB0121A42001F08DFB142002F02AFC76
:104310004FF41C51602001F085FB40F60601082097
:1043200001F080FB40F20371302001F07BFB0121A2
:10433000312001F077FB0421322001F073FB4FF4B0
:104340008171332001F06EFB4FF44071342001F095
:1043500069FB40F20311352001F064FB1F21362078
:1043600001F060FB40F20371372001F05BFB01219B
:10437000382001F057FB0421392001F053FB1521AF
:10438000902001F04FFB4FF48261102001F04AFBB6
:1043900040F24721112001F045FB4FF4DE7112205D
:1043A00001F040FB4FF46061132001F03BFB7820EB
:1043B00002F0D8FB4FF48071012001F033FB4FF481
:1043C0000071022000E052E001F02CFB41F23001CC
:1043D000032001F027FB08210A2001F023FB002124
:1043E0000C2001F01FFB20210E2001F01BFB0021FF
:1043F0000F2001F017FB0021202001F013FB00210A
:10440000212001F00FFB3D212A2001F00BFB14209D
:1044100002F0A8FB2D21292001F004FB00215020EF
:1044200001F000FB4DF2EF01512001F0FBFA0021F9
:10443000522001F0F7FA40F23F11532001F0F2FA56
:104440000021612001F0EEFA00216A2001F0EAFA71
:104450004FF44071922001F0E5FA0521932001F01C
:10446000E1FA4FF48071072001F0DCFA55E40E48C0
:10447000808848F6891188427ED10121002001F010
:10448000D1FA4AF6A401032001F0CCFA00210C2055
:1044900001F0C8FA40F60C010D2001F0C3FA4FF408
:1044A0002C510E2002E000003000002001F0BAFA8A
:1044B000B0211E2001F0B6FA42F63F31012001F092
:1044C000B1FA4FF4C061022001F0ACFA00211020D3
:1044D00001F0A8FA46F27801112001F0A3FA0021B8
:1044E000052001F09FFA0021062001F09BFA4EF60C
:1044F0001C71162001F096FA0321172001F092FAA0
:1045000040F23321072001F08DFA00210B2001F049
:1045100089FA00210F2001F085FA0021412001F0E5
:1045200081FA0021422001F07DFA0021482001F0AB
:1045300079FA40F23F11492001F074FA00214A2033
:1045400001F070FA00214B2001F06CFA4FF46F413A
:10455000442001F067FA0021452001F063FA40F29F
:104560003F11462001F05EFA40F20771302001F061
:1045700059FA4FF4017100E040E0312001F052FAA5
:104580004FF40171322001F04DFA40F20251332014
:1045900001F048FA40F20751342001F043FA4FF499
:1045A0000171352001F03EFA4FF40171362001F01F
:1045B00039FA40F20251372001F034FA40F2023168
:1045C0003A2001F02FFA40F202313B2001F02AFAA2
:1045D0000021232001F026FA0021242001F022FAF4
:1045E0004FF40041252001F01DFA00214F2001F079
:1045F00019FA00214E2001F015FAF0E3FE488088F8
:1046000044F2315188427DD10121002001F00AFAA3
:104610000A2002F0A7FA41F22861102001F002FA04
:104620000E21122001F0FEF940F63921132001F08D
:10463000F9F90A2002F096FA4021112001F0F2F96E
:104640005021152001F0EEF90A2002F08BFA1E210C
:10465000122001F0E7F90A2002F084FA4FF4B15178
:10466000102001F0DFF942F63921132001F0DAF9C8
:104670000A2002F077FA4FF48071012001F0D2F99C
:104680004FF44071022001F0CDF941F238010320CE
:1046900001F0C8F940F20221082001F0C3F9082115
:1046A0000A2001F0BFF90021302001F0BBF940F2EF
:1046B0000241312001F0B6F94FF48371322001F04C
:1046C000B1F940F20351332001F0ACF94FF482719B
:1046D000342001F0A7F940F20131352001F0A2F9B0
:1046E00040F20771362001F09DF940F20531372084
:1046F00001F098F94FF40271382001F093F940F677
:104700000B7100E03CE0392001F08CF902214120DE
:1047100001F088F94FF41C51602001F083F9012168
:10472000612001F07FF94FF40471902001F07AF9D3
:104730004FF48571922001F075F90421932001F066
:1047400071F94FF48071A02001F06CF9012107206C
:1047500001F068F92121072001F064F923210720E5
:1047600001F060F93321072001F05CF940F23311C8
:10477000072001F057F90021A02001F053F92EE3A2
:104780009D48808844F2355188427CD130211520E3
:1047900001F048F910219A2001F044F9202111205C
:1047A00001F040F943F22841102001F03BF90221C9
:1047B000122001F037F941F23801132001F032F9EB
:1047C000282002F0CFF91221084601F02BF9282009
:1047D00002F0C8F943F22041102001F023F943F21E
:1047E0003801132001F01EF9462002F0BBF9002128
:1047F000302001F017F940F20241312001F012F9A6
:1048000040F20731322001F00DF94FF441713320AD
:1048100001F008F90421342001F004F940F20141CB
:10482000352001F0FFF840F20771362001F0FAF868
:1048300040F20531372001F0F5F84FF4C26138201D
:1048400001F0F0F84FF4C261392001F0EBF84FF4B9
:104850008071012001F0E6F84FF44071022001F070
:10486000E1F841F23001032001F0DCF840F60801E4
:10487000082001F0D7F808210A2001F0D3F84FF4FE
:104880001C51602000E033E001F0CCF801216120F0
:1048900001F0C8F84FF49F71902001F0C3F84FF475
:1048A0008071922001F0BEF84FF48071932001F0E6
:1048B000B9F84FF44051A02001F0B4F81021A32022
:1048C00001F0B0F80121072001F0ACF82121072008
:1048D00001F0A8F82321072001F0A4F833210720D4
:1048E00001F0A0F840F23311072001F09BF876E2C6
:1048F0004148808841F663118842F8D1E22001F0F6
:1049000077F84FF480703D490861400048611D20F0
:104910003B4908608020394948610861800008618E
:10492000401008614000486102203549086080203D
:104930003249486108618000086140100861400008
:10494000486104202E49086080202C494861086194
:1049500080000861642002F02BF9E02001F048F8A3
:104960004FF48070254908614000486101202449C6
:1049700008608020214948610861800008610A20A0
:1049800002F0F0F8E02001F033F84FF480701B499A
:1049900008614000486103201949086080201749D8
:1049A00048610861800008610C2002F0DBF80120FA
:1049B00001F01EF80A2002F0D5F8E62001F018F800
:1049C0004FF480700D490861400048612F200C4968
:1049D0000860802009494861086180000861401032
:1049E000086140004861FF200549086080200349B4
:1049F00048610861800005E030000020001001409F
:104A00000C0C014008614010086140004861FF2023
:104A1000F84908608020F849486108618000086111
:104A2000B02000F0E5FF4FF48070F34908614000CA
:104A300048612020EF4908608020EF494861086103
:104A40008000086140100861400048610020E94989
:104A500008608020E84948610861800008614010D2
:104A60000861400048610320E24908608020E24973
:104A70004861086180000861401008614000486199
:104A800040F21F30DB4908608020DB494861086143
:104A90008000086140100861400048610120D5494C
:104AA00008608020D4494861086180000861401096
:104AB00008614000486140F2DF10CE490860802064
:104AC000CD494861086180000861401008614000DC
:104AD00048610020C74908608020C74948610861D3
:104AE00080000861B42000F083FF4FF48070C24959
:104AF0000861400048610420BE4908608020BE492A
:104B00004861086180000861401008614000486108
:104B100040F21F40B74908608020B74948610861EA
:104B20008000086140100861400048610020B149E0
:104B300008608020B0494861086180000861401029
:104B40000861400048612E20AA4908608020AA49D7
:104B500048610861800008614010086140004861B8
:104B60000020A44908608020A349486108618000B2
:104B70000861401008614000486100209D490860BC
:104B800080209D49486108618000086140100861EB
:104B9000400048610020974908608020964948619C
:104BA00008618000086140100861400048610020F1
:104BB0009049086080209049486108618000086140
:104BC000B62000F015FF4FF480708B49086140005B
:104BD0004861022087490860802087494861086150
:104BE0008000086140100861400048614FF4037084
:104BF0008049086080208049486108618000086120
:104C0000401008614000486100207A490860802017
:104C100079494861086180000861401008614000DE
:104C20004861172073490860802073494861086112
:104C300080000861401008614000486115206D49FE
:104C4000086080206C49486108618000086140105C
:104C5000086140004861002066490860802066497C
:104C600048610861800008614010086140004861A7
:104C700000206049086080205F4948610861800029
:104C80000861F02000F0B4FE4FF480705A490861CA
:104C90004000486103205749086080205649486118
:104CA000086180000861292000F0A2FED02000F0F9
:104CB0009FFE4FF480705049086140004861002019
:104CC0004C49086080204C494861086180000861B7
:104CD000BE2000F08DFE4FF480704749086140000F
:104CE00048610520434908608020434948610861C4
:104CF000800008614010086140004861FE203D4985
:104D0000086080203C4948610861800008614010CB
:104D1000086140004861012036490860802036491A
:104D200048610861800008614010086140004861E6
:104D300000203049086080202F49486108618000C8
:104D4000086140100861400048610020294908605E
:104D5000802029494861086180000861401008618D
:104D600040004861002023490860802022494861B2
:104D7000086180000861B82000F03AFE4FF48070AE
:104D80001D4908614000486103201A4908608020DD
:104D900019494861086180000861401008614000BD
:104DA0004861012013490860802013494861086167
:104DB00080000861BA2000F01BFE4FF480700E499D
:104DC00008614000486101200A49086080200A49C2
:104DD0004861086180000861642000F05DF80020EF
:104DE000FBF77EFE0120054908600020FBF734FE3A
:104DF00008BD00000C0C014000100140A801224237
:104E000010B50246012000E050430B00A1F101045F
:104E1000E1B2F9D110BD000010B54FF0883017494C
:104E20000860091D0860002014490C3108608815CD
:104E3000134908614000486140204861114880885A
:104E400048F68911884202D1022001F0B1FE0B48D8
:104E50000830006884B2402009490861C000086138
:104E60004FF0333005490860091D08604FF6FF70A8
:104E700002490C310860204610BD0000000C0140C2
:104E8000001001403000002010B50446204600F01C
:104E9000AFFDFFF7C1FF10BD2DE9F0410446BE2074
:104EA00000F0A6FD4FF480702D4908614000486174
:104EB00005202C490860802029494861086180004C
:104EC00008614010086140004861204602F0D6F9B0
:104ED00005464FF06632244B02F0E4F9074602F033
:104EE00089F92049086080201D49486108618000D7
:104EF00008614010086140004861012019490860BC
:104F000080201749486108618000086140100861ED
:104F100040004861FF201349086080201049486123
:104F2000086180000861401008614000486100206D
:104F30000C49086080200A494861086180000861C6
:104F40004010086140004861002006490860802048
:104F500003494861086180000861BDE8F0810000F4
:104F6000001001400C0C014066660440F0B5054697
:104F700000240027FC48807901280BD1FA4880885A
:104F800046F60401884205D0F748808841F663114F
:104F9000884208D1F4488079F0B9F348808841F616
:104FA0006311884218D1082D15D2DFE805F00406F8
:104FB000080A0C0E101206250DE007250BE004254B
:104FC00009E0052507E0012505E0002503E00325AC
:104FD00001E0022500BF00BFE348808849F241316B
:104FE000884217D0E048808846F60401884211D0F4
:104FF000DD48808845F2103188420BD0DA4880883D
:1050000045F21051884205D0D748808841F6631197
:1050100088427DD1082D1CD2DFE805F00406090C7A
:105020000F12151800BF14E044F0800411E044F0A2
:1050300040040EE044F0C0040BE044F0200408E01B
:1050400044F0600405E044F0A00402E044F0E00411
:1050500000BF00BFC448808845F21051884202D189
:105060004FF4585700E03627BF48808845F210318A
:1050700088420DD0BC48808845F21051884207D044
:10508000B948808841F66311884201D044F0080491
:10509000B548808846F60401884201D144F00204F4
:1050A0002146384600F0BEFCAF48808841F66311C7
:1050B00088421DD004F0200068B1AB480088AA499E
:1050C0004988884214DAA84806884088A64908809A
:1050D000084646800CE0A4480088A34949888842D5
:1050E00006DDA148068840889F490880084646801A
:1050F0009D48808845F2105188427DD19A4948895F
:1051000000F076FC4FF4807098490861400000E0A0
:1051100030E1486100209649086080209349486149
:1051200008618000086190494989491C88B200F0F3
:105130005FFC4FF480708D49086140004861002099
:105140008B490860802089494861086180000861B6
:1051500085494989891C88B200F04AFC4FF4807067
:1051600082490861400048617F480088401E001263
:105170007F49086080207D4948610861800008619E
:1051800079494989C91C88B200F032FC4FF480701B
:10519000764908614000486173480078401EC0B2FB
:1051A0007349086080207149486108618000086186
:1051B0006D49888900F01CFC4FF480706B490861D0
:1051C0004000486100206A490860802067494861C2
:1051D00008618000086164498989491C88B200F02F
:1051E00007FC4FF48070614908614000486100206D
:1051F0005F490860802000E035E05C494861086153
:105200008000086158498989891C88B200F0F0FB48
:105210004FF4807055490861400048615248408809
:10522000401E0012524908608020504948610861C0
:10523000800008614C498989C91C88B200F0D8FBFC
:105240004FF48070494908614000486146488078C1
:10525000401EC0B246490860802044494861086148
:1052600080000861ADE04049488900F0C1FB4FF47F
:1052700080703E4908614000486100203C49086058
:1052800080203A4948610861800008614010086147
:105290004000486100203649086080203349486159
:1052A00008618000086140100861400048612E4894
:1052B0000088401E00122E49086080202B4948615A
:1052C000086180000861401008614000486126487C
:1052D0000078401EC0B226490860802023494861FA
:1052E0000861800008612049888900F081FB4FF443
:1052F00080701E4908614000486100201C49086018
:1053000080201A49486108618000086140100861E6
:105310004000486100201649086080201349486118
:1053200008618000086140100861400048610E4833
:105330004088401E00120E49086080200B494861D9
:10534000086180000861401008614000486106481B
:105350008078401EC0B20649086080200349486139
:105360000861800008612CE030000020001001403E
:105370000C0C0140082D1CD2DFE805F004070A0DD3
:105380000F12151844F0300413E044F0100410E03C
:1053900044F020040DE000BF0BE044F0380408E0C6
:1053A00044F0280405E044F0180402E044F0080446
:1053B00000BF00BF032744F480542146384600F064
:1053C00031FBF0BD30B504460D46EA48808849F20D
:1053D0004131884205D0E748808845F21031884243
:1053E00040D1E449488900F003FB4FF48070E24962
:1053F0000861400048612012E04908608020DE49D1
:1054000048610861800008614010086140004861FF
:10541000E0B2DA4908608020D7494861086180001D
:105420000861D449888900F0E3FA4FF48070D249CA
:105430000861400048612812D04908608020CE49A8
:1054400048610861800008614010086140004861BF
:10545000E8B2CA4908608020C749486108618000F5
:10546000086186E1C348808846F60401884249D134
:10547000C0488079012804D1BE480088401E001B26
:1054800084B2BC49488900F0B3FA4FF48070BA493D
:105490000861400048612012B84908608020B64980
:1054A000486108618000086140100861400048615F
:1054B000E0B2B24908608020AF49486108618000CD
:1054C0000861AC49888900F093FA4FF48070AA49CA
:1054D0000861400048612812A84908608020A64958
:1054E000486108618000086140100861400048611F
:1054F000E8B2A249086080209F49486108618000A5
:10550000086136E19B48808841F6631188427DD16D
:105510009848807900283FD196480088401E001B9B
:1055200084B29449488900F063FA4FF4807092493C
:1055300008614000486100209049086080208E4941
:1055400048610861800008614010086140004861BE
:1055500000208A49086080208749486108618000EE
:1055600008614010086140004861201283490860CA
:10557000802081494861086180000861401008610D
:1055800040004861E0B27D49086080207A49486166
:1055900008618000086141E07649488900F028FAF6
:1055A0004FF48070744908614000486120127349CB
:1055B00008608020704948610861800008614010DF
:1055C000086140004861E0B26C49086080206A4987
:1055D000486108618000086140100861400048612E
:1055E00064480088401E00126449086080206249B7
:1055F000486108618000086140100861400048610E
:105600005C480078401EC0B25C4900E047E008609A
:10561000802059494861086180000861554988899E
:1056200000F0E6F94FF4807053490861400048618A
:1056300028125249086080204F4948610861800063
:1056400008614010086140004861E8B24B490860B9
:105650008020494948610861800008614010086164
:105660004000486143484088401E0012434908609A
:10567000802041494861086180000861401008614C
:10568000400048613B488078401EC0B23B490860FA
:1056900080203949486108618000086169E0354827
:1056A000808845F21051884250D13249488900F033
:1056B0009FF94FF480703049086140004861201222
:1056C0002E49086080202C494861086180000861EB
:1056D00028494989491C88B200F08AF94FF4807042
:1056E0002549086140004861E0B2244908608020F3
:1056F000214948610861800008611E49888900F0DD
:1057000077F94FF480701C49086140004861281205
:105710001A490860802018494861086180000861C2
:1057200014498989491C88B200F062F94FF48070ED
:105730001149086140004861E8B2104908608020C2
:105740000D49486108618000086112E009488079CC
:10575000012804D107480088401E001B84B2054977
:105760004889214600F05EF902498889294600F0FF
:1057700059F930BD30000020001001400C0C0140F0
:105780002DE9F84F80460E4617461C46B346204684
:10579000E31704EB5373DB1021464FEAE47C04EB80
:1057A0005C7C4FEAEC0CA4EBCC0CBCF1000F02D0FB
:1057B0004FF0010C01E04FF0000C6344224604EB73
:1057C000D27C4FEA6C0C03FB0CF3DBB20093A7F125
:1057D0002000C7B2002556E00C2C07D107EB47008C
:1057E0002B4901EB800010F8059013E0102C05D137
:1057F000284800EB071010F805900BE0182C07D193
:1058000007EBC700244901EB800010F8059001E088
:10581000BDE8F88F4FF0000A2FE009F0800030B1AA
:105820001E48028831464046FBF7FEFA07E00A9818
:1058300028B91B48028831464046FBF7F5FA4FEA83
:1058400049604FEA1069701C86B216484088B04221
:1058500000DCDDE7A6EB0B00A0420AD15E4608F1B2
:1058600001001FFA80F80F480088404500DCCFE7B0
:1058700006E00AF1010000F0FF0ABAF1080FCCDBE4
:1058800000BF681CC5B200988542A5DB00BFBFE71A
:10589000E4790008587E0008488400081C000020B5
:1058A0001E000020300000202DE9F84704460D4678
:1058B00090469946DDE9096704F0FF0A08EB040009
:1058C0001FFA80F809EB05001FFA80F916E044453D
:1058D00002DB5446A81985B24D4500DB14E00120D7
:1058E00000903A78334629462046FFF749FF304674
:1058F00006EBD07104EB61018CB27F1C38787E28F6
:1059000002DC38782028E2DA00BFBDE8F8872DE90C
:10591000FF4F82B0064692461F46DDE90F48002041
:10592000019000254DE0781B401EC1B20A20FFF710
:1059300067FABAFBF0F00A21B0FBF1F201FB1209A1
:10594000019850BB781EA84227DDB9F1000F22D183
:1059500008F0800078B108F00100A34604EBDB7189
:10596000491001FB0561009088B22346302203995B
:10597000FFF706FF0EE008F00100A34604EBDB7121
:10598000491001FB0561009088B22346202203994B
:10599000FFF7F6FE13E00120019008F00100A34696
:1059A00004EBDB71491001FB0561009088B209F13D
:1059B0003001CAB223460399FFF7E2FE00BF681C1C
:1059C000C5B2BD42AFDB06B0BDE8F08F4FF48071C9
:1059D000054A116149005161044908608021516103
:1059E0001161890011617047001001400C0C0140E9
:1059F0004FF48071054A51614900516104490860C2
:105A000080215161116189001161704700100140CE
:105A10000C0C014000B502490889FFF7E9FF00BD01
:105A20003000002010B504460B462046FFF7E0FF8B
:105A30004FF48070054908614000486104480360E4
:105A40008020486108618000086110BD001001409D
:105A50000C0C014008B50121242000F07BF84FF424
:105A60008070ADF8000010208DF8030003208DF841
:105A7000020069460948FAF7B1FD4FF48071074802
:105A8000FAF789FE0420ADF8000069460448FAF7E9
:105A9000A5FD04210248FAF77EFE08BD000801407A
:105AA0000014014000BFFEE77047000070B5002100
:105AB00000230F22C47804B3154C246804F4E06476
:105AC000C4F5E064210AC1F10403CA40447804FA31
:105AD00003F184781440214309010E4C0678A15546
