:020000040800F2
:1000000090070020A9010008791E0008EB160008DF
:10001000CF1D0008CB1500086D300008000000005F
:10002000000000000000000000000000792100082E
:10003000CF15000800000000612000088D22000894
:10004000C3010008C3010008C3010008C301000880
:10005000C3010008C3010008C3010008C301000870
:10006000C3010008C3010008C3010008C301000860
:10007000C3010008C3010008C3010008C301000850
:10008000C3010008C3010008C3010008C301000840
:10009000C3010008C3010008C3010008C301000830
:1000A000C30100084D230008C3010008C301000874
:1000B000C3010008C3010008C3010008C301000810
:1000C000C3010008C3010008C3010008C301000800
:1000D000C3010008A1280008C3010008C3010008EB
:1000E000C3010008C3010008C301000800F002F8C2
:1000F00000F04AF80AA090E8000C82448344AAF178
:100100000107DA4501D100F03FF8AFF2090EBAE875
:100110000F0013F0010F18BFFB1A43F0010318473B
:100120000C8200002C820000103A24BF78C878C1ED
:10013000FAD8520724BF30C830C144BF04680C60ED
:10014000704700000023002400250026103A28BF35
:1001500078C1FBD8520728BF30C148BF0B60704739
:10016000662907F03C81642900F070800020704708
:100170001FB500F0BFFC04000020002106F022F8AB
:10018000E0601FBD10B510BD00F0F8FD1146FFF78F
:10019000EFFF04F049FD00F016FE03B4FFF7F2FF95
:1001A00003BC03F004F800000948804709480047F1
:1001B000FEE7FEE7FEE7FEE7FEE7FEE7FEE7FEE717
:1001C000FEE7FEE704480549054A064B7047000074
:1001D00091220008ED000008900100209007002007
:1001E0009003002090030020704710B54C1084EA63
:1001F000530404D54042C1F1000138BF491E1B42DF
:1002000004D55242C3F1000338BF5B1E00F056F91B
:1002100014F0804F04D04042C1F1000138BF491EA4
:1002200014F0004F04D05242C3F1000338BF5B1EEC
:1002300010BD00000FB4044910B503AA029800F0E5
:1002400025FC10BC5DF814FB740000202DE9F04182
:100250000646002410687529314616A510D0AFF364
:100260000080002802DA404213A507E031688A07BF
:1002700001D512A502E0490704D511A5012401E02A
:10028000AFF3008000210A2206F1240709E0B0FB49
:10029000F2FCB0FBF2F302FB1C003030785418463D
:1002A000491C0028F3D123462A463046BDE8F041D8
:1002B00000F086B9000000002D0000002B000000B7
:1002C000200000002DE9F05F894604464FF0000A47
:1002D000DFF874B1FB44C0F820A02046E1688847ED
:1002E000002874D0252806D0D4E901219047206A3F
:1002F000401C2062F1E700265F462046E1688847FF
:100300002028054607DB312D05D2781910F8200C7E
:1003100008B10643F1E7B00701D526F00406C4F89A
:100320001CA00027C4F818A02A2D09D0284602F0E6
:1003300037FF38B304EB8708303DC8F8185019E090
:1003400059F8041B204604EB87029161E168884755
:10035000012F054618D1E069002820DA26F0200692
:100360001DE0D8F8180000EB800005EB40003038A5
:10037000C8F818002046E1688847054602F010FFDB
:100380000028EED1012F0AD02E2D08D12046E16899
:1003900088477F1C0546022F46F02006C4DBA06973
:1003A000002803DA404246F00106A061F00701D0C0
:1003B00026F010066C2D0BD0682D09D04C2D39D0AD
:1003C0006A2D35D0742D35D07A2D33D016E038E033
:1003D000E1682F4620468847B842054609D16C2F70
:1003E00026D04FF48060E1680643204688470546E2
:1003F00004E06C2F1AD04FF4807006430DB3A5F1C2
:100400004100192802D8203546F400664A4629469C
:10041000204626604E46FFF7A3FE80B101280BD090
:10042000F61D26F0070000F1080956E74020E4E732
:100430008020D8E70020D6E706F104094DE72846DA
:1004400052E7206ABDE8F09F6E7E000040EA01039B
:1004500010B59B070FD1042A0DD310C808C9121F6D
:100460009C42F8D020BA19BA884201D9012010BDA7
:100470004FF0FF3010BD1AB1D30703D0521C07E074
:10048000002010BD10F8013B11F8014B1B1B07D1D8
:1004900010F8013B11F8014B1B1B01D1921EF1D149
:1004A000184610BD02F0FF0343EA032242EA02426B
:1004B00000F000BB704770477047704753EA020C6A
:1004C00000F069802DE9F04B4FF00006002B1FBFB4
:1004D000B3FA83F503FA05F424FA05F65E4012BF79
:1004E0001643B2FA82F502FA05F4C5F120051EBFE3
:1004F00022FA05FC44EA0C04203556EA044C4FEA83
:10050000144418BF641C4FF000084FF000099042DB
:1005100071EB030C39D3002919BFB1FA81F701FA45
:1005200007F6B0FA80F700FA07F6C7F120071EBFFA
:1005300020FA07FC46EA0C062037B6FBF4FCA7EBD2
:100540000507103F07F01F0BCBF120060CFA0BFB41
:100550002CFA06F644BFB3460026202FA4BF5E4601
:100560004FF0000B5BEA060C08BF4FF0010B19EBD4
:100570000B09ABFB027C48EB0608C01B06FB02CC58
:100580000BFB03CC71EB0C01C1E70B460246414665
:100590004846BDE8F08B13B54FF000004FF0000166
:1005A000AFF30080BDE81C40704710B500F0A6FA1C
:1005B000006810BD10B5044600F0A0FA046010BD3C
:1005C0002DE9F0470D4699469246044600F124086D
:1005D0000168880604D5E06921F01001216000E07F
:1005E0000120A84201DD471B00E00027A1697A191C
:1005F00002EB0900081AA0612078C00602D4204648
:10060000AFF30080002608E0D4E901211AF80600C3
:100610009047206A401C761C20624E45F4DB20780F
:10062000C0060AD52046AFF3008006E0D4E90121D8
:1006300030209047206A401C2062381EA7F1010735
:10064000F4DC07E0D4E9012118F805009047206A9E
:10065000401C2062281EA5F10105F3DC2046AFF303
:1006600000802078000602D50220BDE8F087012036
:10067000FBE770472DE9FF4F0C461E464FF0FF3752
:100680008BB0D2E90001DDF860800A908A46C1F3A0
:100690000A5505B93D46002108464FF00000BAF161
:1006A000000F00F4400005DA00EB80004FF4400139
:1006B00001EA50004FEA9059B9F1010F00DDB94647
:1006C0000A9850EA4A000ED044F61050A5F2FF35C1
:1006D00045432F14B8F1000F1ED07542291E1EDDB0
:1006E000C9F100021CE0B8F1010F4FF0000001D089
:1006F000302103E0F24305E02154401CB042FBDB13
:1007000030460022002121540B99C1F80880C1E92C
:1007100000200FB0BDE8F08FBD1B6D1CDEE74A4620
:1007200000DA694206A800F08BFA06AB93E80700EE
:1007300003AB83E8070050460A9900F08BFB8DE875
:100740000700A0F500501F3800900398002D09DD28
:1007500042F21F014A46084403A90390684600F08C
:10076000EAFD08E0A0F500504A461F3803A90390AF
:10077000684600F0F4FD8DE807000004000C03D08B
:100780004FF0FF30410800E01046B8F1000F03D0F1
:100790000022009215461EE0751E05D400F0B2F945
:1007A000303262556D1EF9D5B3460122084302D09E
:1007B00000227F1C04E02078302801D100227F1E17
:1007C000002A099786D01DE0112D07DA00F09AF96A
:1007D000303262556D1C50EA0102F5D1084302D057
:1007E0000098C8B10EE00021681E05E0235C625C41
:1007F00063542254401E491C8142F7DBAB46A81BC0
:10080000401E0990002004F80B000B98099AC0F8CC
:100810000880C0E9002B7CE711264FF0000859E75B
:100820002DE9F04F88460446D21D22F0070191B011
:10083000D1E90001CDE90A0102F036FC02460B982D
:10084000C00F01D02D2007E02068810701D52B20A3
:1008500002E0202101EAC000032A099001D0072A02
:1008600005DB03464146204600F0AAF90BE120785B
:10087000800601D5E06900E00620B8F1650F8146E9
:1008800006D0B8F1660F18D0B8F1670F70D131E01B
:100890000020B9F1110F009001DB112301E009F1F3
:1008A00001030AAA01A90CA8FFF7E4FEDDE90C7018
:1008B000002609F10105834647E001204B460090E0
:1008C0004FF000470AAA01A90CA8FFF7D3FEDDE903
:1008D0000DB00C995D46002610B909F101000D1804
:1008E000B9EB050003D4C0F1FF3609F10105A5EB12
:1008F00009002BE0B9F1010F01DA4FF001090020E6
:10090000B9F1110F0090484601DD112300E00346C4
:100910000AAA01A90CA8FFF7ADFEDDE90C704D464F
:1009200000268346207800070AD4AB4500DA5D46EE
:1009300001A8012D04DD411911F8011C302907D04F
:100940004F4502DA17F1040F04DA012082460FE066
:100950006D1EEEE7002F02DCED1B3E4403E0781C29
:10096000A84200DD7D1CB81B00F1010A4FF00047D2
:100970002078000703D4AA4501DB4FF0FF3A00219D
:10098000B7F1004F0DF143088DF8431024D0022039
:100990002B23002F01DA7F422D230A21021EA0F112
:1009A000010000DC5FB197FBF1FC97FBF1F201FB6A
:1009B0001C7C17460CF1300C08F801CDEEE7A8F1CD
:1009C000010003702188090501D5452100E065215A
:1009D000A0F1010800F8011C09980FA9A1EB080774
:1009E000FF1D00B10120411901EBEA70A1693844F3
:1009F000081A401EA0612078C00602D42046AFF33A
:100A00000080099828B1D4E901219047206A401C50
:100A100020622078C00622D52046AFF300801EE079
:100A2000002E04DBB34502DD01A8805D00E030202C
:100A3000D4E901219047206A401C2062761CAAF16B
:100A400001005FEA000A0AD100F054F8C0680168AA
:100A5000405CD4E901219047206A401C2062281E96
:100A6000A5F10105DCDC07E0D4E9012118F8010B50
:100A70009047206A401C2062381EA7F10107F3DC72
:100A80002046AFF30080032011B043E6074B70B55A
:100A90000D467B4400F081F80446284600F03EF9FC
:100AA00010B14FF0FF3070BD204670BDCB3A000052
:100AB0004FF000020429C0F0128010F0030C00F087
:100AC0003381CCF1040CBCF1020F18BF00F8012BEC
:100AD000A8BF20F8022BA1EB0C0100F025B95FEABA
:100AE000C17C24BF00F8012B00F8012B48BF00F89F
:100AF000012B7047004870474C01002000487047A8
:100B00002C01002030B5B0F10A024FEA900E71F1CD
:100B100000034EEA817EB0EB0E0061EB91014FEADB
:100B2000101E4EEA017E10EB0E0041EB11114FEA50
:100B3000102E4EEA016E10EB0E0041EB11214FEA30
:100B4000104E4EEA014E10EB0E0041EB11414018E1
:100B500041F100014FEAD00040EA41704FEAD10173
:100B600010EB80054FEA810444EA907444EB0104E1
:100B70006D1944EB0404521BA3414FF0000348BF1E
:100B80000A3200D530BD401C41F1000130BD0000EB
:100B900001694A1C02610878704700B58FB0CDE941
:100BA00001310021059105497944CDE90310114631
:100BB0006846FFF787FB0FB000BD0000E5FFFFFFB1
:100BC0002DE9F0411F46044603260168072A01F477
:100BD000006004DB08B116A505E016A503E008B126
:100BE00015A500E015A521F010002060A069C01E29
:100BF000A0610FB1401EA0612046AFF300804FB14D
:100C0000D4E9012138469047206A401C2062C01C6C
:100C1000206206E0206AFAE7D4E9012115F8010B09
:100C20009047761EF8D22046AFF30080BDE8F081F1
:100C30004E414E006E616E00494E4600696E660080
:100C40002DE9F047814616468AB0334878440DC8EE
:100C50008DE80D0030487844801C03AC0DC884E852
:100C60000D0041F69B300844372190FBF1F290FBD8
:100C7000F1F5A5F1800501FB12041B3C02D564428D
:100C8000012000E00020DFF890A080460027FA4411
:100C9000AAF1BE0A0DE0E00709D03246684607EB2C
:100CA00047010AEB810100F05AFB8DE80700641050
:100CB0007F1C002CEFD1184F7F44AC3F18E0E807B1
:100CC00014D007EB04100DF1180A90E80E008AE822
:100CD0000E00C068F04201D198190890324606A96A
:100CE00003A800F03CFB03AB83E807006D10641C15
:100CF000002DE4D132466946B8F1000F03A802D0B6
:100D000000F019FB01E000F02AFBC9E90001C9F875
:100D100008200AB0BDE8F08774760000007B00F080
:100D2000800070474FF0000200B513469446964687
:100D3000203922BFA0E80C50A0E80C50B1F12001EE
:100D4000BFF4F7AF090728BFA0E80C5048BF0CC09C
:100D50005DF804EB890028BF40F8042B08BF7047FA
:100D600048BF20F8022B11F0804F18BF00F8012B6C
:100D700070470000004870472C0100207546FFF7BF
:100D8000F9FFAE4605006946534620F00700854648
:100D900018B020B5FFF716FABDE820404FF0000666
:100DA0004FF000074FF000084FF0000B21F0070153
:100DB000AC46ACE8C009ACE8C009ACE8C009ACE896
:100DC000C0098D4670470446AFF300802046FFF708
:100DD000E4F900004FF0013C50F8042B51F8043BBB
:100DE0009A4221D1A2EB0C03934313EACC1317D1FF
:100DF00050F8042B51F8043B9A4215D1A2EB0C0396
:100E0000934313EACC130BD150F8042B51F8043B55
:100E10009A4209D1A2EB0C03934313EACC13DBD023
:100E20004FF00000704700BFD01A01BAB1FA81F14B
:100E300001F0180122FA01F0CB40C1F12001DBB230
:100E4000C0B2C01A2CFA01F3D11A914311EAC311AE
:100E5000E6D170475FEA400C08BF91F0000F4FEAFF
:100E60008C234FEAC12243EA51514FEA1C5018BF6C
:100E700000F5F0404FEA300018BF41F000415FEA52
:100E80006C5C00F02980BCF1FF3F08BF40F080405F
:100E90007047130C06BF12044FF0100C4FF0000CFB
:100EA000130E04BF12020CF1080C130F04BF120141
:100EB0000CF1040C930F04BF92000CF1020CD30F41
:100EC00004BF52000CF1010C11464FF00002A0F1DA
:100ED0001F00A0EB0C00704711F0004F08BF7047D7
:100EE00031F000413FF4D5AF0B0C06BF09044FF0C1
:100EF000100C4FF0000C0B0E04BF09020CF1080C93
:100F00000B0F04BF09010CF1040C8B0F04BF890007
:100F10000CF1020CCB0F04BF49000CF1010CCCF119
:100F20002003A0EB0C0022FA03F302FA0CF241EAD0
:100F3000030100F10100704720F07F4C80EA0300BC
:100F400023F07F47ACEB070303F57C5300F0004030
:100F500003F1FF032DE980494FEA154B09B44FEA2D
:100F6000144325EA0B4E24EA03480FF2042606EB4D
:100F7000132749083E785FEA320203FB0667C7F58C
:100F8000000707FB06F64FEA54374FEAD64606F14C
:100F9000020607FB066CCCF1005C4FEA1C472CEA0A
:100FA000074C07FB06F40CFB06F504EB15464FEA6D
:100FB000961634BF00204FF000404FEAD13706FBB1
:100FC00007FC4FEA1C4C0CFB0BF7D21B03FB0CF786
:100FD00061EB07010CFB0EF7B0EB074072EB174219
:100FE0000CFB08F734BFA2EB0742B2EB074261EB00
:100FF00017414FEA0C444FEA910706FB07FC4FEA02
:101000001C4C0CFB0BF7B0EBC74072EB573203FBE9
:101010000CF734BFA2EBC742B2EBC74261EB5731CA
:101020000CFB0EF7B0EBC70072EB57720CFB08F726
:1010300034BFA2EBC702B2EBC70261EB5771039F4B
:101040004FEA816141EA921104EBCC044FEAD137B7
:101050004FEA826206FB07FC42EA90124FEA806088
:101060004FEA1C4C0CFB0BF7D21B03FB0CF761EB9C
:1010700007010CFB0EF7B0EB074072EB17420CFBBD
:1010800008F734BFA2EB0742B2EB074261EB17410E
:101090004FEA8C554FEA910704EB9C2406FB07FCB2
:1010A0004FEA1C4C0CFB0BF7B0EBC74072EB57320E
:1010B00003FB0CF734BFA2EBC742B2EBC74261EBB4
:1010C00057310CFB0EF7B0EBC70072EB57720CFBFD
:1010D00008F734BFA2EBC702B2EBC70261EB57714E
:1010E00015EB4C254FEA816141EA92114FEA826289
:1010F0004FEAD13742EA901206FB07FC44F10004A4
:101100004FEA80604FEA1C4C0CFB0BF7D21B03FB31
:101110000CF761EB07010CFB0EF7B0EB074072EB2D
:1011200017420CFB08F734BFA2EB0742B2EB0742B1
:1011300061EB174115EB1C154FEA813141EA9241F1
:101140004FEA823242EA90424FEA80304FEA0C7610
:1011500044F1000448EA03434EEA0B484FF0000E06
:10116000B2EB080C71EB030724BF624639464EEB25
:101170000E0E4FF0000B0018524149414BEB0B0B88
:10118000B2EB080C71EB03077BF1000B24BF624646
:1011900039464EEB0E0E4FF0000B001852414941FC
:1011A0004BEB0B0BB2EB080C71EB03077BF1000B65
:1011B00024BF624639464EEB0E0E51EA020718BFB5
:1011C00046F0010616EB0E7655F1000254F10001CF
:1011D00003D5BDE88901BDE80088BDE88901BDE807
:1011E0000048B619524141EB0101A3F101037047D8
:1011F00080807F7E7D7C7B7A797877767675747354
:10120000727171706F6E6E6D6C6C6B6A6A69686812
:10121000676666656464636362616160605F5F5EA8
:101220005E5D5D5C5C5B5B5A5A595958585757561E
:101230005655555554545353525252515150505083
:101240004F4F4F4E4E4D4D4D4C4C4C4B4B4B4A4AD5
:101250004A49494948484847474747464646454519
:101260004544444444434343434242424241414152
:10127000002B26D4770021D01CB54FEA370703B4E2
:101280004FF010004FF010014FF000000FBCBDE810
:1012900010400BF1010BBBF1010F08BF5FEA17070C
:1012A00022BF12F1010211F101014FF0004143F19F
:1012B000000300F0004043EA00007047F9D35708EC
:1012C000DAE746EA064613F1400F4FEA16461FDDFD
:1012D00013F1200FDFBF16430A46002120335B4283
:1012E000C8D0C3F1200746EA064602FA07F74FEADC
:1012F000164646EA0706C3F1200722FA03F201FA6E
:1013000007F721FA03F14FF0000342EA0702B1E7C1
:1013100046EA020646EA06464FEA164646EA01064D
:10132000BCBF46EA0646360C4FF000034FF0000201
:101330004FF000019EE72DE9C048934630B491E894
:10134000380007C831EA400C48BF34EA430C03D5E3
:10135000FFF7F2FDFFF78CFFF0BCBDE800882DE938
:10136000C048934630B491E8380007C810F0804F69
:1013700008BF13F0804F03D100F005F8FFF778FFA6
:10138000F0BCBDE8008820F07F4780EA030023F02E
:101390007F4C07EB0C03A3F57C5300F00040A3F156
:1013A000FE0392F0000F00F0B38095F0000F00F004
:1013B00077802DE901494FEA11404FEA144621EAAE
:1013C000004800FB06FC24EA064708FB06F607FB7C
:1013D00008F800FB07F718EB06484CEB164C4FEAF1
:1013E000124B18EB07484FEA15464CEB174022EA20
:1013F0000B4E0BFB06FC25EA06470EFB06F607FB29
:101400000EFE0BFB07F71EEB064E4CEB164C4FF097
:1014100000061EEB074E4CEB174B18EB0B0840F188
:10142000000018EB0E0B58EB000840F100008F1A7B
:101430004FF000013CBFC943661B14BFB5EB040C61
:1014400000213CBFC943F61B4FEA17444EEA8E0EFB
:1014500027EA04454FEA1C4704FB07622CEA074CC5
:1014600005FB07F70CFB05F604FB0CFC16EB074627
:1014700042EB174216EB0C4642EB1C421BEB0606F6
:1014800058EB0202414146EA9E0601D5BDE80189BA
:10149000B619524141EB0101A3F10103BDE80189F5
:1014A0004FEA14454FEA114724EA054621EA074C62
:1014B00005FB07F406FB07F70CFB06F105FB0CFC2C
:1014C00011EB074144EB17444FEA124711EB0C4173
:1014D00044EB1C4422EA074C05FB07F206FB07F726
:1014E0000CFB06F605FB0CFC16EB074642EB17421D
:1014F00016EB0C4642EB1C456A1854F1000148BF3C
:101500007047B619524141EB0101A3F10103704745
:1015100095F0000F37D04FEA11424FEA144721EA05
:10152000024624EA074C02FB07F106FB07F70CFB17
:1015300006F402FB0CFC14EB074441EB17414FEAA5
:10154000154714EB0C4441EB1C4125EA074C02FB08
:1015500007F506FB07F70CFB06F602FB0CFC16EB87
:10156000074645EB174516EB0C4645EB1C42121996
:1015700051F1000148BF7047B619524141EB0101DA
:10158000A3F1010370474FEA14454FEA114724EADB
:10159000054621EA074C05FB07F106FB07F70CFBA4
:1015A00006F24FF0000605FB0CFC12EB074241EB84
:1015B000174112EB0C4251EB1C4148BF7047921887
:1015C00041EB0101A3F10103704700BFFEE7704743
:1015D0002DE9F041024600250026002000230024CA
:1015E000002791F803C00CF00F0591F803C00CF030
:1015F000100CBCF1000F03D091F802C04CEA0505B5
:1016000091F800C0BCF1000F31D0146800202BE02D
:101610004FF0010C0CFA00F3B1F800C00CEA03061D
:101620009E4220D183004FF00F0C0CFA03F7BC430D
:1016300005FA03FC4CEA040491F803C0BCF1280F3E
:1016400006D14FF0010C0CFA00FCC2F814C00AE0FD
:1016500091F803C0BCF1480F05D14FF0010C0CFA12
:1016600000FCC2F810C0401C0828D1D31460B1F8A7
:1016700000C0BCF1FF0F34DD546800202EE000F103
:10168000080C4FF0010808FA0CF3B1F800C00CEA9E
:1016900003069E4221D183004FF00F0C0CFA03F792
:1016A000BC4305FA03FC4CEA040491F803C0BCF106
:1016B000280F05D100F1080C08FA0CF8C2F81480C4
:1016C00091F803C0BCF1480F07D100F1080C4FF0AE
:1016D000010808FA0CF8C2F81080401C0828CED384
:1016E0005460BDE8F0810161704700BFFEE7000073
:1016F00008B50121102000F0C5FC4FF47060ADF872
:10170000000048208DF8030003208DF80200694690
:101710000148FFF75DFF08BD001001400146490682
:10172000084A926942F00102064B9A61064A5268E1
:1017300022F0E062044B5A601A4652680A435A602B
:1017400070470000001002400000014008B5012170
:10175000182000F097FC2020ADF8000048208DF8FC
:10176000030069460B48FFF733FF0120ADF8000086
:1017700048208DF8030069460748FFF729FF02203B
:10178000ADF8000028208DF8030069460248FFF7F5
:101790001FFF08BD00100140000C014010B50446B9
:1017A00014B101201B4908701A48007808B31A4880
:1017B000006838B11948006820B11848001D006859
:1017C000012816D1012002F0A5F800201149087067
:1017D0001148006808B9012010BD1048006808B918
:1017E0000220F9E70D48001D0068012810D10320F0
:1017F000F2E70948006801280AD108480068012872
:1018000006D10648001D006810B901200149087082
:101810000020E1E73C000020140122420081214227
:1018200070B504460D46012002F074F81048008897
:10183000401C0F49088008460088A84217DD002098
:10184000088044B90B48006808B9012000E0002076
:10185000084908600BE0012C09D10648001D00680A
:1018600008B9012000E000200249091D086070BD90
:1018700000000020A081214208B50121082000F0CD
:1018800001FC4FF44070ADF8000010208DF803000B
:1018900003208DF8020069460448FFF799FE0120F5
:1018A000034908600349C1F8A40108BD000C0140C8
:1018B000A08121420080214210B500200E4908601D
:1018C0000E48006820F470600C4908600846006803
:1018D00040F44070086000200949C1F8A80100F0F8
:1018E00011F801200449086000F00CF800200449B8
:1018F000C1F8AC0110BD0000AC812142040C0140D4
:101900000080214210B5022002F02AF810BD00002C
:1019100008B50121082000F0B5FB4FF48060ADF858
:10192000000010208DF8030003208DF802006946A6
:101930000D48FFF74DFE4FF40060ADF80000102099
:101940008DF8030003208DF8020069460648FFF772
:101950003FFE4FF480610448FFF7C5FE4FF400617D
:101960000148FFF7C0FE08BD000C014010B5002083
:101970000E4908600E48006820F470600C49086049
:101980000846006840F44070086001200949C1F829
:10199000A801FFF7B7FF012004490860FFF7B2FF75
:1019A00000200449C1F8AC0110BD0000AC81214207
:1019B000040C01400080214270B505460024164801
:1019C000006820F47060144908600846006840F41C
:1019D00000600860002614E0002010490860FFF74E
:1019E00091FF01200E49C1F8AC016006040E0B48BE
:1019F0008438006808B1601CC4B2FFF783FF701C14
:101A0000C6B2082EE8DB15B9FFF7B0FF01E0FFF71B
:101A100053FF204670BD0000040C0140AC81214200
:101A20000080214270B504461248006820F47060BE
:101A3000104908600846006840F4407008600020C3
:101A40000D490860002512E0E0090B49091F0860F4
:101A50006006040E01200949C1F8AC01FFF752FFEE
:101A6000002005490860FFF74DFF681CC5B2082D2E
:101A7000EADB70BD040C0140AC81214200802142B0
:101A800010B50E48006820F470600C4908600846E4
:101A9000006840F440700860012009490860094965
:101AA000C1F8AC01FFF72EFF002005490860FFF7E1
:101AB00029FF00200349C1F8AC0110BD040C01400E
:101AC000A88121420080214210B50E48006820F410
:101AD00070600C4908600846006840F44070086077
:101AE0000020094908600949C1F8A801FFF70AFF69
:101AF0000120054908600549C1F8A801FFF702FF68
:101B000010BD0000040C0140AC8121420080214244
:101B100010B500241448006820F470601249086071
:101B20000846006840F40060086001200F49086022
:101B3000FFF7E8FE01200E49C1F8AC01FFF7E2FE15
:101B400007E0601CC4B2FA2C03DDFFF7BDFF0120E3
:101B500010BD0648803800680028F2D10349091DED
:101B6000086000BFF4E70000040C0140A881214296
:101B70000080214210B5FFF7CBFE80216B2000F0E2
:101B8000D4F8642001F0C6FE00216B2000F0CDF8EF
:101B9000032000F088F8002000F07DF8642000F0B9
:101BA000A7F80021382000F0C0F800216A2000F0DA
:101BB000BCF80021232000F0B8F88021372000F085
:101BC000B4F8752000F010F80446682C08D1012103
:101BD0006B2000F0AAF800216C2000F0A6F801E0CC
:101BE000012010BD0020FCE770B50446FFF748FF58
:101BF000D020FFF717FFFFF78BFF2046FFF712FFFC
:101C0000FFF786FFFFF73CFFD120FFF70BFFFFF741
:101C10007FFF0020FFF7D0FE0546FFF755FF28465F
:101C200070BD2DE9F04106460F4614461D46FFF7EC
:101C300027FF002141EA4601C8B2FFF7F3FEFFF794
:101C400067FF20B1FFF740FF0120BDE8F081384673
:101C5000FFF7E8FEFFF75CFFFFF712FF012101EB42
:101C60004601C8B2FFF7DEFEFFF752FF0DE0012C80
:101C700004D10020FFF7A0FE287003E00120FFF749
:101C80009BFE2870601EC4B26D1C002CEFD1FFF7C4
:101C90001BFF0020D9E710B50446E006010E1C200A
:101CA00000F043F810BD10B50446E006010E1B20FD
:101CB00000F03BF810BD70B504460025BC2C01DBDC
:101CC000012510E0622C01DB02250CE02A2C01DB4F
:101CD000032508E0142C01DB042504E00A2C01DBB9
:101CE000052500E0062529461A2000F01EF870BDE3
:101CF00070B50446B4F57A7F01DD4FF47A74042C94
:101D000000DA04244FF47A7090FBF4F0401EC5B260
:101D10002946192000F009F80546264604EBD6713D
:101D2000C1F34F00FFF7C7FF70BD70B505460C4605
:101D3000FFF7A6FED020FFF775FEFFF7E9FE18B10A
:101D4000FFF7C2FE012070BD2846FFF76BFEFFF7CC
:101D5000DFFE2046FFF766FEFFF7DAFE18B1FFF759
:101D6000B3FE0120EFE7FFF7AFFE0020EBE72DE920
:101D7000F04105460E4617469846FFF781FE0021C2
:101D800041EA4501C8B2FFF74DFEFFF7C1FE20B1A1
:101D9000FFF79AFE0120BDE8F0813046FFF742FED2
:101DA000FFF7B6FE00240CE018F80400FFF73AFE37
:101DB000FFF7AEFE18B1FFF787FE0120EBE7601CCE
:101DC000C4B2BC42F0DBFFF77FFE0020E3E700BFB8
:101DD000FEE7000010B5062A3FD2DFE802F03E031E
:101DE0000E1927354FF08043988600234FF080442A
:101DF0002387A3871E4B198038E000234FF08044CF
:101E0000A3862346188799870023194C23802DE049
:101E100000234FF08044A386164B1B8823870023A2
:101E2000A387144B1B88124C23801FE0114B1B8887
:101E30004FF08044A386002323870E4B1B88A38783
:101E400000230B4C238011E000234FF08044A38635
:101E50002387A387064C238008E000234FF08044AB
:101E6000A3862387A387024C238000BF00BF10BD39
:101E7000400000403A0000207047000070B500218B
:101E800000230F22C47804B3154C246804F4E064E2
:101E9000C4F5E064210AC1F10403CA40447804FA9D
:101EA00003F184781440214309010E4C0678A155B2
:101EB000047804F01F050124AC4005786D11AD00D5
:101EC00005F1E025C5F8004109E0047804F01F059C
:101ED0000124AC40044D0678761145F8264070BDCB
:101EE0000CED00E000E400E080E100E00249014385
:101EF000024A1160704700000000FA050CED00E096
:101F00002DE9F05F81460C464FF0000AD9F8000039
:101F100004F0C6FE07460022134604F0D7FD05462E
:101F200004F066F921490860B4F90010204AB2F9BA
:101F30000020881A05F080F807461E488168384658
:101F400005F0DAF805461B4948681849096805F0A4
:101F5000D3F88046B4F9000005F06EF883461548C2
:101F60000168584605F0C8F80746414604F0C4FE2B
:101F70000646294604F0C0FE824620880C490880A7
:101F80000D49504605F084F902D2DFF82CA006E096
:101F90000A49504605F07CF801D2DFF820A05046EF
:101FA00005F00EF800B2BDE8F09F000050000020E0
:101FB000540000204400002000803B4500803BC5C9
:101FC00070B504460025002C03DA604204B20125F6
:101FD00000E00225012D1BD12048006820B91F48D0
:101FE000001D006800B933E01C48006830B91B4888
:101FF000001D0068012801D1042529E01748006868
:10200000012825D11548001D006808BB03251FE0E5
:10201000022D1DD111480830006820B90F480C303E
:10202000006800B914E00D480830006830B90B486A
:102030000C300068012801D1032509E00748083069
:102040000068012804D105480C30006800B9042557
:10205000A1B2A0B22A46FFF7BDFE70BD2001224208
:102060007047000029B1064AD2690243044BDA6185
:1020700004E0034AD2698243014BDA6170470000F1
:102080000010024029B1064A92690243044B9A614A
:1020900004E0034A92698243014B9A617047000051
:1020A0000010024030B500210022002400232D4DF5
:1020B0006D6805F00C0121B1042905D0082923D150
:1020C00005E0294D056022E0274D05601FE0254D04
:1020D0006D6805F47012234D6D6805F48034022597
:1020E00005EB92421CB9214D554305600BE01D4D97
:1020F0006D6805F400351DB11C4D5543056002E0C7
:10210000194D5543056002E0174D056000BF00BF43
:10211000144D6D6805F0F0010909154D6B5C0568FB
:10212000DD4045600F4D6D6805F4E061090A104D12
:102130006B5C4568DD4085600A4D6D6805F4605153
:10214000C90A0B4D6B5C4568DD40C560054D6D6887
:1021500005F44041890B074D6B5CC568B5FBF3F591
:10216000056130BD0010024000127A0000093D00F8
:10217000A4000020B4000020704710B500F002F861
:1021800010BD00000CB5002001900090334800689D
:1021900040F480303149086000BF3048006800F4E6
:1021A000003000900198401C0190009818B90198E7
:1021B000B0F5A06FF1D12948006800F4003010B1EB
:1021C0000120009001E0002000900098012843D1F8
:1021D0002348006840F01000214908600846006864
:1021E00020F0030008600846006840F00200086024
:1021F0001A484068194948600846406848600846DF
:10220000406840F4806048600846406820F47C10D4
:1022100048600846406840F4E81048600846006896
:1022200040F08070086000BF0C48006800F000704B
:102230000028F9D00948406820F0030007494860A9
:102240000846406840F00200486000BF034840680C
:1022500000F00C000828F9D10CBD0000001002406D
:1022600000200240042808D14FF0E021096941F024
:1022700004014FF0E022116107E04FF0E02109690D
:1022800021F004014FF0E022116170477047000017
:1022900010B51348006840F0010011490860084675
:1022A0004068104908400E494860084600680E49D9
:1022B00008400B4908600846006820F48020086048
:1022C0000846406820F4FE0048604FF41F00886014
:1022D000FFF753FF4FF000600449086010BD000095
:1022E000001002400000FFF8FFFFF6FE08ED00E0DE
:1022F0007FB505460C460121C802FFF7C3FEADF8C5
:102300000850ADF804400020ADF80A00ADF8060012
:1023100001A90D4800F072FA012211460A4800F0A6
:1023200007F919208DF8000002208DF801008DF8C2
:10233000020001208DF803006846FFF79FFD012190
:10234000014800F0D8F87FBD002C01401CB50121E8
:10235000264800F0DCF8002847D00121234800F08F
:10236000C7F823480078B8B322482349234B244AAE
:10237000CDE900102349244802F0DAFC58BB1F497C
:102380002148FFF7BDFD21490988084400B21F49D3
:1023900008800846B0F900001D49B1F900108842D4
:1023A00005DD1B48B0F90000184908800EE0174809
:1023B000B0F900001649B1F900104942884205DA27
:1023C00013480088404200B2104908800F48B0F915
:1023D0000000FFF7F5FD08E0FFE700200B4908804B
:1023E000002211461046FFF7F5FC1CBD002C0140F1
:1023F00040000020680000206600002064000020EB
:10240000600000205C000020580000206A000020CE
:102410006C00002030B589B005460C460121084605
:10242000FFF720FE01210420FFF72CFE0F20ADF85E
:10243000200018208DF8230003208DF8220008A921
:102440002448FFF7C5F8ADF81850ADF81440002047
:10245000ADF81A00ADF8160005A94FF0804000F065
:10246000CDF96020ADF804000120ADF80600002091
:10247000ADF80A00ADF80C0001A94FF0804000F063
:1024800061F80821C80600F0A9F801A94FF08040C2
:1024900000F0AEF80821C80600F0FCF801A94FF0E2
:1024A000804000F005F90821C80600F051F901A9A3
:1024B0004FF0804000F056F90821C80600F090F96E
:1024C0000121880700F008F80121880700F013F8BF
:1024D00009B030BD0008014021B1028842F08002FD
:1024E000028004E002884FF67F731A400280704732
:1024F000CA430282704721B1028842F00102028081
:1025000004E002884FF6FE731A400280704730B52F
:102510000246002000230024158A05EA010395895C
:1025200005EA010413B10CB1012000E0002030BD28
:102530001AB183890B43838102E083898B438381B2
:102540007047000070B5002400220023058C4FF670
:10255000FE7635400584028C8388048B4FF68F7598
:102560002C40B51E2C400D882C43751E2A400D8929
:102570002A434D882A43144DA8420BD0134DA8423C
:1025800008D0134DA84205D0124DA84202D0124DDA
:10259000A84213D14FF6F7752A404D892A434FF6CA
:1025A000FB752A408D882A434FF6FF652B404FF676
:1025B000FF552B408D892B43CD892B43838004838A
:1025C000CD888586028470BD002C01400034014016
:1025D0000040014000440140004801400A460021FB
:1025E000018B4FF6F77319401143018370470000C8
:1025F00070B5002400220023058C4FF6EF7635409D
:102600000584028C8388048B48F6FF752C404FF6B6
:10261000FF452C400D884FF6FF7606EA05252C4332
:102620004FF6DF752A400D8906EA05152A434D88C5
:1026300006EA05152A43154DA84202D0144DA842BA
:102640001DD14FF67F752A404D894FF6FF7606EA79
:1026500005152A434FF6BF752A408D8806EA0515F1
:102660002A434FF6FF352B404FF2FF752B408D89E3
:1026700006EA85052B43CD8906EA85052B43838031
:102680000483CD880587028470BD0000002C0140C2
:10269000003401400A460021018B4FF2FF731940BC
:1026A0004FF6FF7303EA02231943018370470000CA
:1026B00070B5002400220023058C4FF6FF663540DC
:1026C0000584028C8388848B4FF68F752C404FF6DF
:1026D000FC752C400D882C434FF6FF552A400D8980
:1026E0004FF6FF7606EA05252A434D8806EA0525BA
:1026F0002A43154DA84202D0144DA8421DD14FF2D5
:10270000FF752A404D894FF6FF7606EA05252A43D4
:102710004FF6FF352A408D8806EA05252A434EF6F6
:10272000FF752B404DF6FF752B408D8906EA051588
:102730002B43CD8906EA05152B4383808483CD88FE
:102740008587028470BD0000002C014000340140E8
:102750000A460021818B4FF6F7731940114381839C
:102760007047000070B5002200230024058C4EF64F
:10277000FF7635400584038C8488828B48F6FF758C
:102780002A404FF6FF452A400D884FF6FF7606EAAD
:1027900005252A434DF6FF752B400D8906EA0535C0
:1027A0002B434D8806EA05352B430B4DA84202D03A
:1027B0000A4DA84208D14BF6FF752C408D894FF683
:1027C000FF7606EA85152C4384808283CD88A0F8A5
:1027D0004050038470BD0000002C014000340140D3
:1027E0000A460021818B4FF2FF7319404FF6FF73A9
:1027F00003EA022319438183704700000022028804
:102800001D4B98420ED01D4B98420BD0B0F1804F1B
:1028100008D01B4B984205D01A4B984202D01A4B55
:10282000984204D14FF68F731A404B881A43174BC6
:10283000984207D0164B984204D04FF6FF431A40F7
:10284000CB881A4302808B8883850B8803850A4BCB
:1028500098420BD0094B984208D00E4B984205D0B5
:102860000D4B984202D00D4B984201D10B7A038652
:102870000123838270470000002C01400034014096
:102880000004004000080040000C00400010004020
:102890000014004000400140004401400048014055
:1028A00010B540F225511D4800F04AF810B31B48FE
:1028B00000F002F9C4B21A48008800F40040C8B918
:1028C0001748008800F4804060B10A2C03D0002033
:1028D0001349088020E01248008840F40040104965
:1028E000088019E00D2C06D10D48008840F4804086
:1028F0000B49088010E00A480088C0F30D00094920
:102900000C5407480088401C054908800846008888
:10291000632801DD0020088010BD00000038014060
:102920008C000020C800002021B1828942F40052AE
:10293000828104E082894DF6FF731A4082817047DC
:1029400070B50246002400230025002040F66A16D8
:10295000B14200D100BFC1F3421501F01F030126AF
:1029600006FA03F3012D02D19689334006E0022DC9
:1029700002D1168A334001E0968A33400C120126B8
:1029800006FA04F41688344013B10CB1012000E0BB
:10299000002070BDF0B5034600240026002500206D
:1029A00040F66A17B94200D100BF1846C1F342147D
:1029B00001F01F06012707FA06F5012C01D10C30A2
:1029C00004E0022C01D1103000E014301AB1076885
:1029D0002F43076002E00768AF430760F0BD0000C7
:1029E0002DE9F04786B005460E460024A24600BFFA
:1029F000A1460027B08900B100BF2F462C8A4CF6B3
:102A0000FF700440F08804432C82AC894EF6F3102A
:102A10000440B08831890843718908430443AC817C
:102A2000AC8A4FF6FF400440B0890443AC8201A851
:102A3000FFF738FB1F48874202D1DDF810A001E004
:102A4000DDF80CA0A88900F4004040B10AEBCA00F0
:102A500000EB0A1031684900B0FBF1F807E00AEB1F
:102A6000CA0000EB0A1031688900B0FBF1F864205D
:102A7000B8FBF0F004012009642101FB1089A8894A
:102A800000F4004040B1322000EBC900B0FBF1F08F
:102A900000F00700044308E0322000EB0910642135
:102AA000B0FBF1F000F00F0004432C8106B0BDE84C
:102AB000F08700000038014001468888C0F3080014
:102AC000704700002DE9F04F93B04FF0000900204F
:102AD0001190109080460F90824683460E900D9084
:102AE0000C900B900A900990089007900690002196
:102AF0000D460E46FA48008800F40040B0F5004F3D
:102B00007ED100246FE0F748005DF749095D8842F7
:102B100003D10AF1010000F0FF0AF248005DF34919
:102B2000095D884203D10BF1010000F0FF0BED4875
:102B3000005DEF49095D884203D10E98401CC0B288
:102B40000E90E848005DEB49095D884203D10D987D
:102B5000401CC0B20D90E348005DE749095D884222
:102B600003D10C98401CC0B20C90DE48005DE349D4
:102B7000095D884203D10B98401CC0B20B90D94824
:102B8000005DDF49095D884203D10A98401CC0B24C
:102B90000A90D448005DDB49095D884203D1099859
:102BA000401CC0B20990CF48005DD749095D8842FA
:102BB00003D10898401CC0B20890CA48005DD349B0
:102BC000095D884203D10798401CC0B20790C548F0
:102BD000005DCF49095D884203D10698401CC0B210
:102BE0000690601CC4B2032C8DDBBAF1030F1FD01A
:102BF000BBF1030F1CD00E98032819D00D9800E0EC
:102C000004E2032814D00C98032811D00B98032851
:102C10000ED00A9803280BD00998032808D00898EA
:102C2000032805D00798032802D0069803287DD1F1
:102C3000BAF1030F05D101201090B6A0FDF7FAFA02
:102C400057E0BBF1030F05D102201090B3A0FDF7B0
:102C5000F1FA4EE00E98032804D11090B1A0FDF7D0
:102C6000E9FA46E00D98032805D104201090AFA0A2
:102C7000FDF7E0FA3DE00C98032805D105201090FF
:102C8000ACA0FDF7D7FA34E00B98032805D1062055
:102C90001090AAA0FDF7CEFA2BE00A98032805D1E0
:102CA00007201090A7A0FDF7C5FA22E00998032895
:102CB00005D108201090A5A0FDF7BCFA19E00898EE
:102CC000032805D109201090A2A0FDF7B3FA10E067
:102CD0000798032805D10A201090A0A0FDF7AAFAB2
:102CE00007E00698032804D10B2010909BA0FDF765
:102CF000A1FA032411E07B48005D302803DB79480A
:102D0000005D392803DD7748005D2E2803D10F9838
:102D1000401CC0B20F90601CC4B27248005D002815
:102D2000E9D10F98C01CA04204D100E05BE1012072
:102D3000119004E08CA0FDF77DFA0020109011980E
:102D4000002863D0032406E06648005D2E2800D1E9
:102D5000A046601CC4B26348005D0028F4D1A146BF
:102D6000B8F1000F53D0A8F10400C7B200252E46D9
:102D700003241EE03A46791ECFB20020814900F0BC
:102D800077F9CDE902015749095DA1F1300003F05F
:102D900096FCCDE90001DDE9022303F0A7FC2A46F9
:102DA0003346CDE9040103F055FA05460E46601C92
:102DB000C4B24445DEDB012708F10100C4B21EE0C5
:102DC0003A46791CCFB27048704900F051F9CDE90C
:102DD00002014449095DA1F1300003F070FCCDE926
:102DE0000001DDE9022303F081FC2A463346CDE9E8
:102DF000040103F02FFA05460E46601CC4B24C4590
:102E0000DEDB2A46334662A0FDF714FA2CE0A9F176
:102E10000400C7B200252E4603241EE03A46791E60
:102E2000CFB20020574900F023F9CDE902012D4926
:102E3000095DA1F1300003F042FCCDE90001DDE9BC
:102E4000022303F053FC2A463346CDE9040103F084
:102E500001FA05460E46601CC4B24C45DEDB2A462C
:102E600033464BA0FDF7E6F91098012806D002285A
:102E700015D0032824D0072830D1A3E028463146B6
:102E800003F0B6F944490860086803F009FF0246F8
:102E90000B46CDE9040141A0FDF7CCF9A2E028469C
:102EA000314603F0A5F93C494860486803F0F8FE54
:102EB00002460B46CDE904013CA0FDF7BBF991E0C9
:102EC0002846314603F094F933498860886803F056
:102ED000E7FE02460B46CDE904016FE07EE000000C
:102EE0008C000020C80000201A8100081E81000804
:102EF00022810008268100082A8100082E8100080E
:102F000032810008368100083A8100083E810008BD
:102F10004281000850313A200000000049313A2037
:102F20000000000044313A200000000050323A20F6
:102F30000000000049323A200000000044323A20EC
:102F400000000000454E3A200000000053533A2094
:102F50000000000058583A2000000000B8F1CABD37
:102F6000D5FDC8B7A3A10000CAFDBEDDD2ECB3A356
:102F70002CC7EBD6D8D0C2B7A2CBCDA3A1A3A1A317
:102F8000A10D0A00000024409A9999999999B93F96
:102F9000256C66090D0A0000440000205069642E6B
:102FA0004B70203D2025660D0A0000005069642EFC
:102FB0004B69203D2025660D0A00000015A0FDF795
:102FC00039F90FE02846314603F04CFB15490870EB
:102FD0000846017814A0FDF72DF903E015A0FDF7D0
:102FE00029F900BF02E017A0FDF724F910A0FDF7B2
:102FF00021F9002404E000201A490855601CC4B2DD
:103000001848005D0028F6D11749088013B0BDE8C4
:10301000F08F00005069642E4B64203D2025660D22
:103020000A0000004000002052756E203D202564FB
:103030000D0A00000D0ACEDED0A7A3A1A3A1A3A173
:103040000D0A0000B8F1CABDB4EDCEF3A3ACC7EBD6
:10305000D6D8D0C2B7A2CBCDA3A1A3A1A3A10D0A5C
:1030600000000000C80000208C00002000BFFEE728
:103070002DE9F0410746884616460024094D07E031
:1030800022462B463846414603F030FB04460D46A7
:103090003000A6F10101CEB2F2D120462946BDE8AA
:1030A000F08100000000F03F490050EAC12018BF45
:1030B00004204A0D18BF40F0010040F2FF72B2EB4D
:1030C000515F08BF40F00200012808BF052070478B
:1030D0002DE9F0414F1E00EBC7010446D1E9000184
:1030E00015461E4637F006020DD02A46334603F039
:1030F000FDFA7F1E04EBC703D3E9002303F0AAF80F
:1031000037F00602F1D1022F25D0042F13D0062F5D
:1031100018BFBDE8F0812A46334603F0E7FAD4E948
:103120000A2303F097F82A46334603F0DFFAD4E97E
:10313000082303F08FF82A46334603F0D7FAD4E980
:10314000062303F087F82A46334603F0CFFAD4E982
:10315000042303F07FF82A46334603F0C7FAD4E984
:10316000022303F077F82A46334603F0BFFAD4E986
:103170000023BDE8F04103F06DB8012204F063B90B
:1031800003F068B8002213461046114603F012B946
:10319000024A0020110704F056B9000001FDFFFFAC
:1031A00030380A2801D201207047002070470146BC
:1031B00000BF70472DE9FE4F06460F4600256846C2
:1031C00001F0DCF9002442E056F8240057F82410FE
:1031D000A0EB010ABAF1000F01DB514601E0CAF190
:1031E0000001084603F028FF83464FF08F4103F0AB
:1031F000F1FD80465DF82400002103F0ADFE16D0FD
:103200005DF82410404603F0E5FD82464FF07E5104
:1032100004F070F8814629F0004A0F48416A504690
:1032200004F036F812D20120A04005430EE00A480F
:10323000C169404603F02CFF05D30748016A4046A8
:1032400004F026F802D20120A0400543641C032CA0
:10325000BADB2846BDE8FE8FFC7400082DE9F04D6E
:103260008D4F21F0004A86B005460C46BA452ADB50
:10327000AAEB070028430AD08848824501DC1AD10E
:10328000CDB106B02846BDE8F04DFFF776BF844AC1
:10329000844B284603F02AFA07460E46824A834B9F
:1032A0002846214603F022FA06B03A463346BDE8E6
:1032B000F04D02F0CFBF0120FDF77CF906B0BDE86C
:1032C000F04DFFF75FBF7A48824542DABAF1795F85
:1032D0000BDA2846FFF7E8FE042808BFFFF758FF7F
:1032E000284606B02146BDE8F08D2A460B4610461A
:1032F00003F0FCF9834602466E480E460B46062153
:103300007844FFF7E5FE5A46334603F0EFF980466E
:1033100069488A465A46334604217844FFF7D8FE66
:103320005A46334603F0E2F900223B4602F092FF90
:1033300002460B464046514603F03CF82A462346D7
:1033400003F0D4F906B02A462346BDE8F04D02F05A
:1033500081BF284624F0004100223D463B4603F051
:10336000C3FA4FF0FF3204F06EF8064602465348A7
:103370000F460B4606217844FFF7AAFE32463B462D
:1033800003F0B4F9CDE900014D4832463B46042133
:103390007844FFF79DFE32463B4603F0A7F9002232
:1033A0002B4602F057FF834602913046394602F021
:1033B0007BFE804643480D46504517DCDDE90001A1
:1033C0005A46029B02F0F6FF42462B4603F08EF966
:1033D00042462B4602F03EFF012204F034F8304A08
:1033E000304B03F073FB304A304B4CE04FF0000A97
:1033F00052460B46404602F02DFFCDE903105246DF
:103400002B461046194603F071F932463B4603F04D
:103410006BFADDE9033202F0CDFF06460F46DDE927
:1034200000015A46029B02F0C5FF8346009101222B
:103430003046394604F007F8194A1A4B03F054FA9B
:1034400006460F4601224046294603F0FCFF5A4635
:10345000009B03F04BF932463B4603F037FB064630
:103460000F4601225046294603F0EDFF0E4DDFF8CE
:1034700058802A46434603F037FA32463B4603F06B
:1034800033FA2A46434603F02FFA002CD8BF81F0C6
:10349000004106B0BDE8F08D0000F03F0000F07F75
:1034A000075C143326A6913C182D4454FB21F93FA8
:1034B0000000E03F544E00006A4E0000DE4D000068
:1034C000F44D00003333EF3FFB21E93F2DE9F84F86
:1034D00004460D4621F0004000917349814211DC01
:1034E0007249884201DC06D12CB120462946BDE84C
:1034F000F84FFFF742BE6E48002DCCBF6D496E49B4
:10350000BDE8F88F6D49814211DD6D498142D8BF18
:103510004FF0FF366DDD20462946FFF7C5FD042834
:1035200008BFFFF735FE20462946BDE8F88F6549FC
:10353000654F25F00045814233DD6449814219DD44
:10354000002632464FF080432046294602F082FE94
:1035500080468A4601222046294603F074FF002255
:103560003B4603F0B3FA4246534602F023FF0446BB
:103570000D463EE001260022BA463B46204629463B
:1035800002F068FE80460F46002253462046294638
:1035900003F09CFA42463B4602F00CFF04460D46FF
:1035A00027E04B4981421BDDDFF828A102260022DB
:1035B00053462046294603F099F800223B4602F084
:1035C00049FE80460F46002253462046294603F016
:1035D0007DFA42463B4602F0EDFE04460D4608E009
:1035E000032622462B4600203B4902F0E3FE044618
:1035F0000D4622462B461046194603F077F88B46B7
:10360000824602460B4603F071F8074602463348ED
:1036100088460B4606217844FFF75AFD52465B4622
:1036200003F064F882462E488B463A46434605210D
:103630007844FFF74DFD3A46434603F057F80246FB
:103640000B46002E504659460CDA02F003FE224685
:103650002B4603F04BF801B022462B46BDE8F04F55
:1036600003F042B902F0F6FD22462B4603F03EF885
:103670001C4A7A4402EBC603D3E9002303F026FA7E
:1036800022462B4603F022FA174A7A4402EBC6037D
:10369000D3E9002303F028F9009A002AB8BF81F08B
:1036A0000041BDE8F88F0000000010440000F07FEA
:1036B000182D4454FB21F93FFB21F9BF0000DC3FEA
:1036C0000000203E0000F33F0000F03F0000E63F16
:1036D000008003400000F83F0000F0BFF64B000000
:1036E000B44B0000524B00001A4B00002DE9F04D86
:1036F0009446CCF1000423F000464CEA0404524FF7
:1037000046EAD4749A46884621F00042BC4206D864
:10371000454240EA050442EAD474BC4204D9BDE8FB
:10372000F04D6246FFF72CBDAAF14055A5F17F652B
:1037300055EA0C040BD0022404EAAA74434DDFF8C6
:1037400010E144EAD87452EA000B04D00CE0BDE862
:10375000F04DFFF7BBBE002C14BF012CBDE8F08D6F
:10376000022C30D0032C32D056EA0C0B0AD0BE42C9
:1037700020D1BA4209D126F0804622F08042334659
:10378000114617E000291ADB25E0DFF8C8B0FB443A
:10379000002C04BFDBE90001BDE8F08D012C02BF65
:1037A000DBE9000181F00041BDE8F08D022C0AD078
:1037B000032C0CD0BA4212D1B8F1000F0BDA234817
:1037C0002549BDE8F08D28462449BDE8F08D2846FE
:1037D0007146BDE8F08D1D482149BDE8F08D921B72
:1037E00012153C2AC4BF19481D490EDCBAF1000F5E
:1037F000BEBF12F13C0F0020014606DB624602F01C
:10380000D9FD21F00041FFF761FE002C08BFBDE8A3
:10381000F08D012C04BF81F00041BDE8F08D114A0C
:10382000114B022C07D003F051F92A46BDE8F04DA8
:103830000A4B03F04BB903F049F92A46BDE8F04DB5
:10384000064B03F051B800000000F07F182D4454DF
:10385000FB2109C0AE4A0000FB21F9BFFB21094052
:10386000FB21F93F075C143326A6A13C2DE9F0416A
:103870000446E07800F0C006E07800F03F0560788C
:1038800000F0010098B1EF102846E91705EB5171DF
:10389000C910A5EBC101491C01F0FF080B480068E5
:1038A00020B10A48414602683846904700BF607818
:1038B00000F0080030B10548406818B1B011034A63
:1038C000516888470020BDE8F0810000B800002062
:1038D00010B56FF00400FEF7C5FC0A4800680A49FD
:1038E000B0FBF1F0094908700846007800EB400190
:1038F000C1EBC0104FF6FF7101EAC0000449088017
:1039000010BD00009000002000127A006E00002020
:10391000700000200146114A12884A434FF0E0230C
:103920005A6100229A611A46126942F001021A6134
:1039300000BF4FF0E022106900F001021AB100F45C
:103940008032002AF5D04FF0E022126922F0010205
:103950004FF0E0231A6100229A6170477000002046
:103960000146114A12784A434FF0E0235A6100227F
:103970009A611A46126942F001021A6100BF4FF0C3
:10398000E022106900F001021AB100F48032002A2E
:10399000F5D04FF0E022126922F001024FF0E0234F
:1039A0001A6100229A6170476E00002038B5044603
:1039B00064B120208DF8000028208DF8010030200F
:1039C0008DF8020038208DF8030004E0A3220421C2
:1039D0006846FCF767FD6A46042140F69E2002F027
:1039E00065FA01F04FFE38BD3EB5044602208DF861
:1039F0000000CA208DF80100E3208DF802000920A4
:103A00008DF803006A460421682002F04FFAA320D3
:103A10008DF8000004F0400048B1C0208DF801008E
:103A2000C8208DF80200C2208DF8030006E0A32014
:103A30008DF801008DF802008DF8030004F4C070C9
:103A400048B1C4208DF80400CC208DF80500C620B4
:103A50008DF8060006E0A3208DF804008DF805001F
:103A60008DF80600A3208DF807008DF808008DF86A
:103A700009006A460A2140F6A72002F017FA04F06E
:103A8000030018B120208DF8000002E0D8208DF846
:103A900000006A46012140F6B62002F007FA04F061
:103AA000200018B1012000F0ADF802E0002000F085
:103AB000A9F804F4C07008B304F4807060B1B220B7
:103AC0008DF800008B208DF80100B6208DF80200E3
:103AD0009B208DF803000BE0B0208DF800008020C3
:103AE0008DF80100B4208DF8020090208DF80300BD
:103AF0006A46042140F6A22002F0D8F904F0010041
:103B000020B3F8208DF800006A4601214FF40B60C5
:103B100002F0CCF9FA21072000F02CFC072000F07D
:103B2000F3FB012000F013FC642000F0F3FC4FF4E1
:103B3000FA7000F002FDC821304800F0A3FB2820F5
:103B400000F0BCFB0A2000F0CCFB08E0D8208DF888
:103B500000006A4601214FF40B6002F0A7F904F05F
:103B6000020018B1D9208DF8000002E0D8208DF8AD
:103B700000006A46012140F23D7002F097F904F01E
:103B8000040018B1012000F069F802E0002000F004
:103B900065F804F0100018B10120FFF707FF02E0FC
:103BA0000020FFF703FF44F008001549488101F0A9
:103BB00069FD00201249887304F0400018B10846DE
:103BC000807B801D887304F4C07020B10C48807B1A
:103BD000801D0B49887304F0140020B10848807BD5
:103BE00010300749887304F0030020B10448807B3B
:103BF000001D0349887300203EBD000009E3CA028E
:103C0000B80000203EB504466CB10EA1D1E90020F9
:103C10008968CDE9002002916A4609214FF4976036
:103C200002F044F93EBD0AA2D2E900109268CDE943
:103C3000010200916A4609214FF4976002F036F9BB
:103C4000F0E70000B8AAB38DB4980D355D00000010
:103C5000B8AAAAAAB088C3C5C700000038B50446F0
:103C600064B1C0208DF80000C2208DF80100C4208E
:103C70008DF80200C6208DF8030004E08B22042199
:103C80006846FCF70FFC6A46042140F6982002F0D3
:103C90000DF901F0F7FC38BD10B5C8234FF4806270
:103CA000024940F6F63001F081FB10BD2475000892
:103CB0002DE9F04F8DB00746884615469946DDE957
:103CC000166B0024002030806B49887B5A4605A97A
:103CD00001F038FC18B1601E0DB0BDE8F08F6648E9
:103CE000807A00F01400002867D09DF814000006C8
:103CF0009DF8151040EA01409DF8161040EA012099
:103D00009DF81710084328609DF8180000069DF8DC
:103D1000191040EA01409DF81A1040EA01209DF870
:103D20001B10084368609DF81C0000069DF81D10DC
:103D300040EA01409DF81E1040EA01209DF81F1046
:103D40000843A8609DF8200000069DF8211040EA75
:103D500001409DF8221040EA01209DF823100843FD
:103D6000E86004F11000C4B228680014019068688B
:103D700000140290A86800140390E86800140490EE
:103D800001984043029901FB0100039901FB0100E6
:103D9000049901FB010ABAF1706F02DBBAF1885F86
:103DA00005DD01F06FFC00203080401E94E7B6F97D
:103DB000000040F48070308000BF2F48807A00F00F
:103DC000400020B305A9601C085C095D40EA0120A1
:103DD00000B2A8F8000005A9E01C095C05AAA01C17
:103DE000105C41EA002000B2A8F8020005A9601D9D
:103DF000095C201D105C41EA002000B2A8F8040014
:103E0000A01DC4B2B6F9000040F0080030801A4886
:103E1000408900F4C07008B305A9601C085C095D06
:103E200040EA012000B2388005A9E01C095C05AA1F
:103E3000A01C105C41EA002000B2788005A9601D3A
:103E4000095C201D105C41EA002000B2B880A01D72
:103E5000C4B2B6F9000040F0700030800648807AA5
:103E600000F0030018B105A90819FFF7FFFC484648
:103E700000F024FF00202FE7B800002070B588B0C4
:103E8000064601A801F0E6F8BDF804000021C903C8
:103E900041EA5045C4034448007A00F0030056F854
:103EA000200005904048007A00F0040010B1059809
:103EB000404205903C48007AC0F3C10056F820000B
:103EC00006903948007A00F0200010B10698404270
:103ED00006903548007AC0F3811056F8200007900C
:103EE0003148008900F4807010B107984042079073
:103EF0000598C117A0FB042301FB043100FB05104A
:103F0000810041EA927005900698C117A0FB042336
:103F100001FB043100FB0510810041EA927006901C
:103F20000798C117A0FB042301FB043100FB051017
:103F3000810041EA927007900598000E8DF8080004
:103F40000598000C8DF809000598000A8DF80A0004
:103F50000598C0B28DF80B000698000E8DF80C0085
:103F60000698000C8DF80D000698000A8DF80E00DA
:103F70000698C0B28DF80F000798000E8DF810005B
:103F80000798000C8DF811000798000A8DF81200B0
:103F90000798C0B28DF8130002AA0C214FF42570C7
:103FA00001F084FF08B070BDB800002030B585B0C6
:103FB000044616A207CA02AB07C3C82C03DD4FF0A4
:103FC000FF3005B030BDC82090FBF4F0401E85B234
:103FD000280A8DF80000E8B28DF801006A46022137
:103FE00040F2162001F062FF10B14FF0FF30E8E719
:103FF00002AA0C2140F6C12001F058FF10B14FF089
:10400000FF30DEE7044884810020DAE7FEF2ABC42B
:10401000AAF1DFDFBBAFDFDFB80000201FB5044629
:104020004848007A00F0030054F820000190454809
:10403000007A00F0040010B101984042019041481C
:10404000007AC0F3C10054F8200002903D48007A85
:1040500000F0200010B10298404202903948007AE6
:10406000C0F3811054F8200003903648008900F412
:10407000807010B10398404203903349019880FB4F
:104080000101800F40EA810001902F49029880FBD6
:104090000110820042EA917002902B49039880FB44
:1040A0000110820042EA917003900198000E8DF891
:1040B00000000198000C8DF801000198000A8DF8AD
:1040C00002000198C0B28DF803006A4604214FF443
:1040D000747001F0EBFE18B14FF0FF3004B010BD6A
:1040E0000298000E8DF800000298000C8DF8010077
:1040F0000298000A8DF802000298C0B28DF8030001
:104100006A4604214FF4757001F0D0FE10B14FF0F3
:10411000FF30E3E70398000E8DF800000398000CD1
:104120008DF801000398000A8DF802000398C0B2D0
:104130008DF803006A4604214FF4767001F0B6FE54
:10414000CCE70000B800002009E3CA0210B586B031
:10415000044647A00068039046A00068029046A06D
:104160000068019045A00068009004F0030003A9D6
:10417000085C8DF8140003A8C4F3C101405C8DF8FD
:10418000150003A8C4F38111405C8DF8160004F0FB
:10419000030002A9085C8DF8100002A8C4F3C10155
:1041A000405C8DF8110002A8C4F38111405C8DF8C9
:1041B000120005AA032140F2264001F077FE18B153
:1041C0004FF0FF3006B010BD04AA032140F22A4090
:1041D00001F06CFE10B14FF0FF30F3E7019805904D
:1041E0000098049004F0040058B19DF8140040F0C9
:1041F00001008DF814009DF8100040F001008DF8CA
:10420000100004F0200058B19DF8150040F00100A6
:104210008DF815009DF8110040F001008DF8110097
:1042200004F4807058B19DF8160040F001008DF83C
:1042300016009DF8120040F001008DF8120005AA4A
:1042400003214FF4886001F031FE10B14FF0FF30D0
:10425000B8E704AA032140F2314001F027FE10B173
:104260004FF0FF30AEE7064804810020AAE70000C7
:104270004CCD6C000CC92C003656760026466600E4
:10428000B8000020F8B505460E464FF47A7095FB4D
:10429000F0F000FB06F4200E8DF80000200C8DF8E5
:1042A0000100200A8DF80200E0B28DF803006A4692
:1042B00004214FF4AE7001F0F9FDF8BD38B50446A5
:1042C000052094FBF0F084B220128DF80000E0B2DB
:1042D0008DF801006A4602214FF4AD7001F0E6FD51
:1042E00038BD38B50446052094FBF0F084B22012A6
:1042F0008DF80000E0B28DF801006A4602214FF40B
:10430000AC7001F0D3FD38BD38B5044600200090F4
:1043100004F0010020B19DF8000040F03000009052
:1043200004F0020020B19DF8000040F00C00009065
:1043300004F0040020B19DF8000040F0030000905C
:104340006A4601214FF4A47001F0B0FD38BD38B5C4
:104350000446012C01DA012402E0042C00DD0424CF
:10436000601EC0B200906A46012140F24F1001F079
:104370009DFD38BD2DE9FC4706460F4606F00700B7
:1043800010B1B7F5C86F03DD4FF0FF30BDE8FC8713
:10439000384602F069FE8146594902F01BFD80460D
:1043A000684600F031FE9DF80000022806D004287F
:1043B00016D0082826D0102848D135E04FF08D417E
:1043C000404602F099FE814602F016FE84B24D4945
:1043D000404602F091FE814602F00EFE85B238E0C2
:1043E0004FF08C41404602F087FE814602F004FE09
:1043F00084B24549404602F07FFE814602F0FCFD52
:1044000085B226E04FF08B41404602F075FE8146B2
:1044100002F0F2FD84B23D49404602F06DFE814655
:1044200002F0EAFD85B214E04FF08A41404602F006
:1044300063FE814602F0E0FD84B23549404602F059
:104440005BFE814602F0D8FD85B202E04FF0FF30FE
:104450009CE700BF20128DF80400E0B28DF8050043
:1044600028128DF80600E8B28DF8070006F001006A
:10447000A0B101AA02214FF4EA7001F017FD10B1BA
:104480004FF0FF3082E70DF1060202214FF49270E7
:1044900001F00CFD10B14FF0FF3077E706F002009D
:1044A000A0B101AA02214FF4EC7001F0FFFC10B1A1
:1044B0004FF0FF306AE70DF1060202214FF49470CD
:1044C00001F0F4FC10B14FF0FF305FE706F004009C
:1044D000A0B101AA02214FF4EE7001F0E7FC10B187
:1044E0004FF0FF3052E70DF1060202214FF49670B3
:1044F00001F0DCFC10B14FF0FF3047E7002045E74A
:1045000000004843000040460000C0450000404510
:104510000000C04438B50446052094FBF0F085B295
:1045200028128DF80000E8B28DF801006A460221D9
:104530004FF4EF7001F0BAFC38BD38B504460520E1
:1045400094FBF0F085B228128DF80000E8B28DF8E7
:1045500001006A4602214FF4ED7001F0A7FC38BD5E
:1045600000BF054A128802F04002002AF9D0C2B208
:10457000014B1B1D1A807047003801407CB5054671
:1045800028494968087801AB04220D21FDF749FB51
:1045900008B107207CBD9DF80700C0F301109DF80D
:1045A000041001F0E00140EAE1008DF800009DF800
:1045B0000700C0F381009DF8051001F0E00140EA1A
:1045C000E1008DF801009DF8070000F003009DF860
:1045D000061001F0E00140EAE1008DF8020000243D
:1045E0001CE01DF8040018B9002045F8240013E071
:1045F0000D4845F8240006E055F824000B4902F068
:104600007BFD45F824001DF80400401EC0B20DF8E3
:1046100004000028F0D100BF601CC4B2032CE0DB12
:104620000020B7E7040000207B14AE3E1D5A843FF3
:104630002DE9F04F87B005460C46914601208DF8D4
:10464000100000208DF81100FE4A1268917CFD4A8E
:104650005268107804AB0222FDF789FB20B14FF0BD
:10466000FF3007B0BDE8F08FC820FFF753F90020F6
:104670008DF81000F34A1268D17BF24A5268107824
:1046800004AB0122FDF773FB10B14FF0FF30E8E7F8
:10469000EC4A12685179EB4A5268107804AB012257
:1046A000FDF765FB10B14FF0FF30DAE7E54A12681D
:1046B000917CE44A5268107804AB0122FDF757FB65
:1046C00010B14FF0FF30CCE7DE4A1268D17DDD4AF1
:1046D0005268107804AB0122FDF749FB10B14FF08E
:1046E000FF30BEE7D74A12681179D64A526810786F
:1046F00004AB0122FDF73BFB10B14FF0FF30B0E7F8
:104700000C208DF81000CF4A12681179CD4A5268FA
:10471000107804AB0122FDF72AFB10B14FF0FF30F7
:104720009FE70F20FFF7F6F8C648806A407A8DF8B9
:104730001000C44A12689178C24A5268107804ABDB
:104740000122FDF714FB10B14FF0FF3089E7BD489F
:10475000806A007A8DF81000BA4A12685178B94A16
:104760005268107804AB0122FDF701FB10B14FF045
:10477000FF3076E7B9F1000F07D0B248806A807A3F
:1047800040F0E0008DF8100004E0AE48806A807AC6
:104790008DF81000AB4A12689179AA4A52681078D5
:1047A00004AB0122FDF7E3FA10B14FF0FF3058E7F8
:1047B000B9F1000F07D0A348806AC07A40F0E0004A
:1047C0008DF8100003E0A048C07A8DF810009D4AD3
:1047D0001268D1799B4A5268107804AB0122FDF728
:1047E000C6FA10B14FF0FF303BE7B9F1000F02D02D
:1047F000C820FFF78FF840208DF81000914A12680A
:104800001179904A5268107804AB0122FDF7AFFA93
:1048100010B14FF0FF3024E778208DF81000894A5E
:1048200012685179874A5268107804AB0122FDF76B
:104830009EFA10B14FF0FF3013E783498889FFF7E4
:1048400069F800208DF810007E4A126851797D4A7F
:104850005268107804AB0122FDF789FA10B14FF0CD
:10486000FF30FEE6774A1268917A764A52681078ED
:1048700004AB0222FDF7D5F910B14FF0FF30F0E69E
:104880009DF811009DF8101040EA012B0C209BFBB5
:10489000F0F0C6B20020A86068602860A060606088
:1048A0002060824665E0674A1268D17A654A52689C
:1048B000107804AB0C22FDF7B4F910B14FF0FF30C3
:1048C000CFE69DF811009DF8101040EA012000B2DB
:1048D000ADF808009DF813009DF8121040EA012081
:1048E00000B2ADF80A009DF815009DF8141040EADA
:1048F000012000B2ADF80C00BDF908102068084492
:104900002060BDF90A10606808446060BDF90C10B1
:10491000A0680844A0609DF817009DF8161040EAB2
:10492000012000B2ADF800009DF819009DF81810A4
:1049300040EA012000B2ADF802009DF81B009DF88E
:104940001A1040EA012000B2ADF80400BDF90010D1
:10495000286808442860BDF9021068680844686047
:10496000BDF90410A8680844A8600AF1010000F02D
:10497000FF0AB24597DB3448D0F800C02868C11759
:10498000090441EA10410704624600233846FBF758
:104990002CFC32460023CDE90201FBF726FC2860FF
:1049A0002948D0F800C06868C117090441EA1041DD
:1049B0000704624600233846FBF717FC3246002303
:1049C000CDE90201FBF711FC68601F48D0F800C078
:1049D000A868C117090441EA104107046246002390
:1049E0003846FBF702FC32460023CDE90201FBF713
:1049F000FCFBA8601448D0F804C02168C817000464
:104A000040EA11480F046246002338464146FBF74E
:104A1000ECFB32460023CDE90201FBF7E6FB206008
:104A20000948D0F804C06068C117090441EA104180
:104A30000704624600233846FBF7D7FB32460023C3
:104A400004E0000004000020FC740008CDE902012D
:104A5000FBF7CBFB60601148D0F804C0A068C11719
:104A6000090441EA10410704624600233846FBF777
:104A7000BCFB32460023CDE90201FBF7B6FBA06088
:104A8000A068002804DDA068A0F58030A06003E0E5
:104A9000A06800F58030A0600020E2E5FC7400080A
:104AA0002DE9FC5F06460F4600253D494968087818
:104AB00001AB03220D21FDF7B4F810B10720BDE8CA
:104AC000FC9F9DF8040000F01F008DF804009DF885
:104AD000050000F01F008DF805009DF8060000F0AD
:104AE0001F008DF80600002456E056F8240057F801
:104AF0002410A0EB010BBBF1000F01DB594601E0D4
:104B0000CBF10001084602F097FA4FF08F41009078
:104B100002F060F9814601A8005D68B32149086888
:104B200002F0A2FA834659461F4802F053F9804624
:104B300004E01E49404602F0DFFA804601A8005D0D
:104B4000401EC0B201A908550028F2D1414648468E
:104B500002F040F983464FF07E5102F0CBFB8246D3
:104B60002AF0004B0F488169584602F091FB12D29F
:104B70000120A04005430EE00A480169484602F0C2
:104B800087FA05D307484169484602F081FB02D203
:104B90000120A0400543641C032CA6DB28468EE7B9
:104BA00004000020FC74000800B04C4554E3853F2D
:104BB00010B50446204600F00FF80346E01C00F054
:104BC0000BF843EAC00083B2A01D00F005F843EAE9
:104BD000801083B2184610BD014691F90020002ACA
:104BE00001DD00201EE091F90020002A01DA0420F6
:104BF00018E091F90120002A01DD012012E091F96D
:104C00000120002A01DA05200CE091F90220002A97
:104C100001DD022006E091F90220002A01DA0620D7
:104C200000E00720704700000024FEF751FE4FF41B
:104C3000A060FDF75BF94FF4E131002001F05AFA72
:104C40000220FCF76BFD0120FCF768FDFCF714FE69
:104C5000FCF77CFDFCF74CFDFCF78CFF03E03221F8
:104C60000020FCF7DDFD00F081F90028F7D11149A3
:104C70000860002141F61F40FDF7CCFB472141F2BF
:104C80008730FDF735FB14E00020FCF787FD044674
:104C9000022C07D10848007808B9012000E0002064
:104CA00005490870FDF70EFF4FF4FA710020FCF77C
:104CB000B7FDE9E7A08121424000002070470000D5
:104CC00070B50446002624F00104184890F824002A
:104CD00008B1002070BD1548807A10B94FF0FF3040
:104CE000F8E71248057C807A20401049087408468D
:104CF000007CA04202D04FF0FF3600E0002614B93D
:104D00000A48007D18B1012001F086F902E0002078
:104D100001F082F93CB100F0B5FC20B10348057404
:104D20004FF0FF30D6E73046D4E700000400002003
:104D30002DE9F04F9BB004460D4616461F464FF036
:104D40007E584FF000094FF0000A4FF0000B14A8F6
:104D500015A91AAB10AACDE9001016A918A8FEF7DC
:104D6000A7FF18B101201BB0BDE8F08FBDF85400BB
:104D700000F4807000287CD0109802F05DF94FF0AC
:104D80009D410F9002F026F88046119802F054F9E8
:104D90004FF09D410F9002F01DF88146129802F0ED
:104DA0004BF94FF09D410F9002F014F88246139892
:104DB00002F042F94FF09D410F9002F00BF883464C
:104DC00041464FF0804002F097F95146069002F0BC
:104DD00093F9494608904FF0404002F08DF959464A
:104DE000069002F089F90790089901F085FF099073
:104DF00001F056FFCDE90A01FEF730FA4FF06632B6
:104E0000594BCDE90C0101F071FCCDE90E0101F027
:104E1000EFF9206051464FF0804002F06DF95146A5
:104E2000039002F069F9494605904FF0404002F0C6
:104E300063F94946039002F05FF90490059902F086
:104E400059FA4FF07E51069001F056FF079001F09D
:104E500027FFCDE90A0141464FF0804002F04CF9AE
:104E60004946049002F048F9514606904FF08040C0
:104E700000E075E002F040F95946049002F03CF978
:104E80000590069901F038FF079001F009FFCDE980
:104E90000801DDE90A23FEF729FC4FF06632324BA8
:104EA000CDE90C0101F022FCCDE90E0101F0A0F9E1
:104EB00028605946584602F01FF951460690504660
:104EC00002F01AF949460490484602F015F94146A5
:104ED0000290404602F010F90190029901F00CFF97
:104EE0000390049902F006FA0590069902F002FA7E
:104EF000079001F0D5FECDE90A015946404602F07F
:104F0000FBF851460590484602F0F6F804900599E2
:104F100001F0F2FE4FF08041069002F0EDF80790AC
:104F200001F0BEFECDE90801DDE90A23FEF7DEFB54
:104F30004FF066320C4BCDE90C0101F0D7FBCDE907
:104F40000E0101F055F93060BDF862003880BDF8FF
:104F5000601024980180BDF864102598018001E05C
:104F6000022000E70020FEE666A64C4070B5002453
:104F700000F024F9002840D1782000F02FFFC4B2BF
:104F80000CB1012070BD7820FFF79AFEC4B20CB1BD
:104F90000220F7E7642000F0D3FEC4B20CB1032076
:104FA000F0E7FEF779FEC4B20CB10420EAE7154839
:104FB000FFF7FEFD0546FFF7C9F8C4B20CB10520A6
:104FC000E0E740F27310FEF70FFDC4B20CB106200B
:104FD000D8E76420FEF7EAFFC4B20CB10720D1E79E
:104FE00000F0CFFF04460CB10820CBE7012000F011
:104FF000A3FDC4B21CB10920C4E70A20C2E7002007
:10500000C0E700003000002001461148407A30B16E
:10501000012807D0022808D003280CD108E002207C
:1050200008700BE00420087008E00820087005E014
:105030001020087002E04FF0FF30704700BF0448B6
:10504000C07C18B108784006000E08700020F4E714
:105050000400002001461348407A30B1012808D0EE
:1050600002280AD0032810D10BE04FF480400880BA
:105070000EE041F69C7008800AE04FF480500880F2
:1050800006E04FF40060088002E04FF0FF30704708
:1050900000BF0448C07C10B1088840100880002080
:1050A000F5E700000400002001460248007C08707B
:1050B000002070470400002001460F48007A30B1FC
:1050C000012807D0022809D003280FD10AE0FA20CE
:1050D00008800EE04FF4FA7008800AE04FF47A700E
:1050E000088006E04FF4FA60088002E000200880A3
:1050F00000BF00BF002070470400002001460E489A
:10510000007A30B1012807D0022808D003280CD13A
:1051100008E00A4808600BE00948086008E0094810
:10512000086005E00848086002E04FF0FF30704773
:1051300000BF0020FBE70000040000200000034344
:105140000000834233330342333383410146124824
:10515000C07A082817D2DFE800F01704070A0D10FC
:105160001318BC20088013E06220088010E02A2079
:1051700008800DE0142008800AE00A20088007E07B
:105180000520088004E000BF00BF0020088000BFA9
:1051900000BF0020704700000400002001460648C0
:1051A00090F8240010B14FF0FF3070470248C089DA
:1051B00008800020F9E70000040000201CB58020D2
:1051C0008DF80000654A1268917C644A5268107834
:1051D0006B460122FCF7CBFD10B14FF0FF301CBD38
:1051E0006420FEF797FB00208DF800005B4A1268F0
:1051F000917C5A4A526810786B460122FCF7B7FD41
:1052000010B14FF0FF30EAE7544A1268917D534ADB
:10521000526810786B460622FCF703FD10B14FF080
:10522000FF30DCE79DF80500C007400F9DF8031034
:1052300001F0010140EA41009DF8011001F0010177
:1052400040EA010494B1012C03D101214348C17407
:1052500031E0022C03D100214048C1742BE02146EB
:105260003FA0FAF7E7FF4FF0FF30B8E73B4A12687C
:10527000D1783A4A526810786B460122FCF7D1FC8B
:1052800010B14FF0FF30AAE79DF8000000F00F04C6
:105290002CB93D48FAF7CEFF4FF0FF309FE7042CC2
:1052A00006D13AA0FAF7C6FF01212C48C17402E0EA
:1052B00000212A48C174FF2128488172FF20274914
:1052C0000872FF2125484172C1724FF6FF71C181FA
:1052D000FF21017481740121017380F822100021E3
:1052E00080F82310417501751630016041608160BE
:1052F000163880F8241080F82510C1844FF4FA6025
:1053000000F062FC10B14FF0FF3068E7022000F0BF
:105310002BFB10B14FF0FF3061E72A2000F0CEFCEC
:1053200010B14FF0FF305AE7322000F009FD10B104
:105330004FF0FF3053E70020FFF7C2FC10B14FF0F1
:10534000FF304CE7002000F051FB10B14FF0FF3070
:1053500045E7002000F042FD002040E70400002067
:10536000556E737570706F7274656420736F6674B8
:10537000776172652070726F6475637420726576F0
:105380002025642E0A000000DC82000848616C665B
:105390002073656E736974697669747920706172BF
:1053A0007420666F756E642E0A0000002DE9F043CC
:1053B00085B005460E4690469946294890F8250046
:1053C00020B14FF0FF3005B0BDE8F08316B94FF0C3
:1053D000FF30F8E7002423E0281B102801DD10200F
:1053E00000E0281B87B232193946204600F05EFDE6
:1053F00010B14FF0FF30E6E701AA3946204600F031
:1054000001F910B14FF0FF30DDE730193A4601A93C
:10541000FBF71CF810B16FF00100D4E7E01984B27B
:10542000AC42D9DB4FEA28208DF8000008F0FF00DD
:105430008DF801000A4A1268917E094A5268107874
:105440006B460222FCF793FC10B14FF0FF30BAE735
:105450000121034880F82510A0F826900020B2E72B
:105460000400002038B50446282C02DD4FF0FF3040
:1054700038BDDCB9002000F0EBFB00208DF8000007
:1054800007208DF801002E4A1268917C2C4A526840
:1054900010786B460222FCF76AFC10B14FF0FF3027
:1054A000E6E70021264801750020E1E7012000F031
:1054B000CFFB20208DF80000012C06D100208DF8B4
:1054C0000100052000F0FAFB17E0052C06DC0120A6
:1054D0008DF80100052000F0F1FB0EE0142C06DC35
:1054E00002208DF801000A2000F0E8FB05E003200F
:1054F0008DF80100142000F0E1FB9DF80100072168
:1055000001EB8010C0B28DF801000D4A1268917C49
:105510000B4A526810786B460222FCF728FC10B147
:105520004FF0FF30A4E70821054881720021017384
:10553000012101750020FFF7C3FB002098E7000060
:1055400004000020F8B504460F4616462C4890F893
:10555000240010B94FF0FF30F8BD2948807A10B907
:105560004FF0FF30F8E7264A1268917A244A5268D1
:1055700010786B460222FCF754FB10B14FF0FF305D
:10558000EAE79DF801009DF8001040EA0125A542D8
:1055900003DA00203070401EDEE71948406840887A
:1055A000B5EB600F17DD164A1268517C144A526839
:1055B00010786B460122FCF734FB10B14FF0FF303E
:1055C000CAE79DF8000000F0100020B100F05AF882
:1055D0006FF00100C0E7E2B2094B1B68D97A084BB3
:1055E0005B6818783B46FCF71CFB10B14FF0FF30AE
:1055F000B2E795FBF4F0401E30700020ACE70000ED
:1056000004000020F8B504460D46164616B94FF0C2
:10561000FF30F8BD1A48807A10B94FF0FF30F8E734
:1056200020128DF80000E0B28DF801009DF8010015
:105630002844134949684989884202DD4FF0FF3008
:10564000E7E70F4A1268117E0D4A526810786B46E0
:105650000222FCF78CFB10B14FF0FF30D9E7EAB221
:10566000074B1B68597D064B5B6818783346FCF77F
:10567000D8FA10B14FF0FF30CBE70020C9E70000A7
:105680000400002008B57048807A10B94FF0FF3050
:1056900008BD002000906C4A1268D17B6A4A5268AB
:1056A00010786B460122FCF762FB10B14FF0FF301F
:1056B000EEE7654A12685179634A526810786B4682
:1056C0000122FCF754FB10B14FF0FF30E0E75E4AD7
:1056D000126811795C4A526810786B460122FCF717
:1056E00046FB10B14FF0FF30D2E7574890F8240046
:1056F000002853D00C200090534A12681179524A66
:10570000526810786B460122FCF731FB10B14FF064
:10571000FF30BDE73220FEF7FDF8C02000904A4878
:10572000807A00F0010020B19DF8000040F02000D8
:105730000090454A12681179434A526810786B46C6
:105740000122FCF714FB10B14FF0FF30A0E73E48F8
:10575000407C10B10220009001E0002000903A4A05
:105760001268D17B384A526810786B460122FCF7E8
:10577000FEFA10B14FF0FF308AE700200090324A65
:1057800012685179304A526810786B460122FCF752
:10579000EEFA002855D04FF0FF3079E70420009052
:1057A000294A12681179284A526810786B460122FA
:1057B000FCF7DDFA10B14FF0FF3069E72248807C3A
:1057C00020B92148807A00F0010010B940200090F3
:1057D00001E0602000901C4A126811791A4A526850
:1057E00010786B460122FCF7C2FA10B14FF0FF307F
:1057F0004EE73220FEF78EF81348407C10B10120AE
:10580000009001E0002000900F4A1268D17B0E4A00
:10581000526810786B460122FCF7A9FA10B14FF0DC
:10582000FF3035E7084A12685179074A5268107804
:10583000054B10330122FCF79AFA10B14FF0FF30FC
:1058400026E7002024E70000040000202DE9F04FA7
:105850008DB083460F4602200C90424890F82400F9
:1058600020B1002000F068F9012600E0002603A81E
:10587000FFF722FC05A8FFF7C7FB01A8FFF766FCAE
:1058800002A8FFF78BFC374890F80AA004A8FFF79E
:105890000BFC002407E0002239465846FEF7C8FEFC
:1058A00000B902E0641C022CF5DB00BF022C01D120
:1058B000002528E0002407E0012206A909A8FEF738
:1058C000B7FE00B902E0641C022CF5DB00BF022C1D
:1058D00001D1002517E006A93846FDF76BFC00F062
:1058E000FF0809A95846FFF7DBF800F0FF0900257B
:1058F000B9F1000F01D145F00105B8F1000F01D158
:1059000045F0020500BFFF2016490872FF21154827
:105910004172C1724FF6FF71C181FF218172017422
:1059200001210173BDF80C0000F04EF99DF8140040
:1059300000F01AF8BDF8040000F0C0F9BDF8080046
:1059400000F0FEF9504600F049FA9DF81000FFF70C
:10595000B7F916B1012000F0EFF828460DB0BDE808
:10596000F08F00000400002038B504461E48807AFD
:1059700010B94FF0FF3038BD022C06D0042C07D0F0
:10598000082C08D0102C0CD108E0002000900BE06F
:105990000820009008E01020009005E018200090FA
:1059A00002E04FF0FF30E6E700BF0F48407A9DF875
:1059B0000010B0EBE10F01D10020DCE70A4A1268C9
:1059C000D179094A526810786B460122FCF7CFF969
:1059D00010B14FF0FF30CEE79DF80000C110024833
:1059E00041720020C7E700000400002038B50446DB
:1059F0005048807CA04201D1002038BD002C46D008
:105A00004C4A126811794B4A526810786B46012251
:105A1000FCF707F910B14FF0FF30EEE79DF80000FA
:105A200020F020000090434A12681179414A5268E0
:105A300010786B460122FCF79AF910B14FF0FF3055
:105A4000DBE70320FDF766FF02200090394890F85D
:105A5000220020B19DF8000040F080000090354801
:105A600090F8230020B19DF8000040F03000009035
:105A7000304A1268117D2F4A526810786B46012215
:105A8000FCF775F9002851D04FF0FF30B5E7294AEF
:105A900012681179274A526810786B460122FCF788
:105AA000C0F810B14FF0FF30A7E72248807A00F02D
:105AB000010028B19DF8000040F02000009004E0B3
:105AC0009DF8000020F0200000901A4A1268117919
:105AD000184A526810786B460122FCF748F910B159
