:020000040800F2
:1000000008080020CD4C00087D0400087F0400088B
:1000100083040008870400088B0400080000000027
:100020000000000000000000000000008F04000835
:1000300091040008000000009304000895040008E3
:10004000E74C0008E74C0008E74C0008E74C0008C4
:10005000E74C0008E74C0008E74C0008E74C0008B4
:10006000E74C0008E74C0008E74C0008E74C0008A4
:10007000E74C0008E74C0008E74C0008E74C000894
:10008000E74C0008E74C0008E74C0008E74C000884
:10009000E74C0008E74C0008E74C0008E74C000874
:1000A000E74C000871690008E74C0008E74C0008BD
:1000B000D76B0008E74C0008E74C0008E74C000845
:1000C000E74C0008E74C0008E74C0008E74C000844
:1000D000E74C0008F3450008E74C0008E74C00082F
:1000E000E74C0008E74C0008E74C0008E74C000824
:1000F000E74C0008E74C0008E74C0008E74C000814
:10010000E74C0008E74C0008E74C0008E74C000803
:10011000E74C0008E74C0008E74C0008E74C0008F3
:10012000E74C0008E74C0008E74C0008E74C0008E3
:1001300000F002F800F04DF80AA090E8000C8244AC
:100140008344AAF10107DA4501D100F042F8AFF289
:10015000090EBAE80F0013F0010F18BFFB1A43F0A5
:100160000103184700A6000020A60000103A24BF93
:1001700078C878C1FAD8520724BF30C830C144BF0C
:1001800004680C607047000000230024002500264E
:10019000103A28BF78C1FBD8520728BF30C148BFEA
:1001A0000B607047662909F05C83642906F08E862F
:1001B000782906F0C786002070471FB507F0FCFAC3
:1001C00004000020002108F0ADFAE0601FBD10B56A
:1001D00010BD07F031FC1146FFF7EFFF00F0D9F832
:1001E00007F04FFC03B4FFF7F2FF03BC04F066F91D
:1001F00010B5002401207F4908700FE07EA006F0B2
:1002000031FE012081490860642004F02AF90020B1
:100210007F49C1F8B801642004F023F975480078DB
:1002200000F0F1FE0028E9D110E0214679A006F0A7
:1002300019FE012075490860642004F012F90020BD
:100240007349C1F8B801642004F00BF969480078DB
:1002500003F0CCFD0028E8D102206649087010E0C8
:1002600073A006F0FFFD01206849091D08606420A5
:1002700004F0F7F800206649C1F8BC01642004F0DE
:10028000F0F85C48007800F0BEFE0028E8D111E0EC
:1002900021466CA006F0E6FD01205C49091D0860BE
:1002A000642004F0DEF800205949C1F8BC01642044
:1002B00004F0D7F84F48007803F098FD0028E7D104
:1002C00010BD10B503F096FE03E040F29A2000F056
:1002D000ECF903F00FFF0128F7D001204B4908602B
:1002E00003F096FF10BD2DE9FC4704465C48B0F9C9
:1002F000000008F0D0FC07464FF06632594B08F07A
:100300001DFD05460E46B4F9000008F0C4FC074682
:100310004FF03332544B08F011FD81462A463346E4
:1003200008F048FACDE9000108F058FC00B220803E
:1003300020884B490880BDE8FC8710B501202D4975
:1003400008704A4803F0A8FDB8B948490868002178
:1003500009F0E0F807D245490868454908F00EFF62
:100360004249086006E041490868414909F004FA39
:100370003E4908603F48FFF7B6FF02201D4908705C
:100380003A4803F089FD18B93A48801DFFF7ABFFE2
:1003900010BD4FF4A06005F03DFA04F025F84FF4CD
:1003A0001651002004F0C4F800F066F900F0AAF934
:1003B000FFF71EFF06F084FC002141F61F4006F007
:1003C0009DFC472141F2873006F0F8FC10E0FFF772
:1003D000B4FF04F064F9002000F0B4F9012807D15B
:1003E0002548007808B9012000E000202249087063
:1003F000EDE70000210000204D5055315F496E6946
:1004000074206572726F720D0A000000B88121427B
:10041000008021426D7075315F646D705F696E6937
:1004200074206572726F720925640D0A0000000065
:100430004D5055325F496E6974206572726F720D4E
:100440000A0000006D7075325F646D705F696E69DF
:1004500074206572726F720925640D0A0000000035
:10046000000000206666E63F3333D33F9000002053
:1004700000003443C800002098000020704700BFEF
:10048000FEE700BFFEE700BFFEE700BFFEE77047E4
:1004900070477047704700000CB500200190009035
:1004A0006C48006840F480306A49086000BF6948C1
:1004B000006800F4003000900198401C0190009802
:1004C00018B90198B0F5A06FF1D16248006800F446
:1004D000003010B10120009001E000200090009851
:1004E000012843D15C48006840F010005A49086078
:1004F0000846006820F0030008600846006840F0E5
:100500000200086053484068524948600846406805
:1005100048600846406840F480604860084640688B
:1005200020F47C1048600846406840F4E8104860B9
:100530000846006840F08070086000BF45480068C9
:1005400000F000700028F9D04248406820F0030015
:10055000404948600846406840F00200486000BFDB
:100560003C48406800F00C000828F9D10CBD10B5DB
:10057000FFF792FF10BD10B53648006840F001004B
:1005800034490860084640683449084031494860A9
:1005900008460068324908402E490860084600684D
:1005A00020F4802008600846406820F4FE0048607F
:1005B0004FF41F008860FFF7DAFF4FF00060294911
:1005C000086010BD10B5002100200022214B5B689F
:1005D00003F00C0121B1042906D0082928D107E035
:1005E000214B224C236027E01F4B204C236023E04B
:1005F000184B5B6803F47010164B5B6803F4803291
:10060000022303EB904022B9194B4343174C23605C
:100610000DE0104B5B6803F4003323B1144B4343EC
:10062000124C236003E0104B4343104C236003E063
:100630000D4B0E4C236000BF00BF064B5B68C3F33D
:1006400003130C4CE15C094B1B68CB40074C236047
:1006500010BD000000100240002002400000FFF822
:10066000FFFFF6FE08ED00E000127A000400002013
:1006700000093D000800002008B50121082004F011
:1006800061FE4FF44040ADF8000010208DF80300EB
:1006900003208DF802006946154804F097FB4FF4DB
:1006A0004041134804F03FFC08BD12490968491C49
:1006B000104A1160814208D10F490968C9430F4AA5
:1006C000C2F8B81100210B4A116070470C49096843
:1006D000491C0B4A1160814209D10749091D09686B
:1006E000C943064AC2F8BC110021054A116070478F
:1006F000000C014018000020B881214200802142F6
:100700001C00002008B50121082004F01BFE012177
:100710002A4804F02CFC4FF48050ADF8000048202B
:100720008DF803006946264804F050FB4FF4005052
:10073000ADF8000048208DF803006946204804F019
:1007400045FB08BD10B5044614B101201D490870D1
:100750001C48007808B34FF48051194804F0C9FBD5
:1007600028B14FF40051164804F0C3FBA8B9022089
:1007700003F077FE0020134908704FF480511048B1
:1007800004F0B7FB08B9012010BD4FF400510C482C
:1007900004F0AFFB80B90220F6E74FF4805108481F
:1007A00004F0A7FB012807D14103054804F0A1FB91
:1007B000012801D1034908700020E5E7000230005C
:1007C000000C01402000002010B5022003F025FE9F
:1007D00010BD08B50121042004F0B4FD41F630003D
:1007E000ADF8000010208DF8030003208DF8020002
:1007F0006946FE4804F0EAFA41F63001FB4804F08D
:1008000092FB08BD10B50446012C1ED1F748001D0F
:10081000006820F47040F549091D0860084600682A
:1008200040F4405008600120F1490860F149C1F8E6
:10083000B001FFF7C9FF0020ED490860FFF7C4FFD2
:100840000020EC49C1F8B0011FE0022C1DD1E7489F
:10085000006820F47020E54908600846006840F40C
:10086000403008600120E2491C390860E149C1F8C4
:100870009401FFF7A9FF0020DD491C390860FFF74C
:10088000A3FF0020DB49C1F8940110BD10B5044658
:10089000012C1FD1D548001D006820F47040D349B9
:1008A000091D08600846006840F4405008600020B8
:1008B000CF49091D0860CF49C1F8AC01FFF784FF9B
:1008C0000120CB49091D0860CA49C1F8AC01FFF7F6
:1008D0007BFF1EE0022C1CD1C448006820F470206D
:1008E000C24908600846006840F4403008600020B3
:1008F000BF4918390860BF49C1F89001FFF764FF8C
:100900000120BB4918390860BA49C1F89001FFF7C6
:100910005BFF10BD70B505460024012D2AD1B348F8
:10092000001D006820F47040B049091D08600846A9
:10093000006840F4004008600120AD490860FFF7FE
:1009400043FF0120AB49C1F8B001FFF73DFF08E0CC
:10095000601CC4B2FA2C04DD0120FFF797FF0120D0
:1009600070BDA348803800680028F1D1A049091D56
:100970000860F5E7022D29D19C48006820F470201A
:100980009A4908600846006840F400200860012089
:1009900097491C390860FFF717FF01209549C1F8F6
:1009A0009401FFF711FF08E0601CC4B2FA2C04DDCB
:1009B0000220FFF76BFF0120D2E78D489C380068CA
:1009C0000028F1D18A4918390860C9E70120C7E732
:1009D00010B50446012C21D100208549091D08606D
:1009E0008248001D006820F470408049091D08609D
:1009F0000846006840F44050086000207D49C1F876
:100A0000AC01FFF7E1FE01207949091D0860FFF7FD
:100A1000DBFE00207749C1F8B00120E0022C1ED196
:100A200000207349183908607048006820F470206D
:100A30006E4908600846006840F4403008600020B5
:100A40006C49C1F89001FFF7BFFE012068491839D1
:100A50000860FFF7B9FE00206649C1F8940110BD97
:100A600010B50446012C21D100206149091D086000
:100A70005E48001D006820F470405C49091D086054
:100A80000846006840F44050086001205949C1F808
:100A9000AC01FFF799FE01205549091D0860FFF7D9
:100AA00093FE00205349C1F8B00120E0022C1ED172
:100AB00000204F49183908604C48006820F4702025
:100AC0004A4908600846006840F440300860012048
:100AD0004849C1F89001FFF777FE012044491839D1
:100AE0000860FFF771FE00204249C1F8940110BD73
:100AF00070B505460E46012E28D13C48001D006801
:100B000020F470403949091D08600846006840F427
:100B10004050086000203649091D0860002412E09A
:100B2000E809334908606806050E01203149C1F81B
:100B3000B001FFF749FE00202D49091D0860FFF7AD
:100B400043FE601CC4B2082CEADB28E0022E26D14A
:100B50002648006820F47020244908600846006890
:100B600040F4403008600020214918390860002412
:100B700013E0E8091E491C3908606806050E0120CB
:100B80001C49C1F89401FFF71FFE002018491839CD
:100B90000860FFF719FE601CC4B2082CE9DB70BDC9
:100BA0002DE9F04106460F460025012F38D10F48A8
:100BB000001D006820F470400C49091D08600846BB
:100BC000006840F40040086000241CE00020084950
:100BD000091D0860FFF7F8FD01200649C1F8B001C2
:100BE0006806050E02488038006805E000080140EC
:100BF000AC0121420000214208B1681CC5B2FFF7D8
:100C0000E3FD601CC4B2082CE0DB1EB90120FFF735
:100C100027FF02E00120FFF7DBFE2846BDE8F08158
:100C2000022F2DD11748006820F470201549086064
:100C30000846006840F400200860002414E000200A
:100C400011490860FFF7C0FD01201049C1F8940167
:100C50006806050E0C488438006808B1681CC5B2E7
:100C6000FFF7B2FD601CC4B2082CE8DB1EB90220FD
:100C7000FFF7F6FE02E00220FFF7AAFE2846CDE7C6
:100C80000020CBE7000801409401214200002142EE
:100C900070B506460D4614462046FFF7B3FD2146C3
:100CA000D020FFF725FF2046FFF734FE20B1204675
:100CB000FFF7ECFD012070BD21463046FFF718FF1D
:100CC0002046FFF727FE21462846FFF711FF204662
:100CD000FFF720FE20B12046FFF7D8FD0120EAE70C
:100CE0002046FFF7D3FD0020E5E770B504460D462A
:100CF000E006010E2A461B20FFF7CAFF70BD70B543
:100D000004460D46E006010E2A461C20FFF7C0FFF0
:100D100070BD70B504460D460026BC2C01DB0126D3
:100D200010E0622C01DB02260CE02A2C01DB0326FA
:100D300008E0142C01DB042604E00A2C01DB052664
:100D400000E006262A4631461A20FFF7A1FF70BDB3
:100D50002DE9F04104460D46B4F57A7F01DD4FF4EC
:100D60007A74042C00DA04244FF47A7090FBF4F0C7
:100D7000401EC6B22A4631461920FFF789FF0646B3
:100D8000274604EBD771C1F34F002946FFF7C1FF97
:100D9000BDE8F0812DE9F04106460F4614461D4698
:100DA000BE480078FFF72EFD002141EA4601C8B297
:100DB000BA490978FFF79CFEB8480078FFF7AAFD0A
:100DC00030B1B6480078FFF761FD0120BDE8F08141
:100DD000B24801783846FFF78BFEB0480078FFF73D
:100DE00099FDAE480078FFF70DFD012101EB4601AA
:100DF000C8B2AA490978FFF77BFEA8480078FFF738
:100E000089FD11E0012C06D1A44801780020FFF7EC
:100E1000C7FE287005E0A14801780120FFF7C0FE59
:100E20002870601EC4B26D1C002CEBD19B4800786A
:100E3000FFF72CFD0020C9E72DE9F84F6B46022291
:100E400041216820FFF7A6FF9DF801009DF80010E2
:100E500040EA01200FFA80FA504607F01CFF804656
:100E600000228F4B07F062FD06468E4A8E4B07F03C
:100E7000A1FC044607F06CFC83468C49584608F0F8
:100E80007DFB044608F0DEFA00B2BDE8F88F2DE9DC
:100E9000FC4104460D4616466B4606224321682057
:100EA000FFF778FF0746BFB99DF801009DF80010D5
:100EB00040EA012000B220809DF803009DF8021056
:100EC00040EA012000B228809DF805009DF804103A
:100ED00040EA012000B230803846BDE8FC812DE9AF
:100EE000FC4104460D4616466B4606223B2168200F
:100EF000FFF750FF0746BFB99DF801009DF80010AD
:100F000040EA012000B220809DF803009DF8021005
:100F100040EA012000B228809DF805009DF80410E9
:100F200040EA012000B230803846BDE8FC812DE95E
:100F3000F04105460E461746984658480078FFF798
:100F400061FC002141EA4501C8B254490978FFF724
:100F5000CFFD52480078FFF7DDFC30B14F480078F4
:100F6000FFF794FC0120BDE8F0814C480178304641
:100F7000FFF7BEFD49480078FFF7CCFC002412E0E3
:100F800018F8040045490978FFF7B2FD4348007896
:100F9000FFF7C0FC28B141480078FFF777FC01203B
:100FA000E1E7601CC4B2BC42EADB3C480078FFF7D2
:100FB0006DFC0020D7E770B505460C462046FFF7CC
:100FC00021FC2146D020FFF793FD2046FFF7A2FC2D
:100FD00021462846FFF78CFD2046FFF79BFC204664
:100FE000FFF710FC2146D120FFF782FD2046FFF7D6
:100FF00091FC21460020FFF7D3FD06462046FFF76F
:1010000045FC304670BD70B50446FFF7E2FB224652
:1010100080216B20FFF73CFE642003F022FA224679
:1010200000216B20FFF734FE21460320FFF75DFE11
:1010300021460020FFF763FE21463220FFF788FE9D
:10104000224600213820FFF723FE224600216A2095
:10105000FFF71EFE224600212320FFF719FE22463D
:1010600080213720FFF714FE21467520FFF7A3FFEC
:101070000546682D0ED1224601216B20FFF708FEA0
:10108000224600216C20FFF703FE21463220FFF7A5
:101090005FFE01E0012070BD0020FCE72100002080
:1010A00000407540A4703D0AD74342400000C8424A
:1010B00010B5C8234FF48062F74940F6F63002F0CD
:1010C0009BFC10BD10B586B00446F4A000680390E8
:1010D000F3A000680290F3A000680190F2A00068FD
:1010E000009004F0030003A9085C8DF8140003A825
:1010F000C4F3C101405C8DF8150003A8C4F381114D
:10110000405C8DF8160004F0030002A9085C8DF81D
:10111000100002A8C4F3C101405C8DF8110002A8C0
:10112000C4F38111405C8DF8120005AA032140F23E
:10113000264002F0E7FB18B14FF0FF3006B010BDBB
:1011400004AA032140F22A4002F0DCFB10B14FF068
:10115000FF30F3E7019805900098049004F0040034
:1011600058B19DF8140040F001008DF814009DF86E
:10117000100040F001008DF8100004F0200058B17C
:101180009DF8150040F001008DF815009DF8110044
:1011900040F001008DF8110004F4807058B19DF802
:1011A000160040F001008DF816009DF8120040F086
:1011B00001008DF8120005AA03214FF4886002F0A7
:1011C000A1FB10B14FF0FF30B8E704AA032140F2B1
:1011D000314002F097FB10B14FF0FF30AEE7B3485B
:1011E00004810020AAE71FB50446B048007A00F049
:1011F000030054F820000190AC48007A00F004008D
:1012000010B1019840420190A848007AC0F3C10093
:1012100054F820000290A548007A00F0200010B198
:10122000029840420290A148007AC0F3811054F81D
:10123000200003909D48008900F4807010B103984D
:10124000404203909A49019880FB0101800F40EAD7
:10125000810001909649029880FB0110820042EAC9
:10126000917002909249039880FB0110820042EA3B
:10127000917003900198000E8DF800000198000C09
:101280008DF801000198000A8DF802000198C0B2A3
:101290008DF803006A4604214FF4747002F032FBAB
:1012A00018B14FF0FF3004B010BD0298000E8DF859
:1012B00000000298000C8DF801000298000A8DF8D9
:1012C00002000298C0B28DF803006A4604214FF470
:1012D000757002F017FB10B14FF0FF30E3E7039891
:1012E000000E8DF800000398000C8DF801000398A3
:1012F000000A8DF802000398C0B28DF803006A4618
:1013000004214FF4767002F0FDFACCE770B588B096
:10131000064601A801F0FDFCBDF804000021C90348
:1013200041EA5045C4036148007A00F0030056F8D2
:10133000200005905D48007A00F0040010B1059887
:10134000404205905948007AC0F3C10056F8200089
:1013500006905648007A00F0200010B106984042EE
:1013600006905248007AC0F3811056F8200007908A
:101370004E48008900F4807010B1079840420790F1
:101380000598C117A0FB042301FB043100FB0510E5
:10139000810041EA927005900698C117A0FB0423D2
:1013A00001FB043100FB0510810041EA92700690B8
:1013B0000798C117A0FB042301FB043100FB0510B3
:1013C000810041EA927007900598000E8DF80800A0
:1013D0000598000C8DF809000598000A8DF80A00A0
:1013E0000598C0B28DF80B000698000E8DF80C0021
:1013F0000698000C8DF80D000698000A8DF80E0076
:101400000698C0B28DF80F000798000E8DF81000F6
:101410000798000C8DF811000798000A8DF812004B
:101420000798C0B28DF8130002AA0C214FF4257062
:1014300002F068FA08B070BD30B585B004461DA250
:1014400007CA02AB07C3C82C03DD4FF0FF3005B05D
:1014500030BDC82090FBF4F0401E85B2280A8DF8FC
:101460000000E8B28DF801006A46022140F2162021
:1014700002F048FA10B14FF0FF30E8E702AA0C2161
:1014800040F6C12002F03EFA10B14FF0FF30DEE727
:10149000064884810020DAE7569900084CCD6C009C
:1014A0000CC92C003656760026466600B80000208F
:1014B00009E3CA02FEF2ABC4AAF1DFDFBBAFDFDF94
:1014C0000146FC4880890880002070472DE9FC47D0
:1014D00006460F4606F0070010B1B7F5C86F03DDEA
:1014E0004FF0FF30BDE8FC87384607F0FFFF81462C
:1014F000F14907F0B1FE8046684601F08EFB9DF889
:101500000000022806D0042816D0082826D010286B
:1015100048D135E04FF08D41404608F02FF8814624
:1015200007F0ACFF84B2E549404608F027F8814651
:1015300007F0A4FF85B238E04FF08C41404608F038
:101540001DF8814607F09AFF84B2DD49404608F055
:1015500015F8814607F092FF85B226E04FF08B41E7
:10156000404608F00BF8814607F088FF84B2D54961
:10157000404608F003F8814607F080FF85B214E08A
:101580004FF08A41404607F0F9FF814607F076FFA9
:1015900084B2CD49404607F0F1FF814607F06EFF67
:1015A00085B202E04FF0FF309CE700BF20128DF8BB
:1015B0000400E0B28DF8050028128DF80600E8B2AC
:1015C0008DF8070006F00100A0B101AA02214FF436
:1015D000EA7002F097F910B14FF0FF3082E70DF199
:1015E000060202214FF4927002F08CF910B14FF014
:1015F000FF3077E706F00200A0B101AA02214FF404
:10160000EC7002F07FF910B14FF0FF306AE70DF196
:10161000060202214FF4947002F074F910B14FF0F9
:10162000FF305FE706F00400A0B101AA02214FF4E9
:10163000EE7002F067F910B14FF0FF3052E70DF194
:10164000060202214FF4967002F05CF910B14FF0DF
:10165000FF3047E7002045E738B5044600200090FA
:1016600004F0010020B19DF8000040F0300000902F
:1016700004F0020020B19DF8000040F00C00009042
:1016800004F0040020B19DF8000040F00300009039
:101690006A4601214FF4A47002F034F938BD38B520
:1016A0000446012C01DA012402E0042C00DD0424AC
:1016B000601EC0B200906A46012140F24F1002F055
:1016C00021F938BD38B50446052094FBF0F085B209
:1016D00028128DF80000E8B28DF801006A46022158
:1016E0004FF4EF7002F00EF938BD38B5044605200E
:1016F00094FBF0F085B228128DF80000E8B28DF866
:1017000001006A4602214FF4ED7002F0FBF838BD8B
:10171000F8B505460E464FF47A7095FBF0F000FBE5
:1017200006F4200E8DF80000200C8DF80100200A30
:101730008DF80200E0B28DF803006A4604214FF4F0
:10174000AE7002F0DFF8F8BD38B50446052094FB12
:10175000F0F084B220128DF80000E0B28DF80100A4
:101760006A4602214FF4AD7002F0CCF838BD38B5AE
:101770000446052094FBF0F084B220128DF800009E
:10178000E0B28DF801006A4602214FF4AC7002F01D
:10179000B9F838BD38B5044614B94FF0FF3038BD3C
:1017A0006A4604214FF4587002F0E9F810B14FF086
:1017B000FF30F4E79DF8000000069DF8011040EAB4
:1017C00001409DF8021040EA01209DF803100843F3
:1017D00020600020E3E738B50446200E8DF80000B5
:1017E000200C8DF80100200A8DF80200E0B28DF87F
:1017F00003006A4604214FF4587002F083F838BDA4
:1018000038B5044614B94FF0FF3038BD6A4604219C
:101810004FF4717002F0B3F810B14FF0FF30F4E7FD
:101820009DF8000000069DF8011040EA01409DF877
:10183000021040EA01209DF80310084300EB8000ED
:10184000800020600020E0E738B504461420B4FB97
:10185000F0F4200E8DF80000200C8DF80100200A15
:101860008DF80200E0B28DF803006A4604214FF4BF
:10187000717002F047F838BD38B5044664B12020D5
:101880008DF8000028208DF8010030208DF802002E
:1018900038208DF8030004E0A3220421684605F0F7
:1018A0006DFC6A46042140F69E2002F02BF800F001
:1018B00083FC38BDB80000200000484300004046CB
:1018C0000000C045000040450000C04438B5044653
:1018D00064B1C0208DF80000C2208DF80100C42042
:1018E0008DF80200C6208DF8030004E08B2204214D
:1018F000684605F043FC6A46042140F6982002F051
:1019000001F800F059FC38BD3EB504466CB1FDA1AC
:10191000D1E900208968CDE9002002916A460921B9
:101920004FF4976001F0EEFF3EBDF9A2D2E900103E
:101930009268CDE9010200916A4609214FF497604F
:1019400001F0E0FFF0E73EB5044602208DF800000C
:10195000CA208DF80100E3208DF8020009208DF8DF
:1019600003006A460421682001F0CCFFA3208DF813
:10197000000004F0400048B1C0208DF80100C820EC
:101980008DF80200C2208DF8030006E0A3208DF838
:1019900001008DF802008DF8030004F4C07048B116
:1019A000C4208DF80400CC208DF80500C6208DF8E9
:1019B000060006E0A3208DF804008DF805008DF8E0
:1019C0000600A3208DF807008DF808008DF80900A7
:1019D0006A460A2140F6A72001F094FF04F00300B4
:1019E00018B120208DF8000002E0D8208DF800000A
:1019F0006A46012140F6B62001F084FF04F0200081
:101A000018B10120FFF780FF02E00020FFF77CFF04
:101A100004F4C07008B304F4807060B1B2208DF893
:101A200000008B208DF80100B6208DF802009B206D
:101A30008DF803000BE0B0208DF8000080208DF8B9
:101A40000100B4208DF8020090208DF803006A4652
:101A5000042140F6A22001F055FF04F0010020B35C
:101A6000F8208DF800006A4601214FF40B6001F068
:101A700049FFFA210720FFF729FD0720FFF7ECFDBA
:101A80000120FFF70CFE6420FFF71CFE4FF4FA70F4
:101A9000FFF72BFEC821A148FFF73AFE2820FFF7E9
:101AA00053FE0A20FFF763FE08E0D8208DF80000FF
:101AB0006A4601214FF40B6001F024FF04F002009C
:101AC00018B1D9208DF8000002E0D8208DF8000070
:101AD0006A46012140F23D7001F014FF04F0040059
:101AE00018B10120FFF7F2FE02E00020FFF7EEFE42
:101AF00004F0100018B10120FFF7BEFE02E0002044
:101B0000FFF7BAFE44F008008549488100F054FB15
:101B100000208349887304F0400018B10846807B98
:101B2000801D887304F4C07020B17D48807B801DC7
:101B30007B49887304F0140020B17948807B103011
:101B40007749887304F0030020B17548807B001D3D
:101B50007349887300203EBD014671484089088062
:101B6000002070472DE9F0410446E07800F0C006FF
:101B7000E07800F03F05607800F0010098B1EF10C8
:101B80002846E91705EB5171C910A5EBC101491CA5
:101B900001F0FF086248006820B1614841460268D0
:101BA0003846904700BF607800F0080030B15C48CC
:101BB000406818B1B0115A4A516888470020BDE802
:101BC000F08110B586B0044656A207CA03AB07C31E
:101BD00057A207CA8DE80700012C09D0022C0ED1AC
:101BE00003AA0B2140F6822001F08CFE06B010BD46
:101BF0006A460B2140F6822001F084FEF6E74FF0A2
:101C0000FF30F3E72DE9F04F8DB0074688461546C3
:101C10009946DDE9166B0024002030804049887B1E
:101C20005A4605A901F0D1F918B1601E0DB0BDE802
:101C3000F08F3B48807A00F01400002861D09DF8B6
:101C4000140000069DF8151040EA01409DF816109A
:101C500040EA01209DF81710084328609DF81800FD
:101C600000069DF8191040EA01409DF81A1040EA5C
:101C700001209DF81B10084368609DF81C000006B9
:101C80009DF81D1040EA01409DF81E1040EA012019
:101C90009DF81F100843A8609DF8200000069DF8DD
:101CA000211040EA01409DF8221040EA01209DF8F1
:101CB00023100843E86004F11000C4B2286800143F
:101CC0000190686800140290A86800140390E86806
:101CD0000014049001984043029901FB010003990C
:101CE00001FB0100049901FB010ABAF1706F02DBEC
:101CF000BAF1885F22DD00F05FFA00203080401EDC
:101D000094E721E0B8AAB38DB4980D355D000000CA
:101D1000B8AAAAAAB088C3C5C700000009E3CA02CE
:101D2000B8000020D8B1B9F38BA391B609B4D9009B
:101D3000DAB1B9F38BA391B6DAB4DA00B6F90000E0
:101D400040F48070308000BF3448807A00F040005A
:101D500020B305A9601C085C095D40EA012000B2BF
:101D6000A8F8000005A9E01C095C05AAA01C105CED
:101D700041EA002000B2A8F8020005A9601D095C34
:101D8000201D105C41EA002000B2A8F80400A01D4C
:101D9000C4B2B6F9000040F0080030801F48408906
:101DA00000F4C07008B305A9601C085C095D40EA36
:101DB000012000B2388005A9E01C095C05AAA01C1E
:101DC000105C41EA002000B2788005A9601D095C22
:101DD000201D105C41EA002000B2B880A01DC4B2F2
:101DE000B6F9000040F0700030800C48807A00F0B6
:101DF000030018B105A90819FFF7B4FE484600F022
:101E000048FD002012E701460448016000207047A9
:101E1000014602484160002070470000B8000020E1
:101E200038B50446F74890F82400C0B114B1022038
:101E3000009001E000200090F24A1268D17BF14A44
:101E4000526810786B460122FFF771F810B14FF01D
:101E5000FF3038BD9DF80010EA48417423E0E9489E
:101E6000807A10B94FF0FF30F3E724B1E548407CA9
:101E700008B10020EDE714B10120009001E000203E
:101E80000090E04A1268D17BDE4A526810786B46B7
:101E90000122FFF74CF810B14FF0FF30D9E79DF861
:101EA0000010D84841740020D3E738B500241FE063
:101EB000D4480068C07AA04204D0D2480068407D6F
:101EC000A04200D112E0CF49496808786B46012250
:101ED0002146FEF75FFF10B14FF0FF3038BD9DF88F
:101EE00000202146C8A004F0BDFF00BF601CC4B2A2
:101EF000C44840680079A042DADC0020EEE770B503
:101F000004460D46BF480068C07AA04204D0BD48D0
:101F10000068407DA04202D14FF0FF3070BDB9484B
:101F200040680079A04202DC4FF0FF30F6E7B54987
:101F3000496808782B4601222146FEF72BFFEDE782
:101F400038B50446AF4890F82300A04201D10020E4
:101F500038BD14B13020009001E000200090A94865
:101F6000807C20B19DF8000040F002000090A54860
:101F700090F8220020B19DF8000040F08000009011
:101F8000A04A1268117D9F4A526810786B46012260
:101F9000FEF7CDFF10B14FF0FF30D9E7994880F838
:101FA00023400020D4E738B5044604F0700010B197
:101FB0000120009005E014B10020009001E04020D5
:101FC0000090904A1268917C8E4A526810786B4655
:101FD0000122FEF7ACFF20B100218A488172481E21
:101FE00038BD9DF8000020F04001864801730020B4
:101FF000009004F0400020B99DF8000040F004007B
:10200000009004F0200020B99DF8000040F002008C
:10201000009004F0100020B99DF8000040F001008D
:10202000009004F0080020B99DF8000040F038004E
:102030000090744A1268D17C724A526810786B46DC
:102040000122FEF774FF20B100216E488172481E04
:10205000C6E724B1082C02D00020FFF771FF6948C1
:10206000847200210175322002F0FBF90020B7E7ED
:1020700038B504466348807CA04201D1002038BDB9
:10208000002C46D05F4A126811795E4A5268107877
:102090006B460122FEF77EFE10B14FF0FF30EEE7F7
:1020A0009DF8000020F020000090564A1268117937
:1020B000544A526810786B460122FEF738FF10B17F
:1020C0004FF0FF30DBE7032002F0CBF90220009055
:1020D0004C4890F8220020B19DF8000040F08000AC
:1020E0000090484890F8230020B19DF8000040F08F
:1020F00030000090434A1268117D424A52681078BD
:102100006B460122FEF713FF002851D04FF0FF303D
:10211000B5E73C4A126811793A4A526810786B4622
:102120000122FEF737FE10B14FF0FF30A7E7354828
:10213000807A00F0010028B19DF8000040F02000F6
:10214000009004E09DF8000020F0200000902D4A4F
:10215000126811792B4A526810786B460122FEF7FB
:10216000E6FE10B14FF0FF3089E7032002F079F965
:10217000244890F8220010B18020009001E0002057
:102180000090204890F8230020B19DF8000040F016
:10219000300000901B4A1268117D1A4A526810786C
:1021A0006B460122FEF7C3FE10B14FF0FF3066E729
:1021B00014488474002062E708B51248807A10B988
:1021C0004FF0FF3008BD002000900E4A1268D17B0E
:1021D0000C4A526810786B460122FEF7A8FE10B137
:1021E0004FF0FF30EEE7074A12685179054A52680E
:1021F00010786B460122FEF79AFE68B14FF0FF306F
:10220000E0E7000024000020252335783A2025232C
:1022100035780D0A00000000F84A12681179F74A73
:10222000526810786B460122FEF781FE10B14FF024
:10223000FF30C7E7F14890F82400002853D00C2065
:102240000090EE4A12681179EC4A526810786B4699
:102250000122FEF76CFE10B14FF0FF30B2E73220E2
:1022600002F0FFF8C0200090E448807A00F00100FE
:1022700020B19DF8000040F020000090DF4A126875
:102280001179DE4A526810786B460122FEF74FFE44
:1022900010B14FF0FF3095E7D848407C10B10220D4
:1022A000009001E000200090D44A1268D17BD34A0C
:1022B000526810786B460122FEF739FE10B14FF0DC
:1022C000FF307FE700200090CC4A12685179CB4A5A
:1022D000526810786B460122FEF729FE002855D07F
:1022E0004FF0FF306EE704200090C44A1268117965
:1022F000C24A526810786B460122FEF718FE10B1F0
:102300004FF0FF305EE7BD48807C20B9BB48807A43
:1023100000F0010010B94020009001E06020009022
:10232000B64A12681179B54A526810786B46012294
:10233000FEF7FDFD10B14FF0FF3043E7322002F011
:1023400090F8AE48407C10B10120009001E00020E0
:102350000090AA4A1268D17BA84A526810786B464E
:102360000122FEF7E4FD10B14FF0FF302AE7A34A47
:1023700012685179A14A52681078A04B103301229B
:10238000FEF7D5FD10B14FF0FF301BE7002019E735
:1023900070B50446002624F00104984890F8240003
:1023A00008B1002070BD9548807A10B94FF0FF3019
:1023B000F8E79248057C807A2040904908740846E6
:1023C000007CA04202D04FF0FF3600E0002614B996
:1023D0008A48007D18B10120FFF722FD02E00020AD
:1023E000FFF71EFD3CB1FFF7E7FE20B183480574FF
:1023F0004FF0FF30D6E73046D4E738B504467F4883
:10240000807A10B94FF0FF3038BDBC2C02DB0120C0
:10241000009015E0622C02DB0220009010E02A2CD4
:1024200002DB032000900BE0142C02DB0420009060
:1024300006E00A2C02DB0520009001E00620009057
:102440006E48C07A9DF80010884201D10020DBE779
:102450006A4A12689178694A526810786B4601227C
:10246000FEF765FD10B14FF0FF30CDE79DF800108D
:102470006248C1720020C7E738B50446282C02DD47
:102480004FF0FF3038BDDCB90020FFF759FD0020C8
:102490008DF8000007208DF80100584A1268917CE1
:1024A000564A526810786B460222FEF740FD10B182
:1024B0004FF0FF30E6E70021504801750020E1E7CA
:1024C0000120FFF73DFD20208DF80000012C06D1F2
:1024D00000208DF801000520FFF78FFF17E0052C85
:1024E00006DC01208DF801000520FFF786FF0EE0D5
:1024F000142C06DC02208DF801000A20FFF77DFF76
:1025000005E003208DF801001420FFF776FF9DF809
:102510000100072101EB8010C0B28DF80100374A9D
:102520001268917C354A526810786B460222FEF799
:10253000FEFC10B14FF0FF30A4E708212F48817254
:1025400000210173012101750020FFF721FF002008
:1025500098E738B504462948807A10B94FF0FF3023
:1025600038BD264890F8240010B14FF0FF30F7E74F
:102570002248007D50B134B1282C04DCE0B2FFF7D2
:102580007BFF0020ECE70020FFF776FF042C01DA48
:10259000042404E0B4F57A7F01DD4FF47A744FF43B
:1025A0007A7090FBF4F0401EC0B20090134A12689B
:1025B0005178124A526810786B460122FEF7B7FC38
:1025C00010B14FF0FF30CBE79DF80000401C4FF4F6
:1025D0007A7191FBF0F081B20848C1810146C98946
:1025E0004810FFF70AFF0020BAE738B50446034851
:1025F000807A28B94FF0FF3038BD00002400002059
:10260000022C06D0042C07D0082C08D0102C0CD19A
:1026100008E0002000900BE00820009008E0102067
:10262000009005E01820009002E04FF0FF30E3E753
:1026300000BFF948407A9DF80010B0EBE10F01D1DE
:102640000020D9E7F44A1268D179F34A5268107829
:102650006B460122FEF76BFC10B14FF0FF30CBE769
:102660009DF80000C110EC4841720020C4E738B565
:102670000446E948807A10B94FF0FF3038BDFA2C93
:1026800009D0B4F5FA7F09D0B4F57A7F09D0B4F552
:10269000FA6F0CD108E0002000900BE008200090B9
:1026A00008E01020009005E01820009002E04FF0B4
:1026B000FF30E3E700BFD848007A9DF80010B0EB88
:1026C000E10F01D10020D9E7D34A12689179D24AAB
:1026D000526810786B460122FEF729FC10B14FF0CA
:1026E000FF30CBE79DF80000C010CB4908720020F6
:1026F000C4E71CB580208DF80000C74A1268917CA1
:10270000C54A526810786B460122FEF710FC10B1E2
:102710004FF0FF301CBD642001F0A3FE00208DF8B7
:102720000000BD4A1268917CBB4A526810786B4623
:102730000122FEF7FCFB10B14FF0FF30EAE7B64A8A
:102740001268917DB44A526810786B460622FEF7F3
:1027500021FB10B14FF0FF30DCE79DF80500C0070A
:10276000400F9DF8031001F0010140EA41009DF87F
:10277000011001F0010140EA010494B1012C03D1E0
:102780000121A548C17431E0022C03D10021A248E7
:10279000C1742BE02146A1A004F064FB4FF0FF3090
:1027A000B8E79D4A1268D1789B4A526810786B4608
:1027B0000122FEF7EFFA10B14FF0FF30AAE79DF8C3
:1027C000000000F00F042CB99E4804F04BFB4FF0C2
:1027D000FF309FE7042C06D19BA004F043FB0121AE
:1027E0008D48C17402E000218B48C174FF218A48E2
:1027F0008172FF2088490872FF2187484172C172A7
:102800004FF6FF71C181FF210174817401210173B1
:1028100080F82210002180F82310417501751630D0
:10282000016041608160163880F8241080F825101E
:10283000C1844FF4FA60FFF71AFF10B14FF0FF3078
:1028400068E70220FFF7D1FE10B14FF0FF3061E7DB
:102850002A20FFF7D2FD10B14FF0FF305AE73220A7
:10286000FFF777FE10B14FF0FF3053E70020FFF77E
:102870008FFD10B14FF0FF304CE70020FFF7F8FB61
:1028800010B14FF0FF3045E70020FFF78CFB002030
:1028900040E770477CB504460D465F48807A00F0FB
:1028A000700010B94FF0FF307CBD5B4A1268117B9D
:1028B000594A526810786B460622FEF76BFA10B13F
:1028C0004FF0FF30F0E79DF801009DF8001040EA5E
:1028D000012000B220809DF803009DF8021040EA1C
:1028E000012000B260809DF805009DF8041040EAC8
:1028F000012000B2A08015B12846FFF7CAFF0020D2
:10290000D2E77CB504460D464348807A00F00800C3
:1029100010B94FF0FF307CBD3F4A1268517B3E4AF0
:10292000526810786B460622FEF734FA10B14FF069
:10293000FF30F0E79DF801009DF8001040EA01200B
:1029400000B220809DF803009DF8021040EA0120AB
:1029500000B260809DF805009DF8041040EA012057
:1029600000B2A08015B12846FFF793FF0020D2E700
:102970002DE9FE4F05460C462748807A18B94FF0DE
:10298000FF30BDE8FE8F244A1268917B224A5268CC
:10299000107802AB0222FEF7FDF910B14FF0FF30C4
:1029A000EFE79DF809009DF8081040EA012006B203
:1029B00014B12046FFF76DFF17494968C88806F033
:1029C00095FD154901904968B1F9080006F076FDBA
:1029D0008346304606F072FD5946009006F0CCFE64
:1029E0008246019906F038FC81461F4906F0C6FB75
:1029F00080464FF08F4106F0C1FD074606F022FDEC
:102A000028600020BDE710B588B004461CB94FF01F
:102A1000FF3008B010BD29E024000020556E73750A
:102A200070706F7274656420736F6674776172651D
:102A30002070726F64756374207265762025642E31
:102A40000A00000014A7000848616C662073656ED8
:102A50007369746976697479207061727420666F25
:102A6000756E642E0A00000000000C42206830B928
:102A7000606820B9A06810B9002008B010BDFA49FC
:102A80004968087806AB03221146FEF783F910B1B6
:102A90004FF0FF30F1E79DF81800082101EB2010FE
:102AA00000F00F00ADF800009DF8190001EB2010B8
:102AB00000F00F00ADF802009DF81A0001EB2010A5
:102AC00000F00F00ADF8040020684100BDF90000DF
:102AD000403091FBF0F000B2ADF8100060684100AA
:102AE000BDF90200403091FBF0F000B2ADF81200E9
:102AF000A0684100BDF90400403091FBF0F000B245
:102B0000ADF81400D8494968087806AB062211468A
:102B1000FEF740F910B14FF0FF30AEE79DF8190015
:102B20009DF8181040EA012000B2ADF808009DF8A9
:102B30001B009DF81A1040EA012000B2ADF80A000F
:102B40009DF81D009DF81C1040EA012000B2ADF870
:102B50000C00BDF81000BDF80810084400B2ADF834
:102B60001000BDF81200BDF80A10084400B2ADF81C
:102B70001200BDF81400BDF80C10084400B2ADF806
:102B80001400BDF81000000A8DF81800BDF8100000
:102B9000C0B28DF81900BDF81200000A8DF81A00B5
:102BA000BDF81200C0B28DF81B00BDF81400000A79
:102BB0008DF81C00BDF81400C0B28DF81D00AA49A4
:102BC0004968087806AB06221146FEF7B0F910B145
:102BD0004FF0FF3051E700204FE70146A248007A4E
:102BE00030B1012807D0022809D003280FD10AE00C
:102BF000FA2008800EE04FF4FA7008800AE04FF4E3
:102C00007A70088006E04FF4FA60088002E0002045
:102C1000088000BF00BF0020704701469248407AFC
:102C200030B1012807D0022808D003280CD108E0D1
:102C3000022008700BE00420087008E008200870EB
:102C400005E01020087002E04FF0FF30704700BF31
:102C50008548C07C18B108784006000E0870002036
:102C6000F4E701468048C07A082817D2DFE800F070
:102C70001704070A0D101318BC20088013E0622007
:102C8000088010E02A2008800DE0142008800AE067
:102C90000A20088007E00520088004E000BF00BF8C
:102CA0000020088000BF00BF0020704701466E482A
:102CB00090F8240010B14FF0FF3070476A48C08987
:102CC00008800020F9E7014600200880401E704778
:102CD00001464FF0FF30704701466348007A30B13B
:102CE000012807D0022808D003280CD108E05F484B
:102CF00008600BE05E48086008E05E48086005E098
:102D00005D48086002E04FF0FF30704700BF0020D0
:102D1000FBE701465448407A30B1012808D0022828
:102D20000AD0032810D10BE04FF4804008800EE059
:102D300041F69C7008800AE04FF48050088006E05D
:102D40004FF40060088002E04FF0FF30704700BF92
:102D50004548C07C10B10888401008800020F5E785
:102D600001464148007C08700020704701463E48FB
:102D7000807A10B10120087001E000200870002066
:102D8000704738B504463848807A10B94FF0FF30A4
:102D900038BD354A1268117C334A526810786B4648
:102DA0000222FDF7F7FF10B14FF0FF30F0E79DF87A
:102DB00001009DF8001040EA012000B220800020B0
:102DC000E6E72DE9FE4F0746884692461D46DDF8A8
:102DD00030B000260024244890F8240010B1601E72
:102DE000BDE8FE8F002028701F48807A10B94FF090
:102DF000FF30F5E71C48007C10B94FF0FF30EFE7DB
:102E00001948007C00F0400008B1B01CC6B216485A
:102E1000007C00F0200008B1B01CC6B21248007C53
:102E200000F0100008B1B01CC6B20F48007C00F0E2
:102E3000080008B1B01DC6B20B4A1268917A0A4A5E
:102E4000526810786B460222FDF7A4FF10B14FF0D4
:102E5000FF30C5E79DF801009DF8001040EA012908
:102E6000B1450BDA0020BBE724000020000003433B
:102E7000000083423333034233338341FC484068CC
:102E80004088B9EB600F17DDF94A1268517CF84AA7
:102E9000526810786B460122FDF77CFF10B14FF0AD
:102EA000FF309DE79DF8000000F0100020B1FFF713
:102EB00083F96FF0010093E75046FFF7EAFCEC4A14
:102EC0001268D17AEA4A526810786B463246FDF7AA
:102ED00061FF10B14FF0FF3082E799FBF6F0401E22
:102EE0008BF8000000202870B4422AD0E048007C13
:102EF00000F0080028B3601C1DF800001DF8041045
:102F000040EA012000B2A8F80000E01C1DF8001003
:102F1000A01C1DF8000041EA002000B2A8F8020041
:102F2000601D1DF80010201D1DF8000041EA002062
:102F300000B2A8F80400287840F008002870A01D0E
:102F400084B2B44213D0CA48007C00F0400070B193
:102F5000601C1DF800001DF8041040EA012000B2BA
:102F60003880287840F040002870A01C84B2B44219
:102F700013D0BF48007C00F0200070B1601C1DF829
:102F800000001DF8041040EA012000B27880287883
:102F900040F020002870A01C84B2B44213D0B44882
:102FA000007C00F0100070B1601C1DF800001DF8DE
:102FB000041040EA012000B2B880287840F01000E8
:102FC0002870A01C84B200200AE7F8B504460F461A
:102FD0001646A74890F8240010B94FF0FF30F8BD0E
:102FE000A348807A10B94FF0FF30F8E7A04A126882
:102FF000917A9F4A526810786B460222FDF7CAFE0A
:1030000010B14FF0FF30EAE79DF801009DF8001085
:1030100040EA0125A54203DA00203070401EDEE7B9
:10302000934840684088B5EB600F17DD904A1268FE
:10303000517C8F4A526810786B460122FDF7AAFE38
:1030400010B14FF0FF30CAE79DF8000000F010000B
:1030500020B1FFF7B1F86FF00100C0E7E2B2844B96
:103060001B68D97A824B5B6818783B46FDF792FE65
:1030700010B14FF0FF30B2E795FBF4F0401E307016
:103080000020ACE701467A4880F822100020704703
:103090007CB5054676494968087801AB04220D21C4
:1030A000FDF778FE08B107207CBD9DF80700C0F34E
:1030B00001109DF8041001F0E00140EAE1008DF8F4
:1030C00000009DF80700C0F381009DF8051001F095
:1030D000E00140EAE1008DF801009DF8070000F0F2
:1030E00003009DF8061001F0E00140EAE1008DF8D0
:1030F000020000241CE01DF8040018B9002045F867
:10310000240013E05B4845F8240006E055F824004D
:10311000594906F033FA45F824001DF80400401E12
:10312000C0B20DF804000028F0D100BF601CC4B28A
:10313000032CE0DB0020B7E72DE9FE4F06460F46E3
:1031400000256846FFF7A4FF002442E056F824005B
:1031500057F82410A0EB010ABAF1000F01DB514629
:1031600001E0CAF10001084606F0A8F983464FF0D5
:103170008F4106F071F880465DF82400002106F0CA
:103180002DF916D05DF82410404606F065F8824609
:103190004FF07E5106F0F0FA814629F0004A374898
:1031A000416A504606F0B6FA12D20120A04005430B
:1031B0000EE03248C169404606F0ACF905D32F480D
:1031C000016A404606F0A6FA02D20120A04005435B
:1031D000641C032CBADB2846BDE8FE8F2DE9FC5F9A
:1031E00006460F46002522494968087801AB0322AC
:1031F0000D21FDF7CFFD10B10720BDE8FC9F9DF824
:10320000040000F01F008DF804009DF8050000F098
:103210001F008DF805009DF8060000F01F008DF8D6
:103220000600002462E056F8240057F82410A0EBB2
:10323000010BBBF1000F01DB594601E0CBF10001AE
:10324000084606F03BF94FF08F41009006F004F875
:10325000814601A8005DC0B30849086806F046F938
:1032600083465946064805F0F7FF80460FE0000008
:10327000240000207B14AE3E1D5A843F74A5000834
:1032800000B04C45FE49404606F078F9804601A85A
:10329000005D401EC0B201A908550028F2D1414688
:1032A000484605F0D9FF83464FF07E5106F064FA98
:1032B00082462AF0004BF3488169584606F02AFA04
:1032C00013D20120A04005430FE0FFE7ED4801695C
:1032D000484606F01FF905D3EA484169484606F01A
:1032E00019FA02D20120A0400543641C032C9ADB8A
:1032F000284682E72DE9F04F87B005460C469146F7
:1033000001208DF8100000208DF81100DE4A1268AF
:10331000917CDD4A5268107804AB0222FDF707FE6B
:1033200020B14FF0FF3007B0BDE8F08FC82001F0AA
:1033300098F800208DF81000D34A1268D17BD24A49
:103340005268107804AB0122FDF7F1FD10B14FF087
:10335000FF30E8E7CC4A12685179CB4A52681078BE
:1033600004AB0122FDF7E3FD10B14FF0FF30DAE7C7
:10337000C54A1268917CC44A5268107804AB012295
:10338000FDF7D5FD10B14FF0FF30CCE7BE4A126813
:10339000D17DBD4A5268107804AB0122FDF7C7FD0C
:1033A00010B14FF0FF30BEE7B74A12681179B64A44
:1033B0005268107804AB0122FDF7B9FD10B14FF04F
:1033C000FF30B0E70C208DF81000AF4A1268117979
:1033D000AD4A5268107804AB0122FDF7A8FD10B188
:1033E0004FF0FF309FE70F2001F03BF8A648806ABE
:1033F000407A8DF81000A44A12689178A24A526867
:10340000107804AB0122FDF792FD10B14FF0FF30B0
:1034100089E79D48806A007A8DF810009A4A126800
:103420005178994A5268107804AB0122FDF77FFD6C
:1034300010B14FF0FF3076E7B9F1000F07D0924896
:10344000806A807A40F0E0008DF8100004E08E4839
:10345000806A807A8DF810008B4A126891798A4AC6
:103460005268107804AB0122FDF761FD10B14FF0F6
:10347000FF3058E7B9F1000F07D08348806AC07A5F
:1034800040F0E0008DF8100003E07E48C07A8DF82F
:1034900010007D4A1268D1797B4A5268107804ABDB
:1034A0000122FDF744FD10B14FF0FF303BE7B9F1C9
:1034B000000F02D0C82000F0D4FF40208DF810008B
:1034C000714A12681179704A5268107804AB01226F
:1034D000FDF72DFD10B14FF0FF3024E778208DF877
:1034E0001000694A12685179674A5268107804AB33
:1034F0000122FDF71CFD10B14FF0FF3013E76149C9
:10350000888900F0AEFF00208DF810005E4A126836
:1035100051795D4A5268107804AB0122FDF707FD2E
:1035200010B14FF0FF30FEE6574A1268917A564AC2
:103530005268107804AB0222FDF72CFC10B14FF05A
:10354000FF30F0E69DF811009DF8101040EA012BC5
:103550000C209BFBF0F0C6B20020A86068602860D9
:10356000A06060602060824665E0474A1268D17AB8
:10357000454A5268107804AB0C22FDF70BFC10B1E1
:103580004FF0FF30CFE69DF811009DF8101040EA93
:10359000012000B2ADF808009DF813009DF812104C
:1035A00040EA012000B2ADF80A009DF815009DF830
:1035B000141040EA012000B2ADF80C00BDF908106B
:1035C000206808442060BDF90A1060680844606003
:1035D000BDF90C10A0680844A0609DF817009DF884
:1035E000161040EA012000B2ADF800009DF8190065
:1035F0009DF8181040EA012000B2ADF802009DF8D5
:103600001B009DF81A1040EA012000B2ADF804003A
:10361000BDF90010286808442860BDF902106868E8
:1036200008446860BDF90410A8680844A8600AF15D
:10363000010000F0FF0AB24597DB1248D0F800C045
:103640002868C117090441EA1041070462460023B3
:10365000384603F0E2FB32460023CDE9020103F0D5
:10366000DCFB28600748D0F800C06868C11709046F
:1036700041EA1041070462460023384606E0000094
:1036800054E3853F74A500082400002003F0C5FB27
:1036900032460023CDE9020103F0BFFB6860FE481B
:1036A000D0F800C0A868C117090441EA1041070416
:1036B00062460023384603F0B0FB32460023CDE9D2
:1036C000020103F0AAFBA860F348D0F804C0216807
:1036D000C817000440EA11480F0462460023384628
:1036E000414603F09AFB32460023CDE9020103F084
:1036F00094FB2060E848D0F804C06068C117090452
:1037000041EA1041070462460023384603F085FB76
:1037100032460023CDE9020103F07FFB6060DE4802
:10372000D0F804C0A068C117090441EA1041070499
:1037300062460023384603F070FB32460023CDE991
:10374000020103F06AFBA060A068002804DDA06805
:10375000A0F58030A06003E0A06800F58030A06094
:103760000020E0E538B50446CC4890F82400A0429B
:1037700001D1002038BD24B3C84890F8250010B905
:103780004FF0FF30F6E70020FEF74AFB0020FEF77F
:103790006FFCC249C88CFEF7DCFE00200090BF49D8
:1037A000496808786B4601222321FDF7C0FB0121FF
:1037B000BA4880F824100120FEF732FBFEF7FCFC2B
:1037C00013E00020FEF72CFBB448007C0090B349C6
:1037D000496808786B4601222321FDF7A8FB0021E8
:1037E000AE4880F82410FEF7E7FC0020C2E72DE980
:1037F000F04F8DB083460F4602200C90A74890F8FA
:10380000240020B10020FFF7ADFF012600E00026D4
:1038100003A8FFF7E2F905A8FFF7FFF901A8FFF7F2
:1038200020FA02A8FFF742FA9C4890F80AA004A8E0
:10383000FFF796FA002407E0002239465846FFF7C2
:1038400059FD00B902E0641C022CF5DB00BF022C1C
:1038500001D1002528E0002407E0012206A909A8DB
:10386000FFF748FD00B902E0641C022CF5DB00BF45
:10387000022C01D1002517E006A93846FFF75CFCB1
:1038800000F0FF0809A95846FFF7A8FC00F0FF095F
:103890000025B9F1000F01D145F00105B8F1000F85
:1038A00001D145F0020500BFFF207C490872FF21CD
:1038B0007A484172C1724FF6FF71C181FF21817256
:1038C000017401210173BDF80C00FEF7D0FE9DF8D4
:1038D0001400FEF78AFEBDF80400FEF78EFDBDF869
:1038E0000800FEF736FE5046FEF75DFB9DF810001F
:1038F000FEF74EFD16B10120FFF734FF28460DB04C
:10390000BDE8F08FF8B504460D46164616B94FF0DF
:10391000FF30F8BD6148807A10B94FF0FF30F8E70A
:1039200020128DF80000E0B28DF801009DF8010032
:1039300028445A4949684989884202DD4FF0FF30DE
:10394000E7E7564A1268117E544A526810786B466F
:103950000222FDF7ECFA10B14FF0FF30D9E7EAB2DE
:103960004E4B1B68597D4D4B5B6818783346FDF70D
:10397000DEFA10B14FF0FF30CBE70020C9E7F8B511
:1039800004460D46164616B94FF0FF30F8BD4348C1
:10399000807A10B94FF0FF30F8E720128DF8000060
:1039A000E0B28DF801009DF8010028443B494968C8
:1039B0004989884202DD4FF0FF30E7E7374A126855
:1039C000117E364A526810786B460222FDF7AFFA34
:1039D00010B14FF0FF30D9E7EAB2304B1B68597D88
:1039E0002E4B5B6818783346FDF7D4F910B14FF0D1
:1039F000FF30CBE70020C9E72DE9F04385B005464D
:103A00000E4690469946254890F8250020B14FF083
:103A1000FF3005B0BDE8F08316B94FF0FF30F8E78E
:103A2000002423E0281B102801DD102000E0281BC3
:103A300087B2321939462046FFF764FF10B14FF0C4
:103A4000FF30E6E701AA39462046FFF798FF10B19C
:103A50004FF0FF30DDE730193A4601A903F062FB71
:103A600010B16FF00100D4E7E01984B2AC42D9DBA9
:103A70004FEA28208DF8000008F0FF008DF80100C3
:103A8000064A1268917E054A526810786B460222F7
:103A9000FDF74DFA38B103E074A5000824000020BA
:103AA0004FF0FF30B5E70121F74880F82510A0F866
:103AB00026900020ADE70146F34890F824000870F6
:103AC000002070474FF0FF30704702464FF0FF3044
:103AD000704701464FF0FF307047F8B505460F4676
:103AE0001446002C70D0B5F5FF5F01DDFF2605E020
:103AF000202D01DA012601E0C5F3471607B9012799
:103B0000282C02DD4FF0FF30F8BDDF48407D28BB98
:103B1000DD4890F8240038B10020FFF723FE012192
:103B2000D94880F8201003E00021D74880F8201001
:103B3000D5481630FFF751F8D3481830FFF76DF825
:103B4000D1481A30FFF78DF8CF481C30FFF7AEF898
:103B5000CD48817A81771F30FFF702F90020FEF708
:103B60005FF90020FEF788FC00208DF80000C64AAF
:103B700012689178C44A526810786B460122FDF7AA
:103B8000D6F910B14FF0FF30BEE740208DF80000AD
:103B9000BD4A1268D17BBC4A526810786B4601223C
:103BA000FDF7C5F900B165E08DF800608DF8017092
:103BB000B54A1268117AB44A526810786B460222EC
:103BC000FDF7B5F908B155E047E0052000F049FCE4
:103BD000AD48407A072101EBC000C0B28DF800006B
:103BE000A94A1268D179A84A526810786B46012216
:103BF000FDF79DF900B13DE020208DF80000012C7B
:103C000003D100208DF801000EE0052C03DC01201B
:103C10008DF8010008E0142C03DC02208DF801006F
:103C200002E003208DF801009DF80100072101EB5F
:103C30008010C0B28DF80100934A1268917C924ABC
:103C4000526810786B460222FDF771F900B111E05D
:103C500001218D484175002056E78B4A163200211C
:103C600003E0505C00B105E0491C0C29F9D34FF08A
:103C7000FF3049E7FF2084490872FF2182484172E2
:103C8000C1724FF6FF71C181FF2181720174012160
:103C900001730146887FFEF786F97B49C88AFEF7E3
:103CA000E6FC7949087EFEF7A0FC7749488BFEF7D1
:103CB000A4FB7549888BFEF74CFC7349C87FFEF75F
:103CC00067FB714890F8200010B10120FFF74AFD12
:103CD00000216D484175002016E770B588B002A933
:103CE00005A8FFF784FD0446032C42D101A8FEF786
:103CF000F3FF00200190059805F0E0FB06460199CE
:103D000005F03CFC054605F09DFB0590069805F086
:103D1000D5FB0646019905F031FC054605F092FBFE
:103D20000690079805F0CAFB0646019905F026FCA7
:103D3000054605F087FB079005A8FDF754FA68468D
:103D4000FEF7E7FF00200090BDF8001002984843FE
:103D50000290BDF80010039848430390BDF800108E
:103D600004984843049002A8FDF7D0FA002008B058
:103D700070BD0120FBE7014691F90020002A01DD1A
:103D800000201EE091F90020002A01DA042018E04A
:103D900091F90120002A01DD012012E091F90120B2
:103DA000002A01DA05200CE091F90220002A01DD49
:103DB000022006E091F90220002A01DA062000E044
:103DC0000720704710B504462046FFF7D4FF03468E
:103DD000E01CFFF7D0FF43EAC00083B2A01DFFF74D
:103DE000CAFF43EA801083B2184610BD70B505467D
:103DF000002426480570FCF7ECFCFEF77AFC00284E
:103E000040D17820FEF7CFF8C4B20CB1012070BDCC
:103E10007820FEF7BDFAC4B20CB10220F7E76420A7
:103E2000FEF797FBC4B20CB10320F0E7FDF740F9B1
:103E3000C4B20CB10420EAE71548FFF7C3FF0646F9
:103E4000FDF740F9C4B20CB10520E0E740F2731071
:103E5000FDF779FDC4B20CB10620D8E76420FDF768
:103E6000EBFAC4B20CB10720D1E7FFF736FF0446E6
:103E70000CB10820CBE70120FFF774FCC4B24CB1B1
:103E80000920C4E70A20C2E7240000202100002006
:103E9000500000200020BAE72DE9F04F95B004460D
:103EA0004FF07E5500201490139012900CA811A989
:103EB0004D4ACDE900101278521E02EB42020EABC1
:103EC00003EB4201484A1278521E02EB4202474B72
:103ED00003EB42000DAB08AAFDF794FE18B10120D8
:103EE00015B0BDE8F08FBDF8440000F480700028E4
:103EF00075D0089805F0E2FA06464FF09D4105F0AE
:103F0000ABF90546099805F0D9FA06464FF09D41F0
:103F100005F0A2F914900A9805F0D0FA06464FF081
:103F20009D4105F099F913900B9805F0C7FA0646E4
:103F30004FF09D4105F090F912904FF08040139999
:103F400005F01CFB0190139905F018FB82464FF019
:103F50004040149905F012FB0190149905F00EFBF6
:103F60008346514605F008FC81464FF07E5105F02E
:103F700005F9064605F0D6F8CDE9040129464FF0CB
:103F8000804005F0FBFA8346149905F0F7FA814664
:103F90004FF08040139905F0F1FA8346129905F02D
:103FA000EDFA8246494605F0E9F8064605F0BAF80A
:103FB000CDE90201DDE9042304F0F4FA4FF06632A2
:103FC0000B4BCDE9060104F0B9FE074604F0C0FB37
:103FD00005490978491E44F8210002E0FFE7022064
:103FE0007EE700207CE7000021000020C8000020C0
:103FF00066A64C4008B50121082001F0A3F98020F5
:10400000ADF8000010208DF8030003208DF80200A9
:104010006946BF4800F0DAFE4FF48070ADF800004A
:1040200010208DF8030003208DF802006946B8487F
:1040300000F0CCFE1020ADF8000048208DF8030001
:1040400003208DF802006946B14800F0BFFE8021D0
:10405000AF4800F068FF4FF48071AD4800F063FF97
:104060001021AB4800F05FFF00F062F90020A94981
:1040700008600120A849C1F8A00108BD2DE9F04160
:1040800007460D4616460020A249091D086038461D
:1040900000F07FF98046002405E0FF2000F079F968
:1040A0002855601CC4B2B442F7DB01209949091DB0
:1040B00008604046BDE8F0812DE9F04107460C4616
:1040C000154600209349091D0860384600F061F943
:1040D0008046002605E014F8010B00F05AF9701C28
:1040E000C6B2AE42F7DB01208A49091D086040468E
:1040F000BDE8F0811CB589A103C9CDE90001052205
:1041000069463020FFF7D8FF052269461020FFF7E7
:10411000B5FF002406E01DF80400A52800D003E048
:10412000601CC4B2052CF6DB00BF052C01D00120B9
:104130001CBD0020FCE770B505460C460020754903
:10414000091D0860284600F024F90646204600F0C4
:1041500020F901207049C1F8A001304670BD70B54A
:10416000044600206B49091D0860204600F011F943
:10417000FF2000F00EF9054601206749C1F8A001B3
:10418000284670BD70B505460020624908600322CC
:104190002946A020FFF790FF01205F49C1F89C014C
:1041A00000BF5C488C3800680028FAD10720FFF770
:1041B000D6FF044621462720FFF7BDFF04F010007C
:1041C00028B1FF21E120FFF7B6FF102070BD04F0F9
:1041D000200008B12020F9E7FF20F7E770B504467A
:1041E0000720FFF7BCFF054629462720FFF7A3FF5E
:1041F00005F0400050B1032221466120FFF73EFF49
:10420000FF21E220FFF797FF002070BD0120FCE7AF
:1042100010B500203F490860052242492A20FFF7D7
:104220004BFF01212120FFF786FF01212220FFF70C
:1042300082FF28212520FFF77EFF03213120FFF791
:104240007AFF0F212620FFF776FF0F212020FFF7AE
:1042500072FF01203049C1F89C0110BD10B500204B
:104260002C490860052230493020FFF725FF052240
:104270002C492A20FFF720FF01212120FFF75BFFB7
:1042800001212220FFF757FF1A212420FFF753FFB7
:1042900028212520FFF74FFF0F212620FFF74BFF96
:1042A0000E212020FFF747FF01201B49C1F89C0188
:1042B00010BD08B56846FFF791FF40BB9DF80100AF
:1042C000092803D100201949087006E09DF8010073
:1042D000082802D10120154908709DF80000012826
:1042E00000D000BF9DF80000032810D09DF800000A
:1042F00004280CD09DF80000052808D09DF8000087
:10430000062804D09DF80000072800D000BF08BD93
:10431000000C01409C81214200802142A5A5A5A559
:10432000A5000000A1A500089CA500089800002099
:1043300008B50121092001F005F80121284800F005
:1043400016FE2020ADF8000003208DF8020010209A
:104350008DF803006946234800F038FD4020ADF891
:10436000000003208DF8020010208DF8030069463C
:104370001C4800F02BFD0820ADF8000003208DF84C
:10438000020048208DF803006946164800F01EFD23
:1043900008BD70B5044600251EE004F0800020B181
:1043A0004021104800F0BFFD03E040210D4800F01F
:1043B000BCFD20210B4800F0B6FD6006040E08216C
:1043C000084800F096FD08B144F00104202105489A
:1043D00000F0ABFD681CC5B2082DDEDB204670BDC9
:1043E00000023000000C014010B56FF0040001F035
:1043F00060FA2E4800682E49B0FBF1F02D49087094
:104400000846007800EB4001C1EBC0104FF6FF7189
:1044100001EAC0002849088010BD0146254A1278EB
:104420004A434FF0E0235A6100229A611A4612690A
:1044300042F001021A6100BF4FF0E022106900F063
:1044400001021AB100F48032002AF5D04FF0E022C8
:10445000126922F001024FF0E0231A6100229A61F2
:1044600070470146144A12884A434FF0E0235A61CC
:1044700000229A611A46126942F001021A6100BFD5
:104480004FF0E022106900F001021AB100F480320E
:10449000002AF5D04FF0E022126922F001024FF01D
:1044A000E0231A6100229A61704700000400002096
:1044B00000127A005A0000205C000020014600BF74
:1044C000704700BFF74A128802F04002002AF9D074
:1044D000C2B2F44B1B1D1A8070472DE9FC41074600
:1044E0000C4615461E46DDF82080ADF8044003203A
:1044F0008DF8060018208DF8070001A9384600F055
:1045000065FCADF8046004208DF8070001A9284679
:1045100000F05CFC8DF8008001208DF801008DF822
:1045200002008DF80300684601F079F9BDE8FC81CE
:1045300030B585B004460D4624B1012C11D0022CB3
:1045400032D11FE0012144F2040000F0FBFE2520DF
:104550004FF48063D44A511500901046FFF7BDFF19
:1045600023E00121480400F0FAFE0121042000F0BC
:10457000E9FE26200823CC4A042100901046FFF7CC
:10458000ACFF12E00121880400F0E9FE01210820BF
:1045900000F0D8FE27204FF40063C44A11150090A4
:1045A0001046FFF79AFF00E000BF00BF0195002012
:1045B000ADF80800ADF80A00ADF80C00ADF8100039
:1045C0000C20ADF80E00BA4951F8240001A900F002
:1045D00060FFB74951F82400012240F2255100F054
:1045E000F0FFB34951F82400012100F0DEFF05B0CF
:1045F00030BD10B540F22551AA4801F0C7F810B3FC
:10460000A84801F043F8C4B2AA48008800F400406A
:10461000C8B9A848008800F4804060B10A2C03D0D3
:104620000020A449088020E0A248008840F400400F
:10463000A049088019E00D2C06D19E48008840F45E
:1046400080409C49088010E09A480088C0F30D0023
:1046500099490C5497480088401C964908800846A0
:104660000088C72801DD0020088010BD2DE9F04139
:104670000746884616460024904D07E022462B4602
:104680003846414604F05AFB04460D463000A6F178
:104690000101CEB2F2D120462946BDE8F0812DE9D4
:1046A000F04F9DB04FF0000900201C901B908046F9
:1046B0001A9082468346199018901790169015907C
:1046C00014901390129011907DA0006810907DA01E
:1046D00000680F907CA000680E907CA000680D9090
:1046E0007BA000680C907BA000680B907AA000680B
:1046F0000A907AA00068099079A00068089078A0D4
:104700000068079076A00068069000210D460E46CE
:104710006848008800F40040B0F5004F7ED10024C6
:104720006FE06548005D10A9095D884203D10AF178
:10473000010000F0FF0A6048005D0FA9095D884292
:1047400003D10BF1010000F0FF0B5B48005D0EA9E7
:10475000095D884203D11998401CC0B2199056488F
:10476000005D0DA9095D884203D11898401CC0B2B4
:1047700018905148005D0CA9095D884203D1179833
:10478000401CC0B217904C48005D0BA9095D8842DF
:1047900003D11698401CC0B216904748005D0AA984
:1047A000095D884203D11598401CC0B2159042485B
:1047B000005D09A9095D884203D11498401CC0B26C
:1047C00014903D48005D08A9095D884203D1139803
:1047D000401CC0B213903848005D07A9095D8842AB
:1047E00003D11298401CC0B212903348005D06A954
:1047F000095D884203D11198401CC0B21190601C21
:10480000C4B2032C8DDBBAF1030F1FD0BBF1030F31
:104810001CD01998032819D0189800E0D2E1032879
:1048200014D01798032811D0169803280ED0159885
:1048300003280BD01498032808D01398032805D018
:104840001298032802D01198032871D1BAF1030FEE
:1048500005D101201B9023A002F004FB8CE0BBF1EA
:10486000030F05D102201B9020A002F0FBFA83E089
:104870001998032804D11B901EA002F0F3FA7BE0E4
:104880001898032805D104201B901CA002F0EAFA16
:1048900072E01798032839D105201B9019A002F067
:1048A000E1FA69E00038014000080140000C0140D5
:1048B0006400002078000020D40000200000F03FB9
:1048C00050313A0049313A0044313A0050323A000E
:1048D00049323A0044323A00454E3A0053533A00C6
:1048E00058583A0050313A200000000049313A202F
:1048F0000000000044313A200000000050323A200D
:104900000000000049323A200000000016980328F9
:1049100005D106201B90ADA002F0A4FA2CE015985A
:10492000032806D107201B90AAA002F09BFA23E0DF
:1049300035E11498032805D108201B90A7A002F0A8
:1049400091FA19E01398032805D109201B90A5A01E
:1049500002F088FA10E01298032805D10A201B9073
:10496000A2A002F07FFA07E01198032804D10B20DF
:104970001B909EA002F076FA032411E09E48005D91
:10498000302803DB9C48005D392803DD9A48005D30
:104990002E2803D11A98401CC0B21A90601CC4B2D1
:1049A0009548005D0028E9D11A98C01CA04202D1A8
:1049B00001201C9004E091A002F054FA00201B900A
:1049C0001C98002863D0032406E08B48005D2E2845
:1049D00000D1A046601CC4B28748005D0028F4D115
:1049E000A146B8F1000F53D0A8F10400C7B20025CA
:1049F0002E4603241EE03A46791ECFB20020864997
:104A0000FFF734FECDE902017B49095DA1F13000D9
:104A100004F041F9CDE90001DDE9022304F08EF94B
:104A20002A463346CDE9040103F0C4FE05460E468E
:104A3000601CC4B24445DEDB012708F10100C4B2AA
:104A40001EE03A46791CCFB274487549FFF70EFE56
:104A5000CDE902016849095DA1F1300004F01BF9BC
:104A6000CDE90001DDE9022304F068F92A46334666
:104A7000CDE9040103F09EFE05460E46601CC4B25B
:104A80004C45DEDB2A46334666A002F0EBF92CE00B
:104A9000A9F10400C7B200252E4603241EE03A46C1
:104AA000791ECFB200205C49FFF7E0FDCDE902019D
:104AB0005149095DA1F1300004F0EDF8CDE90001A4
:104AC000DDE9022304F03AF92A463346CDE9040130
:104AD00003F070FE05460E46601CC4B24C45DEDB9A
:104AE0002A4633464FA002F0BDF91B98092851D23F
:104AF000DFE800F050051627505050384400284693
:104B0000314603F025FE49490860086804F00AFBB5
:104B100002460B46CDE9040145A002F0A3F93DE0B1
:104B20002846314603F014FE40494860486804F0C6
:104B3000F9FA02460B46CDE9040142A002F092F9CF
:104B40002CE02846314603F003FE38498860886827
:104B500004F0E8FA02460B46CDE904013EA002F05B
:104B600081F91BE02846314604F068F83F49087097
:104B7000084601783EA002F075F90FE0284631465C
:104B800004F05CF83E490870084601783DA002F048
:104B900069F903E040A002F065F900BF02E042A01D
:104BA00002F060F920A002F05DF9002404E000208A
:104BB00011490855601CC4B20F48005D0028F6D1A9
:104BC000414908801DB0BDE8F08F000044323A2012
:104BD00000000000454E3A200000000053533A20E8
:104BE0000000000058583A2000000000B8F1CABD8B
:104BF000D5FDC8B7A3A10000D4000020CAFDBEDDCA
:104C0000D2ECB3A32CC7EBD6D8D0C2B7A2CBCDA3DE
:104C1000A1A3A1A3A10D0A00000024409A9999998B
:104C20009999B93F256C66090D0A00009C00002087
:104C3000426C616E63655069642E50203D2025668C
:104C40000D0A0000426C616E63655069642E492054
:104C50003D2025660D0A0000426C616E6365506957
:104C6000642E44203D2025660D0A00009800002097
:104C700041524D4544203D2025640D0A00000000AE
:104C800099000020416363656C657261746F7220E6
:104C90003D2025640D0A00000D0ACEDED0A7A3A199
:104CA000A3A1A3A10D0A0000B8F1CABDB4EDCEF3D3
:104CB000A3ACC7EBD6D8D0C2B7A2CBCDA3A1A3A13A
:104CC000A3A10D0A000000007800002009488047D9
:104CD00009480047FEE7FEE7FEE7FEE7FEE7FEE7DE
:104CE000FEE7FEE7FEE7FEE704480549054A064BF6
:104CF0007047000077050008310100080802002015
:104D000008080020080400200804002010B504460C
:104D1000CC48844208D10121042000F02DFB002161
:104D2000042000F029FB46E0C748844208D1012155
:104D3000082000F021FB0021082000F01DFB3AE0D4
:104D4000C248844208D10121102000F015FB002147
:104D5000102000F011FB2EE0BD48844208D1012153
:104D6000202000F009FB0021202000F005FB22E0BC
:104D7000B848844208D10121402000F0FDFA00210A
:104D8000402000F0F9FA16E0B348844208D101212E
:104D9000802000F0F1FA0021802000F0EDFA0AE016
:104DA000AE48844207D10121801500F0E5FA0021C8
:104DB000A01500F0E1FA10BD10B50121084600F081
:104DC000DBFA0021012000F0D7FA10BD2DE9F041F7
:104DD000024600250026002000230024002791F829
:104DE00003C00CF00F0591F803C00CF0100CBCF1DF
:104DF000000F03D091F802C04CEA050591F800C0FD
:104E0000BCF1000F31D0146800202BE04FF0010CF2
:104E10000CFA00F3B1F800C00CEA03069E4220D160
:104E200083004FF00F0C0CFA03F7BC4305FA03FCA8
:104E30004CEA040491F803C0BCF1280F06D14FF0EE
:104E4000010C0CFA00FCC2F814C00AE091F803C08F
:104E5000BCF1480F05D14FF0010C0CFA00FCC2F870
:104E600010C0401C0828D1D31460B1F800C0BCF1B8
:104E7000FF0F34DD546800202EE000F1080C4FF0E5
:104E8000010808FA0CF3B1F800C00CEA03069E42D0
:104E900021D183004FF00F0C0CFA03F7BC4305FA45
:104EA00003FC4CEA040491F803C0BCF1280F05D1BF
:104EB00000F1080C08FA0CF8C2F8148091F803C04D
:104EC000BCF1480F07D100F1080C4FF0010808FAB7
:104ED0000CF8C2F81080401C0828CED35460BDE8FE
:104EE000F0814FF6FF710180022181700421C170B1
:104EF00070470246002093680B400BB1012000E090
:104F0000002070470146886880B270470246002042
:104F1000D3680B400BB1012000E000207047014630
:104F2000C86880B2704701617047416170470AB13B
:104F3000016100E041617047C16070474FF4803209
:104F40000A43826181618261826982697047024697
:104F50000020434B18684FF68073184040EA021057
:104F600008433F4B186070473E49C8617047F0B531
:104F70000A46002300240021002500F00046B6F177
:104F8000004F02D1364EF16901E0354E7168C0F331
:104F9000034583B200F44016B6F5401F08D121F056
:104FA00070612F4E766826F070662D4F7E6012E09D
:104FB00000F48016B6F5801F06D1032606FA05F424
:104FC000A14341F0706106E0460D360103FA06F692
:104FD000B14341F0706122B1460D360103FA06F685
:104FE000314300F00046B6F1004F02D11C4EF16192
:104FF00001E01B4E7160F0BD30B500228B071C0F25
:105000000F2303FA04F2164B08338C1053F82430A4
:105010009343134C08348D1044F8253023468C10EC
:1050200053F824308C07240F00FA04F423430C4C6B
:1050300008348D1044F8253030BD0A49DC31086051
:105040007047000000080140000C014000100140C2
:105050000014014000180140001C014000200140E4
:105060000000014000002042DF48006840F00100DD
:10507000DD49086008464068DC490840DA49486074
:1050800008460068DA490840D749086008460068C1
:1050900020F4802008600846406820F4FE00486044
:1050A0004FF41F0088607047CF49096821F48031B0
:1050B000CD4A11601146096821F480211160B0F5D4
:1050C000803F03D0B0F5802F0ED106E0C6490968B5
:1050D00041F48031C44A116007E0C349096841F4D2
:1050E000A021C14A116000E000BF00BF704710B5A9
:1050F00001460022002300204A11012A02D1BA4CA5
:10510000236806E0022A02D1B74C236A01E0B64CBC
:10511000636A01F01F02012494401C400CB101207D
:1051200000E0002010BD38B50020009000240025CC
:1051300000BF3120FFF7DBFF05460098401C0090C0
:105140000098B0F5A06F01D0002DF2D03120FFF70C
:10515000CEFF08B1012400E00024204638BD0146FE
:105160000020A14A106820F0F80040EAC100106059
:105170007047A04908607047024600209A4B586863
:1051800020F47C1042EA01031843974B58607047A3
:1051900098490866704701460020934A506820F0FD
:1051A00003000843506070478F48406800F00C00CF
:1051B0007047014600208C4A506820F0F0000843F8
:1051C0005060704701460020874A506820F4E06034
:1051D00008435060704701460020834A506820F41D
:1051E000605040EAC1005060704729B17E4A527A4F
:1051F00002437D4B5A7204E07B4A527A82437A4BD7
:105200005A7270477B49D8310860704701460020C8
:10521000754A506820F440400843506070470021B0
:10522000714A20321170704A82F82010012802D091
:1052300004280AD104E001216B4A2032117005E0F4
:105240000521694A2032117000E000BF00BF70479D
:105250006949086070476449096A0143624A1162FA
:105260007047654944390860704730B50021002215
:10527000002400235C4D6D6805F00C0121B1042968
:1052800005D0082923D105E05C4D056022E05B4D87
:1052900005601FE0544D6D6805F47012524D6D6845
:1052A00005F48034022505EB92421CB9544D554358
:1052B00005600BE04C4D6D6805F400351DB1504D97
:1052C0005543056002E04D4D5543056002E04B4DEE
:1052D000056000BF00BF444D6D6805F0F00109098D
:1052E000484D6B5C0568DD4045603F4D6D6805F4D9
:1052F000E061090A434D6B5C4568DD4085603A4DCD
:105300006D6805F46051C90A3E4D6B5C4568DD402F
:10531000C560354D6D6805F44041890B3A4D6B5CB5
:10532000C568B5FBF3F5056130BD29B12E4A526958
:1053300002432D4B5A6104E02B4A526982432A4BA7
:105340005A61704729B1284A92690243264B9A61F3
:1053500004E0254A92698243234B9A61704729B140
:10536000214AD2690243204BDA6104E01E4AD26925
:1053700082431D4BDA61704729B11B4AD268024350
:10538000194BDA6004E0184AD2688243164BDA609F
:10539000704729B1144A12690243134B1A6104E0A1
:1053A000114A12698243104B1A6170471249403901
:1053B000086070470F49C86470470B49C87170474F
:1053C0000948406A40F080700749486270470146CA
:1053D0000020054A92680A400AB1012000E000203E
:1053E0007047014988727047001002400000FFF8C2
:1053F000FFFFF6FE000042428004424200127A00A3
:1054000000093D007A0000208A00002010B5044603
:10541000FB48844209D101218803FFF7ADFF002139
:105420004FF48040FFF7A8FF32E0F648844209D1EC
:1054300001214804FFF7ADFF00214FF40030FFF7D2
:10544000A8FF25E0F048844209D101218804FFF734
:10545000A0FF00214FF48020FFF79BFF18E0EB48EE
:10546000844209D10121C804FFF793FF00214FF4C2
:105470000020FFF78EFF0BE0E548844208D10121B0
:105480000805FFF786FF00214FF48010FFF781FF2A
:1054900010BD2DE9F04786B005460E460024A24611
:1054A00000BFA1460027B08900B100BF2F462C8A5B
:1054B0004CF6FF700440F08804432C82AC894EF611
:1054C000F3100440B08831890843718908430443CC
:1054D000AC81AC8A4FF6FF400440B0890443AC82F3
:1054E00001A8FFF7C2FEC648874202D1DDF810A02E
:1054F00001E0DDF80CA0A88900F4004040B10AEBFF
:10550000CA0000EB0A1031684900B0FBF1F807E06F
:105510000AEBCA0000EB0A1031688900B0FBF1F811
:105520006420B8FBF0F004012009642101FB10891C
:10553000A88900F4004040B1322000EBC900B0FB64
:10554000F1F000F00700044308E0322000EB0910FE
:105550006421B0FBF1F000F00F0004432C8106B091
:10556000BDE8F0874FF41651016000218180C180B1
:1055700001810C21418100218181704710B50246D3
:105580000020108A4FF2FF0318400B884C882343F9
:105590008C882343CC8823431843108210BD0021FC
:1055A000018041808180C180704721B1828942F4AD
:1055B0000052828104E082894DF6FF731A40828195
:1055C0007047F0B50346002400260025002040F671
:1055D0006A17B94200D100BF1846C1F3421401F066
:1055E0001F06012707FA06F5012C01D10C3004E053
:1055F000022C01D1103000E014301AB107682F439B
:10560000076002E00768AF430760F0BD1AB1838A04
:105610000B43838202E0838A8B4383827047028A32
:105620004FF6F0731A400282028A0A4302827047E0
:1056300082894FF2FF731A40828182890A438281F4
:10564000704721B1828942F00202828104E082899E
:105650004FF6FD731A4082817047028A4FF6DF735E
:105660001A400282028A0A430282704721B1028AEA
:1056700042F48042028204E0028A4BF6FF731A4031
:1056800002827047C1F30802828070470146888811
:10569000C0F308007047818941F0010181817047A2
:1056A000028BD2B20283028B42EA0122028370474C
:1056B000028B02F47F420283028B0A43028370470B
:1056C00021B1828A42F02002828204E0828A4FF66F
:1056D000DF731A408282704721B1828A42F0100241
:1056E000828204E0828A4FF6EF731A40828270470A
:1056F00021B1828A42F00802828204E0828A4FF657
:10570000F7731A408282704721B1828942F40042C5
:10571000828103E08289C2F30E028281704721B147
:10572000828A42F40062828204E0828A4FF2FF732E
:105730001A4082827047828A4FF6FB731A40828237
:10574000828A0A438282704721B1828A42F0020231
:10575000828204E0828A4FF6FD731A40828270478B
:1057600002460020B1F5007F00D100BF13880B4036
:105770000BB1012000E00020704701F40072B2F587
:10578000007F00D100BFCA430280704770B5024657
:10579000002400230025002040F66A16B14200D103
:1057A00000BFC1F3421501F01F03012606FA03F3FF
:1057B000012D02D19689334006E0022D02D1168ACE
:1057C000334001E0968A33400C12012606FA04F4B5
:1057D0001688344013B10CB1012000E0002070BDE8
:1057E00010B50022002340F66A14A14200D100BF88
:1057F0000A1201249440A3B2DC43048010BD0000CF
:10580000003801400044004000480040004C004087
:105810000050004031490143314A1160704770B572
:10582000002100230F22C47804B32D4C246804F413
:10583000E064C4F5E064210AC1F10403CA4044787D
:1058400004FA03F18478144021430901254C0678B9
:10585000A155047804F01F050124AC4005786D11B2
:10586000AD0005F1E025C5F8004109E0047804F039
:105870001F050124AC401C4D0678761145F82640E2
:1058800070BD1A4A0A400243154B1B1F1A6070472D
:1058900039B1134A121D12680243114B1B1D1A60C5
:1058A00006E00F4A121D126882430D4B1B1D1A6041
:1058B0007047042808D14FF0E021096941F0040144
:1058C0004FF0E022116107E04FF0E021096921F07B
:1058D00004014FF0E0221161704700000000FA055A
:1058E0000CED00E000E400E080E100E080FFFF1F3D
:1058F00010B50446FE48844208D10121C014FFF7C8
:105900003BFD0021E014FFF737FDC4E0B4F1804F08
:1059100008D101210846FFF73CFD00210120FFF7D7
:1059200038FDB8E0F348844208D101210220FFF796
:1059300030FD00210220FFF72CFDACE0EE48844250
:1059400008D101210420FFF724FD00210420FFF7E6
:1059500020FDA0E0E948844208D101210820FFF79A
:1059600018FD00210820FFF714FD94E0E44884426C
:1059700008D101211020FFF70CFD00211020FFF7B6
:1059800008FD88E0DF48844208D101212020FFF78C
:1059900000FD00212020FFF7FCFC7CE0DA48844277
:1059A00008D101214014FFF7E7FC00216014FFF744
:1059B000E3FC70E0D548844209D10121C804FFF717
:1059C000DBFC00214FF40020FFF7D6FC63E0D04859
:1059D000844209D101210805FFF7CEFC00214FF4D4
:1059E0008010FFF7C9FC56E0CA48844209D1012162
:1059F0004805FFF7C1FC00214FF40010FFF7BCFC85
:105A000049E0C548844208D101214020FFF7C1FC8C
:105A100000214020FFF7BDFC3DE0C048844208D192
:105A200001218020FFF7B5FC00218020FFF7B1FCA9
:105A300031E0BB48844208D101218015FFF7A9FC61
:105A40000021A015FFF7A5FC25E0B648844209D146
:105A500001210804FFF790FC00214FF48030FFF78C
:105A60008BFC18E0B048844209D101214804FFF7BB
:105A700083FC00214FF40030FFF77EFC0BE0AB48C5
:105A8000844208D101218804FFF776FC00214FF4FD
:105A90008020FFF771FC10BD00220288944B9842D1
:105AA0000ED0994B98420BD0B0F1804F08D0914B5B
:105AB000984205D0904B984202D0904B984204D126
:105AC0004FF68F731A404B881A438D4B984207D07C
:105AD0008C4B984204D04FF6FF431A40CB881A43B0
